{
  "transactions": [
    {
      "hash": "0x96a98548dd6f852fc37952239db1ded204f2c98cfdad57f7e53a691ba78ff56d",
      "transactionType": "CALL",
      "contractName": null,
      "contractAddress": "0x7bb55d2d27194a25517f8a47cdaf227fd413dca6",
      "function": "approve(address,uint256)",
      "arguments": [
        "0x43BB8bEb166c8786C50a9D1D5c8482D667CF981A",
        "100000000"
      ],
      "transaction": {
        "from": "0x0ece75f3c36f7df2136dac7633165dbff53de3cd",
        "to": "0x7bb55d2d27194a25517f8a47cdaf227fd413dca6",
        "gas": "0xfd00",
        "value": "0x0",
        "input": "0x095ea7b300000000000000000000000043bb8beb166c8786c50a9d1d5c8482d667cf981a0000000000000000000000000000000000000000000000000000000005f5e100",
        "nonce": "0x15d",
        "chainId": "0x2105"
      },
      "additionalContracts": [],
      "isFixedGasLimit": false
    },
    {
      "hash": "0xd24e090ceb7a42eed16761fd9ad69e430792bd1cfc595358b70ff5d162a05ba7",
      "transactionType": "CALL",
      "contractName": null,
      "contractAddress": "0x43bb8beb166c8786c50a9d1d5c8482d667cf981a",
      "function": "sendBridge(address,address,address,address,address,address,uint32,uint256,uint256,uint256)",
      "arguments": [
        "0x374427909212B29fcC3Ffe8e7920a190a3031CB8",
        "0x560Bd1836C348c4a10EED7008e68AE58228dD117",
        "0x3571b96b1418910FD03831d35730172e4d011B06",
        "0x7bb55D2D27194a25517F8a47cDaF227fD413DCA6",
        "0xCEb5c8903060197e46Ab5ea5087b9F99CBc8da49",
        "0x374427909212B29fcC3Ffe8e7920a190a3031CB8",
        "30150",
        "100000000",
        "11474360797560",
        "11415775318387"
      ],
      "transaction": {
        "from": "0x0ece75f3c36f7df2136dac7633165dbff53de3cd",
        "to": "0x43bb8beb166c8786c50a9d1d5c8482d667cf981a",
        "gas": "0xaf94f",
        "value": "0x14d1866e9aeb",
        "input": "0x15ef05f7000000000000000000000000374427909212b29fcc3ffe8e7920a190a3031cb8000000000000000000000000560bd1836c348c4a10eed7008e68ae58228dd1170000000000000000000000003571b96b1418910fd03831d35730172e4d011b060000000000000000000000007bb55d2d27194a25517f8a47cdaf227fd413dca6000000000000000000000000ceb5c8903060197e46ab5ea5087b9f99cbc8da49000000000000000000000000374427909212b29fcc3ffe8e7920a190a3031cb800000000000000000000000000000000000000000000000000000000000075c60000000000000000000000000000000000000000000000000000000005f5e10000000000000000000000000000000000000000000000000000000a6f9533097800000000000000000000000000000000000000000000000000000a61f13b9173",
        "nonce": "0x15e",
        "chainId": "0x2105"
      },
      "additionalContracts": [],
      "isFixedGasLimit": false
    }
  ],
  "receipts": [
    {
      "status": "0x1",
      "cumulativeGasUsed": "0xb0b3eb",
      "logs": [
        {
          "address": "0x7bb55d2d27194a25517f8a47cdaf227fd413dca6",
          "topics": [
            "0x8c5be1e5ebec7d5bd14f71427d1e84f3dd0314c0f7b2291e5b200ac8c7c3b925",
            "0x0000000000000000000000000ece75f3c36f7df2136dac7633165dbff53de3cd",
            "0x00000000000000000000000043bb8beb166c8786c50a9d1d5c8482d667cf981a"
          ],
          "data": "0x0000000000000000000000000000000000000000000000000000000005f5e100",
          "blockHash": "0x6e573feab5c7a7e03cd30a6ad104e326417102dd74ff098ff4216ec17e86be12",
          "blockNumber": "0x22177a8",
          "blockTimestamp": "0x68cd4c33",
          "transactionHash": "0x96a98548dd6f852fc37952239db1ded204f2c98cfdad57f7e53a691ba78ff56d",
          "transactionIndex": "0x42",
          "logIndex": "0xd7",
          "removed": false
        }
      ],
      "logsBloom": "0x00000000000000000000000000000000000000000000000000000000000000000000000000000000000000000000000400000000000000000000000000200000000000000008000000000000000000000000000000000000000000000000000000000000000000000000000000000000000000080000200000000000000000000000000000000000000000000000080000000000000000020000000000000000020000000100000000000800000000000000000000000000000000000000000000000000000000000000000000000000000000000000000000000000000000000010000000200000000000000000000000000000000000000000000000000000",
      "type": "0x2",
      "transactionHash": "0x96a98548dd6f852fc37952239db1ded204f2c98cfdad57f7e53a691ba78ff56d",
      "transactionIndex": "0x42",
      "blockHash": "0x6e573feab5c7a7e03cd30a6ad104e326417102dd74ff098ff4216ec17e86be12",
      "blockNumber": "0x22177a8",
      "gasUsed": "0xb72c",
      "effectiveGasPrice": "0x4e1c23",
      "from": "0x0ece75f3c36f7df2136dac7633165dbff53de3cd",
      "to": "0x7bb55d2d27194a25517f8a47cdaf227fd413dca6",
      "contractAddress": null,
      "l1BaseFeeScalar": "0x8dd",
      "l1BlobBaseFee": "0x1",
      "l1BlobBaseFeeScalar": "0x101c12",
      "l1Fee": "0x5ab93b5d",
      "l1GasPrice": "0x18fd6e1c",
      "l1GasUsed": "0x640"
    },
    {
      "status": "0x1",
      "cumulativeGasUsed": "0xb8a5cf",
      "logs": [
        {
          "address": "0x7bb55d2d27194a25517f8a47cdaf227fd413dca6",
          "topics": [
            "0xddf252ad1be2c89b69c2b068fc378daa952ba7f163c4a11628f55a4df523b3ef",
            "0x0000000000000000000000000ece75f3c36f7df2136dac7633165dbff53de3cd",
            "0x00000000000000000000000043bb8beb166c8786c50a9d1d5c8482d667cf981a"
          ],
          "data": "0x0000000000000000000000000000000000000000000000000000000005f5e100",
          "blockHash": "0x63c3fd9b2aa0f40b177089f1f74f927931401721fdfe1de1fcc51528a327395e",
          "blockNumber": "0x22177a8",
          "blockTimestamp": "0x68cd4c33",
          "transactionHash": "0xd24e090ceb7a42eed16761fd9ad69e430792bd1cfc595358b70ff5d162a05ba7",
          "transactionIndex": "0x43",
          "logIndex": "0xd8",
          "removed": false
        },
        {
          "address": "0x7bb55d2d27194a25517f8a47cdaf227fd413dca6",
          "topics": [
            "0x8c5be1e5ebec7d5bd14f71427d1e84f3dd0314c0f7b2291e5b200ac8c7c3b925",
            "0x00000000000000000000000043bb8beb166c8786c50a9d1d5c8482d667cf981a",
            "0x000000000000000000000000560bd1836c348c4a10eed7008e68ae58228dd117"
          ],
          "data": "0x0000000000000000000000000000000000000000000000000000000005f5e100",
          "blockHash": "0x63c3fd9b2aa0f40b177089f1f74f927931401721fdfe1de1fcc51528a327395e",
          "blockNumber": "0x22177a8",
          "blockTimestamp": "0x68cd4c33",
          "transactionHash": "0xd24e090ceb7a42eed16761fd9ad69e430792bd1cfc595358b70ff5d162a05ba7",
          "transactionIndex": "0x43",
          "logIndex": "0xd9",
          "removed": false
        },
        {
          "address": "0x7bb55d2d27194a25517f8a47cdaf227fd413dca6",
          "topics": [
            "0x8c5be1e5ebec7d5bd14f71427d1e84f3dd0314c0f7b2291e5b200ac8c7c3b925",
            "0x00000000000000000000000026991986aec6748f439940949b74873418006383",
            "0x00000000000000000000000026991986aec6748f439940949b74873418006383"
          ],
          "data": "0x0000000000000000000000000000000000000000000000000000000005f5e100",
          "blockHash": "0x63c3fd9b2aa0f40b177089f1f74f927931401721fdfe1de1fcc51528a327395e",
          "blockNumber": "0x22177a8",
          "blockTimestamp": "0x68cd4c33",
          "transactionHash": "0xd24e090ceb7a42eed16761fd9ad69e430792bd1cfc595358b70ff5d162a05ba7",
          "transactionIndex": "0x43",
          "logIndex": "0xda",
          "removed": false
        },
        {
          "address": "0x7bb55d2d27194a25517f8a47cdaf227fd413dca6",
          "topics": [
            "0xddf252ad1be2c89b69c2b068fc378daa952ba7f163c4a11628f55a4df523b3ef",
            "0x00000000000000000000000043bb8beb166c8786c50a9d1d5c8482d667cf981a",
            "0x0000000000000000000000000000000000000000000000000000000000000000"
          ],
          "data": "0x0000000000000000000000000000000000000000000000000000000005f5e100",
          "blockHash": "0x63c3fd9b2aa0f40b177089f1f74f927931401721fdfe1de1fcc51528a327395e",
          "blockNumber": "0x22177a8",
          "blockTimestamp": "0x68cd4c33",
          "transactionHash": "0xd24e090ceb7a42eed16761fd9ad69e430792bd1cfc595358b70ff5d162a05ba7",
          "transactionIndex": "0x43",
          "logIndex": "0xdb",
          "removed": false
        },
        {
          "address": "0xb5320b0b3a13cc860893e2bd79fcd7e13484dda2",
          "topics": [
            "0x61ed099e74a97a1d7f8bb0952a88ca8b7b8ebd00c126ea04671f92a81213318a"
          ],
          "data": "0x0000000000000000000000002cca08ae69e0c44b18a57ab2a87644234daebae400000000000000000000000000000000000000000000000000000a4308b6f7a6",
          "blockHash": "0x63c3fd9b2aa0f40b177089f1f74f927931401721fdfe1de1fcc51528a327395e",
          "blockNumber": "0x22177a8",
          "blockTimestamp": "0x68cd4c33",
          "transactionHash": "0xd24e090ceb7a42eed16761fd9ad69e430792bd1cfc595358b70ff5d162a05ba7",
          "transactionIndex": "0x43",
          "logIndex": "0xdc",
          "removed": false
        },
        {
          "address": "0xb5320b0b3a13cc860893e2bd79fcd7e13484dda2",
          "topics": [
            "0x07ea52d82345d6e838192107d8fd7123d9c2ec8e916cd0aad13fd2b60db24644"
          ],
          "data": "0x000000000000000000000000000000000000000000000000000000000000006000000000000000000000000000000000000000000000000000000000000000c000000000000000000000000000000000000000000000000000000000000000e00000000000000000000000000000000000000000000000000000000000000002000000000000000000000000554833698ae0fb22ecc90b01222903fd62ca4b47000000000000000000000000a7b5189bca84cd304d8553977c7c614329750d9900000000000000000000000000000000000000000000000000000000000000000000000000000000000000000000000000000000000000000000000000000002000000000000000000000000000000000000000000000000000000169a96543500000000000000000000000000000000000000000000000000000015f1e5bd9d",
          "blockHash": "0x63c3fd9b2aa0f40b177089f1f74f927931401721fdfe1de1fcc51528a327395e",
          "blockNumber": "0x22177a8",
          "blockTimestamp": "0x68cd4c33",
          "transactionHash": "0xd24e090ceb7a42eed16761fd9ad69e430792bd1cfc595358b70ff5d162a05ba7",
          "transactionIndex": "0x43",
          "logIndex": "0xdd",
          "removed": false
        },
        {
          "address": "0x1a44076050125825900e736c501f859c50fe728c",
          "topics": [
            "0x1ab700d4ced0c005b164c0f789fd09fcbb0156d4c2041b8a3bfbcd961cd1567f"
          ],
          "data": "0x00000000000000000000000000000000000000000000000000000000000000600000000000000000000000000000000000000000000000000000000000000120000000000000000000000000b5320b0b3a13cc860893e2bd79fcd7e13484dda20000000000000000000000000000000000000000000000000000000000000099010000000000000002000075e8000000000000000000000000560bd1836c348c4a10eed7008e68ae58228dd117000075c60000000000000000000000005e6671ef689b2b2d4391a766b0486e505413654688c8e3123e8431d2929862c33fa28eb32b4caf3311468bdd2dcda96a611819d8000000000000000000000000374427909212b29fcc3ffe8e7920a190a3031cb80000000005f5e10000000000000000000000000000000000000000000000000000000000000000000000000000002a000301001101000000000000000000000000000186a0010011010000000000000000000000000000fde800000000000000000000000000000000000000000000",
          "blockHash": "0x63c3fd9b2aa0f40b177089f1f74f927931401721fdfe1de1fcc51528a327395e",
          "blockNumber": "0x22177a8",
          "blockTimestamp": "0x68cd4c33",
          "transactionHash": "0xd24e090ceb7a42eed16761fd9ad69e430792bd1cfc595358b70ff5d162a05ba7",
          "transactionIndex": "0x43",
          "logIndex": "0xde",
          "removed": false
        },
        {
          "address": "0x560bd1836c348c4a10eed7008e68ae58228dd117",
          "topics": [
            "0x85496b760a4b7f8d66384b9df21b381f5d1b1e79f229a47aaf4c232edc2fe59a",
            "0x88c8e3123e8431d2929862c33fa28eb32b4caf3311468bdd2dcda96a611819d8",
            "0x00000000000000000000000043bb8beb166c8786c50a9d1d5c8482d667cf981a"
          ],
          "data": "0x00000000000000000000000000000000000000000000000000000000000075c60000000000000000000000000000000000000000000000000000000005f5e1000000000000000000000000000000000000000000000000000000000005f5e100",
          "blockHash": "0x63c3fd9b2aa0f40b177089f1f74f927931401721fdfe1de1fcc51528a327395e",
          "blockNumber": "0x22177a8",
          "blockTimestamp": "0x68cd4c33",
          "transactionHash": "0xd24e090ceb7a42eed16761fd9ad69e430792bd1cfc595358b70ff5d162a05ba7",
          "transactionIndex": "0x43",
          "logIndex": "0xdf",
          "removed": false
        },
        {
          "address": "0xb5320b0b3a13cc860893e2bd79fcd7e13484dda2",
          "topics": [
            "0x61ed099e74a97a1d7f8bb0952a88ca8b7b8ebd00c126ea04671f92a81213318a"
          ],
          "data": "0x0000000000000000000000002cca08ae69e0c44b18a57ab2a87644234daebae400000000000000000000000000000000000000000000000000000a3564bf7fa1",
          "blockHash": "0x63c3fd9b2aa0f40b177089f1f74f927931401721fdfe1de1fcc51528a327395e",
          "blockNumber": "0x22177a8",
          "blockTimestamp": "0x68cd4c33",
          "transactionHash": "0xd24e090ceb7a42eed16761fd9ad69e430792bd1cfc595358b70ff5d162a05ba7",
          "transactionIndex": "0x43",
          "logIndex": "0xe0",
          "removed": false
        },
        {
          "address": "0xb5320b0b3a13cc860893e2bd79fcd7e13484dda2",
          "topics": [
            "0x07ea52d82345d6e838192107d8fd7123d9c2ec8e916cd0aad13fd2b60db24644"
          ],
          "data": "0x000000000000000000000000000000000000000000000000000000000000006000000000000000000000000000000000000000000000000000000000000000c000000000000000000000000000000000000000000000000000000000000000e00000000000000000000000000000000000000000000000000000000000000002000000000000000000000000554833698ae0fb22ecc90b01222903fd62ca4b47000000000000000000000000a7b5189bca84cd304d8553977c7c614329750d9900000000000000000000000000000000000000000000000000000000000000000000000000000000000000000000000000000000000000000000000000000002000000000000000000000000000000000000000000000000000000169a96543500000000000000000000000000000000000000000000000000000015f1e5bd9d",
          "blockHash": "0x63c3fd9b2aa0f40b177089f1f74f927931401721fdfe1de1fcc51528a327395e",
          "blockNumber": "0x22177a8",
          "blockTimestamp": "0x68cd4c33",
          "transactionHash": "0xd24e090ceb7a42eed16761fd9ad69e430792bd1cfc595358b70ff5d162a05ba7",
          "transactionIndex": "0x43",
          "logIndex": "0xe1",
          "removed": false
        },
        {
          "address": "0x1a44076050125825900e736c501f859c50fe728c",
          "topics": [
            "0x1ab700d4ced0c005b164c0f789fd09fcbb0156d4c2041b8a3bfbcd961cd1567f"
          ],
          "data": "0x00000000000000000000000000000000000000000000000000000000000000600000000000000000000000000000000000000000000000000000000000000180000000000000000000000000b5320b0b3a13cc860893e2bd79fcd7e13484dda200000000000000000000000000000000000000000000000000000000000000f1010000000000000003000075e8000000000000000000000000374427909212b29fcc3ffe8e7920a190a3031cb8000075c6000000000000000000000000f8af5114ad19422e059797ca2515febd8bc06bd13a4df7923afd5a104ca93363744c99e34192f99acd06510e0444861f2c92756e0000000000000000000000003571b96b1418910fd03831d35730172e4d011b06000000000000000000000000374427909212b29fcc3ffe8e7920a190a3031cb8000000000000000000000000ceb5c8903060197e46ab5ea5087b9f99cbc8da490000000000000000000000000000000000000000000000000000000005f5e1000000000000000000000000000000000000000000000000000000000000000000000000000000000000000000000016000301001101000000000000000000000000000186a000000000000000000000",
          "blockHash": "0x63c3fd9b2aa0f40b177089f1f74f927931401721fdfe1de1fcc51528a327395e",
          "blockNumber": "0x22177a8",
          "blockTimestamp": "0x68cd4c33",
          "transactionHash": "0xd24e090ceb7a42eed16761fd9ad69e430792bd1cfc595358b70ff5d162a05ba7",
          "transactionIndex": "0x43",
          "logIndex": "0xe2",
          "removed": false
        },
        {
          "address": "0x374427909212b29fcc3ffe8e7920a190a3031cb8",
          "topics": [
            "0x1c47822afe589e0b1792cdba1d6fa7b547c3f71d2d14898c3e05e311e9e3a54c"
          ],
          "data": "0x0000000000000000000000003571b96b1418910fd03831d35730172e4d011b06000000000000000000000000374427909212b29fcc3ffe8e7920a190a3031cb8000000000000000000000000ceb5c8903060197e46ab5ea5087b9f99cbc8da490000000000000000000000000000000000000000000000000000000005f5e100",
          "blockHash": "0x63c3fd9b2aa0f40b177089f1f74f927931401721fdfe1de1fcc51528a327395e",
          "blockNumber": "0x22177a8",
          "blockTimestamp": "0x68cd4c33",
          "transactionHash": "0xd24e090ceb7a42eed16761fd9ad69e430792bd1cfc595358b70ff5d162a05ba7",
          "transactionIndex": "0x43",
          "logIndex": "0xe3",
          "removed": false
        }
      ],
      "logsBloom": "0x00000000000000000000000000000000000000000000000000000000001000000000000000040000000000000000000400000000000100000000000000200000000002000008000000000408000000000200000000000000000000000000000100000002820000008000000000000800000800080010200000020010000010000000000000000000000000080000280010000000000000020004000000000000020000008100000000100900000000000000000000400000001440000000400000000002200000000000000080000000000000000000000000000000000020000010040200200008000000000000002000100000018002000000000000000000",
      "type": "0x2",
      "transactionHash": "0xd24e090ceb7a42eed16761fd9ad69e430792bd1cfc595358b70ff5d162a05ba7",
      "transactionIndex": "0x43",
      "blockHash": "0x63c3fd9b2aa0f40b177089f1f74f927931401721fdfe1de1fcc51528a327395e",
      "blockNumber": "0x22177a8",
      "gasUsed": "0x7f1e4",
      "effectiveGasPrice": "0x4e1c23",
      "from": "0x0ece75f3c36f7df2136dac7633165dbff53de3cd",
      "to": "0x43bb8beb166c8786c50a9d1d5c8482d667cf981a",
      "contractAddress": null,
      "l1BaseFeeScalar": "0x8dd",
      "l1BlobBaseFee": "0x1",
      "l1BlobBaseFeeScalar": "0x101c12",
      "l1Fee": "0xc259118c",
      "l1GasPrice": "0x18fd6e1c",
      "l1GasUsed": "0xd63"
    }
  ],
  "libraries": [],
  "pending": [],
  "returns": {},
  "timestamp": 1758284849584,
  "chain": 8453,
  "commit": "6c82bda"
}