{
  "transactions": [
    {
      "hash": "0xfeb6ab68324239a68031c9d6ee9eb63313bbfda5752b8f49e7698cfbf617370f",
      "transactionType": "CALL",
      "contractName": null,
      "contractAddress": "0xc3be8ab4ca0cefe3119a765b324bbdf54a16a65b",
      "function": "approve(address,uint256)",
      "arguments": [
        "0xBB4a3e822190C898C42C0836636D897EBdd8d53A",
        "100000000"
      ],
      "transaction": {
        "from": "0x0ece75f3c36f7df2136dac7633165dbff53de3cd",
        "to": "0xc3be8ab4ca0cefe3119a765b324bbdf54a16a65b",
        "gas": "0x10c04",
        "value": "0x0",
        "input": "0x095ea7b3000000000000000000000000bb4a3e822190c898c42c0836636d897ebdd8d53a0000000000000000000000000000000000000000000000000000000005f5e100",
        "nonce": "0x140",
        "chainId": "0x2105"
      },
      "additionalContracts": [],
      "isFixedGasLimit": false
    },
    {
      "hash": "0x64f7780146fb7c3ba5e547f69015498c741e7710bdea25a63616a22e4e602655",
      "transactionType": "CALL",
      "contractName": null,
      "contractAddress": "0xbb4a3e822190c898c42c0836636d897ebdd8d53a",
      "function": "sendString(uint32,address,address,address,address,uint256,uint256,bytes)",
      "arguments": [
        "30150",
        "0x3571b96b1418910FD03831d35730172e4d011B06",
        "0x0EcE75f3C36f7Df2136Dac7633165DBff53dE3CD",
        "0xCEb5c8903060197e46Ab5ea5087b9F99CBc8da49",
        "0xaF126B36958Ef1A6Ed80118841A7f1660f921346",
        "100000000",
        "0",
        "0x"
      ],
      "transaction": {
        "from": "0x0ece75f3c36f7df2136dac7633165dbff53de3cd",
        "to": "0xbb4a3e822190c898c42c0836636d897ebdd8d53a",
        "gas": "0xd544a",
        "value": "0x14d1866e9aeb",
        "input": "0x968a61ce00000000000000000000000000000000000000000000000000000000000075c60000000000000000000000003571b96b1418910fd03831d35730172e4d011b060000000000000000000000000ece75f3c36f7df2136dac7633165dbff53de3cd000000000000000000000000ceb5c8903060197e46ab5ea5087b9f99cbc8da49000000000000000000000000af126b36958ef1a6ed80118841a7f1660f9213460000000000000000000000000000000000000000000000000000000005f5e100000000000000000000000000000000000000000000000000000000000000000000000000000000000000000000000000000000000000000000000000000001000000000000000000000000000000000000000000000000000000000000000000",
        "nonce": "0x141",
        "chainId": "0x2105"
      },
      "additionalContracts": [],
      "isFixedGasLimit": false
    }
  ],
  "receipts": [
    {
      "status": "0x1",
      "cumulativeGasUsed": "0x8a81aa",
      "logs": [
        {
          "address": "0xc3be8ab4ca0cefe3119a765b324bbdf54a16a65b",
          "topics": [
            "0x8c5be1e5ebec7d5bd14f71427d1e84f3dd0314c0f7b2291e5b200ac8c7c3b925",
            "0x0000000000000000000000000ece75f3c36f7df2136dac7633165dbff53de3cd",
            "0x000000000000000000000000bb4a3e822190c898c42c0836636d897ebdd8d53a"
          ],
          "data": "0x0000000000000000000000000000000000000000000000000000000005f5e100",
          "blockHash": "0x795d3142eca9156c6a9616b0345d04a065192bd03e92db31840c8623fc2611a2",
          "blockNumber": "0x220ffac",
          "blockTimestamp": "0x68cc5c3b",
          "transactionHash": "0xfeb6ab68324239a68031c9d6ee9eb63313bbfda5752b8f49e7698cfbf617370f",
          "transactionIndex": "0x2d",
          "logIndex": "0xab",
          "removed": false
        }
      ],
      "logsBloom": "0x00000000000000000000000000000000010000000000400000000000000000000000000000000000000000004000000000000000000000000000000000200000000000000000000000000000000000000000000000000000000000000000000000000000000000000000000000000000000100000000200000000000000000000000000000000000000000000000000000000000000000000000000000000000020000000000000000000800000000000000000000000000000000000000000800000000000000000000000000000000000000000000000000400000000000000010000000200000000000000000000000000000000000000000000000000000",
      "type": "0x2",
      "transactionHash": "0xfeb6ab68324239a68031c9d6ee9eb63313bbfda5752b8f49e7698cfbf617370f",
      "transactionIndex": "0x2d",
      "blockHash": "0x795d3142eca9156c6a9616b0345d04a065192bd03e92db31840c8623fc2611a2",
      "blockNumber": "0x220ffac",
      "gasUsed": "0xb743",
      "effectiveGasPrice": "0x26b962",
      "from": "0x0ece75f3c36f7df2136dac7633165dbff53de3cd",
      "to": "0xc3be8ab4ca0cefe3119a765b324bbdf54a16a65b",
      "contractAddress": null,
      "l1BaseFeeScalar": "0x8dd",
      "l1BlobBaseFee": "0x1",
      "l1BlobBaseFeeScalar": "0x101c12",
      "l1Fee": "0xc0c1fc33",
      "l1GasPrice": "0x35186fe4",
      "l1GasUsed": "0x640"
    },
    {
      "status": "0x1",
      "cumulativeGasUsed": "0x94281a",
      "logs": [
        {
          "address": "0xc3be8ab4ca0cefe3119a765b324bbdf54a16a65b",
          "topics": [
            "0xddf252ad1be2c89b69c2b068fc378daa952ba7f163c4a11628f55a4df523b3ef",
            "0x0000000000000000000000000ece75f3c36f7df2136dac7633165dbff53de3cd",
            "0x000000000000000000000000bb4a3e822190c898c42c0836636d897ebdd8d53a"
          ],
          "data": "0x0000000000000000000000000000000000000000000000000000000005f5e100",
          "blockHash": "0x44f4a6d076ea3f91d415c3395bdad4e97f577f6c7d52f0792477cfc2763f9e66",
          "blockNumber": "0x220ffac",
          "blockTimestamp": "0x68cc5c3b",
          "transactionHash": "0x64f7780146fb7c3ba5e547f69015498c741e7710bdea25a63616a22e4e602655",
          "transactionIndex": "0x2e",
          "logIndex": "0xac",
          "removed": false
        },
        {
          "address": "0xc3be8ab4ca0cefe3119a765b324bbdf54a16a65b",
          "topics": [
            "0x8c5be1e5ebec7d5bd14f71427d1e84f3dd0314c0f7b2291e5b200ac8c7c3b925",
            "0x000000000000000000000000bb4a3e822190c898c42c0836636d897ebdd8d53a",
            "0x000000000000000000000000ad063b1915bf95fb32f79138c0b668f232676333"
          ],
          "data": "0x0000000000000000000000000000000000000000000000000000000005f5e100",
          "blockHash": "0x44f4a6d076ea3f91d415c3395bdad4e97f577f6c7d52f0792477cfc2763f9e66",
          "blockNumber": "0x220ffac",
          "blockTimestamp": "0x68cc5c3b",
          "transactionHash": "0x64f7780146fb7c3ba5e547f69015498c741e7710bdea25a63616a22e4e602655",
          "transactionIndex": "0x2e",
          "logIndex": "0xad",
          "removed": false
        },
        {
          "address": "0xc3be8ab4ca0cefe3119a765b324bbdf54a16a65b",
          "topics": [
            "0xddf252ad1be2c89b69c2b068fc378daa952ba7f163c4a11628f55a4df523b3ef",
            "0x000000000000000000000000bb4a3e822190c898c42c0836636d897ebdd8d53a",
            "0x000000000000000000000000ad063b1915bf95fb32f79138c0b668f232676333"
          ],
          "data": "0x0000000000000000000000000000000000000000000000000000000005f5e100",
          "blockHash": "0x44f4a6d076ea3f91d415c3395bdad4e97f577f6c7d52f0792477cfc2763f9e66",
          "blockNumber": "0x220ffac",
          "blockTimestamp": "0x68cc5c3b",
          "transactionHash": "0x64f7780146fb7c3ba5e547f69015498c741e7710bdea25a63616a22e4e602655",
          "transactionIndex": "0x2e",
          "logIndex": "0xae",
          "removed": false
        },
        {
          "address": "0xc3be8ab4ca0cefe3119a765b324bbdf54a16a65b",
          "topics": [
            "0x8c5be1e5ebec7d5bd14f71427d1e84f3dd0314c0f7b2291e5b200ac8c7c3b925",
            "0x000000000000000000000000ad063b1915bf95fb32f79138c0b668f232676333",
            "0x000000000000000000000000da5d036f51bd6fe5e32915a53595b71312d45f91"
          ],
          "data": "0x0000000000000000000000000000000000000000000000000000000005f5e100",
          "blockHash": "0x44f4a6d076ea3f91d415c3395bdad4e97f577f6c7d52f0792477cfc2763f9e66",
          "blockNumber": "0x220ffac",
          "blockTimestamp": "0x68cc5c3b",
          "transactionHash": "0x64f7780146fb7c3ba5e547f69015498c741e7710bdea25a63616a22e4e602655",
          "transactionIndex": "0x2e",
          "logIndex": "0xaf",
          "removed": false
        },
        {
          "address": "0xc3be8ab4ca0cefe3119a765b324bbdf54a16a65b",
          "topics": [
            "0xddf252ad1be2c89b69c2b068fc378daa952ba7f163c4a11628f55a4df523b3ef",
            "0x000000000000000000000000ad063b1915bf95fb32f79138c0b668f232676333",
            "0x000000000000000000000000da5d036f51bd6fe5e32915a53595b71312d45f91"
          ],
          "data": "0x0000000000000000000000000000000000000000000000000000000005f5e100",
          "blockHash": "0x44f4a6d076ea3f91d415c3395bdad4e97f577f6c7d52f0792477cfc2763f9e66",
          "blockNumber": "0x220ffac",
          "blockTimestamp": "0x68cc5c3b",
          "transactionHash": "0x64f7780146fb7c3ba5e547f69015498c741e7710bdea25a63616a22e4e602655",
          "transactionIndex": "0x2e",
          "logIndex": "0xb0",
          "removed": false
        },
        {
          "address": "0xc3be8ab4ca0cefe3119a765b324bbdf54a16a65b",
          "topics": [
            "0xddf252ad1be2c89b69c2b068fc378daa952ba7f163c4a11628f55a4df523b3ef",
            "0x000000000000000000000000da5d036f51bd6fe5e32915a53595b71312d45f91",
            "0x0000000000000000000000000000000000000000000000000000000000000000"
          ],
          "data": "0x0000000000000000000000000000000000000000000000000000000005f5e100",
          "blockHash": "0x44f4a6d076ea3f91d415c3395bdad4e97f577f6c7d52f0792477cfc2763f9e66",
          "blockNumber": "0x220ffac",
          "blockTimestamp": "0x68cc5c3b",
          "transactionHash": "0x64f7780146fb7c3ba5e547f69015498c741e7710bdea25a63616a22e4e602655",
          "transactionIndex": "0x2e",
          "logIndex": "0xb1",
          "removed": false
        },
        {
          "address": "0xad063b1915bf95fb32f79138c0b668f232676333",
          "topics": [
            "0x59c79d79be0fadf59fe689b6952b7ebe90201a3a1f00d4a31982377890bc6046"
          ],
          "data": "0x000000000000000000000000bb4a3e822190c898c42c0836636d897ebdd8d53a0000000000000000000000000000000000000000000000000000000005f5e100",
          "blockHash": "0x44f4a6d076ea3f91d415c3395bdad4e97f577f6c7d52f0792477cfc2763f9e66",
          "blockNumber": "0x220ffac",
          "blockTimestamp": "0x68cc5c3b",
          "transactionHash": "0x64f7780146fb7c3ba5e547f69015498c741e7710bdea25a63616a22e4e602655",
          "transactionIndex": "0x2e",
          "logIndex": "0xb2",
          "removed": false
        },
        {
          "address": "0xb5320b0b3a13cc860893e2bd79fcd7e13484dda2",
          "topics": [
            "0x61ed099e74a97a1d7f8bb0952a88ca8b7b8ebd00c126ea04671f92a81213318a"
          ],
          "data": "0x0000000000000000000000002cca08ae69e0c44b18a57ab2a87644234daebae400000000000000000000000000000000000000000000000000000a4308b6f7a6",
          "blockHash": "0x44f4a6d076ea3f91d415c3395bdad4e97f577f6c7d52f0792477cfc2763f9e66",
          "blockNumber": "0x220ffac",
          "blockTimestamp": "0x68cc5c3b",
          "transactionHash": "0x64f7780146fb7c3ba5e547f69015498c741e7710bdea25a63616a22e4e602655",
          "transactionIndex": "0x2e",
          "logIndex": "0xb3",
          "removed": false
        },
        {
          "address": "0xb5320b0b3a13cc860893e2bd79fcd7e13484dda2",
          "topics": [
            "0x07ea52d82345d6e838192107d8fd7123d9c2ec8e916cd0aad13fd2b60db24644"
          ],
          "data": "0x000000000000000000000000000000000000000000000000000000000000006000000000000000000000000000000000000000000000000000000000000000c000000000000000000000000000000000000000000000000000000000000000e00000000000000000000000000000000000000000000000000000000000000002000000000000000000000000554833698ae0fb22ecc90b01222903fd62ca4b47000000000000000000000000a7b5189bca84cd304d8553977c7c614329750d9900000000000000000000000000000000000000000000000000000000000000000000000000000000000000000000000000000000000000000000000000000002000000000000000000000000000000000000000000000000000000169a96543500000000000000000000000000000000000000000000000000000015f1e5bd9d",
          "blockHash": "0x44f4a6d076ea3f91d415c3395bdad4e97f577f6c7d52f0792477cfc2763f9e66",
          "blockNumber": "0x220ffac",
          "blockTimestamp": "0x68cc5c3b",
          "transactionHash": "0x64f7780146fb7c3ba5e547f69015498c741e7710bdea25a63616a22e4e602655",
          "transactionIndex": "0x2e",
          "logIndex": "0xb4",
          "removed": false
        },
        {
          "address": "0x1a44076050125825900e736c501f859c50fe728c",
          "topics": [
            "0x1ab700d4ced0c005b164c0f789fd09fcbb0156d4c2041b8a3bfbcd961cd1567f"
          ],
          "data": "0x00000000000000000000000000000000000000000000000000000000000000600000000000000000000000000000000000000000000000000000000000000120000000000000000000000000b5320b0b3a13cc860893e2bd79fcd7e13484dda20000000000000000000000000000000000000000000000000000000000000099010000000000000001000075e8000000000000000000000000ad063b1915bf95fb32f79138c0b668f232676333000075c60000000000000000000000006d68a52bc77f2eac3582a7072ead94c19b9f480cee1e0d15e3775021fd4bbb3e5a8e889d09b3a14655b05730828979e239d1e0e3000000000000000000000000af126b36958ef1a6ed80118841a7f1660f9213460000000005f5e10000000000000000000000000000000000000000000000000000000000000000000000000000002a000301001101000000000000000000000000000186a0010011010000000000000000000000000000fde800000000000000000000000000000000000000000000",
          "blockHash": "0x44f4a6d076ea3f91d415c3395bdad4e97f577f6c7d52f0792477cfc2763f9e66",
          "blockNumber": "0x220ffac",
          "blockTimestamp": "0x68cc5c3b",
          "transactionHash": "0x64f7780146fb7c3ba5e547f69015498c741e7710bdea25a63616a22e4e602655",
          "transactionIndex": "0x2e",
          "logIndex": "0xb5",
          "removed": false
        },
        {
          "address": "0xad063b1915bf95fb32f79138c0b668f232676333",
          "topics": [
            "0x85496b760a4b7f8d66384b9df21b381f5d1b1e79f229a47aaf4c232edc2fe59a",
            "0xee1e0d15e3775021fd4bbb3e5a8e889d09b3a14655b05730828979e239d1e0e3",
            "0x000000000000000000000000bb4a3e822190c898c42c0836636d897ebdd8d53a"
          ],
          "data": "0x00000000000000000000000000000000000000000000000000000000000075c60000000000000000000000000000000000000000000000000000000005f5e1000000000000000000000000000000000000000000000000000000000005f5e100",
          "blockHash": "0x44f4a6d076ea3f91d415c3395bdad4e97f577f6c7d52f0792477cfc2763f9e66",
          "blockNumber": "0x220ffac",
          "blockTimestamp": "0x68cc5c3b",
          "transactionHash": "0x64f7780146fb7c3ba5e547f69015498c741e7710bdea25a63616a22e4e602655",
          "transactionIndex": "0x2e",
          "logIndex": "0xb6",
          "removed": false
        },
        {
          "address": "0xb5320b0b3a13cc860893e2bd79fcd7e13484dda2",
          "topics": [
            "0x61ed099e74a97a1d7f8bb0952a88ca8b7b8ebd00c126ea04671f92a81213318a"
          ],
          "data": "0x0000000000000000000000002cca08ae69e0c44b18a57ab2a87644234daebae400000000000000000000000000000000000000000000000000000a3564bf7fa1",
          "blockHash": "0x44f4a6d076ea3f91d415c3395bdad4e97f577f6c7d52f0792477cfc2763f9e66",
          "blockNumber": "0x220ffac",
          "blockTimestamp": "0x68cc5c3b",
          "transactionHash": "0x64f7780146fb7c3ba5e547f69015498c741e7710bdea25a63616a22e4e602655",
          "transactionIndex": "0x2e",
          "logIndex": "0xb7",
          "removed": false
        },
        {
          "address": "0xb5320b0b3a13cc860893e2bd79fcd7e13484dda2",
          "topics": [
            "0x07ea52d82345d6e838192107d8fd7123d9c2ec8e916cd0aad13fd2b60db24644"
          ],
          "data": "0x000000000000000000000000000000000000000000000000000000000000006000000000000000000000000000000000000000000000000000000000000000c000000000000000000000000000000000000000000000000000000000000000e00000000000000000000000000000000000000000000000000000000000000002000000000000000000000000554833698ae0fb22ecc90b01222903fd62ca4b47000000000000000000000000a7b5189bca84cd304d8553977c7c614329750d9900000000000000000000000000000000000000000000000000000000000000000000000000000000000000000000000000000000000000000000000000000002000000000000000000000000000000000000000000000000000000169a96543500000000000000000000000000000000000000000000000000000015f1e5bd9d",
          "blockHash": "0x44f4a6d076ea3f91d415c3395bdad4e97f577f6c7d52f0792477cfc2763f9e66",
          "blockNumber": "0x220ffac",
          "blockTimestamp": "0x68cc5c3b",
          "transactionHash": "0x64f7780146fb7c3ba5e547f69015498c741e7710bdea25a63616a22e4e602655",
          "transactionIndex": "0x2e",
          "logIndex": "0xb8",
          "removed": false
        },
        {
          "address": "0x1a44076050125825900e736c501f859c50fe728c",
          "topics": [
            "0x1ab700d4ced0c005b164c0f789fd09fcbb0156d4c2041b8a3bfbcd961cd1567f"
          ],
          "data": "0x00000000000000000000000000000000000000000000000000000000000000600000000000000000000000000000000000000000000000000000000000000180000000000000000000000000b5320b0b3a13cc860893e2bd79fcd7e13484dda200000000000000000000000000000000000000000000000000000000000000f1010000000000000001000075e8000000000000000000000000bb4a3e822190c898c42c0836636d897ebdd8d53a000075c6000000000000000000000000af126b36958ef1a6ed80118841a7f1660f921346e12acb17bd62f5df68a674311cc3f14ecee595bc65ab89423b2138ef019c219a0000000000000000000000003571b96b1418910fd03831d35730172e4d011b060000000000000000000000000ece75f3c36f7df2136dac7633165dbff53de3cd000000000000000000000000ceb5c8903060197e46ab5ea5087b9f99cbc8da490000000000000000000000000000000000000000000000000000000005f5e1000000000000000000000000000000000000000000000000000000000000000000000000000000000000000000000016000301001101000000000000000000000000000186a000000000000000000000",
          "blockHash": "0x44f4a6d076ea3f91d415c3395bdad4e97f577f6c7d52f0792477cfc2763f9e66",
          "blockNumber": "0x220ffac",
          "blockTimestamp": "0x68cc5c3b",
          "transactionHash": "0x64f7780146fb7c3ba5e547f69015498c741e7710bdea25a63616a22e4e602655",
          "transactionIndex": "0x2e",
          "logIndex": "0xb9",
          "removed": false
        },
        {
          "address": "0xbb4a3e822190c898c42c0836636d897ebdd8d53a",
          "topics": [
            "0x1c47822afe589e0b1792cdba1d6fa7b547c3f71d2d14898c3e05e311e9e3a54c"
          ],
          "data": "0x0000000000000000000000003571b96b1418910fd03831d35730172e4d011b060000000000000000000000000ece75f3c36f7df2136dac7633165dbff53de3cd000000000000000000000000ceb5c8903060197e46ab5ea5087b9f99cbc8da490000000000000000000000000000000000000000000000000000000005f5e100",
          "blockHash": "0x44f4a6d076ea3f91d415c3395bdad4e97f577f6c7d52f0792477cfc2763f9e66",
          "blockNumber": "0x220ffac",
          "blockTimestamp": "0x68cc5c3b",
          "transactionHash": "0x64f7780146fb7c3ba5e547f69015498c741e7710bdea25a63616a22e4e602655",
          "transactionIndex": "0x2e",
          "logIndex": "0xba",
          "removed": false
        }
      ],
      "logsBloom": "0x00000000000000010400000000000000010000000000400000000000001000000200000000000020000000044000000000000000000000000000000100600000000002000000000100000408000000080000000000000000000000000000000100000000820000008000080000000800000100000010200000000014000000000004000000000000000000080000000000000000000000000004000000000000020000008000000000104800000000000000080000400000000440000000000800000002000040000100000080000000000000000000000002400000000020000010040000200008000000000000002000080000018002000000000000000000",
      "type": "0x2",
      "transactionHash": "0x64f7780146fb7c3ba5e547f69015498c741e7710bdea25a63616a22e4e602655",
      "transactionIndex": "0x2e",
      "blockHash": "0x44f4a6d076ea3f91d415c3395bdad4e97f577f6c7d52f0792477cfc2763f9e66",
      "blockNumber": "0x220ffac",
      "gasUsed": "0x9a670",
      "effectiveGasPrice": "0x26b962",
      "from": "0x0ece75f3c36f7df2136dac7633165dbff53de3cd",
      "to": "0xbb4a3e822190c898c42c0836636d897ebdd8d53a",
      "contractAddress": null,
      "l1BaseFeeScalar": "0x8dd",
      "l1BlobBaseFee": "0x1",
      "l1BlobBaseFeeScalar": "0x101c12",
      "l1Fee": "0x147779fd0",
      "l1GasPrice": "0x35186fe4",
      "l1GasUsed": "0xa9e"
    }
  ],
  "libraries": [],
  "pending": [],
  "returns": {},
  "timestamp": 1758223417734,
  "chain": 8453,
  "commit": "6c82bda"
}