{
  "transactions": [
    {
      "hash": "0x9fc4b43b7fba87580813e49ca6ca35c1cd1a8c6530ef82feb1d79d8acf39b5b3",
      "transactionType": "CALL",
      "contractName": null,
      "contractAddress": "0xc3be8ab4ca0cefe3119a765b324bbdf54a16a65b",
      "function": "approve(address,uint256)",
      "arguments": [
        "0x43BB8bEb166c8786C50a9D1D5c8482D667CF981A",
        "100000000"
      ],
      "transaction": {
        "from": "0x0ece75f3c36f7df2136dac7633165dbff53de3cd",
        "to": "0xc3be8ab4ca0cefe3119a765b324bbdf54a16a65b",
        "gas": "0x10c04",
        "value": "0x0",
        "input": "0x095ea7b300000000000000000000000043bb8beb166c8786c50a9d1d5c8482d667cf981a0000000000000000000000000000000000000000000000000000000005f5e100",
        "nonce": "0x158",
        "chainId": "0x2105"
      },
      "additionalContracts": [],
      "isFixedGasLimit": false
    },
    {
      "hash": "0x1ee47e3753b4a0d1cc01c1c812eef822b73e3db9b951adc484f5ffb459f417c2",
      "transactionType": "CALL",
      "contractName": null,
      "contractAddress": "0x43bb8beb166c8786c50a9d1d5c8482d667cf981a",
      "function": "sendBridge(address,address,address,address,address,address,uint32,uint256,uint256,uint256)",
      "arguments": [
        "0x374427909212B29fcC3Ffe8e7920a190a3031CB8",
        "0xAd063B1915Bf95fB32f79138c0B668F232676333",
        "0x3571b96b1418910FD03831d35730172e4d011B06",
        "0xc3be8ab4CA0cefE3119A765b324bBDF54a16A65b",
        "0xCEb5c8903060197e46Ab5ea5087b9F99CBc8da49",
        "0x374427909212B29fcC3Ffe8e7920a190a3031CB8",
        "30150",
        "100000000",
        "11474360797560",
        "11415775318387"
      ],
      "transaction": {
        "from": "0x0ece75f3c36f7df2136dac7633165dbff53de3cd",
        "to": "0x43bb8beb166c8786c50a9d1d5c8482d667cf981a",
        "gas": "0xbbf0d",
        "value": "0x14d1866e9aeb",
        "input": "0x15ef05f7000000000000000000000000374427909212b29fcc3ffe8e7920a190a3031cb8000000000000000000000000ad063b1915bf95fb32f79138c0b668f2326763330000000000000000000000003571b96b1418910fd03831d35730172e4d011b06000000000000000000000000c3be8ab4ca0cefe3119a765b324bbdf54a16a65b000000000000000000000000ceb5c8903060197e46ab5ea5087b9f99cbc8da49000000000000000000000000374427909212b29fcc3ffe8e7920a190a3031cb800000000000000000000000000000000000000000000000000000000000075c60000000000000000000000000000000000000000000000000000000005f5e10000000000000000000000000000000000000000000000000000000a6f9533097800000000000000000000000000000000000000000000000000000a61f13b9173",
        "nonce": "0x159",
        "chainId": "0x2105"
      },
      "additionalContracts": [],
      "isFixedGasLimit": false
    }
  ],
  "receipts": [
    {
      "status": "0x1",
      "cumulativeGasUsed": "0x1fd4e18",
      "logs": [
        {
          "address": "0xc3be8ab4ca0cefe3119a765b324bbdf54a16a65b",
          "topics": [
            "0x8c5be1e5ebec7d5bd14f71427d1e84f3dd0314c0f7b2291e5b200ac8c7c3b925",
            "0x0000000000000000000000000ece75f3c36f7df2136dac7633165dbff53de3cd",
            "0x00000000000000000000000043bb8beb166c8786c50a9d1d5c8482d667cf981a"
          ],
          "data": "0x0000000000000000000000000000000000000000000000000000000005f5e100",
          "blockHash": "0xa78a9dd8391784cfcf3db4970227f6708b314d6717549f907ac4b4d439afae48",
          "blockNumber": "0x22174bd",
          "blockTimestamp": "0x68cd465d",
          "transactionHash": "0x9fc4b43b7fba87580813e49ca6ca35c1cd1a8c6530ef82feb1d79d8acf39b5b3",
          "transactionIndex": "0x105",
          "logIndex": "0x1d5",
          "removed": false
        }
      ],
      "logsBloom": "0x00000000000000000000000000000000010000000000000000000000000000000000000000000000000000000000000400000000000000000000000000200000000000000000000000000000000000000000000000000000000000000000000000000000000000000000000000000000000000000000200000000000000000000000000000000000000000000000080000000000000000000000000000000000020000000100000000000800000000000000000000000000000000000000000800000000000000000000000000000000000000000000000000400000000000000010000000200000000000000000000000000000000000000000000000000000",
      "type": "0x2",
      "transactionHash": "0x9fc4b43b7fba87580813e49ca6ca35c1cd1a8c6530ef82feb1d79d8acf39b5b3",
      "transactionIndex": "0x105",
      "blockHash": "0xa78a9dd8391784cfcf3db4970227f6708b314d6717549f907ac4b4d439afae48",
      "blockNumber": "0x22174bd",
      "gasUsed": "0xb743",
      "effectiveGasPrice": "0x38b5b9",
      "from": "0x0ece75f3c36f7df2136dac7633165dbff53de3cd",
      "to": "0xc3be8ab4ca0cefe3119a765b324bbdf54a16a65b",
      "contractAddress": null,
      "l1BaseFeeScalar": "0x8dd",
      "l1BlobBaseFee": "0x1",
      "l1BlobBaseFeeScalar": "0x101c12",
      "l1Fee": "0x93c72ebd",
      "l1GasPrice": "0x28b4aa27",
      "l1GasUsed": "0x640"
    },
    {
      "status": "0x1",
      "cumulativeGasUsed": "0x205cf26",
      "logs": [
        {
          "address": "0xc3be8ab4ca0cefe3119a765b324bbdf54a16a65b",
          "topics": [
            "0xddf252ad1be2c89b69c2b068fc378daa952ba7f163c4a11628f55a4df523b3ef",
            "0x0000000000000000000000000ece75f3c36f7df2136dac7633165dbff53de3cd",
            "0x00000000000000000000000043bb8beb166c8786c50a9d1d5c8482d667cf981a"
          ],
          "data": "0x0000000000000000000000000000000000000000000000000000000005f5e100",
          "blockHash": "0xa78a9dd8391784cfcf3db4970227f6708b314d6717549f907ac4b4d439afae48",
          "blockNumber": "0x22174bd",
          "blockTimestamp": "0x68cd465d",
          "transactionHash": "0x1ee47e3753b4a0d1cc01c1c812eef822b73e3db9b951adc484f5ffb459f417c2",
          "transactionIndex": "0x106",
          "logIndex": "0x1d6",
          "removed": false
        },
        {
          "address": "0xc3be8ab4ca0cefe3119a765b324bbdf54a16a65b",
          "topics": [
            "0x8c5be1e5ebec7d5bd14f71427d1e84f3dd0314c0f7b2291e5b200ac8c7c3b925",
            "0x00000000000000000000000043bb8beb166c8786c50a9d1d5c8482d667cf981a",
            "0x000000000000000000000000ad063b1915bf95fb32f79138c0b668f232676333"
          ],
          "data": "0x0000000000000000000000000000000000000000000000000000000005f5e100",
          "blockHash": "0xa78a9dd8391784cfcf3db4970227f6708b314d6717549f907ac4b4d439afae48",
          "blockNumber": "0x22174bd",
          "blockTimestamp": "0x68cd465d",
          "transactionHash": "0x1ee47e3753b4a0d1cc01c1c812eef822b73e3db9b951adc484f5ffb459f417c2",
          "transactionIndex": "0x106",
          "logIndex": "0x1d7",
          "removed": false
        },
        {
          "address": "0xc3be8ab4ca0cefe3119a765b324bbdf54a16a65b",
          "topics": [
            "0xddf252ad1be2c89b69c2b068fc378daa952ba7f163c4a11628f55a4df523b3ef",
            "0x00000000000000000000000043bb8beb166c8786c50a9d1d5c8482d667cf981a",
            "0x000000000000000000000000ad063b1915bf95fb32f79138c0b668f232676333"
          ],
          "data": "0x0000000000000000000000000000000000000000000000000000000005f5e100",
          "blockHash": "0xa78a9dd8391784cfcf3db4970227f6708b314d6717549f907ac4b4d439afae48",
          "blockNumber": "0x22174bd",
          "blockTimestamp": "0x68cd465d",
          "transactionHash": "0x1ee47e3753b4a0d1cc01c1c812eef822b73e3db9b951adc484f5ffb459f417c2",
          "transactionIndex": "0x106",
          "logIndex": "0x1d8",
          "removed": false
        },
        {
          "address": "0xc3be8ab4ca0cefe3119a765b324bbdf54a16a65b",
          "topics": [
            "0x8c5be1e5ebec7d5bd14f71427d1e84f3dd0314c0f7b2291e5b200ac8c7c3b925",
            "0x000000000000000000000000ad063b1915bf95fb32f79138c0b668f232676333",
            "0x000000000000000000000000da5d036f51bd6fe5e32915a53595b71312d45f91"
          ],
          "data": "0x0000000000000000000000000000000000000000000000000000000005f5e100",
          "blockHash": "0xa78a9dd8391784cfcf3db4970227f6708b314d6717549f907ac4b4d439afae48",
          "blockNumber": "0x22174bd",
          "blockTimestamp": "0x68cd465d",
          "transactionHash": "0x1ee47e3753b4a0d1cc01c1c812eef822b73e3db9b951adc484f5ffb459f417c2",
          "transactionIndex": "0x106",
          "logIndex": "0x1d9",
          "removed": false
        },
        {
          "address": "0xc3be8ab4ca0cefe3119a765b324bbdf54a16a65b",
          "topics": [
            "0xddf252ad1be2c89b69c2b068fc378daa952ba7f163c4a11628f55a4df523b3ef",
            "0x000000000000000000000000ad063b1915bf95fb32f79138c0b668f232676333",
            "0x000000000000000000000000da5d036f51bd6fe5e32915a53595b71312d45f91"
          ],
          "data": "0x0000000000000000000000000000000000000000000000000000000005f5e100",
          "blockHash": "0xa78a9dd8391784cfcf3db4970227f6708b314d6717549f907ac4b4d439afae48",
          "blockNumber": "0x22174bd",
          "blockTimestamp": "0x68cd465d",
          "transactionHash": "0x1ee47e3753b4a0d1cc01c1c812eef822b73e3db9b951adc484f5ffb459f417c2",
          "transactionIndex": "0x106",
          "logIndex": "0x1da",
          "removed": false
        },
        {
          "address": "0xc3be8ab4ca0cefe3119a765b324bbdf54a16a65b",
          "topics": [
            "0xddf252ad1be2c89b69c2b068fc378daa952ba7f163c4a11628f55a4df523b3ef",
            "0x000000000000000000000000da5d036f51bd6fe5e32915a53595b71312d45f91",
            "0x0000000000000000000000000000000000000000000000000000000000000000"
          ],
          "data": "0x0000000000000000000000000000000000000000000000000000000005f5e100",
          "blockHash": "0xa78a9dd8391784cfcf3db4970227f6708b314d6717549f907ac4b4d439afae48",
          "blockNumber": "0x22174bd",
          "blockTimestamp": "0x68cd465d",
          "transactionHash": "0x1ee47e3753b4a0d1cc01c1c812eef822b73e3db9b951adc484f5ffb459f417c2",
          "transactionIndex": "0x106",
          "logIndex": "0x1db",
          "removed": false
        },
        {
          "address": "0xad063b1915bf95fb32f79138c0b668f232676333",
          "topics": [
            "0x59c79d79be0fadf59fe689b6952b7ebe90201a3a1f00d4a31982377890bc6046"
          ],
          "data": "0x00000000000000000000000043bb8beb166c8786c50a9d1d5c8482d667cf981a0000000000000000000000000000000000000000000000000000000005f5e100",
          "blockHash": "0xa78a9dd8391784cfcf3db4970227f6708b314d6717549f907ac4b4d439afae48",
          "blockNumber": "0x22174bd",
          "blockTimestamp": "0x68cd465d",
          "transactionHash": "0x1ee47e3753b4a0d1cc01c1c812eef822b73e3db9b951adc484f5ffb459f417c2",
          "transactionIndex": "0x106",
          "logIndex": "0x1dc",
          "removed": false
        },
        {
          "address": "0xb5320b0b3a13cc860893e2bd79fcd7e13484dda2",
          "topics": [
            "0x61ed099e74a97a1d7f8bb0952a88ca8b7b8ebd00c126ea04671f92a81213318a"
          ],
          "data": "0x0000000000000000000000002cca08ae69e0c44b18a57ab2a87644234daebae400000000000000000000000000000000000000000000000000000a4308b6f7a6",
          "blockHash": "0xa78a9dd8391784cfcf3db4970227f6708b314d6717549f907ac4b4d439afae48",
          "blockNumber": "0x22174bd",
          "blockTimestamp": "0x68cd465d",
          "transactionHash": "0x1ee47e3753b4a0d1cc01c1c812eef822b73e3db9b951adc484f5ffb459f417c2",
          "transactionIndex": "0x106",
          "logIndex": "0x1dd",
          "removed": false
        },
        {
          "address": "0xb5320b0b3a13cc860893e2bd79fcd7e13484dda2",
          "topics": [
            "0x07ea52d82345d6e838192107d8fd7123d9c2ec8e916cd0aad13fd2b60db24644"
          ],
          "data": "0x000000000000000000000000000000000000000000000000000000000000006000000000000000000000000000000000000000000000000000000000000000c000000000000000000000000000000000000000000000000000000000000000e00000000000000000000000000000000000000000000000000000000000000002000000000000000000000000554833698ae0fb22ecc90b01222903fd62ca4b47000000000000000000000000a7b5189bca84cd304d8553977c7c614329750d9900000000000000000000000000000000000000000000000000000000000000000000000000000000000000000000000000000000000000000000000000000002000000000000000000000000000000000000000000000000000000169a96543500000000000000000000000000000000000000000000000000000015f1e5bd9d",
          "blockHash": "0xa78a9dd8391784cfcf3db4970227f6708b314d6717549f907ac4b4d439afae48",
          "blockNumber": "0x22174bd",
          "blockTimestamp": "0x68cd465d",
          "transactionHash": "0x1ee47e3753b4a0d1cc01c1c812eef822b73e3db9b951adc484f5ffb459f417c2",
          "transactionIndex": "0x106",
          "logIndex": "0x1de",
          "removed": false
        },
        {
          "address": "0x1a44076050125825900e736c501f859c50fe728c",
          "topics": [
            "0x1ab700d4ced0c005b164c0f789fd09fcbb0156d4c2041b8a3bfbcd961cd1567f"
          ],
          "data": "0x00000000000000000000000000000000000000000000000000000000000000600000000000000000000000000000000000000000000000000000000000000120000000000000000000000000b5320b0b3a13cc860893e2bd79fcd7e13484dda20000000000000000000000000000000000000000000000000000000000000099010000000000000002000075e8000000000000000000000000ad063b1915bf95fb32f79138c0b668f232676333000075c60000000000000000000000006d68a52bc77f2eac3582a7072ead94c19b9f480c9c5eb987dd3f22364b9742971ebb386fa977584141d48da6beb90a247594b9d6000000000000000000000000374427909212b29fcc3ffe8e7920a190a3031cb80000000005f5e10000000000000000000000000000000000000000000000000000000000000000000000000000002a000301001101000000000000000000000000000186a0010011010000000000000000000000000000fde800000000000000000000000000000000000000000000",
          "blockHash": "0xa78a9dd8391784cfcf3db4970227f6708b314d6717549f907ac4b4d439afae48",
          "blockNumber": "0x22174bd",
          "blockTimestamp": "0x68cd465d",
          "transactionHash": "0x1ee47e3753b4a0d1cc01c1c812eef822b73e3db9b951adc484f5ffb459f417c2",
          "transactionIndex": "0x106",
          "logIndex": "0x1df",
          "removed": false
        },
        {
          "address": "0xad063b1915bf95fb32f79138c0b668f232676333",
          "topics": [
            "0x85496b760a4b7f8d66384b9df21b381f5d1b1e79f229a47aaf4c232edc2fe59a",
            "0x9c5eb987dd3f22364b9742971ebb386fa977584141d48da6beb90a247594b9d6",
            "0x00000000000000000000000043bb8beb166c8786c50a9d1d5c8482d667cf981a"
          ],
          "data": "0x00000000000000000000000000000000000000000000000000000000000075c60000000000000000000000000000000000000000000000000000000005f5e1000000000000000000000000000000000000000000000000000000000005f5e100",
          "blockHash": "0xa78a9dd8391784cfcf3db4970227f6708b314d6717549f907ac4b4d439afae48",
          "blockNumber": "0x22174bd",
          "blockTimestamp": "0x68cd465d",
          "transactionHash": "0x1ee47e3753b4a0d1cc01c1c812eef822b73e3db9b951adc484f5ffb459f417c2",
          "transactionIndex": "0x106",
          "logIndex": "0x1e0",
          "removed": false
        },
        {
          "address": "0xb5320b0b3a13cc860893e2bd79fcd7e13484dda2",
          "topics": [
            "0x61ed099e74a97a1d7f8bb0952a88ca8b7b8ebd00c126ea04671f92a81213318a"
          ],
          "data": "0x0000000000000000000000002cca08ae69e0c44b18a57ab2a87644234daebae400000000000000000000000000000000000000000000000000000a3564bf7fa1",
          "blockHash": "0xa78a9dd8391784cfcf3db4970227f6708b314d6717549f907ac4b4d439afae48",
          "blockNumber": "0x22174bd",
          "blockTimestamp": "0x68cd465d",
          "transactionHash": "0x1ee47e3753b4a0d1cc01c1c812eef822b73e3db9b951adc484f5ffb459f417c2",
          "transactionIndex": "0x106",
          "logIndex": "0x1e1",
          "removed": false
        },
        {
          "address": "0xb5320b0b3a13cc860893e2bd79fcd7e13484dda2",
          "topics": [
            "0x07ea52d82345d6e838192107d8fd7123d9c2ec8e916cd0aad13fd2b60db24644"
          ],
          "data": "0x000000000000000000000000000000000000000000000000000000000000006000000000000000000000000000000000000000000000000000000000000000c000000000000000000000000000000000000000000000000000000000000000e00000000000000000000000000000000000000000000000000000000000000002000000000000000000000000554833698ae0fb22ecc90b01222903fd62ca4b47000000000000000000000000a7b5189bca84cd304d8553977c7c614329750d9900000000000000000000000000000000000000000000000000000000000000000000000000000000000000000000000000000000000000000000000000000002000000000000000000000000000000000000000000000000000000169a96543500000000000000000000000000000000000000000000000000000015f1e5bd9d",
          "blockHash": "0xa78a9dd8391784cfcf3db4970227f6708b314d6717549f907ac4b4d439afae48",
          "blockNumber": "0x22174bd",
          "blockTimestamp": "0x68cd465d",
          "transactionHash": "0x1ee47e3753b4a0d1cc01c1c812eef822b73e3db9b951adc484f5ffb459f417c2",
          "transactionIndex": "0x106",
          "logIndex": "0x1e2",
          "removed": false
        },
        {
          "address": "0x1a44076050125825900e736c501f859c50fe728c",
          "topics": [
            "0x1ab700d4ced0c005b164c0f789fd09fcbb0156d4c2041b8a3bfbcd961cd1567f"
          ],
          "data": "0x00000000000000000000000000000000000000000000000000000000000000600000000000000000000000000000000000000000000000000000000000000180000000000000000000000000b5320b0b3a13cc860893e2bd79fcd7e13484dda200000000000000000000000000000000000000000000000000000000000000f1010000000000000001000075e8000000000000000000000000374427909212b29fcc3ffe8e7920a190a3031cb8000075c6000000000000000000000000f8af5114ad19422e059797ca2515febd8bc06bd1a4958ecfaebe695889e4390f2ad8115c0a18a42a39bbfe2b83d2389b126983e60000000000000000000000003571b96b1418910fd03831d35730172e4d011b06000000000000000000000000374427909212b29fcc3ffe8e7920a190a3031cb8000000000000000000000000ceb5c8903060197e46ab5ea5087b9f99cbc8da490000000000000000000000000000000000000000000000000000000005f5e1000000000000000000000000000000000000000000000000000000000000000000000000000000000000000000000016000301001101000000000000000000000000000186a000000000000000000000",
          "blockHash": "0xa78a9dd8391784cfcf3db4970227f6708b314d6717549f907ac4b4d439afae48",
          "blockNumber": "0x22174bd",
          "blockTimestamp": "0x68cd465d",
          "transactionHash": "0x1ee47e3753b4a0d1cc01c1c812eef822b73e3db9b951adc484f5ffb459f417c2",
          "transactionIndex": "0x106",
          "logIndex": "0x1e3",
          "removed": false
        },
        {
          "address": "0x374427909212b29fcc3ffe8e7920a190a3031cb8",
          "topics": [
            "0x1c47822afe589e0b1792cdba1d6fa7b547c3f71d2d14898c3e05e311e9e3a54c"
          ],
          "data": "0x0000000000000000000000003571b96b1418910fd03831d35730172e4d011b06000000000000000000000000374427909212b29fcc3ffe8e7920a190a3031cb8000000000000000000000000ceb5c8903060197e46ab5ea5087b9f99cbc8da490000000000000000000000000000000000000000000000000000000005f5e100",
          "blockHash": "0xa78a9dd8391784cfcf3db4970227f6708b314d6717549f907ac4b4d439afae48",
          "blockNumber": "0x22174bd",
          "blockTimestamp": "0x68cd465d",
          "transactionHash": "0x1ee47e3753b4a0d1cc01c1c812eef822b73e3db9b951adc484f5ffb459f417c2",
          "transactionIndex": "0x106",
          "logIndex": "0x1e4",
          "removed": false
        }
      ],
      "logsBloom": "0x00000000000000000480000000000000010000000000000004000000001000002200000000000000000000040000000400000000000000000000000100200000000002000000000000000408000000080000000000000000000000000000000100000000820000008000080000000800000000000010200000000014000000000004000000000000000000080000280010000000000000000004000000000000020000008100000000100800000000000000080000400000000440000000000800000002000040000100000080000000000000000000000000400000000020000010040200200008000000000000002000080000018002000000000000000000",
      "type": "0x2",
      "transactionHash": "0x1ee47e3753b4a0d1cc01c1c812eef822b73e3db9b951adc484f5ffb459f417c2",
      "transactionIndex": "0x106",
      "blockHash": "0xa78a9dd8391784cfcf3db4970227f6708b314d6717549f907ac4b4d439afae48",
      "blockNumber": "0x22174bd",
      "gasUsed": "0x8810e",
      "effectiveGasPrice": "0x38b5b9",
      "from": "0x0ece75f3c36f7df2136dac7633165dbff53de3cd",
      "to": "0x43bb8beb166c8786c50a9d1d5c8482d667cf981a",
      "contractAddress": null,
      "l1BaseFeeScalar": "0x8dd",
      "l1BlobBaseFee": "0x1",
      "l1BlobBaseFeeScalar": "0x101c12",
      "l1Fee": "0x13c91ebe7",
      "l1GasPrice": "0x28b4aa27",
      "l1GasUsed": "0xd63"
    }
  ],
  "libraries": [],
  "pending": [],
  "returns": {},
  "timestamp": 1758283356632,
  "chain": 8453,
  "commit": "6c82bda"
}