{
  "deployments": [
    {
      "transactions": [
        {
          "hash": "0xd6443a084d6dc078972b3c74354d96b4bb2f1ded07dc916de470a892347bb407",
          "transactionType": "CALL",
          "contractName": null,
          "contractAddress": "0xad063b1915bf95fb32f79138c0b668f232676333",
          "function": "setEnforcedOptions((uint32,uint16,bytes)[])",
          "arguments": [
            "[(30184, 1, 0x00030100110100000000000000000000000000013880), (30150, 1, 0x000301001101000000000000000000000000000186a0)]"
          ],
          "transaction": {
            "from": "0x0ece75f3c36f7df2136dac7633165dbff53de3cd",
            "to": "0xad063b1915bf95fb32f79138c0b668f232676333",
            "gas": "0xe6a4",
            "value": "0x0",
            "input": "0xb98bd07000000000000000000000000000000000000000000000000000000000000000200000000000000000000000000000000000000000000000000000000000000002000000000000000000000000000000000000000000000000000000000000004000000000000000000000000000000000000000000000000000000000000000e000000000000000000000000000000000000000000000000000000000000075e8000000000000000000000000000000000000000000000000000000000000000100000000000000000000000000000000000000000000000000000000000000600000000000000000000000000000000000000000000000000000000000000016000301001101000000000000000000000000000138800000000000000000000000000000000000000000000000000000000000000000000000000000000075c6000000000000000000000000000000000000000000000000000000000000000100000000000000000000000000000000000000000000000000000000000000600000000000000000000000000000000000000000000000000000000000000016000301001101000000000000000000000000000186a000000000000000000000",
            "nonce": "0x169",
            "chainId": "0x2105"
          },
          "additionalContracts": [],
          "isFixedGasLimit": false
        },
        {
          "hash": "0x6b859f4bfe66269c4f0edf504eb00aaed9c732d802ee1fb55ea3a048cb6acd76",
          "transactionType": "CALL",
          "contractName": null,
          "contractAddress": "0xb83e44f1d59bd8743ae45816acd5622fa1a5624d",
          "function": "setEnforcedOptions((uint32,uint16,bytes)[])",
          "arguments": [
            "[(30184, 1, 0x00030100110100000000000000000000000000013880), (30150, 1, 0x000301001101000000000000000000000000000186a0)]"
          ],
          "transaction": {
            "from": "0x0ece75f3c36f7df2136dac7633165dbff53de3cd",
            "to": "0xb83e44f1d59bd8743ae45816acd5622fa1a5624d",
            "gas": "0xe6a4",
            "value": "0x0",
            "input": "0xb98bd07000000000000000000000000000000000000000000000000000000000000000200000000000000000000000000000000000000000000000000000000000000002000000000000000000000000000000000000000000000000000000000000004000000000000000000000000000000000000000000000000000000000000000e000000000000000000000000000000000000000000000000000000000000075e8000000000000000000000000000000000000000000000000000000000000000100000000000000000000000000000000000000000000000000000000000000600000000000000000000000000000000000000000000000000000000000000016000301001101000000000000000000000000000138800000000000000000000000000000000000000000000000000000000000000000000000000000000075c6000000000000000000000000000000000000000000000000000000000000000100000000000000000000000000000000000000000000000000000000000000600000000000000000000000000000000000000000000000000000000000000016000301001101000000000000000000000000000186a000000000000000000000",
            "nonce": "0x16a",
            "chainId": "0x2105"
          },
          "additionalContracts": [],
          "isFixedGasLimit": false
        },
        {
          "hash": "0xe491dcd1b1fc6e582cd42061431a48128635f45d829b807be66ce59532c61ecb",
          "transactionType": "CALL",
          "contractName": null,
          "contractAddress": "0x1effdcf81a95398920e024bb3b9ff60ce14590e7",
          "function": "setEnforcedOptions((uint32,uint16,bytes)[])",
          "arguments": [
            "[(30184, 1, 0x00030100110100000000000000000000000000013880), (30150, 1, 0x000301001101000000000000000000000000000186a0)]"
          ],
          "transaction": {
            "from": "0x0ece75f3c36f7df2136dac7633165dbff53de3cd",
            "to": "0x1effdcf81a95398920e024bb3b9ff60ce14590e7",
            "gas": "0xe6a4",
            "value": "0x0",
            "input": "0xb98bd07000000000000000000000000000000000000000000000000000000000000000200000000000000000000000000000000000000000000000000000000000000002000000000000000000000000000000000000000000000000000000000000004000000000000000000000000000000000000000000000000000000000000000e000000000000000000000000000000000000000000000000000000000000075e8000000000000000000000000000000000000000000000000000000000000000100000000000000000000000000000000000000000000000000000000000000600000000000000000000000000000000000000000000000000000000000000016000301001101000000000000000000000000000138800000000000000000000000000000000000000000000000000000000000000000000000000000000075c6000000000000000000000000000000000000000000000000000000000000000100000000000000000000000000000000000000000000000000000000000000600000000000000000000000000000000000000000000000000000000000000016000301001101000000000000000000000000000186a000000000000000000000",
            "nonce": "0x16b",
            "chainId": "0x2105"
          },
          "additionalContracts": [],
          "isFixedGasLimit": false
        },
        {
          "hash": "0x3f101fc8c72171373c5f3b12cce0a5c9156e64930fe48ea4e9976c2fcad1f126",
          "transactionType": "CALL",
          "contractName": null,
          "contractAddress": "0x6c71b7bbde382f12165d5f7749b5fd37965b1e8a",
          "function": "setEnforcedOptions((uint32,uint16,bytes)[])",
          "arguments": [
            "[(30184, 1, 0x00030100110100000000000000000000000000013880), (30150, 1, 0x000301001101000000000000000000000000000186a0)]"
          ],
          "transaction": {
            "from": "0x0ece75f3c36f7df2136dac7633165dbff53de3cd",
            "to": "0x6c71b7bbde382f12165d5f7749b5fd37965b1e8a",
            "gas": "0xe6a4",
            "value": "0x0",
            "input": "0xb98bd07000000000000000000000000000000000000000000000000000000000000000200000000000000000000000000000000000000000000000000000000000000002000000000000000000000000000000000000000000000000000000000000004000000000000000000000000000000000000000000000000000000000000000e000000000000000000000000000000000000000000000000000000000000075e8000000000000000000000000000000000000000000000000000000000000000100000000000000000000000000000000000000000000000000000000000000600000000000000000000000000000000000000000000000000000000000000016000301001101000000000000000000000000000138800000000000000000000000000000000000000000000000000000000000000000000000000000000075c6000000000000000000000000000000000000000000000000000000000000000100000000000000000000000000000000000000000000000000000000000000600000000000000000000000000000000000000000000000000000000000000016000301001101000000000000000000000000000186a000000000000000000000",
            "nonce": "0x16c",
            "chainId": "0x2105"
          },
          "additionalContracts": [],
          "isFixedGasLimit": false
        },
        {
          "hash": "0xce7179c6e5268b528aa38a9aa423163399ef601099b29e652810a47d484b962c",
          "transactionType": "CALL",
          "contractName": null,
          "contractAddress": "0x560bd1836c348c4a10eed7008e68ae58228dd117",
          "function": "setEnforcedOptions((uint32,uint16,bytes)[])",
          "arguments": [
            "[(30184, 1, 0x00030100110100000000000000000000000000013880), (30150, 1, 0x000301001101000000000000000000000000000186a0)]"
          ],
          "transaction": {
            "from": "0x0ece75f3c36f7df2136dac7633165dbff53de3cd",
            "to": "0x560bd1836c348c4a10eed7008e68ae58228dd117",
            "gas": "0xe6a4",
            "value": "0x0",
            "input": "0xb98bd07000000000000000000000000000000000000000000000000000000000000000200000000000000000000000000000000000000000000000000000000000000002000000000000000000000000000000000000000000000000000000000000004000000000000000000000000000000000000000000000000000000000000000e000000000000000000000000000000000000000000000000000000000000075e8000000000000000000000000000000000000000000000000000000000000000100000000000000000000000000000000000000000000000000000000000000600000000000000000000000000000000000000000000000000000000000000016000301001101000000000000000000000000000138800000000000000000000000000000000000000000000000000000000000000000000000000000000075c6000000000000000000000000000000000000000000000000000000000000000100000000000000000000000000000000000000000000000000000000000000600000000000000000000000000000000000000000000000000000000000000016000301001101000000000000000000000000000186a000000000000000000000",
            "nonce": "0x16d",
            "chainId": "0x2105"
          },
          "additionalContracts": [],
          "isFixedGasLimit": false
        }
      ],
      "receipts": [
        {
          "status": "0x1",
          "cumulativeGasUsed": "0x20d4d60",
          "logs": [
            {
              "address": "0xad063b1915bf95fb32f79138c0b668f232676333",
              "topics": [
                "0xbe4864a8e820971c0247f5992e2da559595f7bf076a21cb5928d443d2a13b674"
              ],
              "data": "0x00000000000000000000000000000000000000000000000000000000000000200000000000000000000000000000000000000000000000000000000000000002000000000000000000000000000000000000000000000000000000000000004000000000000000000000000000000000000000000000000000000000000000e000000000000000000000000000000000000000000000000000000000000075e8000000000000000000000000000000000000000000000000000000000000000100000000000000000000000000000000000000000000000000000000000000600000000000000000000000000000000000000000000000000000000000000016000301001101000000000000000000000000000138800000000000000000000000000000000000000000000000000000000000000000000000000000000075c6000000000000000000000000000000000000000000000000000000000000000100000000000000000000000000000000000000000000000000000000000000600000000000000000000000000000000000000000000000000000000000000016000301001101000000000000000000000000000186a000000000000000000000",
              "blockHash": "0xabd7b5ebbdf43708e88f8236d58fa8211e13e5549a37321605d09aad45d95169",
              "blockNumber": "0x2217878",
              "blockTimestamp": "0x68cd4dd3",
              "transactionHash": "0xd6443a084d6dc078972b3c74354d96b4bb2f1ded07dc916de470a892347bb407",
              "transactionIndex": "0x9b",
              "logIndex": "0x18b",
              "removed": false
            }
          ],
          "logsBloom": "0x00000000000000000000000000000000000000000000000000000000000000000000000000000000000000000000000000000000000000000000400000000000000000000000000000000000000000000000000000000000000000000000000000000000000000000000000000000000000000000000000000000004000000000004000000000000000000000000000000000000000000000000000000080000000000000000000000000000000000000000000000000000000000000000000000000000000040000000000002000000000000000000000000000000000000000000000000000000000000000000000000000000000000000000000000000000",
          "type": "0x2",
          "transactionHash": "0xd6443a084d6dc078972b3c74354d96b4bb2f1ded07dc916de470a892347bb407",
          "transactionIndex": "0x9b",
          "blockHash": "0xabd7b5ebbdf43708e88f8236d58fa8211e13e5549a37321605d09aad45d95169",
          "blockNumber": "0x2217878",
          "gasUsed": "0xa6fc",
          "effectiveGasPrice": "0x49aa2d",
          "from": "0x0ece75f3c36f7df2136dac7633165dbff53de3cd",
          "to": "0xad063b1915bf95fb32f79138c0b668f232676333",
          "contractAddress": null,
          "l1BaseFeeScalar": "0x8dd",
          "l1BlobBaseFee": "0x1",
          "l1BlobBaseFeeScalar": "0x101c12",
          "l1Fee": "0x7d8aa1a6",
          "l1GasPrice": "0x190a62fa",
          "l1GasUsed": "0x8a1"
        },
        {
          "status": "0x1",
          "cumulativeGasUsed": "0x20df45c",
          "logs": [
            {
              "address": "0xb83e44f1d59bd8743ae45816acd5622fa1a5624d",
              "topics": [
                "0xbe4864a8e820971c0247f5992e2da559595f7bf076a21cb5928d443d2a13b674"
              ],
              "data": "0x00000000000000000000000000000000000000000000000000000000000000200000000000000000000000000000000000000000000000000000000000000002000000000000000000000000000000000000000000000000000000000000004000000000000000000000000000000000000000000000000000000000000000e000000000000000000000000000000000000000000000000000000000000075e8000000000000000000000000000000000000000000000000000000000000000100000000000000000000000000000000000000000000000000000000000000600000000000000000000000000000000000000000000000000000000000000016000301001101000000000000000000000000000138800000000000000000000000000000000000000000000000000000000000000000000000000000000075c6000000000000000000000000000000000000000000000000000000000000000100000000000000000000000000000000000000000000000000000000000000600000000000000000000000000000000000000000000000000000000000000016000301001101000000000000000000000000000186a000000000000000000000",
              "blockHash": "0xabd7b5ebbdf43708e88f8236d58fa8211e13e5549a37321605d09aad45d95169",
              "blockNumber": "0x2217878",
              "blockTimestamp": "0x68cd4dd3",
              "transactionHash": "0x6b859f4bfe66269c4f0edf504eb00aaed9c732d802ee1fb55ea3a048cb6acd76",
              "transactionIndex": "0x9c",
              "logIndex": "0x18c",
              "removed": false
            }
          ],
          "logsBloom": "0x00000000000000000200000000000000000000000000000000000000000000000000000000000000000000000000000000000000000000000000400000010000000000000000000000000000000000000000000000000000000000000000000000000000000000000000000000000000000000000000000000000000000000000000000000000000000000000000000000000000000000000000000000080000000000000000000000000000000000000000000000000000000000000000000000000000000000000000000002000000000000000000000000000000000000002000000000000000000000000000000000000000000000000000000000000000",
          "type": "0x2",
          "transactionHash": "0x6b859f4bfe66269c4f0edf504eb00aaed9c732d802ee1fb55ea3a048cb6acd76",
          "transactionIndex": "0x9c",
          "blockHash": "0xabd7b5ebbdf43708e88f8236d58fa8211e13e5549a37321605d09aad45d95169",
          "blockNumber": "0x2217878",
          "gasUsed": "0xa6fc",
          "effectiveGasPrice": "0x49aa2d",
          "from": "0x0ece75f3c36f7df2136dac7633165dbff53de3cd",
          "to": "0xb83e44f1d59bd8743ae45816acd5622fa1a5624d",
          "contractAddress": null,
          "l1BaseFeeScalar": "0x8dd",
          "l1BlobBaseFee": "0x1",
          "l1BlobBaseFeeScalar": "0x101c12",
          "l1Fee": "0x7d8aa1a6",
          "l1GasPrice": "0x190a62fa",
          "l1GasUsed": "0x8a1"
        },
        {
          "status": "0x1",
          "cumulativeGasUsed": "0x20e9b58",
          "logs": [
            {
              "address": "0x1effdcf81a95398920e024bb3b9ff60ce14590e7",
              "topics": [
                "0xbe4864a8e820971c0247f5992e2da559595f7bf076a21cb5928d443d2a13b674"
              ],
              "data": "0x00000000000000000000000000000000000000000000000000000000000000200000000000000000000000000000000000000000000000000000000000000002000000000000000000000000000000000000000000000000000000000000004000000000000000000000000000000000000000000000000000000000000000e000000000000000000000000000000000000000000000000000000000000075e8000000000000000000000000000000000000000000000000000000000000000100000000000000000000000000000000000000000000000000000000000000600000000000000000000000000000000000000000000000000000000000000016000301001101000000000000000000000000000138800000000000000000000000000000000000000000000000000000000000000000000000000000000075c6000000000000000000000000000000000000000000000000000000000000000100000000000000000000000000000000000000000000000000000000000000600000000000000000000000000000000000000000000000000000000000000016000301001101000000000000000000000000000186a000000000000000000000",
              "blockHash": "0xabd7b5ebbdf43708e88f8236d58fa8211e13e5549a37321605d09aad45d95169",
              "blockNumber": "0x2217878",
              "blockTimestamp": "0x68cd4dd3",
              "transactionHash": "0xe491dcd1b1fc6e582cd42061431a48128635f45d829b807be66ce59532c61ecb",
              "transactionIndex": "0x9d",
              "logIndex": "0x18d",
              "removed": false
            }
          ],
          "logsBloom": "0x00000000000000000000000000000000000000000000000000000000000000000000000000000000000000000000000000000000000000000000400000000000000040000000000000000000000000000000000000000000000000000000000000000000000000000000000000000000000000000000000800000000000000000000000000000000000000000000000000000000000000000000000000080000000000000000000000000000000000000000000000000000000000000000000000000000000000000000000002000000000000000000000000000000000000800000000000000000000000000000000000000000000000000000000000000000",
          "type": "0x2",
          "transactionHash": "0xe491dcd1b1fc6e582cd42061431a48128635f45d829b807be66ce59532c61ecb",
          "transactionIndex": "0x9d",
          "blockHash": "0xabd7b5ebbdf43708e88f8236d58fa8211e13e5549a37321605d09aad45d95169",
          "blockNumber": "0x2217878",
          "gasUsed": "0xa6fc",
          "effectiveGasPrice": "0x49aa2d",
          "from": "0x0ece75f3c36f7df2136dac7633165dbff53de3cd",
          "to": "0x1effdcf81a95398920e024bb3b9ff60ce14590e7",
          "contractAddress": null,
          "l1BaseFeeScalar": "0x8dd",
          "l1BlobBaseFee": "0x1",
          "l1BlobBaseFeeScalar": "0x101c12",
          "l1Fee": "0x7d8aa1a6",
          "l1GasPrice": "0x190a62fa",
          "l1GasUsed": "0x8a1"
        },
        {
          "status": "0x1",
          "cumulativeGasUsed": "0x20f4254",
          "logs": [
            {
              "address": "0x6c71b7bbde382f12165d5f7749b5fd37965b1e8a",
              "topics": [
                "0xbe4864a8e820971c0247f5992e2da559595f7bf076a21cb5928d443d2a13b674"
              ],
              "data": "0x00000000000000000000000000000000000000000000000000000000000000200000000000000000000000000000000000000000000000000000000000000002000000000000000000000000000000000000000000000000000000000000004000000000000000000000000000000000000000000000000000000000000000e000000000000000000000000000000000000000000000000000000000000075e8000000000000000000000000000000000000000000000000000000000000000100000000000000000000000000000000000000000000000000000000000000600000000000000000000000000000000000000000000000000000000000000016000301001101000000000000000000000000000138800000000000000000000000000000000000000000000000000000000000000000000000000000000075c6000000000000000000000000000000000000000000000000000000000000000100000000000000000000000000000000000000000000000000000000000000600000000000000000000000000000000000000000000000000000000000000016000301001101000000000000000000000000000186a000000000000000000000",
              "blockHash": "0xabd7b5ebbdf43708e88f8236d58fa8211e13e5549a37321605d09aad45d95169",
              "blockNumber": "0x2217878",
              "blockTimestamp": "0x68cd4dd3",
              "transactionHash": "0x3f101fc8c72171373c5f3b12cce0a5c9156e64930fe48ea4e9976c2fcad1f126",
              "transactionIndex": "0x9e",
              "logIndex": "0x18e",
              "removed": false
            }
          ],
          "logsBloom": "0x00000000000000000000000000000000000000000000000000000000000000000000000000040000000000000000000000000000000000000000400000000000000000000000000000000000000000000000000000000000000000000000000000000000000000000000000000000000000000000000000000000000000000000000000000100000000000000000000000000000000000000000000000080000000000000000000000000000000000000000000000000000000000000000000000000000000000000000000002000000080000000000000000000000000000000000000000000000000000000000000000000000000000000000000000000000",
          "type": "0x2",
          "transactionHash": "0x3f101fc8c72171373c5f3b12cce0a5c9156e64930fe48ea4e9976c2fcad1f126",
          "transactionIndex": "0x9e",
          "blockHash": "0xabd7b5ebbdf43708e88f8236d58fa8211e13e5549a37321605d09aad45d95169",
          "blockNumber": "0x2217878",
          "gasUsed": "0xa6fc",
          "effectiveGasPrice": "0x49aa2d",
          "from": "0x0ece75f3c36f7df2136dac7633165dbff53de3cd",
          "to": "0x6c71b7bbde382f12165d5f7749b5fd37965b1e8a",
          "contractAddress": null,
          "l1BaseFeeScalar": "0x8dd",
          "l1BlobBaseFee": "0x1",
          "l1BlobBaseFeeScalar": "0x101c12",
          "l1Fee": "0x7d8aa1a6",
          "l1GasPrice": "0x190a62fa",
          "l1GasUsed": "0x8a1"
        },
        {
          "status": "0x1",
          "cumulativeGasUsed": "0x20fe950",
          "logs": [
            {
              "address": "0x560bd1836c348c4a10eed7008e68ae58228dd117",
              "topics": [
                "0xbe4864a8e820971c0247f5992e2da559595f7bf076a21cb5928d443d2a13b674"
              ],
              "data": "0x00000000000000000000000000000000000000000000000000000000000000200000000000000000000000000000000000000000000000000000000000000002000000000000000000000000000000000000000000000000000000000000004000000000000000000000000000000000000000000000000000000000000000e000000000000000000000000000000000000000000000000000000000000075e8000000000000000000000000000000000000000000000000000000000000000100000000000000000000000000000000000000000000000000000000000000600000000000000000000000000000000000000000000000000000000000000016000301001101000000000000000000000000000138800000000000000000000000000000000000000000000000000000000000000000000000000000000075c6000000000000000000000000000000000000000000000000000000000000000100000000000000000000000000000000000000000000000000000000000000600000000000000000000000000000000000000000000000000000000000000016000301001101000000000000000000000000000186a000000000000000000000",
              "blockHash": "0xabd7b5ebbdf43708e88f8236d58fa8211e13e5549a37321605d09aad45d95169",
              "blockNumber": "0x2217878",
              "blockTimestamp": "0x68cd4dd3",
              "transactionHash": "0xce7179c6e5268b528aa38a9aa423163399ef601099b29e652810a47d484b962c",
              "transactionIndex": "0x9f",
              "logIndex": "0x18f",
              "removed": false
            }
          ],
          "logsBloom": "0x00000000000000000000000000000000000000000000000000000000000000000000000000000000000000000000000000000000000000000000400000000000000000000000000000000000000000000000000000000000000000000000000000000000000000000000000000000000000800000000000000000000000000000000000000000000000000000000000000000000000000000000000000080000000000000000000000000100000000000000000000000000000000000000400000000000000000000000000002000000000000000000000000000000000000000000000000000000000000000000000000000000000000000000000000000000",
          "type": "0x2",
          "transactionHash": "0xce7179c6e5268b528aa38a9aa423163399ef601099b29e652810a47d484b962c",
          "transactionIndex": "0x9f",
          "blockHash": "0xabd7b5ebbdf43708e88f8236d58fa8211e13e5549a37321605d09aad45d95169",
          "blockNumber": "0x2217878",
          "gasUsed": "0xa6fc",
          "effectiveGasPrice": "0x49aa2d",
          "from": "0x0ece75f3c36f7df2136dac7633165dbff53de3cd",
          "to": "0x560bd1836c348c4a10eed7008e68ae58228dd117",
          "contractAddress": null,
          "l1BaseFeeScalar": "0x8dd",
          "l1BlobBaseFee": "0x1",
          "l1BlobBaseFeeScalar": "0x101c12",
          "l1Fee": "0x7d8aa1a6",
          "l1GasPrice": "0x190a62fa",
          "l1GasUsed": "0x8a1"
        }
      ],
      "libraries": [],
      "pending": [],
      "returns": {},
      "timestamp": 1758285264122,
      "chain": 8453,
      "commit": "6c82bda"
    },
    {
      "transactions": [
        {
          "hash": "0x1cd69109e80c43de605428e6502cd29e0b31cf01b32204c1f4478022b49bd691",
          "transactionType": "CALL",
          "contractName": null,
          "contractAddress": "0x6d68a52bc77f2eac3582a7072ead94c19b9f480c",
          "function": "setEnforcedOptions((uint32,uint16,bytes)[])",
          "arguments": [
            "[(30150, 1, 0x00030100110100000000000000000000000000013880), (30184, 1, 0x000301001101000000000000000000000000000186a0)]"
          ],
          "transaction": {
            "from": "0x0ece75f3c36f7df2136dac7633165dbff53de3cd",
            "to": "0x6d68a52bc77f2eac3582a7072ead94c19b9f480c",
            "gas": "0xf456",
            "value": "0x0",
            "input": "0xb98bd07000000000000000000000000000000000000000000000000000000000000000200000000000000000000000000000000000000000000000000000000000000002000000000000000000000000000000000000000000000000000000000000004000000000000000000000000000000000000000000000000000000000000000e000000000000000000000000000000000000000000000000000000000000075c6000000000000000000000000000000000000000000000000000000000000000100000000000000000000000000000000000000000000000000000000000000600000000000000000000000000000000000000000000000000000000000000016000301001101000000000000000000000000000138800000000000000000000000000000000000000000000000000000000000000000000000000000000075e8000000000000000000000000000000000000000000000000000000000000000100000000000000000000000000000000000000000000000000000000000000600000000000000000000000000000000000000000000000000000000000000016000301001101000000000000000000000000000186a000000000000000000000",
            "nonce": "0x16b",
            "chainId": "0x2019"
          },
          "additionalContracts": [],
          "isFixedGasLimit": false
        },
        {
          "hash": "0xe0f0aa0b4b1019e2f6db54232e9792c2cbf1d6e08b2a8f79eff4114084ca6d3b",
          "transactionType": "CALL",
          "contractName": null,
          "contractAddress": "0x920cd2f6e139b6c40053bcd5f67923d1d7dd3140",
          "function": "setEnforcedOptions((uint32,uint16,bytes)[])",
          "arguments": [
            "[(30150, 1, 0x00030100110100000000000000000000000000013880), (30184, 1, 0x000301001101000000000000000000000000000186a0)]"
          ],
          "transaction": {
            "from": "0x0ece75f3c36f7df2136dac7633165dbff53de3cd",
            "to": "0x920cd2f6e139b6c40053bcd5f67923d1d7dd3140",
            "gas": "0xf456",
            "value": "0x0",
            "input": "0xb98bd07000000000000000000000000000000000000000000000000000000000000000200000000000000000000000000000000000000000000000000000000000000002000000000000000000000000000000000000000000000000000000000000004000000000000000000000000000000000000000000000000000000000000000e000000000000000000000000000000000000000000000000000000000000075c6000000000000000000000000000000000000000000000000000000000000000100000000000000000000000000000000000000000000000000000000000000600000000000000000000000000000000000000000000000000000000000000016000301001101000000000000000000000000000138800000000000000000000000000000000000000000000000000000000000000000000000000000000075e8000000000000000000000000000000000000000000000000000000000000000100000000000000000000000000000000000000000000000000000000000000600000000000000000000000000000000000000000000000000000000000000016000301001101000000000000000000000000000186a000000000000000000000",
            "nonce": "0x16c",
            "chainId": "0x2019"
          },
          "additionalContracts": [],
          "isFixedGasLimit": false
        },
        {
          "hash": "0x3611de2eef0058c7db946154cd1f15d61fec4573f0bea0159ca5164e346e1017",
          "transactionType": "CALL",
          "contractName": null,
          "contractAddress": "0x5ddbbc68527214e0aca3b4175860080cbdaa12ff",
          "function": "setEnforcedOptions((uint32,uint16,bytes)[])",
          "arguments": [
            "[(30150, 1, 0x00030100110100000000000000000000000000013880), (30184, 1, 0x000301001101000000000000000000000000000186a0)]"
          ],
          "transaction": {
            "from": "0x0ece75f3c36f7df2136dac7633165dbff53de3cd",
            "to": "0x5ddbbc68527214e0aca3b4175860080cbdaa12ff",
            "gas": "0xf456",
            "value": "0x0",
            "input": "0xb98bd07000000000000000000000000000000000000000000000000000000000000000200000000000000000000000000000000000000000000000000000000000000002000000000000000000000000000000000000000000000000000000000000004000000000000000000000000000000000000000000000000000000000000000e000000000000000000000000000000000000000000000000000000000000075c6000000000000000000000000000000000000000000000000000000000000000100000000000000000000000000000000000000000000000000000000000000600000000000000000000000000000000000000000000000000000000000000016000301001101000000000000000000000000000138800000000000000000000000000000000000000000000000000000000000000000000000000000000075e8000000000000000000000000000000000000000000000000000000000000000100000000000000000000000000000000000000000000000000000000000000600000000000000000000000000000000000000000000000000000000000000016000301001101000000000000000000000000000186a000000000000000000000",
            "nonce": "0x16d",
            "chainId": "0x2019"
          },
          "additionalContracts": [],
          "isFixedGasLimit": false
        },
        {
          "hash": "0xd25462ebd980795ea11c53e4005402d76724b37f4938956b99fca7e9a2adb881",
          "transactionType": "CALL",
          "contractName": null,
          "contractAddress": "0xfe5138a42dc1fc335455b505e036784a33f7f102",
          "function": "setEnforcedOptions((uint32,uint16,bytes)[])",
          "arguments": [
            "[(30150, 1, 0x00030100110100000000000000000000000000013880), (30184, 1, 0x000301001101000000000000000000000000000186a0)]"
          ],
          "transaction": {
            "from": "0x0ece75f3c36f7df2136dac7633165dbff53de3cd",
            "to": "0xfe5138a42dc1fc335455b505e036784a33f7f102",
            "gas": "0xe6a4",
            "value": "0x0",
            "input": "0xb98bd07000000000000000000000000000000000000000000000000000000000000000200000000000000000000000000000000000000000000000000000000000000002000000000000000000000000000000000000000000000000000000000000004000000000000000000000000000000000000000000000000000000000000000e000000000000000000000000000000000000000000000000000000000000075c6000000000000000000000000000000000000000000000000000000000000000100000000000000000000000000000000000000000000000000000000000000600000000000000000000000000000000000000000000000000000000000000016000301001101000000000000000000000000000138800000000000000000000000000000000000000000000000000000000000000000000000000000000075e8000000000000000000000000000000000000000000000000000000000000000100000000000000000000000000000000000000000000000000000000000000600000000000000000000000000000000000000000000000000000000000000016000301001101000000000000000000000000000186a000000000000000000000",
            "nonce": "0x16e",
            "chainId": "0x2019"
          },
          "additionalContracts": [],
          "isFixedGasLimit": false
        },
        {
          "hash": "0x676c63f9c703379c57b5a20958d7cc70fe894f2541159a3ff028bd435db19d4d",
          "transactionType": "CALL",
          "contractName": null,
          "contractAddress": "0xb0e96105543cba4b3d82911e7336f19bd03b0360",
          "function": "setEnforcedOptions((uint32,uint16,bytes)[])",
          "arguments": [
            "[(30150, 1, 0x00030100110100000000000000000000000000013880), (30184, 1, 0x000301001101000000000000000000000000000186a0)]"
          ],
          "transaction": {
            "from": "0x0ece75f3c36f7df2136dac7633165dbff53de3cd",
            "to": "0xb0e96105543cba4b3d82911e7336f19bd03b0360",
            "gas": "0xe6a4",
            "value": "0x0",
            "input": "0xb98bd07000000000000000000000000000000000000000000000000000000000000000200000000000000000000000000000000000000000000000000000000000000002000000000000000000000000000000000000000000000000000000000000004000000000000000000000000000000000000000000000000000000000000000e000000000000000000000000000000000000000000000000000000000000075c6000000000000000000000000000000000000000000000000000000000000000100000000000000000000000000000000000000000000000000000000000000600000000000000000000000000000000000000000000000000000000000000016000301001101000000000000000000000000000138800000000000000000000000000000000000000000000000000000000000000000000000000000000075e8000000000000000000000000000000000000000000000000000000000000000100000000000000000000000000000000000000000000000000000000000000600000000000000000000000000000000000000000000000000000000000000016000301001101000000000000000000000000000186a000000000000000000000",
            "nonce": "0x16f",
            "chainId": "0x2019"
          },
          "additionalContracts": [],
          "isFixedGasLimit": false
        },
        {
          "hash": "0x6e6aa4ff393ceeb6f4ac33f7ea8ce016c99062c92b4f7a032442d969ef1f9efe",
          "transactionType": "CALL",
          "contractName": null,
          "contractAddress": "0xaf9842adacb4b2fa619d45fe11579fae5faf1698",
          "function": "setEnforcedOptions((uint32,uint16,bytes)[])",
          "arguments": [
            "[(30150, 1, 0x00030100110100000000000000000000000000013880), (30184, 1, 0x000301001101000000000000000000000000000186a0)]"
          ],
          "transaction": {
            "from": "0x0ece75f3c36f7df2136dac7633165dbff53de3cd",
            "to": "0xaf9842adacb4b2fa619d45fe11579fae5faf1698",
            "gas": "0x1d7b6",
            "value": "0x0",
            "input": "0xb98bd07000000000000000000000000000000000000000000000000000000000000000200000000000000000000000000000000000000000000000000000000000000002000000000000000000000000000000000000000000000000000000000000004000000000000000000000000000000000000000000000000000000000000000e000000000000000000000000000000000000000000000000000000000000075c6000000000000000000000000000000000000000000000000000000000000000100000000000000000000000000000000000000000000000000000000000000600000000000000000000000000000000000000000000000000000000000000016000301001101000000000000000000000000000138800000000000000000000000000000000000000000000000000000000000000000000000000000000075e8000000000000000000000000000000000000000000000000000000000000000100000000000000000000000000000000000000000000000000000000000000600000000000000000000000000000000000000000000000000000000000000016000301001101000000000000000000000000000186a000000000000000000000",
            "nonce": "0x170",
            "chainId": "0x2019"
          },
          "additionalContracts": [],
          "isFixedGasLimit": false
        }
      ],
      "receipts": [
        {
          "status": "0x1",
          "cumulativeGasUsed": "0x22676",
          "logs": [
            {
              "address": "0x6d68a52bc77f2eac3582a7072ead94c19b9f480c",
              "topics": [
                "0xbe4864a8e820971c0247f5992e2da559595f7bf076a21cb5928d443d2a13b674"
              ],
              "data": "0x00000000000000000000000000000000000000000000000000000000000000200000000000000000000000000000000000000000000000000000000000000002000000000000000000000000000000000000000000000000000000000000004000000000000000000000000000000000000000000000000000000000000000e000000000000000000000000000000000000000000000000000000000000075c6000000000000000000000000000000000000000000000000000000000000000100000000000000000000000000000000000000000000000000000000000000600000000000000000000000000000000000000000000000000000000000000016000301001101000000000000000000000000000138800000000000000000000000000000000000000000000000000000000000000000000000000000000075e8000000000000000000000000000000000000000000000000000000000000000100000000000000000000000000000000000000000000000000000000000000600000000000000000000000000000000000000000000000000000000000000016000301001101000000000000000000000000000186a000000000000000000000",
              "blockHash": "0xf7b84ec4f44c315723eb62644e485deb44e7f16cd7840a1df7986c2207d488c6",
              "blockNumber": "0xbb20515",
              "transactionHash": "0x1cd69109e80c43de605428e6502cd29e0b31cf01b32204c1f4478022b49bd691",
              "transactionIndex": "0x2",
              "logIndex": "0x2",
              "removed": false
            }
          ],
          "logsBloom": "0x00000000000000000000000000000000000000000000000800000000000000000000000000000000000000000000000000000000000000000000400000000000000000000000000000000000000000000000000000000000000000000000000000000000000000000000000000000000000000000000000000000000000000000000000000000000000000000000000000000000000000000000000000080000000000000000000000000000000000000000000000000000000000000000000000000000000000000000000002000000000000080000000000000000000000000000000000000000000000000000000000000000000000000002000000000000",
          "type": "0x2",
          "transactionHash": "0x1cd69109e80c43de605428e6502cd29e0b31cf01b32204c1f4478022b49bd691",
          "transactionIndex": "0x2",
          "blockHash": "0xf7b84ec4f44c315723eb62644e485deb44e7f16cd7840a1df7986c2207d488c6",
          "blockNumber": "0xbb20515",
          "gasUsed": "0xa712",
          "effectiveGasPrice": "0x66720b300",
          "from": "0x0ece75f3c36f7df2136dac7633165dbff53de3cd",
          "to": "0x6d68a52bc77f2eac3582a7072ead94c19b9f480c",
          "contractAddress": null
        },
        {
          "status": "0x1",
          "cumulativeGasUsed": "0x2cd88",
          "logs": [
            {
              "address": "0x920cd2f6e139b6c40053bcd5f67923d1d7dd3140",
              "topics": [
                "0xbe4864a8e820971c0247f5992e2da559595f7bf076a21cb5928d443d2a13b674"
              ],
              "data": "0x00000000000000000000000000000000000000000000000000000000000000200000000000000000000000000000000000000000000000000000000000000002000000000000000000000000000000000000000000000000000000000000004000000000000000000000000000000000000000000000000000000000000000e000000000000000000000000000000000000000000000000000000000000075c6000000000000000000000000000000000000000000000000000000000000000100000000000000000000000000000000000000000000000000000000000000600000000000000000000000000000000000000000000000000000000000000016000301001101000000000000000000000000000138800000000000000000000000000000000000000000000000000000000000000000000000000000000075e8000000000000000000000000000000000000000000000000000000000000000100000000000000000000000000000000000000000000000000000000000000600000000000000000000000000000000000000000000000000000000000000016000301001101000000000000000000000000000186a000000000000000000000",
              "blockHash": "0xf7b84ec4f44c315723eb62644e485deb44e7f16cd7840a1df7986c2207d488c6",
              "blockNumber": "0xbb20515",
              "transactionHash": "0xe0f0aa0b4b1019e2f6db54232e9792c2cbf1d6e08b2a8f79eff4114084ca6d3b",
              "transactionIndex": "0x3",
              "logIndex": "0x3",
              "removed": false
            }
          ],
          "logsBloom": "0x00000000000000000000000000000000000000000000000000000000000000000000000000000000000000000000000000000000000000000000400000000000000000000000000000000800000000000000000000000000000000000000000000000000000000000000000000000000000000000000000000000000000000000000000000000000000000000000000000000000000000000000000000080000000000000000000000000000000000000000000000000000000000000000000000000000000000000000000002000000008000000000000000000000000000000000000000000000000000000000000000100000000000000000000000000000",
          "type": "0x2",
          "transactionHash": "0xe0f0aa0b4b1019e2f6db54232e9792c2cbf1d6e08b2a8f79eff4114084ca6d3b",
          "transactionIndex": "0x3",
          "blockHash": "0xf7b84ec4f44c315723eb62644e485deb44e7f16cd7840a1df7986c2207d488c6",
          "blockNumber": "0xbb20515",
          "gasUsed": "0xa712",
          "effectiveGasPrice": "0x66720b300",
          "from": "0x0ece75f3c36f7df2136dac7633165dbff53de3cd",
          "to": "0x920cd2f6e139b6c40053bcd5f67923d1d7dd3140",
          "contractAddress": null
        },
        {
          "status": "0x1",
          "cumulativeGasUsed": "0x3749a",
          "logs": [
            {
              "address": "0x5ddbbc68527214e0aca3b4175860080cbdaa12ff",
              "topics": [
                "0xbe4864a8e820971c0247f5992e2da559595f7bf076a21cb5928d443d2a13b674"
              ],
              "data": "0x00000000000000000000000000000000000000000000000000000000000000200000000000000000000000000000000000000000000000000000000000000002000000000000000000000000000000000000000000000000000000000000004000000000000000000000000000000000000000000000000000000000000000e000000000000000000000000000000000000000000000000000000000000075c6000000000000000000000000000000000000000000000000000000000000000100000000000000000000000000000000000000000000000000000000000000600000000000000000000000000000000000000000000000000000000000000016000301001101000000000000000000000000000138800000000000000000000000000000000000000000000000000000000000000000000000000000000075e8000000000000000000000000000000000000000000000000000000000000000100000000000000000000000000000000000000000000000000000000000000600000000000000000000000000000000000000000000000000000000000000016000301001101000000000000000000000000000186a000000000000000000000",
              "blockHash": "0xf7b84ec4f44c315723eb62644e485deb44e7f16cd7840a1df7986c2207d488c6",
              "blockNumber": "0xbb20515",
              "transactionHash": "0x3611de2eef0058c7db946154cd1f15d61fec4573f0bea0159ca5164e346e1017",
              "transactionIndex": "0x4",
              "logIndex": "0x4",
              "removed": false
            }
          ],
          "logsBloom": "0x00000000000000000000000000000000000000000000000000000000000000000000000000000000000000000000000000000000000000000000400000000000000000000000000000000000000000000000000000000000000000000000000000000000000000000000000400000000000000000000000000000000000000000000000000000000000000000000020000000000000000000000000000080000000000000000000000000000000000000000000000000000000000000000000000000000000000000000000002000000000000000000000000000000000000000000000000000000000000000000000000000020000000000000000000000000",
          "type": "0x2",
          "transactionHash": "0x3611de2eef0058c7db946154cd1f15d61fec4573f0bea0159ca5164e346e1017",
          "transactionIndex": "0x4",
          "blockHash": "0xf7b84ec4f44c315723eb62644e485deb44e7f16cd7840a1df7986c2207d488c6",
          "blockNumber": "0xbb20515",
          "gasUsed": "0xa712",
          "effectiveGasPrice": "0x66720b300",
          "from": "0x0ece75f3c36f7df2136dac7633165dbff53de3cd",
          "to": "0x5ddbbc68527214e0aca3b4175860080cbdaa12ff",
          "contractAddress": null
        },
        {
          "status": "0x1",
          "cumulativeGasUsed": "0x41b96",
          "logs": [
            {
              "address": "0xfe5138a42dc1fc335455b505e036784a33f7f102",
              "topics": [
                "0xbe4864a8e820971c0247f5992e2da559595f7bf076a21cb5928d443d2a13b674"
              ],
              "data": "0x00000000000000000000000000000000000000000000000000000000000000200000000000000000000000000000000000000000000000000000000000000002000000000000000000000000000000000000000000000000000000000000004000000000000000000000000000000000000000000000000000000000000000e000000000000000000000000000000000000000000000000000000000000075c6000000000000000000000000000000000000000000000000000000000000000100000000000000000000000000000000000000000000000000000000000000600000000000000000000000000000000000000000000000000000000000000016000301001101000000000000000000000000000138800000000000000000000000000000000000000000000000000000000000000000000000000000000075e8000000000000000000000000000000000000000000000000000000000000000100000000000000000000000000000000000000000000000000000000000000600000000000000000000000000000000000000000000000000000000000000016000301001101000000000000000000000000000186a000000000000000000000",
              "blockHash": "0xf7b84ec4f44c315723eb62644e485deb44e7f16cd7840a1df7986c2207d488c6",
              "blockNumber": "0xbb20515",
              "transactionHash": "0xd25462ebd980795ea11c53e4005402d76724b37f4938956b99fca7e9a2adb881",
              "transactionIndex": "0x5",
              "logIndex": "0x5",
              "removed": false
            }
          ],
          "logsBloom": "0x00000000000000000000000000000000000000000000000000000000000000000000000000000000008000000000000000000000000000000000400000000000000000000000000000000000000000000000000000000000000000000400000000000000000000000000000000000000000000000000000000000000000000000000000000000000000000000000000000000000000000000000000000080000000000000000000000000000000000020000000000000000000000000000000000000000000000000000000002000000000000000000000000000000000000000000000000000000000000000000000000000000000000000000000000000000",
          "type": "0x2",
          "transactionHash": "0xd25462ebd980795ea11c53e4005402d76724b37f4938956b99fca7e9a2adb881",
          "transactionIndex": "0x5",
          "blockHash": "0xf7b84ec4f44c315723eb62644e485deb44e7f16cd7840a1df7986c2207d488c6",
          "blockNumber": "0xbb20515",
          "gasUsed": "0xa6fc",
          "effectiveGasPrice": "0x66720b300",
          "from": "0x0ece75f3c36f7df2136dac7633165dbff53de3cd",
          "to": "0xfe5138a42dc1fc335455b505e036784a33f7f102",
          "contractAddress": null
        },
        {
          "status": "0x1",
          "cumulativeGasUsed": "0x4c292",
          "logs": [
            {
              "address": "0xb0e96105543cba4b3d82911e7336f19bd03b0360",
              "topics": [
                "0xbe4864a8e820971c0247f5992e2da559595f7bf076a21cb5928d443d2a13b674"
              ],
              "data": "0x00000000000000000000000000000000000000000000000000000000000000200000000000000000000000000000000000000000000000000000000000000002000000000000000000000000000000000000000000000000000000000000004000000000000000000000000000000000000000000000000000000000000000e000000000000000000000000000000000000000000000000000000000000075c6000000000000000000000000000000000000000000000000000000000000000100000000000000000000000000000000000000000000000000000000000000600000000000000000000000000000000000000000000000000000000000000016000301001101000000000000000000000000000138800000000000000000000000000000000000000000000000000000000000000000000000000000000075e8000000000000000000000000000000000000000000000000000000000000000100000000000000000000000000000000000000000000000000000000000000600000000000000000000000000000000000000000000000000000000000000016000301001101000000000000000000000000000186a000000000000000000000",
              "blockHash": "0xf7b84ec4f44c315723eb62644e485deb44e7f16cd7840a1df7986c2207d488c6",
              "blockNumber": "0xbb20515",
              "transactionHash": "0x676c63f9c703379c57b5a20958d7cc70fe894f2541159a3ff028bd435db19d4d",
              "transactionIndex": "0x6",
              "logIndex": "0x6",
              "removed": false
            }
          ],
          "logsBloom": "0x00000000000000000000000000000000000000000000000000000000000000000000000000000000000000000000000000000000000000000000400000000000000000000000000100000000000000000000000000000000000000000000000000000000000000000000000000000000000000000000000000000000000000000000000000000000000000000010000000000000000000000000000000080000000000000000000200000000000000000000000000000000000000000000000000000000000000000000000002000000000000000000000000000000000000000000000000000000000000000000000000000000000000000000000000000000",
          "type": "0x2",
          "transactionHash": "0x676c63f9c703379c57b5a20958d7cc70fe894f2541159a3ff028bd435db19d4d",
          "transactionIndex": "0x6",
          "blockHash": "0xf7b84ec4f44c315723eb62644e485deb44e7f16cd7840a1df7986c2207d488c6",
          "blockNumber": "0xbb20515",
          "gasUsed": "0xa6fc",
          "effectiveGasPrice": "0x66720b300",
          "from": "0x0ece75f3c36f7df2136dac7633165dbff53de3cd",
          "to": "0xb0e96105543cba4b3d82911e7336f19bd03b0360",
          "contractAddress": null
        },
        {
          "status": "0x1",
          "cumulativeGasUsed": "0x6051c",
          "logs": [
            {
              "address": "0xaf9842adacb4b2fa619d45fe11579fae5faf1698",
              "topics": [
                "0xbe4864a8e820971c0247f5992e2da559595f7bf076a21cb5928d443d2a13b674"
              ],
              "data": "0x00000000000000000000000000000000000000000000000000000000000000200000000000000000000000000000000000000000000000000000000000000002000000000000000000000000000000000000000000000000000000000000004000000000000000000000000000000000000000000000000000000000000000e000000000000000000000000000000000000000000000000000000000000075c6000000000000000000000000000000000000000000000000000000000000000100000000000000000000000000000000000000000000000000000000000000600000000000000000000000000000000000000000000000000000000000000016000301001101000000000000000000000000000138800000000000000000000000000000000000000000000000000000000000000000000000000000000075e8000000000000000000000000000000000000000000000000000000000000000100000000000000000000000000000000000000000000000000000000000000600000000000000000000000000000000000000000000000000000000000000016000301001101000000000000000000000000000186a000000000000000000000",
              "blockHash": "0xf7b84ec4f44c315723eb62644e485deb44e7f16cd7840a1df7986c2207d488c6",
              "blockNumber": "0xbb20515",
              "transactionHash": "0x6e6aa4ff393ceeb6f4ac33f7ea8ce016c99062c92b4f7a032442d969ef1f9efe",
              "transactionIndex": "0x7",
              "logIndex": "0x7",
              "removed": false
            }
          ],
          "logsBloom": "0x00000000000000000000000000000000000000000000000000000000000000000000000000000000000000000000000000000000000000000000400000000000001000000000000000000000000000000000000000000000000000000000000000000000000000000000000000000000000000000000000000000000000000000000000000000000000000000000000000000000000000000000000000080000000000000000000000000000000000000000000000000000000000000000000000000000000000000000000082000000000000000000000000000000000000000000000000000000000000000000000000000000000000000002000000000000",
          "type": "0x2",
          "transactionHash": "0x6e6aa4ff393ceeb6f4ac33f7ea8ce016c99062c92b4f7a032442d969ef1f9efe",
          "transactionIndex": "0x7",
          "blockHash": "0xf7b84ec4f44c315723eb62644e485deb44e7f16cd7840a1df7986c2207d488c6",
          "blockNumber": "0xbb20515",
          "gasUsed": "0x1428a",
          "effectiveGasPrice": "0x66720b300",
          "from": "0x0ece75f3c36f7df2136dac7633165dbff53de3cd",
          "to": "0xaf9842adacb4b2fa619d45fe11579fae5faf1698",
          "contractAddress": null
        }
      ],
      "libraries": [],
      "pending": [],
      "returns": {},
      "timestamp": 1758285265460,
      "chain": 8217,
      "commit": "6c82bda"
    }
  ],
  "timestamp": 1758285270351
}