{
  "transactions": [
    {
      "hash": "0x1cfe3a4c6eed8633643e16748af8d539df5052e27b9956f919e9458803ca1759",
      "transactionType": "CALL",
      "contractName": null,
      "contractAddress": "0x560bd1836c348c4a10eed7008e68ae58228dd117",
      "function": "setEnforcedOptions((uint32,uint16,bytes)[])",
      "arguments": [
        "[(0, 1, 0x00030100110100000000000000000000000000013880), (0, 1, 0x000301001101000000000000000000000000000186a0)]"
      ],
      "transaction": {
        "from": "0x0ece75f3c36f7df2136dac7633165dbff53de3cd",
        "to": "0x560bd1836c348c4a10eed7008e68ae58228dd117",
        "gas": "0x146f7",
        "value": "0x0",
        "input": "0xb98bd07000000000000000000000000000000000000000000000000000000000000000200000000000000000000000000000000000000000000000000000000000000002000000000000000000000000000000000000000000000000000000000000004000000000000000000000000000000000000000000000000000000000000000e0000000000000000000000000000000000000000000000000000000000000000000000000000000000000000000000000000000000000000000000000000000010000000000000000000000000000000000000000000000000000000000000060000000000000000000000000000000000000000000000000000000000000001600030100110100000000000000000000000000013880000000000000000000000000000000000000000000000000000000000000000000000000000000000000000000000000000000000000000000000000000000000000000000000000000100000000000000000000000000000000000000000000000000000000000000600000000000000000000000000000000000000000000000000000000000000016000301001101000000000000000000000000000186a000000000000000000000",
        "nonce": "0x8f",
        "chainId": "0x2105"
      },
      "additionalContracts": [],
      "isFixedGasLimit": false
    },
    {
      "hash": "0x355ed5112d329cd1adc41dc29e527acbaee163356cd2599467f107e96560a7e5",
      "transactionType": "CALL",
      "contractName": null,
      "contractAddress": "0x9eaa6ec9e0b55948309eb320166312cb0807b6de",
      "function": "setEnforcedOptions((uint32,uint16,bytes)[])",
      "arguments": [
        "[(0, 1, 0x00030100110100000000000000000000000000013880), (0, 1, 0x000301001101000000000000000000000000000186a0)]"
      ],
      "transaction": {
        "from": "0x0ece75f3c36f7df2136dac7633165dbff53de3cd",
        "to": "0x9eaa6ec9e0b55948309eb320166312cb0807b6de",
        "gas": "0x146f7",
        "value": "0x0",
        "input": "0xb98bd07000000000000000000000000000000000000000000000000000000000000000200000000000000000000000000000000000000000000000000000000000000002000000000000000000000000000000000000000000000000000000000000004000000000000000000000000000000000000000000000000000000000000000e0000000000000000000000000000000000000000000000000000000000000000000000000000000000000000000000000000000000000000000000000000000010000000000000000000000000000000000000000000000000000000000000060000000000000000000000000000000000000000000000000000000000000001600030100110100000000000000000000000000013880000000000000000000000000000000000000000000000000000000000000000000000000000000000000000000000000000000000000000000000000000000000000000000000000000100000000000000000000000000000000000000000000000000000000000000600000000000000000000000000000000000000000000000000000000000000016000301001101000000000000000000000000000186a000000000000000000000",
        "nonce": "0x90",
        "chainId": "0x2105"
      },
      "additionalContracts": [],
      "isFixedGasLimit": false
    }
  ],
  "receipts": [
    {
      "status": "0x1",
      "cumulativeGasUsed": "0x171edee",
      "logs": [
        {
          "address": "0x560bd1836c348c4a10eed7008e68ae58228dd117",
          "topics": [
            "0xbe4864a8e820971c0247f5992e2da559595f7bf076a21cb5928d443d2a13b674"
          ],
          "data": "0x00000000000000000000000000000000000000000000000000000000000000200000000000000000000000000000000000000000000000000000000000000002000000000000000000000000000000000000000000000000000000000000004000000000000000000000000000000000000000000000000000000000000000e0000000000000000000000000000000000000000000000000000000000000000000000000000000000000000000000000000000000000000000000000000000010000000000000000000000000000000000000000000000000000000000000060000000000000000000000000000000000000000000000000000000000000001600030100110100000000000000000000000000013880000000000000000000000000000000000000000000000000000000000000000000000000000000000000000000000000000000000000000000000000000000000000000000000000000100000000000000000000000000000000000000000000000000000000000000600000000000000000000000000000000000000000000000000000000000000016000301001101000000000000000000000000000186a000000000000000000000",
          "blockHash": "0xc22c6fd363b70230b87e6d9cd90c4270ac128f944948c03d8dc3710033b2e2aa",
          "blockNumber": "0x21ef63d",
          "blockTimestamp": "0x68c8495d",
          "transactionHash": "0x1cfe3a4c6eed8633643e16748af8d539df5052e27b9956f919e9458803ca1759",
          "transactionIndex": "0x7f",
          "logIndex": "0x284",
          "removed": false
        }
      ],
      "logsBloom": "0x00000000000000000000000000000000000000000000000000000000000000000000000000000000000000000000000000000000000000000000400000000000000000000000000000000000000000000000000000000000000000000000000000000000000000000000000000000000000800000000000000000000000000000000000000000000000000000000000000000000000000000000000000080000000000000000000000000100000000000000000000000000000000000000400000000000000000000000000002000000000000000000000000000000000000000000000000000000000000000000000000000000000000000000000000000000",
      "type": "0x2",
      "transactionHash": "0x1cfe3a4c6eed8633643e16748af8d539df5052e27b9956f919e9458803ca1759",
      "transactionIndex": "0x7f",
      "blockHash": "0xc22c6fd363b70230b87e6d9cd90c4270ac128f944948c03d8dc3710033b2e2aa",
      "blockNumber": "0x21ef63d",
      "gasUsed": "0xecb8",
      "effectiveGasPrice": "0x6579f6",
      "from": "0x0ece75f3c36f7df2136dac7633165dbff53de3cd",
      "to": "0x560bd1836c348c4a10eed7008e68ae58228dd117",
      "contractAddress": null,
      "l1BaseFeeScalar": "0x8dd",
      "l1BlobBaseFee": "0x1",
      "l1BlobBaseFeeScalar": "0x101c12",
      "l1Fee": "0x3b5a7cfa1",
      "l1GasPrice": "0xd329b8e1",
      "l1GasUsed": "0x7be"
    },
    {
      "status": "0x1",
      "cumulativeGasUsed": "0x172daa6",
      "logs": [
        {
          "address": "0x9eaa6ec9e0b55948309eb320166312cb0807b6de",
          "topics": [
            "0xbe4864a8e820971c0247f5992e2da559595f7bf076a21cb5928d443d2a13b674"
          ],
          "data": "0x00000000000000000000000000000000000000000000000000000000000000200000000000000000000000000000000000000000000000000000000000000002000000000000000000000000000000000000000000000000000000000000004000000000000000000000000000000000000000000000000000000000000000e0000000000000000000000000000000000000000000000000000000000000000000000000000000000000000000000000000000000000000000000000000000010000000000000000000000000000000000000000000000000000000000000060000000000000000000000000000000000000000000000000000000000000001600030100110100000000000000000000000000013880000000000000000000000000000000000000000000000000000000000000000000000000000000000000000000000000000000000000000000000000000000000000000000000000000100000000000000000000000000000000000000000000000000000000000000600000000000000000000000000000000000000000000000000000000000000016000301001101000000000000000000000000000186a000000000000000000000",
          "blockHash": "0xc22c6fd363b70230b87e6d9cd90c4270ac128f944948c03d8dc3710033b2e2aa",
          "blockNumber": "0x21ef63d",
          "blockTimestamp": "0x68c8495d",
          "transactionHash": "0x355ed5112d329cd1adc41dc29e527acbaee163356cd2599467f107e96560a7e5",
          "transactionIndex": "0x80",
          "logIndex": "0x285",
          "removed": false
        }
      ],
      "logsBloom": "0x00000000000000000000000000000000008000000000000000000000000000000000000000000010000000000000000000000000000000000000400000000000000000000800000000000000000000000000000000000000000000000000000000000000000000000000000000000000000000000000000000000000000000000000000000000000000000000000000000000000000000000000000000080000000000000000000000000000000000000000000000000000000000000000000000000000000000000000000002000000000000000000000000000000000000000000000000000000000000000000000000000000000000000000000000000000",
      "type": "0x2",
      "transactionHash": "0x355ed5112d329cd1adc41dc29e527acbaee163356cd2599467f107e96560a7e5",
      "transactionIndex": "0x80",
      "blockHash": "0xc22c6fd363b70230b87e6d9cd90c4270ac128f944948c03d8dc3710033b2e2aa",
      "blockNumber": "0x21ef63d",
      "gasUsed": "0xecb8",
      "effectiveGasPrice": "0x6579f6",
      "from": "0x0ece75f3c36f7df2136dac7633165dbff53de3cd",
      "to": "0x9eaa6ec9e0b55948309eb320166312cb0807b6de",
      "contractAddress": null,
      "l1BaseFeeScalar": "0x8dd",
      "l1BlobBaseFee": "0x1",
      "l1BlobBaseFeeScalar": "0x101c12",
      "l1Fee": "0x3b5a7cfa1",
      "l1GasPrice": "0xd329b8e1",
      "l1GasUsed": "0x7be"
    }
  ],
  "libraries": [],
  "pending": [],
  "returns": {},
  "timestamp": 1757956443846,
  "chain": 8453,
  "commit": "62bb711"
}