{
  "transactions": [
    {
      "hash": "0xb68c71f7b73356634621e915856232564619360c9c78266b3e2531a6108457a8",
      "transactionType": "CALL",
      "contractName": null,
      "contractAddress": "0x560bd1836c348c4a10eed7008e68ae58228dd117",
      "function": "setPeer(uint32,bytes32)",
      "arguments": [
        "30150",
        "0x0000000000000000000000005e6671ef689b2b2d4391a766b0486e5054136546"
      ],
      "transaction": {
        "from": "0x0ece75f3c36f7df2136dac7633165dbff53de3cd",
        "to": "0x560bd1836c348c4a10eed7008e68ae58228dd117",
        "gas": "0xb24b",
        "value": "0x0",
        "input": "0x3400288b00000000000000000000000000000000000000000000000000000000000075c60000000000000000000000005e6671ef689b2b2d4391a766b0486e5054136546",
        "nonce": "0x91",
        "chainId": "0x2105"
      },
      "additionalContracts": [],
      "isFixedGasLimit": false
    },
    {
      "hash": "0x612e7d94a2ded6dc631d67544dc23672e656bc7d1ca7b0a9fff4525c032e67c3",
      "transactionType": "CALL",
      "contractName": null,
      "contractAddress": "0x9eaa6ec9e0b55948309eb320166312cb0807b6de",
      "function": "setPeer(uint32,bytes32)",
      "arguments": [
        "30150",
        "0x000000000000000000000000cdec0d768e43090a9eec47d87d8165e9fa78b204"
      ],
      "transaction": {
        "from": "0x0ece75f3c36f7df2136dac7633165dbff53de3cd",
        "to": "0x9eaa6ec9e0b55948309eb320166312cb0807b6de",
        "gas": "0xb24b",
        "value": "0x0",
        "input": "0x3400288b00000000000000000000000000000000000000000000000000000000000075c6000000000000000000000000cdec0d768e43090a9eec47d87d8165e9fa78b204",
        "nonce": "0x92",
        "chainId": "0x2105"
      },
      "additionalContracts": [],
      "isFixedGasLimit": false
    }
  ],
  "receipts": [
    {
      "status": "0x1",
      "cumulativeGasUsed": "0x229e557",
      "logs": [
        {
          "address": "0x560bd1836c348c4a10eed7008e68ae58228dd117",
          "topics": [
            "0x238399d427b947898edb290f5ff0f9109849b1c3ba196a42e35f00c50a54b98b"
          ],
          "data": "0x00000000000000000000000000000000000000000000000000000000000075c60000000000000000000000005e6671ef689b2b2d4391a766b0486e5054136546",
          "blockHash": "0x471491659e619aadc875c0d0315bc8e542c45bf79fa5bd5752195f2e2a7dd9ec",
          "blockNumber": "0x21ef6ec",
          "blockTimestamp": "0x68c84abb",
          "transactionHash": "0xb68c71f7b73356634621e915856232564619360c9c78266b3e2531a6108457a8",
          "transactionIndex": "0xe6",
          "logIndex": "0x2d5",
          "removed": false
        }
      ],
      "logsBloom": "0x00000000000000000000000000000000000000000000000000000000000000000000000000000000000000000000000000000000000000000800000000000000000000000000000000000000000000000000000000000000000000000000000000000000000000000000000000000000000800000000000000000000000000000000000000000000000000000000000000000000000000000000000000000000000000000000000000000100000000000000000000000000000002000000400000000000000000000000000000000000000000000000000000040000000000000000000000000000000000000000000000000000000000000000000000000000",
      "type": "0x2",
      "transactionHash": "0xb68c71f7b73356634621e915856232564619360c9c78266b3e2531a6108457a8",
      "transactionIndex": "0xe6",
      "blockHash": "0x471491659e619aadc875c0d0315bc8e542c45bf79fa5bd5752195f2e2a7dd9ec",
      "blockNumber": "0x21ef6ec",
      "gasUsed": "0x79e9",
      "effectiveGasPrice": "0x6236cf",
      "from": "0x0ece75f3c36f7df2136dac7633165dbff53de3cd",
      "to": "0x560bd1836c348c4a10eed7008e68ae58228dd117",
      "contractAddress": null,
      "l1BaseFeeScalar": "0x8dd",
      "l1BlobBaseFee": "0x1",
      "l1BlobBaseFeeScalar": "0x101c12",
      "l1Fee": "0x2a1389f14",
      "l1GasPrice": "0xb970a024",
      "l1GasUsed": "0x640"
    },
    {
      "status": "0x1",
      "cumulativeGasUsed": "0x22a5f40",
      "logs": [
        {
          "address": "0x9eaa6ec9e0b55948309eb320166312cb0807b6de",
          "topics": [
            "0x238399d427b947898edb290f5ff0f9109849b1c3ba196a42e35f00c50a54b98b"
          ],
          "data": "0x00000000000000000000000000000000000000000000000000000000000075c6000000000000000000000000cdec0d768e43090a9eec47d87d8165e9fa78b204",
          "blockHash": "0x471491659e619aadc875c0d0315bc8e542c45bf79fa5bd5752195f2e2a7dd9ec",
          "blockNumber": "0x21ef6ec",
          "blockTimestamp": "0x68c84abb",
          "transactionHash": "0x612e7d94a2ded6dc631d67544dc23672e656bc7d1ca7b0a9fff4525c032e67c3",
          "transactionIndex": "0xe7",
          "logIndex": "0x2d6",
          "removed": false
        }
      ],
      "logsBloom": "0x00000000000000000000000000000000008000000000000000000000000000000000000000000010000000000000000000000000000000000800000000000000000000000800000000000000000000000000000000000000000000000000000000000000000000000000000000000000000000000000000000000000000000000000000000000000000000000000000000000000000000000000000000000000000000000000000000000000000000000000000000000000000002000000000000000000000000000000000000000000000000000000000000040000000000000000000000000000000000000000000000000000000000000000000000000000",
      "type": "0x2",
      "transactionHash": "0x612e7d94a2ded6dc631d67544dc23672e656bc7d1ca7b0a9fff4525c032e67c3",
      "transactionIndex": "0xe7",
      "blockHash": "0x471491659e619aadc875c0d0315bc8e542c45bf79fa5bd5752195f2e2a7dd9ec",
      "blockNumber": "0x21ef6ec",
      "gasUsed": "0x79e9",
      "effectiveGasPrice": "0x6236cf",
      "from": "0x0ece75f3c36f7df2136dac7633165dbff53de3cd",
      "to": "0x9eaa6ec9e0b55948309eb320166312cb0807b6de",
      "contractAddress": null,
      "l1BaseFeeScalar": "0x8dd",
      "l1BlobBaseFee": "0x1",
      "l1BlobBaseFeeScalar": "0x101c12",
      "l1Fee": "0x2a1389f14",
      "l1GasPrice": "0xb970a024",
      "l1GasUsed": "0x640"
    }
  ],
  "libraries": [],
  "pending": [],
  "returns": {},
  "timestamp": 1757956795024,
  "chain": 8453,
  "commit": "62bb711"
}