{
  "transactions": [
    {
      "hash": "0xd2a82b8ac00e354cda41f58f518a4948bb65a8b88ca8723f4effcf2c80186495",
      "transactionType": "CALL",
      "contractName": null,
      "contractAddress": "0x560bd1836c348c4a10eed7008e68ae58228dd117",
      "function": "setPeer(uint32,bytes32)",
      "arguments": [
        "30150",
        "0x000000000000000000000000560bd1836c348c4a10eed7008e68ae58228dd117"
      ],
      "transaction": {
        "from": "0x0ece75f3c36f7df2136dac7633165dbff53de3cd",
        "to": "0x560bd1836c348c4a10eed7008e68ae58228dd117",
        "gas": "0xa851",
        "value": "0x0",
        "input": "0x3400288b00000000000000000000000000000000000000000000000000000000000075c6000000000000000000000000560bd1836c348c4a10eed7008e68ae58228dd117",
        "nonce": "0x8d",
        "chainId": "0x2105"
      },
      "additionalContracts": [],
      "isFixedGasLimit": false
    },
    {
      "hash": "0xb70af18c232947c6ec3685ba70d30eb7025946a2c74d099d9c5842d9d9c4e91d",
      "transactionType": "CALL",
      "contractName": null,
      "contractAddress": "0x9eaa6ec9e0b55948309eb320166312cb0807b6de",
      "function": "setPeer(uint32,bytes32)",
      "arguments": [
        "30150",
        "0x0000000000000000000000009eaa6ec9e0b55948309eb320166312cb0807b6de"
      ],
      "transaction": {
        "from": "0x0ece75f3c36f7df2136dac7633165dbff53de3cd",
        "to": "0x9eaa6ec9e0b55948309eb320166312cb0807b6de",
        "gas": "0xb24b",
        "value": "0x0",
        "input": "0x3400288b00000000000000000000000000000000000000000000000000000000000075c60000000000000000000000009eaa6ec9e0b55948309eb320166312cb0807b6de",
        "nonce": "0x8e",
        "chainId": "0x2105"
      },
      "additionalContracts": [],
      "isFixedGasLimit": false
    }
  ],
  "receipts": [
    {
      "status": "0x1",
      "cumulativeGasUsed": "0x6d05c0",
      "logs": [
        {
          "address": "0x560bd1836c348c4a10eed7008e68ae58228dd117",
          "topics": [
            "0x238399d427b947898edb290f5ff0f9109849b1c3ba196a42e35f00c50a54b98b"
          ],
          "data": "0x00000000000000000000000000000000000000000000000000000000000075c6000000000000000000000000560bd1836c348c4a10eed7008e68ae58228dd117",
          "blockHash": "0x221b82fe083b54723baf7f3f901befe3798c709d45cabcda08cd29cba56b7043",
          "blockNumber": "0x21ef44a",
          "blockTimestamp": "0x68c84577",
          "transactionHash": "0xd2a82b8ac00e354cda41f58f518a4948bb65a8b88ca8723f4effcf2c80186495",
          "transactionIndex": "0x49",
          "logIndex": "0x48",
          "removed": false
        }
      ],
      "logsBloom": "0x00000000000000000000000000000000000000000000000000000000000000000000000000000000000000000000000000000000000000000800000000000000000000000000000000000000000000000000000000000000000000000000000000000000000000000000000000000000000800000000000000000000000000000000000000000000000000000000000000000000000000000000000000000000000000000000000000000100000000000000000000000000000002000000400000000000000000000000000000000000000000000000000000040000000000000000000000000000000000000000000000000000000000000000000000000000",
      "type": "0x2",
      "transactionHash": "0xd2a82b8ac00e354cda41f58f518a4948bb65a8b88ca8723f4effcf2c80186495",
      "transactionIndex": "0x49",
      "blockHash": "0x221b82fe083b54723baf7f3f901befe3798c709d45cabcda08cd29cba56b7043",
      "blockNumber": "0x21ef44a",
      "gasUsed": "0x79dd",
      "effectiveGasPrice": "0x960e0a",
      "from": "0x0ece75f3c36f7df2136dac7633165dbff53de3cd",
      "to": "0x560bd1836c348c4a10eed7008e68ae58228dd117",
      "contractAddress": null,
      "l1BaseFeeScalar": "0x8dd",
      "l1BlobBaseFee": "0x1",
      "l1BlobBaseFeeScalar": "0x101c12",
      "l1Fee": "0x41a643581",
      "l1GasPrice": "0x1215507be",
      "l1GasUsed": "0x640"
    },
    {
      "status": "0x1",
      "cumulativeGasUsed": "0x6d7fa9",
      "logs": [
        {
          "address": "0x9eaa6ec9e0b55948309eb320166312cb0807b6de",
          "topics": [
            "0x238399d427b947898edb290f5ff0f9109849b1c3ba196a42e35f00c50a54b98b"
          ],
          "data": "0x00000000000000000000000000000000000000000000000000000000000075c60000000000000000000000009eaa6ec9e0b55948309eb320166312cb0807b6de",
          "blockHash": "0x128dee3c5827ac0ad9b24c2b38102c9b2c9fdb7a5b96456a6256ac808b43175a",
          "blockNumber": "0x21ef44a",
          "blockTimestamp": "0x68c84577",
          "transactionHash": "0xb70af18c232947c6ec3685ba70d30eb7025946a2c74d099d9c5842d9d9c4e91d",
          "transactionIndex": "0x4a",
          "logIndex": "0x49",
          "removed": false
        }
      ],
      "logsBloom": "0x00000000000000000000000000000000008000000000000000000000000000000000000000000010000000000000000000000000000000000800000000000000000000000800000000000000000000000000000000000000000000000000000000000000000000000000000000000000000000000000000000000000000000000000000000000000000000000000000000000000000000000000000000000000000000000000000000000000000000000000000000000000000002000000000000000000000000000000000000000000000000000000000000040000000000000000000000000000000000000000000000000000000000000000000000000000",
      "type": "0x2",
      "transactionHash": "0xb70af18c232947c6ec3685ba70d30eb7025946a2c74d099d9c5842d9d9c4e91d",
      "transactionIndex": "0x4a",
      "blockHash": "0x128dee3c5827ac0ad9b24c2b38102c9b2c9fdb7a5b96456a6256ac808b43175a",
      "blockNumber": "0x21ef44a",
      "gasUsed": "0x79e9",
      "effectiveGasPrice": "0x960e0a",
      "from": "0x0ece75f3c36f7df2136dac7633165dbff53de3cd",
      "to": "0x9eaa6ec9e0b55948309eb320166312cb0807b6de",
      "contractAddress": null,
      "l1BaseFeeScalar": "0x8dd",
      "l1BlobBaseFee": "0x1",
      "l1BlobBaseFeeScalar": "0x101c12",
      "l1Fee": "0x41a643581",
      "l1GasPrice": "0x1215507be",
      "l1GasUsed": "0x640"
    }
  ],
  "libraries": [],
  "pending": [],
  "returns": {},
  "timestamp": 1757955447283,
  "chain": 8453,
  "commit": "dc758c0"
}