{
  "transactions": [
    {
      "hash": "0x6b85219de782117368847e7e188003b66174b832d57d5491aac2c1839275f4e4",
      "transactionType": "CALL",
      "contractName": null,
      "contractAddress": "0x5e6aad48fb0a23e9540a5eaffb87846e8ef04c42",
      "function": "setEnforcedOptions((uint32,uint16,bytes)[])",
      "arguments": [
        "[(30184, 1, 0x00030100110100000000000000000000000000013880), (30150, 1, 0x000301001101000000000000000000000000000186a0)]"
      ],
      "transaction": {
        "from": "0x0ece75f3c36f7df2136dac7633165dbff53de3cd",
        "to": "0x5e6aad48fb0a23e9540a5eaffb87846e8ef04c42",
        "gas": "0x1bd63",
        "value": "0x0",
        "input": "0xb98bd07000000000000000000000000000000000000000000000000000000000000000200000000000000000000000000000000000000000000000000000000000000002000000000000000000000000000000000000000000000000000000000000004000000000000000000000000000000000000000000000000000000000000000e000000000000000000000000000000000000000000000000000000000000075e8000000000000000000000000000000000000000000000000000000000000000100000000000000000000000000000000000000000000000000000000000000600000000000000000000000000000000000000000000000000000000000000016000301001101000000000000000000000000000138800000000000000000000000000000000000000000000000000000000000000000000000000000000075c6000000000000000000000000000000000000000000000000000000000000000100000000000000000000000000000000000000000000000000000000000000600000000000000000000000000000000000000000000000000000000000000016000301001101000000000000000000000000000186a000000000000000000000",
        "nonce": "0x5d",
        "chainId": "0x2105"
      },
      "additionalContracts": [],
      "isFixedGasLimit": false
    },
    {
      "hash": "0x19cad469b161cda73c6346a828fd0875a45ddadea0b9a9d5ff2ebe00aad2e1cf",
      "transactionType": "CALL",
      "contractName": null,
      "contractAddress": "0xb9b3a1baa8cf4c5cd6b4d132ed7b0cbe05646f6f",
      "function": "setEnforcedOptions((uint32,uint16,bytes)[])",
      "arguments": [
        "[(30184, 1, 0x00030100110100000000000000000000000000013880), (30150, 1, 0x000301001101000000000000000000000000000186a0)]"
      ],
      "transaction": {
        "from": "0x0ece75f3c36f7df2136dac7633165dbff53de3cd",
        "to": "0xb9b3a1baa8cf4c5cd6b4d132ed7b0cbe05646f6f",
        "gas": "0x1bd63",
        "value": "0x0",
        "input": "0xb98bd07000000000000000000000000000000000000000000000000000000000000000200000000000000000000000000000000000000000000000000000000000000002000000000000000000000000000000000000000000000000000000000000004000000000000000000000000000000000000000000000000000000000000000e000000000000000000000000000000000000000000000000000000000000075e8000000000000000000000000000000000000000000000000000000000000000100000000000000000000000000000000000000000000000000000000000000600000000000000000000000000000000000000000000000000000000000000016000301001101000000000000000000000000000138800000000000000000000000000000000000000000000000000000000000000000000000000000000075c6000000000000000000000000000000000000000000000000000000000000000100000000000000000000000000000000000000000000000000000000000000600000000000000000000000000000000000000000000000000000000000000016000301001101000000000000000000000000000186a000000000000000000000",
        "nonce": "0x5e",
        "chainId": "0x2105"
      },
      "additionalContracts": [],
      "isFixedGasLimit": false
    },
    {
      "hash": "0xafe5175eac4e6d005cc0db754cb0fc8fd7fb438b38b43ed49d0dd157adae0e1f",
      "transactionType": "CALL",
      "contractName": null,
      "contractAddress": "0xb0fca55167f94d0f515877c411e0deb904321761",
      "function": "setEnforcedOptions((uint32,uint16,bytes)[])",
      "arguments": [
        "[(30184, 1, 0x00030100110100000000000000000000000000013880), (30150, 1, 0x000301001101000000000000000000000000000186a0)]"
      ],
      "transaction": {
        "from": "0x0ece75f3c36f7df2136dac7633165dbff53de3cd",
        "to": "0xb0fca55167f94d0f515877c411e0deb904321761",
        "gas": "0x1bd63",
        "value": "0x0",
        "input": "0xb98bd07000000000000000000000000000000000000000000000000000000000000000200000000000000000000000000000000000000000000000000000000000000002000000000000000000000000000000000000000000000000000000000000004000000000000000000000000000000000000000000000000000000000000000e000000000000000000000000000000000000000000000000000000000000075e8000000000000000000000000000000000000000000000000000000000000000100000000000000000000000000000000000000000000000000000000000000600000000000000000000000000000000000000000000000000000000000000016000301001101000000000000000000000000000138800000000000000000000000000000000000000000000000000000000000000000000000000000000075c6000000000000000000000000000000000000000000000000000000000000000100000000000000000000000000000000000000000000000000000000000000600000000000000000000000000000000000000000000000000000000000000016000301001101000000000000000000000000000186a000000000000000000000",
        "nonce": "0x5f",
        "chainId": "0x2105"
      },
      "additionalContracts": [],
      "isFixedGasLimit": false
    },
    {
      "hash": "0xc03dca85fb38e8cbd69fd1cb27f7eac145afa351a99f355ed3243918833a1575",
      "transactionType": "CALL",
      "contractName": null,
      "contractAddress": "0x6a58615739b0fc710e6a380e893e672968e30b5f",
      "function": "setEnforcedOptions((uint32,uint16,bytes)[])",
      "arguments": [
        "[(30184, 1, 0x00030100110100000000000000000000000000013880), (30150, 1, 0x000301001101000000000000000000000000000186a0)]"
      ],
      "transaction": {
        "from": "0x0ece75f3c36f7df2136dac7633165dbff53de3cd",
        "to": "0x6a58615739b0fc710e6a380e893e672968e30b5f",
        "gas": "0x1bd63",
        "value": "0x0",
        "input": "0xb98bd07000000000000000000000000000000000000000000000000000000000000000200000000000000000000000000000000000000000000000000000000000000002000000000000000000000000000000000000000000000000000000000000004000000000000000000000000000000000000000000000000000000000000000e000000000000000000000000000000000000000000000000000000000000075e8000000000000000000000000000000000000000000000000000000000000000100000000000000000000000000000000000000000000000000000000000000600000000000000000000000000000000000000000000000000000000000000016000301001101000000000000000000000000000138800000000000000000000000000000000000000000000000000000000000000000000000000000000075c6000000000000000000000000000000000000000000000000000000000000000100000000000000000000000000000000000000000000000000000000000000600000000000000000000000000000000000000000000000000000000000000016000301001101000000000000000000000000000186a000000000000000000000",
        "nonce": "0x60",
        "chainId": "0x2105"
      },
      "additionalContracts": [],
      "isFixedGasLimit": false
    }
  ],
  "receipts": [
    {
      "status": "0x1",
      "cumulativeGasUsed": "0x1ea176d",
      "logs": [
        {
          "address": "0x5e6aad48fb0a23e9540a5eaffb87846e8ef04c42",
          "topics": [
            "0xbe4864a8e820971c0247f5992e2da559595f7bf076a21cb5928d443d2a13b674"
          ],
          "data": "0x00000000000000000000000000000000000000000000000000000000000000200000000000000000000000000000000000000000000000000000000000000002000000000000000000000000000000000000000000000000000000000000004000000000000000000000000000000000000000000000000000000000000000e000000000000000000000000000000000000000000000000000000000000075e8000000000000000000000000000000000000000000000000000000000000000100000000000000000000000000000000000000000000000000000000000000600000000000000000000000000000000000000000000000000000000000000016000301001101000000000000000000000000000138800000000000000000000000000000000000000000000000000000000000000000000000000000000075c6000000000000000000000000000000000000000000000000000000000000000100000000000000000000000000000000000000000000000000000000000000600000000000000000000000000000000000000000000000000000000000000016000301001101000000000000000000000000000186a000000000000000000000",
          "blockHash": "0x08798230fcd9c85dafc8e5268f58b0270dc2036979c81d0d5f28a32a296b08b8",
          "blockNumber": "0x21da9b1",
          "blockTimestamp": "0x68c5b045",
          "transactionHash": "0x6b85219de782117368847e7e188003b66174b832d57d5491aac2c1839275f4e4",
          "transactionIndex": "0xe2",
          "logIndex": "0x222",
          "removed": false
        }
      ],
      "logsBloom": "0x00000000000000000000000000000000000000000000000000000000000000000000000000000000000000000000000000000000000000000000400000000000000000000000000000000000000000000000000000000000000200000000000000000000000000000000000000000000000000000000000000000040000000000000000000000000000000000000000000000000000000000000000000080000000000000000000000000000000000000000000000000000000000000000000000000000000000000000000002000000000000000000000000000000000020000000000000000000000000000000000000000000000000000000000000000000",
      "type": "0x2",
      "transactionHash": "0x6b85219de782117368847e7e188003b66174b832d57d5491aac2c1839275f4e4",
      "transactionIndex": "0xe2",
      "blockHash": "0x08798230fcd9c85dafc8e5268f58b0270dc2036979c81d0d5f28a32a296b08b8",
      "blockNumber": "0x21da9b1",
      "gasUsed": "0x14274",
      "effectiveGasPrice": "0x3a34d1",
      "from": "0x0ece75f3c36f7df2136dac7633165dbff53de3cd",
      "to": "0x5e6aad48fb0a23e9540a5eaffb87846e8ef04c42",
      "contractAddress": null,
      "l1BaseFeeScalar": "0x8dd",
      "l1BlobBaseFee": "0x1",
      "l1BlobBaseFeeScalar": "0x101c12",
      "l1Fee": "0x3fb8c32c",
      "l1GasPrice": "0xcc9947f",
      "l1GasUsed": "0x894"
    },
    {
      "status": "0x1",
      "cumulativeGasUsed": "0x1ee38e9",
      "logs": [
        {
          "address": "0xb9b3a1baa8cf4c5cd6b4d132ed7b0cbe05646f6f",
          "topics": [
            "0xbe4864a8e820971c0247f5992e2da559595f7bf076a21cb5928d443d2a13b674"
          ],
          "data": "0x00000000000000000000000000000000000000000000000000000000000000200000000000000000000000000000000000000000000000000000000000000002000000000000000000000000000000000000000000000000000000000000004000000000000000000000000000000000000000000000000000000000000000e000000000000000000000000000000000000000000000000000000000000075e8000000000000000000000000000000000000000000000000000000000000000100000000000000000000000000000000000000000000000000000000000000600000000000000000000000000000000000000000000000000000000000000016000301001101000000000000000000000000000138800000000000000000000000000000000000000000000000000000000000000000000000000000000075c6000000000000000000000000000000000000000000000000000000000000000100000000000000000000000000000000000000000000000000000000000000600000000000000000000000000000000000000000000000000000000000000016000301001101000000000000000000000000000186a000000000000000000000",
          "blockHash": "0x08798230fcd9c85dafc8e5268f58b0270dc2036979c81d0d5f28a32a296b08b8",
          "blockNumber": "0x21da9b1",
          "blockTimestamp": "0x68c5b045",
          "transactionHash": "0x19cad469b161cda73c6346a828fd0875a45ddadea0b9a9d5ff2ebe00aad2e1cf",
          "transactionIndex": "0xe4",
          "logIndex": "0x22b",
          "removed": false
        }
      ],
      "logsBloom": "0x00000000000000000000000000000000000000000000000000000000000000000000000000000000000000000000000000000000000000000000400000000000000000000000000000000000000000000000000000000000000000000000000000000000000000000000000000000000000100000000000000000000000000000000000000000000000000000000000000000000000000000000000000080000000000000000000000000000000000000000000000000000000000000000000000000000000000000000800002000000000000000000000000000000000000000000000000002000000000000000000000000000000000000000000000000000",
      "type": "0x2",
      "transactionHash": "0x19cad469b161cda73c6346a828fd0875a45ddadea0b9a9d5ff2ebe00aad2e1cf",
      "transactionIndex": "0xe4",
      "blockHash": "0x08798230fcd9c85dafc8e5268f58b0270dc2036979c81d0d5f28a32a296b08b8",
      "blockNumber": "0x21da9b1",
      "gasUsed": "0x14274",
      "effectiveGasPrice": "0x3a34d1",
      "from": "0x0ece75f3c36f7df2136dac7633165dbff53de3cd",
      "to": "0xb9b3a1baa8cf4c5cd6b4d132ed7b0cbe05646f6f",
      "contractAddress": null,
      "l1BaseFeeScalar": "0x8dd",
      "l1BlobBaseFee": "0x1",
      "l1BlobBaseFeeScalar": "0x101c12",
      "l1Fee": "0x3fb8c32c",
      "l1GasPrice": "0xcc9947f",
      "l1GasUsed": "0x894"
    },
    {
      "status": "0x1",
      "cumulativeGasUsed": "0x1ef7b5d",
      "logs": [
        {
          "address": "0xb0fca55167f94d0f515877c411e0deb904321761",
          "topics": [
            "0xbe4864a8e820971c0247f5992e2da559595f7bf076a21cb5928d443d2a13b674"
          ],
          "data": "0x00000000000000000000000000000000000000000000000000000000000000200000000000000000000000000000000000000000000000000000000000000002000000000000000000000000000000000000000000000000000000000000004000000000000000000000000000000000000000000000000000000000000000e000000000000000000000000000000000000000000000000000000000000075e8000000000000000000000000000000000000000000000000000000000000000100000000000000000000000000000000000000000000000000000000000000600000000000000000000000000000000000000000000000000000000000000016000301001101000000000000000000000000000138800000000000000000000000000000000000000000000000000000000000000000000000000000000075c6000000000000000000000000000000000000000000000000000000000000000100000000000000000000000000000000000000000000000000000000000000600000000000000000000000000000000000000000000000000000000000000016000301001101000000000000000000000000000186a000000000000000000000",
          "blockHash": "0x08798230fcd9c85dafc8e5268f58b0270dc2036979c81d0d5f28a32a296b08b8",
          "blockNumber": "0x21da9b1",
          "blockTimestamp": "0x68c5b045",
          "transactionHash": "0xafe5175eac4e6d005cc0db754cb0fc8fd7fb438b38b43ed49d0dd157adae0e1f",
          "transactionIndex": "0xe5",
          "logIndex": "0x22c",
          "removed": false
        }
      ],
      "logsBloom": "0x00000000000000000000000000000000040000000000000000000000000000000000000000000000000000000000000000000000000000000000400000000000000000000000000000000000000002000000000000000000000000000000000000000000000000000000000000000000000000000000000000000000000000000000000000000000000000000000000000000000000000000000000000080000000000000000000000000000000000000000000000000000000000000000000000000000000000000000000002000000000000000000000000000000000000000000000040000000000000000000000000000000000000000000000000000000",
      "type": "0x2",
      "transactionHash": "0xafe5175eac4e6d005cc0db754cb0fc8fd7fb438b38b43ed49d0dd157adae0e1f",
      "transactionIndex": "0xe5",
      "blockHash": "0x08798230fcd9c85dafc8e5268f58b0270dc2036979c81d0d5f28a32a296b08b8",
      "blockNumber": "0x21da9b1",
      "gasUsed": "0x14274",
      "effectiveGasPrice": "0x3a34d1",
      "from": "0x0ece75f3c36f7df2136dac7633165dbff53de3cd",
      "to": "0xb0fca55167f94d0f515877c411e0deb904321761",
      "contractAddress": null,
      "l1BaseFeeScalar": "0x8dd",
      "l1BlobBaseFee": "0x1",
      "l1BlobBaseFeeScalar": "0x101c12",
      "l1Fee": "0x3fb8c32c",
      "l1GasPrice": "0xcc9947f",
      "l1GasUsed": "0x894"
    },
    {
      "status": "0x1",
      "cumulativeGasUsed": "0x1f0bdd1",
      "logs": [
        {
          "address": "0x6a58615739b0fc710e6a380e893e672968e30b5f",
          "topics": [
            "0xbe4864a8e820971c0247f5992e2da559595f7bf076a21cb5928d443d2a13b674"
          ],
          "data": "0x00000000000000000000000000000000000000000000000000000000000000200000000000000000000000000000000000000000000000000000000000000002000000000000000000000000000000000000000000000000000000000000004000000000000000000000000000000000000000000000000000000000000000e000000000000000000000000000000000000000000000000000000000000075e8000000000000000000000000000000000000000000000000000000000000000100000000000000000000000000000000000000000000000000000000000000600000000000000000000000000000000000000000000000000000000000000016000301001101000000000000000000000000000138800000000000000000000000000000000000000000000000000000000000000000000000000000000075c6000000000000000000000000000000000000000000000000000000000000000100000000000000000000000000000000000000000000000000000000000000600000000000000000000000000000000000000000000000000000000000000016000301001101000000000000000000000000000186a000000000000000000000",
          "blockHash": "0x08798230fcd9c85dafc8e5268f58b0270dc2036979c81d0d5f28a32a296b08b8",
          "blockNumber": "0x21da9b1",
          "blockTimestamp": "0x68c5b045",
          "transactionHash": "0xc03dca85fb38e8cbd69fd1cb27f7eac145afa351a99f355ed3243918833a1575",
          "transactionIndex": "0xe6",
          "logIndex": "0x22d",
          "removed": false
        }
      ],
      "logsBloom": "0x00000000000000000000000000000000000000000000000000000000000000000000000000000000000000000000000000000000000000000000400000000000000000000000000000000000000000000000000000000000000000000000000000000000000000000000000000000000000000000000000000000000000000000000000000000000000000000000000020000000000000000000000000080000000000000000000000000000000000000000000000000000000000000000000000000000000000000000000002000000000000000000000000000000004000000000000000000000000000000000000000000000000000400000000000000000",
      "type": "0x2",
      "transactionHash": "0xc03dca85fb38e8cbd69fd1cb27f7eac145afa351a99f355ed3243918833a1575",
      "transactionIndex": "0xe6",
      "blockHash": "0x08798230fcd9c85dafc8e5268f58b0270dc2036979c81d0d5f28a32a296b08b8",
      "blockNumber": "0x21da9b1",
      "gasUsed": "0x14274",
      "effectiveGasPrice": "0x3a34d1",
      "from": "0x0ece75f3c36f7df2136dac7633165dbff53de3cd",
      "to": "0x6a58615739b0fc710e6a380e893e672968e30b5f",
      "contractAddress": null,
      "l1BaseFeeScalar": "0x8dd",
      "l1BlobBaseFee": "0x1",
      "l1BlobBaseFeeScalar": "0x101c12",
      "l1Fee": "0x3fb8c32c",
      "l1GasPrice": "0xcc9947f",
      "l1GasUsed": "0x894"
    }
  ],
  "libraries": [],
  "pending": [],
  "returns": {},
  "timestamp": 1757786180286,
  "chain": 8453,
  "commit": "e54a7ff"
}