{
  "transactions": [
    {
      "hash": "0x9a1510163550cb93405840a18c26685e61ca85b49d349b54e432abb9872cdd72",
      "transactionType": "CALL",
      "contractName": null,
      "contractAddress": "0x3a1353926e2c1ada7acc93a6fbe73c1ec6b1e931",
      "function": "setEnforcedOptions((uint32,uint16,bytes)[])",
      "arguments": [
        "[(30184, 1, 0x00030100110100000000000000000000000000013880), (30150, 1, 0x000301001101000000000000000000000000000186a0)]"
      ],
      "transaction": {
        "from": "0x0ece75f3c36f7df2136dac7633165dbff53de3cd",
        "to": "0x3a1353926e2c1ada7acc93a6fbe73c1ec6b1e931",
        "gas": "0x1d7b6",
        "value": "0x0",
        "input": "0xb98bd07000000000000000000000000000000000000000000000000000000000000000200000000000000000000000000000000000000000000000000000000000000002000000000000000000000000000000000000000000000000000000000000004000000000000000000000000000000000000000000000000000000000000000e000000000000000000000000000000000000000000000000000000000000075e8000000000000000000000000000000000000000000000000000000000000000100000000000000000000000000000000000000000000000000000000000000600000000000000000000000000000000000000000000000000000000000000016000301001101000000000000000000000000000138800000000000000000000000000000000000000000000000000000000000000000000000000000000075c6000000000000000000000000000000000000000000000000000000000000000100000000000000000000000000000000000000000000000000000000000000600000000000000000000000000000000000000000000000000000000000000016000301001101000000000000000000000000000186a000000000000000000000",
        "nonce": "0xd2",
        "chainId": "0x2105"
      },
      "additionalContracts": [],
      "isFixedGasLimit": false
    },
    {
      "hash": "0x12e4b45c5a6a4d204ed09d41c6e31789f9a86bb503fe5554e564e7deea521864",
      "transactionType": "CALL",
      "contractName": null,
      "contractAddress": "0xdc4ce404c1caa4b618847d93941d6cca09744e1e",
      "function": "setEnforcedOptions((uint32,uint16,bytes)[])",
      "arguments": [
        "[(30184, 1, 0x00030100110100000000000000000000000000013880), (30150, 1, 0x000301001101000000000000000000000000000186a0)]"
      ],
      "transaction": {
        "from": "0x0ece75f3c36f7df2136dac7633165dbff53de3cd",
        "to": "0xdc4ce404c1caa4b618847d93941d6cca09744e1e",
        "gas": "0x1d7b6",
        "value": "0x0",
        "input": "0xb98bd07000000000000000000000000000000000000000000000000000000000000000200000000000000000000000000000000000000000000000000000000000000002000000000000000000000000000000000000000000000000000000000000004000000000000000000000000000000000000000000000000000000000000000e000000000000000000000000000000000000000000000000000000000000075e8000000000000000000000000000000000000000000000000000000000000000100000000000000000000000000000000000000000000000000000000000000600000000000000000000000000000000000000000000000000000000000000016000301001101000000000000000000000000000138800000000000000000000000000000000000000000000000000000000000000000000000000000000075c6000000000000000000000000000000000000000000000000000000000000000100000000000000000000000000000000000000000000000000000000000000600000000000000000000000000000000000000000000000000000000000000016000301001101000000000000000000000000000186a000000000000000000000",
        "nonce": "0xd3",
        "chainId": "0x2105"
      },
      "additionalContracts": [],
      "isFixedGasLimit": false
    },
    {
      "hash": "0x8756b904905116b7e496b7dde5bd641a4095705b302ae9145541d5eb4f351356",
      "transactionType": "CALL",
      "contractName": null,
      "contractAddress": "0x249a1d049ce9c68c818eb5afc53359f547c176a4",
      "function": "setEnforcedOptions((uint32,uint16,bytes)[])",
      "arguments": [
        "[(30184, 1, 0x00030100110100000000000000000000000000013880), (30150, 1, 0x000301001101000000000000000000000000000186a0)]"
      ],
      "transaction": {
        "from": "0x0ece75f3c36f7df2136dac7633165dbff53de3cd",
        "to": "0x249a1d049ce9c68c818eb5afc53359f547c176a4",
        "gas": "0x1bd63",
        "value": "0x0",
        "input": "0xb98bd07000000000000000000000000000000000000000000000000000000000000000200000000000000000000000000000000000000000000000000000000000000002000000000000000000000000000000000000000000000000000000000000004000000000000000000000000000000000000000000000000000000000000000e000000000000000000000000000000000000000000000000000000000000075e8000000000000000000000000000000000000000000000000000000000000000100000000000000000000000000000000000000000000000000000000000000600000000000000000000000000000000000000000000000000000000000000016000301001101000000000000000000000000000138800000000000000000000000000000000000000000000000000000000000000000000000000000000075c6000000000000000000000000000000000000000000000000000000000000000100000000000000000000000000000000000000000000000000000000000000600000000000000000000000000000000000000000000000000000000000000016000301001101000000000000000000000000000186a000000000000000000000",
        "nonce": "0xd4",
        "chainId": "0x2105"
      },
      "additionalContracts": [],
      "isFixedGasLimit": false
    },
    {
      "hash": "0x65aaeb0afc94c653bc5e0f1960a934cfe991a4fabcb5721e8711a286ec56480b",
      "transactionType": "CALL",
      "contractName": null,
      "contractAddress": "0x2773280bbaea3c70afec358c1ba426d42d56fc7a",
      "function": "setEnforcedOptions((uint32,uint16,bytes)[])",
      "arguments": [
        "[(30184, 1, 0x00030100110100000000000000000000000000013880), (30150, 1, 0x000301001101000000000000000000000000000186a0)]"
      ],
      "transaction": {
        "from": "0x0ece75f3c36f7df2136dac7633165dbff53de3cd",
        "to": "0x2773280bbaea3c70afec358c1ba426d42d56fc7a",
        "gas": "0x1bd63",
        "value": "0x0",
        "input": "0xb98bd07000000000000000000000000000000000000000000000000000000000000000200000000000000000000000000000000000000000000000000000000000000002000000000000000000000000000000000000000000000000000000000000004000000000000000000000000000000000000000000000000000000000000000e000000000000000000000000000000000000000000000000000000000000075e8000000000000000000000000000000000000000000000000000000000000000100000000000000000000000000000000000000000000000000000000000000600000000000000000000000000000000000000000000000000000000000000016000301001101000000000000000000000000000138800000000000000000000000000000000000000000000000000000000000000000000000000000000075c6000000000000000000000000000000000000000000000000000000000000000100000000000000000000000000000000000000000000000000000000000000600000000000000000000000000000000000000000000000000000000000000016000301001101000000000000000000000000000186a000000000000000000000",
        "nonce": "0xd5",
        "chainId": "0x2105"
      },
      "additionalContracts": [],
      "isFixedGasLimit": false
    }
  ],
  "receipts": [
    {
      "status": "0x1",
      "cumulativeGasUsed": "0x2b8d98b",
      "logs": [
        {
          "address": "0x3a1353926e2c1ada7acc93a6fbe73c1ec6b1e931",
          "topics": [
            "0xbe4864a8e820971c0247f5992e2da559595f7bf076a21cb5928d443d2a13b674"
          ],
          "data": "0x00000000000000000000000000000000000000000000000000000000000000200000000000000000000000000000000000000000000000000000000000000002000000000000000000000000000000000000000000000000000000000000004000000000000000000000000000000000000000000000000000000000000000e000000000000000000000000000000000000000000000000000000000000075e8000000000000000000000000000000000000000000000000000000000000000100000000000000000000000000000000000000000000000000000000000000600000000000000000000000000000000000000000000000000000000000000016000301001101000000000000000000000000000138800000000000000000000000000000000000000000000000000000000000000000000000000000000075c6000000000000000000000000000000000000000000000000000000000000000100000000000000000000000000000000000000000000000000000000000000600000000000000000000000000000000000000000000000000000000000000016000301001101000000000000000000000000000186a000000000000000000000",
          "blockHash": "0x7515b9bfbf1f848ce43e02e69b48fb61f36317f01c53be9cb38f374d1bd35470",
          "blockNumber": "0x220b168",
          "blockTimestamp": "0x68cbbfb3",
          "transactionHash": "0x9a1510163550cb93405840a18c26685e61ca85b49d349b54e432abb9872cdd72",
          "transactionIndex": "0xfb",
          "logIndex": "0x45d",
          "removed": false
        }
      ],
      "logsBloom": "0x00000000000000000000000000000000000000000000000000000000000000000000000000000000000000000000000000000000000000000000400000000000000000000000000000000000000000000000000000000000000000000000000000000000000000000000000000000000000000000000000000000000000000000000000000000000000000000000000000000000000000000000000002080000000000000000000000000000000000000000000000000000000000000001000000000000000000000000000002000000000000000000000000000000000000000000000000000000000000000001000000000000000000000000000000000000",
      "type": "0x2",
      "transactionHash": "0x9a1510163550cb93405840a18c26685e61ca85b49d349b54e432abb9872cdd72",
      "transactionIndex": "0xfb",
      "blockHash": "0x7515b9bfbf1f848ce43e02e69b48fb61f36317f01c53be9cb38f374d1bd35470",
      "blockNumber": "0x220b168",
      "gasUsed": "0x1428a",
      "effectiveGasPrice": "0x32bed6",
      "from": "0x0ece75f3c36f7df2136dac7633165dbff53de3cd",
      "to": "0x3a1353926e2c1ada7acc93a6fbe73c1ec6b1e931",
      "contractAddress": null,
      "l1BaseFeeScalar": "0x8dd",
      "l1BlobBaseFee": "0x1",
      "l1BlobBaseFeeScalar": "0x101c12",
      "l1Fee": "0x581251af",
      "l1GasPrice": "0x1191196e",
      "l1GasUsed": "0x8a1"
    },
    {
      "status": "0x1",
      "cumulativeGasUsed": "0x2ba1c15",
      "logs": [
        {
          "address": "0xdc4ce404c1caa4b618847d93941d6cca09744e1e",
          "topics": [
            "0xbe4864a8e820971c0247f5992e2da559595f7bf076a21cb5928d443d2a13b674"
          ],
          "data": "0x00000000000000000000000000000000000000000000000000000000000000200000000000000000000000000000000000000000000000000000000000000002000000000000000000000000000000000000000000000000000000000000004000000000000000000000000000000000000000000000000000000000000000e000000000000000000000000000000000000000000000000000000000000075e8000000000000000000000000000000000000000000000000000000000000000100000000000000000000000000000000000000000000000000000000000000600000000000000000000000000000000000000000000000000000000000000016000301001101000000000000000000000000000138800000000000000000000000000000000000000000000000000000000000000000000000000000000075c6000000000000000000000000000000000000000000000000000000000000000100000000000000000000000000000000000000000000000000000000000000600000000000000000000000000000000000000000000000000000000000000016000301001101000000000000000000000000000186a000000000000000000000",
          "blockHash": "0x7515b9bfbf1f848ce43e02e69b48fb61f36317f01c53be9cb38f374d1bd35470",
          "blockNumber": "0x220b168",
          "blockTimestamp": "0x68cbbfb3",
          "transactionHash": "0x12e4b45c5a6a4d204ed09d41c6e31789f9a86bb503fe5554e564e7deea521864",
          "transactionIndex": "0xfc",
          "logIndex": "0x45e",
          "removed": false
        }
      ],
      "logsBloom": "0x00000000000000000000000000000000000800000000000000000000000000000000000000000000000000000000000000000000000000000000400000000000000000000000000000000000000008000000000000008000000000000000000000000000000000000000000000000000000000000000000000000000000000000000000000000000000000000000000000000000000000000000000000080000000000000000000000000000000000000000000000000000000000000000000000000000000000000000000002000000000000000000000000000000000000000000000000000000000000000000000000000000000000000000000000000000",
      "type": "0x2",
      "transactionHash": "0x12e4b45c5a6a4d204ed09d41c6e31789f9a86bb503fe5554e564e7deea521864",
      "transactionIndex": "0xfc",
      "blockHash": "0x7515b9bfbf1f848ce43e02e69b48fb61f36317f01c53be9cb38f374d1bd35470",
      "blockNumber": "0x220b168",
      "gasUsed": "0x1428a",
      "effectiveGasPrice": "0x32bed6",
      "from": "0x0ece75f3c36f7df2136dac7633165dbff53de3cd",
      "to": "0xdc4ce404c1caa4b618847d93941d6cca09744e1e",
      "contractAddress": null,
      "l1BaseFeeScalar": "0x8dd",
      "l1BlobBaseFee": "0x1",
      "l1BlobBaseFeeScalar": "0x101c12",
      "l1Fee": "0x581251af",
      "l1GasPrice": "0x1191196e",
      "l1GasUsed": "0x8a1"
    },
    {
      "status": "0x1",
      "cumulativeGasUsed": "0x2bb5e89",
      "logs": [
        {
          "address": "0x249a1d049ce9c68c818eb5afc53359f547c176a4",
          "topics": [
            "0xbe4864a8e820971c0247f5992e2da559595f7bf076a21cb5928d443d2a13b674"
          ],
          "data": "0x00000000000000000000000000000000000000000000000000000000000000200000000000000000000000000000000000000000000000000000000000000002000000000000000000000000000000000000000000000000000000000000004000000000000000000000000000000000000000000000000000000000000000e000000000000000000000000000000000000000000000000000000000000075e8000000000000000000000000000000000000000000000000000000000000000100000000000000000000000000000000000000000000000000000000000000600000000000000000000000000000000000000000000000000000000000000016000301001101000000000000000000000000000138800000000000000000000000000000000000000000000000000000000000000000000000000000000075c6000000000000000000000000000000000000000000000000000000000000000100000000000000000000000000000000000000000000000000000000000000600000000000000000000000000000000000000000000000000000000000000016000301001101000000000000000000000000000186a000000000000000000000",
          "blockHash": "0x7515b9bfbf1f848ce43e02e69b48fb61f36317f01c53be9cb38f374d1bd35470",
          "blockNumber": "0x220b168",
          "blockTimestamp": "0x68cbbfb3",
          "transactionHash": "0x8756b904905116b7e496b7dde5bd641a4095705b302ae9145541d5eb4f351356",
          "transactionIndex": "0xfd",
          "logIndex": "0x45f",
          "removed": false
        }
      ],
      "logsBloom": "0x00000000000000000000000000000000000000000000000000020000000000000000000000000000000000000000000000000000000000000008400000000000000000000000000000000000000000000000000000000000000000000000000000000000000000000000000000000000000000000000000000000000000000000000000000000000000000000000000000000000000000000000000000080000000000000000000000000000000000000000000000001000000000000000000000000000000000000000000002000000000000000000000000000000000000000000000000000000000000000000000000000000000000000000000000000000",
      "type": "0x2",
      "transactionHash": "0x8756b904905116b7e496b7dde5bd641a4095705b302ae9145541d5eb4f351356",
      "transactionIndex": "0xfd",
      "blockHash": "0x7515b9bfbf1f848ce43e02e69b48fb61f36317f01c53be9cb38f374d1bd35470",
      "blockNumber": "0x220b168",
      "gasUsed": "0x14274",
      "effectiveGasPrice": "0x32bed6",
      "from": "0x0ece75f3c36f7df2136dac7633165dbff53de3cd",
      "to": "0x249a1d049ce9c68c818eb5afc53359f547c176a4",
      "contractAddress": null,
      "l1BaseFeeScalar": "0x8dd",
      "l1BlobBaseFee": "0x1",
      "l1BlobBaseFeeScalar": "0x101c12",
      "l1Fee": "0x581251af",
      "l1GasPrice": "0x1191196e",
      "l1GasUsed": "0x8a1"
    },
    {
      "status": "0x1",
      "cumulativeGasUsed": "0x2bca0fd",
      "logs": [
        {
          "address": "0x2773280bbaea3c70afec358c1ba426d42d56fc7a",
          "topics": [
            "0xbe4864a8e820971c0247f5992e2da559595f7bf076a21cb5928d443d2a13b674"
          ],
          "data": "0x00000000000000000000000000000000000000000000000000000000000000200000000000000000000000000000000000000000000000000000000000000002000000000000000000000000000000000000000000000000000000000000004000000000000000000000000000000000000000000000000000000000000000e000000000000000000000000000000000000000000000000000000000000075e8000000000000000000000000000000000000000000000000000000000000000100000000000000000000000000000000000000000000000000000000000000600000000000000000000000000000000000000000000000000000000000000016000301001101000000000000000000000000000138800000000000000000000000000000000000000000000000000000000000000000000000000000000075c6000000000000000000000000000000000000000000000000000000000000000100000000000000000000000000000000000000000000000000000000000000600000000000000000000000000000000000000000000000000000000000000016000301001101000000000000000000000000000186a000000000000000000000",
          "blockHash": "0x7515b9bfbf1f848ce43e02e69b48fb61f36317f01c53be9cb38f374d1bd35470",
          "blockNumber": "0x220b168",
          "blockTimestamp": "0x68cbbfb3",
          "transactionHash": "0x65aaeb0afc94c653bc5e0f1960a934cfe991a4fabcb5721e8711a286ec56480b",
          "transactionIndex": "0xfe",
          "logIndex": "0x460",
          "removed": false
        }
      ],
      "logsBloom": "0x00000000000000800000000000000000000000000000000000000000000000000000000000000000000000000000000000000000080000000000400000000000000000000000000000000000000000000000000000000000000000000000000000000000000000000000000000000000000000000000000000000000000000000000000000000000000000000000000000000000000000000000000000080000000000004000000000000000000000000000000000000000000000000000000000000000000000000000000002000000000000000000000000000000000000000000000000000000000000000000000000000000000000000000000000000000",
      "type": "0x2",
      "transactionHash": "0x65aaeb0afc94c653bc5e0f1960a934cfe991a4fabcb5721e8711a286ec56480b",
      "transactionIndex": "0xfe",
      "blockHash": "0x7515b9bfbf1f848ce43e02e69b48fb61f36317f01c53be9cb38f374d1bd35470",
      "blockNumber": "0x220b168",
      "gasUsed": "0x14274",
      "effectiveGasPrice": "0x32bed6",
      "from": "0x0ece75f3c36f7df2136dac7633165dbff53de3cd",
      "to": "0x2773280bbaea3c70afec358c1ba426d42d56fc7a",
      "contractAddress": null,
      "l1BaseFeeScalar": "0x8dd",
      "l1BlobBaseFee": "0x1",
      "l1BlobBaseFeeScalar": "0x101c12",
      "l1Fee": "0x581251af",
      "l1GasPrice": "0x1191196e",
      "l1GasUsed": "0x8a1"
    }
  ],
  "libraries": [],
  "pending": [],
  "returns": {},
  "timestamp": 1758183347248,
  "chain": 8453,
  "commit": "6c82bda"
}