{
  "transactions": [
    {
      "hash": "0xd17c8e8314d3d9e8d0d68269772adcab8581f6d20d5e1a0a7042b59646e1aafe",
      "transactionType": "CALL",
      "contractName": null,
      "contractAddress": "0x1a44076050125825900e736c501f859c50fe728c",
      "function": "setSendLibrary(address,uint32,address)",
      "arguments": [
        "0x374427909212B29fcC3Ffe8e7920a190a3031CB8",
        "30184",
        "0xB5320B0B3a13cC860893E2Bd79FCd7e13484Dda2"
      ],
      "transaction": {
        "from": "0x0ece75f3c36f7df2136dac7633165dbff53de3cd",
        "to": "0x1a44076050125825900e736c501f859c50fe728c",
        "gas": "0x1378b",
        "value": "0x0",
        "input": "0x9535ff30000000000000000000000000374427909212b29fcc3ffe8e7920a190a3031cb800000000000000000000000000000000000000000000000000000000000075e8000000000000000000000000b5320b0b3a13cc860893e2bd79fcd7e13484dda2",
        "nonce": "0x143",
        "chainId": "0x2105"
      },
      "additionalContracts": [],
      "isFixedGasLimit": false
    },
    {
      "hash": "0xada0070e5c4b3673c8f2db3a49da59beece8c092d21238348573dadd194cc10f",
      "transactionType": "CALL",
      "contractName": null,
      "contractAddress": "0x1a44076050125825900e736c501f859c50fe728c",
      "function": "setSendLibrary(address,uint32,address)",
      "arguments": [
        "0x374427909212B29fcC3Ffe8e7920a190a3031CB8",
        "30150",
        "0xB5320B0B3a13cC860893E2Bd79FCd7e13484Dda2"
      ],
      "transaction": {
        "from": "0x0ece75f3c36f7df2136dac7633165dbff53de3cd",
        "to": "0x1a44076050125825900e736c501f859c50fe728c",
        "gas": "0x1378b",
        "value": "0x0",
        "input": "0x9535ff30000000000000000000000000374427909212b29fcc3ffe8e7920a190a3031cb800000000000000000000000000000000000000000000000000000000000075c6000000000000000000000000b5320b0b3a13cc860893e2bd79fcd7e13484dda2",
        "nonce": "0x144",
        "chainId": "0x2105"
      },
      "additionalContracts": [],
      "isFixedGasLimit": false
    },
    {
      "hash": "0x7dafdd67a9626771763d305a4ee132694ef8b06cc0dbcdb588232d0baab8d6cf",
      "transactionType": "CALL",
      "contractName": null,
      "contractAddress": "0x1a44076050125825900e736c501f859c50fe728c",
      "function": "setReceiveLibrary(address,uint32,address,uint256)",
      "arguments": [
        "0x374427909212B29fcC3Ffe8e7920a190a3031CB8",
        "30184",
        "0xc70AB6f32772f59fBfc23889Caf4Ba3376C84bAf",
        "0"
      ],
      "transaction": {
        "from": "0x0ece75f3c36f7df2136dac7633165dbff53de3cd",
        "to": "0x1a44076050125825900e736c501f859c50fe728c",
        "gas": "0x17001",
        "value": "0x0",
        "input": "0x6a14d715000000000000000000000000374427909212b29fcc3ffe8e7920a190a3031cb800000000000000000000000000000000000000000000000000000000000075e8000000000000000000000000c70ab6f32772f59fbfc23889caf4ba3376c84baf0000000000000000000000000000000000000000000000000000000000000000",
        "nonce": "0x145",
        "chainId": "0x2105"
      },
      "additionalContracts": [],
      "isFixedGasLimit": false
    },
    {
      "hash": "0x0dfafd10edb4c7cf9457abdcbde8a9edf2a845505bf35d6864cd7432d160ce6a",
      "transactionType": "CALL",
      "contractName": null,
      "contractAddress": "0x1a44076050125825900e736c501f859c50fe728c",
      "function": "setConfig(address,address,(uint32,uint32,bytes)[])",
      "arguments": [
        "0x374427909212B29fcC3Ffe8e7920a190a3031CB8",
        "0xB5320B0B3a13cC860893E2Bd79FCd7e13484Dda2",
        "[(30184, 1, 0x00000000000000000000000000000000000000000000000000000000000027100000000000000000000000002cca08ae69e0c44b18a57ab2a87644234daebae4), (30184, 2, 0x0000000000000000000000000000000000000000000000000000000000000020000000000000000000000000000000000000000000000000000000000000000f000000000000000000000000000000000000000000000000000000000000000200000000000000000000000000000000000000000000000000000000000000ff000000000000000000000000000000000000000000000000000000000000000000000000000000000000000000000000000000000000000000000000000000c000000000000000000000000000000000000000000000000000000000000001200000000000000000000000000000000000000000000000000000000000000002000000000000000000000000554833698ae0fb22ecc90b01222903fd62ca4b47000000000000000000000000a7b5189bca84cd304d8553977c7c614329750d990000000000000000000000000000000000000000000000000000000000000000), (30150, 1, 0x00000000000000000000000000000000000000000000000000000000000027100000000000000000000000002cca08ae69e0c44b18a57ab2a87644234daebae4), (30150, 2, 0x0000000000000000000000000000000000000000000000000000000000000020000000000000000000000000000000000000000000000000000000000000000f000000000000000000000000000000000000000000000000000000000000000200000000000000000000000000000000000000000000000000000000000000ff000000000000000000000000000000000000000000000000000000000000000000000000000000000000000000000000000000000000000000000000000000c000000000000000000000000000000000000000000000000000000000000001200000000000000000000000000000000000000000000000000000000000000002000000000000000000000000554833698ae0fb22ecc90b01222903fd62ca4b47000000000000000000000000a7b5189bca84cd304d8553977c7c614329750d990000000000000000000000000000000000000000000000000000000000000000)]"
      ],
      "transaction": {
        "from": "0x0ece75f3c36f7df2136dac7633165dbff53de3cd",
        "to": "0x1a44076050125825900e736c501f859c50fe728c",
        "gas": "0x6607c",
        "value": "0x0",
        "input": "0x6dbd9f90000000000000000000000000374427909212b29fcc3ffe8e7920a190a3031cb8000000000000000000000000b5320b0b3a13cc860893e2bd79fcd7e13484dda20000000000000000000000000000000000000000000000000000000000000060000000000000000000000000000000000000000000000000000000000000000400000000000000000000000000000000000000000000000000000000000000800000000000000000000000000000000000000000000000000000000000000140000000000000000000000000000000000000000000000000000000000000032000000000000000000000000000000000000000000000000000000000000003e000000000000000000000000000000000000000000000000000000000000075e800000000000000000000000000000000000000000000000000000000000000010000000000000000000000000000000000000000000000000000000000000060000000000000000000000000000000000000000000000000000000000000004000000000000000000000000000000000000000000000000000000000000027100000000000000000000000002cca08ae69e0c44b18a57ab2a87644234daebae400000000000000000000000000000000000000000000000000000000000075e80000000000000000000000000000000000000000000000000000000000000002000000000000000000000000000000000000000000000000000000000000006000000000000000000000000000000000000000000000000000000000000001600000000000000000000000000000000000000000000000000000000000000020000000000000000000000000000000000000000000000000000000000000000f000000000000000000000000000000000000000000000000000000000000000200000000000000000000000000000000000000000000000000000000000000ff000000000000000000000000000000000000000000000000000000000000000000000000000000000000000000000000000000000000000000000000000000c000000000000000000000000000000000000000000000000000000000000001200000000000000000000000000000000000000000000000000000000000000002000000000000000000000000554833698ae0fb22ecc90b01222903fd62ca4b47000000000000000000000000a7b5189bca84cd304d8553977c7c614329750d99000000000000000000000000000000000000000000000000000000000000000000000000000000000000000000000000000000000000000000000000000075c600000000000000000000000000000000000000000000000000000000000000010000000000000000000000000000000000000000000000000000000000000060000000000000000000000000000000000000000000000000000000000000004000000000000000000000000000000000000000000000000000000000000027100000000000000000000000002cca08ae69e0c44b18a57ab2a87644234daebae400000000000000000000000000000000000000000000000000000000000075c60000000000000000000000000000000000000000000000000000000000000002000000000000000000000000000000000000000000000000000000000000006000000000000000000000000000000000000000000000000000000000000001600000000000000000000000000000000000000000000000000000000000000020000000000000000000000000000000000000000000000000000000000000000f000000000000000000000000000000000000000000000000000000000000000200000000000000000000000000000000000000000000000000000000000000ff000000000000000000000000000000000000000000000000000000000000000000000000000000000000000000000000000000000000000000000000000000c000000000000000000000000000000000000000000000000000000000000001200000000000000000000000000000000000000000000000000000000000000002000000000000000000000000554833698ae0fb22ecc90b01222903fd62ca4b47000000000000000000000000a7b5189bca84cd304d8553977c7c614329750d990000000000000000000000000000000000000000000000000000000000000000",
        "nonce": "0x146",
        "chainId": "0x2105"
      },
      "additionalContracts": [],
      "isFixedGasLimit": false
    },
    {
      "hash": "0xea13f0d2b1e44e16f76ff989db91333671676d0744768f82289f68afc52e5b59",
      "transactionType": "CALL",
      "contractName": null,
      "contractAddress": "0x1a44076050125825900e736c501f859c50fe728c",
      "function": "setConfig(address,address,(uint32,uint32,bytes)[])",
      "arguments": [
        "0x374427909212B29fcC3Ffe8e7920a190a3031CB8",
        "0xc70AB6f32772f59fBfc23889Caf4Ba3376C84bAf",
        "[(30184, 2, 0x0000000000000000000000000000000000000000000000000000000000000020000000000000000000000000000000000000000000000000000000000000000f000000000000000000000000000000000000000000000000000000000000000200000000000000000000000000000000000000000000000000000000000000ff000000000000000000000000000000000000000000000000000000000000000000000000000000000000000000000000000000000000000000000000000000c000000000000000000000000000000000000000000000000000000000000001200000000000000000000000000000000000000000000000000000000000000002000000000000000000000000554833698ae0fb22ecc90b01222903fd62ca4b47000000000000000000000000a7b5189bca84cd304d8553977c7c614329750d990000000000000000000000000000000000000000000000000000000000000000), (30150, 2, 0x0000000000000000000000000000000000000000000000000000000000000020000000000000000000000000000000000000000000000000000000000000000f000000000000000000000000000000000000000000000000000000000000000200000000000000000000000000000000000000000000000000000000000000ff000000000000000000000000000000000000000000000000000000000000000000000000000000000000000000000000000000000000000000000000000000c000000000000000000000000000000000000000000000000000000000000001200000000000000000000000000000000000000000000000000000000000000002000000000000000000000000554833698ae0fb22ecc90b01222903fd62ca4b47000000000000000000000000a7b5189bca84cd304d8553977c7c614329750d990000000000000000000000000000000000000000000000000000000000000000)]"
      ],
      "transaction": {
        "from": "0x0ece75f3c36f7df2136dac7633165dbff53de3cd",
        "to": "0x1a44076050125825900e736c501f859c50fe728c",
        "gas": "0x5818a",
        "value": "0x0",
        "input": "0x6dbd9f90000000000000000000000000374427909212b29fcc3ffe8e7920a190a3031cb8000000000000000000000000c70ab6f32772f59fbfc23889caf4ba3376c84baf000000000000000000000000000000000000000000000000000000000000006000000000000000000000000000000000000000000000000000000000000000020000000000000000000000000000000000000000000000000000000000000040000000000000000000000000000000000000000000000000000000000000022000000000000000000000000000000000000000000000000000000000000075e80000000000000000000000000000000000000000000000000000000000000002000000000000000000000000000000000000000000000000000000000000006000000000000000000000000000000000000000000000000000000000000001600000000000000000000000000000000000000000000000000000000000000020000000000000000000000000000000000000000000000000000000000000000f000000000000000000000000000000000000000000000000000000000000000200000000000000000000000000000000000000000000000000000000000000ff000000000000000000000000000000000000000000000000000000000000000000000000000000000000000000000000000000000000000000000000000000c000000000000000000000000000000000000000000000000000000000000001200000000000000000000000000000000000000000000000000000000000000002000000000000000000000000554833698ae0fb22ecc90b01222903fd62ca4b47000000000000000000000000a7b5189bca84cd304d8553977c7c614329750d99000000000000000000000000000000000000000000000000000000000000000000000000000000000000000000000000000000000000000000000000000075c60000000000000000000000000000000000000000000000000000000000000002000000000000000000000000000000000000000000000000000000000000006000000000000000000000000000000000000000000000000000000000000001600000000000000000000000000000000000000000000000000000000000000020000000000000000000000000000000000000000000000000000000000000000f000000000000000000000000000000000000000000000000000000000000000200000000000000000000000000000000000000000000000000000000000000ff000000000000000000000000000000000000000000000000000000000000000000000000000000000000000000000000000000000000000000000000000000c000000000000000000000000000000000000000000000000000000000000001200000000000000000000000000000000000000000000000000000000000000002000000000000000000000000554833698ae0fb22ecc90b01222903fd62ca4b47000000000000000000000000a7b5189bca84cd304d8553977c7c614329750d990000000000000000000000000000000000000000000000000000000000000000",
        "nonce": "0x147",
        "chainId": "0x2105"
      },
      "additionalContracts": [],
      "isFixedGasLimit": false
    },
    {
      "hash": "0xc2222a3249e1dd7a3cf78cf69075d620b5d5596b74c0561bb2a41b1bb169204c",
      "transactionType": "CALL",
      "contractName": null,
      "contractAddress": "0x374427909212b29fcc3ffe8e7920a190a3031cb8",
      "function": "setPeer(uint32,bytes32)",
      "arguments": [
        "30150",
        "0x000000000000000000000000f8af5114ad19422e059797ca2515febd8bc06bd1"
      ],
      "transaction": {
        "from": "0x0ece75f3c36f7df2136dac7633165dbff53de3cd",
        "to": "0x374427909212b29fcc3ffe8e7920a190a3031cb8",
        "gas": "0x104a6",
        "value": "0x0",
        "input": "0x3400288b00000000000000000000000000000000000000000000000000000000000075c6000000000000000000000000f8af5114ad19422e059797ca2515febd8bc06bd1",
        "nonce": "0x148",
        "chainId": "0x2105"
      },
      "additionalContracts": [],
      "isFixedGasLimit": false
    },
    {
      "hash": "0x9ff762ca323ed10c8aa6c592f890ab1a0143af24107357c45f96b10e9cb54036",
      "transactionType": "CALL",
      "contractName": null,
      "contractAddress": "0x374427909212b29fcc3ffe8e7920a190a3031cb8",
      "function": "setPeer(uint32,bytes32)",
      "arguments": [
        "30184",
        "0x000000000000000000000000374427909212b29fcc3ffe8e7920a190a3031cb8"
      ],
      "transaction": {
        "from": "0x0ece75f3c36f7df2136dac7633165dbff53de3cd",
        "to": "0x374427909212b29fcc3ffe8e7920a190a3031cb8",
        "gas": "0x104a6",
        "value": "0x0",
        "input": "0x3400288b00000000000000000000000000000000000000000000000000000000000075e8000000000000000000000000374427909212b29fcc3ffe8e7920a190a3031cb8",
        "nonce": "0x149",
        "chainId": "0x2105"
      },
      "additionalContracts": [],
      "isFixedGasLimit": false
    },
    {
      "hash": "0x9dda4cd4a80b25779be21a2876a489ab5d89b39c22a0fa911c14d13b8778f5ff",
      "transactionType": "CALL",
      "contractName": null,
      "contractAddress": "0x374427909212b29fcc3ffe8e7920a190a3031cb8",
      "function": "setEnforcedOptions((uint32,uint16,bytes)[])",
      "arguments": [
        "[(30184, 1, 0x00030100110100000000000000000000000000013880), (30150, 1, 0x000301001101000000000000000000000000000186a0)]"
      ],
      "transaction": {
        "from": "0x0ece75f3c36f7df2136dac7633165dbff53de3cd",
        "to": "0x374427909212b29fcc3ffe8e7920a190a3031cb8",
        "gas": "0x1bd63",
        "value": "0x0",
        "input": "0xb98bd07000000000000000000000000000000000000000000000000000000000000000200000000000000000000000000000000000000000000000000000000000000002000000000000000000000000000000000000000000000000000000000000004000000000000000000000000000000000000000000000000000000000000000e000000000000000000000000000000000000000000000000000000000000075e8000000000000000000000000000000000000000000000000000000000000000100000000000000000000000000000000000000000000000000000000000000600000000000000000000000000000000000000000000000000000000000000016000301001101000000000000000000000000000138800000000000000000000000000000000000000000000000000000000000000000000000000000000075c6000000000000000000000000000000000000000000000000000000000000000100000000000000000000000000000000000000000000000000000000000000600000000000000000000000000000000000000000000000000000000000000016000301001101000000000000000000000000000186a000000000000000000000",
        "nonce": "0x14a",
        "chainId": "0x2105"
      },
      "additionalContracts": [],
      "isFixedGasLimit": false
    },
    {
      "hash": "0x7e0fd7d37ef6ff15e1381d18bf46d4a0d9ac3ae7f19a5a75b0ceb1afdf03550e",
      "transactionType": "CALL",
      "contractName": null,
      "contractAddress": "0x374427909212b29fcc3ffe8e7920a190a3031cb8",
      "function": "setOFTaddress(address)",
      "arguments": [
        "0xAd063B1915Bf95fB32f79138c0B668F232676333"
      ],
      "transaction": {
        "from": "0x0ece75f3c36f7df2136dac7633165dbff53de3cd",
        "to": "0x374427909212b29fcc3ffe8e7920a190a3031cb8",
        "gas": "0xfa15",
        "value": "0x0",
        "input": "0xea89900e000000000000000000000000ad063b1915bf95fb32f79138c0b668f232676333",
        "nonce": "0x14b",
        "chainId": "0x2105"
      },
      "additionalContracts": [],
      "isFixedGasLimit": false
    }
  ],
  "receipts": [
    {
      "status": "0x1",
      "cumulativeGasUsed": "0xac0768",
      "logs": [
        {
          "address": "0x1a44076050125825900e736c501f859c50fe728c",
          "topics": [
            "0x4cff966ebee29a156dcb34cf72c1d06231fb1777f6bdf6e8089819232f002b1c"
          ],
          "data": "0x000000000000000000000000374427909212b29fcc3ffe8e7920a190a3031cb800000000000000000000000000000000000000000000000000000000000075e8000000000000000000000000b5320b0b3a13cc860893e2bd79fcd7e13484dda2",
          "blockHash": "0x5fb1ad680a79754c71a299d64a6e5e9f1eb01e2a49e2e2b8875f0cbe4d20e478",
          "blockNumber": "0x22171b8",
          "blockTimestamp": "0x68cd4053",
          "transactionHash": "0xd17c8e8314d3d9e8d0d68269772adcab8581f6d20d5e1a0a7042b59646e1aafe",
          "transactionIndex": "0x47",
          "logIndex": "0xb4",
          "removed": false
        }
      ],
      "logsBloom": "0x00000000000000000000000000000000000200000000000000000000001000000000000000000000000000000000000000000000000000000000000001000000000000000000000000000000000000000000000000000000000000000000000000000000000000000000000000000000000000000010000000000000000000000000000000000000000000000000000000000000000000000000000000000000000000000000000000000000000000000000000000000000000000000000000000000000000000000000000000000000000000000000000000000000000000000040000000000000000000000000000000000000010000000000000000000000",
      "type": "0x2",
      "transactionHash": "0xd17c8e8314d3d9e8d0d68269772adcab8581f6d20d5e1a0a7042b59646e1aafe",
      "transactionIndex": "0x47",
      "blockHash": "0x5fb1ad680a79754c71a299d64a6e5e9f1eb01e2a49e2e2b8875f0cbe4d20e478",
      "blockNumber": "0x22171b8",
      "gasUsed": "0xe18e",
      "effectiveGasPrice": "0x477bbe",
      "from": "0x0ece75f3c36f7df2136dac7633165dbff53de3cd",
      "to": "0x1a44076050125825900e736c501f859c50fe728c",
      "contractAddress": null,
      "l1BaseFeeScalar": "0x8dd",
      "l1BlobBaseFee": "0x1",
      "l1BlobBaseFeeScalar": "0x101c12",
      "l1Fee": "0x4e2dae9c",
      "l1GasPrice": "0x14190a6d",
      "l1GasUsed": "0x6b2"
    },
    {
      "status": "0x1",
      "cumulativeGasUsed": "0xace8f6",
      "logs": [
        {
          "address": "0x1a44076050125825900e736c501f859c50fe728c",
          "topics": [
            "0x4cff966ebee29a156dcb34cf72c1d06231fb1777f6bdf6e8089819232f002b1c"
          ],
          "data": "0x000000000000000000000000374427909212b29fcc3ffe8e7920a190a3031cb800000000000000000000000000000000000000000000000000000000000075c6000000000000000000000000b5320b0b3a13cc860893e2bd79fcd7e13484dda2",
          "blockHash": "0x6ae4aeda301c9112f2990cff1c9cb1358da2764224a69869489d63f572f0490a",
          "blockNumber": "0x22171b8",
          "blockTimestamp": "0x68cd4053",
          "transactionHash": "0xada0070e5c4b3673c8f2db3a49da59beece8c092d21238348573dadd194cc10f",
          "transactionIndex": "0x48",
          "logIndex": "0xb5",
          "removed": false
        }
      ],
      "logsBloom": "0x00000000000000000000000000000000000200000000000000000000001000000000000000000000000000000000000000000000000000000000000001000000000000000000000000000000000000000000000000000000000000000000000000000000000000000000000000000000000000000010000000000000000000000000000000000000000000000000000000000000000000000000000000000000000000000000000000000000000000000000000000000000000000000000000000000000000000000000000000000000000000000000000000000000000000000040000000000000000000000000000000000000010000000000000000000000",
      "type": "0x2",
      "transactionHash": "0xada0070e5c4b3673c8f2db3a49da59beece8c092d21238348573dadd194cc10f",
      "transactionIndex": "0x48",
      "blockHash": "0x6ae4aeda301c9112f2990cff1c9cb1358da2764224a69869489d63f572f0490a",
      "blockNumber": "0x22171b8",
      "gasUsed": "0xe18e",
      "effectiveGasPrice": "0x477bbe",
      "from": "0x0ece75f3c36f7df2136dac7633165dbff53de3cd",
      "to": "0x1a44076050125825900e736c501f859c50fe728c",
      "contractAddress": null,
      "l1BaseFeeScalar": "0x8dd",
      "l1BlobBaseFee": "0x1",
      "l1BlobBaseFeeScalar": "0x101c12",
      "l1Fee": "0x4e2dae9c",
      "l1GasPrice": "0x14190a6d",
      "l1GasUsed": "0x6b2"
    },
    {
      "status": "0x1",
      "cumulativeGasUsed": "0xade497",
      "logs": [
        {
          "address": "0x1a44076050125825900e736c501f859c50fe728c",
          "topics": [
            "0xcd6f92f5ac6185a5acfa02c92090746cec64d777269cbcd0ed031e396657a1c2"
          ],
          "data": "0x000000000000000000000000374427909212b29fcc3ffe8e7920a190a3031cb800000000000000000000000000000000000000000000000000000000000075e8000000000000000000000000c70ab6f32772f59fbfc23889caf4ba3376c84baf",
          "blockHash": "0x6ae4aeda301c9112f2990cff1c9cb1358da2764224a69869489d63f572f0490a",
          "blockNumber": "0x22171b8",
          "blockTimestamp": "0x68cd4053",
          "transactionHash": "0x7dafdd67a9626771763d305a4ee132694ef8b06cc0dbcdb588232d0baab8d6cf",
          "transactionIndex": "0x49",
          "logIndex": "0xb6",
          "removed": false
        },
        {
          "address": "0x1a44076050125825900e736c501f859c50fe728c",
          "topics": [
            "0x4e0a5bbfa0c11a64effb1ada324b5437a17272e1aed9320398715ef71bb20928"
          ],
          "data": "0x000000000000000000000000374427909212b29fcc3ffe8e7920a190a3031cb800000000000000000000000000000000000000000000000000000000000075e800000000000000000000000000000000000000000000000000000000000000000000000000000000000000000000000000000000000000000000000000000000",
          "blockHash": "0x6ae4aeda301c9112f2990cff1c9cb1358da2764224a69869489d63f572f0490a",
          "blockNumber": "0x22171b8",
          "blockTimestamp": "0x68cd4053",
          "transactionHash": "0x7dafdd67a9626771763d305a4ee132694ef8b06cc0dbcdb588232d0baab8d6cf",
          "transactionIndex": "0x49",
          "logIndex": "0xb7",
          "removed": false
        }
      ],
      "logsBloom": "0x00000000000000000000020800000000000000000000000000000000001000020400000000000000000000000000000000000000000000000000000000000000000000000000000000000000000000000000000000800000000000000000000000000000000000000000000000000000000000000010000000000000000000100000000000000000000000000000000000000000000000000000000000000000000000000000000000000000000000000000000000000000000000000000000000000000000000000000000000000000000000000000000000000000000000000000000000000000000000000000000000000000010000000000000000000000",
      "type": "0x2",
      "transactionHash": "0x7dafdd67a9626771763d305a4ee132694ef8b06cc0dbcdb588232d0baab8d6cf",
      "transactionIndex": "0x49",
      "blockHash": "0x6ae4aeda301c9112f2990cff1c9cb1358da2764224a69869489d63f572f0490a",
      "blockNumber": "0x22171b8",
      "gasUsed": "0xfba1",
      "effectiveGasPrice": "0x477bbe",
      "from": "0x0ece75f3c36f7df2136dac7633165dbff53de3cd",
      "to": "0x1a44076050125825900e736c501f859c50fe728c",
      "contractAddress": null,
      "l1BaseFeeScalar": "0x8dd",
      "l1BlobBaseFee": "0x1",
      "l1BlobBaseFeeScalar": "0x101c12",
      "l1Fee": "0x527367ae",
      "l1GasPrice": "0x14190a6d",
      "l1GasUsed": "0x710"
    },
    {
      "status": "0x1",
      "cumulativeGasUsed": "0xb2827b",
      "logs": [
        {
          "address": "0xb5320b0b3a13cc860893e2bd79fcd7e13484dda2",
          "topics": [
            "0x779cb2dd9d2bb1be1737d05435d744facbfb84a2a4912e21379d39beddcdc805"
          ],
          "data": "0x000000000000000000000000374427909212b29fcc3ffe8e7920a190a3031cb800000000000000000000000000000000000000000000000000000000000075e800000000000000000000000000000000000000000000000000000000000027100000000000000000000000002cca08ae69e0c44b18a57ab2a87644234daebae4",
          "blockHash": "0x6ae4aeda301c9112f2990cff1c9cb1358da2764224a69869489d63f572f0490a",
          "blockNumber": "0x22171b8",
          "blockTimestamp": "0x68cd4053",
          "transactionHash": "0x0dfafd10edb4c7cf9457abdcbde8a9edf2a845505bf35d6864cd7432d160ce6a",
          "transactionIndex": "0x4a",
          "logIndex": "0xb8",
          "removed": false
        },
        {
          "address": "0xb5320b0b3a13cc860893e2bd79fcd7e13484dda2",
          "topics": [
            "0x82118522aa536ac0e96cc5c689407ae42b89d592aa133890a01f1509842f5081"
          ],
          "data": "0x000000000000000000000000374427909212b29fcc3ffe8e7920a190a3031cb800000000000000000000000000000000000000000000000000000000000075e80000000000000000000000000000000000000000000000000000000000000060000000000000000000000000000000000000000000000000000000000000000f000000000000000000000000000000000000000000000000000000000000000200000000000000000000000000000000000000000000000000000000000000ff000000000000000000000000000000000000000000000000000000000000000000000000000000000000000000000000000000000000000000000000000000c000000000000000000000000000000000000000000000000000000000000001200000000000000000000000000000000000000000000000000000000000000002000000000000000000000000554833698ae0fb22ecc90b01222903fd62ca4b47000000000000000000000000a7b5189bca84cd304d8553977c7c614329750d990000000000000000000000000000000000000000000000000000000000000000",
          "blockHash": "0x6ae4aeda301c9112f2990cff1c9cb1358da2764224a69869489d63f572f0490a",
          "blockNumber": "0x22171b8",
          "blockTimestamp": "0x68cd4053",
          "transactionHash": "0x0dfafd10edb4c7cf9457abdcbde8a9edf2a845505bf35d6864cd7432d160ce6a",
          "transactionIndex": "0x4a",
          "logIndex": "0xb9",
          "removed": false
        },
        {
          "address": "0xb5320b0b3a13cc860893e2bd79fcd7e13484dda2",
          "topics": [
            "0x779cb2dd9d2bb1be1737d05435d744facbfb84a2a4912e21379d39beddcdc805"
          ],
          "data": "0x000000000000000000000000374427909212b29fcc3ffe8e7920a190a3031cb800000000000000000000000000000000000000000000000000000000000075c600000000000000000000000000000000000000000000000000000000000027100000000000000000000000002cca08ae69e0c44b18a57ab2a87644234daebae4",
          "blockHash": "0x6ae4aeda301c9112f2990cff1c9cb1358da2764224a69869489d63f572f0490a",
          "blockNumber": "0x22171b8",
          "blockTimestamp": "0x68cd4053",
          "transactionHash": "0x0dfafd10edb4c7cf9457abdcbde8a9edf2a845505bf35d6864cd7432d160ce6a",
          "transactionIndex": "0x4a",
          "logIndex": "0xba",
          "removed": false
        },
        {
          "address": "0xb5320b0b3a13cc860893e2bd79fcd7e13484dda2",
          "topics": [
            "0x82118522aa536ac0e96cc5c689407ae42b89d592aa133890a01f1509842f5081"
          ],
          "data": "0x000000000000000000000000374427909212b29fcc3ffe8e7920a190a3031cb800000000000000000000000000000000000000000000000000000000000075c60000000000000000000000000000000000000000000000000000000000000060000000000000000000000000000000000000000000000000000000000000000f000000000000000000000000000000000000000000000000000000000000000200000000000000000000000000000000000000000000000000000000000000ff000000000000000000000000000000000000000000000000000000000000000000000000000000000000000000000000000000000000000000000000000000c000000000000000000000000000000000000000000000000000000000000001200000000000000000000000000000000000000000000000000000000000000002000000000000000000000000554833698ae0fb22ecc90b01222903fd62ca4b47000000000000000000000000a7b5189bca84cd304d8553977c7c614329750d990000000000000000000000000000000000000000000000000000000000000000",
          "blockHash": "0x6ae4aeda301c9112f2990cff1c9cb1358da2764224a69869489d63f572f0490a",
          "blockNumber": "0x22171b8",
          "blockTimestamp": "0x68cd4053",
          "transactionHash": "0x0dfafd10edb4c7cf9457abdcbde8a9edf2a845505bf35d6864cd7432d160ce6a",
          "transactionIndex": "0x4a",
          "logIndex": "0xbb",
          "removed": false
        }
      ],
      "logsBloom": "0x00000000000000000000000000000000000000000000000000000000000000000000000000000000000000000000000000000000000000000000000000000000000000000000000000000440000000000000000000000000002000000000000100000000000000000000000000000000000000000000000000000000000000000000000000000000000000000000000000000000000000000004000000000000000000000000000000000002000000000000000000000000000000000000000200000000000000000000000000000000000000000000000000000000000000000008000000000000000000000000000000000000000000000000000000000010",
      "type": "0x2",
      "transactionHash": "0x0dfafd10edb4c7cf9457abdcbde8a9edf2a845505bf35d6864cd7432d160ce6a",
      "transactionIndex": "0x4a",
      "blockHash": "0x6ae4aeda301c9112f2990cff1c9cb1358da2764224a69869489d63f572f0490a",
      "blockNumber": "0x22171b8",
      "gasUsed": "0x49de4",
      "effectiveGasPrice": "0x477bbe",
      "from": "0x0ece75f3c36f7df2136dac7633165dbff53de3cd",
      "to": "0x1a44076050125825900e736c501f859c50fe728c",
      "contractAddress": null,
      "l1BaseFeeScalar": "0x8dd",
      "l1BlobBaseFee": "0x1",
      "l1BlobBaseFeeScalar": "0x101c12",
      "l1Fee": "0xdc6307f6",
      "l1GasPrice": "0x14190a6d",
      "l1GasUsed": "0x12e0"
    },
    {
      "status": "0x1",
      "cumulativeGasUsed": "0xb64645",
      "logs": [
        {
          "address": "0xc70ab6f32772f59fbfc23889caf4ba3376c84baf",
          "topics": [
            "0x82118522aa536ac0e96cc5c689407ae42b89d592aa133890a01f1509842f5081"
          ],
          "data": "0x000000000000000000000000374427909212b29fcc3ffe8e7920a190a3031cb800000000000000000000000000000000000000000000000000000000000075e80000000000000000000000000000000000000000000000000000000000000060000000000000000000000000000000000000000000000000000000000000000f000000000000000000000000000000000000000000000000000000000000000200000000000000000000000000000000000000000000000000000000000000ff000000000000000000000000000000000000000000000000000000000000000000000000000000000000000000000000000000000000000000000000000000c000000000000000000000000000000000000000000000000000000000000001200000000000000000000000000000000000000000000000000000000000000002000000000000000000000000554833698ae0fb22ecc90b01222903fd62ca4b47000000000000000000000000a7b5189bca84cd304d8553977c7c614329750d990000000000000000000000000000000000000000000000000000000000000000",
          "blockHash": "0x6ae4aeda301c9112f2990cff1c9cb1358da2764224a69869489d63f572f0490a",
          "blockNumber": "0x22171b8",
          "blockTimestamp": "0x68cd4053",
          "transactionHash": "0xea13f0d2b1e44e16f76ff989db91333671676d0744768f82289f68afc52e5b59",
          "transactionIndex": "0x4b",
          "logIndex": "0xbc",
          "removed": false
        },
        {
          "address": "0xc70ab6f32772f59fbfc23889caf4ba3376c84baf",
          "topics": [
            "0x82118522aa536ac0e96cc5c689407ae42b89d592aa133890a01f1509842f5081"
          ],
          "data": "0x000000000000000000000000374427909212b29fcc3ffe8e7920a190a3031cb800000000000000000000000000000000000000000000000000000000000075c60000000000000000000000000000000000000000000000000000000000000060000000000000000000000000000000000000000000000000000000000000000f000000000000000000000000000000000000000000000000000000000000000200000000000000000000000000000000000000000000000000000000000000ff000000000000000000000000000000000000000000000000000000000000000000000000000000000000000000000000000000000000000000000000000000c000000000000000000000000000000000000000000000000000000000000001200000000000000000000000000000000000000000000000000000000000000002000000000000000000000000554833698ae0fb22ecc90b01222903fd62ca4b47000000000000000000000000a7b5189bca84cd304d8553977c7c614329750d990000000000000000000000000000000000000000000000000000000000000000",
          "blockHash": "0x6ae4aeda301c9112f2990cff1c9cb1358da2764224a69869489d63f572f0490a",
          "blockNumber": "0x22171b8",
          "blockTimestamp": "0x68cd4053",
          "transactionHash": "0xea13f0d2b1e44e16f76ff989db91333671676d0744768f82289f68afc52e5b59",
          "transactionIndex": "0x4b",
          "logIndex": "0xbd",
          "removed": false
        }
      ],
      "logsBloom": "0x00000000000000000000000800000000000000000000000000000000000000000000000000000000000000000000000000000000000000000000000000000000000000000000000000000000000000000000000000000000002000080000000000000000000000000000000000000000000000000000000000000000000000000000000000000000000000000000000000000000000000000000000000000000000000000000000000000002000000000000000000000000000000000000000000000000000000000000000000000000000000000000000000000000000000000000000020000000000000000000000000000000000000000000000000000010",
      "type": "0x2",
      "transactionHash": "0xea13f0d2b1e44e16f76ff989db91333671676d0744768f82289f68afc52e5b59",
      "transactionIndex": "0x4b",
      "blockHash": "0x6ae4aeda301c9112f2990cff1c9cb1358da2764224a69869489d63f572f0490a",
      "blockNumber": "0x22171b8",
      "gasUsed": "0x3c3ca",
      "effectiveGasPrice": "0x477bbe",
      "from": "0x0ece75f3c36f7df2136dac7633165dbff53de3cd",
      "to": "0x1a44076050125825900e736c501f859c50fe728c",
      "contractAddress": null,
      "l1BaseFeeScalar": "0x8dd",
      "l1BlobBaseFee": "0x1",
      "l1BlobBaseFeeScalar": "0x101c12",
      "l1Fee": "0xad64142f",
      "l1GasPrice": "0x14190a6d",
      "l1GasUsed": "0xeda"
    },
    {
      "status": "0x1",
      "cumulativeGasUsed": "0xb702fa",
      "logs": [
        {
          "address": "0x374427909212b29fcc3ffe8e7920a190a3031cb8",
          "topics": [
            "0x238399d427b947898edb290f5ff0f9109849b1c3ba196a42e35f00c50a54b98b"
          ],
          "data": "0x00000000000000000000000000000000000000000000000000000000000075c6000000000000000000000000f8af5114ad19422e059797ca2515febd8bc06bd1",
          "blockHash": "0x6ae4aeda301c9112f2990cff1c9cb1358da2764224a69869489d63f572f0490a",
          "blockNumber": "0x22171b8",
          "blockTimestamp": "0x68cd4053",
          "transactionHash": "0xc2222a3249e1dd7a3cf78cf69075d620b5d5596b74c0561bb2a41b1bb169204c",
          "transactionIndex": "0x4c",
          "logIndex": "0xbe",
          "removed": false
        }
      ],
      "logsBloom": "0x00000000000000000000000000000000000000000000000000000000000000000000000000000000000000000000000000000000000000000800000000000000000000000000000000000000000000000000000000000000000000000000000000000000000000000000000000000000000000000000000000000000000000000000000000000000000000000000200010000000000000000000000000000000000000000000000000000000000000000000000000000000000002000000000000000000000000000000000000000000000000000000000000040000000000000000000200000000000000000000000000000000000000000000000000000000",
      "type": "0x2",
      "transactionHash": "0xc2222a3249e1dd7a3cf78cf69075d620b5d5596b74c0561bb2a41b1bb169204c",
      "transactionIndex": "0x4c",
      "blockHash": "0x6ae4aeda301c9112f2990cff1c9cb1358da2764224a69869489d63f572f0490a",
      "blockNumber": "0x22171b8",
      "gasUsed": "0xbcb5",
      "effectiveGasPrice": "0x477bbe",
      "from": "0x0ece75f3c36f7df2136dac7633165dbff53de3cd",
      "to": "0x374427909212b29fcc3ffe8e7920a190a3031cb8",
      "contractAddress": null,
      "l1BaseFeeScalar": "0x8dd",
      "l1BlobBaseFee": "0x1",
      "l1BlobBaseFeeScalar": "0x101c12",
      "l1Fee": "0x48f68eb5",
      "l1GasPrice": "0x14190a6d",
      "l1GasUsed": "0x640"
    },
    {
      "status": "0x1",
      "cumulativeGasUsed": "0xb7bfaf",
      "logs": [
        {
          "address": "0x374427909212b29fcc3ffe8e7920a190a3031cb8",
          "topics": [
            "0x238399d427b947898edb290f5ff0f9109849b1c3ba196a42e35f00c50a54b98b"
          ],
          "data": "0x00000000000000000000000000000000000000000000000000000000000075e8000000000000000000000000374427909212b29fcc3ffe8e7920a190a3031cb8",
          "blockHash": "0x6ae4aeda301c9112f2990cff1c9cb1358da2764224a69869489d63f572f0490a",
          "blockNumber": "0x22171b8",
          "blockTimestamp": "0x68cd4053",
          "transactionHash": "0x9ff762ca323ed10c8aa6c592f890ab1a0143af24107357c45f96b10e9cb54036",
          "transactionIndex": "0x4d",
          "logIndex": "0xbf",
          "removed": false
        }
      ],
      "logsBloom": "0x00000000000000000000000000000000000000000000000000000000000000000000000000000000000000000000000000000000000000000800000000000000000000000000000000000000000000000000000000000000000000000000000000000000000000000000000000000000000000000000000000000000000000000000000000000000000000000000200010000000000000000000000000000000000000000000000000000000000000000000000000000000000002000000000000000000000000000000000000000000000000000000000000040000000000000000000200000000000000000000000000000000000000000000000000000000",
      "type": "0x2",
      "transactionHash": "0x9ff762ca323ed10c8aa6c592f890ab1a0143af24107357c45f96b10e9cb54036",
      "transactionIndex": "0x4d",
      "blockHash": "0x6ae4aeda301c9112f2990cff1c9cb1358da2764224a69869489d63f572f0490a",
      "blockNumber": "0x22171b8",
      "gasUsed": "0xbcb5",
      "effectiveGasPrice": "0x477bbe",
      "from": "0x0ece75f3c36f7df2136dac7633165dbff53de3cd",
      "to": "0x374427909212b29fcc3ffe8e7920a190a3031cb8",
      "contractAddress": null,
      "l1BaseFeeScalar": "0x8dd",
      "l1BlobBaseFee": "0x1",
      "l1BlobBaseFeeScalar": "0x101c12",
      "l1Fee": "0x48f68eb5",
      "l1GasPrice": "0x14190a6d",
      "l1GasUsed": "0x640"
    },
    {
      "status": "0x1",
      "cumulativeGasUsed": "0xb90223",
      "logs": [
        {
          "address": "0x374427909212b29fcc3ffe8e7920a190a3031cb8",
          "topics": [
            "0xbe4864a8e820971c0247f5992e2da559595f7bf076a21cb5928d443d2a13b674"
          ],
          "data": "0x00000000000000000000000000000000000000000000000000000000000000200000000000000000000000000000000000000000000000000000000000000002000000000000000000000000000000000000000000000000000000000000004000000000000000000000000000000000000000000000000000000000000000e000000000000000000000000000000000000000000000000000000000000075e8000000000000000000000000000000000000000000000000000000000000000100000000000000000000000000000000000000000000000000000000000000600000000000000000000000000000000000000000000000000000000000000016000301001101000000000000000000000000000138800000000000000000000000000000000000000000000000000000000000000000000000000000000075c6000000000000000000000000000000000000000000000000000000000000000100000000000000000000000000000000000000000000000000000000000000600000000000000000000000000000000000000000000000000000000000000016000301001101000000000000000000000000000186a000000000000000000000",
          "blockHash": "0x6ae4aeda301c9112f2990cff1c9cb1358da2764224a69869489d63f572f0490a",
          "blockNumber": "0x22171b8",
          "blockTimestamp": "0x68cd4053",
          "transactionHash": "0x9dda4cd4a80b25779be21a2876a489ab5d89b39c22a0fa911c14d13b8778f5ff",
          "transactionIndex": "0x4e",
          "logIndex": "0xc0",
          "removed": false
        }
      ],
      "logsBloom": "0x00000000000000000000000000000000000000000000000000000000000000000000000000000000000000000000000000000000000000000000400000000000000000000000000000000000000000000000000000000000000000000000000000000000000000000000000000000000000000000000000000000000000000000000000000000000000000000000200010000000000000000000000000080000000000000000000000000000000000000000000000000000000000000000000000000000000000000000000002000000000000000000000000000000000000000000000200000000000000000000000000000000000000000000000000000000",
      "type": "0x2",
      "transactionHash": "0x9dda4cd4a80b25779be21a2876a489ab5d89b39c22a0fa911c14d13b8778f5ff",
      "transactionIndex": "0x4e",
      "blockHash": "0x6ae4aeda301c9112f2990cff1c9cb1358da2764224a69869489d63f572f0490a",
      "blockNumber": "0x22171b8",
      "gasUsed": "0x14274",
      "effectiveGasPrice": "0x477bbe",
      "from": "0x0ece75f3c36f7df2136dac7633165dbff53de3cd",
      "to": "0x374427909212b29fcc3ffe8e7920a190a3031cb8",
      "contractAddress": null,
      "l1BaseFeeScalar": "0x8dd",
      "l1BlobBaseFee": "0x1",
      "l1BlobBaseFeeScalar": "0x101c12",
      "l1Fee": "0x655f08fe",
      "l1GasPrice": "0x14190a6d",
      "l1GasUsed": "0x8ae"
    },
    {
      "status": "0x1",
      "cumulativeGasUsed": "0xb9b732",
      "logs": [],
      "logsBloom": "0x00000000000000000000000000000000000000000000000000000000000000000000000000000000000000000000000000000000000000000000000000000000000000000000000000000000000000000000000000000000000000000000000000000000000000000000000000000000000000000000000000000000000000000000000000000000000000000000000000000000000000000000000000000000000000000000000000000000000000000000000000000000000000000000000000000000000000000000000000000000000000000000000000000000000000000000000000000000000000000000000000000000000000000000000000000000",
      "type": "0x2",
      "transactionHash": "0x7e0fd7d37ef6ff15e1381d18bf46d4a0d9ac3ae7f19a5a75b0ceb1afdf03550e",
      "transactionIndex": "0x4f",
      "blockHash": "0x6ae4aeda301c9112f2990cff1c9cb1358da2764224a69869489d63f572f0490a",
      "blockNumber": "0x22171b8",
      "gasUsed": "0xb50f",
      "effectiveGasPrice": "0x477bbe",
      "from": "0x0ece75f3c36f7df2136dac7633165dbff53de3cd",
      "to": "0x374427909212b29fcc3ffe8e7920a190a3031cb8",
      "contractAddress": null,
      "l1BaseFeeScalar": "0x8dd",
      "l1BlobBaseFee": "0x1",
      "l1BlobBaseFeeScalar": "0x101c12",
      "l1Fee": "0x48f68eb5",
      "l1GasPrice": "0x14190a6d",
      "l1GasUsed": "0x640"
    }
  ],
  "libraries": [],
  "pending": [],
  "returns": {},
  "timestamp": 1758281809670,
  "chain": 8453,
  "commit": "6c82bda"
}