{
  "transactions": [
    {
      "hash": "0xde21b885547e694ad0cd0122b843b0b7c182b5002cb66001adee79df7005d524",
      "transactionType": "CALL",
      "contractName": null,
      "contractAddress": "0xcbb5df94d28e0639ce82ccc46a28eba34b29a674",
      "function": "setOFTaddress(address)",
      "arguments": [
        "0xAd063B1915Bf95fB32f79138c0B668F232676333"
      ],
      "transaction": {
        "from": "0x0ece75f3c36f7df2136dac7633165dbff53de3cd",
        "to": "0xcbb5df94d28e0639ce82ccc46a28eba34b29a674",
        "gas": "0xa71b",
        "value": "0x0",
        "input": "0xea89900e000000000000000000000000ad063b1915bf95fb32f79138c0b668f232676333",
        "nonce": "0x113",
        "chainId": "0x2105"
      },
      "additionalContracts": [],
      "isFixedGasLimit": false
    }
  ],
  "receipts": [
    {
      "status": "0x1",
      "cumulativeGasUsed": "0x9dc592",
      "logs": [],
      "logsBloom": "0x00000000000000000000000000000000000000000000000000000000000000000000000000000000000000000000000000000000000000000000000000000000000000000000000000000000000000000000000000000000000000000000000000000000000000000000000000000000000000000000000000000000000000000000000000000000000000000000000000000000000000000000000000000000000000000000000000000000000000000000000000000000000000000000000000000000000000000000000000000000000000000000000000000000000000000000000000000000000000000000000000000000000000000000000000000000",
      "type": "0x2",
      "transactionHash": "0xde21b885547e694ad0cd0122b843b0b7c182b5002cb66001adee79df7005d524",
      "transactionIndex": "0x4a",
      "blockHash": "0xb13dfcbb63190b84c72a833d915a3b3716e5f789742da173f07b58342fd6b71c",
      "blockNumber": "0x220f504",
      "gasUsed": "0x7243",
      "effectiveGasPrice": "0x665fc2",
      "from": "0x0ece75f3c36f7df2136dac7633165dbff53de3cd",
      "to": "0xcbb5df94d28e0639ce82ccc46a28eba34b29a674",
      "contractAddress": null,
      "l1BaseFeeScalar": "0x8dd",
      "l1BlobBaseFee": "0x1",
      "l1BlobBaseFeeScalar": "0x101c12",
      "l1Fee": "0x25d03aa83",
      "l1GasPrice": "0xa6a6f99a",
      "l1GasUsed": "0x640"
    }
  ],
  "libraries": [],
  "pending": [],
  "returns": {},
  "timestamp": 1758217961651,
  "chain": 8453,
  "commit": "6c82bda"
}