{
  "transactions": [
    {
      "hash": "0x92f99d504f936ebf96ec7bf3936459b19f09977ee8470f8c861929672e9bb021",
      "transactionType": "CALL",
      "contractName": null,
      "contractAddress": "0xcbb5df94d28e0639ce82ccc46a28eba34b29a674",
      "function": "setEnforcedOptions((uint32,uint16,bytes)[])",
      "arguments": [
        "[(30184, 1, 0x00030100110100000000000000000000000000013880), (30150, 1, 0x000301001101000000000000000000000000000186a0)]"
      ],
      "transaction": {
        "from": "0x0ece75f3c36f7df2136dac7633165dbff53de3cd",
        "to": "0xcbb5df94d28e0639ce82ccc46a28eba34b29a674",
        "gas": "0xe6a4",
        "value": "0x0",
        "input": "0xb98bd07000000000000000000000000000000000000000000000000000000000000000200000000000000000000000000000000000000000000000000000000000000002000000000000000000000000000000000000000000000000000000000000004000000000000000000000000000000000000000000000000000000000000000e000000000000000000000000000000000000000000000000000000000000075e8000000000000000000000000000000000000000000000000000000000000000100000000000000000000000000000000000000000000000000000000000000600000000000000000000000000000000000000000000000000000000000000016000301001101000000000000000000000000000138800000000000000000000000000000000000000000000000000000000000000000000000000000000075c6000000000000000000000000000000000000000000000000000000000000000100000000000000000000000000000000000000000000000000000000000000600000000000000000000000000000000000000000000000000000000000000016000301001101000000000000000000000000000186a000000000000000000000",
        "nonce": "0xa9",
        "chainId": "0x2105"
      },
      "additionalContracts": [],
      "isFixedGasLimit": false
    }
  ],
  "receipts": [
    {
      "status": "0x1",
      "cumulativeGasUsed": "0x11cb671",
      "logs": [
        {
          "address": "0xcbb5df94d28e0639ce82ccc46a28eba34b29a674",
          "topics": [
            "0xbe4864a8e820971c0247f5992e2da559595f7bf076a21cb5928d443d2a13b674"
          ],
          "data": "0x00000000000000000000000000000000000000000000000000000000000000200000000000000000000000000000000000000000000000000000000000000002000000000000000000000000000000000000000000000000000000000000004000000000000000000000000000000000000000000000000000000000000000e000000000000000000000000000000000000000000000000000000000000075e8000000000000000000000000000000000000000000000000000000000000000100000000000000000000000000000000000000000000000000000000000000600000000000000000000000000000000000000000000000000000000000000016000301001101000000000000000000000000000138800000000000000000000000000000000000000000000000000000000000000000000000000000000075c6000000000000000000000000000000000000000000000000000000000000000100000000000000000000000000000000000000000000000000000000000000600000000000000000000000000000000000000000000000000000000000000016000301001101000000000000000000000000000186a000000000000000000000",
          "blockHash": "0xc096c6987b9520b02c912d59ae8fdc5d08b6bb6e11c59a875144343c981cea42",
          "blockNumber": "0x220a3ae",
          "blockTimestamp": "0x68cba43f",
          "transactionHash": "0x92f99d504f936ebf96ec7bf3936459b19f09977ee8470f8c861929672e9bb021",
          "transactionIndex": "0x5e",
          "logIndex": "0x12c",
          "removed": false
        }
      ],
      "logsBloom": "0x00000000000000080000000000000000000000000000000000000000000000000000000000000000000000000000000000000000000000000000400000000000000000000000004000000000000000000000000000000000000000000000000000000000000000000000000000000000000000000000000000000000000000000000000000000000000000000000000000000000000000000000000000080000000000000000000000000000000000000000000000000000000000000000000000000000000000000000000002000000000000000000000000000000000000000000000800000000000000000000000000000000000000000000000000000000",
      "type": "0x2",
      "transactionHash": "0x92f99d504f936ebf96ec7bf3936459b19f09977ee8470f8c861929672e9bb021",
      "transactionIndex": "0x5e",
      "blockHash": "0xc096c6987b9520b02c912d59ae8fdc5d08b6bb6e11c59a875144343c981cea42",
      "blockNumber": "0x220a3ae",
      "gasUsed": "0xa6fc",
      "effectiveGasPrice": "0x4b7491",
      "from": "0x0ece75f3c36f7df2136dac7633165dbff53de3cd",
      "to": "0xcbb5df94d28e0639ce82ccc46a28eba34b29a674",
      "contractAddress": null,
      "l1BaseFeeScalar": "0x8dd",
      "l1BlobBaseFee": "0x1",
      "l1BlobBaseFeeScalar": "0x101c12",
      "l1Fee": "0x6364cc3d",
      "l1GasPrice": "0x13f22926",
      "l1GasUsed": "0x894"
    }
  ],
  "libraries": [],
  "pending": [],
  "returns": {},
  "timestamp": 1758176318376,
  "chain": 8453,
  "commit": "6c82bda"
}