{
  "transactions": [
    {
      "hash": "0x662c90cca6b98f3aee5bbf7d59cd2991b366bd4d8d1fd2c12fd3f6cb95ace132",
      "transactionType": "CALL",
      "contractName": null,
      "contractAddress": "0xcbb5df94d28e0639ce82ccc46a28eba34b29a674",
      "function": "setPeer(uint32,bytes32)",
      "arguments": [
        "30150",
        "0x000000000000000000000000af126b36958ef1a6ed80118841a7f1660f921346"
      ],
      "transaction": {
        "from": "0x0ece75f3c36f7df2136dac7633165dbff53de3cd",
        "to": "0xcbb5df94d28e0639ce82ccc46a28eba34b29a674",
        "gas": "0x104a6",
        "value": "0x0",
        "input": "0x3400288b00000000000000000000000000000000000000000000000000000000000075c6000000000000000000000000af126b36958ef1a6ed80118841a7f1660f921346",
        "nonce": "0xa6",
        "chainId": "0x2105"
      },
      "additionalContracts": [],
      "isFixedGasLimit": false
    },
    {
      "hash": "0x72768b078183594468e227c3b889fe214eda6270b633ad59595efe528b49e38f",
      "transactionType": "CALL",
      "contractName": null,
      "contractAddress": "0xcbb5df94d28e0639ce82ccc46a28eba34b29a674",
      "function": "setPeer(uint32,bytes32)",
      "arguments": [
        "30184",
        "0x000000000000000000000000cbb5df94d28e0639ce82ccc46a28eba34b29a674"
      ],
      "transaction": {
        "from": "0x0ece75f3c36f7df2136dac7633165dbff53de3cd",
        "to": "0xcbb5df94d28e0639ce82ccc46a28eba34b29a674",
        "gas": "0x104a6",
        "value": "0x0",
        "input": "0x3400288b00000000000000000000000000000000000000000000000000000000000075e8000000000000000000000000cbb5df94d28e0639ce82ccc46a28eba34b29a674",
        "nonce": "0xa7",
        "chainId": "0x2105"
      },
      "additionalContracts": [],
      "isFixedGasLimit": false
    }
  ],
  "receipts": [
    {
      "status": "0x1",
      "cumulativeGasUsed": "0x9c58a1",
      "logs": [
        {
          "address": "0xcbb5df94d28e0639ce82ccc46a28eba34b29a674",
          "topics": [
            "0x238399d427b947898edb290f5ff0f9109849b1c3ba196a42e35f00c50a54b98b"
          ],
          "data": "0x00000000000000000000000000000000000000000000000000000000000075c6000000000000000000000000af126b36958ef1a6ed80118841a7f1660f921346",
          "blockHash": "0xf5d89a5f83da9a6db11b1f834e9dde1a5c84a30d27e712fd6c814d484fef9632",
          "blockNumber": "0x220a31b",
          "blockTimestamp": "0x68cba319",
          "transactionHash": "0x662c90cca6b98f3aee5bbf7d59cd2991b366bd4d8d1fd2c12fd3f6cb95ace132",
          "transactionIndex": "0x28",
          "logIndex": "0xdb",
          "removed": false
        }
      ],
      "logsBloom": "0x00000000000000080000000000000000000000000000000000000000000000000000000000000000000000000000000000000000000000000800000000000000000000000000004000000000000000000000000000000000000000000000000000000000000000000000000000000000000000000000000000000000000000000000000000000000000000000000000000000000000000000000000000000000000000000000000000000000000000000000000000000000000002000000000000000000000000000000000000000000000000000000000000040000000000000000000800000000000000000000000000000000000000000000000000000000",
      "type": "0x2",
      "transactionHash": "0x662c90cca6b98f3aee5bbf7d59cd2991b366bd4d8d1fd2c12fd3f6cb95ace132",
      "transactionIndex": "0x28",
      "blockHash": "0xf5d89a5f83da9a6db11b1f834e9dde1a5c84a30d27e712fd6c814d484fef9632",
      "blockNumber": "0x220a31b",
      "gasUsed": "0xbcb5",
      "effectiveGasPrice": "0x4cf9e0",
      "from": "0x0ece75f3c36f7df2136dac7633165dbff53de3cd",
      "to": "0xcbb5df94d28e0639ce82ccc46a28eba34b29a674",
      "contractAddress": null,
      "l1BaseFeeScalar": "0x8dd",
      "l1BlobBaseFee": "0x1",
      "l1BlobBaseFeeScalar": "0x101c12",
      "l1Fee": "0x384cf53f",
      "l1GasPrice": "0xf8212ed",
      "l1GasUsed": "0x640"
    },
    {
      "status": "0x1",
      "cumulativeGasUsed": "0x9d1556",
      "logs": [
        {
          "address": "0xcbb5df94d28e0639ce82ccc46a28eba34b29a674",
          "topics": [
            "0x238399d427b947898edb290f5ff0f9109849b1c3ba196a42e35f00c50a54b98b"
          ],
          "data": "0x00000000000000000000000000000000000000000000000000000000000075e8000000000000000000000000cbb5df94d28e0639ce82ccc46a28eba34b29a674",
          "blockHash": "0xf5d89a5f83da9a6db11b1f834e9dde1a5c84a30d27e712fd6c814d484fef9632",
          "blockNumber": "0x220a31b",
          "blockTimestamp": "0x68cba319",
          "transactionHash": "0x72768b078183594468e227c3b889fe214eda6270b633ad59595efe528b49e38f",
          "transactionIndex": "0x29",
          "logIndex": "0xdc",
          "removed": false
        }
      ],
      "logsBloom": "0x00000000000000080000000000000000000000000000000000000000000000000000000000000000000000000000000000000000000000000800000000000000000000000000004000000000000000000000000000000000000000000000000000000000000000000000000000000000000000000000000000000000000000000000000000000000000000000000000000000000000000000000000000000000000000000000000000000000000000000000000000000000000002000000000000000000000000000000000000000000000000000000000000040000000000000000000800000000000000000000000000000000000000000000000000000000",
      "type": "0x2",
      "transactionHash": "0x72768b078183594468e227c3b889fe214eda6270b633ad59595efe528b49e38f",
      "transactionIndex": "0x29",
      "blockHash": "0xf5d89a5f83da9a6db11b1f834e9dde1a5c84a30d27e712fd6c814d484fef9632",
      "blockNumber": "0x220a31b",
      "gasUsed": "0xbcb5",
      "effectiveGasPrice": "0x4cf9e0",
      "from": "0x0ece75f3c36f7df2136dac7633165dbff53de3cd",
      "to": "0xcbb5df94d28e0639ce82ccc46a28eba34b29a674",
      "contractAddress": null,
      "l1BaseFeeScalar": "0x8dd",
      "l1BlobBaseFee": "0x1",
      "l1BlobBaseFeeScalar": "0x101c12",
      "l1Fee": "0x384cf53f",
      "l1GasPrice": "0xf8212ed",
      "l1GasUsed": "0x640"
    }
  ],
  "libraries": [],
  "pending": [],
  "returns": {},
  "timestamp": 1758176025048,
  "chain": 8453,
  "commit": "6c82bda"
}