{
  "transactions": [
    {
      "hash": "0xebeb9373de89c290b02b1bd6071ac160a4428eec3b57608ad075c4ffe67dba80",
      "transactionType": "CALL",
      "contractName": null,
      "contractAddress": "0x1a44076050125825900e736c501f859c50fe728c",
      "function": "setSendLibrary(address,uint32,address)",
      "arguments": [
        "0xcBb5dF94d28E0639Ce82CCC46a28EbA34B29a674",
        "30184",
        "0xB5320B0B3a13cC860893E2Bd79FCd7e13484Dda2"
      ],
      "transaction": {
        "from": "0x0ece75f3c36f7df2136dac7633165dbff53de3cd",
        "to": "0x1a44076050125825900e736c501f859c50fe728c",
        "gas": "0x1378b",
        "value": "0x0",
        "input": "0x9535ff30000000000000000000000000cbb5df94d28e0639ce82ccc46a28eba34b29a67400000000000000000000000000000000000000000000000000000000000075e8000000000000000000000000b5320b0b3a13cc860893e2bd79fcd7e13484dda2",
        "nonce": "0xa1",
        "chainId": "0x2105"
      },
      "additionalContracts": [],
      "isFixedGasLimit": false
    },
    {
      "hash": "0x20dd7fb8b238e08c6bf6675c8e09f29193c482afc4910a15a28c0beca00c40a9",
      "transactionType": "CALL",
      "contractName": null,
      "contractAddress": "0x1a44076050125825900e736c501f859c50fe728c",
      "function": "setSendLibrary(address,uint32,address)",
      "arguments": [
        "0xcBb5dF94d28E0639Ce82CCC46a28EbA34B29a674",
        "30150",
        "0xB5320B0B3a13cC860893E2Bd79FCd7e13484Dda2"
      ],
      "transaction": {
        "from": "0x0ece75f3c36f7df2136dac7633165dbff53de3cd",
        "to": "0x1a44076050125825900e736c501f859c50fe728c",
        "gas": "0x1378b",
        "value": "0x0",
        "input": "0x9535ff30000000000000000000000000cbb5df94d28e0639ce82ccc46a28eba34b29a67400000000000000000000000000000000000000000000000000000000000075c6000000000000000000000000b5320b0b3a13cc860893e2bd79fcd7e13484dda2",
        "nonce": "0xa2",
        "chainId": "0x2105"
      },
      "additionalContracts": [],
      "isFixedGasLimit": false
    },
    {
      "hash": "0x6da3273febf711daf89000bbe3931fe14b3bf92b5aba51831f078fd7f7c0348c",
      "transactionType": "CALL",
      "contractName": null,
      "contractAddress": "0x1a44076050125825900e736c501f859c50fe728c",
      "function": "setReceiveLibrary(address,uint32,address,uint256)",
      "arguments": [
        "0xcBb5dF94d28E0639Ce82CCC46a28EbA34B29a674",
        "30184",
        "0xc70AB6f32772f59fBfc23889Caf4Ba3376C84bAf",
        "0"
      ],
      "transaction": {
        "from": "0x0ece75f3c36f7df2136dac7633165dbff53de3cd",
        "to": "0x1a44076050125825900e736c501f859c50fe728c",
        "gas": "0x17001",
        "value": "0x0",
        "input": "0x6a14d715000000000000000000000000cbb5df94d28e0639ce82ccc46a28eba34b29a67400000000000000000000000000000000000000000000000000000000000075e8000000000000000000000000c70ab6f32772f59fbfc23889caf4ba3376c84baf0000000000000000000000000000000000000000000000000000000000000000",
        "nonce": "0xa3",
        "chainId": "0x2105"
      },
      "additionalContracts": [],
      "isFixedGasLimit": false
    }
  ],
  "receipts": [
    {
      "status": "0x1",
      "cumulativeGasUsed": "0x2ba8a30",
      "logs": [
        {
          "address": "0x1a44076050125825900e736c501f859c50fe728c",
          "topics": [
            "0x4cff966ebee29a156dcb34cf72c1d06231fb1777f6bdf6e8089819232f002b1c"
          ],
          "data": "0x000000000000000000000000cbb5df94d28e0639ce82ccc46a28eba34b29a67400000000000000000000000000000000000000000000000000000000000075e8000000000000000000000000b5320b0b3a13cc860893e2bd79fcd7e13484dda2",
          "blockHash": "0x9249e5b6036a39938d02514d5dcfcffb41d8307616584c91657c7ca8a877b12e",
          "blockNumber": "0x220a271",
          "blockTimestamp": "0x68cba1c5",
          "transactionHash": "0xebeb9373de89c290b02b1bd6071ac160a4428eec3b57608ad075c4ffe67dba80",
          "transactionIndex": "0xcb",
          "logIndex": "0x38f",
          "removed": false
        }
      ],
      "logsBloom": "0x00000000000000000000000000000000000200000000000000000000001000000000000000000000000000000000000000000000000000000000000001000000000000000000000000000000000000000000000000000000000000000000000000000000000000000000000000000000000000000010000000000000000000000000000000000000000000000000000000000000000000000000000000000000000000000000000000000000000000000000000000000000000000000000000000000000000000000000000000000000000000000000000000000000000000000040000000000000000000000000000000000000010000000000000000000000",
      "type": "0x2",
      "transactionHash": "0xebeb9373de89c290b02b1bd6071ac160a4428eec3b57608ad075c4ffe67dba80",
      "transactionIndex": "0xcb",
      "blockHash": "0x9249e5b6036a39938d02514d5dcfcffb41d8307616584c91657c7ca8a877b12e",
      "blockNumber": "0x220a271",
      "gasUsed": "0xe18e",
      "effectiveGasPrice": "0x2b98e2",
      "from": "0x0ece75f3c36f7df2136dac7633165dbff53de3cd",
      "to": "0x1a44076050125825900e736c501f859c50fe728c",
      "contractAddress": null,
      "l1BaseFeeScalar": "0x8dd",
      "l1BlobBaseFee": "0x2",
      "l1BlobBaseFeeScalar": "0x101c12",
      "l1Fee": "0x33a9fbf2",
      "l1GasPrice": "0xd62d685",
      "l1GasUsed": "0x6a4"
    },
    {
      "status": "0x1",
      "cumulativeGasUsed": "0x2bb6bbe",
      "logs": [
        {
          "address": "0x1a44076050125825900e736c501f859c50fe728c",
          "topics": [
            "0x4cff966ebee29a156dcb34cf72c1d06231fb1777f6bdf6e8089819232f002b1c"
          ],
          "data": "0x000000000000000000000000cbb5df94d28e0639ce82ccc46a28eba34b29a67400000000000000000000000000000000000000000000000000000000000075c6000000000000000000000000b5320b0b3a13cc860893e2bd79fcd7e13484dda2",
          "blockHash": "0x9249e5b6036a39938d02514d5dcfcffb41d8307616584c91657c7ca8a877b12e",
          "blockNumber": "0x220a271",
          "blockTimestamp": "0x68cba1c5",
          "transactionHash": "0x20dd7fb8b238e08c6bf6675c8e09f29193c482afc4910a15a28c0beca00c40a9",
          "transactionIndex": "0xcc",
          "logIndex": "0x390",
          "removed": false
        }
      ],
      "logsBloom": "0x00000000000000000000000000000000000200000000000000000000001000000000000000000000000000000000000000000000000000000000000001000000000000000000000000000000000000000000000000000000000000000000000000000000000000000000000000000000000000000010000000000000000000000000000000000000000000000000000000000000000000000000000000000000000000000000000000000000000000000000000000000000000000000000000000000000000000000000000000000000000000000000000000000000000000000040000000000000000000000000000000000000010000000000000000000000",
      "type": "0x2",
      "transactionHash": "0x20dd7fb8b238e08c6bf6675c8e09f29193c482afc4910a15a28c0beca00c40a9",
      "transactionIndex": "0xcc",
      "blockHash": "0x9249e5b6036a39938d02514d5dcfcffb41d8307616584c91657c7ca8a877b12e",
      "blockNumber": "0x220a271",
      "gasUsed": "0xe18e",
      "effectiveGasPrice": "0x2b98e2",
      "from": "0x0ece75f3c36f7df2136dac7633165dbff53de3cd",
      "to": "0x1a44076050125825900e736c501f859c50fe728c",
      "contractAddress": null,
      "l1BaseFeeScalar": "0x8dd",
      "l1BlobBaseFee": "0x2",
      "l1BlobBaseFeeScalar": "0x101c12",
      "l1Fee": "0x3341eaba",
      "l1GasPrice": "0xd62d685",
      "l1GasUsed": "0x697"
    },
    {
      "status": "0x1",
      "cumulativeGasUsed": "0x2bc675f",
      "logs": [
        {
          "address": "0x1a44076050125825900e736c501f859c50fe728c",
          "topics": [
            "0xcd6f92f5ac6185a5acfa02c92090746cec64d777269cbcd0ed031e396657a1c2"
          ],
          "data": "0x000000000000000000000000cbb5df94d28e0639ce82ccc46a28eba34b29a67400000000000000000000000000000000000000000000000000000000000075e8000000000000000000000000c70ab6f32772f59fbfc23889caf4ba3376c84baf",
          "blockHash": "0x9249e5b6036a39938d02514d5dcfcffb41d8307616584c91657c7ca8a877b12e",
          "blockNumber": "0x220a271",
          "blockTimestamp": "0x68cba1c5",
          "transactionHash": "0x6da3273febf711daf89000bbe3931fe14b3bf92b5aba51831f078fd7f7c0348c",
          "transactionIndex": "0xcd",
          "logIndex": "0x391",
          "removed": false
        },
        {
          "address": "0x1a44076050125825900e736c501f859c50fe728c",
          "topics": [
            "0x4e0a5bbfa0c11a64effb1ada324b5437a17272e1aed9320398715ef71bb20928"
          ],
          "data": "0x000000000000000000000000cbb5df94d28e0639ce82ccc46a28eba34b29a67400000000000000000000000000000000000000000000000000000000000075e800000000000000000000000000000000000000000000000000000000000000000000000000000000000000000000000000000000000000000000000000000000",
          "blockHash": "0x9249e5b6036a39938d02514d5dcfcffb41d8307616584c91657c7ca8a877b12e",
          "blockNumber": "0x220a271",
          "blockTimestamp": "0x68cba1c5",
          "transactionHash": "0x6da3273febf711daf89000bbe3931fe14b3bf92b5aba51831f078fd7f7c0348c",
          "transactionIndex": "0xcd",
          "logIndex": "0x392",
          "removed": false
        }
      ],
      "logsBloom": "0x00000000000000000000020800000000000000000000000000000000001000020400000000000000000000000000000000000000000000000000000000000000000000000000000000000000000000000000000000800000000000000000000000000000000000000000000000000000000000000010000000000000000000100000000000000000000000000000000000000000000000000000000000000000000000000000000000000000000000000000000000000000000000000000000000000000000000000000000000000000000000000000000000000000000000000000000000000000000000000000000000000000010000000000000000000000",
      "type": "0x2",
      "transactionHash": "0x6da3273febf711daf89000bbe3931fe14b3bf92b5aba51831f078fd7f7c0348c",
      "transactionIndex": "0xcd",
      "blockHash": "0x9249e5b6036a39938d02514d5dcfcffb41d8307616584c91657c7ca8a877b12e",
      "blockNumber": "0x220a271",
      "gasUsed": "0xfba1",
      "effectiveGasPrice": "0x2b98e2",
      "from": "0x0ece75f3c36f7df2136dac7633165dbff53de3cd",
      "to": "0x1a44076050125825900e736c501f859c50fe728c",
      "contractAddress": null,
      "l1BaseFeeScalar": "0x8dd",
      "l1BlobBaseFee": "0x2",
      "l1BlobBaseFeeScalar": "0x101c12",
      "l1Fee": "0x36827478",
      "l1GasPrice": "0xd62d685",
      "l1GasUsed": "0x702"
    }
  ],
  "libraries": [],
  "pending": [],
  "returns": {},
  "timestamp": 1758175684882,
  "chain": 8453,
  "commit": "6c82bda"
}