{
  "transactions": [
    {
      "hash": "0xe2dfa88991aaac22f9728413996d93f75330cb56b93386cc0c4837d4029836e5",
      "transactionType": "CALL",
      "contractName": null,
      "contractAddress": "0x1a44076050125825900e736c501f859c50fe728c",
      "function": "setSendLibrary(address,uint32,address)",
      "arguments": [
        "0x180a187a676f7efd71A8B81cf1a998cc6816bD70",
        "30184",
        "0xB5320B0B3a13cC860893E2Bd79FCd7e13484Dda2"
      ],
      "transaction": {
        "from": "0x0ece75f3c36f7df2136dac7633165dbff53de3cd",
        "to": "0x1a44076050125825900e736c501f859c50fe728c",
        "gas": "0x1378b",
        "value": "0x0",
        "input": "0x9535ff30000000000000000000000000180a187a676f7efd71a8b81cf1a998cc6816bd7000000000000000000000000000000000000000000000000000000000000075e8000000000000000000000000b5320b0b3a13cc860893e2bd79fcd7e13484dda2",
        "nonce": "0x97",
        "chainId": "0x2105"
      },
      "additionalContracts": [],
      "isFixedGasLimit": false
    },
    {
      "hash": "0xe6ac28e7d3ff9f5e16dc9791c40d8a1eb79a0144ee7e6a269a453740467759c0",
      "transactionType": "CALL",
      "contractName": null,
      "contractAddress": "0x1a44076050125825900e736c501f859c50fe728c",
      "function": "setSendLibrary(address,uint32,address)",
      "arguments": [
        "0x180a187a676f7efd71A8B81cf1a998cc6816bD70",
        "30150",
        "0xB5320B0B3a13cC860893E2Bd79FCd7e13484Dda2"
      ],
      "transaction": {
        "from": "0x0ece75f3c36f7df2136dac7633165dbff53de3cd",
        "to": "0x1a44076050125825900e736c501f859c50fe728c",
        "gas": "0x1378b",
        "value": "0x0",
        "input": "0x9535ff30000000000000000000000000180a187a676f7efd71a8b81cf1a998cc6816bd7000000000000000000000000000000000000000000000000000000000000075c6000000000000000000000000b5320b0b3a13cc860893e2bd79fcd7e13484dda2",
        "nonce": "0x98",
        "chainId": "0x2105"
      },
      "additionalContracts": [],
      "isFixedGasLimit": false
    },
    {
      "hash": "0x76f918a79e57f046019141eef8b7ca488b61ddfe8f3d1506585738c0516df3b8",
      "transactionType": "CALL",
      "contractName": null,
      "contractAddress": "0x1a44076050125825900e736c501f859c50fe728c",
      "function": "setReceiveLibrary(address,uint32,address,uint256)",
      "arguments": [
        "0x180a187a676f7efd71A8B81cf1a998cc6816bD70",
        "30184",
        "0xc70AB6f32772f59fBfc23889Caf4Ba3376C84bAf",
        "0"
      ],
      "transaction": {
        "from": "0x0ece75f3c36f7df2136dac7633165dbff53de3cd",
        "to": "0x1a44076050125825900e736c501f859c50fe728c",
        "gas": "0x17001",
        "value": "0x0",
        "input": "0x6a14d715000000000000000000000000180a187a676f7efd71a8b81cf1a998cc6816bd7000000000000000000000000000000000000000000000000000000000000075e8000000000000000000000000c70ab6f32772f59fbfc23889caf4ba3376c84baf0000000000000000000000000000000000000000000000000000000000000000",
        "nonce": "0x99",
        "chainId": "0x2105"
      },
      "additionalContracts": [],
      "isFixedGasLimit": false
    },
    {
      "hash": "0xafcac34fe5dc8bc1a749fd2d521baf90cbb5f752984d24cfdb75b9b5db864afc",
      "transactionType": "CALL",
      "contractName": null,
      "contractAddress": "0x1a44076050125825900e736c501f859c50fe728c",
      "function": "setConfig(address,address,(uint32,uint32,bytes)[])",
      "arguments": [
        "0x180a187a676f7efd71A8B81cf1a998cc6816bD70",
        "0xB5320B0B3a13cC860893E2Bd79FCd7e13484Dda2",
        "[(30184, 1, 0x00000000000000000000000000000000000000000000000000000000000027100000000000000000000000002cca08ae69e0c44b18a57ab2a87644234daebae4), (30184, 2, 0x0000000000000000000000000000000000000000000000000000000000000020000000000000000000000000000000000000000000000000000000000000000f000000000000000000000000000000000000000000000000000000000000000200000000000000000000000000000000000000000000000000000000000000ff000000000000000000000000000000000000000000000000000000000000000000000000000000000000000000000000000000000000000000000000000000c000000000000000000000000000000000000000000000000000000000000001200000000000000000000000000000000000000000000000000000000000000002000000000000000000000000554833698ae0fb22ecc90b01222903fd62ca4b47000000000000000000000000a7b5189bca84cd304d8553977c7c614329750d990000000000000000000000000000000000000000000000000000000000000000), (30150, 1, 0x00000000000000000000000000000000000000000000000000000000000027100000000000000000000000002cca08ae69e0c44b18a57ab2a87644234daebae4), (30150, 2, 0x0000000000000000000000000000000000000000000000000000000000000020000000000000000000000000000000000000000000000000000000000000000f000000000000000000000000000000000000000000000000000000000000000200000000000000000000000000000000000000000000000000000000000000ff000000000000000000000000000000000000000000000000000000000000000000000000000000000000000000000000000000000000000000000000000000c000000000000000000000000000000000000000000000000000000000000001200000000000000000000000000000000000000000000000000000000000000002000000000000000000000000554833698ae0fb22ecc90b01222903fd62ca4b47000000000000000000000000a7b5189bca84cd304d8553977c7c614329750d990000000000000000000000000000000000000000000000000000000000000000)]"
      ],
      "transaction": {
        "from": "0x0ece75f3c36f7df2136dac7633165dbff53de3cd",
        "to": "0x1a44076050125825900e736c501f859c50fe728c",
        "gas": "0x6607c",
        "value": "0x0",
        "input": "0x6dbd9f90000000000000000000000000180a187a676f7efd71a8b81cf1a998cc6816bd70000000000000000000000000b5320b0b3a13cc860893e2bd79fcd7e13484dda20000000000000000000000000000000000000000000000000000000000000060000000000000000000000000000000000000000000000000000000000000000400000000000000000000000000000000000000000000000000000000000000800000000000000000000000000000000000000000000000000000000000000140000000000000000000000000000000000000000000000000000000000000032000000000000000000000000000000000000000000000000000000000000003e000000000000000000000000000000000000000000000000000000000000075e800000000000000000000000000000000000000000000000000000000000000010000000000000000000000000000000000000000000000000000000000000060000000000000000000000000000000000000000000000000000000000000004000000000000000000000000000000000000000000000000000000000000027100000000000000000000000002cca08ae69e0c44b18a57ab2a87644234daebae400000000000000000000000000000000000000000000000000000000000075e80000000000000000000000000000000000000000000000000000000000000002000000000000000000000000000000000000000000000000000000000000006000000000000000000000000000000000000000000000000000000000000001600000000000000000000000000000000000000000000000000000000000000020000000000000000000000000000000000000000000000000000000000000000f000000000000000000000000000000000000000000000000000000000000000200000000000000000000000000000000000000000000000000000000000000ff000000000000000000000000000000000000000000000000000000000000000000000000000000000000000000000000000000000000000000000000000000c000000000000000000000000000000000000000000000000000000000000001200000000000000000000000000000000000000000000000000000000000000002000000000000000000000000554833698ae0fb22ecc90b01222903fd62ca4b47000000000000000000000000a7b5189bca84cd304d8553977c7c614329750d99000000000000000000000000000000000000000000000000000000000000000000000000000000000000000000000000000000000000000000000000000075c600000000000000000000000000000000000000000000000000000000000000010000000000000000000000000000000000000000000000000000000000000060000000000000000000000000000000000000000000000000000000000000004000000000000000000000000000000000000000000000000000000000000027100000000000000000000000002cca08ae69e0c44b18a57ab2a87644234daebae400000000000000000000000000000000000000000000000000000000000075c60000000000000000000000000000000000000000000000000000000000000002000000000000000000000000000000000000000000000000000000000000006000000000000000000000000000000000000000000000000000000000000001600000000000000000000000000000000000000000000000000000000000000020000000000000000000000000000000000000000000000000000000000000000f000000000000000000000000000000000000000000000000000000000000000200000000000000000000000000000000000000000000000000000000000000ff000000000000000000000000000000000000000000000000000000000000000000000000000000000000000000000000000000000000000000000000000000c000000000000000000000000000000000000000000000000000000000000001200000000000000000000000000000000000000000000000000000000000000002000000000000000000000000554833698ae0fb22ecc90b01222903fd62ca4b47000000000000000000000000a7b5189bca84cd304d8553977c7c614329750d990000000000000000000000000000000000000000000000000000000000000000",
        "nonce": "0x9a",
        "chainId": "0x2105"
      },
      "additionalContracts": [],
      "isFixedGasLimit": false
    },
    {
      "hash": "0x71eb71b18bd9614fbf95cbc4b5ab372c51ec2412293637c1c4dc626da9454631",
      "transactionType": "CALL",
      "contractName": null,
      "contractAddress": "0x1a44076050125825900e736c501f859c50fe728c",
      "function": "setConfig(address,address,(uint32,uint32,bytes)[])",
      "arguments": [
        "0x180a187a676f7efd71A8B81cf1a998cc6816bD70",
        "0xc70AB6f32772f59fBfc23889Caf4Ba3376C84bAf",
        "[(30184, 2, 0x0000000000000000000000000000000000000000000000000000000000000020000000000000000000000000000000000000000000000000000000000000000f000000000000000000000000000000000000000000000000000000000000000200000000000000000000000000000000000000000000000000000000000000ff000000000000000000000000000000000000000000000000000000000000000000000000000000000000000000000000000000000000000000000000000000c000000000000000000000000000000000000000000000000000000000000001200000000000000000000000000000000000000000000000000000000000000002000000000000000000000000554833698ae0fb22ecc90b01222903fd62ca4b47000000000000000000000000a7b5189bca84cd304d8553977c7c614329750d990000000000000000000000000000000000000000000000000000000000000000), (30150, 2, 0x0000000000000000000000000000000000000000000000000000000000000020000000000000000000000000000000000000000000000000000000000000000f000000000000000000000000000000000000000000000000000000000000000200000000000000000000000000000000000000000000000000000000000000ff000000000000000000000000000000000000000000000000000000000000000000000000000000000000000000000000000000000000000000000000000000c000000000000000000000000000000000000000000000000000000000000001200000000000000000000000000000000000000000000000000000000000000002000000000000000000000000554833698ae0fb22ecc90b01222903fd62ca4b47000000000000000000000000a7b5189bca84cd304d8553977c7c614329750d990000000000000000000000000000000000000000000000000000000000000000)]"
      ],
      "transaction": {
        "from": "0x0ece75f3c36f7df2136dac7633165dbff53de3cd",
        "to": "0x1a44076050125825900e736c501f859c50fe728c",
        "gas": "0x5818a",
        "value": "0x0",
        "input": "0x6dbd9f90000000000000000000000000180a187a676f7efd71a8b81cf1a998cc6816bd70000000000000000000000000c70ab6f32772f59fbfc23889caf4ba3376c84baf000000000000000000000000000000000000000000000000000000000000006000000000000000000000000000000000000000000000000000000000000000020000000000000000000000000000000000000000000000000000000000000040000000000000000000000000000000000000000000000000000000000000022000000000000000000000000000000000000000000000000000000000000075e80000000000000000000000000000000000000000000000000000000000000002000000000000000000000000000000000000000000000000000000000000006000000000000000000000000000000000000000000000000000000000000001600000000000000000000000000000000000000000000000000000000000000020000000000000000000000000000000000000000000000000000000000000000f000000000000000000000000000000000000000000000000000000000000000200000000000000000000000000000000000000000000000000000000000000ff000000000000000000000000000000000000000000000000000000000000000000000000000000000000000000000000000000000000000000000000000000c000000000000000000000000000000000000000000000000000000000000001200000000000000000000000000000000000000000000000000000000000000002000000000000000000000000554833698ae0fb22ecc90b01222903fd62ca4b47000000000000000000000000a7b5189bca84cd304d8553977c7c614329750d99000000000000000000000000000000000000000000000000000000000000000000000000000000000000000000000000000000000000000000000000000075c60000000000000000000000000000000000000000000000000000000000000002000000000000000000000000000000000000000000000000000000000000006000000000000000000000000000000000000000000000000000000000000001600000000000000000000000000000000000000000000000000000000000000020000000000000000000000000000000000000000000000000000000000000000f000000000000000000000000000000000000000000000000000000000000000200000000000000000000000000000000000000000000000000000000000000ff000000000000000000000000000000000000000000000000000000000000000000000000000000000000000000000000000000000000000000000000000000c000000000000000000000000000000000000000000000000000000000000001200000000000000000000000000000000000000000000000000000000000000002000000000000000000000000554833698ae0fb22ecc90b01222903fd62ca4b47000000000000000000000000a7b5189bca84cd304d8553977c7c614329750d990000000000000000000000000000000000000000000000000000000000000000",
        "nonce": "0x9b",
        "chainId": "0x2105"
      },
      "additionalContracts": [],
      "isFixedGasLimit": false
    },
    {
      "hash": "0xad1267965456318e6b2a7a2b107b4bf95f3899ab8b6a76ef928bad6332cc1e5e",
      "transactionType": "CALL",
      "contractName": null,
      "contractAddress": "0x180a187a676f7efd71a8b81cf1a998cc6816bd70",
      "function": "setPeer(uint32,bytes32)",
      "arguments": [
        "30184",
        "0x000000000000000000000000180a187a676f7efd71a8b81cf1a998cc6816bd70"
      ],
      "transaction": {
        "from": "0x0ece75f3c36f7df2136dac7633165dbff53de3cd",
        "to": "0x180a187a676f7efd71a8b81cf1a998cc6816bd70",
        "gas": "0x104a6",
        "value": "0x0",
        "input": "0x3400288b00000000000000000000000000000000000000000000000000000000000075e8000000000000000000000000180a187a676f7efd71a8b81cf1a998cc6816bd70",
        "nonce": "0x9c",
        "chainId": "0x2105"
      },
      "additionalContracts": [],
      "isFixedGasLimit": false
    },
    {
      "hash": "0x374a767a20a3017ab2e2424934e4e28b7a04bad348421bbc1425b9aeb7216bc8",
      "transactionType": "CALL",
      "contractName": null,
      "contractAddress": "0x180a187a676f7efd71a8b81cf1a998cc6816bd70",
      "function": "setPeer(uint32,bytes32)",
      "arguments": [
        "30150",
        "0x000000000000000000000000180a187a676f7efd71a8b81cf1a998cc6816bd70"
      ],
      "transaction": {
        "from": "0x0ece75f3c36f7df2136dac7633165dbff53de3cd",
        "to": "0x180a187a676f7efd71a8b81cf1a998cc6816bd70",
        "gas": "0x104a6",
        "value": "0x0",
        "input": "0x3400288b00000000000000000000000000000000000000000000000000000000000075c6000000000000000000000000180a187a676f7efd71a8b81cf1a998cc6816bd70",
        "nonce": "0x9d",
        "chainId": "0x2105"
      },
      "additionalContracts": [],
      "isFixedGasLimit": false
    },
    {
      "hash": "0x480e2e80a137c38c1cc042ca50fa3b9ac164453d645ccd5687e5c6506340218b",
      "transactionType": "CALL",
      "contractName": null,
      "contractAddress": "0x180a187a676f7efd71a8b81cf1a998cc6816bd70",
      "function": "setEnforcedOptions((uint32,uint16,bytes)[])",
      "arguments": [
        "[(30184, 1, 0x00030100110100000000000000000000000000013880), (30150, 1, 0x000301001101000000000000000000000000000186a0)]"
      ],
      "transaction": {
        "from": "0x0ece75f3c36f7df2136dac7633165dbff53de3cd",
        "to": "0x180a187a676f7efd71a8b81cf1a998cc6816bd70",
        "gas": "0x1bd63",
        "value": "0x0",
        "input": "0xb98bd07000000000000000000000000000000000000000000000000000000000000000200000000000000000000000000000000000000000000000000000000000000002000000000000000000000000000000000000000000000000000000000000004000000000000000000000000000000000000000000000000000000000000000e000000000000000000000000000000000000000000000000000000000000075e8000000000000000000000000000000000000000000000000000000000000000100000000000000000000000000000000000000000000000000000000000000600000000000000000000000000000000000000000000000000000000000000016000301001101000000000000000000000000000138800000000000000000000000000000000000000000000000000000000000000000000000000000000075c6000000000000000000000000000000000000000000000000000000000000000100000000000000000000000000000000000000000000000000000000000000600000000000000000000000000000000000000000000000000000000000000016000301001101000000000000000000000000000186a000000000000000000000",
        "nonce": "0x9e",
        "chainId": "0x2105"
      },
      "additionalContracts": [],
      "isFixedGasLimit": false
    }
  ],
  "receipts": [
    {
      "status": "0x1",
      "cumulativeGasUsed": "0xcdf9b3",
      "logs": [
        {
          "address": "0x1a44076050125825900e736c501f859c50fe728c",
          "topics": [
            "0x4cff966ebee29a156dcb34cf72c1d06231fb1777f6bdf6e8089819232f002b1c"
          ],
          "data": "0x000000000000000000000000180a187a676f7efd71a8b81cf1a998cc6816bd7000000000000000000000000000000000000000000000000000000000000075e8000000000000000000000000b5320b0b3a13cc860893e2bd79fcd7e13484dda2",
          "blockHash": "0x269e36437c515e5c242582fa4b190b345fb6dd8823e2d7cf61b3210100a80d9f",
          "blockNumber": "0x220a12e",
          "blockTimestamp": "0x68cb9f3f",
          "transactionHash": "0xe2dfa88991aaac22f9728413996d93f75330cb56b93386cc0c4837d4029836e5",
          "transactionIndex": "0x5a",
          "logIndex": "0x111",
          "removed": false
        }
      ],
      "logsBloom": "0x00000000000000000000000000000000000200000000000000000000001000000000000000000000000000000000000000000000000000000000000001000000000000000000000000000000000000000000000000000000000000000000000000000000000000000000000000000000000000000010000000000000000000000000000000000000000000000000000000000000000000000000000000000000000000000000000000000000000000000000000000000000000000000000000000000000000000000000000000000000000000000000000000000000000000000040000000000000000000000000000000000000010000000000000000000000",
      "type": "0x2",
      "transactionHash": "0xe2dfa88991aaac22f9728413996d93f75330cb56b93386cc0c4837d4029836e5",
      "transactionIndex": "0x5a",
      "blockHash": "0x269e36437c515e5c242582fa4b190b345fb6dd8823e2d7cf61b3210100a80d9f",
      "blockNumber": "0x220a12e",
      "gasUsed": "0xe18e",
      "effectiveGasPrice": "0x3503d1",
      "from": "0x0ece75f3c36f7df2136dac7633165dbff53de3cd",
      "to": "0x1a44076050125825900e736c501f859c50fe728c",
      "contractAddress": null,
      "l1BaseFeeScalar": "0x8dd",
      "l1BlobBaseFee": "0x1",
      "l1BlobBaseFeeScalar": "0x101c12",
      "l1Fee": "0x25e13910",
      "l1GasPrice": "0x9d08a3e",
      "l1GasUsed": "0x6a4"
    },
    {
      "status": "0x1",
      "cumulativeGasUsed": "0xcedb41",
      "logs": [
        {
          "address": "0x1a44076050125825900e736c501f859c50fe728c",
          "topics": [
            "0x4cff966ebee29a156dcb34cf72c1d06231fb1777f6bdf6e8089819232f002b1c"
          ],
          "data": "0x000000000000000000000000180a187a676f7efd71a8b81cf1a998cc6816bd7000000000000000000000000000000000000000000000000000000000000075c6000000000000000000000000b5320b0b3a13cc860893e2bd79fcd7e13484dda2",
          "blockHash": "0x269e36437c515e5c242582fa4b190b345fb6dd8823e2d7cf61b3210100a80d9f",
          "blockNumber": "0x220a12e",
          "blockTimestamp": "0x68cb9f3f",
          "transactionHash": "0xe6ac28e7d3ff9f5e16dc9791c40d8a1eb79a0144ee7e6a269a453740467759c0",
          "transactionIndex": "0x5b",
          "logIndex": "0x112",
          "removed": false
        }
      ],
      "logsBloom": "0x00000000000000000000000000000000000200000000000000000000001000000000000000000000000000000000000000000000000000000000000001000000000000000000000000000000000000000000000000000000000000000000000000000000000000000000000000000000000000000010000000000000000000000000000000000000000000000000000000000000000000000000000000000000000000000000000000000000000000000000000000000000000000000000000000000000000000000000000000000000000000000000000000000000000000000040000000000000000000000000000000000000010000000000000000000000",
      "type": "0x2",
      "transactionHash": "0xe6ac28e7d3ff9f5e16dc9791c40d8a1eb79a0144ee7e6a269a453740467759c0",
      "transactionIndex": "0x5b",
      "blockHash": "0x269e36437c515e5c242582fa4b190b345fb6dd8823e2d7cf61b3210100a80d9f",
      "blockNumber": "0x220a12e",
      "gasUsed": "0xe18e",
      "effectiveGasPrice": "0x3503d1",
      "from": "0x0ece75f3c36f7df2136dac7633165dbff53de3cd",
      "to": "0x1a44076050125825900e736c501f859c50fe728c",
      "contractAddress": null,
      "l1BaseFeeScalar": "0x8dd",
      "l1BlobBaseFee": "0x1",
      "l1BlobBaseFeeScalar": "0x101c12",
      "l1Fee": "0x25e13910",
      "l1GasPrice": "0x9d08a3e",
      "l1GasUsed": "0x6a4"
    },
    {
      "status": "0x1",
      "cumulativeGasUsed": "0xcfd6e2",
      "logs": [
        {
          "address": "0x1a44076050125825900e736c501f859c50fe728c",
          "topics": [
            "0xcd6f92f5ac6185a5acfa02c92090746cec64d777269cbcd0ed031e396657a1c2"
          ],
          "data": "0x000000000000000000000000180a187a676f7efd71a8b81cf1a998cc6816bd7000000000000000000000000000000000000000000000000000000000000075e8000000000000000000000000c70ab6f32772f59fbfc23889caf4ba3376c84baf",
          "blockHash": "0x269e36437c515e5c242582fa4b190b345fb6dd8823e2d7cf61b3210100a80d9f",
          "blockNumber": "0x220a12e",
          "blockTimestamp": "0x68cb9f3f",
          "transactionHash": "0x76f918a79e57f046019141eef8b7ca488b61ddfe8f3d1506585738c0516df3b8",
          "transactionIndex": "0x5c",
          "logIndex": "0x113",
          "removed": false
        },
        {
          "address": "0x1a44076050125825900e736c501f859c50fe728c",
          "topics": [
            "0x4e0a5bbfa0c11a64effb1ada324b5437a17272e1aed9320398715ef71bb20928"
          ],
          "data": "0x000000000000000000000000180a187a676f7efd71a8b81cf1a998cc6816bd7000000000000000000000000000000000000000000000000000000000000075e800000000000000000000000000000000000000000000000000000000000000000000000000000000000000000000000000000000000000000000000000000000",
          "blockHash": "0x269e36437c515e5c242582fa4b190b345fb6dd8823e2d7cf61b3210100a80d9f",
          "blockNumber": "0x220a12e",
          "blockTimestamp": "0x68cb9f3f",
          "transactionHash": "0x76f918a79e57f046019141eef8b7ca488b61ddfe8f3d1506585738c0516df3b8",
          "transactionIndex": "0x5c",
          "logIndex": "0x114",
          "removed": false
        }
      ],
      "logsBloom": "0x00000000000000000000020800000000000000000000000000000000001000020400000000000000000000000000000000000000000000000000000000000000000000000000000000000000000000000000000000800000000000000000000000000000000000000000000000000000000000000010000000000000000000100000000000000000000000000000000000000000000000000000000000000000000000000000000000000000000000000000000000000000000000000000000000000000000000000000000000000000000000000000000000000000000000000000000000000000000000000000000000000000010000000000000000000000",
      "type": "0x2",
      "transactionHash": "0x76f918a79e57f046019141eef8b7ca488b61ddfe8f3d1506585738c0516df3b8",
      "transactionIndex": "0x5c",
      "blockHash": "0x269e36437c515e5c242582fa4b190b345fb6dd8823e2d7cf61b3210100a80d9f",
      "blockNumber": "0x220a12e",
      "gasUsed": "0xfba1",
      "effectiveGasPrice": "0x3503d1",
      "from": "0x0ece75f3c36f7df2136dac7633165dbff53de3cd",
      "to": "0x1a44076050125825900e736c501f859c50fe728c",
      "contractAddress": null,
      "l1BaseFeeScalar": "0x8dd",
      "l1BlobBaseFee": "0x1",
      "l1BlobBaseFeeScalar": "0x101c12",
      "l1Fee": "0x27f7557b",
      "l1GasPrice": "0x9d08a3e",
      "l1GasUsed": "0x702"
    },
    {
      "status": "0x1",
      "cumulativeGasUsed": "0xd474c6",
      "logs": [
        {
          "address": "0xb5320b0b3a13cc860893e2bd79fcd7e13484dda2",
          "topics": [
            "0x779cb2dd9d2bb1be1737d05435d744facbfb84a2a4912e21379d39beddcdc805"
          ],
          "data": "0x000000000000000000000000180a187a676f7efd71a8b81cf1a998cc6816bd7000000000000000000000000000000000000000000000000000000000000075e800000000000000000000000000000000000000000000000000000000000027100000000000000000000000002cca08ae69e0c44b18a57ab2a87644234daebae4",
          "blockHash": "0x269e36437c515e5c242582fa4b190b345fb6dd8823e2d7cf61b3210100a80d9f",
          "blockNumber": "0x220a12e",
          "blockTimestamp": "0x68cb9f3f",
          "transactionHash": "0xafcac34fe5dc8bc1a749fd2d521baf90cbb5f752984d24cfdb75b9b5db864afc",
          "transactionIndex": "0x5d",
          "logIndex": "0x115",
          "removed": false
        },
        {
          "address": "0xb5320b0b3a13cc860893e2bd79fcd7e13484dda2",
          "topics": [
            "0x82118522aa536ac0e96cc5c689407ae42b89d592aa133890a01f1509842f5081"
          ],
          "data": "0x000000000000000000000000180a187a676f7efd71a8b81cf1a998cc6816bd7000000000000000000000000000000000000000000000000000000000000075e80000000000000000000000000000000000000000000000000000000000000060000000000000000000000000000000000000000000000000000000000000000f000000000000000000000000000000000000000000000000000000000000000200000000000000000000000000000000000000000000000000000000000000ff000000000000000000000000000000000000000000000000000000000000000000000000000000000000000000000000000000000000000000000000000000c000000000000000000000000000000000000000000000000000000000000001200000000000000000000000000000000000000000000000000000000000000002000000000000000000000000554833698ae0fb22ecc90b01222903fd62ca4b47000000000000000000000000a7b5189bca84cd304d8553977c7c614329750d990000000000000000000000000000000000000000000000000000000000000000",
          "blockHash": "0x269e36437c515e5c242582fa4b190b345fb6dd8823e2d7cf61b3210100a80d9f",
          "blockNumber": "0x220a12e",
          "blockTimestamp": "0x68cb9f3f",
          "transactionHash": "0xafcac34fe5dc8bc1a749fd2d521baf90cbb5f752984d24cfdb75b9b5db864afc",
          "transactionIndex": "0x5d",
          "logIndex": "0x116",
          "removed": false
        },
        {
          "address": "0xb5320b0b3a13cc860893e2bd79fcd7e13484dda2",
          "topics": [
            "0x779cb2dd9d2bb1be1737d05435d744facbfb84a2a4912e21379d39beddcdc805"
          ],
          "data": "0x000000000000000000000000180a187a676f7efd71a8b81cf1a998cc6816bd7000000000000000000000000000000000000000000000000000000000000075c600000000000000000000000000000000000000000000000000000000000027100000000000000000000000002cca08ae69e0c44b18a57ab2a87644234daebae4",
          "blockHash": "0x269e36437c515e5c242582fa4b190b345fb6dd8823e2d7cf61b3210100a80d9f",
          "blockNumber": "0x220a12e",
          "blockTimestamp": "0x68cb9f3f",
          "transactionHash": "0xafcac34fe5dc8bc1a749fd2d521baf90cbb5f752984d24cfdb75b9b5db864afc",
          "transactionIndex": "0x5d",
          "logIndex": "0x117",
          "removed": false
        },
        {
          "address": "0xb5320b0b3a13cc860893e2bd79fcd7e13484dda2",
          "topics": [
            "0x82118522aa536ac0e96cc5c689407ae42b89d592aa133890a01f1509842f5081"
          ],
          "data": "0x000000000000000000000000180a187a676f7efd71a8b81cf1a998cc6816bd7000000000000000000000000000000000000000000000000000000000000075c60000000000000000000000000000000000000000000000000000000000000060000000000000000000000000000000000000000000000000000000000000000f000000000000000000000000000000000000000000000000000000000000000200000000000000000000000000000000000000000000000000000000000000ff000000000000000000000000000000000000000000000000000000000000000000000000000000000000000000000000000000000000000000000000000000c000000000000000000000000000000000000000000000000000000000000001200000000000000000000000000000000000000000000000000000000000000002000000000000000000000000554833698ae0fb22ecc90b01222903fd62ca4b47000000000000000000000000a7b5189bca84cd304d8553977c7c614329750d990000000000000000000000000000000000000000000000000000000000000000",
          "blockHash": "0x269e36437c515e5c242582fa4b190b345fb6dd8823e2d7cf61b3210100a80d9f",
          "blockNumber": "0x220a12e",
          "blockTimestamp": "0x68cb9f3f",
          "transactionHash": "0xafcac34fe5dc8bc1a749fd2d521baf90cbb5f752984d24cfdb75b9b5db864afc",
          "transactionIndex": "0x5d",
          "logIndex": "0x118",
          "removed": false
        }
      ],
      "logsBloom": "0x00000000000000000000000000000000000000000000000000000000000000000000000000000000000000000000000000000000000000000000000000000000000000000000000000000440000000000000000000000000002000000000000100000000000000000000000000000000000000000000000000000000000000000000000000000000000000000000000000000000000000000004000000000000000000000000000000000002000000000000000000000000000000000000000200000000000000000000000000000000000000000000000000000000000000000008000000000000000000000000000000000000000000000000000000000010",
      "type": "0x2",
      "transactionHash": "0xafcac34fe5dc8bc1a749fd2d521baf90cbb5f752984d24cfdb75b9b5db864afc",
      "transactionIndex": "0x5d",
      "blockHash": "0x269e36437c515e5c242582fa4b190b345fb6dd8823e2d7cf61b3210100a80d9f",
      "blockNumber": "0x220a12e",
      "gasUsed": "0x49de4",
      "effectiveGasPrice": "0x3503d1",
      "from": "0x0ece75f3c36f7df2136dac7633165dbff53de3cd",
      "to": "0x1a44076050125825900e736c501f859c50fe728c",
      "contractAddress": null,
      "l1BaseFeeScalar": "0x8dd",
      "l1BlobBaseFee": "0x1",
      "l1BlobBaseFeeScalar": "0x101c12",
      "l1Fee": "0x6b537d3d",
      "l1GasPrice": "0x9d08a3e",
      "l1GasUsed": "0x12d3"
    },
    {
      "status": "0x1",
      "cumulativeGasUsed": "0xd83890",
      "logs": [
        {
          "address": "0xc70ab6f32772f59fbfc23889caf4ba3376c84baf",
          "topics": [
            "0x82118522aa536ac0e96cc5c689407ae42b89d592aa133890a01f1509842f5081"
          ],
          "data": "0x000000000000000000000000180a187a676f7efd71a8b81cf1a998cc6816bd7000000000000000000000000000000000000000000000000000000000000075e80000000000000000000000000000000000000000000000000000000000000060000000000000000000000000000000000000000000000000000000000000000f000000000000000000000000000000000000000000000000000000000000000200000000000000000000000000000000000000000000000000000000000000ff000000000000000000000000000000000000000000000000000000000000000000000000000000000000000000000000000000000000000000000000000000c000000000000000000000000000000000000000000000000000000000000001200000000000000000000000000000000000000000000000000000000000000002000000000000000000000000554833698ae0fb22ecc90b01222903fd62ca4b47000000000000000000000000a7b5189bca84cd304d8553977c7c614329750d990000000000000000000000000000000000000000000000000000000000000000",
          "blockHash": "0x269e36437c515e5c242582fa4b190b345fb6dd8823e2d7cf61b3210100a80d9f",
          "blockNumber": "0x220a12e",
          "blockTimestamp": "0x68cb9f3f",
          "transactionHash": "0x71eb71b18bd9614fbf95cbc4b5ab372c51ec2412293637c1c4dc626da9454631",
          "transactionIndex": "0x5e",
          "logIndex": "0x119",
          "removed": false
        },
        {
          "address": "0xc70ab6f32772f59fbfc23889caf4ba3376c84baf",
          "topics": [
            "0x82118522aa536ac0e96cc5c689407ae42b89d592aa133890a01f1509842f5081"
          ],
          "data": "0x000000000000000000000000180a187a676f7efd71a8b81cf1a998cc6816bd7000000000000000000000000000000000000000000000000000000000000075c60000000000000000000000000000000000000000000000000000000000000060000000000000000000000000000000000000000000000000000000000000000f000000000000000000000000000000000000000000000000000000000000000200000000000000000000000000000000000000000000000000000000000000ff000000000000000000000000000000000000000000000000000000000000000000000000000000000000000000000000000000000000000000000000000000c000000000000000000000000000000000000000000000000000000000000001200000000000000000000000000000000000000000000000000000000000000002000000000000000000000000554833698ae0fb22ecc90b01222903fd62ca4b47000000000000000000000000a7b5189bca84cd304d8553977c7c614329750d990000000000000000000000000000000000000000000000000000000000000000",
          "blockHash": "0x269e36437c515e5c242582fa4b190b345fb6dd8823e2d7cf61b3210100a80d9f",
          "blockNumber": "0x220a12e",
          "blockTimestamp": "0x68cb9f3f",
          "transactionHash": "0x71eb71b18bd9614fbf95cbc4b5ab372c51ec2412293637c1c4dc626da9454631",
          "transactionIndex": "0x5e",
          "logIndex": "0x11a",
          "removed": false
        }
      ],
      "logsBloom": "0x00000000000000000000000800000000000000000000000000000000000000000000000000000000000000000000000000000000000000000000000000000000000000000000000000000000000000000000000000000000002000080000000000000000000000000000000000000000000000000000000000000000000000000000000000000000000000000000000000000000000000000000000000000000000000000000000000000002000000000000000000000000000000000000000000000000000000000000000000000000000000000000000000000000000000000000000020000000000000000000000000000000000000000000000000000010",
      "type": "0x2",
      "transactionHash": "0x71eb71b18bd9614fbf95cbc4b5ab372c51ec2412293637c1c4dc626da9454631",
      "transactionIndex": "0x5e",
      "blockHash": "0x269e36437c515e5c242582fa4b190b345fb6dd8823e2d7cf61b3210100a80d9f",
      "blockNumber": "0x220a12e",
      "gasUsed": "0x3c3ca",
      "effectiveGasPrice": "0x3503d1",
      "from": "0x0ece75f3c36f7df2136dac7633165dbff53de3cd",
      "to": "0x1a44076050125825900e736c501f859c50fe728c",
      "contractAddress": null,
      "l1BaseFeeScalar": "0x8dd",
      "l1BlobBaseFee": "0x1",
      "l1BlobBaseFeeScalar": "0x101c12",
      "l1Fee": "0x546044a6",
      "l1GasPrice": "0x9d08a3e",
      "l1GasUsed": "0xecc"
    },
    {
      "status": "0x1",
      "cumulativeGasUsed": "0xd8f545",
      "logs": [
        {
          "address": "0x180a187a676f7efd71a8b81cf1a998cc6816bd70",
          "topics": [
            "0x238399d427b947898edb290f5ff0f9109849b1c3ba196a42e35f00c50a54b98b"
          ],
          "data": "0x00000000000000000000000000000000000000000000000000000000000075e8000000000000000000000000180a187a676f7efd71a8b81cf1a998cc6816bd70",
          "blockHash": "0x269e36437c515e5c242582fa4b190b345fb6dd8823e2d7cf61b3210100a80d9f",
          "blockNumber": "0x220a12e",
          "blockTimestamp": "0x68cb9f3f",
          "transactionHash": "0xad1267965456318e6b2a7a2b107b4bf95f3899ab8b6a76ef928bad6332cc1e5e",
          "transactionIndex": "0x5f",
          "logIndex": "0x11b",
          "removed": false
        }
      ],
      "logsBloom": "0x00000000001000000000000000000000810000000000000000000000000000000000000000000000000000000000000000000000000000000800000000000000000000000000000000000000000000000000000000000000000000000000000000000000000000000000000000000000000000000000000000000000000000000000000000000000000000000000000000000000000000000000000000000000000000000000000000000000000000000000000000000000000002000000000000000000000000000000000000000000000000000000000000040000000000000000000000000000000000000000000000000000000000000000000000000000",
      "type": "0x2",
      "transactionHash": "0xad1267965456318e6b2a7a2b107b4bf95f3899ab8b6a76ef928bad6332cc1e5e",
      "transactionIndex": "0x5f",
      "blockHash": "0x269e36437c515e5c242582fa4b190b345fb6dd8823e2d7cf61b3210100a80d9f",
      "blockNumber": "0x220a12e",
      "gasUsed": "0xbcb5",
      "effectiveGasPrice": "0x3503d1",
      "from": "0x0ece75f3c36f7df2136dac7633165dbff53de3cd",
      "to": "0x180a187a676f7efd71a8b81cf1a998cc6816bd70",
      "contractAddress": null,
      "l1BaseFeeScalar": "0x8dd",
      "l1BlobBaseFee": "0x1",
      "l1BlobBaseFeeScalar": "0x101c12",
      "l1Fee": "0x23a186e0",
      "l1GasPrice": "0x9d08a3e",
      "l1GasUsed": "0x640"
    },
    {
      "status": "0x1",
      "cumulativeGasUsed": "0xd9b1fa",
      "logs": [
        {
          "address": "0x180a187a676f7efd71a8b81cf1a998cc6816bd70",
          "topics": [
            "0x238399d427b947898edb290f5ff0f9109849b1c3ba196a42e35f00c50a54b98b"
          ],
          "data": "0x00000000000000000000000000000000000000000000000000000000000075c6000000000000000000000000180a187a676f7efd71a8b81cf1a998cc6816bd70",
          "blockHash": "0x269e36437c515e5c242582fa4b190b345fb6dd8823e2d7cf61b3210100a80d9f",
          "blockNumber": "0x220a12e",
          "blockTimestamp": "0x68cb9f3f",
          "transactionHash": "0x374a767a20a3017ab2e2424934e4e28b7a04bad348421bbc1425b9aeb7216bc8",
          "transactionIndex": "0x60",
          "logIndex": "0x11c",
          "removed": false
        }
      ],
      "logsBloom": "0x00000000001000000000000000000000810000000000000000000000000000000000000000000000000000000000000000000000000000000800000000000000000000000000000000000000000000000000000000000000000000000000000000000000000000000000000000000000000000000000000000000000000000000000000000000000000000000000000000000000000000000000000000000000000000000000000000000000000000000000000000000000000002000000000000000000000000000000000000000000000000000000000000040000000000000000000000000000000000000000000000000000000000000000000000000000",
      "type": "0x2",
      "transactionHash": "0x374a767a20a3017ab2e2424934e4e28b7a04bad348421bbc1425b9aeb7216bc8",
      "transactionIndex": "0x60",
      "blockHash": "0x269e36437c515e5c242582fa4b190b345fb6dd8823e2d7cf61b3210100a80d9f",
      "blockNumber": "0x220a12e",
      "gasUsed": "0xbcb5",
      "effectiveGasPrice": "0x3503d1",
      "from": "0x0ece75f3c36f7df2136dac7633165dbff53de3cd",
      "to": "0x180a187a676f7efd71a8b81cf1a998cc6816bd70",
      "contractAddress": null,
      "l1BaseFeeScalar": "0x8dd",
      "l1BlobBaseFee": "0x1",
      "l1BlobBaseFeeScalar": "0x101c12",
      "l1Fee": "0x23a186e0",
      "l1GasPrice": "0x9d08a3e",
      "l1GasUsed": "0x640"
    },
    {
      "status": "0x1",
      "cumulativeGasUsed": "0xdaf46e",
      "logs": [
        {
          "address": "0x180a187a676f7efd71a8b81cf1a998cc6816bd70",
          "topics": [
            "0xbe4864a8e820971c0247f5992e2da559595f7bf076a21cb5928d443d2a13b674"
          ],
          "data": "0x00000000000000000000000000000000000000000000000000000000000000200000000000000000000000000000000000000000000000000000000000000002000000000000000000000000000000000000000000000000000000000000004000000000000000000000000000000000000000000000000000000000000000e000000000000000000000000000000000000000000000000000000000000075e8000000000000000000000000000000000000000000000000000000000000000100000000000000000000000000000000000000000000000000000000000000600000000000000000000000000000000000000000000000000000000000000016000301001101000000000000000000000000000138800000000000000000000000000000000000000000000000000000000000000000000000000000000075c6000000000000000000000000000000000000000000000000000000000000000100000000000000000000000000000000000000000000000000000000000000600000000000000000000000000000000000000000000000000000000000000016000301001101000000000000000000000000000186a000000000000000000000",
          "blockHash": "0x47af465ec9ba08736e9db9961f73bf0ad1d8abc22e3c6ad8830247a040001a84",
          "blockNumber": "0x220a12e",
          "blockTimestamp": "0x68cb9f3f",
          "transactionHash": "0x480e2e80a137c38c1cc042ca50fa3b9ac164453d645ccd5687e5c6506340218b",
          "transactionIndex": "0x61",
          "logIndex": "0x11d",
          "removed": false
        }
      ],
      "logsBloom": "0x00000000001000000000000000000000810000000000000000000000000000000000000000000000000000000000000000000000000000000000400000000000000000000000000000000000000000000000000000000000000000000000000000000000000000000000000000000000000000000000000000000000000000000000000000000000000000000000000000000000000000000000000000080000000000000000000000000000000000000000000000000000000000000000000000000000000000000000000002000000000000000000000000000000000000000000000000000000000000000000000000000000000000000000000000000000",
      "type": "0x2",
      "transactionHash": "0x480e2e80a137c38c1cc042ca50fa3b9ac164453d645ccd5687e5c6506340218b",
      "transactionIndex": "0x61",
      "blockHash": "0x47af465ec9ba08736e9db9961f73bf0ad1d8abc22e3c6ad8830247a040001a84",
      "blockNumber": "0x220a12e",
      "gasUsed": "0x14274",
      "effectiveGasPrice": "0x3503d1",
      "from": "0x0ece75f3c36f7df2136dac7633165dbff53de3cd",
      "to": "0x180a187a676f7efd71a8b81cf1a998cc6816bd70",
      "contractAddress": null,
      "l1BaseFeeScalar": "0x8dd",
      "l1BlobBaseFee": "0x1",
      "l1BlobBaseFeeScalar": "0x101c12",
      "l1Fee": "0x3134aec1",
      "l1GasPrice": "0x9d08a3e",
      "l1GasUsed": "0x8a1"
    }
  ],
  "libraries": [],
  "pending": [],
  "returns": {},
  "timestamp": 1758175039434,
  "chain": 8453,
  "commit": "6c82bda"
}