{
  "transactions": [
    {
      "hash": "0x0c55ad5e84ebf294e16d4d90aef78d4fba4dd6fa4eeb6833f7d8dc21b59618ac",
      "transactionType": "CALL",
      "contractName": null,
      "contractAddress": "0x1a44076050125825900e736c501f859c50fe728c",
      "function": "setSendLibrary(address,uint32,address)",
      "arguments": [
        "0x0E732f3686495F53951d3B9953665b52F3F99887",
        "30184",
        "0xB5320B0B3a13cC860893E2Bd79FCd7e13484Dda2"
      ],
      "transaction": {
        "from": "0x0ece75f3c36f7df2136dac7633165dbff53de3cd",
        "to": "0x1a44076050125825900e736c501f859c50fe728c",
        "gas": "0x1378b",
        "value": "0x0",
        "input": "0x9535ff300000000000000000000000000e732f3686495f53951d3b9953665b52f3f9988700000000000000000000000000000000000000000000000000000000000075e8000000000000000000000000b5320b0b3a13cc860893e2bd79fcd7e13484dda2",
        "nonce": "0x123",
        "chainId": "0x2105"
      },
      "additionalContracts": [],
      "isFixedGasLimit": false
    },
    {
      "hash": "0x96bbdf1dae52ce6a61ddbc72435eac2c8cc88487b7a0f2a38d56722d8b966168",
      "transactionType": "CALL",
      "contractName": null,
      "contractAddress": "0x1a44076050125825900e736c501f859c50fe728c",
      "function": "setSendLibrary(address,uint32,address)",
      "arguments": [
        "0x0E732f3686495F53951d3B9953665b52F3F99887",
        "30150",
        "0xB5320B0B3a13cC860893E2Bd79FCd7e13484Dda2"
      ],
      "transaction": {
        "from": "0x0ece75f3c36f7df2136dac7633165dbff53de3cd",
        "to": "0x1a44076050125825900e736c501f859c50fe728c",
        "gas": "0x1378b",
        "value": "0x0",
        "input": "0x9535ff300000000000000000000000000e732f3686495f53951d3b9953665b52f3f9988700000000000000000000000000000000000000000000000000000000000075c6000000000000000000000000b5320b0b3a13cc860893e2bd79fcd7e13484dda2",
        "nonce": "0x124",
        "chainId": "0x2105"
      },
      "additionalContracts": [],
      "isFixedGasLimit": false
    },
    {
      "hash": "0x6ed3bd4325ffb5b364c0f66de9f5cdf48ec8bae87514613ca1ba267591c29ed0",
      "transactionType": "CALL",
      "contractName": null,
      "contractAddress": "0x1a44076050125825900e736c501f859c50fe728c",
      "function": "setReceiveLibrary(address,uint32,address,uint256)",
      "arguments": [
        "0x0E732f3686495F53951d3B9953665b52F3F99887",
        "30184",
        "0xc70AB6f32772f59fBfc23889Caf4Ba3376C84bAf",
        "0"
      ],
      "transaction": {
        "from": "0x0ece75f3c36f7df2136dac7633165dbff53de3cd",
        "to": "0x1a44076050125825900e736c501f859c50fe728c",
        "gas": "0x17001",
        "value": "0x0",
        "input": "0x6a14d7150000000000000000000000000e732f3686495f53951d3b9953665b52f3f9988700000000000000000000000000000000000000000000000000000000000075e8000000000000000000000000c70ab6f32772f59fbfc23889caf4ba3376c84baf0000000000000000000000000000000000000000000000000000000000000000",
        "nonce": "0x125",
        "chainId": "0x2105"
      },
      "additionalContracts": [],
      "isFixedGasLimit": false
    },
    {
      "hash": "0x0b5195ba5031e843bd4de2b2e6afb7f20dcdaeb7e855e825eef05a9ce2c561fd",
      "transactionType": "CALL",
      "contractName": null,
      "contractAddress": "0x1a44076050125825900e736c501f859c50fe728c",
      "function": "setConfig(address,address,(uint32,uint32,bytes)[])",
      "arguments": [
        "0x0E732f3686495F53951d3B9953665b52F3F99887",
        "0xB5320B0B3a13cC860893E2Bd79FCd7e13484Dda2",
        "[(30184, 1, 0x00000000000000000000000000000000000000000000000000000000000027100000000000000000000000002cca08ae69e0c44b18a57ab2a87644234daebae4), (30184, 2, 0x0000000000000000000000000000000000000000000000000000000000000020000000000000000000000000000000000000000000000000000000000000000f000000000000000000000000000000000000000000000000000000000000000200000000000000000000000000000000000000000000000000000000000000ff000000000000000000000000000000000000000000000000000000000000000000000000000000000000000000000000000000000000000000000000000000c000000000000000000000000000000000000000000000000000000000000001200000000000000000000000000000000000000000000000000000000000000002000000000000000000000000554833698ae0fb22ecc90b01222903fd62ca4b47000000000000000000000000a7b5189bca84cd304d8553977c7c614329750d990000000000000000000000000000000000000000000000000000000000000000), (30150, 1, 0x00000000000000000000000000000000000000000000000000000000000027100000000000000000000000002cca08ae69e0c44b18a57ab2a87644234daebae4), (30150, 2, 0x0000000000000000000000000000000000000000000000000000000000000020000000000000000000000000000000000000000000000000000000000000000f000000000000000000000000000000000000000000000000000000000000000200000000000000000000000000000000000000000000000000000000000000ff000000000000000000000000000000000000000000000000000000000000000000000000000000000000000000000000000000000000000000000000000000c000000000000000000000000000000000000000000000000000000000000001200000000000000000000000000000000000000000000000000000000000000002000000000000000000000000554833698ae0fb22ecc90b01222903fd62ca4b47000000000000000000000000a7b5189bca84cd304d8553977c7c614329750d990000000000000000000000000000000000000000000000000000000000000000)]"
      ],
      "transaction": {
        "from": "0x0ece75f3c36f7df2136dac7633165dbff53de3cd",
        "to": "0x1a44076050125825900e736c501f859c50fe728c",
        "gas": "0x6607c",
        "value": "0x0",
        "input": "0x6dbd9f900000000000000000000000000e732f3686495f53951d3b9953665b52f3f99887000000000000000000000000b5320b0b3a13cc860893e2bd79fcd7e13484dda20000000000000000000000000000000000000000000000000000000000000060000000000000000000000000000000000000000000000000000000000000000400000000000000000000000000000000000000000000000000000000000000800000000000000000000000000000000000000000000000000000000000000140000000000000000000000000000000000000000000000000000000000000032000000000000000000000000000000000000000000000000000000000000003e000000000000000000000000000000000000000000000000000000000000075e800000000000000000000000000000000000000000000000000000000000000010000000000000000000000000000000000000000000000000000000000000060000000000000000000000000000000000000000000000000000000000000004000000000000000000000000000000000000000000000000000000000000027100000000000000000000000002cca08ae69e0c44b18a57ab2a87644234daebae400000000000000000000000000000000000000000000000000000000000075e80000000000000000000000000000000000000000000000000000000000000002000000000000000000000000000000000000000000000000000000000000006000000000000000000000000000000000000000000000000000000000000001600000000000000000000000000000000000000000000000000000000000000020000000000000000000000000000000000000000000000000000000000000000f000000000000000000000000000000000000000000000000000000000000000200000000000000000000000000000000000000000000000000000000000000ff000000000000000000000000000000000000000000000000000000000000000000000000000000000000000000000000000000000000000000000000000000c000000000000000000000000000000000000000000000000000000000000001200000000000000000000000000000000000000000000000000000000000000002000000000000000000000000554833698ae0fb22ecc90b01222903fd62ca4b47000000000000000000000000a7b5189bca84cd304d8553977c7c614329750d99000000000000000000000000000000000000000000000000000000000000000000000000000000000000000000000000000000000000000000000000000075c600000000000000000000000000000000000000000000000000000000000000010000000000000000000000000000000000000000000000000000000000000060000000000000000000000000000000000000000000000000000000000000004000000000000000000000000000000000000000000000000000000000000027100000000000000000000000002cca08ae69e0c44b18a57ab2a87644234daebae400000000000000000000000000000000000000000000000000000000000075c60000000000000000000000000000000000000000000000000000000000000002000000000000000000000000000000000000000000000000000000000000006000000000000000000000000000000000000000000000000000000000000001600000000000000000000000000000000000000000000000000000000000000020000000000000000000000000000000000000000000000000000000000000000f000000000000000000000000000000000000000000000000000000000000000200000000000000000000000000000000000000000000000000000000000000ff000000000000000000000000000000000000000000000000000000000000000000000000000000000000000000000000000000000000000000000000000000c000000000000000000000000000000000000000000000000000000000000001200000000000000000000000000000000000000000000000000000000000000002000000000000000000000000554833698ae0fb22ecc90b01222903fd62ca4b47000000000000000000000000a7b5189bca84cd304d8553977c7c614329750d990000000000000000000000000000000000000000000000000000000000000000",
        "nonce": "0x126",
        "chainId": "0x2105"
      },
      "additionalContracts": [],
      "isFixedGasLimit": false
    },
    {
      "hash": "0x38c64436c47f13d9c9e7093747146f446a8933ad1718f16a5e5f731f46aef400",
      "transactionType": "CALL",
      "contractName": null,
      "contractAddress": "0x1a44076050125825900e736c501f859c50fe728c",
      "function": "setConfig(address,address,(uint32,uint32,bytes)[])",
      "arguments": [
        "0x0E732f3686495F53951d3B9953665b52F3F99887",
        "0xc70AB6f32772f59fBfc23889Caf4Ba3376C84bAf",
        "[(30184, 2, 0x0000000000000000000000000000000000000000000000000000000000000020000000000000000000000000000000000000000000000000000000000000000f000000000000000000000000000000000000000000000000000000000000000200000000000000000000000000000000000000000000000000000000000000ff000000000000000000000000000000000000000000000000000000000000000000000000000000000000000000000000000000000000000000000000000000c000000000000000000000000000000000000000000000000000000000000001200000000000000000000000000000000000000000000000000000000000000002000000000000000000000000554833698ae0fb22ecc90b01222903fd62ca4b47000000000000000000000000a7b5189bca84cd304d8553977c7c614329750d990000000000000000000000000000000000000000000000000000000000000000), (30150, 2, 0x0000000000000000000000000000000000000000000000000000000000000020000000000000000000000000000000000000000000000000000000000000000f000000000000000000000000000000000000000000000000000000000000000200000000000000000000000000000000000000000000000000000000000000ff000000000000000000000000000000000000000000000000000000000000000000000000000000000000000000000000000000000000000000000000000000c000000000000000000000000000000000000000000000000000000000000001200000000000000000000000000000000000000000000000000000000000000002000000000000000000000000554833698ae0fb22ecc90b01222903fd62ca4b47000000000000000000000000a7b5189bca84cd304d8553977c7c614329750d990000000000000000000000000000000000000000000000000000000000000000)]"
      ],
      "transaction": {
        "from": "0x0ece75f3c36f7df2136dac7633165dbff53de3cd",
        "to": "0x1a44076050125825900e736c501f859c50fe728c",
        "gas": "0x5818a",
        "value": "0x0",
        "input": "0x6dbd9f900000000000000000000000000e732f3686495f53951d3b9953665b52f3f99887000000000000000000000000c70ab6f32772f59fbfc23889caf4ba3376c84baf000000000000000000000000000000000000000000000000000000000000006000000000000000000000000000000000000000000000000000000000000000020000000000000000000000000000000000000000000000000000000000000040000000000000000000000000000000000000000000000000000000000000022000000000000000000000000000000000000000000000000000000000000075e80000000000000000000000000000000000000000000000000000000000000002000000000000000000000000000000000000000000000000000000000000006000000000000000000000000000000000000000000000000000000000000001600000000000000000000000000000000000000000000000000000000000000020000000000000000000000000000000000000000000000000000000000000000f000000000000000000000000000000000000000000000000000000000000000200000000000000000000000000000000000000000000000000000000000000ff000000000000000000000000000000000000000000000000000000000000000000000000000000000000000000000000000000000000000000000000000000c000000000000000000000000000000000000000000000000000000000000001200000000000000000000000000000000000000000000000000000000000000002000000000000000000000000554833698ae0fb22ecc90b01222903fd62ca4b47000000000000000000000000a7b5189bca84cd304d8553977c7c614329750d99000000000000000000000000000000000000000000000000000000000000000000000000000000000000000000000000000000000000000000000000000075c60000000000000000000000000000000000000000000000000000000000000002000000000000000000000000000000000000000000000000000000000000006000000000000000000000000000000000000000000000000000000000000001600000000000000000000000000000000000000000000000000000000000000020000000000000000000000000000000000000000000000000000000000000000f000000000000000000000000000000000000000000000000000000000000000200000000000000000000000000000000000000000000000000000000000000ff000000000000000000000000000000000000000000000000000000000000000000000000000000000000000000000000000000000000000000000000000000c000000000000000000000000000000000000000000000000000000000000001200000000000000000000000000000000000000000000000000000000000000002000000000000000000000000554833698ae0fb22ecc90b01222903fd62ca4b47000000000000000000000000a7b5189bca84cd304d8553977c7c614329750d990000000000000000000000000000000000000000000000000000000000000000",
        "nonce": "0x127",
        "chainId": "0x2105"
      },
      "additionalContracts": [],
      "isFixedGasLimit": false
    },
    {
      "hash": "0x1f68112a31ccf36df2a732983918aae3651e3938bbf0e8147b183ef443ef1409",
      "transactionType": "CALL",
      "contractName": null,
      "contractAddress": "0x0e732f3686495f53951d3b9953665b52f3f99887",
      "function": "setPeer(uint32,bytes32)",
      "arguments": [
        "30150",
        "0x000000000000000000000000af126b36958ef1a6ed80118841a7f1660f921346"
      ],
      "transaction": {
        "from": "0x0ece75f3c36f7df2136dac7633165dbff53de3cd",
        "to": "0x0e732f3686495f53951d3b9953665b52f3f99887",
        "gas": "0x104a6",
        "value": "0x0",
        "input": "0x3400288b00000000000000000000000000000000000000000000000000000000000075c6000000000000000000000000af126b36958ef1a6ed80118841a7f1660f921346",
        "nonce": "0x128",
        "chainId": "0x2105"
      },
      "additionalContracts": [],
      "isFixedGasLimit": false
    },
    {
      "hash": "0xda4718a77598e6cfb2cf079cfb84ba6e56d5b9bc0b6b01ded2f0ffcf1f4f0c0c",
      "transactionType": "CALL",
      "contractName": null,
      "contractAddress": "0x0e732f3686495f53951d3b9953665b52f3f99887",
      "function": "setPeer(uint32,bytes32)",
      "arguments": [
        "30184",
        "0x0000000000000000000000000e732f3686495f53951d3b9953665b52f3f99887"
      ],
      "transaction": {
        "from": "0x0ece75f3c36f7df2136dac7633165dbff53de3cd",
        "to": "0x0e732f3686495f53951d3b9953665b52f3f99887",
        "gas": "0x104a6",
        "value": "0x0",
        "input": "0x3400288b00000000000000000000000000000000000000000000000000000000000075e80000000000000000000000000e732f3686495f53951d3b9953665b52f3f99887",
        "nonce": "0x129",
        "chainId": "0x2105"
      },
      "additionalContracts": [],
      "isFixedGasLimit": false
    },
    {
      "hash": "0x8be0dd3829183cf61d6bdc579bae1410fff4be9e78d3e40660e69889fb63c684",
      "transactionType": "CALL",
      "contractName": null,
      "contractAddress": "0x0e732f3686495f53951d3b9953665b52f3f99887",
      "function": "setEnforcedOptions((uint32,uint16,bytes)[])",
      "arguments": [
        "[(30184, 1, 0x00030100110100000000000000000000000000013880), (30150, 1, 0x000301001101000000000000000000000000000186a0)]"
      ],
      "transaction": {
        "from": "0x0ece75f3c36f7df2136dac7633165dbff53de3cd",
        "to": "0x0e732f3686495f53951d3b9953665b52f3f99887",
        "gas": "0x1bd63",
        "value": "0x0",
        "input": "0xb98bd07000000000000000000000000000000000000000000000000000000000000000200000000000000000000000000000000000000000000000000000000000000002000000000000000000000000000000000000000000000000000000000000004000000000000000000000000000000000000000000000000000000000000000e000000000000000000000000000000000000000000000000000000000000075e8000000000000000000000000000000000000000000000000000000000000000100000000000000000000000000000000000000000000000000000000000000600000000000000000000000000000000000000000000000000000000000000016000301001101000000000000000000000000000138800000000000000000000000000000000000000000000000000000000000000000000000000000000075c6000000000000000000000000000000000000000000000000000000000000000100000000000000000000000000000000000000000000000000000000000000600000000000000000000000000000000000000000000000000000000000000016000301001101000000000000000000000000000186a000000000000000000000",
        "nonce": "0x12a",
        "chainId": "0x2105"
      },
      "additionalContracts": [],
      "isFixedGasLimit": false
    },
    {
      "hash": "0xf0d56063d0a32ed9860305bac10c55b5a5308b06ae5917fbece0ac1410337621",
      "transactionType": "CALL",
      "contractName": null,
      "contractAddress": "0x0e732f3686495f53951d3b9953665b52f3f99887",
      "function": "setOFTaddress(address)",
      "arguments": [
        "0xAd063B1915Bf95fB32f79138c0B668F232676333"
      ],
      "transaction": {
        "from": "0x0ece75f3c36f7df2136dac7633165dbff53de3cd",
        "to": "0x0e732f3686495f53951d3b9953665b52f3f99887",
        "gas": "0xfa15",
        "value": "0x0",
        "input": "0xea89900e000000000000000000000000ad063b1915bf95fb32f79138c0b668f232676333",
        "nonce": "0x12b",
        "chainId": "0x2105"
      },
      "additionalContracts": [],
      "isFixedGasLimit": false
    }
  ],
  "receipts": [
    {
      "status": "0x1",
      "cumulativeGasUsed": "0x4fb181",
      "logs": [
        {
          "address": "0x1a44076050125825900e736c501f859c50fe728c",
          "topics": [
            "0x4cff966ebee29a156dcb34cf72c1d06231fb1777f6bdf6e8089819232f002b1c"
          ],
          "data": "0x0000000000000000000000000e732f3686495f53951d3b9953665b52f3f9988700000000000000000000000000000000000000000000000000000000000075e8000000000000000000000000b5320b0b3a13cc860893e2bd79fcd7e13484dda2",
          "blockHash": "0x8cb0d3fd83735fbf562eb5d6b71beee0548b1c65c5a50dbc690679d41df67416",
          "blockNumber": "0x220f75d",
          "blockTimestamp": "0x68cc4b9d",
          "transactionHash": "0x0c55ad5e84ebf294e16d4d90aef78d4fba4dd6fa4eeb6833f7d8dc21b59618ac",
          "transactionIndex": "0x27",
          "logIndex": "0x53",
          "removed": false
        }
      ],
      "logsBloom": "0x00000000000000000000000000000000000200000000000000000000001000000000000000000000000000000000000000000000000000000000000001000000000000000000000000000000000000000000000000000000000000000000000000000000000000000000000000000000000000000010000000000000000000000000000000000000000000000000000000000000000000000000000000000000000000000000000000000000000000000000000000000000000000000000000000000000000000000000000000000000000000000000000000000000000000000040000000000000000000000000000000000000010000000000000000000000",
      "type": "0x2",
      "transactionHash": "0x0c55ad5e84ebf294e16d4d90aef78d4fba4dd6fa4eeb6833f7d8dc21b59618ac",
      "transactionIndex": "0x27",
      "blockHash": "0x8cb0d3fd83735fbf562eb5d6b71beee0548b1c65c5a50dbc690679d41df67416",
      "blockNumber": "0x220f75d",
      "gasUsed": "0xe18e",
      "effectiveGasPrice": "0x582fda",
      "from": "0x0ece75f3c36f7df2136dac7633165dbff53de3cd",
      "to": "0x1a44076050125825900e736c501f859c50fe728c",
      "contractAddress": null,
      "l1BaseFeeScalar": "0x8dd",
      "l1BlobBaseFee": "0x1",
      "l1BlobBaseFeeScalar": "0x101c12",
      "l1Fee": "0x19046a234",
      "l1GasPrice": "0x66e6c283",
      "l1GasUsed": "0x6b2"
    },
    {
      "status": "0x1",
      "cumulativeGasUsed": "0x50930f",
      "logs": [
        {
          "address": "0x1a44076050125825900e736c501f859c50fe728c",
          "topics": [
            "0x4cff966ebee29a156dcb34cf72c1d06231fb1777f6bdf6e8089819232f002b1c"
          ],
          "data": "0x0000000000000000000000000e732f3686495f53951d3b9953665b52f3f9988700000000000000000000000000000000000000000000000000000000000075c6000000000000000000000000b5320b0b3a13cc860893e2bd79fcd7e13484dda2",
          "blockHash": "0x3e96c06d2da69bb2235a24486e2390735e1ba9b7247d23d86d6df1b63ede8af8",
          "blockNumber": "0x220f75d",
          "blockTimestamp": "0x68cc4b9d",
          "transactionHash": "0x96bbdf1dae52ce6a61ddbc72435eac2c8cc88487b7a0f2a38d56722d8b966168",
          "transactionIndex": "0x28",
          "logIndex": "0x54",
          "removed": false
        }
      ],
      "logsBloom": "0x00000000000000000000000000000000000200000000000000000000001000000000000000000000000000000000000000000000000000000000000001000000000000000000000000000000000000000000000000000000000000000000000000000000000000000000000000000000000000000010000000000000000000000000000000000000000000000000000000000000000000000000000000000000000000000000000000000000000000000000000000000000000000000000000000000000000000000000000000000000000000000000000000000000000000000040000000000000000000000000000000000000010000000000000000000000",
      "type": "0x2",
      "transactionHash": "0x96bbdf1dae52ce6a61ddbc72435eac2c8cc88487b7a0f2a38d56722d8b966168",
      "transactionIndex": "0x28",
      "blockHash": "0x3e96c06d2da69bb2235a24486e2390735e1ba9b7247d23d86d6df1b63ede8af8",
      "blockNumber": "0x220f75d",
      "gasUsed": "0xe18e",
      "effectiveGasPrice": "0x582fda",
      "from": "0x0ece75f3c36f7df2136dac7633165dbff53de3cd",
      "to": "0x1a44076050125825900e736c501f859c50fe728c",
      "contractAddress": null,
      "l1BaseFeeScalar": "0x8dd",
      "l1BlobBaseFee": "0x1",
      "l1BlobBaseFeeScalar": "0x101c12",
      "l1Fee": "0x19046a234",
      "l1GasPrice": "0x66e6c283",
      "l1GasUsed": "0x6b2"
    },
    {
      "status": "0x1",
      "cumulativeGasUsed": "0x518eb0",
      "logs": [
        {
          "address": "0x1a44076050125825900e736c501f859c50fe728c",
          "topics": [
            "0xcd6f92f5ac6185a5acfa02c92090746cec64d777269cbcd0ed031e396657a1c2"
          ],
          "data": "0x0000000000000000000000000e732f3686495f53951d3b9953665b52f3f9988700000000000000000000000000000000000000000000000000000000000075e8000000000000000000000000c70ab6f32772f59fbfc23889caf4ba3376c84baf",
          "blockHash": "0x5f6f362c2da01e6a71561691c8fd1fa52baf9fce2e5b68cd86c73603f565577a",
          "blockNumber": "0x220f75d",
          "blockTimestamp": "0x68cc4b9d",
          "transactionHash": "0x6ed3bd4325ffb5b364c0f66de9f5cdf48ec8bae87514613ca1ba267591c29ed0",
          "transactionIndex": "0x29",
          "logIndex": "0x55",
          "removed": false
        },
        {
          "address": "0x1a44076050125825900e736c501f859c50fe728c",
          "topics": [
            "0x4e0a5bbfa0c11a64effb1ada324b5437a17272e1aed9320398715ef71bb20928"
          ],
          "data": "0x0000000000000000000000000e732f3686495f53951d3b9953665b52f3f9988700000000000000000000000000000000000000000000000000000000000075e800000000000000000000000000000000000000000000000000000000000000000000000000000000000000000000000000000000000000000000000000000000",
          "blockHash": "0x5f6f362c2da01e6a71561691c8fd1fa52baf9fce2e5b68cd86c73603f565577a",
          "blockNumber": "0x220f75d",
          "blockTimestamp": "0x68cc4b9d",
          "transactionHash": "0x6ed3bd4325ffb5b364c0f66de9f5cdf48ec8bae87514613ca1ba267591c29ed0",
          "transactionIndex": "0x29",
          "logIndex": "0x56",
          "removed": false
        }
      ],
      "logsBloom": "0x00000000000000000000020800000000000000000000000000000000001000020400000000000000000000000000000000000000000000000000000000000000000000000000000000000000000000000000000000800000000000000000000000000000000000000000000000000000000000000010000000000000000000100000000000000000000000000000000000000000000000000000000000000000000000000000000000000000000000000000000000000000000000000000000000000000000000000000000000000000000000000000000000000000000000000000000000000000000000000000000000000000010000000000000000000000",
      "type": "0x2",
      "transactionHash": "0x6ed3bd4325ffb5b364c0f66de9f5cdf48ec8bae87514613ca1ba267591c29ed0",
      "transactionIndex": "0x29",
      "blockHash": "0x5f6f362c2da01e6a71561691c8fd1fa52baf9fce2e5b68cd86c73603f565577a",
      "blockNumber": "0x220f75d",
      "gasUsed": "0xfba1",
      "effectiveGasPrice": "0x582fda",
      "from": "0x0ece75f3c36f7df2136dac7633165dbff53de3cd",
      "to": "0x1a44076050125825900e736c501f859c50fe728c",
      "contractAddress": null,
      "l1BaseFeeScalar": "0x8dd",
      "l1BlobBaseFee": "0x1",
      "l1BlobBaseFeeScalar": "0x101c12",
      "l1Fee": "0x1a62686dc",
      "l1GasPrice": "0x66e6c283",
      "l1GasUsed": "0x710"
    },
    {
      "status": "0x1",
      "cumulativeGasUsed": "0x562c94",
      "logs": [
        {
          "address": "0xb5320b0b3a13cc860893e2bd79fcd7e13484dda2",
          "topics": [
            "0x779cb2dd9d2bb1be1737d05435d744facbfb84a2a4912e21379d39beddcdc805"
          ],
          "data": "0x0000000000000000000000000e732f3686495f53951d3b9953665b52f3f9988700000000000000000000000000000000000000000000000000000000000075e800000000000000000000000000000000000000000000000000000000000027100000000000000000000000002cca08ae69e0c44b18a57ab2a87644234daebae4",
          "blockHash": "0x43c1af02605e6e1c7240a6f185cd983b3f8eae9b46867b7bba074a6d8733dba0",
          "blockNumber": "0x220f75d",
          "blockTimestamp": "0x68cc4b9d",
          "transactionHash": "0x0b5195ba5031e843bd4de2b2e6afb7f20dcdaeb7e855e825eef05a9ce2c561fd",
          "transactionIndex": "0x2a",
          "logIndex": "0x57",
          "removed": false
        },
        {
          "address": "0xb5320b0b3a13cc860893e2bd79fcd7e13484dda2",
          "topics": [
            "0x82118522aa536ac0e96cc5c689407ae42b89d592aa133890a01f1509842f5081"
          ],
          "data": "0x0000000000000000000000000e732f3686495f53951d3b9953665b52f3f9988700000000000000000000000000000000000000000000000000000000000075e80000000000000000000000000000000000000000000000000000000000000060000000000000000000000000000000000000000000000000000000000000000f000000000000000000000000000000000000000000000000000000000000000200000000000000000000000000000000000000000000000000000000000000ff000000000000000000000000000000000000000000000000000000000000000000000000000000000000000000000000000000000000000000000000000000c000000000000000000000000000000000000000000000000000000000000001200000000000000000000000000000000000000000000000000000000000000002000000000000000000000000554833698ae0fb22ecc90b01222903fd62ca4b47000000000000000000000000a7b5189bca84cd304d8553977c7c614329750d990000000000000000000000000000000000000000000000000000000000000000",
          "blockHash": "0x43c1af02605e6e1c7240a6f185cd983b3f8eae9b46867b7bba074a6d8733dba0",
          "blockNumber": "0x220f75d",
          "blockTimestamp": "0x68cc4b9d",
          "transactionHash": "0x0b5195ba5031e843bd4de2b2e6afb7f20dcdaeb7e855e825eef05a9ce2c561fd",
          "transactionIndex": "0x2a",
          "logIndex": "0x58",
          "removed": false
        },
        {
          "address": "0xb5320b0b3a13cc860893e2bd79fcd7e13484dda2",
          "topics": [
            "0x779cb2dd9d2bb1be1737d05435d744facbfb84a2a4912e21379d39beddcdc805"
          ],
          "data": "0x0000000000000000000000000e732f3686495f53951d3b9953665b52f3f9988700000000000000000000000000000000000000000000000000000000000075c600000000000000000000000000000000000000000000000000000000000027100000000000000000000000002cca08ae69e0c44b18a57ab2a87644234daebae4",
          "blockHash": "0x43c1af02605e6e1c7240a6f185cd983b3f8eae9b46867b7bba074a6d8733dba0",
          "blockNumber": "0x220f75d",
          "blockTimestamp": "0x68cc4b9d",
          "transactionHash": "0x0b5195ba5031e843bd4de2b2e6afb7f20dcdaeb7e855e825eef05a9ce2c561fd",
          "transactionIndex": "0x2a",
          "logIndex": "0x59",
          "removed": false
        },
        {
          "address": "0xb5320b0b3a13cc860893e2bd79fcd7e13484dda2",
          "topics": [
            "0x82118522aa536ac0e96cc5c689407ae42b89d592aa133890a01f1509842f5081"
          ],
          "data": "0x0000000000000000000000000e732f3686495f53951d3b9953665b52f3f9988700000000000000000000000000000000000000000000000000000000000075c60000000000000000000000000000000000000000000000000000000000000060000000000000000000000000000000000000000000000000000000000000000f000000000000000000000000000000000000000000000000000000000000000200000000000000000000000000000000000000000000000000000000000000ff000000000000000000000000000000000000000000000000000000000000000000000000000000000000000000000000000000000000000000000000000000c000000000000000000000000000000000000000000000000000000000000001200000000000000000000000000000000000000000000000000000000000000002000000000000000000000000554833698ae0fb22ecc90b01222903fd62ca4b47000000000000000000000000a7b5189bca84cd304d8553977c7c614329750d990000000000000000000000000000000000000000000000000000000000000000",
          "blockHash": "0x43c1af02605e6e1c7240a6f185cd983b3f8eae9b46867b7bba074a6d8733dba0",
          "blockNumber": "0x220f75d",
          "blockTimestamp": "0x68cc4b9d",
          "transactionHash": "0x0b5195ba5031e843bd4de2b2e6afb7f20dcdaeb7e855e825eef05a9ce2c561fd",
          "transactionIndex": "0x2a",
          "logIndex": "0x5a",
          "removed": false
        }
      ],
      "logsBloom": "0x00000000000000000000000000000000000000000000000000000000000000000000000000000000000000000000000000000000000000000000000000000000000000000000000000000440000000000000000000000000002000000000000100000000000000000000000000000000000000000000000000000000000000000000000000000000000000000000000000000000000000000004000000000000000000000000000000000002000000000000000000000000000000000000000200000000000000000000000000000000000000000000000000000000000000000008000000000000000000000000000000000000000000000000000000000010",
      "type": "0x2",
      "transactionHash": "0x0b5195ba5031e843bd4de2b2e6afb7f20dcdaeb7e855e825eef05a9ce2c561fd",
      "transactionIndex": "0x2a",
      "blockHash": "0x43c1af02605e6e1c7240a6f185cd983b3f8eae9b46867b7bba074a6d8733dba0",
      "blockNumber": "0x220f75d",
      "gasUsed": "0x49de4",
      "effectiveGasPrice": "0x582fda",
      "from": "0x0ece75f3c36f7df2136dac7633165dbff53de3cd",
      "to": "0x1a44076050125825900e736c501f859c50fe728c",
      "contractAddress": null,
      "l1BaseFeeScalar": "0x8dd",
      "l1BlobBaseFee": "0x1",
      "l1BlobBaseFeeScalar": "0x101c12",
      "l1Fee": "0x468631407",
      "l1GasPrice": "0x66e6c283",
      "l1GasUsed": "0x12e0"
    },
    {
      "status": "0x1",
      "cumulativeGasUsed": "0x59f05e",
      "logs": [
        {
          "address": "0xc70ab6f32772f59fbfc23889caf4ba3376c84baf",
          "topics": [
            "0x82118522aa536ac0e96cc5c689407ae42b89d592aa133890a01f1509842f5081"
          ],
          "data": "0x0000000000000000000000000e732f3686495f53951d3b9953665b52f3f9988700000000000000000000000000000000000000000000000000000000000075e80000000000000000000000000000000000000000000000000000000000000060000000000000000000000000000000000000000000000000000000000000000f000000000000000000000000000000000000000000000000000000000000000200000000000000000000000000000000000000000000000000000000000000ff000000000000000000000000000000000000000000000000000000000000000000000000000000000000000000000000000000000000000000000000000000c000000000000000000000000000000000000000000000000000000000000001200000000000000000000000000000000000000000000000000000000000000002000000000000000000000000554833698ae0fb22ecc90b01222903fd62ca4b47000000000000000000000000a7b5189bca84cd304d8553977c7c614329750d990000000000000000000000000000000000000000000000000000000000000000",
          "blockHash": "0x7ac0daad209ac4e260b0189fd8d0bf404ad7d53a08d6250d3fbba46531188857",
          "blockNumber": "0x220f75d",
          "blockTimestamp": "0x68cc4b9d",
          "transactionHash": "0x38c64436c47f13d9c9e7093747146f446a8933ad1718f16a5e5f731f46aef400",
          "transactionIndex": "0x2b",
          "logIndex": "0x5b",
          "removed": false
        },
        {
          "address": "0xc70ab6f32772f59fbfc23889caf4ba3376c84baf",
          "topics": [
            "0x82118522aa536ac0e96cc5c689407ae42b89d592aa133890a01f1509842f5081"
          ],
          "data": "0x0000000000000000000000000e732f3686495f53951d3b9953665b52f3f9988700000000000000000000000000000000000000000000000000000000000075c60000000000000000000000000000000000000000000000000000000000000060000000000000000000000000000000000000000000000000000000000000000f000000000000000000000000000000000000000000000000000000000000000200000000000000000000000000000000000000000000000000000000000000ff000000000000000000000000000000000000000000000000000000000000000000000000000000000000000000000000000000000000000000000000000000c000000000000000000000000000000000000000000000000000000000000001200000000000000000000000000000000000000000000000000000000000000002000000000000000000000000554833698ae0fb22ecc90b01222903fd62ca4b47000000000000000000000000a7b5189bca84cd304d8553977c7c614329750d990000000000000000000000000000000000000000000000000000000000000000",
          "blockHash": "0x7ac0daad209ac4e260b0189fd8d0bf404ad7d53a08d6250d3fbba46531188857",
          "blockNumber": "0x220f75d",
          "blockTimestamp": "0x68cc4b9d",
          "transactionHash": "0x38c64436c47f13d9c9e7093747146f446a8933ad1718f16a5e5f731f46aef400",
          "transactionIndex": "0x2b",
          "logIndex": "0x5c",
          "removed": false
        }
      ],
      "logsBloom": "0x00000000000000000000000800000000000000000000000000000000000000000000000000000000000000000000000000000000000000000000000000000000000000000000000000000000000000000000000000000000002000080000000000000000000000000000000000000000000000000000000000000000000000000000000000000000000000000000000000000000000000000000000000000000000000000000000000000002000000000000000000000000000000000000000000000000000000000000000000000000000000000000000000000000000000000000000020000000000000000000000000000000000000000000000000000010",
      "type": "0x2",
      "transactionHash": "0x38c64436c47f13d9c9e7093747146f446a8933ad1718f16a5e5f731f46aef400",
      "transactionIndex": "0x2b",
      "blockHash": "0x7ac0daad209ac4e260b0189fd8d0bf404ad7d53a08d6250d3fbba46531188857",
      "blockNumber": "0x220f75d",
      "gasUsed": "0x3c3ca",
      "effectiveGasPrice": "0x582fda",
      "from": "0x0ece75f3c36f7df2136dac7633165dbff53de3cd",
      "to": "0x1a44076050125825900e736c501f859c50fe728c",
      "contractAddress": null,
      "l1BaseFeeScalar": "0x8dd",
      "l1BlobBaseFee": "0x1",
      "l1BlobBaseFeeScalar": "0x101c12",
      "l1Fee": "0x377c440d1",
      "l1GasPrice": "0x66e6c283",
      "l1GasUsed": "0xeda"
    },
    {
      "status": "0x1",
      "cumulativeGasUsed": "0x5aad13",
      "logs": [
        {
          "address": "0x0e732f3686495f53951d3b9953665b52f3f99887",
          "topics": [
            "0x238399d427b947898edb290f5ff0f9109849b1c3ba196a42e35f00c50a54b98b"
          ],
          "data": "0x00000000000000000000000000000000000000000000000000000000000075c6000000000000000000000000af126b36958ef1a6ed80118841a7f1660f921346",
          "blockHash": "0x8cb0d3fd83735fbf562eb5d6b71beee0548b1c65c5a50dbc690679d41df67416",
          "blockNumber": "0x220f75d",
          "blockTimestamp": "0x68cc4b9d",
          "transactionHash": "0x1f68112a31ccf36df2a732983918aae3651e3938bbf0e8147b183ef443ef1409",
          "transactionIndex": "0x2c",
          "logIndex": "0x5d",
          "removed": false
        }
      ],
      "logsBloom": "0x00000000000000000000000000000000000000000000000000000000000000000000000000000000000000000000000000000000000000000800000000000000000000000000000000000000000000000000000000000000000000040000000000000000000000000000000000000000000000000000000000000000000000000000000000000000000080000000000000000000000000000000000000000000000000000000000000000000000000000000000000000000000002000000000000000000000000000000000000000000000000000000000000040000000000000000000000000000000000000000000000000000000000000000040000000000",
      "type": "0x2",
      "transactionHash": "0x1f68112a31ccf36df2a732983918aae3651e3938bbf0e8147b183ef443ef1409",
      "transactionIndex": "0x2c",
      "blockHash": "0x8cb0d3fd83735fbf562eb5d6b71beee0548b1c65c5a50dbc690679d41df67416",
      "blockNumber": "0x220f75d",
      "gasUsed": "0xbcb5",
      "effectiveGasPrice": "0x582fda",
      "from": "0x0ece75f3c36f7df2136dac7633165dbff53de3cd",
      "to": "0x0e732f3686495f53951d3b9953665b52f3f99887",
      "contractAddress": null,
      "l1BaseFeeScalar": "0x8dd",
      "l1BlobBaseFee": "0x1",
      "l1BlobBaseFeeScalar": "0x101c12",
      "l1Fee": "0x17592c1bf",
      "l1GasPrice": "0x66e6c283",
      "l1GasUsed": "0x640"
    },
    {
      "status": "0x1",
      "cumulativeGasUsed": "0x5b69c8",
      "logs": [
        {
          "address": "0x0e732f3686495f53951d3b9953665b52f3f99887",
          "topics": [
            "0x238399d427b947898edb290f5ff0f9109849b1c3ba196a42e35f00c50a54b98b"
          ],
          "data": "0x00000000000000000000000000000000000000000000000000000000000075e80000000000000000000000000e732f3686495f53951d3b9953665b52f3f99887",
          "blockHash": "0x5f6f362c2da01e6a71561691c8fd1fa52baf9fce2e5b68cd86c73603f565577a",
          "blockNumber": "0x220f75d",
          "blockTimestamp": "0x68cc4b9d",
          "transactionHash": "0xda4718a77598e6cfb2cf079cfb84ba6e56d5b9bc0b6b01ded2f0ffcf1f4f0c0c",
          "transactionIndex": "0x2d",
          "logIndex": "0x5e",
          "removed": false
        }
      ],
      "logsBloom": "0x00000000000000000000000000000000000000000000000000000000000000000000000000000000000000000000000000000000000000000800000000000000000000000000000000000000000000000000000000000000000000040000000000000000000000000000000000000000000000000000000000000000000000000000000000000000000080000000000000000000000000000000000000000000000000000000000000000000000000000000000000000000000002000000000000000000000000000000000000000000000000000000000000040000000000000000000000000000000000000000000000000000000000000000040000000000",
      "type": "0x2",
      "transactionHash": "0xda4718a77598e6cfb2cf079cfb84ba6e56d5b9bc0b6b01ded2f0ffcf1f4f0c0c",
      "transactionIndex": "0x2d",
      "blockHash": "0x5f6f362c2da01e6a71561691c8fd1fa52baf9fce2e5b68cd86c73603f565577a",
      "blockNumber": "0x220f75d",
      "gasUsed": "0xbcb5",
      "effectiveGasPrice": "0x582fda",
      "from": "0x0ece75f3c36f7df2136dac7633165dbff53de3cd",
      "to": "0x0e732f3686495f53951d3b9953665b52f3f99887",
      "contractAddress": null,
      "l1BaseFeeScalar": "0x8dd",
      "l1BlobBaseFee": "0x1",
      "l1BlobBaseFeeScalar": "0x101c12",
      "l1Fee": "0x17592c1bf",
      "l1GasPrice": "0x66e6c283",
      "l1GasUsed": "0x640"
    },
    {
      "status": "0x1",
      "cumulativeGasUsed": "0x6d2e9f",
      "logs": [
        {
          "address": "0x0e732f3686495f53951d3b9953665b52f3f99887",
          "topics": [
            "0xbe4864a8e820971c0247f5992e2da559595f7bf076a21cb5928d443d2a13b674"
          ],
          "data": "0x00000000000000000000000000000000000000000000000000000000000000200000000000000000000000000000000000000000000000000000000000000002000000000000000000000000000000000000000000000000000000000000004000000000000000000000000000000000000000000000000000000000000000e000000000000000000000000000000000000000000000000000000000000075e8000000000000000000000000000000000000000000000000000000000000000100000000000000000000000000000000000000000000000000000000000000600000000000000000000000000000000000000000000000000000000000000016000301001101000000000000000000000000000138800000000000000000000000000000000000000000000000000000000000000000000000000000000075c6000000000000000000000000000000000000000000000000000000000000000100000000000000000000000000000000000000000000000000000000000000600000000000000000000000000000000000000000000000000000000000000016000301001101000000000000000000000000000186a000000000000000000000",
          "blockHash": "0x8cb0d3fd83735fbf562eb5d6b71beee0548b1c65c5a50dbc690679d41df67416",
          "blockNumber": "0x220f75d",
          "blockTimestamp": "0x68cc4b9d",
          "transactionHash": "0x8be0dd3829183cf61d6bdc579bae1410fff4be9e78d3e40660e69889fb63c684",
          "transactionIndex": "0x37",
          "logIndex": "0x6e",
          "removed": false
        }
      ],
      "logsBloom": "0x00000000000000000000000000000000000000000000000000000000000000000000000000000000000000000000000000000000000000000000400000000000000000000000000000000000000000000000000000000000000000040000000000000000000000000000000000000000000000000000000000000000000000000000000000000000000080000000000000000000000000000000000000080000000000000000000000000000000000000000000000000000000000000000000000000000000000000000000002000000000000000000000000000000000000000000000000000000000000000000000000000000000000000000040000000000",
      "type": "0x2",
      "transactionHash": "0x8be0dd3829183cf61d6bdc579bae1410fff4be9e78d3e40660e69889fb63c684",
      "transactionIndex": "0x37",
      "blockHash": "0x8cb0d3fd83735fbf562eb5d6b71beee0548b1c65c5a50dbc690679d41df67416",
      "blockNumber": "0x220f75d",
      "gasUsed": "0x14274",
      "effectiveGasPrice": "0x582fda",
      "from": "0x0ece75f3c36f7df2136dac7633165dbff53de3cd",
      "to": "0x0e732f3686495f53951d3b9953665b52f3f99887",
      "contractAddress": null,
      "l1BaseFeeScalar": "0x8dd",
      "l1BlobBaseFee": "0x1",
      "l1BlobBaseFeeScalar": "0x101c12",
      "l1Fee": "0x207060dc3",
      "l1GasPrice": "0x66e6c283",
      "l1GasUsed": "0x8ae"
    },
    {
      "status": "0x1",
      "cumulativeGasUsed": "0x6de3ae",
      "logs": [],
      "logsBloom": "0x00000000000000000000000000000000000000000000000000000000000000000000000000000000000000000000000000000000000000000000000000000000000000000000000000000000000000000000000000000000000000000000000000000000000000000000000000000000000000000000000000000000000000000000000000000000000000000000000000000000000000000000000000000000000000000000000000000000000000000000000000000000000000000000000000000000000000000000000000000000000000000000000000000000000000000000000000000000000000000000000000000000000000000000000000000000",
      "type": "0x2",
      "transactionHash": "0xf0d56063d0a32ed9860305bac10c55b5a5308b06ae5917fbece0ac1410337621",
      "transactionIndex": "0x38",
      "blockHash": "0x8cb0d3fd83735fbf562eb5d6b71beee0548b1c65c5a50dbc690679d41df67416",
      "blockNumber": "0x220f75d",
      "gasUsed": "0xb50f",
      "effectiveGasPrice": "0x582fda",
      "from": "0x0ece75f3c36f7df2136dac7633165dbff53de3cd",
      "to": "0x0e732f3686495f53951d3b9953665b52f3f99887",
      "contractAddress": null,
      "l1BaseFeeScalar": "0x8dd",
      "l1BlobBaseFee": "0x1",
      "l1BlobBaseFeeScalar": "0x101c12",
      "l1Fee": "0x17592c1bf",
      "l1GasPrice": "0x66e6c283",
      "l1GasUsed": "0x640"
    }
  ],
  "libraries": [],
  "pending": [],
  "returns": {},
  "timestamp": 1758219164513,
  "chain": 8453,
  "commit": "6c82bda"
}