{
  "transactions": [
    {
      "hash": "0x7cdbf01fd39eae8bce183882dbc372995b77e97c2ed17eee5675727c63caa29b",
      "transactionType": "CALL",
      "contractName": null,
      "contractAddress": "0x1a44076050125825900e736c501f859c50fe728c",
      "function": "setSendLibrary(address,uint32,address)",
      "arguments": [
        "0x2c30c5039aB66544Dd33D03DDBce977Ec713B86F",
        "30184",
        "0xB5320B0B3a13cC860893E2Bd79FCd7e13484Dda2"
      ],
      "transaction": {
        "from": "0x0ece75f3c36f7df2136dac7633165dbff53de3cd",
        "to": "0x1a44076050125825900e736c501f859c50fe728c",
        "gas": "0x1378b",
        "value": "0x0",
        "input": "0x9535ff300000000000000000000000002c30c5039ab66544dd33d03ddbce977ec713b86f00000000000000000000000000000000000000000000000000000000000075e8000000000000000000000000b5320b0b3a13cc860893e2bd79fcd7e13484dda2",
        "nonce": "0x117",
        "chainId": "0x2105"
      },
      "additionalContracts": [],
      "isFixedGasLimit": false
    },
    {
      "hash": "0xe3ed1b0b50aad13fdf104248726fc372a9af5c206843cae634a8aa2d18bcef53",
      "transactionType": "CALL",
      "contractName": null,
      "contractAddress": "0x1a44076050125825900e736c501f859c50fe728c",
      "function": "setSendLibrary(address,uint32,address)",
      "arguments": [
        "0x2c30c5039aB66544Dd33D03DDBce977Ec713B86F",
        "30150",
        "0xB5320B0B3a13cC860893E2Bd79FCd7e13484Dda2"
      ],
      "transaction": {
        "from": "0x0ece75f3c36f7df2136dac7633165dbff53de3cd",
        "to": "0x1a44076050125825900e736c501f859c50fe728c",
        "gas": "0x1378b",
        "value": "0x0",
        "input": "0x9535ff300000000000000000000000002c30c5039ab66544dd33d03ddbce977ec713b86f00000000000000000000000000000000000000000000000000000000000075c6000000000000000000000000b5320b0b3a13cc860893e2bd79fcd7e13484dda2",
        "nonce": "0x118",
        "chainId": "0x2105"
      },
      "additionalContracts": [],
      "isFixedGasLimit": false
    },
    {
      "hash": "0x36555a2a71456709df3d01c957fe4b31289d31e3a11f0657a3a808bfa97a00a7",
      "transactionType": "CALL",
      "contractName": null,
      "contractAddress": "0x1a44076050125825900e736c501f859c50fe728c",
      "function": "setReceiveLibrary(address,uint32,address,uint256)",
      "arguments": [
        "0x2c30c5039aB66544Dd33D03DDBce977Ec713B86F",
        "30184",
        "0xc70AB6f32772f59fBfc23889Caf4Ba3376C84bAf",
        "0"
      ],
      "transaction": {
        "from": "0x0ece75f3c36f7df2136dac7633165dbff53de3cd",
        "to": "0x1a44076050125825900e736c501f859c50fe728c",
        "gas": "0x17001",
        "value": "0x0",
        "input": "0x6a14d7150000000000000000000000002c30c5039ab66544dd33d03ddbce977ec713b86f00000000000000000000000000000000000000000000000000000000000075e8000000000000000000000000c70ab6f32772f59fbfc23889caf4ba3376c84baf0000000000000000000000000000000000000000000000000000000000000000",
        "nonce": "0x119",
        "chainId": "0x2105"
      },
      "additionalContracts": [],
      "isFixedGasLimit": false
    },
    {
      "hash": "0x22bb5b42a125ba5e58ef2e7bd96c57500897fc73b147d696924f509d45893995",
      "transactionType": "CALL",
      "contractName": null,
      "contractAddress": "0x1a44076050125825900e736c501f859c50fe728c",
      "function": "setConfig(address,address,(uint32,uint32,bytes)[])",
      "arguments": [
        "0x2c30c5039aB66544Dd33D03DDBce977Ec713B86F",
        "0xB5320B0B3a13cC860893E2Bd79FCd7e13484Dda2",
        "[(30184, 1, 0x00000000000000000000000000000000000000000000000000000000000027100000000000000000000000002cca08ae69e0c44b18a57ab2a87644234daebae4), (30184, 2, 0x0000000000000000000000000000000000000000000000000000000000000020000000000000000000000000000000000000000000000000000000000000000f000000000000000000000000000000000000000000000000000000000000000200000000000000000000000000000000000000000000000000000000000000ff000000000000000000000000000000000000000000000000000000000000000000000000000000000000000000000000000000000000000000000000000000c000000000000000000000000000000000000000000000000000000000000001200000000000000000000000000000000000000000000000000000000000000002000000000000000000000000554833698ae0fb22ecc90b01222903fd62ca4b47000000000000000000000000a7b5189bca84cd304d8553977c7c614329750d990000000000000000000000000000000000000000000000000000000000000000), (30150, 1, 0x00000000000000000000000000000000000000000000000000000000000027100000000000000000000000002cca08ae69e0c44b18a57ab2a87644234daebae4), (30150, 2, 0x0000000000000000000000000000000000000000000000000000000000000020000000000000000000000000000000000000000000000000000000000000000f000000000000000000000000000000000000000000000000000000000000000200000000000000000000000000000000000000000000000000000000000000ff000000000000000000000000000000000000000000000000000000000000000000000000000000000000000000000000000000000000000000000000000000c000000000000000000000000000000000000000000000000000000000000001200000000000000000000000000000000000000000000000000000000000000002000000000000000000000000554833698ae0fb22ecc90b01222903fd62ca4b47000000000000000000000000a7b5189bca84cd304d8553977c7c614329750d990000000000000000000000000000000000000000000000000000000000000000)]"
      ],
      "transaction": {
        "from": "0x0ece75f3c36f7df2136dac7633165dbff53de3cd",
        "to": "0x1a44076050125825900e736c501f859c50fe728c",
        "gas": "0x6607c",
        "value": "0x0",
        "input": "0x6dbd9f900000000000000000000000002c30c5039ab66544dd33d03ddbce977ec713b86f000000000000000000000000b5320b0b3a13cc860893e2bd79fcd7e13484dda20000000000000000000000000000000000000000000000000000000000000060000000000000000000000000000000000000000000000000000000000000000400000000000000000000000000000000000000000000000000000000000000800000000000000000000000000000000000000000000000000000000000000140000000000000000000000000000000000000000000000000000000000000032000000000000000000000000000000000000000000000000000000000000003e000000000000000000000000000000000000000000000000000000000000075e800000000000000000000000000000000000000000000000000000000000000010000000000000000000000000000000000000000000000000000000000000060000000000000000000000000000000000000000000000000000000000000004000000000000000000000000000000000000000000000000000000000000027100000000000000000000000002cca08ae69e0c44b18a57ab2a87644234daebae400000000000000000000000000000000000000000000000000000000000075e80000000000000000000000000000000000000000000000000000000000000002000000000000000000000000000000000000000000000000000000000000006000000000000000000000000000000000000000000000000000000000000001600000000000000000000000000000000000000000000000000000000000000020000000000000000000000000000000000000000000000000000000000000000f000000000000000000000000000000000000000000000000000000000000000200000000000000000000000000000000000000000000000000000000000000ff000000000000000000000000000000000000000000000000000000000000000000000000000000000000000000000000000000000000000000000000000000c000000000000000000000000000000000000000000000000000000000000001200000000000000000000000000000000000000000000000000000000000000002000000000000000000000000554833698ae0fb22ecc90b01222903fd62ca4b47000000000000000000000000a7b5189bca84cd304d8553977c7c614329750d99000000000000000000000000000000000000000000000000000000000000000000000000000000000000000000000000000000000000000000000000000075c600000000000000000000000000000000000000000000000000000000000000010000000000000000000000000000000000000000000000000000000000000060000000000000000000000000000000000000000000000000000000000000004000000000000000000000000000000000000000000000000000000000000027100000000000000000000000002cca08ae69e0c44b18a57ab2a87644234daebae400000000000000000000000000000000000000000000000000000000000075c60000000000000000000000000000000000000000000000000000000000000002000000000000000000000000000000000000000000000000000000000000006000000000000000000000000000000000000000000000000000000000000001600000000000000000000000000000000000000000000000000000000000000020000000000000000000000000000000000000000000000000000000000000000f000000000000000000000000000000000000000000000000000000000000000200000000000000000000000000000000000000000000000000000000000000ff000000000000000000000000000000000000000000000000000000000000000000000000000000000000000000000000000000000000000000000000000000c000000000000000000000000000000000000000000000000000000000000001200000000000000000000000000000000000000000000000000000000000000002000000000000000000000000554833698ae0fb22ecc90b01222903fd62ca4b47000000000000000000000000a7b5189bca84cd304d8553977c7c614329750d990000000000000000000000000000000000000000000000000000000000000000",
        "nonce": "0x11a",
        "chainId": "0x2105"
      },
      "additionalContracts": [],
      "isFixedGasLimit": false
    },
    {
      "hash": "0x418cc608f6549a830bc9e1733fa6a3002e6c5e1e36aef00fea3b676694268d42",
      "transactionType": "CALL",
      "contractName": null,
      "contractAddress": "0x1a44076050125825900e736c501f859c50fe728c",
      "function": "setConfig(address,address,(uint32,uint32,bytes)[])",
      "arguments": [
        "0x2c30c5039aB66544Dd33D03DDBce977Ec713B86F",
        "0xc70AB6f32772f59fBfc23889Caf4Ba3376C84bAf",
        "[(30184, 2, 0x0000000000000000000000000000000000000000000000000000000000000020000000000000000000000000000000000000000000000000000000000000000f000000000000000000000000000000000000000000000000000000000000000200000000000000000000000000000000000000000000000000000000000000ff000000000000000000000000000000000000000000000000000000000000000000000000000000000000000000000000000000000000000000000000000000c000000000000000000000000000000000000000000000000000000000000001200000000000000000000000000000000000000000000000000000000000000002000000000000000000000000554833698ae0fb22ecc90b01222903fd62ca4b47000000000000000000000000a7b5189bca84cd304d8553977c7c614329750d990000000000000000000000000000000000000000000000000000000000000000), (30150, 2, 0x0000000000000000000000000000000000000000000000000000000000000020000000000000000000000000000000000000000000000000000000000000000f000000000000000000000000000000000000000000000000000000000000000200000000000000000000000000000000000000000000000000000000000000ff000000000000000000000000000000000000000000000000000000000000000000000000000000000000000000000000000000000000000000000000000000c000000000000000000000000000000000000000000000000000000000000001200000000000000000000000000000000000000000000000000000000000000002000000000000000000000000554833698ae0fb22ecc90b01222903fd62ca4b47000000000000000000000000a7b5189bca84cd304d8553977c7c614329750d990000000000000000000000000000000000000000000000000000000000000000)]"
      ],
      "transaction": {
        "from": "0x0ece75f3c36f7df2136dac7633165dbff53de3cd",
        "to": "0x1a44076050125825900e736c501f859c50fe728c",
        "gas": "0x5818a",
        "value": "0x0",
        "input": "0x6dbd9f900000000000000000000000002c30c5039ab66544dd33d03ddbce977ec713b86f000000000000000000000000c70ab6f32772f59fbfc23889caf4ba3376c84baf000000000000000000000000000000000000000000000000000000000000006000000000000000000000000000000000000000000000000000000000000000020000000000000000000000000000000000000000000000000000000000000040000000000000000000000000000000000000000000000000000000000000022000000000000000000000000000000000000000000000000000000000000075e80000000000000000000000000000000000000000000000000000000000000002000000000000000000000000000000000000000000000000000000000000006000000000000000000000000000000000000000000000000000000000000001600000000000000000000000000000000000000000000000000000000000000020000000000000000000000000000000000000000000000000000000000000000f000000000000000000000000000000000000000000000000000000000000000200000000000000000000000000000000000000000000000000000000000000ff000000000000000000000000000000000000000000000000000000000000000000000000000000000000000000000000000000000000000000000000000000c000000000000000000000000000000000000000000000000000000000000001200000000000000000000000000000000000000000000000000000000000000002000000000000000000000000554833698ae0fb22ecc90b01222903fd62ca4b47000000000000000000000000a7b5189bca84cd304d8553977c7c614329750d99000000000000000000000000000000000000000000000000000000000000000000000000000000000000000000000000000000000000000000000000000075c60000000000000000000000000000000000000000000000000000000000000002000000000000000000000000000000000000000000000000000000000000006000000000000000000000000000000000000000000000000000000000000001600000000000000000000000000000000000000000000000000000000000000020000000000000000000000000000000000000000000000000000000000000000f000000000000000000000000000000000000000000000000000000000000000200000000000000000000000000000000000000000000000000000000000000ff000000000000000000000000000000000000000000000000000000000000000000000000000000000000000000000000000000000000000000000000000000c000000000000000000000000000000000000000000000000000000000000001200000000000000000000000000000000000000000000000000000000000000002000000000000000000000000554833698ae0fb22ecc90b01222903fd62ca4b47000000000000000000000000a7b5189bca84cd304d8553977c7c614329750d990000000000000000000000000000000000000000000000000000000000000000",
        "nonce": "0x11b",
        "chainId": "0x2105"
      },
      "additionalContracts": [],
      "isFixedGasLimit": false
    },
    {
      "hash": "0xad8193f8be2dc0250db1d5065c8e99654527daa5238a8b35ae54bb80a7cec290",
      "transactionType": "CALL",
      "contractName": null,
      "contractAddress": "0x2c30c5039ab66544dd33d03ddbce977ec713b86f",
      "function": "setPeer(uint32,bytes32)",
      "arguments": [
        "30150",
        "0x000000000000000000000000af126b36958ef1a6ed80118841a7f1660f921346"
      ],
      "transaction": {
        "from": "0x0ece75f3c36f7df2136dac7633165dbff53de3cd",
        "to": "0x2c30c5039ab66544dd33d03ddbce977ec713b86f",
        "gas": "0x104a6",
        "value": "0x0",
        "input": "0x3400288b00000000000000000000000000000000000000000000000000000000000075c6000000000000000000000000af126b36958ef1a6ed80118841a7f1660f921346",
        "nonce": "0x11c",
        "chainId": "0x2105"
      },
      "additionalContracts": [],
      "isFixedGasLimit": false
    },
    {
      "hash": "0x9424868dd0f74a26147f3050edc3853ddb474267f8130b8dfaae985c66a5a60b",
      "transactionType": "CALL",
      "contractName": null,
      "contractAddress": "0x2c30c5039ab66544dd33d03ddbce977ec713b86f",
      "function": "setPeer(uint32,bytes32)",
      "arguments": [
        "30184",
        "0x0000000000000000000000002c30c5039ab66544dd33d03ddbce977ec713b86f"
      ],
      "transaction": {
        "from": "0x0ece75f3c36f7df2136dac7633165dbff53de3cd",
        "to": "0x2c30c5039ab66544dd33d03ddbce977ec713b86f",
        "gas": "0x104a6",
        "value": "0x0",
        "input": "0x3400288b00000000000000000000000000000000000000000000000000000000000075e80000000000000000000000002c30c5039ab66544dd33d03ddbce977ec713b86f",
        "nonce": "0x11d",
        "chainId": "0x2105"
      },
      "additionalContracts": [],
      "isFixedGasLimit": false
    },
    {
      "hash": "0xe3a147cdfffb9461b05d704611b0773b64ad24bbe3fff9da80da6a7b3e6b394a",
      "transactionType": "CALL",
      "contractName": null,
      "contractAddress": "0x2c30c5039ab66544dd33d03ddbce977ec713b86f",
      "function": "setEnforcedOptions((uint32,uint16,bytes)[])",
      "arguments": [
        "[(30184, 1, 0x00030100110100000000000000000000000000013880), (30150, 1, 0x000301001101000000000000000000000000000186a0)]"
      ],
      "transaction": {
        "from": "0x0ece75f3c36f7df2136dac7633165dbff53de3cd",
        "to": "0x2c30c5039ab66544dd33d03ddbce977ec713b86f",
        "gas": "0x1bd63",
        "value": "0x0",
        "input": "0xb98bd07000000000000000000000000000000000000000000000000000000000000000200000000000000000000000000000000000000000000000000000000000000002000000000000000000000000000000000000000000000000000000000000004000000000000000000000000000000000000000000000000000000000000000e000000000000000000000000000000000000000000000000000000000000075e8000000000000000000000000000000000000000000000000000000000000000100000000000000000000000000000000000000000000000000000000000000600000000000000000000000000000000000000000000000000000000000000016000301001101000000000000000000000000000138800000000000000000000000000000000000000000000000000000000000000000000000000000000075c6000000000000000000000000000000000000000000000000000000000000000100000000000000000000000000000000000000000000000000000000000000600000000000000000000000000000000000000000000000000000000000000016000301001101000000000000000000000000000186a000000000000000000000",
        "nonce": "0x11e",
        "chainId": "0x2105"
      },
      "additionalContracts": [],
      "isFixedGasLimit": false
    },
    {
      "hash": "0xe5056e6566429b45c115f99d1351b9f4d77a5a0be4609b6e8300484ccdc66f9f",
      "transactionType": "CALL",
      "contractName": null,
      "contractAddress": "0x2c30c5039ab66544dd33d03ddbce977ec713b86f",
      "function": "setOFTaddress(address)",
      "arguments": [
        "0xAd063B1915Bf95fB32f79138c0B668F232676333"
      ],
      "transaction": {
        "from": "0x0ece75f3c36f7df2136dac7633165dbff53de3cd",
        "to": "0x2c30c5039ab66544dd33d03ddbce977ec713b86f",
        "gas": "0xfa15",
        "value": "0x0",
        "input": "0xea89900e000000000000000000000000ad063b1915bf95fb32f79138c0b668f232676333",
        "nonce": "0x11f",
        "chainId": "0x2105"
      },
      "additionalContracts": [],
      "isFixedGasLimit": false
    }
  ],
  "receipts": [
    {
      "status": "0x1",
      "cumulativeGasUsed": "0x4b9ec5",
      "logs": [
        {
          "address": "0x1a44076050125825900e736c501f859c50fe728c",
          "topics": [
            "0x4cff966ebee29a156dcb34cf72c1d06231fb1777f6bdf6e8089819232f002b1c"
          ],
          "data": "0x0000000000000000000000002c30c5039ab66544dd33d03ddbce977ec713b86f00000000000000000000000000000000000000000000000000000000000075e8000000000000000000000000b5320b0b3a13cc860893e2bd79fcd7e13484dda2",
          "blockHash": "0x7fe8b5064f25912fba5521c8806f4f61b654b10ef662f95683bcb6e844e155fe",
          "blockNumber": "0x220f661",
          "blockTimestamp": "0x68cc49a5",
          "transactionHash": "0x7cdbf01fd39eae8bce183882dbc372995b77e97c2ed17eee5675727c63caa29b",
          "transactionIndex": "0x25",
          "logIndex": "0x4a",
          "removed": false
        }
      ],
      "logsBloom": "0x00000000000000000000000000000000000200000000000000000000001000000000000000000000000000000000000000000000000000000000000001000000000000000000000000000000000000000000000000000000000000000000000000000000000000000000000000000000000000000010000000000000000000000000000000000000000000000000000000000000000000000000000000000000000000000000000000000000000000000000000000000000000000000000000000000000000000000000000000000000000000000000000000000000000000000040000000000000000000000000000000000000010000000000000000000000",
      "type": "0x2",
      "transactionHash": "0x7cdbf01fd39eae8bce183882dbc372995b77e97c2ed17eee5675727c63caa29b",
      "transactionIndex": "0x25",
      "blockHash": "0x7fe8b5064f25912fba5521c8806f4f61b654b10ef662f95683bcb6e844e155fe",
      "blockNumber": "0x220f661",
      "gasUsed": "0xe18e",
      "effectiveGasPrice": "0x7c3904",
      "from": "0x0ece75f3c36f7df2136dac7633165dbff53de3cd",
      "to": "0x1a44076050125825900e736c501f859c50fe728c",
      "contractAddress": null,
      "l1BaseFeeScalar": "0x8dd",
      "l1BlobBaseFee": "0x1",
      "l1BlobBaseFeeScalar": "0x101c12",
      "l1Fee": "0x22c583c86",
      "l1GasPrice": "0x8f05e13f",
      "l1GasUsed": "0x6b2"
    },
    {
      "status": "0x1",
      "cumulativeGasUsed": "0x4c8053",
      "logs": [
        {
          "address": "0x1a44076050125825900e736c501f859c50fe728c",
          "topics": [
            "0x4cff966ebee29a156dcb34cf72c1d06231fb1777f6bdf6e8089819232f002b1c"
          ],
          "data": "0x0000000000000000000000002c30c5039ab66544dd33d03ddbce977ec713b86f00000000000000000000000000000000000000000000000000000000000075c6000000000000000000000000b5320b0b3a13cc860893e2bd79fcd7e13484dda2",
          "blockHash": "0x7fe8b5064f25912fba5521c8806f4f61b654b10ef662f95683bcb6e844e155fe",
          "blockNumber": "0x220f661",
          "blockTimestamp": "0x68cc49a5",
          "transactionHash": "0xe3ed1b0b50aad13fdf104248726fc372a9af5c206843cae634a8aa2d18bcef53",
          "transactionIndex": "0x26",
          "logIndex": "0x4b",
          "removed": false
        }
      ],
      "logsBloom": "0x00000000000000000000000000000000000200000000000000000000001000000000000000000000000000000000000000000000000000000000000001000000000000000000000000000000000000000000000000000000000000000000000000000000000000000000000000000000000000000010000000000000000000000000000000000000000000000000000000000000000000000000000000000000000000000000000000000000000000000000000000000000000000000000000000000000000000000000000000000000000000000000000000000000000000000040000000000000000000000000000000000000010000000000000000000000",
      "type": "0x2",
      "transactionHash": "0xe3ed1b0b50aad13fdf104248726fc372a9af5c206843cae634a8aa2d18bcef53",
      "transactionIndex": "0x26",
      "blockHash": "0x7fe8b5064f25912fba5521c8806f4f61b654b10ef662f95683bcb6e844e155fe",
      "blockNumber": "0x220f661",
      "gasUsed": "0xe18e",
      "effectiveGasPrice": "0x7c3904",
      "from": "0x0ece75f3c36f7df2136dac7633165dbff53de3cd",
      "to": "0x1a44076050125825900e736c501f859c50fe728c",
      "contractAddress": null,
      "l1BaseFeeScalar": "0x8dd",
      "l1BlobBaseFee": "0x1",
      "l1BlobBaseFeeScalar": "0x101c12",
      "l1Fee": "0x22c583c86",
      "l1GasPrice": "0x8f05e13f",
      "l1GasUsed": "0x6b2"
    },
    {
      "status": "0x1",
      "cumulativeGasUsed": "0x4d7bf4",
      "logs": [
        {
          "address": "0x1a44076050125825900e736c501f859c50fe728c",
          "topics": [
            "0xcd6f92f5ac6185a5acfa02c92090746cec64d777269cbcd0ed031e396657a1c2"
          ],
          "data": "0x0000000000000000000000002c30c5039ab66544dd33d03ddbce977ec713b86f00000000000000000000000000000000000000000000000000000000000075e8000000000000000000000000c70ab6f32772f59fbfc23889caf4ba3376c84baf",
          "blockHash": "0x7fe8b5064f25912fba5521c8806f4f61b654b10ef662f95683bcb6e844e155fe",
          "blockNumber": "0x220f661",
          "blockTimestamp": "0x68cc49a5",
          "transactionHash": "0x36555a2a71456709df3d01c957fe4b31289d31e3a11f0657a3a808bfa97a00a7",
          "transactionIndex": "0x27",
          "logIndex": "0x4c",
          "removed": false
        },
        {
          "address": "0x1a44076050125825900e736c501f859c50fe728c",
          "topics": [
            "0x4e0a5bbfa0c11a64effb1ada324b5437a17272e1aed9320398715ef71bb20928"
          ],
          "data": "0x0000000000000000000000002c30c5039ab66544dd33d03ddbce977ec713b86f00000000000000000000000000000000000000000000000000000000000075e800000000000000000000000000000000000000000000000000000000000000000000000000000000000000000000000000000000000000000000000000000000",
          "blockHash": "0x7fe8b5064f25912fba5521c8806f4f61b654b10ef662f95683bcb6e844e155fe",
          "blockNumber": "0x220f661",
          "blockTimestamp": "0x68cc49a5",
          "transactionHash": "0x36555a2a71456709df3d01c957fe4b31289d31e3a11f0657a3a808bfa97a00a7",
          "transactionIndex": "0x27",
          "logIndex": "0x4d",
          "removed": false
        }
      ],
      "logsBloom": "0x00000000000000000000020800000000000000000000000000000000001000020400000000000000000000000000000000000000000000000000000000000000000000000000000000000000000000000000000000800000000000000000000000000000000000000000000000000000000000000010000000000000000000100000000000000000000000000000000000000000000000000000000000000000000000000000000000000000000000000000000000000000000000000000000000000000000000000000000000000000000000000000000000000000000000000000000000000000000000000000000000000000010000000000000000000000",
      "type": "0x2",
      "transactionHash": "0x36555a2a71456709df3d01c957fe4b31289d31e3a11f0657a3a808bfa97a00a7",
      "transactionIndex": "0x27",
      "blockHash": "0x7fe8b5064f25912fba5521c8806f4f61b654b10ef662f95683bcb6e844e155fe",
      "blockNumber": "0x220f661",
      "gasUsed": "0xfba1",
      "effectiveGasPrice": "0x7c3904",
      "from": "0x0ece75f3c36f7df2136dac7633165dbff53de3cd",
      "to": "0x1a44076050125825900e736c501f859c50fe728c",
      "contractAddress": null,
      "l1BaseFeeScalar": "0x8dd",
      "l1BlobBaseFee": "0x1",
      "l1BlobBaseFeeScalar": "0x101c12",
      "l1Fee": "0x24abf8b64",
      "l1GasPrice": "0x8f05e13f",
      "l1GasUsed": "0x710"
    },
    {
      "status": "0x1",
      "cumulativeGasUsed": "0x5219d8",
      "logs": [
        {
          "address": "0xb5320b0b3a13cc860893e2bd79fcd7e13484dda2",
          "topics": [
            "0x779cb2dd9d2bb1be1737d05435d744facbfb84a2a4912e21379d39beddcdc805"
          ],
          "data": "0x0000000000000000000000002c30c5039ab66544dd33d03ddbce977ec713b86f00000000000000000000000000000000000000000000000000000000000075e800000000000000000000000000000000000000000000000000000000000027100000000000000000000000002cca08ae69e0c44b18a57ab2a87644234daebae4",
          "blockHash": "0x7fe8b5064f25912fba5521c8806f4f61b654b10ef662f95683bcb6e844e155fe",
          "blockNumber": "0x220f661",
          "blockTimestamp": "0x68cc49a5",
          "transactionHash": "0x22bb5b42a125ba5e58ef2e7bd96c57500897fc73b147d696924f509d45893995",
          "transactionIndex": "0x28",
          "logIndex": "0x4e",
          "removed": false
        },
        {
          "address": "0xb5320b0b3a13cc860893e2bd79fcd7e13484dda2",
          "topics": [
            "0x82118522aa536ac0e96cc5c689407ae42b89d592aa133890a01f1509842f5081"
          ],
          "data": "0x0000000000000000000000002c30c5039ab66544dd33d03ddbce977ec713b86f00000000000000000000000000000000000000000000000000000000000075e80000000000000000000000000000000000000000000000000000000000000060000000000000000000000000000000000000000000000000000000000000000f000000000000000000000000000000000000000000000000000000000000000200000000000000000000000000000000000000000000000000000000000000ff000000000000000000000000000000000000000000000000000000000000000000000000000000000000000000000000000000000000000000000000000000c000000000000000000000000000000000000000000000000000000000000001200000000000000000000000000000000000000000000000000000000000000002000000000000000000000000554833698ae0fb22ecc90b01222903fd62ca4b47000000000000000000000000a7b5189bca84cd304d8553977c7c614329750d990000000000000000000000000000000000000000000000000000000000000000",
          "blockHash": "0x7fe8b5064f25912fba5521c8806f4f61b654b10ef662f95683bcb6e844e155fe",
          "blockNumber": "0x220f661",
          "blockTimestamp": "0x68cc49a5",
          "transactionHash": "0x22bb5b42a125ba5e58ef2e7bd96c57500897fc73b147d696924f509d45893995",
          "transactionIndex": "0x28",
          "logIndex": "0x4f",
          "removed": false
        },
        {
          "address": "0xb5320b0b3a13cc860893e2bd79fcd7e13484dda2",
          "topics": [
            "0x779cb2dd9d2bb1be1737d05435d744facbfb84a2a4912e21379d39beddcdc805"
          ],
          "data": "0x0000000000000000000000002c30c5039ab66544dd33d03ddbce977ec713b86f00000000000000000000000000000000000000000000000000000000000075c600000000000000000000000000000000000000000000000000000000000027100000000000000000000000002cca08ae69e0c44b18a57ab2a87644234daebae4",
          "blockHash": "0x7fe8b5064f25912fba5521c8806f4f61b654b10ef662f95683bcb6e844e155fe",
          "blockNumber": "0x220f661",
          "blockTimestamp": "0x68cc49a5",
          "transactionHash": "0x22bb5b42a125ba5e58ef2e7bd96c57500897fc73b147d696924f509d45893995",
          "transactionIndex": "0x28",
          "logIndex": "0x50",
          "removed": false
        },
        {
          "address": "0xb5320b0b3a13cc860893e2bd79fcd7e13484dda2",
          "topics": [
            "0x82118522aa536ac0e96cc5c689407ae42b89d592aa133890a01f1509842f5081"
          ],
          "data": "0x0000000000000000000000002c30c5039ab66544dd33d03ddbce977ec713b86f00000000000000000000000000000000000000000000000000000000000075c60000000000000000000000000000000000000000000000000000000000000060000000000000000000000000000000000000000000000000000000000000000f000000000000000000000000000000000000000000000000000000000000000200000000000000000000000000000000000000000000000000000000000000ff000000000000000000000000000000000000000000000000000000000000000000000000000000000000000000000000000000000000000000000000000000c000000000000000000000000000000000000000000000000000000000000001200000000000000000000000000000000000000000000000000000000000000002000000000000000000000000554833698ae0fb22ecc90b01222903fd62ca4b47000000000000000000000000a7b5189bca84cd304d8553977c7c614329750d990000000000000000000000000000000000000000000000000000000000000000",
          "blockHash": "0x7fe8b5064f25912fba5521c8806f4f61b654b10ef662f95683bcb6e844e155fe",
          "blockNumber": "0x220f661",
          "blockTimestamp": "0x68cc49a5",
          "transactionHash": "0x22bb5b42a125ba5e58ef2e7bd96c57500897fc73b147d696924f509d45893995",
          "transactionIndex": "0x28",
          "logIndex": "0x51",
          "removed": false
        }
      ],
      "logsBloom": "0x00000000000000000000000000000000000000000000000000000000000000000000000000000000000000000000000000000000000000000000000000000000000000000000000000000440000000000000000000000000002000000000000100000000000000000000000000000000000000000000000000000000000000000000000000000000000000000000000000000000000000000004000000000000000000000000000000000002000000000000000000000000000000000000000200000000000000000000000000000000000000000000000000000000000000000008000000000000000000000000000000000000000000000000000000000010",
      "type": "0x2",
      "transactionHash": "0x22bb5b42a125ba5e58ef2e7bd96c57500897fc73b147d696924f509d45893995",
      "transactionIndex": "0x28",
      "blockHash": "0x7fe8b5064f25912fba5521c8806f4f61b654b10ef662f95683bcb6e844e155fe",
      "blockNumber": "0x220f661",
      "gasUsed": "0x49de4",
      "effectiveGasPrice": "0x7c3904",
      "from": "0x0ece75f3c36f7df2136dac7633165dbff53de3cd",
      "to": "0x1a44076050125825900e736c501f859c50fe728c",
      "contractAddress": null,
      "l1BaseFeeScalar": "0x8dd",
      "l1BlobBaseFee": "0x1",
      "l1BlobBaseFeeScalar": "0x101c12",
      "l1Fee": "0x62059349e",
      "l1GasPrice": "0x8f05e13f",
      "l1GasUsed": "0x12e0"
    },
    {
      "status": "0x1",
      "cumulativeGasUsed": "0x55dda2",
      "logs": [
        {
          "address": "0xc70ab6f32772f59fbfc23889caf4ba3376c84baf",
          "topics": [
            "0x82118522aa536ac0e96cc5c689407ae42b89d592aa133890a01f1509842f5081"
          ],
          "data": "0x0000000000000000000000002c30c5039ab66544dd33d03ddbce977ec713b86f00000000000000000000000000000000000000000000000000000000000075e80000000000000000000000000000000000000000000000000000000000000060000000000000000000000000000000000000000000000000000000000000000f000000000000000000000000000000000000000000000000000000000000000200000000000000000000000000000000000000000000000000000000000000ff000000000000000000000000000000000000000000000000000000000000000000000000000000000000000000000000000000000000000000000000000000c000000000000000000000000000000000000000000000000000000000000001200000000000000000000000000000000000000000000000000000000000000002000000000000000000000000554833698ae0fb22ecc90b01222903fd62ca4b47000000000000000000000000a7b5189bca84cd304d8553977c7c614329750d990000000000000000000000000000000000000000000000000000000000000000",
          "blockHash": "0x7fe8b5064f25912fba5521c8806f4f61b654b10ef662f95683bcb6e844e155fe",
          "blockNumber": "0x220f661",
          "blockTimestamp": "0x68cc49a5",
          "transactionHash": "0x418cc608f6549a830bc9e1733fa6a3002e6c5e1e36aef00fea3b676694268d42",
          "transactionIndex": "0x29",
          "logIndex": "0x52",
          "removed": false
        },
        {
          "address": "0xc70ab6f32772f59fbfc23889caf4ba3376c84baf",
          "topics": [
            "0x82118522aa536ac0e96cc5c689407ae42b89d592aa133890a01f1509842f5081"
          ],
          "data": "0x0000000000000000000000002c30c5039ab66544dd33d03ddbce977ec713b86f00000000000000000000000000000000000000000000000000000000000075c60000000000000000000000000000000000000000000000000000000000000060000000000000000000000000000000000000000000000000000000000000000f000000000000000000000000000000000000000000000000000000000000000200000000000000000000000000000000000000000000000000000000000000ff000000000000000000000000000000000000000000000000000000000000000000000000000000000000000000000000000000000000000000000000000000c000000000000000000000000000000000000000000000000000000000000001200000000000000000000000000000000000000000000000000000000000000002000000000000000000000000554833698ae0fb22ecc90b01222903fd62ca4b47000000000000000000000000a7b5189bca84cd304d8553977c7c614329750d990000000000000000000000000000000000000000000000000000000000000000",
          "blockHash": "0x7fe8b5064f25912fba5521c8806f4f61b654b10ef662f95683bcb6e844e155fe",
          "blockNumber": "0x220f661",
          "blockTimestamp": "0x68cc49a5",
          "transactionHash": "0x418cc608f6549a830bc9e1733fa6a3002e6c5e1e36aef00fea3b676694268d42",
          "transactionIndex": "0x29",
          "logIndex": "0x53",
          "removed": false
        }
      ],
      "logsBloom": "0x00000000000000000000000800000000000000000000000000000000000000000000000000000000000000000000000000000000000000000000000000000000000000000000000000000000000000000000000000000000002000080000000000000000000000000000000000000000000000000000000000000000000000000000000000000000000000000000000000000000000000000000000000000000000000000000000000000002000000000000000000000000000000000000000000000000000000000000000000000000000000000000000000000000000000000000000020000000000000000000000000000000000000000000000000000010",
      "type": "0x2",
      "transactionHash": "0x418cc608f6549a830bc9e1733fa6a3002e6c5e1e36aef00fea3b676694268d42",
      "transactionIndex": "0x29",
      "blockHash": "0x7fe8b5064f25912fba5521c8806f4f61b654b10ef662f95683bcb6e844e155fe",
      "blockNumber": "0x220f661",
      "gasUsed": "0x3c3ca",
      "effectiveGasPrice": "0x7c3904",
      "from": "0x0ece75f3c36f7df2136dac7633165dbff53de3cd",
      "to": "0x1a44076050125825900e736c501f859c50fe728c",
      "contractAddress": null,
      "l1BaseFeeScalar": "0x8dd",
      "l1BlobBaseFee": "0x1",
      "l1BlobBaseFeeScalar": "0x101c12",
      "l1Fee": "0x4d1e8d10c",
      "l1GasPrice": "0x8f05e13f",
      "l1GasUsed": "0xeda"
    },
    {
      "status": "0x1",
      "cumulativeGasUsed": "0x569a57",
      "logs": [
        {
          "address": "0x2c30c5039ab66544dd33d03ddbce977ec713b86f",
          "topics": [
            "0x238399d427b947898edb290f5ff0f9109849b1c3ba196a42e35f00c50a54b98b"
          ],
          "data": "0x00000000000000000000000000000000000000000000000000000000000075c6000000000000000000000000af126b36958ef1a6ed80118841a7f1660f921346",
          "blockHash": "0x7fe8b5064f25912fba5521c8806f4f61b654b10ef662f95683bcb6e844e155fe",
          "blockNumber": "0x220f661",
          "blockTimestamp": "0x68cc49a5",
          "transactionHash": "0xad8193f8be2dc0250db1d5065c8e99654527daa5238a8b35ae54bb80a7cec290",
          "transactionIndex": "0x2a",
          "logIndex": "0x54",
          "removed": false
        }
      ],
      "logsBloom": "0x00000000000000000000000000000000000000000000000000000000000000000000000000000000002000000000000000000000000000000800000000000000000000000000000000000000000000000000000000000000000000000000000000000000000000000000000000000000000000000000000000000000000000000000000000000000000000000000000000000000000000000000000000000000000000000000000000000000000000000000000000000000000002000008000000000000000000000000000000000000000000000000000000040000000000000000000000000000000000000000000000000000000000000000200000000000",
      "type": "0x2",
      "transactionHash": "0xad8193f8be2dc0250db1d5065c8e99654527daa5238a8b35ae54bb80a7cec290",
      "transactionIndex": "0x2a",
      "blockHash": "0x7fe8b5064f25912fba5521c8806f4f61b654b10ef662f95683bcb6e844e155fe",
      "blockNumber": "0x220f661",
      "gasUsed": "0xbcb5",
      "effectiveGasPrice": "0x7c3904",
      "from": "0x0ece75f3c36f7df2136dac7633165dbff53de3cd",
      "to": "0x2c30c5039ab66544dd33d03ddbce977ec713b86f",
      "contractAddress": null,
      "l1BaseFeeScalar": "0x8dd",
      "l1BlobBaseFee": "0x1",
      "l1BlobBaseFeeScalar": "0x101c12",
      "l1Fee": "0x2073b07f4",
      "l1GasPrice": "0x8f05e13f",
      "l1GasUsed": "0x640"
    },
    {
      "status": "0x1",
      "cumulativeGasUsed": "0x57570c",
      "logs": [
        {
          "address": "0x2c30c5039ab66544dd33d03ddbce977ec713b86f",
          "topics": [
            "0x238399d427b947898edb290f5ff0f9109849b1c3ba196a42e35f00c50a54b98b"
          ],
          "data": "0x00000000000000000000000000000000000000000000000000000000000075e80000000000000000000000002c30c5039ab66544dd33d03ddbce977ec713b86f",
          "blockHash": "0x7fe8b5064f25912fba5521c8806f4f61b654b10ef662f95683bcb6e844e155fe",
          "blockNumber": "0x220f661",
          "blockTimestamp": "0x68cc49a5",
          "transactionHash": "0x9424868dd0f74a26147f3050edc3853ddb474267f8130b8dfaae985c66a5a60b",
          "transactionIndex": "0x2b",
          "logIndex": "0x55",
          "removed": false
        }
      ],
      "logsBloom": "0x00000000000000000000000000000000000000000000000000000000000000000000000000000000002000000000000000000000000000000800000000000000000000000000000000000000000000000000000000000000000000000000000000000000000000000000000000000000000000000000000000000000000000000000000000000000000000000000000000000000000000000000000000000000000000000000000000000000000000000000000000000000000002000008000000000000000000000000000000000000000000000000000000040000000000000000000000000000000000000000000000000000000000000000200000000000",
      "type": "0x2",
      "transactionHash": "0x9424868dd0f74a26147f3050edc3853ddb474267f8130b8dfaae985c66a5a60b",
      "transactionIndex": "0x2b",
      "blockHash": "0x7fe8b5064f25912fba5521c8806f4f61b654b10ef662f95683bcb6e844e155fe",
      "blockNumber": "0x220f661",
      "gasUsed": "0xbcb5",
      "effectiveGasPrice": "0x7c3904",
      "from": "0x0ece75f3c36f7df2136dac7633165dbff53de3cd",
      "to": "0x2c30c5039ab66544dd33d03ddbce977ec713b86f",
      "contractAddress": null,
      "l1BaseFeeScalar": "0x8dd",
      "l1BlobBaseFee": "0x1",
      "l1BlobBaseFeeScalar": "0x101c12",
      "l1Fee": "0x2073b07f4",
      "l1GasPrice": "0x8f05e13f",
      "l1GasUsed": "0x640"
    },
    {
      "status": "0x1",
      "cumulativeGasUsed": "0x5ef65c",
      "logs": [
        {
          "address": "0x2c30c5039ab66544dd33d03ddbce977ec713b86f",
          "topics": [
            "0xbe4864a8e820971c0247f5992e2da559595f7bf076a21cb5928d443d2a13b674"
          ],
          "data": "0x00000000000000000000000000000000000000000000000000000000000000200000000000000000000000000000000000000000000000000000000000000002000000000000000000000000000000000000000000000000000000000000004000000000000000000000000000000000000000000000000000000000000000e000000000000000000000000000000000000000000000000000000000000075e8000000000000000000000000000000000000000000000000000000000000000100000000000000000000000000000000000000000000000000000000000000600000000000000000000000000000000000000000000000000000000000000016000301001101000000000000000000000000000138800000000000000000000000000000000000000000000000000000000000000000000000000000000075c6000000000000000000000000000000000000000000000000000000000000000100000000000000000000000000000000000000000000000000000000000000600000000000000000000000000000000000000000000000000000000000000016000301001101000000000000000000000000000186a000000000000000000000",
          "blockHash": "0x7fe8b5064f25912fba5521c8806f4f61b654b10ef662f95683bcb6e844e155fe",
          "blockNumber": "0x220f661",
          "blockTimestamp": "0x68cc49a5",
          "transactionHash": "0xe3a147cdfffb9461b05d704611b0773b64ad24bbe3fff9da80da6a7b3e6b394a",
          "transactionIndex": "0x2f",
          "logIndex": "0x60",
          "removed": false
        }
      ],
      "logsBloom": "0x00000000000000000000000000000000000000000000000000000000000000000000000000000000002000000000000000000000000000000000400000000000000000000000000000000000000000000000000000000000000000000000000000000000000000000000000000000000000000000000000000000000000000000000000000000000000000000000000000000000000000000000000000080000000000000000000000000000000000000000000000000000000000000008000000000000000000000000000002000000000000000000000000000000000000000000000000000000000000000000000000000000000000000000200000000000",
      "type": "0x2",
      "transactionHash": "0xe3a147cdfffb9461b05d704611b0773b64ad24bbe3fff9da80da6a7b3e6b394a",
      "transactionIndex": "0x2f",
      "blockHash": "0x7fe8b5064f25912fba5521c8806f4f61b654b10ef662f95683bcb6e844e155fe",
      "blockNumber": "0x220f661",
      "gasUsed": "0x14274",
      "effectiveGasPrice": "0x7c3904",
      "from": "0x0ece75f3c36f7df2136dac7633165dbff53de3cd",
      "to": "0x2c30c5039ab66544dd33d03ddbce977ec713b86f",
      "contractAddress": null,
      "l1BaseFeeScalar": "0x8dd",
      "l1BlobBaseFee": "0x1",
      "l1BlobBaseFeeScalar": "0x101c12",
      "l1Fee": "0x2d1647af5",
      "l1GasPrice": "0x8f05e13f",
      "l1GasUsed": "0x8ae"
    },
    {
      "status": "0x1",
      "cumulativeGasUsed": "0x5fab6b",
      "logs": [],
      "logsBloom": "0x00000000000000000000000000000000000000000000000000000000000000000000000000000000000000000000000000000000000000000000000000000000000000000000000000000000000000000000000000000000000000000000000000000000000000000000000000000000000000000000000000000000000000000000000000000000000000000000000000000000000000000000000000000000000000000000000000000000000000000000000000000000000000000000000000000000000000000000000000000000000000000000000000000000000000000000000000000000000000000000000000000000000000000000000000000000",
      "type": "0x2",
      "transactionHash": "0xe5056e6566429b45c115f99d1351b9f4d77a5a0be4609b6e8300484ccdc66f9f",
      "transactionIndex": "0x30",
      "blockHash": "0x7fe8b5064f25912fba5521c8806f4f61b654b10ef662f95683bcb6e844e155fe",
      "blockNumber": "0x220f661",
      "gasUsed": "0xb50f",
      "effectiveGasPrice": "0x7c3904",
      "from": "0x0ece75f3c36f7df2136dac7633165dbff53de3cd",
      "to": "0x2c30c5039ab66544dd33d03ddbce977ec713b86f",
      "contractAddress": null,
      "l1BaseFeeScalar": "0x8dd",
      "l1BlobBaseFee": "0x1",
      "l1BlobBaseFeeScalar": "0x101c12",
      "l1Fee": "0x2073b07f4",
      "l1GasPrice": "0x8f05e13f",
      "l1GasUsed": "0x640"
    }
  ],
  "libraries": [],
  "pending": [],
  "returns": {},
  "timestamp": 1758218659507,
  "chain": 8453,
  "commit": "6c82bda"
}