{
  "transactions": [
    {
      "hash": "0xbf4401e7cad7c19f37d19d398ea369d47d67990755088230fed93ae3580ffdc6",
      "transactionType": "CALL",
      "contractName": null,
      "contractAddress": "0x1a44076050125825900e736c501f859c50fe728c",
      "function": "setSendLibrary(address,uint32,address)",
      "arguments": [
        "0xBB4a3e822190C898C42C0836636D897EBdd8d53A",
        "30184",
        "0xB5320B0B3a13cC860893E2Bd79FCd7e13484Dda2"
      ],
      "transaction": {
        "from": "0x0ece75f3c36f7df2136dac7633165dbff53de3cd",
        "to": "0x1a44076050125825900e736c501f859c50fe728c",
        "gas": "0x1378b",
        "value": "0x0",
        "input": "0x9535ff30000000000000000000000000bb4a3e822190c898c42c0836636d897ebdd8d53a00000000000000000000000000000000000000000000000000000000000075e8000000000000000000000000b5320b0b3a13cc860893e2bd79fcd7e13484dda2",
        "nonce": "0x137",
        "chainId": "0x2105"
      },
      "additionalContracts": [],
      "isFixedGasLimit": false
    },
    {
      "hash": "0x0daff24ca947eb8995b8c483f71e53f2cbe8031647ad65b8ff587062103d4f50",
      "transactionType": "CALL",
      "contractName": null,
      "contractAddress": "0x1a44076050125825900e736c501f859c50fe728c",
      "function": "setSendLibrary(address,uint32,address)",
      "arguments": [
        "0xBB4a3e822190C898C42C0836636D897EBdd8d53A",
        "30150",
        "0xB5320B0B3a13cC860893E2Bd79FCd7e13484Dda2"
      ],
      "transaction": {
        "from": "0x0ece75f3c36f7df2136dac7633165dbff53de3cd",
        "to": "0x1a44076050125825900e736c501f859c50fe728c",
        "gas": "0x1378b",
        "value": "0x0",
        "input": "0x9535ff30000000000000000000000000bb4a3e822190c898c42c0836636d897ebdd8d53a00000000000000000000000000000000000000000000000000000000000075c6000000000000000000000000b5320b0b3a13cc860893e2bd79fcd7e13484dda2",
        "nonce": "0x138",
        "chainId": "0x2105"
      },
      "additionalContracts": [],
      "isFixedGasLimit": false
    },
    {
      "hash": "0x1a8ead851633be1eafa1e61fd5d8686b200bd38fce7bdba143afa03dde8bbc34",
      "transactionType": "CALL",
      "contractName": null,
      "contractAddress": "0x1a44076050125825900e736c501f859c50fe728c",
      "function": "setReceiveLibrary(address,uint32,address,uint256)",
      "arguments": [
        "0xBB4a3e822190C898C42C0836636D897EBdd8d53A",
        "30184",
        "0xc70AB6f32772f59fBfc23889Caf4Ba3376C84bAf",
        "0"
      ],
      "transaction": {
        "from": "0x0ece75f3c36f7df2136dac7633165dbff53de3cd",
        "to": "0x1a44076050125825900e736c501f859c50fe728c",
        "gas": "0x17001",
        "value": "0x0",
        "input": "0x6a14d715000000000000000000000000bb4a3e822190c898c42c0836636d897ebdd8d53a00000000000000000000000000000000000000000000000000000000000075e8000000000000000000000000c70ab6f32772f59fbfc23889caf4ba3376c84baf0000000000000000000000000000000000000000000000000000000000000000",
        "nonce": "0x139",
        "chainId": "0x2105"
      },
      "additionalContracts": [],
      "isFixedGasLimit": false
    },
    {
      "hash": "0x2302bb7ee089a8bc46e9eabda4ec0e5b780fb1cff8c5fd05dc33c6c9f98d64fb",
      "transactionType": "CALL",
      "contractName": null,
      "contractAddress": "0x1a44076050125825900e736c501f859c50fe728c",
      "function": "setConfig(address,address,(uint32,uint32,bytes)[])",
      "arguments": [
        "0xBB4a3e822190C898C42C0836636D897EBdd8d53A",
        "0xB5320B0B3a13cC860893E2Bd79FCd7e13484Dda2",
        "[(30184, 1, 0x00000000000000000000000000000000000000000000000000000000000027100000000000000000000000002cca08ae69e0c44b18a57ab2a87644234daebae4), (30184, 2, 0x0000000000000000000000000000000000000000000000000000000000000020000000000000000000000000000000000000000000000000000000000000000f000000000000000000000000000000000000000000000000000000000000000200000000000000000000000000000000000000000000000000000000000000ff000000000000000000000000000000000000000000000000000000000000000000000000000000000000000000000000000000000000000000000000000000c000000000000000000000000000000000000000000000000000000000000001200000000000000000000000000000000000000000000000000000000000000002000000000000000000000000554833698ae0fb22ecc90b01222903fd62ca4b47000000000000000000000000a7b5189bca84cd304d8553977c7c614329750d990000000000000000000000000000000000000000000000000000000000000000), (30150, 1, 0x00000000000000000000000000000000000000000000000000000000000027100000000000000000000000002cca08ae69e0c44b18a57ab2a87644234daebae4), (30150, 2, 0x0000000000000000000000000000000000000000000000000000000000000020000000000000000000000000000000000000000000000000000000000000000f000000000000000000000000000000000000000000000000000000000000000200000000000000000000000000000000000000000000000000000000000000ff000000000000000000000000000000000000000000000000000000000000000000000000000000000000000000000000000000000000000000000000000000c000000000000000000000000000000000000000000000000000000000000001200000000000000000000000000000000000000000000000000000000000000002000000000000000000000000554833698ae0fb22ecc90b01222903fd62ca4b47000000000000000000000000a7b5189bca84cd304d8553977c7c614329750d990000000000000000000000000000000000000000000000000000000000000000)]"
      ],
      "transaction": {
        "from": "0x0ece75f3c36f7df2136dac7633165dbff53de3cd",
        "to": "0x1a44076050125825900e736c501f859c50fe728c",
        "gas": "0x6607c",
        "value": "0x0",
        "input": "0x6dbd9f90000000000000000000000000bb4a3e822190c898c42c0836636d897ebdd8d53a000000000000000000000000b5320b0b3a13cc860893e2bd79fcd7e13484dda20000000000000000000000000000000000000000000000000000000000000060000000000000000000000000000000000000000000000000000000000000000400000000000000000000000000000000000000000000000000000000000000800000000000000000000000000000000000000000000000000000000000000140000000000000000000000000000000000000000000000000000000000000032000000000000000000000000000000000000000000000000000000000000003e000000000000000000000000000000000000000000000000000000000000075e800000000000000000000000000000000000000000000000000000000000000010000000000000000000000000000000000000000000000000000000000000060000000000000000000000000000000000000000000000000000000000000004000000000000000000000000000000000000000000000000000000000000027100000000000000000000000002cca08ae69e0c44b18a57ab2a87644234daebae400000000000000000000000000000000000000000000000000000000000075e80000000000000000000000000000000000000000000000000000000000000002000000000000000000000000000000000000000000000000000000000000006000000000000000000000000000000000000000000000000000000000000001600000000000000000000000000000000000000000000000000000000000000020000000000000000000000000000000000000000000000000000000000000000f000000000000000000000000000000000000000000000000000000000000000200000000000000000000000000000000000000000000000000000000000000ff000000000000000000000000000000000000000000000000000000000000000000000000000000000000000000000000000000000000000000000000000000c000000000000000000000000000000000000000000000000000000000000001200000000000000000000000000000000000000000000000000000000000000002000000000000000000000000554833698ae0fb22ecc90b01222903fd62ca4b47000000000000000000000000a7b5189bca84cd304d8553977c7c614329750d99000000000000000000000000000000000000000000000000000000000000000000000000000000000000000000000000000000000000000000000000000075c600000000000000000000000000000000000000000000000000000000000000010000000000000000000000000000000000000000000000000000000000000060000000000000000000000000000000000000000000000000000000000000004000000000000000000000000000000000000000000000000000000000000027100000000000000000000000002cca08ae69e0c44b18a57ab2a87644234daebae400000000000000000000000000000000000000000000000000000000000075c60000000000000000000000000000000000000000000000000000000000000002000000000000000000000000000000000000000000000000000000000000006000000000000000000000000000000000000000000000000000000000000001600000000000000000000000000000000000000000000000000000000000000020000000000000000000000000000000000000000000000000000000000000000f000000000000000000000000000000000000000000000000000000000000000200000000000000000000000000000000000000000000000000000000000000ff000000000000000000000000000000000000000000000000000000000000000000000000000000000000000000000000000000000000000000000000000000c000000000000000000000000000000000000000000000000000000000000001200000000000000000000000000000000000000000000000000000000000000002000000000000000000000000554833698ae0fb22ecc90b01222903fd62ca4b47000000000000000000000000a7b5189bca84cd304d8553977c7c614329750d990000000000000000000000000000000000000000000000000000000000000000",
        "nonce": "0x13a",
        "chainId": "0x2105"
      },
      "additionalContracts": [],
      "isFixedGasLimit": false
    },
    {
      "hash": "0x978ff5624ff10618ff60ea28d6f1361a73defb77ecfe3ad65212af73b0f59764",
      "transactionType": "CALL",
      "contractName": null,
      "contractAddress": "0x1a44076050125825900e736c501f859c50fe728c",
      "function": "setConfig(address,address,(uint32,uint32,bytes)[])",
      "arguments": [
        "0xBB4a3e822190C898C42C0836636D897EBdd8d53A",
        "0xc70AB6f32772f59fBfc23889Caf4Ba3376C84bAf",
        "[(30184, 2, 0x0000000000000000000000000000000000000000000000000000000000000020000000000000000000000000000000000000000000000000000000000000000f000000000000000000000000000000000000000000000000000000000000000200000000000000000000000000000000000000000000000000000000000000ff000000000000000000000000000000000000000000000000000000000000000000000000000000000000000000000000000000000000000000000000000000c000000000000000000000000000000000000000000000000000000000000001200000000000000000000000000000000000000000000000000000000000000002000000000000000000000000554833698ae0fb22ecc90b01222903fd62ca4b47000000000000000000000000a7b5189bca84cd304d8553977c7c614329750d990000000000000000000000000000000000000000000000000000000000000000), (30150, 2, 0x0000000000000000000000000000000000000000000000000000000000000020000000000000000000000000000000000000000000000000000000000000000f000000000000000000000000000000000000000000000000000000000000000200000000000000000000000000000000000000000000000000000000000000ff000000000000000000000000000000000000000000000000000000000000000000000000000000000000000000000000000000000000000000000000000000c000000000000000000000000000000000000000000000000000000000000001200000000000000000000000000000000000000000000000000000000000000002000000000000000000000000554833698ae0fb22ecc90b01222903fd62ca4b47000000000000000000000000a7b5189bca84cd304d8553977c7c614329750d990000000000000000000000000000000000000000000000000000000000000000)]"
      ],
      "transaction": {
        "from": "0x0ece75f3c36f7df2136dac7633165dbff53de3cd",
        "to": "0x1a44076050125825900e736c501f859c50fe728c",
        "gas": "0x5818a",
        "value": "0x0",
        "input": "0x6dbd9f90000000000000000000000000bb4a3e822190c898c42c0836636d897ebdd8d53a000000000000000000000000c70ab6f32772f59fbfc23889caf4ba3376c84baf000000000000000000000000000000000000000000000000000000000000006000000000000000000000000000000000000000000000000000000000000000020000000000000000000000000000000000000000000000000000000000000040000000000000000000000000000000000000000000000000000000000000022000000000000000000000000000000000000000000000000000000000000075e80000000000000000000000000000000000000000000000000000000000000002000000000000000000000000000000000000000000000000000000000000006000000000000000000000000000000000000000000000000000000000000001600000000000000000000000000000000000000000000000000000000000000020000000000000000000000000000000000000000000000000000000000000000f000000000000000000000000000000000000000000000000000000000000000200000000000000000000000000000000000000000000000000000000000000ff000000000000000000000000000000000000000000000000000000000000000000000000000000000000000000000000000000000000000000000000000000c000000000000000000000000000000000000000000000000000000000000001200000000000000000000000000000000000000000000000000000000000000002000000000000000000000000554833698ae0fb22ecc90b01222903fd62ca4b47000000000000000000000000a7b5189bca84cd304d8553977c7c614329750d99000000000000000000000000000000000000000000000000000000000000000000000000000000000000000000000000000000000000000000000000000075c60000000000000000000000000000000000000000000000000000000000000002000000000000000000000000000000000000000000000000000000000000006000000000000000000000000000000000000000000000000000000000000001600000000000000000000000000000000000000000000000000000000000000020000000000000000000000000000000000000000000000000000000000000000f000000000000000000000000000000000000000000000000000000000000000200000000000000000000000000000000000000000000000000000000000000ff000000000000000000000000000000000000000000000000000000000000000000000000000000000000000000000000000000000000000000000000000000c000000000000000000000000000000000000000000000000000000000000001200000000000000000000000000000000000000000000000000000000000000002000000000000000000000000554833698ae0fb22ecc90b01222903fd62ca4b47000000000000000000000000a7b5189bca84cd304d8553977c7c614329750d990000000000000000000000000000000000000000000000000000000000000000",
        "nonce": "0x13b",
        "chainId": "0x2105"
      },
      "additionalContracts": [],
      "isFixedGasLimit": false
    },
    {
      "hash": "0xdebe6e5953110ee33800b3a62d61ac13043046a9c933f992edb15506c695383b",
      "transactionType": "CALL",
      "contractName": null,
      "contractAddress": "0xbb4a3e822190c898c42c0836636d897ebdd8d53a",
      "function": "setPeer(uint32,bytes32)",
      "arguments": [
        "30150",
        "0x000000000000000000000000af126b36958ef1a6ed80118841a7f1660f921346"
      ],
      "transaction": {
        "from": "0x0ece75f3c36f7df2136dac7633165dbff53de3cd",
        "to": "0xbb4a3e822190c898c42c0836636d897ebdd8d53a",
        "gas": "0x1141b",
        "value": "0x0",
        "input": "0x3400288b00000000000000000000000000000000000000000000000000000000000075c6000000000000000000000000af126b36958ef1a6ed80118841a7f1660f921346",
        "nonce": "0x13c",
        "chainId": "0x2105"
      },
      "additionalContracts": [],
      "isFixedGasLimit": false
    },
    {
      "hash": "0x88302d3107417a7848d2817c6bbf1145fbd0443f52d75c152bb20e08d3c12947",
      "transactionType": "CALL",
      "contractName": null,
      "contractAddress": "0xbb4a3e822190c898c42c0836636d897ebdd8d53a",
      "function": "setPeer(uint32,bytes32)",
      "arguments": [
        "30184",
        "0x000000000000000000000000bb4a3e822190c898c42c0836636d897ebdd8d53a"
      ],
      "transaction": {
        "from": "0x0ece75f3c36f7df2136dac7633165dbff53de3cd",
        "to": "0xbb4a3e822190c898c42c0836636d897ebdd8d53a",
        "gas": "0x1141b",
        "value": "0x0",
        "input": "0x3400288b00000000000000000000000000000000000000000000000000000000000075e8000000000000000000000000bb4a3e822190c898c42c0836636d897ebdd8d53a",
        "nonce": "0x13d",
        "chainId": "0x2105"
      },
      "additionalContracts": [],
      "isFixedGasLimit": false
    },
    {
      "hash": "0xabbdc734c7bc60f8c59e467f49afa09eb5d36dbc6df10d57774060a4ccc530bc",
      "transactionType": "CALL",
      "contractName": null,
      "contractAddress": "0xbb4a3e822190c898c42c0836636d897ebdd8d53a",
      "function": "setEnforcedOptions((uint32,uint16,bytes)[])",
      "arguments": [
        "[(30184, 1, 0x00030100110100000000000000000000000000013880), (30150, 1, 0x000301001101000000000000000000000000000186a0)]"
      ],
      "transaction": {
        "from": "0x0ece75f3c36f7df2136dac7633165dbff53de3cd",
        "to": "0xbb4a3e822190c898c42c0836636d897ebdd8d53a",
        "gas": "0x1bd63",
        "value": "0x0",
        "input": "0xb98bd07000000000000000000000000000000000000000000000000000000000000000200000000000000000000000000000000000000000000000000000000000000002000000000000000000000000000000000000000000000000000000000000004000000000000000000000000000000000000000000000000000000000000000e000000000000000000000000000000000000000000000000000000000000075e8000000000000000000000000000000000000000000000000000000000000000100000000000000000000000000000000000000000000000000000000000000600000000000000000000000000000000000000000000000000000000000000016000301001101000000000000000000000000000138800000000000000000000000000000000000000000000000000000000000000000000000000000000075c6000000000000000000000000000000000000000000000000000000000000000100000000000000000000000000000000000000000000000000000000000000600000000000000000000000000000000000000000000000000000000000000016000301001101000000000000000000000000000186a000000000000000000000",
        "nonce": "0x13e",
        "chainId": "0x2105"
      },
      "additionalContracts": [],
      "isFixedGasLimit": false
    },
    {
      "hash": "0x5cfbe05577d26ea89db09c8de57b3405f695485e4e8f27fa32c2f91101c7bdcd",
      "transactionType": "CALL",
      "contractName": null,
      "contractAddress": "0xbb4a3e822190c898c42c0836636d897ebdd8d53a",
      "function": "setOFTaddress(address)",
      "arguments": [
        "0xAd063B1915Bf95fB32f79138c0B668F232676333"
      ],
      "transaction": {
        "from": "0x0ece75f3c36f7df2136dac7633165dbff53de3cd",
        "to": "0xbb4a3e822190c898c42c0836636d897ebdd8d53a",
        "gas": "0xfa15",
        "value": "0x0",
        "input": "0xea89900e000000000000000000000000ad063b1915bf95fb32f79138c0b668f232676333",
        "nonce": "0x13f",
        "chainId": "0x2105"
      },
      "additionalContracts": [],
      "isFixedGasLimit": false
    }
  ],
  "receipts": [
    {
      "status": "0x1",
      "cumulativeGasUsed": "0x2f27c14",
      "logs": [
        {
          "address": "0x1a44076050125825900e736c501f859c50fe728c",
          "topics": [
            "0x4cff966ebee29a156dcb34cf72c1d06231fb1777f6bdf6e8089819232f002b1c"
          ],
          "data": "0x000000000000000000000000bb4a3e822190c898c42c0836636d897ebdd8d53a00000000000000000000000000000000000000000000000000000000000075e8000000000000000000000000b5320b0b3a13cc860893e2bd79fcd7e13484dda2",
          "blockHash": "0x65f0e99adba3d4fe4eccd27efdd96ae430f0adb126a1ddbcae7acdf55906ea9c",
          "blockNumber": "0x220ff6c",
          "blockTimestamp": "0x68cc5bbb",
          "transactionHash": "0xbf4401e7cad7c19f37d19d398ea369d47d67990755088230fed93ae3580ffdc6",
          "transactionIndex": "0xaa",
          "logIndex": "0x598",
          "removed": false
        }
      ],
      "logsBloom": "0x00000000000000000000000000000000000200000000000000000000001000000000000000000000000000000000000000000000000000000000000001000000000000000000000000000000000000000000000000000000000000000000000000000000000000000000000000000000000000000010000000000000000000000000000000000000000000000000000000000000000000000000000000000000000000000000000000000000000000000000000000000000000000000000000000000000000000000000000000000000000000000000000000000000000000000040000000000000000000000000000000000000010000000000000000000000",
      "type": "0x2",
      "transactionHash": "0xbf4401e7cad7c19f37d19d398ea369d47d67990755088230fed93ae3580ffdc6",
      "transactionIndex": "0xaa",
      "blockHash": "0x65f0e99adba3d4fe4eccd27efdd96ae430f0adb126a1ddbcae7acdf55906ea9c",
      "blockNumber": "0x220ff6c",
      "gasUsed": "0xe18e",
      "effectiveGasPrice": "0x2cb8b6",
      "from": "0x0ece75f3c36f7df2136dac7633165dbff53de3cd",
      "to": "0x1a44076050125825900e736c501f859c50fe728c",
      "contractAddress": null,
      "l1BaseFeeScalar": "0x8dd",
      "l1BlobBaseFee": "0x1",
      "l1BlobBaseFeeScalar": "0x101c12",
      "l1Fee": "0xd9a44ba7",
      "l1GasPrice": "0x37f35527",
      "l1GasUsed": "0x6b2"
    },
    {
      "status": "0x1",
      "cumulativeGasUsed": "0x2f35da2",
      "logs": [
        {
          "address": "0x1a44076050125825900e736c501f859c50fe728c",
          "topics": [
            "0x4cff966ebee29a156dcb34cf72c1d06231fb1777f6bdf6e8089819232f002b1c"
          ],
          "data": "0x000000000000000000000000bb4a3e822190c898c42c0836636d897ebdd8d53a00000000000000000000000000000000000000000000000000000000000075c6000000000000000000000000b5320b0b3a13cc860893e2bd79fcd7e13484dda2",
          "blockHash": "0x65f0e99adba3d4fe4eccd27efdd96ae430f0adb126a1ddbcae7acdf55906ea9c",
          "blockNumber": "0x220ff6c",
          "blockTimestamp": "0x68cc5bbb",
          "transactionHash": "0x0daff24ca947eb8995b8c483f71e53f2cbe8031647ad65b8ff587062103d4f50",
          "transactionIndex": "0xab",
          "logIndex": "0x599",
          "removed": false
        }
      ],
      "logsBloom": "0x00000000000000000000000000000000000200000000000000000000001000000000000000000000000000000000000000000000000000000000000001000000000000000000000000000000000000000000000000000000000000000000000000000000000000000000000000000000000000000010000000000000000000000000000000000000000000000000000000000000000000000000000000000000000000000000000000000000000000000000000000000000000000000000000000000000000000000000000000000000000000000000000000000000000000000040000000000000000000000000000000000000010000000000000000000000",
      "type": "0x2",
      "transactionHash": "0x0daff24ca947eb8995b8c483f71e53f2cbe8031647ad65b8ff587062103d4f50",
      "transactionIndex": "0xab",
      "blockHash": "0x65f0e99adba3d4fe4eccd27efdd96ae430f0adb126a1ddbcae7acdf55906ea9c",
      "blockNumber": "0x220ff6c",
      "gasUsed": "0xe18e",
      "effectiveGasPrice": "0x2cb8b6",
      "from": "0x0ece75f3c36f7df2136dac7633165dbff53de3cd",
      "to": "0x1a44076050125825900e736c501f859c50fe728c",
      "contractAddress": null,
      "l1BaseFeeScalar": "0x8dd",
      "l1BlobBaseFee": "0x1",
      "l1BlobBaseFeeScalar": "0x101c12",
      "l1Fee": "0xd9a44ba7",
      "l1GasPrice": "0x37f35527",
      "l1GasUsed": "0x6b2"
    },
    {
      "status": "0x1",
      "cumulativeGasUsed": "0x2f45943",
      "logs": [
        {
          "address": "0x1a44076050125825900e736c501f859c50fe728c",
          "topics": [
            "0xcd6f92f5ac6185a5acfa02c92090746cec64d777269cbcd0ed031e396657a1c2"
          ],
          "data": "0x000000000000000000000000bb4a3e822190c898c42c0836636d897ebdd8d53a00000000000000000000000000000000000000000000000000000000000075e8000000000000000000000000c70ab6f32772f59fbfc23889caf4ba3376c84baf",
          "blockHash": "0x65f0e99adba3d4fe4eccd27efdd96ae430f0adb126a1ddbcae7acdf55906ea9c",
          "blockNumber": "0x220ff6c",
          "blockTimestamp": "0x68cc5bbb",
          "transactionHash": "0x1a8ead851633be1eafa1e61fd5d8686b200bd38fce7bdba143afa03dde8bbc34",
          "transactionIndex": "0xac",
          "logIndex": "0x59a",
          "removed": false
        },
        {
          "address": "0x1a44076050125825900e736c501f859c50fe728c",
          "topics": [
            "0x4e0a5bbfa0c11a64effb1ada324b5437a17272e1aed9320398715ef71bb20928"
          ],
          "data": "0x000000000000000000000000bb4a3e822190c898c42c0836636d897ebdd8d53a00000000000000000000000000000000000000000000000000000000000075e800000000000000000000000000000000000000000000000000000000000000000000000000000000000000000000000000000000000000000000000000000000",
          "blockHash": "0x65f0e99adba3d4fe4eccd27efdd96ae430f0adb126a1ddbcae7acdf55906ea9c",
          "blockNumber": "0x220ff6c",
          "blockTimestamp": "0x68cc5bbb",
          "transactionHash": "0x1a8ead851633be1eafa1e61fd5d8686b200bd38fce7bdba143afa03dde8bbc34",
          "transactionIndex": "0xac",
          "logIndex": "0x59b",
          "removed": false
        }
      ],
      "logsBloom": "0x00000000000000000000020800000000000000000000000000000000001000020400000000000000000000000000000000000000000000000000000000000000000000000000000000000000000000000000000000800000000000000000000000000000000000000000000000000000000000000010000000000000000000100000000000000000000000000000000000000000000000000000000000000000000000000000000000000000000000000000000000000000000000000000000000000000000000000000000000000000000000000000000000000000000000000000000000000000000000000000000000000000010000000000000000000000",
      "type": "0x2",
      "transactionHash": "0x1a8ead851633be1eafa1e61fd5d8686b200bd38fce7bdba143afa03dde8bbc34",
      "transactionIndex": "0xac",
      "blockHash": "0x65f0e99adba3d4fe4eccd27efdd96ae430f0adb126a1ddbcae7acdf55906ea9c",
      "blockNumber": "0x220ff6c",
      "gasUsed": "0xfba1",
      "effectiveGasPrice": "0x2cb8b6",
      "from": "0x0ece75f3c36f7df2136dac7633165dbff53de3cd",
      "to": "0x1a44076050125825900e736c501f859c50fe728c",
      "contractAddress": null,
      "l1BaseFeeScalar": "0x8dd",
      "l1BlobBaseFee": "0x1",
      "l1BlobBaseFeeScalar": "0x101c12",
      "l1Fee": "0xe5891f3e",
      "l1GasPrice": "0x37f35527",
      "l1GasUsed": "0x710"
    },
    {
      "status": "0x1",
      "cumulativeGasUsed": "0x2f8f727",
      "logs": [
        {
          "address": "0xb5320b0b3a13cc860893e2bd79fcd7e13484dda2",
          "topics": [
            "0x779cb2dd9d2bb1be1737d05435d744facbfb84a2a4912e21379d39beddcdc805"
          ],
          "data": "0x000000000000000000000000bb4a3e822190c898c42c0836636d897ebdd8d53a00000000000000000000000000000000000000000000000000000000000075e800000000000000000000000000000000000000000000000000000000000027100000000000000000000000002cca08ae69e0c44b18a57ab2a87644234daebae4",
          "blockHash": "0x65f0e99adba3d4fe4eccd27efdd96ae430f0adb126a1ddbcae7acdf55906ea9c",
          "blockNumber": "0x220ff6c",
          "blockTimestamp": "0x68cc5bbb",
          "transactionHash": "0x2302bb7ee089a8bc46e9eabda4ec0e5b780fb1cff8c5fd05dc33c6c9f98d64fb",
          "transactionIndex": "0xad",
          "logIndex": "0x59c",
          "removed": false
        },
        {
          "address": "0xb5320b0b3a13cc860893e2bd79fcd7e13484dda2",
          "topics": [
            "0x82118522aa536ac0e96cc5c689407ae42b89d592aa133890a01f1509842f5081"
          ],
          "data": "0x000000000000000000000000bb4a3e822190c898c42c0836636d897ebdd8d53a00000000000000000000000000000000000000000000000000000000000075e80000000000000000000000000000000000000000000000000000000000000060000000000000000000000000000000000000000000000000000000000000000f000000000000000000000000000000000000000000000000000000000000000200000000000000000000000000000000000000000000000000000000000000ff000000000000000000000000000000000000000000000000000000000000000000000000000000000000000000000000000000000000000000000000000000c000000000000000000000000000000000000000000000000000000000000001200000000000000000000000000000000000000000000000000000000000000002000000000000000000000000554833698ae0fb22ecc90b01222903fd62ca4b47000000000000000000000000a7b5189bca84cd304d8553977c7c614329750d990000000000000000000000000000000000000000000000000000000000000000",
          "blockHash": "0x65f0e99adba3d4fe4eccd27efdd96ae430f0adb126a1ddbcae7acdf55906ea9c",
          "blockNumber": "0x220ff6c",
          "blockTimestamp": "0x68cc5bbb",
          "transactionHash": "0x2302bb7ee089a8bc46e9eabda4ec0e5b780fb1cff8c5fd05dc33c6c9f98d64fb",
          "transactionIndex": "0xad",
          "logIndex": "0x59d",
          "removed": false
        },
        {
          "address": "0xb5320b0b3a13cc860893e2bd79fcd7e13484dda2",
          "topics": [
            "0x779cb2dd9d2bb1be1737d05435d744facbfb84a2a4912e21379d39beddcdc805"
          ],
          "data": "0x000000000000000000000000bb4a3e822190c898c42c0836636d897ebdd8d53a00000000000000000000000000000000000000000000000000000000000075c600000000000000000000000000000000000000000000000000000000000027100000000000000000000000002cca08ae69e0c44b18a57ab2a87644234daebae4",
          "blockHash": "0x65f0e99adba3d4fe4eccd27efdd96ae430f0adb126a1ddbcae7acdf55906ea9c",
          "blockNumber": "0x220ff6c",
          "blockTimestamp": "0x68cc5bbb",
          "transactionHash": "0x2302bb7ee089a8bc46e9eabda4ec0e5b780fb1cff8c5fd05dc33c6c9f98d64fb",
          "transactionIndex": "0xad",
          "logIndex": "0x59e",
          "removed": false
        },
        {
          "address": "0xb5320b0b3a13cc860893e2bd79fcd7e13484dda2",
          "topics": [
            "0x82118522aa536ac0e96cc5c689407ae42b89d592aa133890a01f1509842f5081"
          ],
          "data": "0x000000000000000000000000bb4a3e822190c898c42c0836636d897ebdd8d53a00000000000000000000000000000000000000000000000000000000000075c60000000000000000000000000000000000000000000000000000000000000060000000000000000000000000000000000000000000000000000000000000000f000000000000000000000000000000000000000000000000000000000000000200000000000000000000000000000000000000000000000000000000000000ff000000000000000000000000000000000000000000000000000000000000000000000000000000000000000000000000000000000000000000000000000000c000000000000000000000000000000000000000000000000000000000000001200000000000000000000000000000000000000000000000000000000000000002000000000000000000000000554833698ae0fb22ecc90b01222903fd62ca4b47000000000000000000000000a7b5189bca84cd304d8553977c7c614329750d990000000000000000000000000000000000000000000000000000000000000000",
          "blockHash": "0x65f0e99adba3d4fe4eccd27efdd96ae430f0adb126a1ddbcae7acdf55906ea9c",
          "blockNumber": "0x220ff6c",
          "blockTimestamp": "0x68cc5bbb",
          "transactionHash": "0x2302bb7ee089a8bc46e9eabda4ec0e5b780fb1cff8c5fd05dc33c6c9f98d64fb",
          "transactionIndex": "0xad",
          "logIndex": "0x59f",
          "removed": false
        }
      ],
      "logsBloom": "0x00000000000000000000000000000000000000000000000000000000000000000000000000000000000000000000000000000000000000000000000000000000000000000000000000000440000000000000000000000000002000000000000100000000000000000000000000000000000000000000000000000000000000000000000000000000000000000000000000000000000000000004000000000000000000000000000000000002000000000000000000000000000000000000000200000000000000000000000000000000000000000000000000000000000000000008000000000000000000000000000000000000000000000000000000000010",
      "type": "0x2",
      "transactionHash": "0x2302bb7ee089a8bc46e9eabda4ec0e5b780fb1cff8c5fd05dc33c6c9f98d64fb",
      "transactionIndex": "0xad",
      "blockHash": "0x65f0e99adba3d4fe4eccd27efdd96ae430f0adb126a1ddbcae7acdf55906ea9c",
      "blockNumber": "0x220ff6c",
      "gasUsed": "0x49de4",
      "effectiveGasPrice": "0x2cb8b6",
      "from": "0x0ece75f3c36f7df2136dac7633165dbff53de3cd",
      "to": "0x1a44076050125825900e736c501f859c50fe728c",
      "contractAddress": null,
      "l1BaseFeeScalar": "0x8dd",
      "l1BlobBaseFee": "0x1",
      "l1BlobBaseFeeScalar": "0x101c12",
      "l1Fee": "0x26589857a",
      "l1GasPrice": "0x37f35527",
      "l1GasUsed": "0x12e0"
    },
    {
      "status": "0x1",
      "cumulativeGasUsed": "0x2fcbaf1",
      "logs": [
        {
          "address": "0xc70ab6f32772f59fbfc23889caf4ba3376c84baf",
          "topics": [
            "0x82118522aa536ac0e96cc5c689407ae42b89d592aa133890a01f1509842f5081"
          ],
          "data": "0x000000000000000000000000bb4a3e822190c898c42c0836636d897ebdd8d53a00000000000000000000000000000000000000000000000000000000000075e80000000000000000000000000000000000000000000000000000000000000060000000000000000000000000000000000000000000000000000000000000000f000000000000000000000000000000000000000000000000000000000000000200000000000000000000000000000000000000000000000000000000000000ff000000000000000000000000000000000000000000000000000000000000000000000000000000000000000000000000000000000000000000000000000000c000000000000000000000000000000000000000000000000000000000000001200000000000000000000000000000000000000000000000000000000000000002000000000000000000000000554833698ae0fb22ecc90b01222903fd62ca4b47000000000000000000000000a7b5189bca84cd304d8553977c7c614329750d990000000000000000000000000000000000000000000000000000000000000000",
          "blockHash": "0x65f0e99adba3d4fe4eccd27efdd96ae430f0adb126a1ddbcae7acdf55906ea9c",
          "blockNumber": "0x220ff6c",
          "blockTimestamp": "0x68cc5bbb",
          "transactionHash": "0x978ff5624ff10618ff60ea28d6f1361a73defb77ecfe3ad65212af73b0f59764",
          "transactionIndex": "0xae",
          "logIndex": "0x5a0",
          "removed": false
        },
        {
          "address": "0xc70ab6f32772f59fbfc23889caf4ba3376c84baf",
          "topics": [
            "0x82118522aa536ac0e96cc5c689407ae42b89d592aa133890a01f1509842f5081"
          ],
          "data": "0x000000000000000000000000bb4a3e822190c898c42c0836636d897ebdd8d53a00000000000000000000000000000000000000000000000000000000000075c60000000000000000000000000000000000000000000000000000000000000060000000000000000000000000000000000000000000000000000000000000000f000000000000000000000000000000000000000000000000000000000000000200000000000000000000000000000000000000000000000000000000000000ff000000000000000000000000000000000000000000000000000000000000000000000000000000000000000000000000000000000000000000000000000000c000000000000000000000000000000000000000000000000000000000000001200000000000000000000000000000000000000000000000000000000000000002000000000000000000000000554833698ae0fb22ecc90b01222903fd62ca4b47000000000000000000000000a7b5189bca84cd304d8553977c7c614329750d990000000000000000000000000000000000000000000000000000000000000000",
          "blockHash": "0x65f0e99adba3d4fe4eccd27efdd96ae430f0adb126a1ddbcae7acdf55906ea9c",
          "blockNumber": "0x220ff6c",
          "blockTimestamp": "0x68cc5bbb",
          "transactionHash": "0x978ff5624ff10618ff60ea28d6f1361a73defb77ecfe3ad65212af73b0f59764",
          "transactionIndex": "0xae",
          "logIndex": "0x5a1",
          "removed": false
        }
      ],
      "logsBloom": "0x00000000000000000000000800000000000000000000000000000000000000000000000000000000000000000000000000000000000000000000000000000000000000000000000000000000000000000000000000000000002000080000000000000000000000000000000000000000000000000000000000000000000000000000000000000000000000000000000000000000000000000000000000000000000000000000000000000002000000000000000000000000000000000000000000000000000000000000000000000000000000000000000000000000000000000000000020000000000000000000000000000000000000000000000000000010",
      "type": "0x2",
      "transactionHash": "0x978ff5624ff10618ff60ea28d6f1361a73defb77ecfe3ad65212af73b0f59764",
      "transactionIndex": "0xae",
      "blockHash": "0x65f0e99adba3d4fe4eccd27efdd96ae430f0adb126a1ddbcae7acdf55906ea9c",
      "blockNumber": "0x220ff6c",
      "gasUsed": "0x3c3ca",
      "effectiveGasPrice": "0x2cb8b6",
      "from": "0x0ece75f3c36f7df2136dac7633165dbff53de3cd",
      "to": "0x1a44076050125825900e736c501f859c50fe728c",
      "contractAddress": null,
      "l1BaseFeeScalar": "0x8dd",
      "l1BlobBaseFee": "0x1",
      "l1BlobBaseFeeScalar": "0x101c12",
      "l1Fee": "0x1e2b46df9",
      "l1GasPrice": "0x37f35527",
      "l1GasUsed": "0xeda"
    },
    {
      "status": "0x1",
      "cumulativeGasUsed": "0x2fd77bc",
      "logs": [
        {
          "address": "0xbb4a3e822190c898c42c0836636d897ebdd8d53a",
          "topics": [
            "0x238399d427b947898edb290f5ff0f9109849b1c3ba196a42e35f00c50a54b98b"
          ],
          "data": "0x00000000000000000000000000000000000000000000000000000000000075c6000000000000000000000000af126b36958ef1a6ed80118841a7f1660f921346",
          "blockHash": "0x65f0e99adba3d4fe4eccd27efdd96ae430f0adb126a1ddbcae7acdf55906ea9c",
          "blockNumber": "0x220ff6c",
          "blockTimestamp": "0x68cc5bbb",
          "transactionHash": "0xdebe6e5953110ee33800b3a62d61ac13043046a9c933f992edb15506c695383b",
          "transactionIndex": "0xaf",
          "logIndex": "0x5a2",
          "removed": false
        }
      ],
      "logsBloom": "0x00000000000000000000000000000000000000000000000000000000000000000000000000000000000000000000000000000000000000000800000000400000000000000000000100000000000000000000000000000000000000000000000000000000000000000000000000000000000000000000000000000000000000000000000000000000000000000000000000000000000000000000000000000000000000000000000000004000000000000000000000000000000002000000000000000000000000000000000000000000000000000000000000040000000000000000000000000000000000000000000000000000000000000000000000000000",
      "type": "0x2",
      "transactionHash": "0xdebe6e5953110ee33800b3a62d61ac13043046a9c933f992edb15506c695383b",
      "transactionIndex": "0xaf",
      "blockHash": "0x65f0e99adba3d4fe4eccd27efdd96ae430f0adb126a1ddbcae7acdf55906ea9c",
      "blockNumber": "0x220ff6c",
      "gasUsed": "0xbccb",
      "effectiveGasPrice": "0x2cb8b6",
      "from": "0x0ece75f3c36f7df2136dac7633165dbff53de3cd",
      "to": "0xbb4a3e822190c898c42c0836636d897ebdd8d53a",
      "contractAddress": null,
      "l1BaseFeeScalar": "0x8dd",
      "l1BlobBaseFee": "0x1",
      "l1BlobBaseFeeScalar": "0x101c12",
      "l1Fee": "0xcb1f6daa",
      "l1GasPrice": "0x37f35527",
      "l1GasUsed": "0x640"
    },
    {
      "status": "0x1",
      "cumulativeGasUsed": "0x2fe3487",
      "logs": [
        {
          "address": "0xbb4a3e822190c898c42c0836636d897ebdd8d53a",
          "topics": [
            "0x238399d427b947898edb290f5ff0f9109849b1c3ba196a42e35f00c50a54b98b"
          ],
          "data": "0x00000000000000000000000000000000000000000000000000000000000075e8000000000000000000000000bb4a3e822190c898c42c0836636d897ebdd8d53a",
          "blockHash": "0x65f0e99adba3d4fe4eccd27efdd96ae430f0adb126a1ddbcae7acdf55906ea9c",
          "blockNumber": "0x220ff6c",
          "blockTimestamp": "0x68cc5bbb",
          "transactionHash": "0x88302d3107417a7848d2817c6bbf1145fbd0443f52d75c152bb20e08d3c12947",
          "transactionIndex": "0xb0",
          "logIndex": "0x5a3",
          "removed": false
        }
      ],
      "logsBloom": "0x00000000000000000000000000000000000000000000000000000000000000000000000000000000000000000000000000000000000000000800000000400000000000000000000100000000000000000000000000000000000000000000000000000000000000000000000000000000000000000000000000000000000000000000000000000000000000000000000000000000000000000000000000000000000000000000000000004000000000000000000000000000000002000000000000000000000000000000000000000000000000000000000000040000000000000000000000000000000000000000000000000000000000000000000000000000",
      "type": "0x2",
      "transactionHash": "0x88302d3107417a7848d2817c6bbf1145fbd0443f52d75c152bb20e08d3c12947",
      "transactionIndex": "0xb0",
      "blockHash": "0x65f0e99adba3d4fe4eccd27efdd96ae430f0adb126a1ddbcae7acdf55906ea9c",
      "blockNumber": "0x220ff6c",
      "gasUsed": "0xbccb",
      "effectiveGasPrice": "0x2cb8b6",
      "from": "0x0ece75f3c36f7df2136dac7633165dbff53de3cd",
      "to": "0xbb4a3e822190c898c42c0836636d897ebdd8d53a",
      "contractAddress": null,
      "l1BaseFeeScalar": "0x8dd",
      "l1BlobBaseFee": "0x1",
      "l1BlobBaseFeeScalar": "0x101c12",
      "l1Fee": "0xcb1f6daa",
      "l1GasPrice": "0x37f35527",
      "l1GasUsed": "0x640"
    },
    {
      "status": "0x1",
      "cumulativeGasUsed": "0xceca06",
      "logs": [
        {
          "address": "0xbb4a3e822190c898c42c0836636d897ebdd8d53a",
          "topics": [
            "0xbe4864a8e820971c0247f5992e2da559595f7bf076a21cb5928d443d2a13b674"
          ],
          "data": "0x00000000000000000000000000000000000000000000000000000000000000200000000000000000000000000000000000000000000000000000000000000002000000000000000000000000000000000000000000000000000000000000004000000000000000000000000000000000000000000000000000000000000000e000000000000000000000000000000000000000000000000000000000000075e8000000000000000000000000000000000000000000000000000000000000000100000000000000000000000000000000000000000000000000000000000000600000000000000000000000000000000000000000000000000000000000000016000301001101000000000000000000000000000138800000000000000000000000000000000000000000000000000000000000000000000000000000000075c6000000000000000000000000000000000000000000000000000000000000000100000000000000000000000000000000000000000000000000000000000000600000000000000000000000000000000000000000000000000000000000000016000301001101000000000000000000000000000186a000000000000000000000",
          "blockHash": "0x4e5bfcb9a72dddbc4a51a0db79ec39ea115047312a8d28825bfab2818134680b",
          "blockNumber": "0x220ff6d",
          "blockTimestamp": "0x68cc5bbd",
          "transactionHash": "0xabbdc734c7bc60f8c59e467f49afa09eb5d36dbc6df10d57774060a4ccc530bc",
          "transactionIndex": "0x42",
          "logIndex": "0x1a9",
          "removed": false
        }
      ],
      "logsBloom": "0x00000000000000000000000000000000000000000000000000000000000000000000000000000000000000000000000000000000000000000000400000400000000000000000000100000000000000000000000000000000000000000000000000000000000000000000000000000000000000000000000000000000000000000000000000000000000000000000000000000000000000000000000000080000000000000000000000004000000000000000000000000000000000000000000000000000000000000000000002000000000000000000000000000000000000000000000000000000000000000000000000000000000000000000000000000000",
      "type": "0x2",
      "transactionHash": "0xabbdc734c7bc60f8c59e467f49afa09eb5d36dbc6df10d57774060a4ccc530bc",
      "transactionIndex": "0x42",
      "blockHash": "0x4e5bfcb9a72dddbc4a51a0db79ec39ea115047312a8d28825bfab2818134680b",
      "blockNumber": "0x220ff6d",
      "gasUsed": "0x14274",
      "effectiveGasPrice": "0x2cd96e",
      "from": "0x0ece75f3c36f7df2136dac7633165dbff53de3cd",
      "to": "0xbb4a3e822190c898c42c0836636d897ebdd8d53a",
      "contractAddress": null,
      "l1BaseFeeScalar": "0x8dd",
      "l1BlobBaseFee": "0x1",
      "l1BlobBaseFeeScalar": "0x101c12",
      "l1Fee": "0x11a355a93",
      "l1GasPrice": "0x37f35527",
      "l1GasUsed": "0x8ae"
    },
    {
      "status": "0x1",
      "cumulativeGasUsed": "0xcf7f15",
      "logs": [],
      "logsBloom": "0x00000000000000000000000000000000000000000000000000000000000000000000000000000000000000000000000000000000000000000000000000000000000000000000000000000000000000000000000000000000000000000000000000000000000000000000000000000000000000000000000000000000000000000000000000000000000000000000000000000000000000000000000000000000000000000000000000000000000000000000000000000000000000000000000000000000000000000000000000000000000000000000000000000000000000000000000000000000000000000000000000000000000000000000000000000000",
      "type": "0x2",
      "transactionHash": "0x5cfbe05577d26ea89db09c8de57b3405f695485e4e8f27fa32c2f91101c7bdcd",
      "transactionIndex": "0x43",
      "blockHash": "0x4e5bfcb9a72dddbc4a51a0db79ec39ea115047312a8d28825bfab2818134680b",
      "blockNumber": "0x220ff6d",
      "gasUsed": "0xb50f",
      "effectiveGasPrice": "0x2cd96e",
      "from": "0x0ece75f3c36f7df2136dac7633165dbff53de3cd",
      "to": "0xbb4a3e822190c898c42c0836636d897ebdd8d53a",
      "contractAddress": null,
      "l1BaseFeeScalar": "0x8dd",
      "l1BlobBaseFee": "0x1",
      "l1BlobBaseFeeScalar": "0x101c12",
      "l1Fee": "0xcb1f6daa",
      "l1GasPrice": "0x37f35527",
      "l1GasUsed": "0x640"
    }
  ],
  "libraries": [],
  "pending": [],
  "returns": {},
  "timestamp": 1758223293142,
  "chain": 8453,
  "commit": "6c82bda"
}