{
  "transactions": [
    {
      "hash": "0x069ae1def7f5b3886f53bf4862375f7748f270f073caf8dba2b074d5f424439c",
      "transactionType": "CALL",
      "contractName": null,
      "contractAddress": "0x1a44076050125825900e736c501f859c50fe728c",
      "function": "setConfig(address,address,(uint32,uint32,bytes)[])",
      "arguments": [
        "0xcBb5dF94d28E0639Ce82CCC46a28EbA34B29a674",
        "0xB5320B0B3a13cC860893E2Bd79FCd7e13484Dda2",
        "[(30184, 1, 0x00000000000000000000000000000000000000000000000000000000000027100000000000000000000000002cca08ae69e0c44b18a57ab2a87644234daebae4), (30184, 2, 0x0000000000000000000000000000000000000000000000000000000000000020000000000000000000000000000000000000000000000000000000000000000f000000000000000000000000000000000000000000000000000000000000000200000000000000000000000000000000000000000000000000000000000000ff000000000000000000000000000000000000000000000000000000000000000000000000000000000000000000000000000000000000000000000000000000c000000000000000000000000000000000000000000000000000000000000001200000000000000000000000000000000000000000000000000000000000000002000000000000000000000000554833698ae0fb22ecc90b01222903fd62ca4b47000000000000000000000000a7b5189bca84cd304d8553977c7c614329750d990000000000000000000000000000000000000000000000000000000000000000), (30150, 1, 0x00000000000000000000000000000000000000000000000000000000000027100000000000000000000000002cca08ae69e0c44b18a57ab2a87644234daebae4), (30150, 2, 0x0000000000000000000000000000000000000000000000000000000000000020000000000000000000000000000000000000000000000000000000000000000f000000000000000000000000000000000000000000000000000000000000000200000000000000000000000000000000000000000000000000000000000000ff000000000000000000000000000000000000000000000000000000000000000000000000000000000000000000000000000000000000000000000000000000c000000000000000000000000000000000000000000000000000000000000001200000000000000000000000000000000000000000000000000000000000000002000000000000000000000000554833698ae0fb22ecc90b01222903fd62ca4b47000000000000000000000000a7b5189bca84cd304d8553977c7c614329750d990000000000000000000000000000000000000000000000000000000000000000)]"
      ],
      "transaction": {
        "from": "0x0ece75f3c36f7df2136dac7633165dbff53de3cd",
        "to": "0x1a44076050125825900e736c501f859c50fe728c",
        "gas": "0x6607c",
        "value": "0x0",
        "input": "0x6dbd9f90000000000000000000000000cbb5df94d28e0639ce82ccc46a28eba34b29a674000000000000000000000000b5320b0b3a13cc860893e2bd79fcd7e13484dda20000000000000000000000000000000000000000000000000000000000000060000000000000000000000000000000000000000000000000000000000000000400000000000000000000000000000000000000000000000000000000000000800000000000000000000000000000000000000000000000000000000000000140000000000000000000000000000000000000000000000000000000000000032000000000000000000000000000000000000000000000000000000000000003e000000000000000000000000000000000000000000000000000000000000075e800000000000000000000000000000000000000000000000000000000000000010000000000000000000000000000000000000000000000000000000000000060000000000000000000000000000000000000000000000000000000000000004000000000000000000000000000000000000000000000000000000000000027100000000000000000000000002cca08ae69e0c44b18a57ab2a87644234daebae400000000000000000000000000000000000000000000000000000000000075e80000000000000000000000000000000000000000000000000000000000000002000000000000000000000000000000000000000000000000000000000000006000000000000000000000000000000000000000000000000000000000000001600000000000000000000000000000000000000000000000000000000000000020000000000000000000000000000000000000000000000000000000000000000f000000000000000000000000000000000000000000000000000000000000000200000000000000000000000000000000000000000000000000000000000000ff000000000000000000000000000000000000000000000000000000000000000000000000000000000000000000000000000000000000000000000000000000c000000000000000000000000000000000000000000000000000000000000001200000000000000000000000000000000000000000000000000000000000000002000000000000000000000000554833698ae0fb22ecc90b01222903fd62ca4b47000000000000000000000000a7b5189bca84cd304d8553977c7c614329750d99000000000000000000000000000000000000000000000000000000000000000000000000000000000000000000000000000000000000000000000000000075c600000000000000000000000000000000000000000000000000000000000000010000000000000000000000000000000000000000000000000000000000000060000000000000000000000000000000000000000000000000000000000000004000000000000000000000000000000000000000000000000000000000000027100000000000000000000000002cca08ae69e0c44b18a57ab2a87644234daebae400000000000000000000000000000000000000000000000000000000000075c60000000000000000000000000000000000000000000000000000000000000002000000000000000000000000000000000000000000000000000000000000006000000000000000000000000000000000000000000000000000000000000001600000000000000000000000000000000000000000000000000000000000000020000000000000000000000000000000000000000000000000000000000000000f000000000000000000000000000000000000000000000000000000000000000200000000000000000000000000000000000000000000000000000000000000ff000000000000000000000000000000000000000000000000000000000000000000000000000000000000000000000000000000000000000000000000000000c000000000000000000000000000000000000000000000000000000000000001200000000000000000000000000000000000000000000000000000000000000002000000000000000000000000554833698ae0fb22ecc90b01222903fd62ca4b47000000000000000000000000a7b5189bca84cd304d8553977c7c614329750d990000000000000000000000000000000000000000000000000000000000000000",
        "nonce": "0xa4",
        "chainId": "0x2105"
      },
      "additionalContracts": [],
      "isFixedGasLimit": false
    }
  ],
  "receipts": [
    {
      "status": "0x1",
      "cumulativeGasUsed": "0xc81721",
      "logs": [
        {
          "address": "0xb5320b0b3a13cc860893e2bd79fcd7e13484dda2",
          "topics": [
            "0x779cb2dd9d2bb1be1737d05435d744facbfb84a2a4912e21379d39beddcdc805"
          ],
          "data": "0x000000000000000000000000cbb5df94d28e0639ce82ccc46a28eba34b29a67400000000000000000000000000000000000000000000000000000000000075e800000000000000000000000000000000000000000000000000000000000027100000000000000000000000002cca08ae69e0c44b18a57ab2a87644234daebae4",
          "blockHash": "0xdc6f56db3dd5ee54539a10e28b663789e1c2ed0842631be954c5149a65a4a738",
          "blockNumber": "0x220a2b9",
          "blockTimestamp": "0x68cba255",
          "transactionHash": "0x069ae1def7f5b3886f53bf4862375f7748f270f073caf8dba2b074d5f424439c",
          "transactionIndex": "0x45",
          "logIndex": "0x9e",
          "removed": false
        },
        {
          "address": "0xb5320b0b3a13cc860893e2bd79fcd7e13484dda2",
          "topics": [
            "0x82118522aa536ac0e96cc5c689407ae42b89d592aa133890a01f1509842f5081"
          ],
          "data": "0x000000000000000000000000cbb5df94d28e0639ce82ccc46a28eba34b29a67400000000000000000000000000000000000000000000000000000000000075e80000000000000000000000000000000000000000000000000000000000000060000000000000000000000000000000000000000000000000000000000000000f000000000000000000000000000000000000000000000000000000000000000200000000000000000000000000000000000000000000000000000000000000ff000000000000000000000000000000000000000000000000000000000000000000000000000000000000000000000000000000000000000000000000000000c000000000000000000000000000000000000000000000000000000000000001200000000000000000000000000000000000000000000000000000000000000002000000000000000000000000554833698ae0fb22ecc90b01222903fd62ca4b47000000000000000000000000a7b5189bca84cd304d8553977c7c614329750d990000000000000000000000000000000000000000000000000000000000000000",
          "blockHash": "0xdc6f56db3dd5ee54539a10e28b663789e1c2ed0842631be954c5149a65a4a738",
          "blockNumber": "0x220a2b9",
          "blockTimestamp": "0x68cba255",
          "transactionHash": "0x069ae1def7f5b3886f53bf4862375f7748f270f073caf8dba2b074d5f424439c",
          "transactionIndex": "0x45",
          "logIndex": "0x9f",
          "removed": false
        },
        {
          "address": "0xb5320b0b3a13cc860893e2bd79fcd7e13484dda2",
          "topics": [
            "0x779cb2dd9d2bb1be1737d05435d744facbfb84a2a4912e21379d39beddcdc805"
          ],
          "data": "0x000000000000000000000000cbb5df94d28e0639ce82ccc46a28eba34b29a67400000000000000000000000000000000000000000000000000000000000075c600000000000000000000000000000000000000000000000000000000000027100000000000000000000000002cca08ae69e0c44b18a57ab2a87644234daebae4",
          "blockHash": "0xdc6f56db3dd5ee54539a10e28b663789e1c2ed0842631be954c5149a65a4a738",
          "blockNumber": "0x220a2b9",
          "blockTimestamp": "0x68cba255",
          "transactionHash": "0x069ae1def7f5b3886f53bf4862375f7748f270f073caf8dba2b074d5f424439c",
          "transactionIndex": "0x45",
          "logIndex": "0xa0",
          "removed": false
        },
        {
          "address": "0xb5320b0b3a13cc860893e2bd79fcd7e13484dda2",
          "topics": [
            "0x82118522aa536ac0e96cc5c689407ae42b89d592aa133890a01f1509842f5081"
          ],
          "data": "0x000000000000000000000000cbb5df94d28e0639ce82ccc46a28eba34b29a67400000000000000000000000000000000000000000000000000000000000075c60000000000000000000000000000000000000000000000000000000000000060000000000000000000000000000000000000000000000000000000000000000f000000000000000000000000000000000000000000000000000000000000000200000000000000000000000000000000000000000000000000000000000000ff000000000000000000000000000000000000000000000000000000000000000000000000000000000000000000000000000000000000000000000000000000c000000000000000000000000000000000000000000000000000000000000001200000000000000000000000000000000000000000000000000000000000000002000000000000000000000000554833698ae0fb22ecc90b01222903fd62ca4b47000000000000000000000000a7b5189bca84cd304d8553977c7c614329750d990000000000000000000000000000000000000000000000000000000000000000",
          "blockHash": "0xdc6f56db3dd5ee54539a10e28b663789e1c2ed0842631be954c5149a65a4a738",
          "blockNumber": "0x220a2b9",
          "blockTimestamp": "0x68cba255",
          "transactionHash": "0x069ae1def7f5b3886f53bf4862375f7748f270f073caf8dba2b074d5f424439c",
          "transactionIndex": "0x45",
          "logIndex": "0xa1",
          "removed": false
        }
      ],
      "logsBloom": "0x00000000000000000000000000000000000000000000000000000000000000000000000000000000000000000000000000000000000000000000000000000000000000000000000000000440000000000000000000000000002000000000000100000000000000000000000000000000000000000000000000000000000000000000000000000000000000000000000000000000000000000004000000000000000000000000000000000002000000000000000000000000000000000000000200000000000000000000000000000000000000000000000000000000000000000008000000000000000000000000000000000000000000000000000000000010",
      "type": "0x2",
      "transactionHash": "0x069ae1def7f5b3886f53bf4862375f7748f270f073caf8dba2b074d5f424439c",
      "transactionIndex": "0x45",
      "blockHash": "0xdc6f56db3dd5ee54539a10e28b663789e1c2ed0842631be954c5149a65a4a738",
      "blockNumber": "0x220a2b9",
      "gasUsed": "0x49de4",
      "effectiveGasPrice": "0x3e1242",
      "from": "0x0ece75f3c36f7df2136dac7633165dbff53de3cd",
      "to": "0x1a44076050125825900e736c501f859c50fe728c",
      "contractAddress": null,
      "l1BaseFeeScalar": "0x8dd",
      "l1BlobBaseFee": "0x1",
      "l1BlobBaseFeeScalar": "0x101c12",
      "l1Fee": "0x92789945",
      "l1GasPrice": "0xd64efc1",
      "l1GasUsed": "0x12d3"
    }
  ],
  "libraries": [],
  "pending": [],
  "returns": {},
  "timestamp": 1758175828214,
  "chain": 8453,
  "commit": "6c82bda"
}