{
  "transactions": [
    {
      "hash": "0x17c23d5c589956ae3da6604f9a0fac3a26945ee81783bfa1880c320d50bcaf62",
      "transactionType": "CALL",
      "contractName": null,
      "contractAddress": "0xad063b1915bf95fb32f79138c0b668f232676333",
      "function": "setPeer(uint32,bytes32)",
      "arguments": [
        "30184",
        "0x000000000000000000000000ad063b1915bf95fb32f79138c0b668f232676333"
      ],
      "transaction": {
        "from": "0x0ece75f3c36f7df2136dac7633165dbff53de3cd",
        "to": "0xad063b1915bf95fb32f79138c0b668f232676333",
        "gas": "0x1141b",
        "value": "0x0",
        "input": "0x3400288b00000000000000000000000000000000000000000000000000000000000075e8000000000000000000000000ad063b1915bf95fb32f79138c0b668f232676333",
        "nonce": "0xff",
        "chainId": "0x2105"
      },
      "additionalContracts": [],
      "isFixedGasLimit": false
    },
    {
      "hash": "0x842dc12e66cd55f7c472ad912476a741f2ed10e8a7874c0bb8ce93678379165e",
      "transactionType": "CALL",
      "contractName": null,
      "contractAddress": "0xad063b1915bf95fb32f79138c0b668f232676333",
      "function": "setPeer(uint32,bytes32)",
      "arguments": [
        "30150",
        "0x0000000000000000000000006d68a52bc77f2eac3582a7072ead94c19b9f480c"
      ],
      "transaction": {
        "from": "0x0ece75f3c36f7df2136dac7633165dbff53de3cd",
        "to": "0xad063b1915bf95fb32f79138c0b668f232676333",
        "gas": "0x1141b",
        "value": "0x0",
        "input": "0x3400288b00000000000000000000000000000000000000000000000000000000000075c60000000000000000000000006d68a52bc77f2eac3582a7072ead94c19b9f480c",
        "nonce": "0x100",
        "chainId": "0x2105"
      },
      "additionalContracts": [],
      "isFixedGasLimit": false
    },
    {
      "hash": "0xc0125dcda9d85959d3bcb827a5019dc8ed19ef4be149d112af74f3b3d9ffec32",
      "transactionType": "CALL",
      "contractName": null,
      "contractAddress": "0xb83e44f1d59bd8743ae45816acd5622fa1a5624d",
      "function": "setPeer(uint32,bytes32)",
      "arguments": [
        "30184",
        "0x000000000000000000000000b83e44f1d59bd8743ae45816acd5622fa1a5624d"
      ],
      "transaction": {
        "from": "0x0ece75f3c36f7df2136dac7633165dbff53de3cd",
        "to": "0xb83e44f1d59bd8743ae45816acd5622fa1a5624d",
        "gas": "0x1141b",
        "value": "0x0",
        "input": "0x3400288b00000000000000000000000000000000000000000000000000000000000075e8000000000000000000000000b83e44f1d59bd8743ae45816acd5622fa1a5624d",
        "nonce": "0x101",
        "chainId": "0x2105"
      },
      "additionalContracts": [],
      "isFixedGasLimit": false
    },
    {
      "hash": "0xb6fd00b44e5bfce902238a5f94a729c23883de6f78782f832ab85b675894bd1a",
      "transactionType": "CALL",
      "contractName": null,
      "contractAddress": "0xb83e44f1d59bd8743ae45816acd5622fa1a5624d",
      "function": "setPeer(uint32,bytes32)",
      "arguments": [
        "30150",
        "0x0000000000000000000000005ddbbc68527214e0aca3b4175860080cbdaa12ff"
      ],
      "transaction": {
        "from": "0x0ece75f3c36f7df2136dac7633165dbff53de3cd",
        "to": "0xb83e44f1d59bd8743ae45816acd5622fa1a5624d",
        "gas": "0x1141b",
        "value": "0x0",
        "input": "0x3400288b00000000000000000000000000000000000000000000000000000000000075c60000000000000000000000005ddbbc68527214e0aca3b4175860080cbdaa12ff",
        "nonce": "0x102",
        "chainId": "0x2105"
      },
      "additionalContracts": [],
      "isFixedGasLimit": false
    },
    {
      "hash": "0xce4c632a64e109ca9e62af286c4f521bc1ac61f180bb37c7fde4a1e299db3048",
      "transactionType": "CALL",
      "contractName": null,
      "contractAddress": "0x1effdcf81a95398920e024bb3b9ff60ce14590e7",
      "function": "setPeer(uint32,bytes32)",
      "arguments": [
        "30184",
        "0x0000000000000000000000001effdcf81a95398920e024bb3b9ff60ce14590e7"
      ],
      "transaction": {
        "from": "0x0ece75f3c36f7df2136dac7633165dbff53de3cd",
        "to": "0x1effdcf81a95398920e024bb3b9ff60ce14590e7",
        "gas": "0x1141b",
        "value": "0x0",
        "input": "0x3400288b00000000000000000000000000000000000000000000000000000000000075e80000000000000000000000001effdcf81a95398920e024bb3b9ff60ce14590e7",
        "nonce": "0x103",
        "chainId": "0x2105"
      },
      "additionalContracts": [],
      "isFixedGasLimit": false
    },
    {
      "hash": "0x3513c7f7a894818f417e8999104acc3188e5672d95c088435dd244cd9d809bed",
      "transactionType": "CALL",
      "contractName": null,
      "contractAddress": "0x1effdcf81a95398920e024bb3b9ff60ce14590e7",
      "function": "setPeer(uint32,bytes32)",
      "arguments": [
        "30150",
        "0x000000000000000000000000fe5138a42dc1fc335455b505e036784a33f7f102"
      ],
      "transaction": {
        "from": "0x0ece75f3c36f7df2136dac7633165dbff53de3cd",
        "to": "0x1effdcf81a95398920e024bb3b9ff60ce14590e7",
        "gas": "0x1141b",
        "value": "0x0",
        "input": "0x3400288b00000000000000000000000000000000000000000000000000000000000075c6000000000000000000000000fe5138a42dc1fc335455b505e036784a33f7f102",
        "nonce": "0x104",
        "chainId": "0x2105"
      },
      "additionalContracts": [],
      "isFixedGasLimit": false
    },
    {
      "hash": "0x441b56f27fe86564589be19cbd73b07d6398ca09d49337648863254b970d39a0",
      "transactionType": "CALL",
      "contractName": null,
      "contractAddress": "0x6c71b7bbde382f12165d5f7749b5fd37965b1e8a",
      "function": "setPeer(uint32,bytes32)",
      "arguments": [
        "30184",
        "0x0000000000000000000000006c71b7bbde382f12165d5f7749b5fd37965b1e8a"
      ],
      "transaction": {
        "from": "0x0ece75f3c36f7df2136dac7633165dbff53de3cd",
        "to": "0x6c71b7bbde382f12165d5f7749b5fd37965b1e8a",
        "gas": "0x1141b",
        "value": "0x0",
        "input": "0x3400288b00000000000000000000000000000000000000000000000000000000000075e80000000000000000000000006c71b7bbde382f12165d5f7749b5fd37965b1e8a",
        "nonce": "0x105",
        "chainId": "0x2105"
      },
      "additionalContracts": [],
      "isFixedGasLimit": false
    },
    {
      "hash": "0x30965128bbb5b4a142bc5685806476c38d66fed0b2a7c355402b48bfc8206f60",
      "transactionType": "CALL",
      "contractName": null,
      "contractAddress": "0x6c71b7bbde382f12165d5f7749b5fd37965b1e8a",
      "function": "setPeer(uint32,bytes32)",
      "arguments": [
        "30150",
        "0x000000000000000000000000b0e96105543cba4b3d82911e7336f19bd03b0360"
      ],
      "transaction": {
        "from": "0x0ece75f3c36f7df2136dac7633165dbff53de3cd",
        "to": "0x6c71b7bbde382f12165d5f7749b5fd37965b1e8a",
        "gas": "0x1141b",
        "value": "0x0",
        "input": "0x3400288b00000000000000000000000000000000000000000000000000000000000075c6000000000000000000000000b0e96105543cba4b3d82911e7336f19bd03b0360",
        "nonce": "0x106",
        "chainId": "0x2105"
      },
      "additionalContracts": [],
      "isFixedGasLimit": false
    }
  ],
  "receipts": [
    {
      "status": "0x1",
      "cumulativeGasUsed": "0x2b0e113",
      "logs": [
        {
          "address": "0xad063b1915bf95fb32f79138c0b668f232676333",
          "topics": [
            "0x238399d427b947898edb290f5ff0f9109849b1c3ba196a42e35f00c50a54b98b"
          ],
          "data": "0x00000000000000000000000000000000000000000000000000000000000075e8000000000000000000000000ad063b1915bf95fb32f79138c0b668f232676333",
          "blockHash": "0xc25dce831dec8989f587aabd582ed549714902ab1bf5cddb976cc981ec817e13",
          "blockNumber": "0x220f416",
          "blockTimestamp": "0x68cc450f",
          "transactionHash": "0x17c23d5c589956ae3da6604f9a0fac3a26945ee81783bfa1880c320d50bcaf62",
          "transactionIndex": "0x97",
          "logIndex": "0x43d",
          "removed": false
        }
      ],
      "logsBloom": "0x00000000000000000000000000000000000000000000000000000000000000000000000000000000000000000000000000000000000000000800000000000000000000000000000000000000000000000000000000000000000000000000000000000000000000000000000000000000000000000000000000000004000000000004000000000000000000000000000000000000000000000000000000000000000000000000000000000000000000000000000000000000000002000000000000000000000040000000000000000000000000000000000000040000000000000000000000000000000000000000000000000000000000000000000000000000",
      "type": "0x2",
      "transactionHash": "0x17c23d5c589956ae3da6604f9a0fac3a26945ee81783bfa1880c320d50bcaf62",
      "transactionIndex": "0x97",
      "blockHash": "0xc25dce831dec8989f587aabd582ed549714902ab1bf5cddb976cc981ec817e13",
      "blockNumber": "0x220f416",
      "gasUsed": "0xbccb",
      "effectiveGasPrice": "0x54d941",
      "from": "0x0ece75f3c36f7df2136dac7633165dbff53de3cd",
      "to": "0xad063b1915bf95fb32f79138c0b668f232676333",
      "contractAddress": null,
      "l1BaseFeeScalar": "0x8dd",
      "l1BlobBaseFee": "0x1",
      "l1BlobBaseFeeScalar": "0x101c12",
      "l1Fee": "0x28b629c73",
      "l1GasPrice": "0xb36cd8f5",
      "l1GasUsed": "0x640"
    },
    {
      "status": "0x1",
      "cumulativeGasUsed": "0x2b19dde",
      "logs": [
        {
          "address": "0xad063b1915bf95fb32f79138c0b668f232676333",
          "topics": [
            "0x238399d427b947898edb290f5ff0f9109849b1c3ba196a42e35f00c50a54b98b"
          ],
          "data": "0x00000000000000000000000000000000000000000000000000000000000075c60000000000000000000000006d68a52bc77f2eac3582a7072ead94c19b9f480c",
          "blockHash": "0x112b3794888ab5d27923147d5fcb3943af648e8aa687aa347b28b354eef137b1",
          "blockNumber": "0x220f416",
          "blockTimestamp": "0x68cc450f",
          "transactionHash": "0x842dc12e66cd55f7c472ad912476a741f2ed10e8a7874c0bb8ce93678379165e",
          "transactionIndex": "0x98",
          "logIndex": "0x43e",
          "removed": false
        }
      ],
      "logsBloom": "0x00000000000000000000000000000000000000000000000000000000000000000000000000000000000000000000000000000000000000000800000000000000000000000000000000000000000000000000000000000000000000000000000000000000000000000000000000000000000000000000000000000004000000000004000000000000000000000000000000000000000000000000000000000000000000000000000000000000000000000000000000000000000002000000000000000000000040000000000000000000000000000000000000040000000000000000000000000000000000000000000000000000000000000000000000000000",
      "type": "0x2",
      "transactionHash": "0x842dc12e66cd55f7c472ad912476a741f2ed10e8a7874c0bb8ce93678379165e",
      "transactionIndex": "0x98",
      "blockHash": "0x112b3794888ab5d27923147d5fcb3943af648e8aa687aa347b28b354eef137b1",
      "blockNumber": "0x220f416",
      "gasUsed": "0xbccb",
      "effectiveGasPrice": "0x54d941",
      "from": "0x0ece75f3c36f7df2136dac7633165dbff53de3cd",
      "to": "0xad063b1915bf95fb32f79138c0b668f232676333",
      "contractAddress": null,
      "l1BaseFeeScalar": "0x8dd",
      "l1BlobBaseFee": "0x1",
      "l1BlobBaseFeeScalar": "0x101c12",
      "l1Fee": "0x28b629c73",
      "l1GasPrice": "0xb36cd8f5",
      "l1GasUsed": "0x640"
    },
    {
      "status": "0x1",
      "cumulativeGasUsed": "0x2cc9e84",
      "logs": [
        {
          "address": "0xb83e44f1d59bd8743ae45816acd5622fa1a5624d",
          "topics": [
            "0x238399d427b947898edb290f5ff0f9109849b1c3ba196a42e35f00c50a54b98b"
          ],
          "data": "0x00000000000000000000000000000000000000000000000000000000000075e8000000000000000000000000b83e44f1d59bd8743ae45816acd5622fa1a5624d",
          "blockHash": "0xc25dce831dec8989f587aabd582ed549714902ab1bf5cddb976cc981ec817e13",
          "blockNumber": "0x220f416",
          "blockTimestamp": "0x68cc450f",
          "transactionHash": "0xc0125dcda9d85959d3bcb827a5019dc8ed19ef4be149d112af74f3b3d9ffec32",
          "transactionIndex": "0xa9",
          "logIndex": "0x461",
          "removed": false
        }
      ],
      "logsBloom": "0x00000000000000000200000000000000000000000000000000000000000000000000000000000000000000000000000000000000000000000800000000010000000000000000000000000000000000000000000000000000000000000000000000000000000000000000000000000000000000000000000000000000000000000000000000000000000000000000000000000000000000000000000000000000000000000000000000000000000000000000000000000000000002000000000000000000000000000000000000000000000000000000000000040000000000002000000000000000000000000000000000000000000000000000000000000000",
      "type": "0x2",
      "transactionHash": "0xc0125dcda9d85959d3bcb827a5019dc8ed19ef4be149d112af74f3b3d9ffec32",
      "transactionIndex": "0xa9",
      "blockHash": "0xc25dce831dec8989f587aabd582ed549714902ab1bf5cddb976cc981ec817e13",
      "blockNumber": "0x220f416",
      "gasUsed": "0xbccb",
      "effectiveGasPrice": "0x54d941",
      "from": "0x0ece75f3c36f7df2136dac7633165dbff53de3cd",
      "to": "0xb83e44f1d59bd8743ae45816acd5622fa1a5624d",
      "contractAddress": null,
      "l1BaseFeeScalar": "0x8dd",
      "l1BlobBaseFee": "0x1",
      "l1BlobBaseFeeScalar": "0x101c12",
      "l1Fee": "0x28b629c73",
      "l1GasPrice": "0xb36cd8f5",
      "l1GasUsed": "0x640"
    },
    {
      "status": "0x1",
      "cumulativeGasUsed": "0x2cd5b4f",
      "logs": [
        {
          "address": "0xb83e44f1d59bd8743ae45816acd5622fa1a5624d",
          "topics": [
            "0x238399d427b947898edb290f5ff0f9109849b1c3ba196a42e35f00c50a54b98b"
          ],
          "data": "0x00000000000000000000000000000000000000000000000000000000000075c60000000000000000000000005ddbbc68527214e0aca3b4175860080cbdaa12ff",
          "blockHash": "0x112b3794888ab5d27923147d5fcb3943af648e8aa687aa347b28b354eef137b1",
          "blockNumber": "0x220f416",
          "blockTimestamp": "0x68cc450f",
          "transactionHash": "0xb6fd00b44e5bfce902238a5f94a729c23883de6f78782f832ab85b675894bd1a",
          "transactionIndex": "0xaa",
          "logIndex": "0x462",
          "removed": false
        }
      ],
      "logsBloom": "0x00000000000000000200000000000000000000000000000000000000000000000000000000000000000000000000000000000000000000000800000000010000000000000000000000000000000000000000000000000000000000000000000000000000000000000000000000000000000000000000000000000000000000000000000000000000000000000000000000000000000000000000000000000000000000000000000000000000000000000000000000000000000002000000000000000000000000000000000000000000000000000000000000040000000000002000000000000000000000000000000000000000000000000000000000000000",
      "type": "0x2",
      "transactionHash": "0xb6fd00b44e5bfce902238a5f94a729c23883de6f78782f832ab85b675894bd1a",
      "transactionIndex": "0xaa",
      "blockHash": "0x112b3794888ab5d27923147d5fcb3943af648e8aa687aa347b28b354eef137b1",
      "blockNumber": "0x220f416",
      "gasUsed": "0xbccb",
      "effectiveGasPrice": "0x54d941",
      "from": "0x0ece75f3c36f7df2136dac7633165dbff53de3cd",
      "to": "0xb83e44f1d59bd8743ae45816acd5622fa1a5624d",
      "contractAddress": null,
      "l1BaseFeeScalar": "0x8dd",
      "l1BlobBaseFee": "0x1",
      "l1BlobBaseFeeScalar": "0x101c12",
      "l1Fee": "0x28b629c73",
      "l1GasPrice": "0xb36cd8f5",
      "l1GasUsed": "0x640"
    },
    {
      "status": "0x1",
      "cumulativeGasUsed": "0x2ce181a",
      "logs": [
        {
          "address": "0x1effdcf81a95398920e024bb3b9ff60ce14590e7",
          "topics": [
            "0x238399d427b947898edb290f5ff0f9109849b1c3ba196a42e35f00c50a54b98b"
          ],
          "data": "0x00000000000000000000000000000000000000000000000000000000000075e80000000000000000000000001effdcf81a95398920e024bb3b9ff60ce14590e7",
          "blockHash": "0x112b3794888ab5d27923147d5fcb3943af648e8aa687aa347b28b354eef137b1",
          "blockNumber": "0x220f416",
          "blockTimestamp": "0x68cc450f",
          "transactionHash": "0xce4c632a64e109ca9e62af286c4f521bc1ac61f180bb37c7fde4a1e299db3048",
          "transactionIndex": "0xab",
          "logIndex": "0x463",
          "removed": false
        }
      ],
      "logsBloom": "0x00000000000000000000000000000000000000000000000000000000000000000000000000000000000000000000000000000000000000000800000000000000000040000000000000000000000000000000000000000000000000000000000000000000000000000000000000000000000000000000000800000000000000000000000000000000000000000000000000000000000000000000000000000000000000000000000000000000000000000000000000000000000002000000000000000000000000000000000000000000000000000000000000040000000000800000000000000000000000000000000000000000000000000000000000000000",
      "type": "0x2",
      "transactionHash": "0xce4c632a64e109ca9e62af286c4f521bc1ac61f180bb37c7fde4a1e299db3048",
      "transactionIndex": "0xab",
      "blockHash": "0x112b3794888ab5d27923147d5fcb3943af648e8aa687aa347b28b354eef137b1",
      "blockNumber": "0x220f416",
      "gasUsed": "0xbccb",
      "effectiveGasPrice": "0x54d941",
      "from": "0x0ece75f3c36f7df2136dac7633165dbff53de3cd",
      "to": "0x1effdcf81a95398920e024bb3b9ff60ce14590e7",
      "contractAddress": null,
      "l1BaseFeeScalar": "0x8dd",
      "l1BlobBaseFee": "0x1",
      "l1BlobBaseFeeScalar": "0x101c12",
      "l1Fee": "0x28b629c73",
      "l1GasPrice": "0xb36cd8f5",
      "l1GasUsed": "0x640"
    },
    {
      "status": "0x1",
      "cumulativeGasUsed": "0x2d0dda3",
      "logs": [
        {
          "address": "0x1effdcf81a95398920e024bb3b9ff60ce14590e7",
          "topics": [
            "0x238399d427b947898edb290f5ff0f9109849b1c3ba196a42e35f00c50a54b98b"
          ],
          "data": "0x00000000000000000000000000000000000000000000000000000000000075c6000000000000000000000000fe5138a42dc1fc335455b505e036784a33f7f102",
          "blockHash": "0x112b3794888ab5d27923147d5fcb3943af648e8aa687aa347b28b354eef137b1",
          "blockNumber": "0x220f416",
          "blockTimestamp": "0x68cc450f",
          "transactionHash": "0x3513c7f7a894818f417e8999104acc3188e5672d95c088435dd244cd9d809bed",
          "transactionIndex": "0xad",
          "logIndex": "0x465",
          "removed": false
        }
      ],
      "logsBloom": "0x00000000000000000000000000000000000000000000000000000000000000000000000000000000000000000000000000000000000000000800000000000000000040000000000000000000000000000000000000000000000000000000000000000000000000000000000000000000000000000000000800000000000000000000000000000000000000000000000000000000000000000000000000000000000000000000000000000000000000000000000000000000000002000000000000000000000000000000000000000000000000000000000000040000000000800000000000000000000000000000000000000000000000000000000000000000",
      "type": "0x2",
      "transactionHash": "0x3513c7f7a894818f417e8999104acc3188e5672d95c088435dd244cd9d809bed",
      "transactionIndex": "0xad",
      "blockHash": "0x112b3794888ab5d27923147d5fcb3943af648e8aa687aa347b28b354eef137b1",
      "blockNumber": "0x220f416",
      "gasUsed": "0xbccb",
      "effectiveGasPrice": "0x54d941",
      "from": "0x0ece75f3c36f7df2136dac7633165dbff53de3cd",
      "to": "0x1effdcf81a95398920e024bb3b9ff60ce14590e7",
      "contractAddress": null,
      "l1BaseFeeScalar": "0x8dd",
      "l1BlobBaseFee": "0x1",
      "l1BlobBaseFeeScalar": "0x101c12",
      "l1Fee": "0x28b629c73",
      "l1GasPrice": "0xb36cd8f5",
      "l1GasUsed": "0x640"
    },
    {
      "status": "0x1",
      "cumulativeGasUsed": "0x2d19a6e",
      "logs": [
        {
          "address": "0x6c71b7bbde382f12165d5f7749b5fd37965b1e8a",
          "topics": [
            "0x238399d427b947898edb290f5ff0f9109849b1c3ba196a42e35f00c50a54b98b"
          ],
          "data": "0x00000000000000000000000000000000000000000000000000000000000075e80000000000000000000000006c71b7bbde382f12165d5f7749b5fd37965b1e8a",
          "blockHash": "0x112b3794888ab5d27923147d5fcb3943af648e8aa687aa347b28b354eef137b1",
          "blockNumber": "0x220f416",
          "blockTimestamp": "0x68cc450f",
          "transactionHash": "0x441b56f27fe86564589be19cbd73b07d6398ca09d49337648863254b970d39a0",
          "transactionIndex": "0xae",
          "logIndex": "0x466",
          "removed": false
        }
      ],
      "logsBloom": "0x00000000000000000000000000000000000000000000000000000000000000000000000000040000000000000000000000000000000000000800000000000000000000000000000000000000000000000000000000000000000000000000000000000000000000000000000000000000000000000000000000000000000000000000000000100000000000000000000000000000000000000000000000000000000000000000000000000000000000000000000000000000000002000000000000000000000000000000000000000000080000000000000000040000000000000000000000000000000000000000000000000000000000000000000000000000",
      "type": "0x2",
      "transactionHash": "0x441b56f27fe86564589be19cbd73b07d6398ca09d49337648863254b970d39a0",
      "transactionIndex": "0xae",
      "blockHash": "0x112b3794888ab5d27923147d5fcb3943af648e8aa687aa347b28b354eef137b1",
      "blockNumber": "0x220f416",
      "gasUsed": "0xbccb",
      "effectiveGasPrice": "0x54d941",
      "from": "0x0ece75f3c36f7df2136dac7633165dbff53de3cd",
      "to": "0x6c71b7bbde382f12165d5f7749b5fd37965b1e8a",
      "contractAddress": null,
      "l1BaseFeeScalar": "0x8dd",
      "l1BlobBaseFee": "0x1",
      "l1BlobBaseFeeScalar": "0x101c12",
      "l1Fee": "0x28b629c73",
      "l1GasPrice": "0xb36cd8f5",
      "l1GasUsed": "0x640"
    },
    {
      "status": "0x1",
      "cumulativeGasUsed": "0x3aa8ba1",
      "logs": [
        {
          "address": "0x6c71b7bbde382f12165d5f7749b5fd37965b1e8a",
          "topics": [
            "0x238399d427b947898edb290f5ff0f9109849b1c3ba196a42e35f00c50a54b98b"
          ],
          "data": "0x00000000000000000000000000000000000000000000000000000000000075c6000000000000000000000000b0e96105543cba4b3d82911e7336f19bd03b0360",
          "blockHash": "0xc25dce831dec8989f587aabd582ed549714902ab1bf5cddb976cc981ec817e13",
          "blockNumber": "0x220f416",
          "blockTimestamp": "0x68cc450f",
          "transactionHash": "0x30965128bbb5b4a142bc5685806476c38d66fed0b2a7c355402b48bfc8206f60",
          "transactionIndex": "0xd1",
          "logIndex": "0x526",
          "removed": false
        }
      ],
      "logsBloom": "0x00000000000000000000000000000000000000000000000000000000000000000000000000040000000000000000000000000000000000000800000000000000000000000000000000000000000000000000000000000000000000000000000000000000000000000000000000000000000000000000000000000000000000000000000000100000000000000000000000000000000000000000000000000000000000000000000000000000000000000000000000000000000002000000000000000000000000000000000000000000080000000000000000040000000000000000000000000000000000000000000000000000000000000000000000000000",
      "type": "0x2",
      "transactionHash": "0x30965128bbb5b4a142bc5685806476c38d66fed0b2a7c355402b48bfc8206f60",
      "transactionIndex": "0xd1",
      "blockHash": "0xc25dce831dec8989f587aabd582ed549714902ab1bf5cddb976cc981ec817e13",
      "blockNumber": "0x220f416",
      "gasUsed": "0xbccb",
      "effectiveGasPrice": "0x54d941",
      "from": "0x0ece75f3c36f7df2136dac7633165dbff53de3cd",
      "to": "0x6c71b7bbde382f12165d5f7749b5fd37965b1e8a",
      "contractAddress": null,
      "l1BaseFeeScalar": "0x8dd",
      "l1BlobBaseFee": "0x1",
      "l1BlobBaseFeeScalar": "0x101c12",
      "l1Fee": "0x28b629c73",
      "l1GasPrice": "0xb36cd8f5",
      "l1GasUsed": "0x640"
    }
  ],
  "libraries": [],
  "pending": [],
  "returns": {},
  "timestamp": 1758217487100,
  "chain": 8453,
  "commit": "6c82bda"
}