{
  "transactions": [
    {
      "hash": "0xc330a8d96bed8b8c02157cc6aac61070e4e383a709a9cafc3b8343c96ac7558b",
      "transactionType": "CALL",
      "contractName": null,
      "contractAddress": "0xad063b1915bf95fb32f79138c0b668f232676333",
      "function": "setPeer(uint32,bytes32)",
      "arguments": [
        "30184",
        "0x000000000000000000000000ad063b1915bf95fb32f79138c0b668f232676333"
      ],
      "transaction": {
        "from": "0x0ece75f3c36f7df2136dac7633165dbff53de3cd",
        "to": "0xad063b1915bf95fb32f79138c0b668f232676333",
        "gas": "0x9965",
        "value": "0x0",
        "input": "0x3400288b00000000000000000000000000000000000000000000000000000000000075e8000000000000000000000000ad063b1915bf95fb32f79138c0b668f232676333",
        "nonce": "0x15f",
        "chainId": "0x2105"
      },
      "additionalContracts": [],
      "isFixedGasLimit": false
    },
    {
      "hash": "0x091330b4e9b3a4c78c715ae8d2c1f6f0f8daae0c4da6b09ad2075d0b9cf6aa98",
      "transactionType": "CALL",
      "contractName": null,
      "contractAddress": "0xad063b1915bf95fb32f79138c0b668f232676333",
      "function": "setPeer(uint32,bytes32)",
      "arguments": [
        "30150",
        "0x0000000000000000000000006d68a52bc77f2eac3582a7072ead94c19b9f480c"
      ],
      "transaction": {
        "from": "0x0ece75f3c36f7df2136dac7633165dbff53de3cd",
        "to": "0xad063b1915bf95fb32f79138c0b668f232676333",
        "gas": "0x9965",
        "value": "0x0",
        "input": "0x3400288b00000000000000000000000000000000000000000000000000000000000075c60000000000000000000000006d68a52bc77f2eac3582a7072ead94c19b9f480c",
        "nonce": "0x160",
        "chainId": "0x2105"
      },
      "additionalContracts": [],
      "isFixedGasLimit": false
    },
    {
      "hash": "0x5fb822df9f7debc79fdfcf268e5ee6eb67d8f2155c104e0b1df9e0b66d3764e7",
      "transactionType": "CALL",
      "contractName": null,
      "contractAddress": "0xb83e44f1d59bd8743ae45816acd5622fa1a5624d",
      "function": "setPeer(uint32,bytes32)",
      "arguments": [
        "30184",
        "0x000000000000000000000000b83e44f1d59bd8743ae45816acd5622fa1a5624d"
      ],
      "transaction": {
        "from": "0x0ece75f3c36f7df2136dac7633165dbff53de3cd",
        "to": "0xb83e44f1d59bd8743ae45816acd5622fa1a5624d",
        "gas": "0x9965",
        "value": "0x0",
        "input": "0x3400288b00000000000000000000000000000000000000000000000000000000000075e8000000000000000000000000b83e44f1d59bd8743ae45816acd5622fa1a5624d",
        "nonce": "0x161",
        "chainId": "0x2105"
      },
      "additionalContracts": [],
      "isFixedGasLimit": false
    },
    {
      "hash": "0x25a1a57933c9c214071c042734f9f61c3b78bc1ae5f289e71980fde69a1a29f7",
      "transactionType": "CALL",
      "contractName": null,
      "contractAddress": "0xb83e44f1d59bd8743ae45816acd5622fa1a5624d",
      "function": "setPeer(uint32,bytes32)",
      "arguments": [
        "30150",
        "0x0000000000000000000000005ddbbc68527214e0aca3b4175860080cbdaa12ff"
      ],
      "transaction": {
        "from": "0x0ece75f3c36f7df2136dac7633165dbff53de3cd",
        "to": "0xb83e44f1d59bd8743ae45816acd5622fa1a5624d",
        "gas": "0x9965",
        "value": "0x0",
        "input": "0x3400288b00000000000000000000000000000000000000000000000000000000000075c60000000000000000000000005ddbbc68527214e0aca3b4175860080cbdaa12ff",
        "nonce": "0x162",
        "chainId": "0x2105"
      },
      "additionalContracts": [],
      "isFixedGasLimit": false
    },
    {
      "hash": "0xf281c444c302855e7b73f4b32b1ccc7ca0502874e65ea453783084a3d174c4ad",
      "transactionType": "CALL",
      "contractName": null,
      "contractAddress": "0x1effdcf81a95398920e024bb3b9ff60ce14590e7",
      "function": "setPeer(uint32,bytes32)",
      "arguments": [
        "30184",
        "0x0000000000000000000000001effdcf81a95398920e024bb3b9ff60ce14590e7"
      ],
      "transaction": {
        "from": "0x0ece75f3c36f7df2136dac7633165dbff53de3cd",
        "to": "0x1effdcf81a95398920e024bb3b9ff60ce14590e7",
        "gas": "0x9965",
        "value": "0x0",
        "input": "0x3400288b00000000000000000000000000000000000000000000000000000000000075e80000000000000000000000001effdcf81a95398920e024bb3b9ff60ce14590e7",
        "nonce": "0x163",
        "chainId": "0x2105"
      },
      "additionalContracts": [],
      "isFixedGasLimit": false
    },
    {
      "hash": "0x5836be14c93ebe06cd22fca2a31f7c888fabe0ee51e2024c079d7cd62d482e6f",
      "transactionType": "CALL",
      "contractName": null,
      "contractAddress": "0x1effdcf81a95398920e024bb3b9ff60ce14590e7",
      "function": "setPeer(uint32,bytes32)",
      "arguments": [
        "30150",
        "0x000000000000000000000000fe5138a42dc1fc335455b505e036784a33f7f102"
      ],
      "transaction": {
        "from": "0x0ece75f3c36f7df2136dac7633165dbff53de3cd",
        "to": "0x1effdcf81a95398920e024bb3b9ff60ce14590e7",
        "gas": "0x9965",
        "value": "0x0",
        "input": "0x3400288b00000000000000000000000000000000000000000000000000000000000075c6000000000000000000000000fe5138a42dc1fc335455b505e036784a33f7f102",
        "nonce": "0x164",
        "chainId": "0x2105"
      },
      "additionalContracts": [],
      "isFixedGasLimit": false
    },
    {
      "hash": "0x86f355133eece880de7762a03526b365a2d11c8d06132e85c3a269c8b81f3b7b",
      "transactionType": "CALL",
      "contractName": null,
      "contractAddress": "0x6c71b7bbde382f12165d5f7749b5fd37965b1e8a",
      "function": "setPeer(uint32,bytes32)",
      "arguments": [
        "30184",
        "0x0000000000000000000000006c71b7bbde382f12165d5f7749b5fd37965b1e8a"
      ],
      "transaction": {
        "from": "0x0ece75f3c36f7df2136dac7633165dbff53de3cd",
        "to": "0x6c71b7bbde382f12165d5f7749b5fd37965b1e8a",
        "gas": "0x9965",
        "value": "0x0",
        "input": "0x3400288b00000000000000000000000000000000000000000000000000000000000075e80000000000000000000000006c71b7bbde382f12165d5f7749b5fd37965b1e8a",
        "nonce": "0x165",
        "chainId": "0x2105"
      },
      "additionalContracts": [],
      "isFixedGasLimit": false
    },
    {
      "hash": "0xfb76a47837df972ff2b3bdd442c5de99f0e7834b562f81932e6bd469958a1237",
      "transactionType": "CALL",
      "contractName": null,
      "contractAddress": "0x6c71b7bbde382f12165d5f7749b5fd37965b1e8a",
      "function": "setPeer(uint32,bytes32)",
      "arguments": [
        "30150",
        "0x000000000000000000000000b0e96105543cba4b3d82911e7336f19bd03b0360"
      ],
      "transaction": {
        "from": "0x0ece75f3c36f7df2136dac7633165dbff53de3cd",
        "to": "0x6c71b7bbde382f12165d5f7749b5fd37965b1e8a",
        "gas": "0x9965",
        "value": "0x0",
        "input": "0x3400288b00000000000000000000000000000000000000000000000000000000000075c6000000000000000000000000b0e96105543cba4b3d82911e7336f19bd03b0360",
        "nonce": "0x166",
        "chainId": "0x2105"
      },
      "additionalContracts": [],
      "isFixedGasLimit": false
    },
    {
      "hash": "0xef0f2a35fc1c927439120faa557529f545ba6b1a31700efcf4ecd59d4f5d0f6c",
      "transactionType": "CALL",
      "contractName": null,
      "contractAddress": "0x560bd1836c348c4a10eed7008e68ae58228dd117",
      "function": "setPeer(uint32,bytes32)",
      "arguments": [
        "30184",
        "0x000000000000000000000000560bd1836c348c4a10eed7008e68ae58228dd117"
      ],
      "transaction": {
        "from": "0x0ece75f3c36f7df2136dac7633165dbff53de3cd",
        "to": "0x560bd1836c348c4a10eed7008e68ae58228dd117",
        "gas": "0x113ea",
        "value": "0x0",
        "input": "0x3400288b00000000000000000000000000000000000000000000000000000000000075e8000000000000000000000000560bd1836c348c4a10eed7008e68ae58228dd117",
        "nonce": "0x167",
        "chainId": "0x2105"
      },
      "additionalContracts": [],
      "isFixedGasLimit": false
    },
    {
      "hash": "0x386cb476958e1fc823274b237fd2fa099d3b7a264a962f5212132afcb9b5ab5f",
      "transactionType": "CALL",
      "contractName": null,
      "contractAddress": "0x560bd1836c348c4a10eed7008e68ae58228dd117",
      "function": "setPeer(uint32,bytes32)",
      "arguments": [
        "30150",
        "0x000000000000000000000000af9842adacb4b2fa619d45fe11579fae5faf1698"
      ],
      "transaction": {
        "from": "0x0ece75f3c36f7df2136dac7633165dbff53de3cd",
        "to": "0x560bd1836c348c4a10eed7008e68ae58228dd117",
        "gas": "0xb24b",
        "value": "0x0",
        "input": "0x3400288b00000000000000000000000000000000000000000000000000000000000075c6000000000000000000000000af9842adacb4b2fa619d45fe11579fae5faf1698",
        "nonce": "0x168",
        "chainId": "0x2105"
      },
      "additionalContracts": [],
      "isFixedGasLimit": false
    }
  ],
  "receipts": [
    {
      "status": "0x1",
      "cumulativeGasUsed": "0x1e17bbf",
      "logs": [
        {
          "address": "0xad063b1915bf95fb32f79138c0b668f232676333",
          "topics": [
            "0x238399d427b947898edb290f5ff0f9109849b1c3ba196a42e35f00c50a54b98b"
          ],
          "data": "0x00000000000000000000000000000000000000000000000000000000000075e8000000000000000000000000ad063b1915bf95fb32f79138c0b668f232676333",
          "blockHash": "0x775b9f7a380d1863b44de29d082e8ddc385750e1ee94ecabcd4e8bf3d335c5c5",
          "blockNumber": "0x221784a",
          "blockTimestamp": "0x68cd4d77",
          "transactionHash": "0xc330a8d96bed8b8c02157cc6aac61070e4e383a709a9cafc3b8343c96ac7558b",
          "transactionIndex": "0xdc",
          "logIndex": "0x1b9",
          "removed": false
        }
      ],
      "logsBloom": "0x00000000000000000000000000000000000000000000000000000000000000000000000000000000000000000000000000000000000000000800000000000000000000000000000000000000000000000000000000000000000000000000000000000000000000000000000000000000000000000000000000000004000000000004000000000000000000000000000000000000000000000000000000000000000000000000000000000000000000000000000000000000000002000000000000000000000040000000000000000000000000000000000000040000000000000000000000000000000000000000000000000000000000000000000000000000",
      "type": "0x2",
      "transactionHash": "0xc330a8d96bed8b8c02157cc6aac61070e4e383a709a9cafc3b8343c96ac7558b",
      "transactionIndex": "0xdc",
      "blockHash": "0x775b9f7a380d1863b44de29d082e8ddc385750e1ee94ecabcd4e8bf3d335c5c5",
      "blockNumber": "0x221784a",
      "gasUsed": "0x6f0f",
      "effectiveGasPrice": "0x507854",
      "from": "0x0ece75f3c36f7df2136dac7633165dbff53de3cd",
      "to": "0xad063b1915bf95fb32f79138c0b668f232676333",
      "contractAddress": null,
      "l1BaseFeeScalar": "0x8dd",
      "l1BlobBaseFee": "0x1",
      "l1BlobBaseFeeScalar": "0x101c12",
      "l1Fee": "0x595980fa",
      "l1GasPrice": "0x189c8bc7",
      "l1GasUsed": "0x640"
    },
    {
      "status": "0x1",
      "cumulativeGasUsed": "0x1e1eace",
      "logs": [
        {
          "address": "0xad063b1915bf95fb32f79138c0b668f232676333",
          "topics": [
            "0x238399d427b947898edb290f5ff0f9109849b1c3ba196a42e35f00c50a54b98b"
          ],
          "data": "0x00000000000000000000000000000000000000000000000000000000000075c60000000000000000000000006d68a52bc77f2eac3582a7072ead94c19b9f480c",
          "blockHash": "0x775b9f7a380d1863b44de29d082e8ddc385750e1ee94ecabcd4e8bf3d335c5c5",
          "blockNumber": "0x221784a",
          "blockTimestamp": "0x68cd4d77",
          "transactionHash": "0x091330b4e9b3a4c78c715ae8d2c1f6f0f8daae0c4da6b09ad2075d0b9cf6aa98",
          "transactionIndex": "0xdd",
          "logIndex": "0x1ba",
          "removed": false
        }
      ],
      "logsBloom": "0x00000000000000000000000000000000000000000000000000000000000000000000000000000000000000000000000000000000000000000800000000000000000000000000000000000000000000000000000000000000000000000000000000000000000000000000000000000000000000000000000000000004000000000004000000000000000000000000000000000000000000000000000000000000000000000000000000000000000000000000000000000000000002000000000000000000000040000000000000000000000000000000000000040000000000000000000000000000000000000000000000000000000000000000000000000000",
      "type": "0x2",
      "transactionHash": "0x091330b4e9b3a4c78c715ae8d2c1f6f0f8daae0c4da6b09ad2075d0b9cf6aa98",
      "transactionIndex": "0xdd",
      "blockHash": "0x775b9f7a380d1863b44de29d082e8ddc385750e1ee94ecabcd4e8bf3d335c5c5",
      "blockNumber": "0x221784a",
      "gasUsed": "0x6f0f",
      "effectiveGasPrice": "0x507854",
      "from": "0x0ece75f3c36f7df2136dac7633165dbff53de3cd",
      "to": "0xad063b1915bf95fb32f79138c0b668f232676333",
      "contractAddress": null,
      "l1BaseFeeScalar": "0x8dd",
      "l1BlobBaseFee": "0x1",
      "l1BlobBaseFeeScalar": "0x101c12",
      "l1Fee": "0x595980fa",
      "l1GasPrice": "0x189c8bc7",
      "l1GasUsed": "0x640"
    },
    {
      "status": "0x1",
      "cumulativeGasUsed": "0x1e259dd",
      "logs": [
        {
          "address": "0xb83e44f1d59bd8743ae45816acd5622fa1a5624d",
          "topics": [
            "0x238399d427b947898edb290f5ff0f9109849b1c3ba196a42e35f00c50a54b98b"
          ],
          "data": "0x00000000000000000000000000000000000000000000000000000000000075e8000000000000000000000000b83e44f1d59bd8743ae45816acd5622fa1a5624d",
          "blockHash": "0x775b9f7a380d1863b44de29d082e8ddc385750e1ee94ecabcd4e8bf3d335c5c5",
          "blockNumber": "0x221784a",
          "blockTimestamp": "0x68cd4d77",
          "transactionHash": "0x5fb822df9f7debc79fdfcf268e5ee6eb67d8f2155c104e0b1df9e0b66d3764e7",
          "transactionIndex": "0xde",
          "logIndex": "0x1bb",
          "removed": false
        }
      ],
      "logsBloom": "0x00000000000000000200000000000000000000000000000000000000000000000000000000000000000000000000000000000000000000000800000000010000000000000000000000000000000000000000000000000000000000000000000000000000000000000000000000000000000000000000000000000000000000000000000000000000000000000000000000000000000000000000000000000000000000000000000000000000000000000000000000000000000002000000000000000000000000000000000000000000000000000000000000040000000000002000000000000000000000000000000000000000000000000000000000000000",
      "type": "0x2",
      "transactionHash": "0x5fb822df9f7debc79fdfcf268e5ee6eb67d8f2155c104e0b1df9e0b66d3764e7",
      "transactionIndex": "0xde",
      "blockHash": "0x775b9f7a380d1863b44de29d082e8ddc385750e1ee94ecabcd4e8bf3d335c5c5",
      "blockNumber": "0x221784a",
      "gasUsed": "0x6f0f",
      "effectiveGasPrice": "0x507854",
      "from": "0x0ece75f3c36f7df2136dac7633165dbff53de3cd",
      "to": "0xb83e44f1d59bd8743ae45816acd5622fa1a5624d",
      "contractAddress": null,
      "l1BaseFeeScalar": "0x8dd",
      "l1BlobBaseFee": "0x1",
      "l1BlobBaseFeeScalar": "0x101c12",
      "l1Fee": "0x595980fa",
      "l1GasPrice": "0x189c8bc7",
      "l1GasUsed": "0x640"
    },
    {
      "status": "0x1",
      "cumulativeGasUsed": "0x1e2c8ec",
      "logs": [
        {
          "address": "0xb83e44f1d59bd8743ae45816acd5622fa1a5624d",
          "topics": [
            "0x238399d427b947898edb290f5ff0f9109849b1c3ba196a42e35f00c50a54b98b"
          ],
          "data": "0x00000000000000000000000000000000000000000000000000000000000075c60000000000000000000000005ddbbc68527214e0aca3b4175860080cbdaa12ff",
          "blockHash": "0x775b9f7a380d1863b44de29d082e8ddc385750e1ee94ecabcd4e8bf3d335c5c5",
          "blockNumber": "0x221784a",
          "blockTimestamp": "0x68cd4d77",
          "transactionHash": "0x25a1a57933c9c214071c042734f9f61c3b78bc1ae5f289e71980fde69a1a29f7",
          "transactionIndex": "0xdf",
          "logIndex": "0x1bc",
          "removed": false
        }
      ],
      "logsBloom": "0x00000000000000000200000000000000000000000000000000000000000000000000000000000000000000000000000000000000000000000800000000010000000000000000000000000000000000000000000000000000000000000000000000000000000000000000000000000000000000000000000000000000000000000000000000000000000000000000000000000000000000000000000000000000000000000000000000000000000000000000000000000000000002000000000000000000000000000000000000000000000000000000000000040000000000002000000000000000000000000000000000000000000000000000000000000000",
      "type": "0x2",
      "transactionHash": "0x25a1a57933c9c214071c042734f9f61c3b78bc1ae5f289e71980fde69a1a29f7",
      "transactionIndex": "0xdf",
      "blockHash": "0x775b9f7a380d1863b44de29d082e8ddc385750e1ee94ecabcd4e8bf3d335c5c5",
      "blockNumber": "0x221784a",
      "gasUsed": "0x6f0f",
      "effectiveGasPrice": "0x507854",
      "from": "0x0ece75f3c36f7df2136dac7633165dbff53de3cd",
      "to": "0xb83e44f1d59bd8743ae45816acd5622fa1a5624d",
      "contractAddress": null,
      "l1BaseFeeScalar": "0x8dd",
      "l1BlobBaseFee": "0x1",
      "l1BlobBaseFeeScalar": "0x101c12",
      "l1Fee": "0x595980fa",
      "l1GasPrice": "0x189c8bc7",
      "l1GasUsed": "0x640"
    },
    {
      "status": "0x1",
      "cumulativeGasUsed": "0x1e337fb",
      "logs": [
        {
          "address": "0x1effdcf81a95398920e024bb3b9ff60ce14590e7",
          "topics": [
            "0x238399d427b947898edb290f5ff0f9109849b1c3ba196a42e35f00c50a54b98b"
          ],
          "data": "0x00000000000000000000000000000000000000000000000000000000000075e80000000000000000000000001effdcf81a95398920e024bb3b9ff60ce14590e7",
          "blockHash": "0x775b9f7a380d1863b44de29d082e8ddc385750e1ee94ecabcd4e8bf3d335c5c5",
          "blockNumber": "0x221784a",
          "blockTimestamp": "0x68cd4d77",
          "transactionHash": "0xf281c444c302855e7b73f4b32b1ccc7ca0502874e65ea453783084a3d174c4ad",
          "transactionIndex": "0xe0",
          "logIndex": "0x1bd",
          "removed": false
        }
      ],
      "logsBloom": "0x00000000000000000000000000000000000000000000000000000000000000000000000000000000000000000000000000000000000000000800000000000000000040000000000000000000000000000000000000000000000000000000000000000000000000000000000000000000000000000000000800000000000000000000000000000000000000000000000000000000000000000000000000000000000000000000000000000000000000000000000000000000000002000000000000000000000000000000000000000000000000000000000000040000000000800000000000000000000000000000000000000000000000000000000000000000",
      "type": "0x2",
      "transactionHash": "0xf281c444c302855e7b73f4b32b1ccc7ca0502874e65ea453783084a3d174c4ad",
      "transactionIndex": "0xe0",
      "blockHash": "0x775b9f7a380d1863b44de29d082e8ddc385750e1ee94ecabcd4e8bf3d335c5c5",
      "blockNumber": "0x221784a",
      "gasUsed": "0x6f0f",
      "effectiveGasPrice": "0x507854",
      "from": "0x0ece75f3c36f7df2136dac7633165dbff53de3cd",
      "to": "0x1effdcf81a95398920e024bb3b9ff60ce14590e7",
      "contractAddress": null,
      "l1BaseFeeScalar": "0x8dd",
      "l1BlobBaseFee": "0x1",
      "l1BlobBaseFeeScalar": "0x101c12",
      "l1Fee": "0x595980fa",
      "l1GasPrice": "0x189c8bc7",
      "l1GasUsed": "0x640"
    },
    {
      "status": "0x1",
      "cumulativeGasUsed": "0x1e3a70a",
      "logs": [
        {
          "address": "0x1effdcf81a95398920e024bb3b9ff60ce14590e7",
          "topics": [
            "0x238399d427b947898edb290f5ff0f9109849b1c3ba196a42e35f00c50a54b98b"
          ],
          "data": "0x00000000000000000000000000000000000000000000000000000000000075c6000000000000000000000000fe5138a42dc1fc335455b505e036784a33f7f102",
          "blockHash": "0x775b9f7a380d1863b44de29d082e8ddc385750e1ee94ecabcd4e8bf3d335c5c5",
          "blockNumber": "0x221784a",
          "blockTimestamp": "0x68cd4d77",
          "transactionHash": "0x5836be14c93ebe06cd22fca2a31f7c888fabe0ee51e2024c079d7cd62d482e6f",
          "transactionIndex": "0xe1",
          "logIndex": "0x1be",
          "removed": false
        }
      ],
      "logsBloom": "0x00000000000000000000000000000000000000000000000000000000000000000000000000000000000000000000000000000000000000000800000000000000000040000000000000000000000000000000000000000000000000000000000000000000000000000000000000000000000000000000000800000000000000000000000000000000000000000000000000000000000000000000000000000000000000000000000000000000000000000000000000000000000002000000000000000000000000000000000000000000000000000000000000040000000000800000000000000000000000000000000000000000000000000000000000000000",
      "type": "0x2",
      "transactionHash": "0x5836be14c93ebe06cd22fca2a31f7c888fabe0ee51e2024c079d7cd62d482e6f",
      "transactionIndex": "0xe1",
      "blockHash": "0x775b9f7a380d1863b44de29d082e8ddc385750e1ee94ecabcd4e8bf3d335c5c5",
      "blockNumber": "0x221784a",
      "gasUsed": "0x6f0f",
      "effectiveGasPrice": "0x507854",
      "from": "0x0ece75f3c36f7df2136dac7633165dbff53de3cd",
      "to": "0x1effdcf81a95398920e024bb3b9ff60ce14590e7",
      "contractAddress": null,
      "l1BaseFeeScalar": "0x8dd",
      "l1BlobBaseFee": "0x1",
      "l1BlobBaseFeeScalar": "0x101c12",
      "l1Fee": "0x595980fa",
      "l1GasPrice": "0x189c8bc7",
      "l1GasUsed": "0x640"
    },
    {
      "status": "0x1",
      "cumulativeGasUsed": "0x1e41619",
      "logs": [
        {
          "address": "0x6c71b7bbde382f12165d5f7749b5fd37965b1e8a",
          "topics": [
            "0x238399d427b947898edb290f5ff0f9109849b1c3ba196a42e35f00c50a54b98b"
          ],
          "data": "0x00000000000000000000000000000000000000000000000000000000000075e80000000000000000000000006c71b7bbde382f12165d5f7749b5fd37965b1e8a",
          "blockHash": "0x775b9f7a380d1863b44de29d082e8ddc385750e1ee94ecabcd4e8bf3d335c5c5",
          "blockNumber": "0x221784a",
          "blockTimestamp": "0x68cd4d77",
          "transactionHash": "0x86f355133eece880de7762a03526b365a2d11c8d06132e85c3a269c8b81f3b7b",
          "transactionIndex": "0xe2",
          "logIndex": "0x1bf",
          "removed": false
        }
      ],
      "logsBloom": "0x00000000000000000000000000000000000000000000000000000000000000000000000000040000000000000000000000000000000000000800000000000000000000000000000000000000000000000000000000000000000000000000000000000000000000000000000000000000000000000000000000000000000000000000000000100000000000000000000000000000000000000000000000000000000000000000000000000000000000000000000000000000000002000000000000000000000000000000000000000000080000000000000000040000000000000000000000000000000000000000000000000000000000000000000000000000",
      "type": "0x2",
      "transactionHash": "0x86f355133eece880de7762a03526b365a2d11c8d06132e85c3a269c8b81f3b7b",
      "transactionIndex": "0xe2",
      "blockHash": "0x775b9f7a380d1863b44de29d082e8ddc385750e1ee94ecabcd4e8bf3d335c5c5",
      "blockNumber": "0x221784a",
      "gasUsed": "0x6f0f",
      "effectiveGasPrice": "0x507854",
      "from": "0x0ece75f3c36f7df2136dac7633165dbff53de3cd",
      "to": "0x6c71b7bbde382f12165d5f7749b5fd37965b1e8a",
      "contractAddress": null,
      "l1BaseFeeScalar": "0x8dd",
      "l1BlobBaseFee": "0x1",
      "l1BlobBaseFeeScalar": "0x101c12",
      "l1Fee": "0x595980fa",
      "l1GasPrice": "0x189c8bc7",
      "l1GasUsed": "0x640"
    },
    {
      "status": "0x1",
      "cumulativeGasUsed": "0x500a78",
      "logs": [
        {
          "address": "0x6c71b7bbde382f12165d5f7749b5fd37965b1e8a",
          "topics": [
            "0x238399d427b947898edb290f5ff0f9109849b1c3ba196a42e35f00c50a54b98b"
          ],
          "data": "0x00000000000000000000000000000000000000000000000000000000000075c6000000000000000000000000b0e96105543cba4b3d82911e7336f19bd03b0360",
          "blockHash": "0x7b5cafbcc7355ede77fe7694d214b48f1c6b613e29a8fba5701cf85a27a3e56e",
          "blockNumber": "0x221784b",
          "blockTimestamp": "0x68cd4d79",
          "transactionHash": "0xfb76a47837df972ff2b3bdd442c5de99f0e7834b562f81932e6bd469958a1237",
          "transactionIndex": "0x1e",
          "logIndex": "0x3e",
          "removed": false
        }
      ],
      "logsBloom": "0x00000000000000000000000000000000000000000000000000000000000000000000000000040000000000000000000000000000000000000800000000000000000000000000000000000000000000000000000000000000000000000000000000000000000000000000000000000000000000000000000000000000000000000000000000100000000000000000000000000000000000000000000000000000000000000000000000000000000000000000000000000000000002000000000000000000000000000000000000000000080000000000000000040000000000000000000000000000000000000000000000000000000000000000000000000000",
      "type": "0x2",
      "transactionHash": "0xfb76a47837df972ff2b3bdd442c5de99f0e7834b562f81932e6bd469958a1237",
      "transactionIndex": "0x1e",
      "blockHash": "0x7b5cafbcc7355ede77fe7694d214b48f1c6b613e29a8fba5701cf85a27a3e56e",
      "blockNumber": "0x221784b",
      "gasUsed": "0x6f0f",
      "effectiveGasPrice": "0x5004f1",
      "from": "0x0ece75f3c36f7df2136dac7633165dbff53de3cd",
      "to": "0x6c71b7bbde382f12165d5f7749b5fd37965b1e8a",
      "contractAddress": null,
      "l1BaseFeeScalar": "0x8dd",
      "l1BlobBaseFee": "0x1",
      "l1BlobBaseFeeScalar": "0x101c12",
      "l1Fee": "0x595980fa",
      "l1GasPrice": "0x189c8bc7",
      "l1GasUsed": "0x640"
    },
    {
      "status": "0x1",
      "cumulativeGasUsed": "0x50c721",
      "logs": [
        {
          "address": "0x560bd1836c348c4a10eed7008e68ae58228dd117",
          "topics": [
            "0x238399d427b947898edb290f5ff0f9109849b1c3ba196a42e35f00c50a54b98b"
          ],
          "data": "0x00000000000000000000000000000000000000000000000000000000000075e8000000000000000000000000560bd1836c348c4a10eed7008e68ae58228dd117",
          "blockHash": "0x314f04120a7ece7861bfebc6cd6ed4a0d9b21c4cdf8e07226013105a6f4a2d17",
          "blockNumber": "0x221784b",
          "blockTimestamp": "0x68cd4d79",
          "transactionHash": "0xef0f2a35fc1c927439120faa557529f545ba6b1a31700efcf4ecd59d4f5d0f6c",
          "transactionIndex": "0x1f",
          "logIndex": "0x3f",
          "removed": false
        }
      ],
      "logsBloom": "0x00000000000000000000000000000000000000000000000000000000000000000000000000000000000000000000000000000000000000000800000000000000000000000000000000000000000000000000000000000000000000000000000000000000000000000000000000000000000800000000000000000000000000000000000000000000000000000000000000000000000000000000000000000000000000000000000000000100000000000000000000000000000002000000400000000000000000000000000000000000000000000000000000040000000000000000000000000000000000000000000000000000000000000000000000000000",
      "type": "0x2",
      "transactionHash": "0xef0f2a35fc1c927439120faa557529f545ba6b1a31700efcf4ecd59d4f5d0f6c",
      "transactionIndex": "0x1f",
      "blockHash": "0x314f04120a7ece7861bfebc6cd6ed4a0d9b21c4cdf8e07226013105a6f4a2d17",
      "blockNumber": "0x221784b",
      "gasUsed": "0xbca9",
      "effectiveGasPrice": "0x5004f1",
      "from": "0x0ece75f3c36f7df2136dac7633165dbff53de3cd",
      "to": "0x560bd1836c348c4a10eed7008e68ae58228dd117",
      "contractAddress": null,
      "l1BaseFeeScalar": "0x8dd",
      "l1BlobBaseFee": "0x1",
      "l1BlobBaseFeeScalar": "0x101c12",
      "l1Fee": "0x595980fa",
      "l1GasPrice": "0x189c8bc7",
      "l1GasUsed": "0x640"
    },
    {
      "status": "0x1",
      "cumulativeGasUsed": "0x51410a",
      "logs": [
        {
          "address": "0x560bd1836c348c4a10eed7008e68ae58228dd117",
          "topics": [
            "0x238399d427b947898edb290f5ff0f9109849b1c3ba196a42e35f00c50a54b98b"
          ],
          "data": "0x00000000000000000000000000000000000000000000000000000000000075c6000000000000000000000000af9842adacb4b2fa619d45fe11579fae5faf1698",
          "blockHash": "0x7b5cafbcc7355ede77fe7694d214b48f1c6b613e29a8fba5701cf85a27a3e56e",
          "blockNumber": "0x221784b",
          "blockTimestamp": "0x68cd4d79",
          "transactionHash": "0x386cb476958e1fc823274b237fd2fa099d3b7a264a962f5212132afcb9b5ab5f",
          "transactionIndex": "0x20",
          "logIndex": "0x40",
          "removed": false
        }
      ],
      "logsBloom": "0x00000000000000000000000000000000000000000000000000000000000000000000000000000000000000000000000000000000000000000800000000000000000000000000000000000000000000000000000000000000000000000000000000000000000000000000000000000000000800000000000000000000000000000000000000000000000000000000000000000000000000000000000000000000000000000000000000000100000000000000000000000000000002000000400000000000000000000000000000000000000000000000000000040000000000000000000000000000000000000000000000000000000000000000000000000000",
      "type": "0x2",
      "transactionHash": "0x386cb476958e1fc823274b237fd2fa099d3b7a264a962f5212132afcb9b5ab5f",
      "transactionIndex": "0x20",
      "blockHash": "0x7b5cafbcc7355ede77fe7694d214b48f1c6b613e29a8fba5701cf85a27a3e56e",
      "blockNumber": "0x221784b",
      "gasUsed": "0x79e9",
      "effectiveGasPrice": "0x5004f1",
      "from": "0x0ece75f3c36f7df2136dac7633165dbff53de3cd",
      "to": "0x560bd1836c348c4a10eed7008e68ae58228dd117",
      "contractAddress": null,
      "l1BaseFeeScalar": "0x8dd",
      "l1BlobBaseFee": "0x1",
      "l1BlobBaseFeeScalar": "0x101c12",
      "l1Fee": "0x595980fa",
      "l1GasPrice": "0x189c8bc7",
      "l1GasUsed": "0x640"
    }
  ],
  "libraries": [],
  "pending": [],
  "returns": {},
  "timestamp": 1758285175670,
  "chain": 8453,
  "commit": "6c82bda"
}