{
  "transactions": [
    {
      "hash": "0x6d3f33ec813754f50238611c3028bb3ec67ffb8d1ea0e5a6720ab6f25be38fd8",
      "transactionType": "CALL",
      "contractName": null,
      "contractAddress": "0x3a1353926e2c1ada7acc93a6fbe73c1ec6b1e931",
      "function": "setPeer(uint32,bytes32)",
      "arguments": [
        "30184",
        "0x0000000000000000000000003a1353926e2c1ada7acc93a6fbe73c1ec6b1e931"
      ],
      "transaction": {
        "from": "0x0ece75f3c36f7df2136dac7633165dbff53de3cd",
        "to": "0x3a1353926e2c1ada7acc93a6fbe73c1ec6b1e931",
        "gas": "0x1139a",
        "value": "0x0",
        "input": "0x3400288b00000000000000000000000000000000000000000000000000000000000075e80000000000000000000000003a1353926e2c1ada7acc93a6fbe73c1ec6b1e931",
        "nonce": "0xca",
        "chainId": "0x2105"
      },
      "additionalContracts": [],
      "isFixedGasLimit": false
    },
    {
      "hash": "0x9c943ec5b4d00c2ed3911165e2e6fe9491f2fd59521f6e4bfd47843902312fc0",
      "transactionType": "CALL",
      "contractName": null,
      "contractAddress": "0x3a1353926e2c1ada7acc93a6fbe73c1ec6b1e931",
      "function": "setPeer(uint32,bytes32)",
      "arguments": [
        "30150",
        "0x0000000000000000000000006d68a52bc77f2eac3582a7072ead94c19b9f480c"
      ],
      "transaction": {
        "from": "0x0ece75f3c36f7df2136dac7633165dbff53de3cd",
        "to": "0x3a1353926e2c1ada7acc93a6fbe73c1ec6b1e931",
        "gas": "0x1139a",
        "value": "0x0",
        "input": "0x3400288b00000000000000000000000000000000000000000000000000000000000075c60000000000000000000000006d68a52bc77f2eac3582a7072ead94c19b9f480c",
        "nonce": "0xcb",
        "chainId": "0x2105"
      },
      "additionalContracts": [],
      "isFixedGasLimit": false
    },
    {
      "hash": "0x0aa273ab911ce2fd5bdfcab3ef60c7c4944cc9fe1a43484de46d8541c1786f7f",
      "transactionType": "CALL",
      "contractName": null,
      "contractAddress": "0xdc4ce404c1caa4b618847d93941d6cca09744e1e",
      "function": "setPeer(uint32,bytes32)",
      "arguments": [
        "30184",
        "0x000000000000000000000000dc4ce404c1caa4b618847d93941d6cca09744e1e"
      ],
      "transaction": {
        "from": "0x0ece75f3c36f7df2136dac7633165dbff53de3cd",
        "to": "0xdc4ce404c1caa4b618847d93941d6cca09744e1e",
        "gas": "0x1139a",
        "value": "0x0",
        "input": "0x3400288b00000000000000000000000000000000000000000000000000000000000075e8000000000000000000000000dc4ce404c1caa4b618847d93941d6cca09744e1e",
        "nonce": "0xcc",
        "chainId": "0x2105"
      },
      "additionalContracts": [],
      "isFixedGasLimit": false
    },
    {
      "hash": "0x3b8f0761da75ae553756c11bad4a52e22779ad510de9aabb681af41d1cfbee8b",
      "transactionType": "CALL",
      "contractName": null,
      "contractAddress": "0xdc4ce404c1caa4b618847d93941d6cca09744e1e",
      "function": "setPeer(uint32,bytes32)",
      "arguments": [
        "30150",
        "0x0000000000000000000000005ddbbc68527214e0aca3b4175860080cbdaa12ff"
      ],
      "transaction": {
        "from": "0x0ece75f3c36f7df2136dac7633165dbff53de3cd",
        "to": "0xdc4ce404c1caa4b618847d93941d6cca09744e1e",
        "gas": "0x1139a",
        "value": "0x0",
        "input": "0x3400288b00000000000000000000000000000000000000000000000000000000000075c60000000000000000000000005ddbbc68527214e0aca3b4175860080cbdaa12ff",
        "nonce": "0xcd",
        "chainId": "0x2105"
      },
      "additionalContracts": [],
      "isFixedGasLimit": false
    },
    {
      "hash": "0xc5ab5cabc80d56f9528fc151a48935cbc7f41afd99497b3dca012e95fd25ab0f",
      "transactionType": "CALL",
      "contractName": null,
      "contractAddress": "0x249a1d049ce9c68c818eb5afc53359f547c176a4",
      "function": "setPeer(uint32,bytes32)",
      "arguments": [
        "30184",
        "0x000000000000000000000000249a1d049ce9c68c818eb5afc53359f547c176a4"
      ],
      "transaction": {
        "from": "0x0ece75f3c36f7df2136dac7633165dbff53de3cd",
        "to": "0x249a1d049ce9c68c818eb5afc53359f547c176a4",
        "gas": "0x104a6",
        "value": "0x0",
        "input": "0x3400288b00000000000000000000000000000000000000000000000000000000000075e8000000000000000000000000249a1d049ce9c68c818eb5afc53359f547c176a4",
        "nonce": "0xce",
        "chainId": "0x2105"
      },
      "additionalContracts": [],
      "isFixedGasLimit": false
    },
    {
      "hash": "0x16b037bff486d2a73e0b26b52a11b36dad992a1ec06b065a34707c89649ebdc5",
      "transactionType": "CALL",
      "contractName": null,
      "contractAddress": "0x249a1d049ce9c68c818eb5afc53359f547c176a4",
      "function": "setPeer(uint32,bytes32)",
      "arguments": [
        "30150",
        "0x000000000000000000000000fe5138a42dc1fc335455b505e036784a33f7f102"
      ],
      "transaction": {
        "from": "0x0ece75f3c36f7df2136dac7633165dbff53de3cd",
        "to": "0x249a1d049ce9c68c818eb5afc53359f547c176a4",
        "gas": "0x104a6",
        "value": "0x0",
        "input": "0x3400288b00000000000000000000000000000000000000000000000000000000000075c6000000000000000000000000fe5138a42dc1fc335455b505e036784a33f7f102",
        "nonce": "0xcf",
        "chainId": "0x2105"
      },
      "additionalContracts": [],
      "isFixedGasLimit": false
    },
    {
      "hash": "0xdb4065135ee3407fcf1d901cda7601a68a5e881b1a6ef293010097563702aed0",
      "transactionType": "CALL",
      "contractName": null,
      "contractAddress": "0x2773280bbaea3c70afec358c1ba426d42d56fc7a",
      "function": "setPeer(uint32,bytes32)",
      "arguments": [
        "30184",
        "0x0000000000000000000000002773280bbaea3c70afec358c1ba426d42d56fc7a"
      ],
      "transaction": {
        "from": "0x0ece75f3c36f7df2136dac7633165dbff53de3cd",
        "to": "0x2773280bbaea3c70afec358c1ba426d42d56fc7a",
        "gas": "0x104a6",
        "value": "0x0",
        "input": "0x3400288b00000000000000000000000000000000000000000000000000000000000075e80000000000000000000000002773280bbaea3c70afec358c1ba426d42d56fc7a",
        "nonce": "0xd0",
        "chainId": "0x2105"
      },
      "additionalContracts": [],
      "isFixedGasLimit": false
    },
    {
      "hash": "0x8d15410db245dac3ec3540c5a7d074ac8c207df24741260452de2d569f21d068",
      "transactionType": "CALL",
      "contractName": null,
      "contractAddress": "0x2773280bbaea3c70afec358c1ba426d42d56fc7a",
      "function": "setPeer(uint32,bytes32)",
      "arguments": [
        "30150",
        "0x000000000000000000000000b0e96105543cba4b3d82911e7336f19bd03b0360"
      ],
      "transaction": {
        "from": "0x0ece75f3c36f7df2136dac7633165dbff53de3cd",
        "to": "0x2773280bbaea3c70afec358c1ba426d42d56fc7a",
        "gas": "0x104a6",
        "value": "0x0",
        "input": "0x3400288b00000000000000000000000000000000000000000000000000000000000075c6000000000000000000000000b0e96105543cba4b3d82911e7336f19bd03b0360",
        "nonce": "0xd1",
        "chainId": "0x2105"
      },
      "additionalContracts": [],
      "isFixedGasLimit": false
    }
  ],
  "receipts": [
    {
      "status": "0x1",
      "cumulativeGasUsed": "0x20e86d1",
      "logs": [
        {
          "address": "0x3a1353926e2c1ada7acc93a6fbe73c1ec6b1e931",
          "topics": [
            "0x238399d427b947898edb290f5ff0f9109849b1c3ba196a42e35f00c50a54b98b"
          ],
          "data": "0x00000000000000000000000000000000000000000000000000000000000075e80000000000000000000000003a1353926e2c1ada7acc93a6fbe73c1ec6b1e931",
          "blockHash": "0xc9f2f06cf94d745ee5420ec8355ed85b09d765c895d4ec10cd8ac64b2a3198f7",
          "blockNumber": "0x220b14a",
          "blockTimestamp": "0x68cbbf77",
          "transactionHash": "0x6d3f33ec813754f50238611c3028bb3ec67ffb8d1ea0e5a6720ab6f25be38fd8",
          "transactionIndex": "0xc9",
          "logIndex": "0x26a",
          "removed": false
        }
      ],
      "logsBloom": "0x00000000000000000000000000000000000000000000000000000000000000000000000000000000000000000000000000000000000000000800000000000000000000000000000000000000000000000000000000000000000000000000000000000000000000000000000000000000000000000000000000000000000000000000000000000000000000000000000000000000000000000000000002000000000000000000000000000000000000000000000000000000000002000001000000000000000000000000000000000000000000000000000000040000000000000000000000000000000000000001000000000000000000000000000000000000",
      "type": "0x2",
      "transactionHash": "0x6d3f33ec813754f50238611c3028bb3ec67ffb8d1ea0e5a6720ab6f25be38fd8",
      "transactionIndex": "0xc9",
      "blockHash": "0xc9f2f06cf94d745ee5420ec8355ed85b09d765c895d4ec10cd8ac64b2a3198f7",
      "blockNumber": "0x220b14a",
      "gasUsed": "0xbc73",
      "effectiveGasPrice": "0x32adbe",
      "from": "0x0ece75f3c36f7df2136dac7633165dbff53de3cd",
      "to": "0x3a1353926e2c1ada7acc93a6fbe73c1ec6b1e931",
      "contractAddress": null,
      "l1BaseFeeScalar": "0x8dd",
      "l1BlobBaseFee": "0x1",
      "l1BlobBaseFeeScalar": "0x101c12",
      "l1Fee": "0x404e5f94",
      "l1GasPrice": "0x11b696c6",
      "l1GasUsed": "0x640"
    },
    {
      "status": "0x1",
      "cumulativeGasUsed": "0x20f4344",
      "logs": [
        {
          "address": "0x3a1353926e2c1ada7acc93a6fbe73c1ec6b1e931",
          "topics": [
            "0x238399d427b947898edb290f5ff0f9109849b1c3ba196a42e35f00c50a54b98b"
          ],
          "data": "0x00000000000000000000000000000000000000000000000000000000000075c60000000000000000000000006d68a52bc77f2eac3582a7072ead94c19b9f480c",
          "blockHash": "0xc9f2f06cf94d745ee5420ec8355ed85b09d765c895d4ec10cd8ac64b2a3198f7",
          "blockNumber": "0x220b14a",
          "blockTimestamp": "0x68cbbf77",
          "transactionHash": "0x9c943ec5b4d00c2ed3911165e2e6fe9491f2fd59521f6e4bfd47843902312fc0",
          "transactionIndex": "0xca",
          "logIndex": "0x26b",
          "removed": false
        }
      ],
      "logsBloom": "0x00000000000000000000000000000000000000000000000000000000000000000000000000000000000000000000000000000000000000000800000000000000000000000000000000000000000000000000000000000000000000000000000000000000000000000000000000000000000000000000000000000000000000000000000000000000000000000000000000000000000000000000000002000000000000000000000000000000000000000000000000000000000002000001000000000000000000000000000000000000000000000000000000040000000000000000000000000000000000000001000000000000000000000000000000000000",
      "type": "0x2",
      "transactionHash": "0x9c943ec5b4d00c2ed3911165e2e6fe9491f2fd59521f6e4bfd47843902312fc0",
      "transactionIndex": "0xca",
      "blockHash": "0xc9f2f06cf94d745ee5420ec8355ed85b09d765c895d4ec10cd8ac64b2a3198f7",
      "blockNumber": "0x220b14a",
      "gasUsed": "0xbc73",
      "effectiveGasPrice": "0x32adbe",
      "from": "0x0ece75f3c36f7df2136dac7633165dbff53de3cd",
      "to": "0x3a1353926e2c1ada7acc93a6fbe73c1ec6b1e931",
      "contractAddress": null,
      "l1BaseFeeScalar": "0x8dd",
      "l1BlobBaseFee": "0x1",
      "l1BlobBaseFeeScalar": "0x101c12",
      "l1Fee": "0x404e5f94",
      "l1GasPrice": "0x11b696c6",
      "l1GasUsed": "0x640"
    },
    {
      "status": "0x1",
      "cumulativeGasUsed": "0x20fffb7",
      "logs": [
        {
          "address": "0xdc4ce404c1caa4b618847d93941d6cca09744e1e",
          "topics": [
            "0x238399d427b947898edb290f5ff0f9109849b1c3ba196a42e35f00c50a54b98b"
          ],
          "data": "0x00000000000000000000000000000000000000000000000000000000000075e8000000000000000000000000dc4ce404c1caa4b618847d93941d6cca09744e1e",
          "blockHash": "0xc9f2f06cf94d745ee5420ec8355ed85b09d765c895d4ec10cd8ac64b2a3198f7",
          "blockNumber": "0x220b14a",
          "blockTimestamp": "0x68cbbf77",
          "transactionHash": "0x0aa273ab911ce2fd5bdfcab3ef60c7c4944cc9fe1a43484de46d8541c1786f7f",
          "transactionIndex": "0xcb",
          "logIndex": "0x26c",
          "removed": false
        }
      ],
      "logsBloom": "0x00000000000000000000000000000000000800000000000000000000000000000000000000000000000000000000000000000000000000000800000000000000000000000000000000000000000008000000000000008000000000000000000000000000000000000000000000000000000000000000000000000000000000000000000000000000000000000000000000000000000000000000000000000000000000000000000000000000000000000000000000000000000002000000000000000000000000000000000000000000000000000000000000040000000000000000000000000000000000000000000000000000000000000000000000000000",
      "type": "0x2",
      "transactionHash": "0x0aa273ab911ce2fd5bdfcab3ef60c7c4944cc9fe1a43484de46d8541c1786f7f",
      "transactionIndex": "0xcb",
      "blockHash": "0xc9f2f06cf94d745ee5420ec8355ed85b09d765c895d4ec10cd8ac64b2a3198f7",
      "blockNumber": "0x220b14a",
      "gasUsed": "0xbc73",
      "effectiveGasPrice": "0x32adbe",
      "from": "0x0ece75f3c36f7df2136dac7633165dbff53de3cd",
      "to": "0xdc4ce404c1caa4b618847d93941d6cca09744e1e",
      "contractAddress": null,
      "l1BaseFeeScalar": "0x8dd",
      "l1BlobBaseFee": "0x1",
      "l1BlobBaseFeeScalar": "0x101c12",
      "l1Fee": "0x404e5f94",
      "l1GasPrice": "0x11b696c6",
      "l1GasUsed": "0x640"
    },
    {
      "status": "0x1",
      "cumulativeGasUsed": "0x210bc2a",
      "logs": [
        {
          "address": "0xdc4ce404c1caa4b618847d93941d6cca09744e1e",
          "topics": [
            "0x238399d427b947898edb290f5ff0f9109849b1c3ba196a42e35f00c50a54b98b"
          ],
          "data": "0x00000000000000000000000000000000000000000000000000000000000075c60000000000000000000000005ddbbc68527214e0aca3b4175860080cbdaa12ff",
          "blockHash": "0xc9f2f06cf94d745ee5420ec8355ed85b09d765c895d4ec10cd8ac64b2a3198f7",
          "blockNumber": "0x220b14a",
          "blockTimestamp": "0x68cbbf77",
          "transactionHash": "0x3b8f0761da75ae553756c11bad4a52e22779ad510de9aabb681af41d1cfbee8b",
          "transactionIndex": "0xcc",
          "logIndex": "0x26d",
          "removed": false
        }
      ],
      "logsBloom": "0x00000000000000000000000000000000000800000000000000000000000000000000000000000000000000000000000000000000000000000800000000000000000000000000000000000000000008000000000000008000000000000000000000000000000000000000000000000000000000000000000000000000000000000000000000000000000000000000000000000000000000000000000000000000000000000000000000000000000000000000000000000000000002000000000000000000000000000000000000000000000000000000000000040000000000000000000000000000000000000000000000000000000000000000000000000000",
      "type": "0x2",
      "transactionHash": "0x3b8f0761da75ae553756c11bad4a52e22779ad510de9aabb681af41d1cfbee8b",
      "transactionIndex": "0xcc",
      "blockHash": "0xc9f2f06cf94d745ee5420ec8355ed85b09d765c895d4ec10cd8ac64b2a3198f7",
      "blockNumber": "0x220b14a",
      "gasUsed": "0xbc73",
      "effectiveGasPrice": "0x32adbe",
      "from": "0x0ece75f3c36f7df2136dac7633165dbff53de3cd",
      "to": "0xdc4ce404c1caa4b618847d93941d6cca09744e1e",
      "contractAddress": null,
      "l1BaseFeeScalar": "0x8dd",
      "l1BlobBaseFee": "0x1",
      "l1BlobBaseFeeScalar": "0x101c12",
      "l1Fee": "0x404e5f94",
      "l1GasPrice": "0x11b696c6",
      "l1GasUsed": "0x640"
    },
    {
      "status": "0x1",
      "cumulativeGasUsed": "0x21178df",
      "logs": [
        {
          "address": "0x249a1d049ce9c68c818eb5afc53359f547c176a4",
          "topics": [
            "0x238399d427b947898edb290f5ff0f9109849b1c3ba196a42e35f00c50a54b98b"
          ],
          "data": "0x00000000000000000000000000000000000000000000000000000000000075e8000000000000000000000000249a1d049ce9c68c818eb5afc53359f547c176a4",
          "blockHash": "0xc9f2f06cf94d745ee5420ec8355ed85b09d765c895d4ec10cd8ac64b2a3198f7",
          "blockNumber": "0x220b14a",
          "blockTimestamp": "0x68cbbf77",
          "transactionHash": "0xc5ab5cabc80d56f9528fc151a48935cbc7f41afd99497b3dca012e95fd25ab0f",
          "transactionIndex": "0xcd",
          "logIndex": "0x26e",
          "removed": false
        }
      ],
      "logsBloom": "0x00000000000000000000000000000000000000000000000000020000000000000000000000000000000000000000000000000000000000000808000000000000000000000000000000000000000000000000000000000000000000000000000000000000000000000000000000000000000000000000000000000000000000000000000000000000000000000000000000000000000000000000000000000000000000000000000000000000000000000000000000001000000002000000000000000000000000000000000000000000000000000000000000040000000000000000000000000000000000000000000000000000000000000000000000000000",
      "type": "0x2",
      "transactionHash": "0xc5ab5cabc80d56f9528fc151a48935cbc7f41afd99497b3dca012e95fd25ab0f",
      "transactionIndex": "0xcd",
      "blockHash": "0xc9f2f06cf94d745ee5420ec8355ed85b09d765c895d4ec10cd8ac64b2a3198f7",
      "blockNumber": "0x220b14a",
      "gasUsed": "0xbcb5",
      "effectiveGasPrice": "0x32adbe",
      "from": "0x0ece75f3c36f7df2136dac7633165dbff53de3cd",
      "to": "0x249a1d049ce9c68c818eb5afc53359f547c176a4",
      "contractAddress": null,
      "l1BaseFeeScalar": "0x8dd",
      "l1BlobBaseFee": "0x1",
      "l1BlobBaseFeeScalar": "0x101c12",
      "l1Fee": "0x404e5f94",
      "l1GasPrice": "0x11b696c6",
      "l1GasUsed": "0x640"
    },
    {
      "status": "0x1",
      "cumulativeGasUsed": "0x2123594",
      "logs": [
        {
          "address": "0x249a1d049ce9c68c818eb5afc53359f547c176a4",
          "topics": [
            "0x238399d427b947898edb290f5ff0f9109849b1c3ba196a42e35f00c50a54b98b"
          ],
          "data": "0x00000000000000000000000000000000000000000000000000000000000075c6000000000000000000000000fe5138a42dc1fc335455b505e036784a33f7f102",
          "blockHash": "0xc9f2f06cf94d745ee5420ec8355ed85b09d765c895d4ec10cd8ac64b2a3198f7",
          "blockNumber": "0x220b14a",
          "blockTimestamp": "0x68cbbf77",
          "transactionHash": "0x16b037bff486d2a73e0b26b52a11b36dad992a1ec06b065a34707c89649ebdc5",
          "transactionIndex": "0xce",
          "logIndex": "0x26f",
          "removed": false
        }
      ],
      "logsBloom": "0x00000000000000000000000000000000000000000000000000020000000000000000000000000000000000000000000000000000000000000808000000000000000000000000000000000000000000000000000000000000000000000000000000000000000000000000000000000000000000000000000000000000000000000000000000000000000000000000000000000000000000000000000000000000000000000000000000000000000000000000000000001000000002000000000000000000000000000000000000000000000000000000000000040000000000000000000000000000000000000000000000000000000000000000000000000000",
      "type": "0x2",
      "transactionHash": "0x16b037bff486d2a73e0b26b52a11b36dad992a1ec06b065a34707c89649ebdc5",
      "transactionIndex": "0xce",
      "blockHash": "0xc9f2f06cf94d745ee5420ec8355ed85b09d765c895d4ec10cd8ac64b2a3198f7",
      "blockNumber": "0x220b14a",
      "gasUsed": "0xbcb5",
      "effectiveGasPrice": "0x32adbe",
      "from": "0x0ece75f3c36f7df2136dac7633165dbff53de3cd",
      "to": "0x249a1d049ce9c68c818eb5afc53359f547c176a4",
      "contractAddress": null,
      "l1BaseFeeScalar": "0x8dd",
      "l1BlobBaseFee": "0x1",
      "l1BlobBaseFeeScalar": "0x101c12",
      "l1Fee": "0x404e5f94",
      "l1GasPrice": "0x11b696c6",
      "l1GasUsed": "0x640"
    },
    {
      "status": "0x1",
      "cumulativeGasUsed": "0x212f249",
      "logs": [
        {
          "address": "0x2773280bbaea3c70afec358c1ba426d42d56fc7a",
          "topics": [
            "0x238399d427b947898edb290f5ff0f9109849b1c3ba196a42e35f00c50a54b98b"
          ],
          "data": "0x00000000000000000000000000000000000000000000000000000000000075e80000000000000000000000002773280bbaea3c70afec358c1ba426d42d56fc7a",
          "blockHash": "0xc9f2f06cf94d745ee5420ec8355ed85b09d765c895d4ec10cd8ac64b2a3198f7",
          "blockNumber": "0x220b14a",
          "blockTimestamp": "0x68cbbf77",
          "transactionHash": "0xdb4065135ee3407fcf1d901cda7601a68a5e881b1a6ef293010097563702aed0",
          "transactionIndex": "0xcf",
          "logIndex": "0x270",
          "removed": false
        }
      ],
      "logsBloom": "0x00000000000000800000000000000000000000000000000000000000000000000000000000000000000000000000000000000000080000000800000000000000000000000000000000000000000000000000000000000000000000000000000000000000000000000000000000000000000000000000000000000000000000000000000000000000000000000000000000000000000000000000000000000000000000004000000000000000000000000000000000000000000002000000000000000000000000000000000000000000000000000000000000040000000000000000000000000000000000000000000000000000000000000000000000000000",
      "type": "0x2",
      "transactionHash": "0xdb4065135ee3407fcf1d901cda7601a68a5e881b1a6ef293010097563702aed0",
      "transactionIndex": "0xcf",
      "blockHash": "0xc9f2f06cf94d745ee5420ec8355ed85b09d765c895d4ec10cd8ac64b2a3198f7",
      "blockNumber": "0x220b14a",
      "gasUsed": "0xbcb5",
      "effectiveGasPrice": "0x32adbe",
      "from": "0x0ece75f3c36f7df2136dac7633165dbff53de3cd",
      "to": "0x2773280bbaea3c70afec358c1ba426d42d56fc7a",
      "contractAddress": null,
      "l1BaseFeeScalar": "0x8dd",
      "l1BlobBaseFee": "0x1",
      "l1BlobBaseFeeScalar": "0x101c12",
      "l1Fee": "0x404e5f94",
      "l1GasPrice": "0x11b696c6",
      "l1GasUsed": "0x640"
    },
    {
      "status": "0x1",
      "cumulativeGasUsed": "0x25b6f61",
      "logs": [
        {
          "address": "0x2773280bbaea3c70afec358c1ba426d42d56fc7a",
          "topics": [
            "0x238399d427b947898edb290f5ff0f9109849b1c3ba196a42e35f00c50a54b98b"
          ],
          "data": "0x00000000000000000000000000000000000000000000000000000000000075c6000000000000000000000000b0e96105543cba4b3d82911e7336f19bd03b0360",
          "blockHash": "0x5fb3dbdc0af946014a14d4020db5324b92ba399300c027c2741c30af46959277",
          "blockNumber": "0x220b14a",
          "blockTimestamp": "0x68cbbf77",
          "transactionHash": "0x8d15410db245dac3ec3540c5a7d074ac8c207df24741260452de2d569f21d068",
          "transactionIndex": "0xf2",
          "logIndex": "0x2c9",
          "removed": false
        }
      ],
      "logsBloom": "0x00000000000000800000000000000000000000000000000000000000000000000000000000000000000000000000000000000000080000000800000000000000000000000000000000000000000000000000000000000000000000000000000000000000000000000000000000000000000000000000000000000000000000000000000000000000000000000000000000000000000000000000000000000000000000004000000000000000000000000000000000000000000002000000000000000000000000000000000000000000000000000000000000040000000000000000000000000000000000000000000000000000000000000000000000000000",
      "type": "0x2",
      "transactionHash": "0x8d15410db245dac3ec3540c5a7d074ac8c207df24741260452de2d569f21d068",
      "transactionIndex": "0xf2",
      "blockHash": "0x5fb3dbdc0af946014a14d4020db5324b92ba399300c027c2741c30af46959277",
      "blockNumber": "0x220b14a",
      "gasUsed": "0xbcb5",
      "effectiveGasPrice": "0x32adbe",
      "from": "0x0ece75f3c36f7df2136dac7633165dbff53de3cd",
      "to": "0x2773280bbaea3c70afec358c1ba426d42d56fc7a",
      "contractAddress": null,
      "l1BaseFeeScalar": "0x8dd",
      "l1BlobBaseFee": "0x1",
      "l1BlobBaseFeeScalar": "0x101c12",
      "l1Fee": "0x404e5f94",
      "l1GasPrice": "0x11b696c6",
      "l1GasUsed": "0x640"
    }
  ],
  "libraries": [],
  "pending": [],
  "returns": {},
  "timestamp": 1758183287163,
  "chain": 8453,
  "commit": "6c82bda"
}