{
  "transactions": [
    {
      "hash": "0xc47c4bc762aa99b3e7572022c9fae26851119d266813727fa68a36702f2b2b81",
      "transactionType": "CALL",
      "contractName": null,
      "contractAddress": "0xad063b1915bf95fb32f79138c0b668f232676333",
      "function": "setPeer(uint32,bytes32)",
      "arguments": [
        "30184",
        "0x000000000000000000000000ad063b1915bf95fb32f79138c0b668f232676333"
      ],
      "transaction": {
        "from": "0x0ece75f3c36f7df2136dac7633165dbff53de3cd",
        "to": "0xad063b1915bf95fb32f79138c0b668f232676333",
        "gas": "0x9965",
        "value": "0x0",
        "input": "0x3400288b00000000000000000000000000000000000000000000000000000000000075e8000000000000000000000000ad063b1915bf95fb32f79138c0b668f232676333",
        "nonce": "0x156",
        "chainId": "0x2105"
      },
      "additionalContracts": [],
      "isFixedGasLimit": false
    },
    {
      "hash": "0xaf9d27ad11eceb79296a77313e32a4d5575e2af1d335a3788a5771f06f8508b6",
      "transactionType": "CALL",
      "contractName": null,
      "contractAddress": "0xad063b1915bf95fb32f79138c0b668f232676333",
      "function": "setPeer(uint32,bytes32)",
      "arguments": [
        "30150",
        "0x0000000000000000000000006d68a52bc77f2eac3582a7072ead94c19b9f480c"
      ],
      "transaction": {
        "from": "0x0ece75f3c36f7df2136dac7633165dbff53de3cd",
        "to": "0xad063b1915bf95fb32f79138c0b668f232676333",
        "gas": "0x9965",
        "value": "0x0",
        "input": "0x3400288b00000000000000000000000000000000000000000000000000000000000075c60000000000000000000000006d68a52bc77f2eac3582a7072ead94c19b9f480c",
        "nonce": "0x157",
        "chainId": "0x2105"
      },
      "additionalContracts": [],
      "isFixedGasLimit": false
    }
  ],
  "receipts": [
    {
      "status": "0x1",
      "cumulativeGasUsed": "0x2a05536",
      "logs": [
        {
          "address": "0xad063b1915bf95fb32f79138c0b668f232676333",
          "topics": [
            "0x238399d427b947898edb290f5ff0f9109849b1c3ba196a42e35f00c50a54b98b"
          ],
          "data": "0x00000000000000000000000000000000000000000000000000000000000075e8000000000000000000000000ad063b1915bf95fb32f79138c0b668f232676333",
          "blockHash": "0x1bd249236d753560a60d7f2fdfe09f48d11cd537e39767457c59b587970f7af5",
          "blockNumber": "0x2217382",
          "blockTimestamp": "0x68cd43e7",
          "transactionHash": "0xc47c4bc762aa99b3e7572022c9fae26851119d266813727fa68a36702f2b2b81",
          "transactionIndex": "0xfa",
          "logIndex": "0x1d6",
          "removed": false
        }
      ],
      "logsBloom": "0x00000000000000000000000000000000000000000000000000000000000000000000000000000000000000000000000000000000000000000800000000000000000000000000000000000000000000000000000000000000000000000000000000000000000000000000000000000000000000000000000000000004000000000004000000000000000000000000000000000000000000000000000000000000000000000000000000000000000000000000000000000000000002000000000000000000000040000000000000000000000000000000000000040000000000000000000000000000000000000000000000000000000000000000000000000000",
      "type": "0x2",
      "transactionHash": "0xc47c4bc762aa99b3e7572022c9fae26851119d266813727fa68a36702f2b2b81",
      "transactionIndex": "0xfa",
      "blockHash": "0x1bd249236d753560a60d7f2fdfe09f48d11cd537e39767457c59b587970f7af5",
      "blockNumber": "0x2217382",
      "gasUsed": "0x6f0f",
      "effectiveGasPrice": "0x39decb",
      "from": "0x0ece75f3c36f7df2136dac7633165dbff53de3cd",
      "to": "0xad063b1915bf95fb32f79138c0b668f232676333",
      "contractAddress": null,
      "l1BaseFeeScalar": "0x8dd",
      "l1BlobBaseFee": "0x1",
      "l1BlobBaseFeeScalar": "0x101c12",
      "l1Fee": "0x4d85579d",
      "l1GasPrice": "0x155a6f02",
      "l1GasUsed": "0x640"
    },
    {
      "status": "0x1",
      "cumulativeGasUsed": "0x2a0c445",
      "logs": [
        {
          "address": "0xad063b1915bf95fb32f79138c0b668f232676333",
          "topics": [
            "0x238399d427b947898edb290f5ff0f9109849b1c3ba196a42e35f00c50a54b98b"
          ],
          "data": "0x00000000000000000000000000000000000000000000000000000000000075c60000000000000000000000006d68a52bc77f2eac3582a7072ead94c19b9f480c",
          "blockHash": "0x1bd249236d753560a60d7f2fdfe09f48d11cd537e39767457c59b587970f7af5",
          "blockNumber": "0x2217382",
          "blockTimestamp": "0x68cd43e7",
          "transactionHash": "0xaf9d27ad11eceb79296a77313e32a4d5575e2af1d335a3788a5771f06f8508b6",
          "transactionIndex": "0xfb",
          "logIndex": "0x1d7",
          "removed": false
        }
      ],
      "logsBloom": "0x00000000000000000000000000000000000000000000000000000000000000000000000000000000000000000000000000000000000000000800000000000000000000000000000000000000000000000000000000000000000000000000000000000000000000000000000000000000000000000000000000000004000000000004000000000000000000000000000000000000000000000000000000000000000000000000000000000000000000000000000000000000000002000000000000000000000040000000000000000000000000000000000000040000000000000000000000000000000000000000000000000000000000000000000000000000",
      "type": "0x2",
      "transactionHash": "0xaf9d27ad11eceb79296a77313e32a4d5575e2af1d335a3788a5771f06f8508b6",
      "transactionIndex": "0xfb",
      "blockHash": "0x1bd249236d753560a60d7f2fdfe09f48d11cd537e39767457c59b587970f7af5",
      "blockNumber": "0x2217382",
      "gasUsed": "0x6f0f",
      "effectiveGasPrice": "0x39decb",
      "from": "0x0ece75f3c36f7df2136dac7633165dbff53de3cd",
      "to": "0xad063b1915bf95fb32f79138c0b668f232676333",
      "contractAddress": null,
      "l1BaseFeeScalar": "0x8dd",
      "l1BlobBaseFee": "0x1",
      "l1BlobBaseFeeScalar": "0x101c12",
      "l1Fee": "0x4d85579d",
      "l1GasPrice": "0x155a6f02",
      "l1GasUsed": "0x640"
    }
  ],
  "libraries": [],
  "pending": [],
  "returns": {},
  "timestamp": 1758282727360,
  "chain": 8453,
  "commit": "6c82bda"
}