{
  "transactions": [
    {
      "hash": "0x040507f60bc237018daadf567a570f77d0bcdf766fb351217c48bf617523edb4",
      "transactionType": "CALL",
      "contractName": null,
      "contractAddress": "0xad063b1915bf95fb32f79138c0b668f232676333",
      "function": "setPeer(uint32,bytes32)",
      "arguments": [
        "30184",
        "0x000000000000000000000000ad063b1915bf95fb32f79138c0b668f232676333"
      ],
      "transaction": {
        "from": "0x0ece75f3c36f7df2136dac7633165dbff53de3cd",
        "to": "0xad063b1915bf95fb32f79138c0b668f232676333",
        "gas": "0x9965",
        "value": "0x0",
        "input": "0x3400288b00000000000000000000000000000000000000000000000000000000000075e8000000000000000000000000ad063b1915bf95fb32f79138c0b668f232676333",
        "nonce": "0x107",
        "chainId": "0x2105"
      },
      "additionalContracts": [],
      "isFixedGasLimit": false
    },
    {
      "hash": "0xa38cc5c7ad5c614983e3d7809b692377cd74e732e711948ac9efce00a3143388",
      "transactionType": "CALL",
      "contractName": null,
      "contractAddress": "0xad063b1915bf95fb32f79138c0b668f232676333",
      "function": "setPeer(uint32,bytes32)",
      "arguments": [
        "30150",
        "0x0000000000000000000000006d68a52bc77f2eac3582a7072ead94c19b9f480c"
      ],
      "transaction": {
        "from": "0x0ece75f3c36f7df2136dac7633165dbff53de3cd",
        "to": "0xad063b1915bf95fb32f79138c0b668f232676333",
        "gas": "0x9965",
        "value": "0x0",
        "input": "0x3400288b00000000000000000000000000000000000000000000000000000000000075c60000000000000000000000006d68a52bc77f2eac3582a7072ead94c19b9f480c",
        "nonce": "0x108",
        "chainId": "0x2105"
      },
      "additionalContracts": [],
      "isFixedGasLimit": false
    },
    {
      "hash": "0x14f3e6c95ee0a2213130340079b425c987b7fbba6acc86362bf0b50aa3f9675d",
      "transactionType": "CALL",
      "contractName": null,
      "contractAddress": "0xb83e44f1d59bd8743ae45816acd5622fa1a5624d",
      "function": "setPeer(uint32,bytes32)",
      "arguments": [
        "30184",
        "0x000000000000000000000000b83e44f1d59bd8743ae45816acd5622fa1a5624d"
      ],
      "transaction": {
        "from": "0x0ece75f3c36f7df2136dac7633165dbff53de3cd",
        "to": "0xb83e44f1d59bd8743ae45816acd5622fa1a5624d",
        "gas": "0x9965",
        "value": "0x0",
        "input": "0x3400288b00000000000000000000000000000000000000000000000000000000000075e8000000000000000000000000b83e44f1d59bd8743ae45816acd5622fa1a5624d",
        "nonce": "0x109",
        "chainId": "0x2105"
      },
      "additionalContracts": [],
      "isFixedGasLimit": false
    },
    {
      "hash": "0x08b686742ab7b38f9b250edcdb52221a6f1fcbe47a46b3ad46d83172b956bbd9",
      "transactionType": "CALL",
      "contractName": null,
      "contractAddress": "0xb83e44f1d59bd8743ae45816acd5622fa1a5624d",
      "function": "setPeer(uint32,bytes32)",
      "arguments": [
        "30150",
        "0x0000000000000000000000005ddbbc68527214e0aca3b4175860080cbdaa12ff"
      ],
      "transaction": {
        "from": "0x0ece75f3c36f7df2136dac7633165dbff53de3cd",
        "to": "0xb83e44f1d59bd8743ae45816acd5622fa1a5624d",
        "gas": "0x9965",
        "value": "0x0",
        "input": "0x3400288b00000000000000000000000000000000000000000000000000000000000075c60000000000000000000000005ddbbc68527214e0aca3b4175860080cbdaa12ff",
        "nonce": "0x10a",
        "chainId": "0x2105"
      },
      "additionalContracts": [],
      "isFixedGasLimit": false
    },
    {
      "hash": "0x43361a2a8713c7a05d054f952442dd028810454a66727671d45a5cd8d5386e06",
      "transactionType": "CALL",
      "contractName": null,
      "contractAddress": "0x1effdcf81a95398920e024bb3b9ff60ce14590e7",
      "function": "setPeer(uint32,bytes32)",
      "arguments": [
        "30184",
        "0x0000000000000000000000001effdcf81a95398920e024bb3b9ff60ce14590e7"
      ],
      "transaction": {
        "from": "0x0ece75f3c36f7df2136dac7633165dbff53de3cd",
        "to": "0x1effdcf81a95398920e024bb3b9ff60ce14590e7",
        "gas": "0x9965",
        "value": "0x0",
        "input": "0x3400288b00000000000000000000000000000000000000000000000000000000000075e80000000000000000000000001effdcf81a95398920e024bb3b9ff60ce14590e7",
        "nonce": "0x10b",
        "chainId": "0x2105"
      },
      "additionalContracts": [],
      "isFixedGasLimit": false
    },
    {
      "hash": "0x71d2b2117911b6c829da9035e7b56d35108bab257716212ef5fb181700276af9",
      "transactionType": "CALL",
      "contractName": null,
      "contractAddress": "0x1effdcf81a95398920e024bb3b9ff60ce14590e7",
      "function": "setPeer(uint32,bytes32)",
      "arguments": [
        "30150",
        "0x000000000000000000000000fe5138a42dc1fc335455b505e036784a33f7f102"
      ],
      "transaction": {
        "from": "0x0ece75f3c36f7df2136dac7633165dbff53de3cd",
        "to": "0x1effdcf81a95398920e024bb3b9ff60ce14590e7",
        "gas": "0x9965",
        "value": "0x0",
        "input": "0x3400288b00000000000000000000000000000000000000000000000000000000000075c6000000000000000000000000fe5138a42dc1fc335455b505e036784a33f7f102",
        "nonce": "0x10c",
        "chainId": "0x2105"
      },
      "additionalContracts": [],
      "isFixedGasLimit": false
    },
    {
      "hash": "0x321ae80ec99c4d6056def4e4af4cd04b164ff51010e85b1f4a902ba59dca4ecb",
      "transactionType": "CALL",
      "contractName": null,
      "contractAddress": "0x6c71b7bbde382f12165d5f7749b5fd37965b1e8a",
      "function": "setPeer(uint32,bytes32)",
      "arguments": [
        "30184",
        "0x0000000000000000000000006c71b7bbde382f12165d5f7749b5fd37965b1e8a"
      ],
      "transaction": {
        "from": "0x0ece75f3c36f7df2136dac7633165dbff53de3cd",
        "to": "0x6c71b7bbde382f12165d5f7749b5fd37965b1e8a",
        "gas": "0x9965",
        "value": "0x0",
        "input": "0x3400288b00000000000000000000000000000000000000000000000000000000000075e80000000000000000000000006c71b7bbde382f12165d5f7749b5fd37965b1e8a",
        "nonce": "0x10d",
        "chainId": "0x2105"
      },
      "additionalContracts": [],
      "isFixedGasLimit": false
    },
    {
      "hash": "0x2a55e9722f2d9db62d687c00445f27b403959896e3aa1bc301198cb9009d1bc5",
      "transactionType": "CALL",
      "contractName": null,
      "contractAddress": "0x6c71b7bbde382f12165d5f7749b5fd37965b1e8a",
      "function": "setPeer(uint32,bytes32)",
      "arguments": [
        "30150",
        "0x000000000000000000000000b0e96105543cba4b3d82911e7336f19bd03b0360"
      ],
      "transaction": {
        "from": "0x0ece75f3c36f7df2136dac7633165dbff53de3cd",
        "to": "0x6c71b7bbde382f12165d5f7749b5fd37965b1e8a",
        "gas": "0x9965",
        "value": "0x0",
        "input": "0x3400288b00000000000000000000000000000000000000000000000000000000000075c6000000000000000000000000b0e96105543cba4b3d82911e7336f19bd03b0360",
        "nonce": "0x10e",
        "chainId": "0x2105"
      },
      "additionalContracts": [],
      "isFixedGasLimit": false
    }
  ],
  "receipts": [
    {
      "status": "0x1",
      "cumulativeGasUsed": "0x27a2ef5",
      "logs": [
        {
          "address": "0xad063b1915bf95fb32f79138c0b668f232676333",
          "topics": [
            "0x238399d427b947898edb290f5ff0f9109849b1c3ba196a42e35f00c50a54b98b"
          ],
          "data": "0x00000000000000000000000000000000000000000000000000000000000075e8000000000000000000000000ad063b1915bf95fb32f79138c0b668f232676333",
          "blockHash": "0xf01a670c02aa700c48b65686f2ec6feb20701d79bd2fec8aee7af637eb381489",
          "blockNumber": "0x220f423",
          "blockTimestamp": "0x68cc4529",
          "transactionHash": "0x040507f60bc237018daadf567a570f77d0bcdf766fb351217c48bf617523edb4",
          "transactionIndex": "0xe5",
          "logIndex": "0x29f",
          "removed": false
        }
      ],
      "logsBloom": "0x00000000000000000000000000000000000000000000000000000000000000000000000000000000000000000000000000000000000000000800000000000000000000000000000000000000000000000000000000000000000000000000000000000000000000000000000000000000000000000000000000000004000000000004000000000000000000000000000000000000000000000000000000000000000000000000000000000000000000000000000000000000000002000000000000000000000040000000000000000000000000000000000000040000000000000000000000000000000000000000000000000000000000000000000000000000",
      "type": "0x2",
      "transactionHash": "0x040507f60bc237018daadf567a570f77d0bcdf766fb351217c48bf617523edb4",
      "transactionIndex": "0xe5",
      "blockHash": "0xf01a670c02aa700c48b65686f2ec6feb20701d79bd2fec8aee7af637eb381489",
      "blockNumber": "0x220f423",
      "gasUsed": "0x6f0f",
      "effectiveGasPrice": "0x54c094",
      "from": "0x0ece75f3c36f7df2136dac7633165dbff53de3cd",
      "to": "0xad063b1915bf95fb32f79138c0b668f232676333",
      "contractAddress": null,
      "l1BaseFeeScalar": "0x8dd",
      "l1BlobBaseFee": "0x1",
      "l1BlobBaseFeeScalar": "0x101c12",
      "l1Fee": "0x2964df04e",
      "l1GasPrice": "0xb66ed349",
      "l1GasUsed": "0x640"
    },
    {
      "status": "0x1",
      "cumulativeGasUsed": "0x27a9e04",
      "logs": [
        {
          "address": "0xad063b1915bf95fb32f79138c0b668f232676333",
          "topics": [
            "0x238399d427b947898edb290f5ff0f9109849b1c3ba196a42e35f00c50a54b98b"
          ],
          "data": "0x00000000000000000000000000000000000000000000000000000000000075c60000000000000000000000006d68a52bc77f2eac3582a7072ead94c19b9f480c",
          "blockHash": "0xf01a670c02aa700c48b65686f2ec6feb20701d79bd2fec8aee7af637eb381489",
          "blockNumber": "0x220f423",
          "blockTimestamp": "0x68cc4529",
          "transactionHash": "0xa38cc5c7ad5c614983e3d7809b692377cd74e732e711948ac9efce00a3143388",
          "transactionIndex": "0xe6",
          "logIndex": "0x2a0",
          "removed": false
        }
      ],
      "logsBloom": "0x00000000000000000000000000000000000000000000000000000000000000000000000000000000000000000000000000000000000000000800000000000000000000000000000000000000000000000000000000000000000000000000000000000000000000000000000000000000000000000000000000000004000000000004000000000000000000000000000000000000000000000000000000000000000000000000000000000000000000000000000000000000000002000000000000000000000040000000000000000000000000000000000000040000000000000000000000000000000000000000000000000000000000000000000000000000",
      "type": "0x2",
      "transactionHash": "0xa38cc5c7ad5c614983e3d7809b692377cd74e732e711948ac9efce00a3143388",
      "transactionIndex": "0xe6",
      "blockHash": "0xf01a670c02aa700c48b65686f2ec6feb20701d79bd2fec8aee7af637eb381489",
      "blockNumber": "0x220f423",
      "gasUsed": "0x6f0f",
      "effectiveGasPrice": "0x54c094",
      "from": "0x0ece75f3c36f7df2136dac7633165dbff53de3cd",
      "to": "0xad063b1915bf95fb32f79138c0b668f232676333",
      "contractAddress": null,
      "l1BaseFeeScalar": "0x8dd",
      "l1BlobBaseFee": "0x1",
      "l1BlobBaseFeeScalar": "0x101c12",
      "l1Fee": "0x2964df04e",
      "l1GasPrice": "0xb66ed349",
      "l1GasUsed": "0x640"
    },
    {
      "status": "0x1",
      "cumulativeGasUsed": "0x27b0d13",
      "logs": [
        {
          "address": "0xb83e44f1d59bd8743ae45816acd5622fa1a5624d",
          "topics": [
            "0x238399d427b947898edb290f5ff0f9109849b1c3ba196a42e35f00c50a54b98b"
          ],
          "data": "0x00000000000000000000000000000000000000000000000000000000000075e8000000000000000000000000b83e44f1d59bd8743ae45816acd5622fa1a5624d",
          "blockHash": "0xf01a670c02aa700c48b65686f2ec6feb20701d79bd2fec8aee7af637eb381489",
          "blockNumber": "0x220f423",
          "blockTimestamp": "0x68cc4529",
          "transactionHash": "0x14f3e6c95ee0a2213130340079b425c987b7fbba6acc86362bf0b50aa3f9675d",
          "transactionIndex": "0xe7",
          "logIndex": "0x2a1",
          "removed": false
        }
      ],
      "logsBloom": "0x00000000000000000200000000000000000000000000000000000000000000000000000000000000000000000000000000000000000000000800000000010000000000000000000000000000000000000000000000000000000000000000000000000000000000000000000000000000000000000000000000000000000000000000000000000000000000000000000000000000000000000000000000000000000000000000000000000000000000000000000000000000000002000000000000000000000000000000000000000000000000000000000000040000000000002000000000000000000000000000000000000000000000000000000000000000",
      "type": "0x2",
      "transactionHash": "0x14f3e6c95ee0a2213130340079b425c987b7fbba6acc86362bf0b50aa3f9675d",
      "transactionIndex": "0xe7",
      "blockHash": "0xf01a670c02aa700c48b65686f2ec6feb20701d79bd2fec8aee7af637eb381489",
      "blockNumber": "0x220f423",
      "gasUsed": "0x6f0f",
      "effectiveGasPrice": "0x54c094",
      "from": "0x0ece75f3c36f7df2136dac7633165dbff53de3cd",
      "to": "0xb83e44f1d59bd8743ae45816acd5622fa1a5624d",
      "contractAddress": null,
      "l1BaseFeeScalar": "0x8dd",
      "l1BlobBaseFee": "0x1",
      "l1BlobBaseFeeScalar": "0x101c12",
      "l1Fee": "0x2964df04e",
      "l1GasPrice": "0xb66ed349",
      "l1GasUsed": "0x640"
    },
    {
      "status": "0x1",
      "cumulativeGasUsed": "0x27b7c22",
      "logs": [
        {
          "address": "0xb83e44f1d59bd8743ae45816acd5622fa1a5624d",
          "topics": [
            "0x238399d427b947898edb290f5ff0f9109849b1c3ba196a42e35f00c50a54b98b"
          ],
          "data": "0x00000000000000000000000000000000000000000000000000000000000075c60000000000000000000000005ddbbc68527214e0aca3b4175860080cbdaa12ff",
          "blockHash": "0xf01a670c02aa700c48b65686f2ec6feb20701d79bd2fec8aee7af637eb381489",
          "blockNumber": "0x220f423",
          "blockTimestamp": "0x68cc4529",
          "transactionHash": "0x08b686742ab7b38f9b250edcdb52221a6f1fcbe47a46b3ad46d83172b956bbd9",
          "transactionIndex": "0xe8",
          "logIndex": "0x2a2",
          "removed": false
        }
      ],
      "logsBloom": "0x00000000000000000200000000000000000000000000000000000000000000000000000000000000000000000000000000000000000000000800000000010000000000000000000000000000000000000000000000000000000000000000000000000000000000000000000000000000000000000000000000000000000000000000000000000000000000000000000000000000000000000000000000000000000000000000000000000000000000000000000000000000000002000000000000000000000000000000000000000000000000000000000000040000000000002000000000000000000000000000000000000000000000000000000000000000",
      "type": "0x2",
      "transactionHash": "0x08b686742ab7b38f9b250edcdb52221a6f1fcbe47a46b3ad46d83172b956bbd9",
      "transactionIndex": "0xe8",
      "blockHash": "0xf01a670c02aa700c48b65686f2ec6feb20701d79bd2fec8aee7af637eb381489",
      "blockNumber": "0x220f423",
      "gasUsed": "0x6f0f",
      "effectiveGasPrice": "0x54c094",
      "from": "0x0ece75f3c36f7df2136dac7633165dbff53de3cd",
      "to": "0xb83e44f1d59bd8743ae45816acd5622fa1a5624d",
      "contractAddress": null,
      "l1BaseFeeScalar": "0x8dd",
      "l1BlobBaseFee": "0x1",
      "l1BlobBaseFeeScalar": "0x101c12",
      "l1Fee": "0x2964df04e",
      "l1GasPrice": "0xb66ed349",
      "l1GasUsed": "0x640"
    },
    {
      "status": "0x1",
      "cumulativeGasUsed": "0x27beb31",
      "logs": [
        {
          "address": "0x1effdcf81a95398920e024bb3b9ff60ce14590e7",
          "topics": [
            "0x238399d427b947898edb290f5ff0f9109849b1c3ba196a42e35f00c50a54b98b"
          ],
          "data": "0x00000000000000000000000000000000000000000000000000000000000075e80000000000000000000000001effdcf81a95398920e024bb3b9ff60ce14590e7",
          "blockHash": "0xf01a670c02aa700c48b65686f2ec6feb20701d79bd2fec8aee7af637eb381489",
          "blockNumber": "0x220f423",
          "blockTimestamp": "0x68cc4529",
          "transactionHash": "0x43361a2a8713c7a05d054f952442dd028810454a66727671d45a5cd8d5386e06",
          "transactionIndex": "0xe9",
          "logIndex": "0x2a3",
          "removed": false
        }
      ],
      "logsBloom": "0x00000000000000000000000000000000000000000000000000000000000000000000000000000000000000000000000000000000000000000800000000000000000040000000000000000000000000000000000000000000000000000000000000000000000000000000000000000000000000000000000800000000000000000000000000000000000000000000000000000000000000000000000000000000000000000000000000000000000000000000000000000000000002000000000000000000000000000000000000000000000000000000000000040000000000800000000000000000000000000000000000000000000000000000000000000000",
      "type": "0x2",
      "transactionHash": "0x43361a2a8713c7a05d054f952442dd028810454a66727671d45a5cd8d5386e06",
      "transactionIndex": "0xe9",
      "blockHash": "0xf01a670c02aa700c48b65686f2ec6feb20701d79bd2fec8aee7af637eb381489",
      "blockNumber": "0x220f423",
      "gasUsed": "0x6f0f",
      "effectiveGasPrice": "0x54c094",
      "from": "0x0ece75f3c36f7df2136dac7633165dbff53de3cd",
      "to": "0x1effdcf81a95398920e024bb3b9ff60ce14590e7",
      "contractAddress": null,
      "l1BaseFeeScalar": "0x8dd",
      "l1BlobBaseFee": "0x1",
      "l1BlobBaseFeeScalar": "0x101c12",
      "l1Fee": "0x2964df04e",
      "l1GasPrice": "0xb66ed349",
      "l1GasUsed": "0x640"
    },
    {
      "status": "0x1",
      "cumulativeGasUsed": "0x27c5a40",
      "logs": [
        {
          "address": "0x1effdcf81a95398920e024bb3b9ff60ce14590e7",
          "topics": [
            "0x238399d427b947898edb290f5ff0f9109849b1c3ba196a42e35f00c50a54b98b"
          ],
          "data": "0x00000000000000000000000000000000000000000000000000000000000075c6000000000000000000000000fe5138a42dc1fc335455b505e036784a33f7f102",
          "blockHash": "0xf01a670c02aa700c48b65686f2ec6feb20701d79bd2fec8aee7af637eb381489",
          "blockNumber": "0x220f423",
          "blockTimestamp": "0x68cc4529",
          "transactionHash": "0x71d2b2117911b6c829da9035e7b56d35108bab257716212ef5fb181700276af9",
          "transactionIndex": "0xea",
          "logIndex": "0x2a4",
          "removed": false
        }
      ],
      "logsBloom": "0x00000000000000000000000000000000000000000000000000000000000000000000000000000000000000000000000000000000000000000800000000000000000040000000000000000000000000000000000000000000000000000000000000000000000000000000000000000000000000000000000800000000000000000000000000000000000000000000000000000000000000000000000000000000000000000000000000000000000000000000000000000000000002000000000000000000000000000000000000000000000000000000000000040000000000800000000000000000000000000000000000000000000000000000000000000000",
      "type": "0x2",
      "transactionHash": "0x71d2b2117911b6c829da9035e7b56d35108bab257716212ef5fb181700276af9",
      "transactionIndex": "0xea",
      "blockHash": "0xf01a670c02aa700c48b65686f2ec6feb20701d79bd2fec8aee7af637eb381489",
      "blockNumber": "0x220f423",
      "gasUsed": "0x6f0f",
      "effectiveGasPrice": "0x54c094",
      "from": "0x0ece75f3c36f7df2136dac7633165dbff53de3cd",
      "to": "0x1effdcf81a95398920e024bb3b9ff60ce14590e7",
      "contractAddress": null,
      "l1BaseFeeScalar": "0x8dd",
      "l1BlobBaseFee": "0x1",
      "l1BlobBaseFeeScalar": "0x101c12",
      "l1Fee": "0x2964df04e",
      "l1GasPrice": "0xb66ed349",
      "l1GasUsed": "0x640"
    },
    {
      "status": "0x1",
      "cumulativeGasUsed": "0x27dafa6",
      "logs": [
        {
          "address": "0x6c71b7bbde382f12165d5f7749b5fd37965b1e8a",
          "topics": [
            "0x238399d427b947898edb290f5ff0f9109849b1c3ba196a42e35f00c50a54b98b"
          ],
          "data": "0x00000000000000000000000000000000000000000000000000000000000075e80000000000000000000000006c71b7bbde382f12165d5f7749b5fd37965b1e8a",
          "blockHash": "0xf01a670c02aa700c48b65686f2ec6feb20701d79bd2fec8aee7af637eb381489",
          "blockNumber": "0x220f423",
          "blockTimestamp": "0x68cc4529",
          "transactionHash": "0x321ae80ec99c4d6056def4e4af4cd04b164ff51010e85b1f4a902ba59dca4ecb",
          "transactionIndex": "0xec",
          "logIndex": "0x2a6",
          "removed": false
        }
      ],
      "logsBloom": "0x00000000000000000000000000000000000000000000000000000000000000000000000000040000000000000000000000000000000000000800000000000000000000000000000000000000000000000000000000000000000000000000000000000000000000000000000000000000000000000000000000000000000000000000000000100000000000000000000000000000000000000000000000000000000000000000000000000000000000000000000000000000000002000000000000000000000000000000000000000000080000000000000000040000000000000000000000000000000000000000000000000000000000000000000000000000",
      "type": "0x2",
      "transactionHash": "0x321ae80ec99c4d6056def4e4af4cd04b164ff51010e85b1f4a902ba59dca4ecb",
      "transactionIndex": "0xec",
      "blockHash": "0xf01a670c02aa700c48b65686f2ec6feb20701d79bd2fec8aee7af637eb381489",
      "blockNumber": "0x220f423",
      "gasUsed": "0x6f0f",
      "effectiveGasPrice": "0x54c094",
      "from": "0x0ece75f3c36f7df2136dac7633165dbff53de3cd",
      "to": "0x6c71b7bbde382f12165d5f7749b5fd37965b1e8a",
      "contractAddress": null,
      "l1BaseFeeScalar": "0x8dd",
      "l1BlobBaseFee": "0x1",
      "l1BlobBaseFeeScalar": "0x101c12",
      "l1Fee": "0x2964df04e",
      "l1GasPrice": "0xb66ed349",
      "l1GasUsed": "0x640"
    },
    {
      "status": "0x1",
      "cumulativeGasUsed": "0x30e34ac",
      "logs": [
        {
          "address": "0x6c71b7bbde382f12165d5f7749b5fd37965b1e8a",
          "topics": [
            "0x238399d427b947898edb290f5ff0f9109849b1c3ba196a42e35f00c50a54b98b"
          ],
          "data": "0x00000000000000000000000000000000000000000000000000000000000075c6000000000000000000000000b0e96105543cba4b3d82911e7336f19bd03b0360",
          "blockHash": "0xf01a670c02aa700c48b65686f2ec6feb20701d79bd2fec8aee7af637eb381489",
          "blockNumber": "0x220f423",
          "blockTimestamp": "0x68cc4529",
          "transactionHash": "0x2a55e9722f2d9db62d687c00445f27b403959896e3aa1bc301198cb9009d1bc5",
          "transactionIndex": "0x115",
          "logIndex": "0x325",
          "removed": false
        }
      ],
      "logsBloom": "0x00000000000000000000000000000000000000000000000000000000000000000000000000040000000000000000000000000000000000000800000000000000000000000000000000000000000000000000000000000000000000000000000000000000000000000000000000000000000000000000000000000000000000000000000000100000000000000000000000000000000000000000000000000000000000000000000000000000000000000000000000000000000002000000000000000000000000000000000000000000080000000000000000040000000000000000000000000000000000000000000000000000000000000000000000000000",
      "type": "0x2",
      "transactionHash": "0x2a55e9722f2d9db62d687c00445f27b403959896e3aa1bc301198cb9009d1bc5",
      "transactionIndex": "0x115",
      "blockHash": "0xf01a670c02aa700c48b65686f2ec6feb20701d79bd2fec8aee7af637eb381489",
      "blockNumber": "0x220f423",
      "gasUsed": "0x6f0f",
      "effectiveGasPrice": "0x54c094",
      "from": "0x0ece75f3c36f7df2136dac7633165dbff53de3cd",
      "to": "0x6c71b7bbde382f12165d5f7749b5fd37965b1e8a",
      "contractAddress": null,
      "l1BaseFeeScalar": "0x8dd",
      "l1BlobBaseFee": "0x1",
      "l1BlobBaseFeeScalar": "0x101c12",
      "l1Fee": "0x2964df04e",
      "l1GasPrice": "0xb66ed349",
      "l1GasUsed": "0x640"
    }
  ],
  "libraries": [],
  "pending": [],
  "returns": {},
  "timestamp": 1758217512784,
  "chain": 8453,
  "commit": "6c82bda"
}