{
  "transactions": [
    {
      "hash": "0xe08bdca967944f7fa386434aa80d00f0ded6dcd724462296bc46823d744fbf7f",
      "transactionType": "CALL",
      "contractName": null,
      "contractAddress": "0x5e6aad48fb0a23e9540a5eaffb87846e8ef04c42",
      "function": "setPeer(uint32,bytes32)",
      "arguments": [
        "30184",
        "0x0000000000000000000000005e6aad48fb0a23e9540a5eaffb87846e8ef04c42"
      ],
      "transaction": {
        "from": "0x0ece75f3c36f7df2136dac7633165dbff53de3cd",
        "to": "0x5e6aad48fb0a23e9540a5eaffb87846e8ef04c42",
        "gas": "0x104a6",
        "value": "0x0",
        "input": "0x3400288b00000000000000000000000000000000000000000000000000000000000075e80000000000000000000000005e6aad48fb0a23e9540a5eaffb87846e8ef04c42",
        "nonce": "0x55",
        "chainId": "0x2105"
      },
      "additionalContracts": [],
      "isFixedGasLimit": false
    },
    {
      "hash": "0xb9ccb2a3358ced5c512a79c6ccbd03e160d1322a56af86a92e8f6537dbf6f8bf",
      "transactionType": "CALL",
      "contractName": null,
      "contractAddress": "0x5e6aad48fb0a23e9540a5eaffb87846e8ef04c42",
      "function": "setPeer(uint32,bytes32)",
      "arguments": [
        "30150",
        "0x000000000000000000000000df05e9abf64da281b3cbd8ac3581022ec4841fb2"
      ],
      "transaction": {
        "from": "0x0ece75f3c36f7df2136dac7633165dbff53de3cd",
        "to": "0x5e6aad48fb0a23e9540a5eaffb87846e8ef04c42",
        "gas": "0x104a6",
        "value": "0x0",
        "input": "0x3400288b00000000000000000000000000000000000000000000000000000000000075c6000000000000000000000000df05e9abf64da281b3cbd8ac3581022ec4841fb2",
        "nonce": "0x56",
        "chainId": "0x2105"
      },
      "additionalContracts": [],
      "isFixedGasLimit": false
    },
    {
      "hash": "0x5beb7f282dd5ee208670e58cef7e841e526ef8b739c70bc650c505efc75a5de5",
      "transactionType": "CALL",
      "contractName": null,
      "contractAddress": "0xb9b3a1baa8cf4c5cd6b4d132ed7b0cbe05646f6f",
      "function": "setPeer(uint32,bytes32)",
      "arguments": [
        "30184",
        "0x000000000000000000000000b9b3a1baa8cf4c5cd6b4d132ed7b0cbe05646f6f"
      ],
      "transaction": {
        "from": "0x0ece75f3c36f7df2136dac7633165dbff53de3cd",
        "to": "0xb9b3a1baa8cf4c5cd6b4d132ed7b0cbe05646f6f",
        "gas": "0x104a6",
        "value": "0x0",
        "input": "0x3400288b00000000000000000000000000000000000000000000000000000000000075e8000000000000000000000000b9b3a1baa8cf4c5cd6b4d132ed7b0cbe05646f6f",
        "nonce": "0x57",
        "chainId": "0x2105"
      },
      "additionalContracts": [],
      "isFixedGasLimit": false
    },
    {
      "hash": "0x255a057aa458d4204d89cf80af3882b29199d96983f73f06a8149448054c2883",
      "transactionType": "CALL",
      "contractName": null,
      "contractAddress": "0xb9b3a1baa8cf4c5cd6b4d132ed7b0cbe05646f6f",
      "function": "setPeer(uint32,bytes32)",
      "arguments": [
        "30150",
        "0x00000000000000000000000015858a57854bbf0df60a737811d50e1ee785f9bc"
      ],
      "transaction": {
        "from": "0x0ece75f3c36f7df2136dac7633165dbff53de3cd",
        "to": "0xb9b3a1baa8cf4c5cd6b4d132ed7b0cbe05646f6f",
        "gas": "0x104a6",
        "value": "0x0",
        "input": "0x3400288b00000000000000000000000000000000000000000000000000000000000075c600000000000000000000000015858a57854bbf0df60a737811d50e1ee785f9bc",
        "nonce": "0x58",
        "chainId": "0x2105"
      },
      "additionalContracts": [],
      "isFixedGasLimit": false
    },
    {
      "hash": "0x5bc2798bf354774b275918573c3b2ce84c40a31f0cd3507828eefd136b0f1496",
      "transactionType": "CALL",
      "contractName": null,
      "contractAddress": "0xb0fca55167f94d0f515877c411e0deb904321761",
      "function": "setPeer(uint32,bytes32)",
      "arguments": [
        "30184",
        "0x000000000000000000000000b0fca55167f94d0f515877c411e0deb904321761"
      ],
      "transaction": {
        "from": "0x0ece75f3c36f7df2136dac7633165dbff53de3cd",
        "to": "0xb0fca55167f94d0f515877c411e0deb904321761",
        "gas": "0x104a6",
        "value": "0x0",
        "input": "0x3400288b00000000000000000000000000000000000000000000000000000000000075e8000000000000000000000000b0fca55167f94d0f515877c411e0deb904321761",
        "nonce": "0x59",
        "chainId": "0x2105"
      },
      "additionalContracts": [],
      "isFixedGasLimit": false
    },
    {
      "hash": "0x51cf464ff25c80d1b2aeb0177b8aefc614600a860050013bf639b62b8992a813",
      "transactionType": "CALL",
      "contractName": null,
      "contractAddress": "0xb0fca55167f94d0f515877c411e0deb904321761",
      "function": "setPeer(uint32,bytes32)",
      "arguments": [
        "30150",
        "0x0000000000000000000000004ba8d8083e7f3652ccb084c32652e68566e9ef23"
      ],
      "transaction": {
        "from": "0x0ece75f3c36f7df2136dac7633165dbff53de3cd",
        "to": "0xb0fca55167f94d0f515877c411e0deb904321761",
        "gas": "0x104a6",
        "value": "0x0",
        "input": "0x3400288b00000000000000000000000000000000000000000000000000000000000075c60000000000000000000000004ba8d8083e7f3652ccb084c32652e68566e9ef23",
        "nonce": "0x5a",
        "chainId": "0x2105"
      },
      "additionalContracts": [],
      "isFixedGasLimit": false
    },
    {
      "hash": "0xeb93df7ec507707a0ed6b0f8bf9c0dff9bc7c73e78392a03a9bd15c72bc2ff02",
      "transactionType": "CALL",
      "contractName": null,
      "contractAddress": "0x6a58615739b0fc710e6a380e893e672968e30b5f",
      "function": "setPeer(uint32,bytes32)",
      "arguments": [
        "30184",
        "0x0000000000000000000000006a58615739b0fc710e6a380e893e672968e30b5f"
      ],
      "transaction": {
        "from": "0x0ece75f3c36f7df2136dac7633165dbff53de3cd",
        "to": "0x6a58615739b0fc710e6a380e893e672968e30b5f",
        "gas": "0x104a6",
        "value": "0x0",
        "input": "0x3400288b00000000000000000000000000000000000000000000000000000000000075e80000000000000000000000006a58615739b0fc710e6a380e893e672968e30b5f",
        "nonce": "0x5b",
        "chainId": "0x2105"
      },
      "additionalContracts": [],
      "isFixedGasLimit": false
    },
    {
      "hash": "0x669f323a957f6d19092b784ba5c6bba58e2f908f3a7a9769296f441bfbdaca1b",
      "transactionType": "CALL",
      "contractName": null,
      "contractAddress": "0x6a58615739b0fc710e6a380e893e672968e30b5f",
      "function": "setPeer(uint32,bytes32)",
      "arguments": [
        "30150",
        "0x000000000000000000000000007f735fd070ded4b0b58d430c392ff0190ec20f"
      ],
      "transaction": {
        "from": "0x0ece75f3c36f7df2136dac7633165dbff53de3cd",
        "to": "0x6a58615739b0fc710e6a380e893e672968e30b5f",
        "gas": "0x113ea",
        "value": "0x0",
        "input": "0x3400288b00000000000000000000000000000000000000000000000000000000000075c6000000000000000000000000007f735fd070ded4b0b58d430c392ff0190ec20f",
        "nonce": "0x5c",
        "chainId": "0x2105"
      },
      "additionalContracts": [],
      "isFixedGasLimit": false
    }
  ],
  "receipts": [
    {
      "status": "0x1",
      "cumulativeGasUsed": "0xb6b84d",
      "logs": [
        {
          "address": "0x5e6aad48fb0a23e9540a5eaffb87846e8ef04c42",
          "topics": [
            "0x238399d427b947898edb290f5ff0f9109849b1c3ba196a42e35f00c50a54b98b"
          ],
          "data": "0x00000000000000000000000000000000000000000000000000000000000075e80000000000000000000000005e6aad48fb0a23e9540a5eaffb87846e8ef04c42",
          "blockHash": "0x19779abfd2f12ae9fcbbd0233bfebd71e3908cae602c8e5014bb9f8028392fe2",
          "blockNumber": "0x21da90d",
          "blockTimestamp": "0x68c5aefd",
          "transactionHash": "0xe08bdca967944f7fa386434aa80d00f0ded6dcd724462296bc46823d744fbf7f",
          "transactionIndex": "0x4d",
          "logIndex": "0xc7",
          "removed": false
        }
      ],
      "logsBloom": "0x00000000000000000000000000000000000000000000000000000000000000000000000000000000000000000000000000000000000000000800000000000000000000000000000000000000000000000000000000000000000200000000000000000000000000000000000000000000000000000000000000000040000000000000000000000000000000000000000000000000000000000000000000000000000000000000000000000000000000000000000000000000000002000000000000000000000000000000000000000000000000000000000000040000000020000000000000000000000000000000000000000000000000000000000000000000",
      "type": "0x2",
      "transactionHash": "0xe08bdca967944f7fa386434aa80d00f0ded6dcd724462296bc46823d744fbf7f",
      "transactionIndex": "0x4d",
      "blockHash": "0x19779abfd2f12ae9fcbbd0233bfebd71e3908cae602c8e5014bb9f8028392fe2",
      "blockNumber": "0x21da90d",
      "gasUsed": "0xbcb5",
      "effectiveGasPrice": "0x4854aa",
      "from": "0x0ece75f3c36f7df2136dac7633165dbff53de3cd",
      "to": "0x5e6aad48fb0a23e9540a5eaffb87846e8ef04c42",
      "contractAddress": null,
      "l1BaseFeeScalar": "0x8dd",
      "l1BlobBaseFee": "0x1",
      "l1BlobBaseFeeScalar": "0x101c12",
      "l1Fee": "0x2d5e3e02",
      "l1GasPrice": "0xc7f29ad",
      "l1GasUsed": "0x640"
    },
    {
      "status": "0x1",
      "cumulativeGasUsed": "0xcbd7db",
      "logs": [
        {
          "address": "0x5e6aad48fb0a23e9540a5eaffb87846e8ef04c42",
          "topics": [
            "0x238399d427b947898edb290f5ff0f9109849b1c3ba196a42e35f00c50a54b98b"
          ],
          "data": "0x00000000000000000000000000000000000000000000000000000000000075c6000000000000000000000000df05e9abf64da281b3cbd8ac3581022ec4841fb2",
          "blockHash": "0x19779abfd2f12ae9fcbbd0233bfebd71e3908cae602c8e5014bb9f8028392fe2",
          "blockNumber": "0x21da90d",
          "blockTimestamp": "0x68c5aefd",
          "transactionHash": "0xb9ccb2a3358ced5c512a79c6ccbd03e160d1322a56af86a92e8f6537dbf6f8bf",
          "transactionIndex": "0x57",
          "logIndex": "0xce",
          "removed": false
        }
      ],
      "logsBloom": "0x00000000000000000000000000000000000000000000000000000000000000000000000000000000000000000000000000000000000000000800000000000000000000000000000000000000000000000000000000000000000200000000000000000000000000000000000000000000000000000000000000000040000000000000000000000000000000000000000000000000000000000000000000000000000000000000000000000000000000000000000000000000000002000000000000000000000000000000000000000000000000000000000000040000000020000000000000000000000000000000000000000000000000000000000000000000",
      "type": "0x2",
      "transactionHash": "0xb9ccb2a3358ced5c512a79c6ccbd03e160d1322a56af86a92e8f6537dbf6f8bf",
      "transactionIndex": "0x57",
      "blockHash": "0x19779abfd2f12ae9fcbbd0233bfebd71e3908cae602c8e5014bb9f8028392fe2",
      "blockNumber": "0x21da90d",
      "gasUsed": "0xbcb5",
      "effectiveGasPrice": "0x4854aa",
      "from": "0x0ece75f3c36f7df2136dac7633165dbff53de3cd",
      "to": "0x5e6aad48fb0a23e9540a5eaffb87846e8ef04c42",
      "contractAddress": null,
      "l1BaseFeeScalar": "0x8dd",
      "l1BlobBaseFee": "0x1",
      "l1BlobBaseFeeScalar": "0x101c12",
      "l1Fee": "0x2d5e3e02",
      "l1GasPrice": "0xc7f29ad",
      "l1GasUsed": "0x640"
    },
    {
      "status": "0x1",
      "cumulativeGasUsed": "0xcc9490",
      "logs": [
        {
          "address": "0xb9b3a1baa8cf4c5cd6b4d132ed7b0cbe05646f6f",
          "topics": [
            "0x238399d427b947898edb290f5ff0f9109849b1c3ba196a42e35f00c50a54b98b"
          ],
          "data": "0x00000000000000000000000000000000000000000000000000000000000075e8000000000000000000000000b9b3a1baa8cf4c5cd6b4d132ed7b0cbe05646f6f",
          "blockHash": "0x19779abfd2f12ae9fcbbd0233bfebd71e3908cae602c8e5014bb9f8028392fe2",
          "blockNumber": "0x21da90d",
          "blockTimestamp": "0x68c5aefd",
          "transactionHash": "0x5beb7f282dd5ee208670e58cef7e841e526ef8b739c70bc650c505efc75a5de5",
          "transactionIndex": "0x58",
          "logIndex": "0xcf",
          "removed": false
        }
      ],
      "logsBloom": "0x00000000000000000000000000000000000000000000000000000000000000000000000000000000000000000000000000000000000000000800000000000000000000000000000000000000000000000000000000000000000000000000000000000000000000000000000000000000000100000000000000000000000000000000000000000000000000000000000000000000000000000000000000000000000000000000000000000000000000000000000000000000000002000000000000000000000000000000800000000000000000000000000000040000000000000000000000002000000000000000000000000000000000000000000000000000",
      "type": "0x2",
      "transactionHash": "0x5beb7f282dd5ee208670e58cef7e841e526ef8b739c70bc650c505efc75a5de5",
      "transactionIndex": "0x58",
      "blockHash": "0x19779abfd2f12ae9fcbbd0233bfebd71e3908cae602c8e5014bb9f8028392fe2",
      "blockNumber": "0x21da90d",
      "gasUsed": "0xbcb5",
      "effectiveGasPrice": "0x4854aa",
      "from": "0x0ece75f3c36f7df2136dac7633165dbff53de3cd",
      "to": "0xb9b3a1baa8cf4c5cd6b4d132ed7b0cbe05646f6f",
      "contractAddress": null,
      "l1BaseFeeScalar": "0x8dd",
      "l1BlobBaseFee": "0x1",
      "l1BlobBaseFeeScalar": "0x101c12",
      "l1Fee": "0x2d5e3e02",
      "l1GasPrice": "0xc7f29ad",
      "l1GasUsed": "0x640"
    },
    {
      "status": "0x1",
      "cumulativeGasUsed": "0xcd5145",
      "logs": [
        {
          "address": "0xb9b3a1baa8cf4c5cd6b4d132ed7b0cbe05646f6f",
          "topics": [
            "0x238399d427b947898edb290f5ff0f9109849b1c3ba196a42e35f00c50a54b98b"
          ],
          "data": "0x00000000000000000000000000000000000000000000000000000000000075c600000000000000000000000015858a57854bbf0df60a737811d50e1ee785f9bc",
          "blockHash": "0x19779abfd2f12ae9fcbbd0233bfebd71e3908cae602c8e5014bb9f8028392fe2",
          "blockNumber": "0x21da90d",
          "blockTimestamp": "0x68c5aefd",
          "transactionHash": "0x255a057aa458d4204d89cf80af3882b29199d96983f73f06a8149448054c2883",
          "transactionIndex": "0x59",
          "logIndex": "0xd0",
          "removed": false
        }
      ],
      "logsBloom": "0x00000000000000000000000000000000000000000000000000000000000000000000000000000000000000000000000000000000000000000800000000000000000000000000000000000000000000000000000000000000000000000000000000000000000000000000000000000000000100000000000000000000000000000000000000000000000000000000000000000000000000000000000000000000000000000000000000000000000000000000000000000000000002000000000000000000000000000000800000000000000000000000000000040000000000000000000000002000000000000000000000000000000000000000000000000000",
      "type": "0x2",
      "transactionHash": "0x255a057aa458d4204d89cf80af3882b29199d96983f73f06a8149448054c2883",
      "transactionIndex": "0x59",
      "blockHash": "0x19779abfd2f12ae9fcbbd0233bfebd71e3908cae602c8e5014bb9f8028392fe2",
      "blockNumber": "0x21da90d",
      "gasUsed": "0xbcb5",
      "effectiveGasPrice": "0x4854aa",
      "from": "0x0ece75f3c36f7df2136dac7633165dbff53de3cd",
      "to": "0xb9b3a1baa8cf4c5cd6b4d132ed7b0cbe05646f6f",
      "contractAddress": null,
      "l1BaseFeeScalar": "0x8dd",
      "l1BlobBaseFee": "0x1",
      "l1BlobBaseFeeScalar": "0x101c12",
      "l1Fee": "0x2d5e3e02",
      "l1GasPrice": "0xc7f29ad",
      "l1GasUsed": "0x640"
    },
    {
      "status": "0x1",
      "cumulativeGasUsed": "0xce0dfa",
      "logs": [
        {
          "address": "0xb0fca55167f94d0f515877c411e0deb904321761",
          "topics": [
            "0x238399d427b947898edb290f5ff0f9109849b1c3ba196a42e35f00c50a54b98b"
          ],
          "data": "0x00000000000000000000000000000000000000000000000000000000000075e8000000000000000000000000b0fca55167f94d0f515877c411e0deb904321761",
          "blockHash": "0x19779abfd2f12ae9fcbbd0233bfebd71e3908cae602c8e5014bb9f8028392fe2",
          "blockNumber": "0x21da90d",
          "blockTimestamp": "0x68c5aefd",
          "transactionHash": "0x5bc2798bf354774b275918573c3b2ce84c40a31f0cd3507828eefd136b0f1496",
          "transactionIndex": "0x5a",
          "logIndex": "0xd1",
          "removed": false
        }
      ],
      "logsBloom": "0x00000000000000000000000000000000040000000000000000000000000000000000000000000000000000000000000000000000000000000800000000000000000000000000000000000000000002000000000000000000000000000000000000000000000000000000000000000000000000000000000000000000000000000000000000000000000000000000000000000000000000000000000000000000000000000000000000000000000000000000000000000000000002000000000000000000000000000000000000000000000000000000000000040000000000000000000040000000000000000000000000000000000000000000000000000000",
      "type": "0x2",
      "transactionHash": "0x5bc2798bf354774b275918573c3b2ce84c40a31f0cd3507828eefd136b0f1496",
      "transactionIndex": "0x5a",
      "blockHash": "0x19779abfd2f12ae9fcbbd0233bfebd71e3908cae602c8e5014bb9f8028392fe2",
      "blockNumber": "0x21da90d",
      "gasUsed": "0xbcb5",
      "effectiveGasPrice": "0x4854aa",
      "from": "0x0ece75f3c36f7df2136dac7633165dbff53de3cd",
      "to": "0xb0fca55167f94d0f515877c411e0deb904321761",
      "contractAddress": null,
      "l1BaseFeeScalar": "0x8dd",
      "l1BlobBaseFee": "0x1",
      "l1BlobBaseFeeScalar": "0x101c12",
      "l1Fee": "0x2d5e3e02",
      "l1GasPrice": "0xc7f29ad",
      "l1GasUsed": "0x640"
    },
    {
      "status": "0x1",
      "cumulativeGasUsed": "0xcecaaf",
      "logs": [
        {
          "address": "0xb0fca55167f94d0f515877c411e0deb904321761",
          "topics": [
            "0x238399d427b947898edb290f5ff0f9109849b1c3ba196a42e35f00c50a54b98b"
          ],
          "data": "0x00000000000000000000000000000000000000000000000000000000000075c60000000000000000000000004ba8d8083e7f3652ccb084c32652e68566e9ef23",
          "blockHash": "0x19779abfd2f12ae9fcbbd0233bfebd71e3908cae602c8e5014bb9f8028392fe2",
          "blockNumber": "0x21da90d",
          "blockTimestamp": "0x68c5aefd",
          "transactionHash": "0x51cf464ff25c80d1b2aeb0177b8aefc614600a860050013bf639b62b8992a813",
          "transactionIndex": "0x5b",
          "logIndex": "0xd2",
          "removed": false
        }
      ],
      "logsBloom": "0x00000000000000000000000000000000040000000000000000000000000000000000000000000000000000000000000000000000000000000800000000000000000000000000000000000000000002000000000000000000000000000000000000000000000000000000000000000000000000000000000000000000000000000000000000000000000000000000000000000000000000000000000000000000000000000000000000000000000000000000000000000000000002000000000000000000000000000000000000000000000000000000000000040000000000000000000040000000000000000000000000000000000000000000000000000000",
      "type": "0x2",
      "transactionHash": "0x51cf464ff25c80d1b2aeb0177b8aefc614600a860050013bf639b62b8992a813",
      "transactionIndex": "0x5b",
      "blockHash": "0x19779abfd2f12ae9fcbbd0233bfebd71e3908cae602c8e5014bb9f8028392fe2",
      "blockNumber": "0x21da90d",
      "gasUsed": "0xbcb5",
      "effectiveGasPrice": "0x4854aa",
      "from": "0x0ece75f3c36f7df2136dac7633165dbff53de3cd",
      "to": "0xb0fca55167f94d0f515877c411e0deb904321761",
      "contractAddress": null,
      "l1BaseFeeScalar": "0x8dd",
      "l1BlobBaseFee": "0x1",
      "l1BlobBaseFeeScalar": "0x101c12",
      "l1Fee": "0x2d5e3e02",
      "l1GasPrice": "0xc7f29ad",
      "l1GasUsed": "0x640"
    },
    {
      "status": "0x1",
      "cumulativeGasUsed": "0xcf8764",
      "logs": [
        {
          "address": "0x6a58615739b0fc710e6a380e893e672968e30b5f",
          "topics": [
            "0x238399d427b947898edb290f5ff0f9109849b1c3ba196a42e35f00c50a54b98b"
          ],
          "data": "0x00000000000000000000000000000000000000000000000000000000000075e80000000000000000000000006a58615739b0fc710e6a380e893e672968e30b5f",
          "blockHash": "0x19779abfd2f12ae9fcbbd0233bfebd71e3908cae602c8e5014bb9f8028392fe2",
          "blockNumber": "0x21da90d",
          "blockTimestamp": "0x68c5aefd",
          "transactionHash": "0xeb93df7ec507707a0ed6b0f8bf9c0dff9bc7c73e78392a03a9bd15c72bc2ff02",
          "transactionIndex": "0x5c",
          "logIndex": "0xd3",
          "removed": false
        }
      ],
      "logsBloom": "0x00000000000000000000000000000000000000000000000000000000000000000000000000000000000000000000000000000000000000000800000000000000000000000000000000000000000000000000000000000000000000000000000000000000000000000000000000000000000000000000000000000000000000000000000000000000000000000000000020000000000000000000000000000000000000000000000000000000000000000000000000000000000002000000000000000000000000000000000000000000000000000000000000040000004000000000000000000000000000000000000000000000000000400000000000000000",
      "type": "0x2",
      "transactionHash": "0xeb93df7ec507707a0ed6b0f8bf9c0dff9bc7c73e78392a03a9bd15c72bc2ff02",
      "transactionIndex": "0x5c",
      "blockHash": "0x19779abfd2f12ae9fcbbd0233bfebd71e3908cae602c8e5014bb9f8028392fe2",
      "blockNumber": "0x21da90d",
      "gasUsed": "0xbcb5",
      "effectiveGasPrice": "0x4854aa",
      "from": "0x0ece75f3c36f7df2136dac7633165dbff53de3cd",
      "to": "0x6a58615739b0fc710e6a380e893e672968e30b5f",
      "contractAddress": null,
      "l1BaseFeeScalar": "0x8dd",
      "l1BlobBaseFee": "0x1",
      "l1BlobBaseFeeScalar": "0x101c12",
      "l1Fee": "0x2d5e3e02",
      "l1GasPrice": "0xc7f29ad",
      "l1GasUsed": "0x640"
    },
    {
      "status": "0x1",
      "cumulativeGasUsed": "0xf055b3",
      "logs": [
        {
          "address": "0x6a58615739b0fc710e6a380e893e672968e30b5f",
          "topics": [
            "0x238399d427b947898edb290f5ff0f9109849b1c3ba196a42e35f00c50a54b98b"
          ],
          "data": "0x00000000000000000000000000000000000000000000000000000000000075c6000000000000000000000000007f735fd070ded4b0b58d430c392ff0190ec20f",
          "blockHash": "0x19779abfd2f12ae9fcbbd0233bfebd71e3908cae602c8e5014bb9f8028392fe2",
          "blockNumber": "0x21da90d",
          "blockTimestamp": "0x68c5aefd",
          "transactionHash": "0x669f323a957f6d19092b784ba5c6bba58e2f908f3a7a9769296f441bfbdaca1b",
          "transactionIndex": "0x72",
          "logIndex": "0xfd",
          "removed": false
        }
      ],
      "logsBloom": "0x00000000000000000000000000000000000000000000000000000000000000000000000000000000000000000000000000000000000000000800000000000000000000000000000000000000000000000000000000000000000000000000000000000000000000000000000000000000000000000000000000000000000000000000000000000000000000000000000020000000000000000000000000000000000000000000000000000000000000000000000000000000000002000000000000000000000000000000000000000000000000000000000000040000004000000000000000000000000000000000000000000000000000400000000000000000",
      "type": "0x2",
      "transactionHash": "0x669f323a957f6d19092b784ba5c6bba58e2f908f3a7a9769296f441bfbdaca1b",
      "transactionIndex": "0x72",
      "blockHash": "0x19779abfd2f12ae9fcbbd0233bfebd71e3908cae602c8e5014bb9f8028392fe2",
      "blockNumber": "0x21da90d",
      "gasUsed": "0xbca9",
      "effectiveGasPrice": "0x4854aa",
      "from": "0x0ece75f3c36f7df2136dac7633165dbff53de3cd",
      "to": "0x6a58615739b0fc710e6a380e893e672968e30b5f",
      "contractAddress": null,
      "l1BaseFeeScalar": "0x8dd",
      "l1BlobBaseFee": "0x1",
      "l1BlobBaseFeeScalar": "0x101c12",
      "l1Fee": "0x2d5e3e02",
      "l1GasPrice": "0xc7f29ad",
      "l1GasUsed": "0x640"
    }
  ],
  "libraries": [],
  "pending": [],
  "returns": {},
  "timestamp": 1757785852319,
  "chain": 8453,
  "commit": "e54a7ff"
}