{
  "transactions": [
    {
      "hash": "0x006d0d2f0400f513ef92324eef53b29e4378c2926c62b4d702f158495f7e88c0",
      "transactionType": "CALL",
      "contractName": null,
      "contractAddress": "0xad063b1915bf95fb32f79138c0b668f232676333",
      "function": "setPeer(uint32,bytes32)",
      "arguments": [
        "30184",
        "0x000000000000000000000000ad063b1915bf95fb32f79138c0b668f232676333"
      ],
      "transaction": {
        "from": "0x0ece75f3c36f7df2136dac7633165dbff53de3cd",
        "to": "0xad063b1915bf95fb32f79138c0b668f232676333",
        "gas": "0x9965",
        "value": "0x0",
        "input": "0x3400288b00000000000000000000000000000000000000000000000000000000000075e8000000000000000000000000ad063b1915bf95fb32f79138c0b668f232676333",
        "nonce": "0x14e",
        "chainId": "0x2105"
      },
      "additionalContracts": [],
      "isFixedGasLimit": false
    },
    {
      "hash": "0x777c0fd5e10aeb34dd6f0d64dcd1999b5f290409a37cf45284d097f1efdb5384",
      "transactionType": "CALL",
      "contractName": null,
      "contractAddress": "0xad063b1915bf95fb32f79138c0b668f232676333",
      "function": "setPeer(uint32,bytes32)",
      "arguments": [
        "30150",
        "0x0000000000000000000000006d68a52bc77f2eac3582a7072ead94c19b9f480c"
      ],
      "transaction": {
        "from": "0x0ece75f3c36f7df2136dac7633165dbff53de3cd",
        "to": "0xad063b1915bf95fb32f79138c0b668f232676333",
        "gas": "0xa880",
        "value": "0x0",
        "input": "0x3400288b00000000000000000000000000000000000000000000000000000000000075c60000000000000000000000006d68a52bc77f2eac3582a7072ead94c19b9f480c",
        "nonce": "0x14f",
        "chainId": "0x2105"
      },
      "additionalContracts": [],
      "isFixedGasLimit": false
    },
    {
      "hash": "0x0b701833125452fb71749e989ff2212e34834c7a3aeeeb32849c8fc90cf30c2e",
      "transactionType": "CALL",
      "contractName": null,
      "contractAddress": "0xb83e44f1d59bd8743ae45816acd5622fa1a5624d",
      "function": "setPeer(uint32,bytes32)",
      "arguments": [
        "30184",
        "0x000000000000000000000000b83e44f1d59bd8743ae45816acd5622fa1a5624d"
      ],
      "transaction": {
        "from": "0x0ece75f3c36f7df2136dac7633165dbff53de3cd",
        "to": "0xb83e44f1d59bd8743ae45816acd5622fa1a5624d",
        "gas": "0x9965",
        "value": "0x0",
        "input": "0x3400288b00000000000000000000000000000000000000000000000000000000000075e8000000000000000000000000b83e44f1d59bd8743ae45816acd5622fa1a5624d",
        "nonce": "0x150",
        "chainId": "0x2105"
      },
      "additionalContracts": [],
      "isFixedGasLimit": false
    },
    {
      "hash": "0xb3c8edc5344229fe3448e315681115caeafabdef74946d3fb01946d4609f9959",
      "transactionType": "CALL",
      "contractName": null,
      "contractAddress": "0xb83e44f1d59bd8743ae45816acd5622fa1a5624d",
      "function": "setPeer(uint32,bytes32)",
      "arguments": [
        "30150",
        "0x0000000000000000000000005ddbbc68527214e0aca3b4175860080cbdaa12ff"
      ],
      "transaction": {
        "from": "0x0ece75f3c36f7df2136dac7633165dbff53de3cd",
        "to": "0xb83e44f1d59bd8743ae45816acd5622fa1a5624d",
        "gas": "0x9965",
        "value": "0x0",
        "input": "0x3400288b00000000000000000000000000000000000000000000000000000000000075c60000000000000000000000005ddbbc68527214e0aca3b4175860080cbdaa12ff",
        "nonce": "0x151",
        "chainId": "0x2105"
      },
      "additionalContracts": [],
      "isFixedGasLimit": false
    },
    {
      "hash": "0x74ffdd7c71353906cd9c0572108e9be0bae8e2a56f09c88f95b9457ed910bcd0",
      "transactionType": "CALL",
      "contractName": null,
      "contractAddress": "0x1effdcf81a95398920e024bb3b9ff60ce14590e7",
      "function": "setPeer(uint32,bytes32)",
      "arguments": [
        "30184",
        "0x0000000000000000000000001effdcf81a95398920e024bb3b9ff60ce14590e7"
      ],
      "transaction": {
        "from": "0x0ece75f3c36f7df2136dac7633165dbff53de3cd",
        "to": "0x1effdcf81a95398920e024bb3b9ff60ce14590e7",
        "gas": "0x9965",
        "value": "0x0",
        "input": "0x3400288b00000000000000000000000000000000000000000000000000000000000075e80000000000000000000000001effdcf81a95398920e024bb3b9ff60ce14590e7",
        "nonce": "0x152",
        "chainId": "0x2105"
      },
      "additionalContracts": [],
      "isFixedGasLimit": false
    },
    {
      "hash": "0x7b37727540ac2035d9a682774ea78c992a76bde2eb9e2bdf96931d089f99cacd",
      "transactionType": "CALL",
      "contractName": null,
      "contractAddress": "0x1effdcf81a95398920e024bb3b9ff60ce14590e7",
      "function": "setPeer(uint32,bytes32)",
      "arguments": [
        "30150",
        "0x000000000000000000000000fe5138a42dc1fc335455b505e036784a33f7f102"
      ],
      "transaction": {
        "from": "0x0ece75f3c36f7df2136dac7633165dbff53de3cd",
        "to": "0x1effdcf81a95398920e024bb3b9ff60ce14590e7",
        "gas": "0x9965",
        "value": "0x0",
        "input": "0x3400288b00000000000000000000000000000000000000000000000000000000000075c6000000000000000000000000fe5138a42dc1fc335455b505e036784a33f7f102",
        "nonce": "0x153",
        "chainId": "0x2105"
      },
      "additionalContracts": [],
      "isFixedGasLimit": false
    },
    {
      "hash": "0xfed27daf2af6e18700dc5b2bdf9694494e75ba94f856d2ca8ad24bcad9baee42",
      "transactionType": "CALL",
      "contractName": null,
      "contractAddress": "0x6c71b7bbde382f12165d5f7749b5fd37965b1e8a",
      "function": "setPeer(uint32,bytes32)",
      "arguments": [
        "30184",
        "0x0000000000000000000000006c71b7bbde382f12165d5f7749b5fd37965b1e8a"
      ],
      "transaction": {
        "from": "0x0ece75f3c36f7df2136dac7633165dbff53de3cd",
        "to": "0x6c71b7bbde382f12165d5f7749b5fd37965b1e8a",
        "gas": "0x9965",
        "value": "0x0",
        "input": "0x3400288b00000000000000000000000000000000000000000000000000000000000075e80000000000000000000000006c71b7bbde382f12165d5f7749b5fd37965b1e8a",
        "nonce": "0x154",
        "chainId": "0x2105"
      },
      "additionalContracts": [],
      "isFixedGasLimit": false
    },
    {
      "hash": "0xbc4444873c6cbf35ed83823f97ff620c83e4777b89364ce800c75806b9cef852",
      "transactionType": "CALL",
      "contractName": null,
      "contractAddress": "0x6c71b7bbde382f12165d5f7749b5fd37965b1e8a",
      "function": "setPeer(uint32,bytes32)",
      "arguments": [
        "30150",
        "0x000000000000000000000000b0e96105543cba4b3d82911e7336f19bd03b0360"
      ],
      "transaction": {
        "from": "0x0ece75f3c36f7df2136dac7633165dbff53de3cd",
        "to": "0x6c71b7bbde382f12165d5f7749b5fd37965b1e8a",
        "gas": "0x9965",
        "value": "0x0",
        "input": "0x3400288b00000000000000000000000000000000000000000000000000000000000075c6000000000000000000000000b0e96105543cba4b3d82911e7336f19bd03b0360",
        "nonce": "0x155",
        "chainId": "0x2105"
      },
      "additionalContracts": [],
      "isFixedGasLimit": false
    }
  ],
  "receipts": [
    {
      "status": "0x1",
      "cumulativeGasUsed": "0xd5d6fc",
      "logs": [
        {
          "address": "0xad063b1915bf95fb32f79138c0b668f232676333",
          "topics": [
            "0x238399d427b947898edb290f5ff0f9109849b1c3ba196a42e35f00c50a54b98b"
          ],
          "data": "0x00000000000000000000000000000000000000000000000000000000000075e8000000000000000000000000ad063b1915bf95fb32f79138c0b668f232676333",
          "blockHash": "0xcfb92b38d4d7b0566a8e4dfa19ffd5afaaf3095d02162f04565e83ba2d921fef",
          "blockNumber": "0x2217345",
          "blockTimestamp": "0x68cd436d",
          "transactionHash": "0x006d0d2f0400f513ef92324eef53b29e4378c2926c62b4d702f158495f7e88c0",
          "transactionIndex": "0x50",
          "logIndex": "0xfb",
          "removed": false
        }
      ],
      "logsBloom": "0x00000000000000000000000000000000000000000000000000000000000000000000000000000000000000000000000000000000000000000800000000000000000000000000000000000000000000000000000000000000000000000000000000000000000000000000000000000000000000000000000000000004000000000004000000000000000000000000000000000000000000000000000000000000000000000000000000000000000000000000000000000000000002000000000000000000000040000000000000000000000000000000000000040000000000000000000000000000000000000000000000000000000000000000000000000000",
      "type": "0x2",
      "transactionHash": "0x006d0d2f0400f513ef92324eef53b29e4378c2926c62b4d702f158495f7e88c0",
      "transactionIndex": "0x50",
      "blockHash": "0xcfb92b38d4d7b0566a8e4dfa19ffd5afaaf3095d02162f04565e83ba2d921fef",
      "blockNumber": "0x2217345",
      "gasUsed": "0x6f0f",
      "effectiveGasPrice": "0x31e287",
      "from": "0x0ece75f3c36f7df2136dac7633165dbff53de3cd",
      "to": "0xad063b1915bf95fb32f79138c0b668f232676333",
      "contractAddress": null,
      "l1BaseFeeScalar": "0x8dd",
      "l1BlobBaseFee": "0x1",
      "l1BlobBaseFeeScalar": "0x101c12",
      "l1Fee": "0x51aa6f21",
      "l1GasPrice": "0x167eb696",
      "l1GasUsed": "0x640"
    },
    {
      "status": "0x1",
      "cumulativeGasUsed": "0xd650fb",
      "logs": [
        {
          "address": "0xad063b1915bf95fb32f79138c0b668f232676333",
          "topics": [
            "0x238399d427b947898edb290f5ff0f9109849b1c3ba196a42e35f00c50a54b98b"
          ],
          "data": "0x00000000000000000000000000000000000000000000000000000000000075c60000000000000000000000006d68a52bc77f2eac3582a7072ead94c19b9f480c",
          "blockHash": "0xcfb92b38d4d7b0566a8e4dfa19ffd5afaaf3095d02162f04565e83ba2d921fef",
          "blockNumber": "0x2217345",
          "blockTimestamp": "0x68cd436d",
          "transactionHash": "0x777c0fd5e10aeb34dd6f0d64dcd1999b5f290409a37cf45284d097f1efdb5384",
          "transactionIndex": "0x51",
          "logIndex": "0xfc",
          "removed": false
        }
      ],
      "logsBloom": "0x00000000000000000000000000000000000000000000000000000000000000000000000000000000000000000000000000000000000000000800000000000000000000000000000000000000000000000000000000000000000000000000000000000000000000000000000000000000000000000000000000000004000000000004000000000000000000000000000000000000000000000000000000000000000000000000000000000000000000000000000000000000000002000000000000000000000040000000000000000000000000000000000000040000000000000000000000000000000000000000000000000000000000000000000000000000",
      "type": "0x2",
      "transactionHash": "0x777c0fd5e10aeb34dd6f0d64dcd1999b5f290409a37cf45284d097f1efdb5384",
      "transactionIndex": "0x51",
      "blockHash": "0xcfb92b38d4d7b0566a8e4dfa19ffd5afaaf3095d02162f04565e83ba2d921fef",
      "blockNumber": "0x2217345",
      "gasUsed": "0x79ff",
      "effectiveGasPrice": "0x31e287",
      "from": "0x0ece75f3c36f7df2136dac7633165dbff53de3cd",
      "to": "0xad063b1915bf95fb32f79138c0b668f232676333",
      "contractAddress": null,
      "l1BaseFeeScalar": "0x8dd",
      "l1BlobBaseFee": "0x1",
      "l1BlobBaseFeeScalar": "0x101c12",
      "l1Fee": "0x51aa6f21",
      "l1GasPrice": "0x167eb696",
      "l1GasUsed": "0x640"
    },
    {
      "status": "0x1",
      "cumulativeGasUsed": "0xd6c00a",
      "logs": [
        {
          "address": "0xb83e44f1d59bd8743ae45816acd5622fa1a5624d",
          "topics": [
            "0x238399d427b947898edb290f5ff0f9109849b1c3ba196a42e35f00c50a54b98b"
          ],
          "data": "0x00000000000000000000000000000000000000000000000000000000000075e8000000000000000000000000b83e44f1d59bd8743ae45816acd5622fa1a5624d",
          "blockHash": "0xcfb92b38d4d7b0566a8e4dfa19ffd5afaaf3095d02162f04565e83ba2d921fef",
          "blockNumber": "0x2217345",
          "blockTimestamp": "0x68cd436d",
          "transactionHash": "0x0b701833125452fb71749e989ff2212e34834c7a3aeeeb32849c8fc90cf30c2e",
          "transactionIndex": "0x52",
          "logIndex": "0xfd",
          "removed": false
        }
      ],
      "logsBloom": "0x00000000000000000200000000000000000000000000000000000000000000000000000000000000000000000000000000000000000000000800000000010000000000000000000000000000000000000000000000000000000000000000000000000000000000000000000000000000000000000000000000000000000000000000000000000000000000000000000000000000000000000000000000000000000000000000000000000000000000000000000000000000000002000000000000000000000000000000000000000000000000000000000000040000000000002000000000000000000000000000000000000000000000000000000000000000",
      "type": "0x2",
      "transactionHash": "0x0b701833125452fb71749e989ff2212e34834c7a3aeeeb32849c8fc90cf30c2e",
      "transactionIndex": "0x52",
      "blockHash": "0xcfb92b38d4d7b0566a8e4dfa19ffd5afaaf3095d02162f04565e83ba2d921fef",
      "blockNumber": "0x2217345",
      "gasUsed": "0x6f0f",
      "effectiveGasPrice": "0x31e287",
      "from": "0x0ece75f3c36f7df2136dac7633165dbff53de3cd",
      "to": "0xb83e44f1d59bd8743ae45816acd5622fa1a5624d",
      "contractAddress": null,
      "l1BaseFeeScalar": "0x8dd",
      "l1BlobBaseFee": "0x1",
      "l1BlobBaseFeeScalar": "0x101c12",
      "l1Fee": "0x51aa6f21",
      "l1GasPrice": "0x167eb696",
      "l1GasUsed": "0x640"
    },
    {
      "status": "0x1",
      "cumulativeGasUsed": "0xd72f19",
      "logs": [
        {
          "address": "0xb83e44f1d59bd8743ae45816acd5622fa1a5624d",
          "topics": [
            "0x238399d427b947898edb290f5ff0f9109849b1c3ba196a42e35f00c50a54b98b"
          ],
          "data": "0x00000000000000000000000000000000000000000000000000000000000075c60000000000000000000000005ddbbc68527214e0aca3b4175860080cbdaa12ff",
          "blockHash": "0xcfb92b38d4d7b0566a8e4dfa19ffd5afaaf3095d02162f04565e83ba2d921fef",
          "blockNumber": "0x2217345",
          "blockTimestamp": "0x68cd436d",
          "transactionHash": "0xb3c8edc5344229fe3448e315681115caeafabdef74946d3fb01946d4609f9959",
          "transactionIndex": "0x53",
          "logIndex": "0xfe",
          "removed": false
        }
      ],
      "logsBloom": "0x00000000000000000200000000000000000000000000000000000000000000000000000000000000000000000000000000000000000000000800000000010000000000000000000000000000000000000000000000000000000000000000000000000000000000000000000000000000000000000000000000000000000000000000000000000000000000000000000000000000000000000000000000000000000000000000000000000000000000000000000000000000000002000000000000000000000000000000000000000000000000000000000000040000000000002000000000000000000000000000000000000000000000000000000000000000",
      "type": "0x2",
      "transactionHash": "0xb3c8edc5344229fe3448e315681115caeafabdef74946d3fb01946d4609f9959",
      "transactionIndex": "0x53",
      "blockHash": "0xcfb92b38d4d7b0566a8e4dfa19ffd5afaaf3095d02162f04565e83ba2d921fef",
      "blockNumber": "0x2217345",
      "gasUsed": "0x6f0f",
      "effectiveGasPrice": "0x31e287",
      "from": "0x0ece75f3c36f7df2136dac7633165dbff53de3cd",
      "to": "0xb83e44f1d59bd8743ae45816acd5622fa1a5624d",
      "contractAddress": null,
      "l1BaseFeeScalar": "0x8dd",
      "l1BlobBaseFee": "0x1",
      "l1BlobBaseFeeScalar": "0x101c12",
      "l1Fee": "0x51aa6f21",
      "l1GasPrice": "0x167eb696",
      "l1GasUsed": "0x640"
    },
    {
      "status": "0x1",
      "cumulativeGasUsed": "0xda2fa4",
      "logs": [
        {
          "address": "0x1effdcf81a95398920e024bb3b9ff60ce14590e7",
          "topics": [
            "0x238399d427b947898edb290f5ff0f9109849b1c3ba196a42e35f00c50a54b98b"
          ],
          "data": "0x00000000000000000000000000000000000000000000000000000000000075e80000000000000000000000001effdcf81a95398920e024bb3b9ff60ce14590e7",
          "blockHash": "0xcfb92b38d4d7b0566a8e4dfa19ffd5afaaf3095d02162f04565e83ba2d921fef",
          "blockNumber": "0x2217345",
          "blockTimestamp": "0x68cd436d",
          "transactionHash": "0x74ffdd7c71353906cd9c0572108e9be0bae8e2a56f09c88f95b9457ed910bcd0",
          "transactionIndex": "0x55",
          "logIndex": "0xff",
          "removed": false
        }
      ],
      "logsBloom": "0x00000000000000000000000000000000000000000000000000000000000000000000000000000000000000000000000000000000000000000800000000000000000040000000000000000000000000000000000000000000000000000000000000000000000000000000000000000000000000000000000800000000000000000000000000000000000000000000000000000000000000000000000000000000000000000000000000000000000000000000000000000000000002000000000000000000000000000000000000000000000000000000000000040000000000800000000000000000000000000000000000000000000000000000000000000000",
      "type": "0x2",
      "transactionHash": "0x74ffdd7c71353906cd9c0572108e9be0bae8e2a56f09c88f95b9457ed910bcd0",
      "transactionIndex": "0x55",
      "blockHash": "0xcfb92b38d4d7b0566a8e4dfa19ffd5afaaf3095d02162f04565e83ba2d921fef",
      "blockNumber": "0x2217345",
      "gasUsed": "0x6f0f",
      "effectiveGasPrice": "0x31e287",
      "from": "0x0ece75f3c36f7df2136dac7633165dbff53de3cd",
      "to": "0x1effdcf81a95398920e024bb3b9ff60ce14590e7",
      "contractAddress": null,
      "l1BaseFeeScalar": "0x8dd",
      "l1BlobBaseFee": "0x1",
      "l1BlobBaseFeeScalar": "0x101c12",
      "l1Fee": "0x51aa6f21",
      "l1GasPrice": "0x167eb696",
      "l1GasUsed": "0x640"
    },
    {
      "status": "0x1",
      "cumulativeGasUsed": "0xda9eb3",
      "logs": [
        {
          "address": "0x1effdcf81a95398920e024bb3b9ff60ce14590e7",
          "topics": [
            "0x238399d427b947898edb290f5ff0f9109849b1c3ba196a42e35f00c50a54b98b"
          ],
          "data": "0x00000000000000000000000000000000000000000000000000000000000075c6000000000000000000000000fe5138a42dc1fc335455b505e036784a33f7f102",
          "blockHash": "0xee1a04ec8cd521a5c4c4c78d1b6e41e214785c25cb5b170f8dcb3099ef8855de",
          "blockNumber": "0x2217345",
          "blockTimestamp": "0x68cd436d",
          "transactionHash": "0x7b37727540ac2035d9a682774ea78c992a76bde2eb9e2bdf96931d089f99cacd",
          "transactionIndex": "0x56",
          "logIndex": "0x100",
          "removed": false
        }
      ],
      "logsBloom": "0x00000000000000000000000000000000000000000000000000000000000000000000000000000000000000000000000000000000000000000800000000000000000040000000000000000000000000000000000000000000000000000000000000000000000000000000000000000000000000000000000800000000000000000000000000000000000000000000000000000000000000000000000000000000000000000000000000000000000000000000000000000000000002000000000000000000000000000000000000000000000000000000000000040000000000800000000000000000000000000000000000000000000000000000000000000000",
      "type": "0x2",
      "transactionHash": "0x7b37727540ac2035d9a682774ea78c992a76bde2eb9e2bdf96931d089f99cacd",
      "transactionIndex": "0x56",
      "blockHash": "0xee1a04ec8cd521a5c4c4c78d1b6e41e214785c25cb5b170f8dcb3099ef8855de",
      "blockNumber": "0x2217345",
      "gasUsed": "0x6f0f",
      "effectiveGasPrice": "0x31e287",
      "from": "0x0ece75f3c36f7df2136dac7633165dbff53de3cd",
      "to": "0x1effdcf81a95398920e024bb3b9ff60ce14590e7",
      "contractAddress": null,
      "l1BaseFeeScalar": "0x8dd",
      "l1BlobBaseFee": "0x1",
      "l1BlobBaseFeeScalar": "0x101c12",
      "l1Fee": "0x51aa6f21",
      "l1GasPrice": "0x167eb696",
      "l1GasUsed": "0x640"
    },
    {
      "status": "0x1",
      "cumulativeGasUsed": "0xdb0dc2",
      "logs": [
        {
          "address": "0x6c71b7bbde382f12165d5f7749b5fd37965b1e8a",
          "topics": [
            "0x238399d427b947898edb290f5ff0f9109849b1c3ba196a42e35f00c50a54b98b"
          ],
          "data": "0x00000000000000000000000000000000000000000000000000000000000075e80000000000000000000000006c71b7bbde382f12165d5f7749b5fd37965b1e8a",
          "blockHash": "0xcfb92b38d4d7b0566a8e4dfa19ffd5afaaf3095d02162f04565e83ba2d921fef",
          "blockNumber": "0x2217345",
          "blockTimestamp": "0x68cd436d",
          "transactionHash": "0xfed27daf2af6e18700dc5b2bdf9694494e75ba94f856d2ca8ad24bcad9baee42",
          "transactionIndex": "0x57",
          "logIndex": "0x101",
          "removed": false
        }
      ],
      "logsBloom": "0x00000000000000000000000000000000000000000000000000000000000000000000000000040000000000000000000000000000000000000800000000000000000000000000000000000000000000000000000000000000000000000000000000000000000000000000000000000000000000000000000000000000000000000000000000100000000000000000000000000000000000000000000000000000000000000000000000000000000000000000000000000000000002000000000000000000000000000000000000000000080000000000000000040000000000000000000000000000000000000000000000000000000000000000000000000000",
      "type": "0x2",
      "transactionHash": "0xfed27daf2af6e18700dc5b2bdf9694494e75ba94f856d2ca8ad24bcad9baee42",
      "transactionIndex": "0x57",
      "blockHash": "0xcfb92b38d4d7b0566a8e4dfa19ffd5afaaf3095d02162f04565e83ba2d921fef",
      "blockNumber": "0x2217345",
      "gasUsed": "0x6f0f",
      "effectiveGasPrice": "0x31e287",
      "from": "0x0ece75f3c36f7df2136dac7633165dbff53de3cd",
      "to": "0x6c71b7bbde382f12165d5f7749b5fd37965b1e8a",
      "contractAddress": null,
      "l1BaseFeeScalar": "0x8dd",
      "l1BlobBaseFee": "0x1",
      "l1BlobBaseFeeScalar": "0x101c12",
      "l1Fee": "0x51aa6f21",
      "l1GasPrice": "0x167eb696",
      "l1GasUsed": "0x640"
    },
    {
      "status": "0x1",
      "cumulativeGasUsed": "0xdb7cd1",
      "logs": [
        {
          "address": "0x6c71b7bbde382f12165d5f7749b5fd37965b1e8a",
          "topics": [
            "0x238399d427b947898edb290f5ff0f9109849b1c3ba196a42e35f00c50a54b98b"
          ],
          "data": "0x00000000000000000000000000000000000000000000000000000000000075c6000000000000000000000000b0e96105543cba4b3d82911e7336f19bd03b0360",
          "blockHash": "0xee1a04ec8cd521a5c4c4c78d1b6e41e214785c25cb5b170f8dcb3099ef8855de",
          "blockNumber": "0x2217345",
          "blockTimestamp": "0x68cd436d",
          "transactionHash": "0xbc4444873c6cbf35ed83823f97ff620c83e4777b89364ce800c75806b9cef852",
          "transactionIndex": "0x58",
          "logIndex": "0x102",
          "removed": false
        }
      ],
      "logsBloom": "0x00000000000000000000000000000000000000000000000000000000000000000000000000040000000000000000000000000000000000000800000000000000000000000000000000000000000000000000000000000000000000000000000000000000000000000000000000000000000000000000000000000000000000000000000000100000000000000000000000000000000000000000000000000000000000000000000000000000000000000000000000000000000002000000000000000000000000000000000000000000080000000000000000040000000000000000000000000000000000000000000000000000000000000000000000000000",
      "type": "0x2",
      "transactionHash": "0xbc4444873c6cbf35ed83823f97ff620c83e4777b89364ce800c75806b9cef852",
      "transactionIndex": "0x58",
      "blockHash": "0xee1a04ec8cd521a5c4c4c78d1b6e41e214785c25cb5b170f8dcb3099ef8855de",
      "blockNumber": "0x2217345",
      "gasUsed": "0x6f0f",
      "effectiveGasPrice": "0x31e287",
      "from": "0x0ece75f3c36f7df2136dac7633165dbff53de3cd",
      "to": "0x6c71b7bbde382f12165d5f7749b5fd37965b1e8a",
      "contractAddress": null,
      "l1BaseFeeScalar": "0x8dd",
      "l1BlobBaseFee": "0x1",
      "l1BlobBaseFeeScalar": "0x101c12",
      "l1Fee": "0x51aa6f21",
      "l1GasPrice": "0x167eb696",
      "l1GasUsed": "0x640"
    }
  ],
  "libraries": [],
  "pending": [],
  "returns": {},
  "timestamp": 1758282604258,
  "chain": 8453,
  "commit": "6c82bda"
}