{
  "transactions": [
    {
      "hash": "0x484695952df542e1e2136f3b92773bf094ae337acc650ac887be9bb5b564d015",
      "transactionType": "CALL",
      "contractName": null,
      "contractAddress": "0xaf126b36958ef1a6ed80118841a7f1660f921346",
      "function": "setPeer(uint32,bytes32)",
      "arguments": [
        "30150",
        "0x000000000000000000000000af126b36958ef1a6ed80118841a7f1660f921346"
      ],
      "transaction": {
        "from": "0x0ece75f3c36f7df2136dac7633165dbff53de3cd",
        "to": "0xaf126b36958ef1a6ed80118841a7f1660f921346",
        "gas": "0xa24c",
        "value": "0x0",
        "input": "0x3400288b00000000000000000000000000000000000000000000000000000000000075c6000000000000000000000000af126b36958ef1a6ed80118841a7f1660f921346",
        "nonce": "0xf8",
        "chainId": "0x2019"
      },
      "additionalContracts": [],
      "isFixedGasLimit": false
    },
    {
      "hash": "0x0f8614a5cec48f636badc5f1de3baa7948863c38b90cf6b9f3edf8c4c1bb40de",
      "transactionType": "CALL",
      "contractName": null,
      "contractAddress": "0xaf126b36958ef1a6ed80118841a7f1660f921346",
      "function": "setPeer(uint32,bytes32)",
      "arguments": [
        "30184",
        "0x000000000000000000000000cbb5df94d28e0639ce82ccc46a28eba34b29a674"
      ],
      "transaction": {
        "from": "0x0ece75f3c36f7df2136dac7633165dbff53de3cd",
        "to": "0xaf126b36958ef1a6ed80118841a7f1660f921346",
        "gas": "0xa24c",
        "value": "0x0",
        "input": "0x3400288b00000000000000000000000000000000000000000000000000000000000075e8000000000000000000000000cbb5df94d28e0639ce82ccc46a28eba34b29a674",
        "nonce": "0xf9",
        "chainId": "0x2019"
      },
      "additionalContracts": [],
      "isFixedGasLimit": false
    }
  ],
  "receipts": [
    {
      "status": "0x1",
      "cumulativeGasUsed": "0x1ee51",
      "logs": [
        {
          "address": "0xaf126b36958ef1a6ed80118841a7f1660f921346",
          "topics": [
            "0x238399d427b947898edb290f5ff0f9109849b1c3ba196a42e35f00c50a54b98b"
          ],
          "data": "0x00000000000000000000000000000000000000000000000000000000000075c6000000000000000000000000af126b36958ef1a6ed80118841a7f1660f921346",
          "blockHash": "0x2a97149d4108023eaeb9d67e6e9887868fe94a5c216304b63870d88b9e89d8c6",
          "blockNumber": "0xbb06091",
          "transactionHash": "0x484695952df542e1e2136f3b92773bf094ae337acc650ac887be9bb5b564d015",
          "transactionIndex": "0x2",
          "logIndex": "0x2",
          "removed": false
        }
      ],
      "logsBloom": "0x00000000000000000000000000000000000000000000000000000000000000000000000000000000000000000000000000000000000000000800000000000000000000000000000000000000800000000000000000000000000000000000000000000020000000000000000000000000000000000000000000000000000000000000000000000000000000000000000000000000000000000000000000000000000000000000000000000000000000000000000000000000000002000000000000000000000000000000000000000000000000000000000000040000000000000000000000000000000000000000000000000000000000000000000200000000",
      "type": "0x2",
      "transactionHash": "0x484695952df542e1e2136f3b92773bf094ae337acc650ac887be9bb5b564d015",
      "transactionIndex": "0x2",
      "blockHash": "0x2a97149d4108023eaeb9d67e6e9887868fe94a5c216304b63870d88b9e89d8c6",
      "blockNumber": "0xbb06091",
      "gasUsed": "0x6ef9",
      "effectiveGasPrice": "0x66720b300",
      "from": "0x0ece75f3c36f7df2136dac7633165dbff53de3cd",
      "to": "0xaf126b36958ef1a6ed80118841a7f1660f921346",
      "contractAddress": null
    },
    {
      "status": "0x1",
      "cumulativeGasUsed": "0x25d4a",
      "logs": [
        {
          "address": "0xaf126b36958ef1a6ed80118841a7f1660f921346",
          "topics": [
            "0x238399d427b947898edb290f5ff0f9109849b1c3ba196a42e35f00c50a54b98b"
          ],
          "data": "0x00000000000000000000000000000000000000000000000000000000000075e8000000000000000000000000cbb5df94d28e0639ce82ccc46a28eba34b29a674",
          "blockHash": "0x2a97149d4108023eaeb9d67e6e9887868fe94a5c216304b63870d88b9e89d8c6",
          "blockNumber": "0xbb06091",
          "transactionHash": "0x0f8614a5cec48f636badc5f1de3baa7948863c38b90cf6b9f3edf8c4c1bb40de",
          "transactionIndex": "0x3",
          "logIndex": "0x3",
          "removed": false
        }
      ],
      "logsBloom": "0x00000000000000000000000000000000000000000000000000000000000000000000000000000000000000000000000000000000000000000800000000000000000000000000000000000000800000000000000000000000000000000000000000000020000000000000000000000000000000000000000000000000000000000000000000000000000000000000000000000000000000000000000000000000000000000000000000000000000000000000000000000000000002000000000000000000000000000000000000000000000000000000000000040000000000000000000000000000000000000000000000000000000000000000000200000000",
      "type": "0x2",
      "transactionHash": "0x0f8614a5cec48f636badc5f1de3baa7948863c38b90cf6b9f3edf8c4c1bb40de",
      "transactionIndex": "0x3",
      "blockHash": "0x2a97149d4108023eaeb9d67e6e9887868fe94a5c216304b63870d88b9e89d8c6",
      "blockNumber": "0xbb06091",
      "gasUsed": "0x6ef9",
      "effectiveGasPrice": "0x66720b300",
      "from": "0x0ece75f3c36f7df2136dac7633165dbff53de3cd",
      "to": "0xaf126b36958ef1a6ed80118841a7f1660f921346",
      "contractAddress": null
    }
  ],
  "libraries": [],
  "pending": [],
  "returns": {},
  "timestamp": 1758176078703,
  "chain": 8217,
  "commit": "6c82bda"
}