{
  "transactions": [
    {
      "hash": "0x96fe657f522f318d73a20b45e5bfe1bcd90690d9f255492d5591d741261b0be9",
      "transactionType": "CALL",
      "contractName": null,
      "contractAddress": "0x1a44076050125825900e736c501f859c50fe728c",
      "function": "setConfig(address,address,(uint32,uint32,bytes)[])",
      "arguments": [
        "0xaF126B36958Ef1A6Ed80118841A7f1660f921346",
        "0x9714Ccf1dedeF14BaB5013625DB92746C1358cb4",
        "[(30184, 1, 0x0000000000000000000000000000000000000000000000000000000000002710000000000000000000000000e149187a987f129fd3d397ed04a60b0b89d1669f), (30184, 2, 0x0000000000000000000000000000000000000000000000000000000000000020000000000000000000000000000000000000000000000000000000000000000f000000000000000000000000000000000000000000000000000000000000000200000000000000000000000000000000000000000000000000000000000000ff000000000000000000000000000000000000000000000000000000000000000000000000000000000000000000000000000000000000000000000000000000c0000000000000000000000000000000000000000000000000000000000000012000000000000000000000000000000000000000000000000000000000000000020000000000000000000000001154d04d07aee26ff2c200bd373eb76a7e5694d6000000000000000000000000acde1f22eeab249d3ca6ba8805c8fee9f52a16e70000000000000000000000000000000000000000000000000000000000000000), (30150, 1, 0x0000000000000000000000000000000000000000000000000000000000002710000000000000000000000000e149187a987f129fd3d397ed04a60b0b89d1669f), (30150, 2, 0x0000000000000000000000000000000000000000000000000000000000000020000000000000000000000000000000000000000000000000000000000000000f000000000000000000000000000000000000000000000000000000000000000200000000000000000000000000000000000000000000000000000000000000ff000000000000000000000000000000000000000000000000000000000000000000000000000000000000000000000000000000000000000000000000000000c0000000000000000000000000000000000000000000000000000000000000012000000000000000000000000000000000000000000000000000000000000000020000000000000000000000001154d04d07aee26ff2c200bd373eb76a7e5694d6000000000000000000000000acde1f22eeab249d3ca6ba8805c8fee9f52a16e70000000000000000000000000000000000000000000000000000000000000000)]"
      ],
      "transaction": {
        "from": "0x0ece75f3c36f7df2136dac7633165dbff53de3cd",
        "to": "0x1a44076050125825900e736c501f859c50fe728c",
        "gas": "0x6605a",
        "value": "0x0",
        "input": "0x6dbd9f90000000000000000000000000af126b36958ef1a6ed80118841a7f1660f9213460000000000000000000000009714ccf1dedef14bab5013625db92746c1358cb40000000000000000000000000000000000000000000000000000000000000060000000000000000000000000000000000000000000000000000000000000000400000000000000000000000000000000000000000000000000000000000000800000000000000000000000000000000000000000000000000000000000000140000000000000000000000000000000000000000000000000000000000000032000000000000000000000000000000000000000000000000000000000000003e000000000000000000000000000000000000000000000000000000000000075e80000000000000000000000000000000000000000000000000000000000000001000000000000000000000000000000000000000000000000000000000000006000000000000000000000000000000000000000000000000000000000000000400000000000000000000000000000000000000000000000000000000000002710000000000000000000000000e149187a987f129fd3d397ed04a60b0b89d1669f00000000000000000000000000000000000000000000000000000000000075e80000000000000000000000000000000000000000000000000000000000000002000000000000000000000000000000000000000000000000000000000000006000000000000000000000000000000000000000000000000000000000000001600000000000000000000000000000000000000000000000000000000000000020000000000000000000000000000000000000000000000000000000000000000f000000000000000000000000000000000000000000000000000000000000000200000000000000000000000000000000000000000000000000000000000000ff000000000000000000000000000000000000000000000000000000000000000000000000000000000000000000000000000000000000000000000000000000c0000000000000000000000000000000000000000000000000000000000000012000000000000000000000000000000000000000000000000000000000000000020000000000000000000000001154d04d07aee26ff2c200bd373eb76a7e5694d6000000000000000000000000acde1f22eeab249d3ca6ba8805c8fee9f52a16e7000000000000000000000000000000000000000000000000000000000000000000000000000000000000000000000000000000000000000000000000000075c60000000000000000000000000000000000000000000000000000000000000001000000000000000000000000000000000000000000000000000000000000006000000000000000000000000000000000000000000000000000000000000000400000000000000000000000000000000000000000000000000000000000002710000000000000000000000000e149187a987f129fd3d397ed04a60b0b89d1669f00000000000000000000000000000000000000000000000000000000000075c60000000000000000000000000000000000000000000000000000000000000002000000000000000000000000000000000000000000000000000000000000006000000000000000000000000000000000000000000000000000000000000001600000000000000000000000000000000000000000000000000000000000000020000000000000000000000000000000000000000000000000000000000000000f000000000000000000000000000000000000000000000000000000000000000200000000000000000000000000000000000000000000000000000000000000ff000000000000000000000000000000000000000000000000000000000000000000000000000000000000000000000000000000000000000000000000000000c0000000000000000000000000000000000000000000000000000000000000012000000000000000000000000000000000000000000000000000000000000000020000000000000000000000001154d04d07aee26ff2c200bd373eb76a7e5694d6000000000000000000000000acde1f22eeab249d3ca6ba8805c8fee9f52a16e70000000000000000000000000000000000000000000000000000000000000000",
        "nonce": "0xf4",
        "chainId": "0x2019"
      },
      "additionalContracts": [],
      "isFixedGasLimit": false
    }
  ],
  "receipts": [
    {
      "status": "0x1",
      "cumulativeGasUsed": "0x7dd52",
      "logs": [
        {
          "address": "0x9714ccf1dedef14bab5013625db92746c1358cb4",
          "topics": [
            "0x779cb2dd9d2bb1be1737d05435d744facbfb84a2a4912e21379d39beddcdc805"
          ],
          "data": "0x000000000000000000000000af126b36958ef1a6ed80118841a7f1660f92134600000000000000000000000000000000000000000000000000000000000075e80000000000000000000000000000000000000000000000000000000000002710000000000000000000000000e149187a987f129fd3d397ed04a60b0b89d1669f",
          "blockHash": "0x6379c5e43e174199eb94ecc1c81ac3e72c5f96c901d466b555f9d6cabbece02e",
          "blockNumber": "0xbb05f68",
          "transactionHash": "0x96fe657f522f318d73a20b45e5bfe1bcd90690d9f255492d5591d741261b0be9",
          "transactionIndex": "0x5",
          "logIndex": "0x5",
          "removed": false
        },
        {
          "address": "0x9714ccf1dedef14bab5013625db92746c1358cb4",
          "topics": [
            "0x82118522aa536ac0e96cc5c689407ae42b89d592aa133890a01f1509842f5081"
          ],
          "data": "0x000000000000000000000000af126b36958ef1a6ed80118841a7f1660f92134600000000000000000000000000000000000000000000000000000000000075e80000000000000000000000000000000000000000000000000000000000000060000000000000000000000000000000000000000000000000000000000000000f000000000000000000000000000000000000000000000000000000000000000200000000000000000000000000000000000000000000000000000000000000ff000000000000000000000000000000000000000000000000000000000000000000000000000000000000000000000000000000000000000000000000000000c0000000000000000000000000000000000000000000000000000000000000012000000000000000000000000000000000000000000000000000000000000000020000000000000000000000001154d04d07aee26ff2c200bd373eb76a7e5694d6000000000000000000000000acde1f22eeab249d3ca6ba8805c8fee9f52a16e70000000000000000000000000000000000000000000000000000000000000000",
          "blockHash": "0x6379c5e43e174199eb94ecc1c81ac3e72c5f96c901d466b555f9d6cabbece02e",
          "blockNumber": "0xbb05f68",
          "transactionHash": "0x96fe657f522f318d73a20b45e5bfe1bcd90690d9f255492d5591d741261b0be9",
          "transactionIndex": "0x5",
          "logIndex": "0x6",
          "removed": false
        },
        {
          "address": "0x9714ccf1dedef14bab5013625db92746c1358cb4",
          "topics": [
            "0x779cb2dd9d2bb1be1737d05435d744facbfb84a2a4912e21379d39beddcdc805"
          ],
          "data": "0x000000000000000000000000af126b36958ef1a6ed80118841a7f1660f92134600000000000000000000000000000000000000000000000000000000000075c60000000000000000000000000000000000000000000000000000000000002710000000000000000000000000e149187a987f129fd3d397ed04a60b0b89d1669f",
          "blockHash": "0x6379c5e43e174199eb94ecc1c81ac3e72c5f96c901d466b555f9d6cabbece02e",
          "blockNumber": "0xbb05f68",
          "transactionHash": "0x96fe657f522f318d73a20b45e5bfe1bcd90690d9f255492d5591d741261b0be9",
          "transactionIndex": "0x5",
          "logIndex": "0x7",
          "removed": false
        },
        {
          "address": "0x9714ccf1dedef14bab5013625db92746c1358cb4",
          "topics": [
            "0x82118522aa536ac0e96cc5c689407ae42b89d592aa133890a01f1509842f5081"
          ],
          "data": "0x000000000000000000000000af126b36958ef1a6ed80118841a7f1660f92134600000000000000000000000000000000000000000000000000000000000075c60000000000000000000000000000000000000000000000000000000000000060000000000000000000000000000000000000000000000000000000000000000f000000000000000000000000000000000000000000000000000000000000000200000000000000000000000000000000000000000000000000000000000000ff000000000000000000000000000000000000000000000000000000000000000000000000000000000000000000000000000000000000000000000000000000c0000000000000000000000000000000000000000000000000000000000000012000000000000000000000000000000000000000000000000000000000000000020000000000000000000000001154d04d07aee26ff2c200bd373eb76a7e5694d6000000000000000000000000acde1f22eeab249d3ca6ba8805c8fee9f52a16e70000000000000000000000000000000000000000000000000000000000000000",
          "blockHash": "0x6379c5e43e174199eb94ecc1c81ac3e72c5f96c901d466b555f9d6cabbece02e",
          "blockNumber": "0xbb05f68",
          "transactionHash": "0x96fe657f522f318d73a20b45e5bfe1bcd90690d9f255492d5591d741261b0be9",
          "transactionIndex": "0x5",
          "logIndex": "0x8",
          "removed": false
        }
      ],
      "logsBloom": "0x00000000000000000000000000000000000000000000000000000000000000000000000000000000000000000000000000000000000000000000000000000000000000000000000000000040000000020000000000000000002000000000000000000000000000000000000000000000000000000000000000000000000000040000000000000000000000000000000000000000000000000000000000000000000000000000000000000002000000000000000000000000000000000000000200000004000000000000000000000000000000000000000000000000000000000008000000000000000000000000000000000000000000000000000000000010",
      "type": "0x2",
      "transactionHash": "0x96fe657f522f318d73a20b45e5bfe1bcd90690d9f255492d5591d741261b0be9",
      "transactionIndex": "0x5",
      "blockHash": "0x6379c5e43e174199eb94ecc1c81ac3e72c5f96c901d466b555f9d6cabbece02e",
      "blockNumber": "0xbb05f68",
      "gasUsed": "0x49dcc",
      "effectiveGasPrice": "0x66720b300",
      "from": "0x0ece75f3c36f7df2136dac7633165dbff53de3cd",
      "to": "0x1a44076050125825900e736c501f859c50fe728c",
      "contractAddress": null
    }
  ],
  "libraries": [],
  "pending": [],
  "returns": {},
  "timestamp": 1758175778478,
  "chain": 8217,
  "commit": "6c82bda"
}