{
  "transactions": [
    {
      "hash": "0x3b5b88f56d01af3b0ea91e7449161709fde05c87ae5a9c2b2d8dbe5d5ca1178c",
      "transactionType": "CALL",
      "contractName": null,
      "contractAddress": "0xaf126b36958ef1a6ed80118841a7f1660f921346",
      "function": "setPeer(uint32,bytes32)",
      "arguments": [
        "30150",
        "0x000000000000000000000000af126b36958ef1a6ed80118841a7f1660f921346"
      ],
      "transaction": {
        "from": "0x0ece75f3c36f7df2136dac7633165dbff53de3cd",
        "to": "0xaf126b36958ef1a6ed80118841a7f1660f921346",
        "gas": "0xa24c",
        "value": "0x0",
        "input": "0x3400288b00000000000000000000000000000000000000000000000000000000000075c6000000000000000000000000af126b36958ef1a6ed80118841a7f1660f921346",
        "nonce": "0x141",
        "chainId": "0x2019"
      },
      "additionalContracts": [],
      "isFixedGasLimit": false
    },
    {
      "hash": "0x0d99e6bc12ccf9afedd5b2edc34ae2e73fd098325c4e601ddddd23af6ae3f1ad",
      "transactionType": "CALL",
      "contractName": null,
      "contractAddress": "0xaf126b36958ef1a6ed80118841a7f1660f921346",
      "function": "setPeer(uint32,bytes32)",
      "arguments": [
        "30184",
        "0x000000000000000000000000bb4a3e822190c898c42c0836636d897ebdd8d53a"
      ],
      "transaction": {
        "from": "0x0ece75f3c36f7df2136dac7633165dbff53de3cd",
        "to": "0xaf126b36958ef1a6ed80118841a7f1660f921346",
        "gas": "0xb24b",
        "value": "0x0",
        "input": "0x3400288b00000000000000000000000000000000000000000000000000000000000075e8000000000000000000000000bb4a3e822190c898c42c0836636d897ebdd8d53a",
        "nonce": "0x142",
        "chainId": "0x2019"
      },
      "additionalContracts": [],
      "isFixedGasLimit": false
    }
  ],
  "receipts": [
    {
      "status": "0x1",
      "cumulativeGasUsed": "0x1df98d",
      "logs": [
        {
          "address": "0xaf126b36958ef1a6ed80118841a7f1660f921346",
          "topics": [
            "0x238399d427b947898edb290f5ff0f9109849b1c3ba196a42e35f00c50a54b98b"
          ],
          "data": "0x00000000000000000000000000000000000000000000000000000000000075c6000000000000000000000000af126b36958ef1a6ed80118841a7f1660f921346",
          "blockHash": "0x71ff64bd70c7cbf74a66619390bc28c1a5229d3c1f7f026d5a20ead24a10e91e",
          "blockNumber": "0xbb118ae",
          "transactionHash": "0x3b5b88f56d01af3b0ea91e7449161709fde05c87ae5a9c2b2d8dbe5d5ca1178c",
          "transactionIndex": "0x1",
          "logIndex": "0x26",
          "removed": false
        }
      ],
      "logsBloom": "0x00000000000000000000000000000000000000000000000000000000000000000000000000000000000000000000000000000000000000000800000000000000000000000000000000000000800000000000000000000000000000000000000000000020000000000000000000000000000000000000000000000000000000000000000000000000000000000000000000000000000000000000000000000000000000000000000000000000000000000000000000000000000002000000000000000000000000000000000000000000000000000000000000040000000000000000000000000000000000000000000000000000000000000000000200000000",
      "type": "0x2",
      "transactionHash": "0x3b5b88f56d01af3b0ea91e7449161709fde05c87ae5a9c2b2d8dbe5d5ca1178c",
      "transactionIndex": "0x1",
      "blockHash": "0x71ff64bd70c7cbf74a66619390bc28c1a5229d3c1f7f026d5a20ead24a10e91e",
      "blockNumber": "0xbb118ae",
      "gasUsed": "0x6ef9",
      "effectiveGasPrice": "0x66720b300",
      "from": "0x0ece75f3c36f7df2136dac7633165dbff53de3cd",
      "to": "0xaf126b36958ef1a6ed80118841a7f1660f921346",
      "contractAddress": null
    },
    {
      "status": "0x1",
      "cumulativeGasUsed": "0x1e7376",
      "logs": [
        {
          "address": "0xaf126b36958ef1a6ed80118841a7f1660f921346",
          "topics": [
            "0x238399d427b947898edb290f5ff0f9109849b1c3ba196a42e35f00c50a54b98b"
          ],
          "data": "0x00000000000000000000000000000000000000000000000000000000000075e8000000000000000000000000bb4a3e822190c898c42c0836636d897ebdd8d53a",
          "blockHash": "0x71ff64bd70c7cbf74a66619390bc28c1a5229d3c1f7f026d5a20ead24a10e91e",
          "blockNumber": "0xbb118ae",
          "transactionHash": "0x0d99e6bc12ccf9afedd5b2edc34ae2e73fd098325c4e601ddddd23af6ae3f1ad",
          "transactionIndex": "0x2",
          "logIndex": "0x27",
          "removed": false
        }
      ],
      "logsBloom": "0x00000000000000000000000000000000000000000000000000000000000000000000000000000000000000000000000000000000000000000800000000000000000000000000000000000000800000000000000000000000000000000000000000000020000000000000000000000000000000000000000000000000000000000000000000000000000000000000000000000000000000000000000000000000000000000000000000000000000000000000000000000000000002000000000000000000000000000000000000000000000000000000000000040000000000000000000000000000000000000000000000000000000000000000000200000000",
      "type": "0x2",
      "transactionHash": "0x0d99e6bc12ccf9afedd5b2edc34ae2e73fd098325c4e601ddddd23af6ae3f1ad",
      "transactionIndex": "0x2",
      "blockHash": "0x71ff64bd70c7cbf74a66619390bc28c1a5229d3c1f7f026d5a20ead24a10e91e",
      "blockNumber": "0xbb118ae",
      "gasUsed": "0x79e9",
      "effectiveGasPrice": "0x66720b300",
      "from": "0x0ece75f3c36f7df2136dac7633165dbff53de3cd",
      "to": "0xaf126b36958ef1a6ed80118841a7f1660f921346",
      "contractAddress": null
    }
  ],
  "libraries": [],
  "pending": [],
  "returns": {},
  "timestamp": 1758223769052,
  "chain": 8217,
  "commit": "6c82bda"
}