{
  "transactions": [
    {
      "hash": "0x6a96c5d69ac2dffb94e5d2be71e46a206d60d96987e051df86ce7fe46b235f07",
      "transactionType": "CALL",
      "contractName": null,
      "contractAddress": "0x1a44076050125825900e736c501f859c50fe728c",
      "function": "setSendLibrary(address,uint32,address)",
      "arguments": [
        "0x1EffDCF81A95398920e024BB3b9ff60CE14590e7",
        "30184",
        "0x9714Ccf1dedeF14BaB5013625DB92746C1358cb4"
      ],
      "transaction": {
        "from": "0x0ece75f3c36f7df2136dac7633165dbff53de3cd",
        "to": "0x1a44076050125825900e736c501f859c50fe728c",
        "gas": "0x1378b",
        "value": "0x0",
        "input": "0x9535ff300000000000000000000000001effdcf81a95398920e024bb3b9ff60ce14590e700000000000000000000000000000000000000000000000000000000000075e80000000000000000000000009714ccf1dedef14bab5013625db92746c1358cb4",
        "nonce": "0xe7",
        "chainId": "0x2019"
      },
      "additionalContracts": [],
      "isFixedGasLimit": false
    },
    {
      "hash": "0xe416eb269b2832af33d78a38b508d1b94392b1b608a6ac1a90a69d294db0287b",
      "transactionType": "CALL",
      "contractName": null,
      "contractAddress": "0x1a44076050125825900e736c501f859c50fe728c",
      "function": "setSendLibrary(address,uint32,address)",
      "arguments": [
        "0x1EffDCF81A95398920e024BB3b9ff60CE14590e7",
        "30150",
        "0x9714Ccf1dedeF14BaB5013625DB92746C1358cb4"
      ],
      "transaction": {
        "from": "0x0ece75f3c36f7df2136dac7633165dbff53de3cd",
        "to": "0x1a44076050125825900e736c501f859c50fe728c",
        "gas": "0x1378b",
        "value": "0x0",
        "input": "0x9535ff300000000000000000000000001effdcf81a95398920e024bb3b9ff60ce14590e700000000000000000000000000000000000000000000000000000000000075c60000000000000000000000009714ccf1dedef14bab5013625db92746c1358cb4",
        "nonce": "0xe8",
        "chainId": "0x2019"
      },
      "additionalContracts": [],
      "isFixedGasLimit": false
    },
    {
      "hash": "0x87508a658ca0c92715137504d29717eef33d706787e6f0bb00cb2af35ea3cff7",
      "transactionType": "CALL",
      "contractName": null,
      "contractAddress": "0x1a44076050125825900e736c501f859c50fe728c",
      "function": "setReceiveLibrary(address,uint32,address,uint256)",
      "arguments": [
        "0x1EffDCF81A95398920e024BB3b9ff60CE14590e7",
        "30150",
        "0x937AbA873827BF883CeD83CA557697427eAA46Ee",
        "0"
      ],
      "transaction": {
        "from": "0x0ece75f3c36f7df2136dac7633165dbff53de3cd",
        "to": "0x1a44076050125825900e736c501f859c50fe728c",
        "gas": "0x17001",
        "value": "0x0",
        "input": "0x6a14d7150000000000000000000000001effdcf81a95398920e024bb3b9ff60ce14590e700000000000000000000000000000000000000000000000000000000000075c6000000000000000000000000937aba873827bf883ced83ca557697427eaa46ee0000000000000000000000000000000000000000000000000000000000000000",
        "nonce": "0xe9",
        "chainId": "0x2019"
      },
      "additionalContracts": [],
      "isFixedGasLimit": false
    },
    {
      "hash": "0x3466229c409fdf43eb12456b1600094a93b4b6e39095e91dcb165f1774807e3e",
      "transactionType": "CALL",
      "contractName": null,
      "contractAddress": "0x1a44076050125825900e736c501f859c50fe728c",
      "function": "setConfig(address,address,(uint32,uint32,bytes)[])",
      "arguments": [
        "0x1EffDCF81A95398920e024BB3b9ff60CE14590e7",
        "0x9714Ccf1dedeF14BaB5013625DB92746C1358cb4",
        "[(30184, 1, 0x0000000000000000000000000000000000000000000000000000000000002710000000000000000000000000e149187a987f129fd3d397ed04a60b0b89d1669f), (30184, 2, 0x0000000000000000000000000000000000000000000000000000000000000020000000000000000000000000000000000000000000000000000000000000000f000000000000000000000000000000000000000000000000000000000000000200000000000000000000000000000000000000000000000000000000000000ff000000000000000000000000000000000000000000000000000000000000000000000000000000000000000000000000000000000000000000000000000000c0000000000000000000000000000000000000000000000000000000000000012000000000000000000000000000000000000000000000000000000000000000020000000000000000000000001154d04d07aee26ff2c200bd373eb76a7e5694d6000000000000000000000000acde1f22eeab249d3ca6ba8805c8fee9f52a16e70000000000000000000000000000000000000000000000000000000000000000), (30150, 1, 0x0000000000000000000000000000000000000000000000000000000000002710000000000000000000000000e149187a987f129fd3d397ed04a60b0b89d1669f), (30150, 2, 0x0000000000000000000000000000000000000000000000000000000000000020000000000000000000000000000000000000000000000000000000000000000f000000000000000000000000000000000000000000000000000000000000000200000000000000000000000000000000000000000000000000000000000000ff000000000000000000000000000000000000000000000000000000000000000000000000000000000000000000000000000000000000000000000000000000c0000000000000000000000000000000000000000000000000000000000000012000000000000000000000000000000000000000000000000000000000000000020000000000000000000000001154d04d07aee26ff2c200bd373eb76a7e5694d6000000000000000000000000acde1f22eeab249d3ca6ba8805c8fee9f52a16e70000000000000000000000000000000000000000000000000000000000000000)]"
      ],
      "transaction": {
        "from": "0x0ece75f3c36f7df2136dac7633165dbff53de3cd",
        "to": "0x1a44076050125825900e736c501f859c50fe728c",
        "gas": "0x6605a",
        "value": "0x0",
        "input": "0x6dbd9f900000000000000000000000001effdcf81a95398920e024bb3b9ff60ce14590e70000000000000000000000009714ccf1dedef14bab5013625db92746c1358cb40000000000000000000000000000000000000000000000000000000000000060000000000000000000000000000000000000000000000000000000000000000400000000000000000000000000000000000000000000000000000000000000800000000000000000000000000000000000000000000000000000000000000140000000000000000000000000000000000000000000000000000000000000032000000000000000000000000000000000000000000000000000000000000003e000000000000000000000000000000000000000000000000000000000000075e80000000000000000000000000000000000000000000000000000000000000001000000000000000000000000000000000000000000000000000000000000006000000000000000000000000000000000000000000000000000000000000000400000000000000000000000000000000000000000000000000000000000002710000000000000000000000000e149187a987f129fd3d397ed04a60b0b89d1669f00000000000000000000000000000000000000000000000000000000000075e80000000000000000000000000000000000000000000000000000000000000002000000000000000000000000000000000000000000000000000000000000006000000000000000000000000000000000000000000000000000000000000001600000000000000000000000000000000000000000000000000000000000000020000000000000000000000000000000000000000000000000000000000000000f000000000000000000000000000000000000000000000000000000000000000200000000000000000000000000000000000000000000000000000000000000ff000000000000000000000000000000000000000000000000000000000000000000000000000000000000000000000000000000000000000000000000000000c0000000000000000000000000000000000000000000000000000000000000012000000000000000000000000000000000000000000000000000000000000000020000000000000000000000001154d04d07aee26ff2c200bd373eb76a7e5694d6000000000000000000000000acde1f22eeab249d3ca6ba8805c8fee9f52a16e7000000000000000000000000000000000000000000000000000000000000000000000000000000000000000000000000000000000000000000000000000075c60000000000000000000000000000000000000000000000000000000000000001000000000000000000000000000000000000000000000000000000000000006000000000000000000000000000000000000000000000000000000000000000400000000000000000000000000000000000000000000000000000000000002710000000000000000000000000e149187a987f129fd3d397ed04a60b0b89d1669f00000000000000000000000000000000000000000000000000000000000075c60000000000000000000000000000000000000000000000000000000000000002000000000000000000000000000000000000000000000000000000000000006000000000000000000000000000000000000000000000000000000000000001600000000000000000000000000000000000000000000000000000000000000020000000000000000000000000000000000000000000000000000000000000000f000000000000000000000000000000000000000000000000000000000000000200000000000000000000000000000000000000000000000000000000000000ff000000000000000000000000000000000000000000000000000000000000000000000000000000000000000000000000000000000000000000000000000000c0000000000000000000000000000000000000000000000000000000000000012000000000000000000000000000000000000000000000000000000000000000020000000000000000000000001154d04d07aee26ff2c200bd373eb76a7e5694d6000000000000000000000000acde1f22eeab249d3ca6ba8805c8fee9f52a16e70000000000000000000000000000000000000000000000000000000000000000",
        "nonce": "0xea",
        "chainId": "0x2019"
      },
      "additionalContracts": [],
      "isFixedGasLimit": false
    },
    {
      "hash": "0x1bf6571ba7503119bd7dbf43451c1bab742ad8b5e0af5040650fe98ed8f89c16",
      "transactionType": "CALL",
      "contractName": null,
      "contractAddress": "0x1a44076050125825900e736c501f859c50fe728c",
      "function": "setConfig(address,address,(uint32,uint32,bytes)[])",
      "arguments": [
        "0x1EffDCF81A95398920e024BB3b9ff60CE14590e7",
        "0x937AbA873827BF883CeD83CA557697427eAA46Ee",
        "[(30184, 2, 0x0000000000000000000000000000000000000000000000000000000000000020000000000000000000000000000000000000000000000000000000000000000f000000000000000000000000000000000000000000000000000000000000000200000000000000000000000000000000000000000000000000000000000000ff000000000000000000000000000000000000000000000000000000000000000000000000000000000000000000000000000000000000000000000000000000c0000000000000000000000000000000000000000000000000000000000000012000000000000000000000000000000000000000000000000000000000000000020000000000000000000000001154d04d07aee26ff2c200bd373eb76a7e5694d6000000000000000000000000acde1f22eeab249d3ca6ba8805c8fee9f52a16e70000000000000000000000000000000000000000000000000000000000000000), (30150, 2, 0x0000000000000000000000000000000000000000000000000000000000000020000000000000000000000000000000000000000000000000000000000000000f000000000000000000000000000000000000000000000000000000000000000200000000000000000000000000000000000000000000000000000000000000ff000000000000000000000000000000000000000000000000000000000000000000000000000000000000000000000000000000000000000000000000000000c0000000000000000000000000000000000000000000000000000000000000012000000000000000000000000000000000000000000000000000000000000000020000000000000000000000001154d04d07aee26ff2c200bd373eb76a7e5694d6000000000000000000000000acde1f22eeab249d3ca6ba8805c8fee9f52a16e70000000000000000000000000000000000000000000000000000000000000000)]"
      ],
      "transaction": {
        "from": "0x0ece75f3c36f7df2136dac7633165dbff53de3cd",
        "to": "0x1a44076050125825900e736c501f859c50fe728c",
        "gas": "0x58167",
        "value": "0x0",
        "input": "0x6dbd9f900000000000000000000000001effdcf81a95398920e024bb3b9ff60ce14590e7000000000000000000000000937aba873827bf883ced83ca557697427eaa46ee000000000000000000000000000000000000000000000000000000000000006000000000000000000000000000000000000000000000000000000000000000020000000000000000000000000000000000000000000000000000000000000040000000000000000000000000000000000000000000000000000000000000022000000000000000000000000000000000000000000000000000000000000075e80000000000000000000000000000000000000000000000000000000000000002000000000000000000000000000000000000000000000000000000000000006000000000000000000000000000000000000000000000000000000000000001600000000000000000000000000000000000000000000000000000000000000020000000000000000000000000000000000000000000000000000000000000000f000000000000000000000000000000000000000000000000000000000000000200000000000000000000000000000000000000000000000000000000000000ff000000000000000000000000000000000000000000000000000000000000000000000000000000000000000000000000000000000000000000000000000000c0000000000000000000000000000000000000000000000000000000000000012000000000000000000000000000000000000000000000000000000000000000020000000000000000000000001154d04d07aee26ff2c200bd373eb76a7e5694d6000000000000000000000000acde1f22eeab249d3ca6ba8805c8fee9f52a16e7000000000000000000000000000000000000000000000000000000000000000000000000000000000000000000000000000000000000000000000000000075c60000000000000000000000000000000000000000000000000000000000000002000000000000000000000000000000000000000000000000000000000000006000000000000000000000000000000000000000000000000000000000000001600000000000000000000000000000000000000000000000000000000000000020000000000000000000000000000000000000000000000000000000000000000f000000000000000000000000000000000000000000000000000000000000000200000000000000000000000000000000000000000000000000000000000000ff000000000000000000000000000000000000000000000000000000000000000000000000000000000000000000000000000000000000000000000000000000c0000000000000000000000000000000000000000000000000000000000000012000000000000000000000000000000000000000000000000000000000000000020000000000000000000000001154d04d07aee26ff2c200bd373eb76a7e5694d6000000000000000000000000acde1f22eeab249d3ca6ba8805c8fee9f52a16e70000000000000000000000000000000000000000000000000000000000000000",
        "nonce": "0xeb",
        "chainId": "0x2019"
      },
      "additionalContracts": [],
      "isFixedGasLimit": false
    },
    {
      "hash": "0x352c092ec12320508658d619cd6bfcb14223bf3f49d75996b3eda6379f709e9a",
      "transactionType": "CALL",
      "contractName": null,
      "contractAddress": "0x1effdcf81a95398920e024bb3b9ff60ce14590e7",
      "function": "setPeer(uint32,bytes32)",
      "arguments": [
        "30184",
        "0x0000000000000000000000001effdcf81a95398920e024bb3b9ff60ce14590e7"
      ],
      "transaction": {
        "from": "0x0ece75f3c36f7df2136dac7633165dbff53de3cd",
        "to": "0x1effdcf81a95398920e024bb3b9ff60ce14590e7",
        "gas": "0x104a6",
        "value": "0x0",
        "input": "0x3400288b00000000000000000000000000000000000000000000000000000000000075e80000000000000000000000001effdcf81a95398920e024bb3b9ff60ce14590e7",
        "nonce": "0xec",
        "chainId": "0x2019"
      },
      "additionalContracts": [],
      "isFixedGasLimit": false
    },
    {
      "hash": "0xf70bfa8edb2934fbaaad75181e4508752a986614a7563445f2fc7b6a0db97a0b",
      "transactionType": "CALL",
      "contractName": null,
      "contractAddress": "0x1effdcf81a95398920e024bb3b9ff60ce14590e7",
      "function": "setPeer(uint32,bytes32)",
      "arguments": [
        "30150",
        "0x0000000000000000000000001effdcf81a95398920e024bb3b9ff60ce14590e7"
      ],
      "transaction": {
        "from": "0x0ece75f3c36f7df2136dac7633165dbff53de3cd",
        "to": "0x1effdcf81a95398920e024bb3b9ff60ce14590e7",
        "gas": "0x104a6",
        "value": "0x0",
        "input": "0x3400288b00000000000000000000000000000000000000000000000000000000000075c60000000000000000000000001effdcf81a95398920e024bb3b9ff60ce14590e7",
        "nonce": "0xed",
        "chainId": "0x2019"
      },
      "additionalContracts": [],
      "isFixedGasLimit": false
    },
    {
      "hash": "0x50b3c24c591c499492fb8778cb8d64023e9e2929d4e8eb0dbbc5ae1530966a1f",
      "transactionType": "CALL",
      "contractName": null,
      "contractAddress": "0x1effdcf81a95398920e024bb3b9ff60ce14590e7",
      "function": "setEnforcedOptions((uint32,uint16,bytes)[])",
      "arguments": [
        "[(30150, 1, 0x00030100110100000000000000000000000000013880), (30184, 1, 0x000301001101000000000000000000000000000186a0)]"
      ],
      "transaction": {
        "from": "0x0ece75f3c36f7df2136dac7633165dbff53de3cd",
        "to": "0x1effdcf81a95398920e024bb3b9ff60ce14590e7",
        "gas": "0x1bd63",
        "value": "0x0",
        "input": "0xb98bd07000000000000000000000000000000000000000000000000000000000000000200000000000000000000000000000000000000000000000000000000000000002000000000000000000000000000000000000000000000000000000000000004000000000000000000000000000000000000000000000000000000000000000e000000000000000000000000000000000000000000000000000000000000075c6000000000000000000000000000000000000000000000000000000000000000100000000000000000000000000000000000000000000000000000000000000600000000000000000000000000000000000000000000000000000000000000016000301001101000000000000000000000000000138800000000000000000000000000000000000000000000000000000000000000000000000000000000075e8000000000000000000000000000000000000000000000000000000000000000100000000000000000000000000000000000000000000000000000000000000600000000000000000000000000000000000000000000000000000000000000016000301001101000000000000000000000000000186a000000000000000000000",
        "nonce": "0xee",
        "chainId": "0x2019"
      },
      "additionalContracts": [],
      "isFixedGasLimit": false
    }
  ],
  "receipts": [
    {
      "status": "0x1",
      "cumulativeGasUsed": "0x2d1b7",
      "logs": [
        {
          "address": "0x1a44076050125825900e736c501f859c50fe728c",
          "topics": [
            "0x4cff966ebee29a156dcb34cf72c1d06231fb1777f6bdf6e8089819232f002b1c"
          ],
          "data": "0x0000000000000000000000001effdcf81a95398920e024bb3b9ff60ce14590e700000000000000000000000000000000000000000000000000000000000075e80000000000000000000000009714ccf1dedef14bab5013625db92746c1358cb4",
          "blockHash": "0x36fd233c4db9dcb7d26b9cab6e4d88c635db4c789f3e4b1769c1483d873dca74",
          "blockNumber": "0xbb05cbc",
          "transactionHash": "0x6a96c5d69ac2dffb94e5d2be71e46a206d60d96987e051df86ce7fe46b235f07",
          "transactionIndex": "0x1",
          "logIndex": "0x0",
          "removed": false
        }
      ],
      "logsBloom": "0x00000000000000000000000000000000000200000000000000000000001000000000000000000000000000000000000000000000000000000000000001000000000000000000000000000000000000000000000000000000000000000000000000000000000000000000000000000000000000000010000000000000000000000000000000000000000000000000000000000000000000000000000000000000000000000000000000000000000000000000000000000000000000000000000000000000000000000000000000000000000000000000000000000000000000000040000000000000000000000000000000000000010000000000000000000000",
      "type": "0x2",
      "transactionHash": "0x6a96c5d69ac2dffb94e5d2be71e46a206d60d96987e051df86ce7fe46b235f07",
      "transactionIndex": "0x1",
      "blockHash": "0x36fd233c4db9dcb7d26b9cab6e4d88c635db4c789f3e4b1769c1483d873dca74",
      "blockNumber": "0xbb05cbc",
      "gasUsed": "0xe18e",
      "effectiveGasPrice": "0x66720b300",
      "from": "0x0ece75f3c36f7df2136dac7633165dbff53de3cd",
      "to": "0x1a44076050125825900e736c501f859c50fe728c",
      "contractAddress": null
    },
    {
      "status": "0x1",
      "cumulativeGasUsed": "0x3b345",
      "logs": [
        {
          "address": "0x1a44076050125825900e736c501f859c50fe728c",
          "topics": [
            "0x4cff966ebee29a156dcb34cf72c1d06231fb1777f6bdf6e8089819232f002b1c"
          ],
          "data": "0x0000000000000000000000001effdcf81a95398920e024bb3b9ff60ce14590e700000000000000000000000000000000000000000000000000000000000075c60000000000000000000000009714ccf1dedef14bab5013625db92746c1358cb4",
          "blockHash": "0x36fd233c4db9dcb7d26b9cab6e4d88c635db4c789f3e4b1769c1483d873dca74",
          "blockNumber": "0xbb05cbc",
          "transactionHash": "0xe416eb269b2832af33d78a38b508d1b94392b1b608a6ac1a90a69d294db0287b",
          "transactionIndex": "0x2",
          "logIndex": "0x1",
          "removed": false
        }
      ],
      "logsBloom": "0x00000000000000000000000000000000000200000000000000000000001000000000000000000000000000000000000000000000000000000000000001000000000000000000000000000000000000000000000000000000000000000000000000000000000000000000000000000000000000000010000000000000000000000000000000000000000000000000000000000000000000000000000000000000000000000000000000000000000000000000000000000000000000000000000000000000000000000000000000000000000000000000000000000000000000000040000000000000000000000000000000000000010000000000000000000000",
      "type": "0x2",
      "transactionHash": "0xe416eb269b2832af33d78a38b508d1b94392b1b608a6ac1a90a69d294db0287b",
      "transactionIndex": "0x2",
      "blockHash": "0x36fd233c4db9dcb7d26b9cab6e4d88c635db4c789f3e4b1769c1483d873dca74",
      "blockNumber": "0xbb05cbc",
      "gasUsed": "0xe18e",
      "effectiveGasPrice": "0x66720b300",
      "from": "0x0ece75f3c36f7df2136dac7633165dbff53de3cd",
      "to": "0x1a44076050125825900e736c501f859c50fe728c",
      "contractAddress": null
    },
    {
      "status": "0x1",
      "cumulativeGasUsed": "0x4aee6",
      "logs": [
        {
          "address": "0x1a44076050125825900e736c501f859c50fe728c",
          "topics": [
            "0xcd6f92f5ac6185a5acfa02c92090746cec64d777269cbcd0ed031e396657a1c2"
          ],
          "data": "0x0000000000000000000000001effdcf81a95398920e024bb3b9ff60ce14590e700000000000000000000000000000000000000000000000000000000000075c6000000000000000000000000937aba873827bf883ced83ca557697427eaa46ee",
          "blockHash": "0x36fd233c4db9dcb7d26b9cab6e4d88c635db4c789f3e4b1769c1483d873dca74",
          "blockNumber": "0xbb05cbc",
          "transactionHash": "0x87508a658ca0c92715137504d29717eef33d706787e6f0bb00cb2af35ea3cff7",
          "transactionIndex": "0x3",
          "logIndex": "0x2",
          "removed": false
        },
        {
          "address": "0x1a44076050125825900e736c501f859c50fe728c",
          "topics": [
            "0x4e0a5bbfa0c11a64effb1ada324b5437a17272e1aed9320398715ef71bb20928"
          ],
          "data": "0x0000000000000000000000001effdcf81a95398920e024bb3b9ff60ce14590e700000000000000000000000000000000000000000000000000000000000075c600000000000000000000000000000000000000000000000000000000000000000000000000000000000000000000000000000000000000000000000000000000",
          "blockHash": "0x36fd233c4db9dcb7d26b9cab6e4d88c635db4c789f3e4b1769c1483d873dca74",
          "blockNumber": "0xbb05cbc",
          "transactionHash": "0x87508a658ca0c92715137504d29717eef33d706787e6f0bb00cb2af35ea3cff7",
          "transactionIndex": "0x3",
          "logIndex": "0x3",
          "removed": false
        }
      ],
      "logsBloom": "0x00000000000000000000020800000000000000000000000000000000001000020400000000000000000000000000000000000000000000000000000000000000000000000000000000000000000000000000000000800000000000000000000000000000000000000000000000000000000000000010000000000000000000100000000000000000000000000000000000000000000000000000000000000000000000000000000000000000000000000000000000000000000000000000000000000000000000000000000000000000000000000000000000000000000000000000000000000000000000000000000000000000010000000000000000000000",
      "type": "0x2",
      "transactionHash": "0x87508a658ca0c92715137504d29717eef33d706787e6f0bb00cb2af35ea3cff7",
      "transactionIndex": "0x3",
      "blockHash": "0x36fd233c4db9dcb7d26b9cab6e4d88c635db4c789f3e4b1769c1483d873dca74",
      "blockNumber": "0xbb05cbc",
      "gasUsed": "0xfba1",
      "effectiveGasPrice": "0x66720b300",
      "from": "0x0ece75f3c36f7df2136dac7633165dbff53de3cd",
      "to": "0x1a44076050125825900e736c501f859c50fe728c",
      "contractAddress": null
    },
    {
      "status": "0x1",
      "cumulativeGasUsed": "0xa5318",
      "logs": [
        {
          "address": "0x9714ccf1dedef14bab5013625db92746c1358cb4",
          "topics": [
            "0x779cb2dd9d2bb1be1737d05435d744facbfb84a2a4912e21379d39beddcdc805"
          ],
          "data": "0x0000000000000000000000001effdcf81a95398920e024bb3b9ff60ce14590e700000000000000000000000000000000000000000000000000000000000075e80000000000000000000000000000000000000000000000000000000000002710000000000000000000000000e149187a987f129fd3d397ed04a60b0b89d1669f",
          "blockHash": "0x36fd233c4db9dcb7d26b9cab6e4d88c635db4c789f3e4b1769c1483d873dca74",
          "blockNumber": "0xbb05cbc",
          "transactionHash": "0x3466229c409fdf43eb12456b1600094a93b4b6e39095e91dcb165f1774807e3e",
          "transactionIndex": "0x6",
          "logIndex": "0x5",
          "removed": false
        },
        {
          "address": "0x9714ccf1dedef14bab5013625db92746c1358cb4",
          "topics": [
            "0x82118522aa536ac0e96cc5c689407ae42b89d592aa133890a01f1509842f5081"
          ],
          "data": "0x0000000000000000000000001effdcf81a95398920e024bb3b9ff60ce14590e700000000000000000000000000000000000000000000000000000000000075e80000000000000000000000000000000000000000000000000000000000000060000000000000000000000000000000000000000000000000000000000000000f000000000000000000000000000000000000000000000000000000000000000200000000000000000000000000000000000000000000000000000000000000ff000000000000000000000000000000000000000000000000000000000000000000000000000000000000000000000000000000000000000000000000000000c0000000000000000000000000000000000000000000000000000000000000012000000000000000000000000000000000000000000000000000000000000000020000000000000000000000001154d04d07aee26ff2c200bd373eb76a7e5694d6000000000000000000000000acde1f22eeab249d3ca6ba8805c8fee9f52a16e70000000000000000000000000000000000000000000000000000000000000000",
          "blockHash": "0x36fd233c4db9dcb7d26b9cab6e4d88c635db4c789f3e4b1769c1483d873dca74",
          "blockNumber": "0xbb05cbc",
          "transactionHash": "0x3466229c409fdf43eb12456b1600094a93b4b6e39095e91dcb165f1774807e3e",
          "transactionIndex": "0x6",
          "logIndex": "0x6",
          "removed": false
        },
        {
          "address": "0x9714ccf1dedef14bab5013625db92746c1358cb4",
          "topics": [
            "0x779cb2dd9d2bb1be1737d05435d744facbfb84a2a4912e21379d39beddcdc805"
          ],
          "data": "0x0000000000000000000000001effdcf81a95398920e024bb3b9ff60ce14590e700000000000000000000000000000000000000000000000000000000000075c60000000000000000000000000000000000000000000000000000000000002710000000000000000000000000e149187a987f129fd3d397ed04a60b0b89d1669f",
          "blockHash": "0x36fd233c4db9dcb7d26b9cab6e4d88c635db4c789f3e4b1769c1483d873dca74",
          "blockNumber": "0xbb05cbc",
          "transactionHash": "0x3466229c409fdf43eb12456b1600094a93b4b6e39095e91dcb165f1774807e3e",
          "transactionIndex": "0x6",
          "logIndex": "0x7",
          "removed": false
        },
        {
          "address": "0x9714ccf1dedef14bab5013625db92746c1358cb4",
          "topics": [
            "0x82118522aa536ac0e96cc5c689407ae42b89d592aa133890a01f1509842f5081"
          ],
          "data": "0x0000000000000000000000001effdcf81a95398920e024bb3b9ff60ce14590e700000000000000000000000000000000000000000000000000000000000075c60000000000000000000000000000000000000000000000000000000000000060000000000000000000000000000000000000000000000000000000000000000f000000000000000000000000000000000000000000000000000000000000000200000000000000000000000000000000000000000000000000000000000000ff000000000000000000000000000000000000000000000000000000000000000000000000000000000000000000000000000000000000000000000000000000c0000000000000000000000000000000000000000000000000000000000000012000000000000000000000000000000000000000000000000000000000000000020000000000000000000000001154d04d07aee26ff2c200bd373eb76a7e5694d6000000000000000000000000acde1f22eeab249d3ca6ba8805c8fee9f52a16e70000000000000000000000000000000000000000000000000000000000000000",
          "blockHash": "0x36fd233c4db9dcb7d26b9cab6e4d88c635db4c789f3e4b1769c1483d873dca74",
          "blockNumber": "0xbb05cbc",
          "transactionHash": "0x3466229c409fdf43eb12456b1600094a93b4b6e39095e91dcb165f1774807e3e",
          "transactionIndex": "0x6",
          "logIndex": "0x8",
          "removed": false
        }
      ],
      "logsBloom": "0x00000000000000000000000000000000000000000000000000000000000000000000000000000000000000000000000000000000000000000000000000000000000000000000000000000040000000020000000000000000002000000000000000000000000000000000000000000000000000000000000000000000000000040000000000000000000000000000000000000000000000000000000000000000000000000000000000000002000000000000000000000000000000000000000200000004000000000000000000000000000000000000000000000000000000000008000000000000000000000000000000000000000000000000000000000010",
      "type": "0x2",
      "transactionHash": "0x3466229c409fdf43eb12456b1600094a93b4b6e39095e91dcb165f1774807e3e",
      "transactionIndex": "0x6",
      "blockHash": "0x36fd233c4db9dcb7d26b9cab6e4d88c635db4c789f3e4b1769c1483d873dca74",
      "blockNumber": "0xbb05cbc",
      "gasUsed": "0x49dcc",
      "effectiveGasPrice": "0x66720b300",
      "from": "0x0ece75f3c36f7df2136dac7633165dbff53de3cd",
      "to": "0x1a44076050125825900e736c501f859c50fe728c",
      "contractAddress": null
    },
    {
      "status": "0x1",
      "cumulativeGasUsed": "0xe16ca",
      "logs": [
        {
          "address": "0x937aba873827bf883ced83ca557697427eaa46ee",
          "topics": [
            "0x82118522aa536ac0e96cc5c689407ae42b89d592aa133890a01f1509842f5081"
          ],
          "data": "0x0000000000000000000000001effdcf81a95398920e024bb3b9ff60ce14590e700000000000000000000000000000000000000000000000000000000000075e80000000000000000000000000000000000000000000000000000000000000060000000000000000000000000000000000000000000000000000000000000000f000000000000000000000000000000000000000000000000000000000000000200000000000000000000000000000000000000000000000000000000000000ff000000000000000000000000000000000000000000000000000000000000000000000000000000000000000000000000000000000000000000000000000000c0000000000000000000000000000000000000000000000000000000000000012000000000000000000000000000000000000000000000000000000000000000020000000000000000000000001154d04d07aee26ff2c200bd373eb76a7e5694d6000000000000000000000000acde1f22eeab249d3ca6ba8805c8fee9f52a16e70000000000000000000000000000000000000000000000000000000000000000",
          "blockHash": "0x36fd233c4db9dcb7d26b9cab6e4d88c635db4c789f3e4b1769c1483d873dca74",
          "blockNumber": "0xbb05cbc",
          "transactionHash": "0x1bf6571ba7503119bd7dbf43451c1bab742ad8b5e0af5040650fe98ed8f89c16",
          "transactionIndex": "0x7",
          "logIndex": "0x9",
          "removed": false
        },
        {
          "address": "0x937aba873827bf883ced83ca557697427eaa46ee",
          "topics": [
            "0x82118522aa536ac0e96cc5c689407ae42b89d592aa133890a01f1509842f5081"
          ],
          "data": "0x0000000000000000000000001effdcf81a95398920e024bb3b9ff60ce14590e700000000000000000000000000000000000000000000000000000000000075c60000000000000000000000000000000000000000000000000000000000000060000000000000000000000000000000000000000000000000000000000000000f000000000000000000000000000000000000000000000000000000000000000200000000000000000000000000000000000000000000000000000000000000ff000000000000000000000000000000000000000000000000000000000000000000000000000000000000000000000000000000000000000000000000000000c0000000000000000000000000000000000000000000000000000000000000012000000000000000000000000000000000000000000000000000000000000000020000000000000000000000001154d04d07aee26ff2c200bd373eb76a7e5694d6000000000000000000000000acde1f22eeab249d3ca6ba8805c8fee9f52a16e70000000000000000000000000000000000000000000000000000000000000000",
          "blockHash": "0x36fd233c4db9dcb7d26b9cab6e4d88c635db4c789f3e4b1769c1483d873dca74",
          "blockNumber": "0xbb05cbc",
          "transactionHash": "0x1bf6571ba7503119bd7dbf43451c1bab742ad8b5e0af5040650fe98ed8f89c16",
          "transactionIndex": "0x7",
          "logIndex": "0xa",
          "removed": false
        }
      ],
      "logsBloom": "0x00000000000000000000000000000000000000000000000000000000000000000100000000000000000000000000000000000000000000800000000000000000000000000000000000000000000000000000000000000000002000000000000000000000000000000000000000000000000000000000000000000000000000000000000000000000000000000000000000000000000000000000000000000000000000000000000000000002000000000000000000000000000000000000000008000000000000000000000000000000000000000000000000000000000000000000000000000000000000000000000000000000000000000000000000000010",
      "type": "0x2",
      "transactionHash": "0x1bf6571ba7503119bd7dbf43451c1bab742ad8b5e0af5040650fe98ed8f89c16",
      "transactionIndex": "0x7",
      "blockHash": "0x36fd233c4db9dcb7d26b9cab6e4d88c635db4c789f3e4b1769c1483d873dca74",
      "blockNumber": "0xbb05cbc",
      "gasUsed": "0x3c3b2",
      "effectiveGasPrice": "0x66720b300",
      "from": "0x0ece75f3c36f7df2136dac7633165dbff53de3cd",
      "to": "0x1a44076050125825900e736c501f859c50fe728c",
      "contractAddress": null
    },
    {
      "status": "0x1",
      "cumulativeGasUsed": "0xed37f",
      "logs": [
        {
          "address": "0x1effdcf81a95398920e024bb3b9ff60ce14590e7",
          "topics": [
            "0x238399d427b947898edb290f5ff0f9109849b1c3ba196a42e35f00c50a54b98b"
          ],
          "data": "0x00000000000000000000000000000000000000000000000000000000000075e80000000000000000000000001effdcf81a95398920e024bb3b9ff60ce14590e7",
          "blockHash": "0x36fd233c4db9dcb7d26b9cab6e4d88c635db4c789f3e4b1769c1483d873dca74",
          "blockNumber": "0xbb05cbc",
          "transactionHash": "0x352c092ec12320508658d619cd6bfcb14223bf3f49d75996b3eda6379f709e9a",
          "transactionIndex": "0x8",
          "logIndex": "0xb",
          "removed": false
        }
      ],
      "logsBloom": "0x00000000000000000000000000000000000000000000000000000000000000000000000000000000000000000000000000000000000000000800000000000000000040000000000000000000000000000000000000000000000000000000000000000000000000000000000000000000000000000000000800000000000000000000000000000000000000000000000000000000000000000000000000000000000000000000000000000000000000000000000000000000000002000000000000000000000000000000000000000000000000000000000000040000000000800000000000000000000000000000000000000000000000000000000000000000",
      "type": "0x2",
      "transactionHash": "0x352c092ec12320508658d619cd6bfcb14223bf3f49d75996b3eda6379f709e9a",
      "transactionIndex": "0x8",
      "blockHash": "0x36fd233c4db9dcb7d26b9cab6e4d88c635db4c789f3e4b1769c1483d873dca74",
      "blockNumber": "0xbb05cbc",
      "gasUsed": "0xbcb5",
      "effectiveGasPrice": "0x66720b300",
      "from": "0x0ece75f3c36f7df2136dac7633165dbff53de3cd",
      "to": "0x1effdcf81a95398920e024bb3b9ff60ce14590e7",
      "contractAddress": null
    },
    {
      "status": "0x1",
      "cumulativeGasUsed": "0xf9034",
      "logs": [
        {
          "address": "0x1effdcf81a95398920e024bb3b9ff60ce14590e7",
          "topics": [
            "0x238399d427b947898edb290f5ff0f9109849b1c3ba196a42e35f00c50a54b98b"
          ],
          "data": "0x00000000000000000000000000000000000000000000000000000000000075c60000000000000000000000001effdcf81a95398920e024bb3b9ff60ce14590e7",
          "blockHash": "0x36fd233c4db9dcb7d26b9cab6e4d88c635db4c789f3e4b1769c1483d873dca74",
          "blockNumber": "0xbb05cbc",
          "transactionHash": "0xf70bfa8edb2934fbaaad75181e4508752a986614a7563445f2fc7b6a0db97a0b",
          "transactionIndex": "0x9",
          "logIndex": "0xc",
          "removed": false
        }
      ],
      "logsBloom": "0x00000000000000000000000000000000000000000000000000000000000000000000000000000000000000000000000000000000000000000800000000000000000040000000000000000000000000000000000000000000000000000000000000000000000000000000000000000000000000000000000800000000000000000000000000000000000000000000000000000000000000000000000000000000000000000000000000000000000000000000000000000000000002000000000000000000000000000000000000000000000000000000000000040000000000800000000000000000000000000000000000000000000000000000000000000000",
      "type": "0x2",
      "transactionHash": "0xf70bfa8edb2934fbaaad75181e4508752a986614a7563445f2fc7b6a0db97a0b",
      "transactionIndex": "0x9",
      "blockHash": "0x36fd233c4db9dcb7d26b9cab6e4d88c635db4c789f3e4b1769c1483d873dca74",
      "blockNumber": "0xbb05cbc",
      "gasUsed": "0xbcb5",
      "effectiveGasPrice": "0x66720b300",
      "from": "0x0ece75f3c36f7df2136dac7633165dbff53de3cd",
      "to": "0x1effdcf81a95398920e024bb3b9ff60ce14590e7",
      "contractAddress": null
    },
    {
      "status": "0x1",
      "cumulativeGasUsed": "0x10d2a8",
      "logs": [
        {
          "address": "0x1effdcf81a95398920e024bb3b9ff60ce14590e7",
          "topics": [
            "0xbe4864a8e820971c0247f5992e2da559595f7bf076a21cb5928d443d2a13b674"
          ],
          "data": "0x00000000000000000000000000000000000000000000000000000000000000200000000000000000000000000000000000000000000000000000000000000002000000000000000000000000000000000000000000000000000000000000004000000000000000000000000000000000000000000000000000000000000000e000000000000000000000000000000000000000000000000000000000000075c6000000000000000000000000000000000000000000000000000000000000000100000000000000000000000000000000000000000000000000000000000000600000000000000000000000000000000000000000000000000000000000000016000301001101000000000000000000000000000138800000000000000000000000000000000000000000000000000000000000000000000000000000000075e8000000000000000000000000000000000000000000000000000000000000000100000000000000000000000000000000000000000000000000000000000000600000000000000000000000000000000000000000000000000000000000000016000301001101000000000000000000000000000186a000000000000000000000",
          "blockHash": "0x36fd233c4db9dcb7d26b9cab6e4d88c635db4c789f3e4b1769c1483d873dca74",
          "blockNumber": "0xbb05cbc",
          "transactionHash": "0x50b3c24c591c499492fb8778cb8d64023e9e2929d4e8eb0dbbc5ae1530966a1f",
          "transactionIndex": "0xa",
          "logIndex": "0xd",
          "removed": false
        }
      ],
      "logsBloom": "0x00000000000000000000000000000000000000000000000000000000000000000000000000000000000000000000000000000000000000000000400000000000000040000000000000000000000000000000000000000000000000000000000000000000000000000000000000000000000000000000000800000000000000000000000000000000000000000000000000000000000000000000000000080000000000000000000000000000000000000000000000000000000000000000000000000000000000000000000002000000000000000000000000000000000000800000000000000000000000000000000000000000000000000000000000000000",
      "type": "0x2",
      "transactionHash": "0x50b3c24c591c499492fb8778cb8d64023e9e2929d4e8eb0dbbc5ae1530966a1f",
      "transactionIndex": "0xa",
      "blockHash": "0x36fd233c4db9dcb7d26b9cab6e4d88c635db4c789f3e4b1769c1483d873dca74",
      "blockNumber": "0xbb05cbc",
      "gasUsed": "0x14274",
      "effectiveGasPrice": "0x66720b300",
      "from": "0x0ece75f3c36f7df2136dac7633165dbff53de3cd",
      "to": "0x1effdcf81a95398920e024bb3b9ff60ce14590e7",
      "contractAddress": null
    }
  ],
  "libraries": [],
  "pending": [],
  "returns": {},
  "timestamp": 1758175082916,
  "chain": 8217,
  "commit": "6c82bda"
}