{
  "transactions": [
    {
      "hash": "0x75ffe6ee6ea17b8f4e25ee21ae8fe6b72fcaabf9915559a4219adfea2c734ad5",
      "transactionType": "CALL",
      "contractName": null,
      "contractAddress": "0x1a44076050125825900e736c501f859c50fe728c",
      "function": "setSendLibrary(address,uint32,address)",
      "arguments": [
        "0xaF126B36958Ef1A6Ed80118841A7f1660f921346",
        "30184",
        "0x9714Ccf1dedeF14BaB5013625DB92746C1358cb4"
      ],
      "transaction": {
        "from": "0x0ece75f3c36f7df2136dac7633165dbff53de3cd",
        "to": "0x1a44076050125825900e736c501f859c50fe728c",
        "gas": "0x1378b",
        "value": "0x0",
        "input": "0x9535ff30000000000000000000000000af126b36958ef1a6ed80118841a7f1660f92134600000000000000000000000000000000000000000000000000000000000075e80000000000000000000000009714ccf1dedef14bab5013625db92746c1358cb4",
        "nonce": "0xf1",
        "chainId": "0x2019"
      },
      "additionalContracts": [],
      "isFixedGasLimit": false
    },
    {
      "hash": "0xb6fe5f6f3008e56370be77fc1a4aa44f239c46aa778130890eb407235a1ff63c",
      "transactionType": "CALL",
      "contractName": null,
      "contractAddress": "0x1a44076050125825900e736c501f859c50fe728c",
      "function": "setSendLibrary(address,uint32,address)",
      "arguments": [
        "0xaF126B36958Ef1A6Ed80118841A7f1660f921346",
        "30150",
        "0x9714Ccf1dedeF14BaB5013625DB92746C1358cb4"
      ],
      "transaction": {
        "from": "0x0ece75f3c36f7df2136dac7633165dbff53de3cd",
        "to": "0x1a44076050125825900e736c501f859c50fe728c",
        "gas": "0x1378b",
        "value": "0x0",
        "input": "0x9535ff30000000000000000000000000af126b36958ef1a6ed80118841a7f1660f92134600000000000000000000000000000000000000000000000000000000000075c60000000000000000000000009714ccf1dedef14bab5013625db92746c1358cb4",
        "nonce": "0xf2",
        "chainId": "0x2019"
      },
      "additionalContracts": [],
      "isFixedGasLimit": false
    },
    {
      "hash": "0xd446fadddcc5005d07747850f1745f662538d765ec639ed19e3a4090ce9cf32d",
      "transactionType": "CALL",
      "contractName": null,
      "contractAddress": "0x1a44076050125825900e736c501f859c50fe728c",
      "function": "setReceiveLibrary(address,uint32,address,uint256)",
      "arguments": [
        "0xaF126B36958Ef1A6Ed80118841A7f1660f921346",
        "30150",
        "0x937AbA873827BF883CeD83CA557697427eAA46Ee",
        "0"
      ],
      "transaction": {
        "from": "0x0ece75f3c36f7df2136dac7633165dbff53de3cd",
        "to": "0x1a44076050125825900e736c501f859c50fe728c",
        "gas": "0x17001",
        "value": "0x0",
        "input": "0x6a14d715000000000000000000000000af126b36958ef1a6ed80118841a7f1660f92134600000000000000000000000000000000000000000000000000000000000075c6000000000000000000000000937aba873827bf883ced83ca557697427eaa46ee0000000000000000000000000000000000000000000000000000000000000000",
        "nonce": "0xf3",
        "chainId": "0x2019"
      },
      "additionalContracts": [],
      "isFixedGasLimit": false
    }
  ],
  "receipts": [
    {
      "status": "0x1",
      "cumulativeGasUsed": "0xd95ee",
      "logs": [
        {
          "address": "0x1a44076050125825900e736c501f859c50fe728c",
          "topics": [
            "0x4cff966ebee29a156dcb34cf72c1d06231fb1777f6bdf6e8089819232f002b1c"
          ],
          "data": "0x000000000000000000000000af126b36958ef1a6ed80118841a7f1660f92134600000000000000000000000000000000000000000000000000000000000075e80000000000000000000000009714ccf1dedef14bab5013625db92746c1358cb4",
          "blockHash": "0x243ab369973e3abba84d64fa9f8b51740dc8e16696dfec83e45ced221331ed83",
          "blockNumber": "0xbb05f1d",
          "transactionHash": "0x75ffe6ee6ea17b8f4e25ee21ae8fe6b72fcaabf9915559a4219adfea2c734ad5",
          "transactionIndex": "0x5",
          "logIndex": "0x13",
          "removed": false
        }
      ],
      "logsBloom": "0x00000000000000000000000000000000000200000000000000000000001000000000000000000000000000000000000000000000000000000000000001000000000000000000000000000000000000000000000000000000000000000000000000000000000000000000000000000000000000000010000000000000000000000000000000000000000000000000000000000000000000000000000000000000000000000000000000000000000000000000000000000000000000000000000000000000000000000000000000000000000000000000000000000000000000000040000000000000000000000000000000000000010000000000000000000000",
      "type": "0x2",
      "transactionHash": "0x75ffe6ee6ea17b8f4e25ee21ae8fe6b72fcaabf9915559a4219adfea2c734ad5",
      "transactionIndex": "0x5",
      "blockHash": "0x243ab369973e3abba84d64fa9f8b51740dc8e16696dfec83e45ced221331ed83",
      "blockNumber": "0xbb05f1d",
      "gasUsed": "0xe18e",
      "effectiveGasPrice": "0x66720b300",
      "from": "0x0ece75f3c36f7df2136dac7633165dbff53de3cd",
      "to": "0x1a44076050125825900e736c501f859c50fe728c",
      "contractAddress": null
    },
    {
      "status": "0x1",
      "cumulativeGasUsed": "0xe777c",
      "logs": [
        {
          "address": "0x1a44076050125825900e736c501f859c50fe728c",
          "topics": [
            "0x4cff966ebee29a156dcb34cf72c1d06231fb1777f6bdf6e8089819232f002b1c"
          ],
          "data": "0x000000000000000000000000af126b36958ef1a6ed80118841a7f1660f92134600000000000000000000000000000000000000000000000000000000000075c60000000000000000000000009714ccf1dedef14bab5013625db92746c1358cb4",
          "blockHash": "0x243ab369973e3abba84d64fa9f8b51740dc8e16696dfec83e45ced221331ed83",
          "blockNumber": "0xbb05f1d",
          "transactionHash": "0xb6fe5f6f3008e56370be77fc1a4aa44f239c46aa778130890eb407235a1ff63c",
          "transactionIndex": "0x6",
          "logIndex": "0x14",
          "removed": false
        }
      ],
      "logsBloom": "0x00000000000000000000000000000000000200000000000000000000001000000000000000000000000000000000000000000000000000000000000001000000000000000000000000000000000000000000000000000000000000000000000000000000000000000000000000000000000000000010000000000000000000000000000000000000000000000000000000000000000000000000000000000000000000000000000000000000000000000000000000000000000000000000000000000000000000000000000000000000000000000000000000000000000000000040000000000000000000000000000000000000010000000000000000000000",
      "type": "0x2",
      "transactionHash": "0xb6fe5f6f3008e56370be77fc1a4aa44f239c46aa778130890eb407235a1ff63c",
      "transactionIndex": "0x6",
      "blockHash": "0x243ab369973e3abba84d64fa9f8b51740dc8e16696dfec83e45ced221331ed83",
      "blockNumber": "0xbb05f1d",
      "gasUsed": "0xe18e",
      "effectiveGasPrice": "0x66720b300",
      "from": "0x0ece75f3c36f7df2136dac7633165dbff53de3cd",
      "to": "0x1a44076050125825900e736c501f859c50fe728c",
      "contractAddress": null
    },
    {
      "status": "0x1",
      "cumulativeGasUsed": "0xf731d",
      "logs": [
        {
          "address": "0x1a44076050125825900e736c501f859c50fe728c",
          "topics": [
            "0xcd6f92f5ac6185a5acfa02c92090746cec64d777269cbcd0ed031e396657a1c2"
          ],
          "data": "0x000000000000000000000000af126b36958ef1a6ed80118841a7f1660f92134600000000000000000000000000000000000000000000000000000000000075c6000000000000000000000000937aba873827bf883ced83ca557697427eaa46ee",
          "blockHash": "0x243ab369973e3abba84d64fa9f8b51740dc8e16696dfec83e45ced221331ed83",
          "blockNumber": "0xbb05f1d",
          "transactionHash": "0xd446fadddcc5005d07747850f1745f662538d765ec639ed19e3a4090ce9cf32d",
          "transactionIndex": "0x7",
          "logIndex": "0x15",
          "removed": false
        },
        {
          "address": "0x1a44076050125825900e736c501f859c50fe728c",
          "topics": [
            "0x4e0a5bbfa0c11a64effb1ada324b5437a17272e1aed9320398715ef71bb20928"
          ],
          "data": "0x000000000000000000000000af126b36958ef1a6ed80118841a7f1660f92134600000000000000000000000000000000000000000000000000000000000075c600000000000000000000000000000000000000000000000000000000000000000000000000000000000000000000000000000000000000000000000000000000",
          "blockHash": "0x243ab369973e3abba84d64fa9f8b51740dc8e16696dfec83e45ced221331ed83",
          "blockNumber": "0xbb05f1d",
          "transactionHash": "0xd446fadddcc5005d07747850f1745f662538d765ec639ed19e3a4090ce9cf32d",
          "transactionIndex": "0x7",
          "logIndex": "0x16",
          "removed": false
        }
      ],
      "logsBloom": "0x00000000000000000000020800000000000000000000000000000000001000020400000000000000000000000000000000000000000000000000000000000000000000000000000000000000000000000000000000800000000000000000000000000000000000000000000000000000000000000010000000000000000000100000000000000000000000000000000000000000000000000000000000000000000000000000000000000000000000000000000000000000000000000000000000000000000000000000000000000000000000000000000000000000000000000000000000000000000000000000000000000000010000000000000000000000",
      "type": "0x2",
      "transactionHash": "0xd446fadddcc5005d07747850f1745f662538d765ec639ed19e3a4090ce9cf32d",
      "transactionIndex": "0x7",
      "blockHash": "0x243ab369973e3abba84d64fa9f8b51740dc8e16696dfec83e45ced221331ed83",
      "blockNumber": "0xbb05f1d",
      "gasUsed": "0xfba1",
      "effectiveGasPrice": "0x66720b300",
      "from": "0x0ece75f3c36f7df2136dac7633165dbff53de3cd",
      "to": "0x1a44076050125825900e736c501f859c50fe728c",
      "contractAddress": null
    }
  ],
  "libraries": [],
  "pending": [],
  "returns": {},
  "timestamp": 1758175704485,
  "chain": 8217,
  "commit": "6c82bda"
}