{
  "transactions": [
    {
      "hash": "0xe1f65c9aebdd391b006a77fb0160e3bf8cfd183c69bec6039273eb7371bd7d9c",
      "transactionType": "CALL",
      "contractName": null,
      "contractAddress": "0xaf126b36958ef1a6ed80118841a7f1660f921346",
      "function": "setPeer(uint32,bytes32)",
      "arguments": [
        "30150",
        "0x000000000000000000000000af126b36958ef1a6ed80118841a7f1660f921346"
      ],
      "transaction": {
        "from": "0x0ece75f3c36f7df2136dac7633165dbff53de3cd",
        "to": "0xaf126b36958ef1a6ed80118841a7f1660f921346",
        "gas": "0x104a6",
        "value": "0x0",
        "input": "0x3400288b00000000000000000000000000000000000000000000000000000000000075c6000000000000000000000000af126b36958ef1a6ed80118841a7f1660f921346",
        "nonce": "0xf6",
        "chainId": "0x2019"
      },
      "additionalContracts": [],
      "isFixedGasLimit": false
    },
    {
      "hash": "0x910c99c9cad546dc6da977f4e97f0eff7ae8a9e02c2611e2321c9e81e890fdea",
      "transactionType": "CALL",
      "contractName": null,
      "contractAddress": "0xaf126b36958ef1a6ed80118841a7f1660f921346",
      "function": "setPeer(uint32,bytes32)",
      "arguments": [
        "30184",
        "0x000000000000000000000000cbb5df94d28e0639ce82ccc46a28eba34b29a674"
      ],
      "transaction": {
        "from": "0x0ece75f3c36f7df2136dac7633165dbff53de3cd",
        "to": "0xaf126b36958ef1a6ed80118841a7f1660f921346",
        "gas": "0x104a6",
        "value": "0x0",
        "input": "0x3400288b00000000000000000000000000000000000000000000000000000000000075e8000000000000000000000000cbb5df94d28e0639ce82ccc46a28eba34b29a674",
        "nonce": "0xf7",
        "chainId": "0x2019"
      },
      "additionalContracts": [],
      "isFixedGasLimit": false
    }
  ],
  "receipts": [
    {
      "status": "0x1",
      "cumulativeGasUsed": "0x1d3df",
      "logs": [
        {
          "address": "0xaf126b36958ef1a6ed80118841a7f1660f921346",
          "topics": [
            "0x238399d427b947898edb290f5ff0f9109849b1c3ba196a42e35f00c50a54b98b"
          ],
          "data": "0x00000000000000000000000000000000000000000000000000000000000075c6000000000000000000000000af126b36958ef1a6ed80118841a7f1660f921346",
          "blockHash": "0xb5060433d2bc228223fdaa9aa45bd89f81b937a56d6d5677e2fdc66c1ef6a423",
          "blockNumber": "0xbb06052",
          "transactionHash": "0xe1f65c9aebdd391b006a77fb0160e3bf8cfd183c69bec6039273eb7371bd7d9c",
          "transactionIndex": "0x3",
          "logIndex": "0x3",
          "removed": false
        }
      ],
      "logsBloom": "0x00000000000000000000000000000000000000000000000000000000000000000000000000000000000000000000000000000000000000000800000000000000000000000000000000000000800000000000000000000000000000000000000000000020000000000000000000000000000000000000000000000000000000000000000000000000000000000000000000000000000000000000000000000000000000000000000000000000000000000000000000000000000002000000000000000000000000000000000000000000000000000000000000040000000000000000000000000000000000000000000000000000000000000000000200000000",
      "type": "0x2",
      "transactionHash": "0xe1f65c9aebdd391b006a77fb0160e3bf8cfd183c69bec6039273eb7371bd7d9c",
      "transactionIndex": "0x3",
      "blockHash": "0xb5060433d2bc228223fdaa9aa45bd89f81b937a56d6d5677e2fdc66c1ef6a423",
      "blockNumber": "0xbb06052",
      "gasUsed": "0xbcb5",
      "effectiveGasPrice": "0x66720b300",
      "from": "0x0ece75f3c36f7df2136dac7633165dbff53de3cd",
      "to": "0xaf126b36958ef1a6ed80118841a7f1660f921346",
      "contractAddress": null
    },
    {
      "status": "0x1",
      "cumulativeGasUsed": "0x2eda6",
      "logs": [
        {
          "address": "0xaf126b36958ef1a6ed80118841a7f1660f921346",
          "topics": [
            "0x238399d427b947898edb290f5ff0f9109849b1c3ba196a42e35f00c50a54b98b"
          ],
          "data": "0x00000000000000000000000000000000000000000000000000000000000075e8000000000000000000000000cbb5df94d28e0639ce82ccc46a28eba34b29a674",
          "blockHash": "0xb5060433d2bc228223fdaa9aa45bd89f81b937a56d6d5677e2fdc66c1ef6a423",
          "blockNumber": "0xbb06052",
          "transactionHash": "0x910c99c9cad546dc6da977f4e97f0eff7ae8a9e02c2611e2321c9e81e890fdea",
          "transactionIndex": "0x5",
          "logIndex": "0x5",
          "removed": false
        }
      ],
      "logsBloom": "0x00000000000000000000000000000000000000000000000000000000000000000000000000000000000000000000000000000000000000000800000000000000000000000000000000000000800000000000000000000000000000000000000000000020000000000000000000000000000000000000000000000000000000000000000000000000000000000000000000000000000000000000000000000000000000000000000000000000000000000000000000000000000002000000000000000000000000000000000000000000000000000000000000040000000000000000000000000000000000000000000000000000000000000000000200000000",
      "type": "0x2",
      "transactionHash": "0x910c99c9cad546dc6da977f4e97f0eff7ae8a9e02c2611e2321c9e81e890fdea",
      "transactionIndex": "0x5",
      "blockHash": "0xb5060433d2bc228223fdaa9aa45bd89f81b937a56d6d5677e2fdc66c1ef6a423",
      "blockNumber": "0xbb06052",
      "gasUsed": "0xbcb5",
      "effectiveGasPrice": "0x66720b300",
      "from": "0x0ece75f3c36f7df2136dac7633165dbff53de3cd",
      "to": "0xaf126b36958ef1a6ed80118841a7f1660f921346",
      "contractAddress": null
    }
  ],
  "libraries": [],
  "pending": [],
  "returns": {},
  "timestamp": 1758176015390,
  "chain": 8217,
  "commit": "6c82bda"
}