{
  "transactions": [
    {
      "hash": "0xdfd68199c4c413b108fe741f97c23a607102475e482db0ab026414a5f8f1b890",
      "transactionType": "CALL",
      "contractName": null,
      "contractAddress": "0x1a44076050125825900e736c501f859c50fe728c",
      "function": "setConfig(address,address,(uint32,uint32,bytes)[])",
      "arguments": [
        "0xaF126B36958Ef1A6Ed80118841A7f1660f921346",
        "0x937AbA873827BF883CeD83CA557697427eAA46Ee",
        "[(30184, 2, 0x0000000000000000000000000000000000000000000000000000000000000020000000000000000000000000000000000000000000000000000000000000000f000000000000000000000000000000000000000000000000000000000000000200000000000000000000000000000000000000000000000000000000000000ff000000000000000000000000000000000000000000000000000000000000000000000000000000000000000000000000000000000000000000000000000000c0000000000000000000000000000000000000000000000000000000000000012000000000000000000000000000000000000000000000000000000000000000020000000000000000000000001154d04d07aee26ff2c200bd373eb76a7e5694d6000000000000000000000000acde1f22eeab249d3ca6ba8805c8fee9f52a16e70000000000000000000000000000000000000000000000000000000000000000), (30150, 2, 0x0000000000000000000000000000000000000000000000000000000000000020000000000000000000000000000000000000000000000000000000000000000f000000000000000000000000000000000000000000000000000000000000000200000000000000000000000000000000000000000000000000000000000000ff000000000000000000000000000000000000000000000000000000000000000000000000000000000000000000000000000000000000000000000000000000c0000000000000000000000000000000000000000000000000000000000000012000000000000000000000000000000000000000000000000000000000000000020000000000000000000000001154d04d07aee26ff2c200bd373eb76a7e5694d6000000000000000000000000acde1f22eeab249d3ca6ba8805c8fee9f52a16e70000000000000000000000000000000000000000000000000000000000000000)]"
      ],
      "transaction": {
        "from": "0x0ece75f3c36f7df2136dac7633165dbff53de3cd",
        "to": "0x1a44076050125825900e736c501f859c50fe728c",
        "gas": "0x58167",
        "value": "0x0",
        "input": "0x6dbd9f90000000000000000000000000af126b36958ef1a6ed80118841a7f1660f921346000000000000000000000000937aba873827bf883ced83ca557697427eaa46ee000000000000000000000000000000000000000000000000000000000000006000000000000000000000000000000000000000000000000000000000000000020000000000000000000000000000000000000000000000000000000000000040000000000000000000000000000000000000000000000000000000000000022000000000000000000000000000000000000000000000000000000000000075e80000000000000000000000000000000000000000000000000000000000000002000000000000000000000000000000000000000000000000000000000000006000000000000000000000000000000000000000000000000000000000000001600000000000000000000000000000000000000000000000000000000000000020000000000000000000000000000000000000000000000000000000000000000f000000000000000000000000000000000000000000000000000000000000000200000000000000000000000000000000000000000000000000000000000000ff000000000000000000000000000000000000000000000000000000000000000000000000000000000000000000000000000000000000000000000000000000c0000000000000000000000000000000000000000000000000000000000000012000000000000000000000000000000000000000000000000000000000000000020000000000000000000000001154d04d07aee26ff2c200bd373eb76a7e5694d6000000000000000000000000acde1f22eeab249d3ca6ba8805c8fee9f52a16e7000000000000000000000000000000000000000000000000000000000000000000000000000000000000000000000000000000000000000000000000000075c60000000000000000000000000000000000000000000000000000000000000002000000000000000000000000000000000000000000000000000000000000006000000000000000000000000000000000000000000000000000000000000001600000000000000000000000000000000000000000000000000000000000000020000000000000000000000000000000000000000000000000000000000000000f000000000000000000000000000000000000000000000000000000000000000200000000000000000000000000000000000000000000000000000000000000ff000000000000000000000000000000000000000000000000000000000000000000000000000000000000000000000000000000000000000000000000000000c0000000000000000000000000000000000000000000000000000000000000012000000000000000000000000000000000000000000000000000000000000000020000000000000000000000001154d04d07aee26ff2c200bd373eb76a7e5694d6000000000000000000000000acde1f22eeab249d3ca6ba8805c8fee9f52a16e70000000000000000000000000000000000000000000000000000000000000000",
        "nonce": "0xf5",
        "chainId": "0x2019"
      },
      "additionalContracts": [],
      "isFixedGasLimit": false
    }
  ],
  "receipts": [
    {
      "status": "0x1",
      "cumulativeGasUsed": "0x283620",
      "logs": [
        {
          "address": "0x937aba873827bf883ced83ca557697427eaa46ee",
          "topics": [
            "0x82118522aa536ac0e96cc5c689407ae42b89d592aa133890a01f1509842f5081"
          ],
          "data": "0x000000000000000000000000af126b36958ef1a6ed80118841a7f1660f92134600000000000000000000000000000000000000000000000000000000000075e80000000000000000000000000000000000000000000000000000000000000060000000000000000000000000000000000000000000000000000000000000000f000000000000000000000000000000000000000000000000000000000000000200000000000000000000000000000000000000000000000000000000000000ff000000000000000000000000000000000000000000000000000000000000000000000000000000000000000000000000000000000000000000000000000000c0000000000000000000000000000000000000000000000000000000000000012000000000000000000000000000000000000000000000000000000000000000020000000000000000000000001154d04d07aee26ff2c200bd373eb76a7e5694d6000000000000000000000000acde1f22eeab249d3ca6ba8805c8fee9f52a16e70000000000000000000000000000000000000000000000000000000000000000",
          "blockHash": "0xb1759b7b2336ac1eaddc0504d7b3bc290d48df2eb8e986eb7725868303c84fe8",
          "blockNumber": "0xbb05fd4",
          "transactionHash": "0xdfd68199c4c413b108fe741f97c23a607102475e482db0ab026414a5f8f1b890",
          "transactionIndex": "0x2",
          "logIndex": "0x68",
          "removed": false
        },
        {
          "address": "0x937aba873827bf883ced83ca557697427eaa46ee",
          "topics": [
            "0x82118522aa536ac0e96cc5c689407ae42b89d592aa133890a01f1509842f5081"
          ],
          "data": "0x000000000000000000000000af126b36958ef1a6ed80118841a7f1660f92134600000000000000000000000000000000000000000000000000000000000075c60000000000000000000000000000000000000000000000000000000000000060000000000000000000000000000000000000000000000000000000000000000f000000000000000000000000000000000000000000000000000000000000000200000000000000000000000000000000000000000000000000000000000000ff000000000000000000000000000000000000000000000000000000000000000000000000000000000000000000000000000000000000000000000000000000c0000000000000000000000000000000000000000000000000000000000000012000000000000000000000000000000000000000000000000000000000000000020000000000000000000000001154d04d07aee26ff2c200bd373eb76a7e5694d6000000000000000000000000acde1f22eeab249d3ca6ba8805c8fee9f52a16e70000000000000000000000000000000000000000000000000000000000000000",
          "blockHash": "0xb1759b7b2336ac1eaddc0504d7b3bc290d48df2eb8e986eb7725868303c84fe8",
          "blockNumber": "0xbb05fd4",
          "transactionHash": "0xdfd68199c4c413b108fe741f97c23a607102475e482db0ab026414a5f8f1b890",
          "transactionIndex": "0x2",
          "logIndex": "0x69",
          "removed": false
        }
      ],
      "logsBloom": "0x00000000000000000000000000000000000000000000000000000000000000000100000000000000000000000000000000000000000000800000000000000000000000000000000000000000000000000000000000000000002000000000000000000000000000000000000000000000000000000000000000000000000000000000000000000000000000000000000000000000000000000000000000000000000000000000000000000002000000000000000000000000000000000000000008000000000000000000000000000000000000000000000000000000000000000000000000000000000000000000000000000000000000000000000000000010",
      "type": "0x2",
      "transactionHash": "0xdfd68199c4c413b108fe741f97c23a607102475e482db0ab026414a5f8f1b890",
      "transactionIndex": "0x2",
      "blockHash": "0xb1759b7b2336ac1eaddc0504d7b3bc290d48df2eb8e986eb7725868303c84fe8",
      "blockNumber": "0xbb05fd4",
      "gasUsed": "0x3c3b2",
      "effectiveGasPrice": "0x66720b300",
      "from": "0x0ece75f3c36f7df2136dac7633165dbff53de3cd",
      "to": "0x1a44076050125825900e736c501f859c50fe728c",
      "contractAddress": null
    }
  ],
  "libraries": [],
  "pending": [],
  "returns": {},
  "timestamp": 1758175888664,
  "chain": 8217,
  "commit": "6c82bda"
}