{
  "transactions": [
    {
      "hash": "0x36539da8cf2259df21402fed6535a27b3a9aedb19ed42aec7f1e649340d4bb09",
      "transactionType": "CALL",
      "contractName": null,
      "contractAddress": "0x1a44076050125825900e736c501f859c50fe728c",
      "function": "setSendLibrary(address,uint32,address)",
      "arguments": [
        "0xF8Af5114ad19422e059797CA2515FeBD8Bc06bd1",
        "30184",
        "0x9714Ccf1dedeF14BaB5013625DB92746C1358cb4"
      ],
      "transaction": {
        "from": "0x0ece75f3c36f7df2136dac7633165dbff53de3cd",
        "to": "0x1a44076050125825900e736c501f859c50fe728c",
        "gas": "0x1378b",
        "value": "0x0",
        "input": "0x9535ff30000000000000000000000000f8af5114ad19422e059797ca2515febd8bc06bd100000000000000000000000000000000000000000000000000000000000075e80000000000000000000000009714ccf1dedef14bab5013625db92746c1358cb4",
        "nonce": "0x147",
        "chainId": "0x2019"
      },
      "additionalContracts": [],
      "isFixedGasLimit": false
    },
    {
      "hash": "0x67280f1173f8d529c76f4356ec8e66aa5c36b635f690674bbe670c118e7ac010",
      "transactionType": "CALL",
      "contractName": null,
      "contractAddress": "0x1a44076050125825900e736c501f859c50fe728c",
      "function": "setSendLibrary(address,uint32,address)",
      "arguments": [
        "0xF8Af5114ad19422e059797CA2515FeBD8Bc06bd1",
        "30150",
        "0x9714Ccf1dedeF14BaB5013625DB92746C1358cb4"
      ],
      "transaction": {
        "from": "0x0ece75f3c36f7df2136dac7633165dbff53de3cd",
        "to": "0x1a44076050125825900e736c501f859c50fe728c",
        "gas": "0x1378b",
        "value": "0x0",
        "input": "0x9535ff30000000000000000000000000f8af5114ad19422e059797ca2515febd8bc06bd100000000000000000000000000000000000000000000000000000000000075c60000000000000000000000009714ccf1dedef14bab5013625db92746c1358cb4",
        "nonce": "0x148",
        "chainId": "0x2019"
      },
      "additionalContracts": [],
      "isFixedGasLimit": false
    },
    {
      "hash": "0x905324469310d16c6adf7c23efb668d83514e6cac39780ff2bacc78866460757",
      "transactionType": "CALL",
      "contractName": null,
      "contractAddress": "0x1a44076050125825900e736c501f859c50fe728c",
      "function": "setReceiveLibrary(address,uint32,address,uint256)",
      "arguments": [
        "0xF8Af5114ad19422e059797CA2515FeBD8Bc06bd1",
        "30150",
        "0x937AbA873827BF883CeD83CA557697427eAA46Ee",
        "0"
      ],
      "transaction": {
        "from": "0x0ece75f3c36f7df2136dac7633165dbff53de3cd",
        "to": "0x1a44076050125825900e736c501f859c50fe728c",
        "gas": "0x17001",
        "value": "0x0",
        "input": "0x6a14d715000000000000000000000000f8af5114ad19422e059797ca2515febd8bc06bd100000000000000000000000000000000000000000000000000000000000075c6000000000000000000000000937aba873827bf883ced83ca557697427eaa46ee0000000000000000000000000000000000000000000000000000000000000000",
        "nonce": "0x149",
        "chainId": "0x2019"
      },
      "additionalContracts": [],
      "isFixedGasLimit": false
    },
    {
      "hash": "0xd149cff0b2eb358e4abb47761ac6d81c26bd39557ed679a975c71fb9b96670a6",
      "transactionType": "CALL",
      "contractName": null,
      "contractAddress": "0x1a44076050125825900e736c501f859c50fe728c",
      "function": "setConfig(address,address,(uint32,uint32,bytes)[])",
      "arguments": [
        "0xF8Af5114ad19422e059797CA2515FeBD8Bc06bd1",
        "0x9714Ccf1dedeF14BaB5013625DB92746C1358cb4",
        "[(30184, 1, 0x0000000000000000000000000000000000000000000000000000000000002710000000000000000000000000e149187a987f129fd3d397ed04a60b0b89d1669f), (30184, 2, 0x0000000000000000000000000000000000000000000000000000000000000020000000000000000000000000000000000000000000000000000000000000000f000000000000000000000000000000000000000000000000000000000000000200000000000000000000000000000000000000000000000000000000000000ff000000000000000000000000000000000000000000000000000000000000000000000000000000000000000000000000000000000000000000000000000000c0000000000000000000000000000000000000000000000000000000000000012000000000000000000000000000000000000000000000000000000000000000020000000000000000000000001154d04d07aee26ff2c200bd373eb76a7e5694d6000000000000000000000000acde1f22eeab249d3ca6ba8805c8fee9f52a16e70000000000000000000000000000000000000000000000000000000000000000), (30150, 1, 0x0000000000000000000000000000000000000000000000000000000000002710000000000000000000000000e149187a987f129fd3d397ed04a60b0b89d1669f), (30150, 2, 0x0000000000000000000000000000000000000000000000000000000000000020000000000000000000000000000000000000000000000000000000000000000f000000000000000000000000000000000000000000000000000000000000000200000000000000000000000000000000000000000000000000000000000000ff000000000000000000000000000000000000000000000000000000000000000000000000000000000000000000000000000000000000000000000000000000c0000000000000000000000000000000000000000000000000000000000000012000000000000000000000000000000000000000000000000000000000000000020000000000000000000000001154d04d07aee26ff2c200bd373eb76a7e5694d6000000000000000000000000acde1f22eeab249d3ca6ba8805c8fee9f52a16e70000000000000000000000000000000000000000000000000000000000000000)]"
      ],
      "transaction": {
        "from": "0x0ece75f3c36f7df2136dac7633165dbff53de3cd",
        "to": "0x1a44076050125825900e736c501f859c50fe728c",
        "gas": "0x6605a",
        "value": "0x0",
        "input": "0x6dbd9f90000000000000000000000000f8af5114ad19422e059797ca2515febd8bc06bd10000000000000000000000009714ccf1dedef14bab5013625db92746c1358cb40000000000000000000000000000000000000000000000000000000000000060000000000000000000000000000000000000000000000000000000000000000400000000000000000000000000000000000000000000000000000000000000800000000000000000000000000000000000000000000000000000000000000140000000000000000000000000000000000000000000000000000000000000032000000000000000000000000000000000000000000000000000000000000003e000000000000000000000000000000000000000000000000000000000000075e80000000000000000000000000000000000000000000000000000000000000001000000000000000000000000000000000000000000000000000000000000006000000000000000000000000000000000000000000000000000000000000000400000000000000000000000000000000000000000000000000000000000002710000000000000000000000000e149187a987f129fd3d397ed04a60b0b89d1669f00000000000000000000000000000000000000000000000000000000000075e80000000000000000000000000000000000000000000000000000000000000002000000000000000000000000000000000000000000000000000000000000006000000000000000000000000000000000000000000000000000000000000001600000000000000000000000000000000000000000000000000000000000000020000000000000000000000000000000000000000000000000000000000000000f000000000000000000000000000000000000000000000000000000000000000200000000000000000000000000000000000000000000000000000000000000ff000000000000000000000000000000000000000000000000000000000000000000000000000000000000000000000000000000000000000000000000000000c0000000000000000000000000000000000000000000000000000000000000012000000000000000000000000000000000000000000000000000000000000000020000000000000000000000001154d04d07aee26ff2c200bd373eb76a7e5694d6000000000000000000000000acde1f22eeab249d3ca6ba8805c8fee9f52a16e7000000000000000000000000000000000000000000000000000000000000000000000000000000000000000000000000000000000000000000000000000075c60000000000000000000000000000000000000000000000000000000000000001000000000000000000000000000000000000000000000000000000000000006000000000000000000000000000000000000000000000000000000000000000400000000000000000000000000000000000000000000000000000000000002710000000000000000000000000e149187a987f129fd3d397ed04a60b0b89d1669f00000000000000000000000000000000000000000000000000000000000075c60000000000000000000000000000000000000000000000000000000000000002000000000000000000000000000000000000000000000000000000000000006000000000000000000000000000000000000000000000000000000000000001600000000000000000000000000000000000000000000000000000000000000020000000000000000000000000000000000000000000000000000000000000000f000000000000000000000000000000000000000000000000000000000000000200000000000000000000000000000000000000000000000000000000000000ff000000000000000000000000000000000000000000000000000000000000000000000000000000000000000000000000000000000000000000000000000000c0000000000000000000000000000000000000000000000000000000000000012000000000000000000000000000000000000000000000000000000000000000020000000000000000000000001154d04d07aee26ff2c200bd373eb76a7e5694d6000000000000000000000000acde1f22eeab249d3ca6ba8805c8fee9f52a16e70000000000000000000000000000000000000000000000000000000000000000",
        "nonce": "0x14a",
        "chainId": "0x2019"
      },
      "additionalContracts": [],
      "isFixedGasLimit": false
    },
    {
      "hash": "0x2052131c665f20c8dfeafb801495be41aea16dd349396453ce86549fd41dee15",
      "transactionType": "CALL",
      "contractName": null,
      "contractAddress": "0x1a44076050125825900e736c501f859c50fe728c",
      "function": "setConfig(address,address,(uint32,uint32,bytes)[])",
      "arguments": [
        "0xF8Af5114ad19422e059797CA2515FeBD8Bc06bd1",
        "0x937AbA873827BF883CeD83CA557697427eAA46Ee",
        "[(30184, 2, 0x0000000000000000000000000000000000000000000000000000000000000020000000000000000000000000000000000000000000000000000000000000000f000000000000000000000000000000000000000000000000000000000000000200000000000000000000000000000000000000000000000000000000000000ff000000000000000000000000000000000000000000000000000000000000000000000000000000000000000000000000000000000000000000000000000000c0000000000000000000000000000000000000000000000000000000000000012000000000000000000000000000000000000000000000000000000000000000020000000000000000000000001154d04d07aee26ff2c200bd373eb76a7e5694d6000000000000000000000000acde1f22eeab249d3ca6ba8805c8fee9f52a16e70000000000000000000000000000000000000000000000000000000000000000), (30150, 2, 0x0000000000000000000000000000000000000000000000000000000000000020000000000000000000000000000000000000000000000000000000000000000f000000000000000000000000000000000000000000000000000000000000000200000000000000000000000000000000000000000000000000000000000000ff000000000000000000000000000000000000000000000000000000000000000000000000000000000000000000000000000000000000000000000000000000c0000000000000000000000000000000000000000000000000000000000000012000000000000000000000000000000000000000000000000000000000000000020000000000000000000000001154d04d07aee26ff2c200bd373eb76a7e5694d6000000000000000000000000acde1f22eeab249d3ca6ba8805c8fee9f52a16e70000000000000000000000000000000000000000000000000000000000000000)]"
      ],
      "transaction": {
        "from": "0x0ece75f3c36f7df2136dac7633165dbff53de3cd",
        "to": "0x1a44076050125825900e736c501f859c50fe728c",
        "gas": "0x58167",
        "value": "0x0",
        "input": "0x6dbd9f90000000000000000000000000f8af5114ad19422e059797ca2515febd8bc06bd1000000000000000000000000937aba873827bf883ced83ca557697427eaa46ee000000000000000000000000000000000000000000000000000000000000006000000000000000000000000000000000000000000000000000000000000000020000000000000000000000000000000000000000000000000000000000000040000000000000000000000000000000000000000000000000000000000000022000000000000000000000000000000000000000000000000000000000000075e80000000000000000000000000000000000000000000000000000000000000002000000000000000000000000000000000000000000000000000000000000006000000000000000000000000000000000000000000000000000000000000001600000000000000000000000000000000000000000000000000000000000000020000000000000000000000000000000000000000000000000000000000000000f000000000000000000000000000000000000000000000000000000000000000200000000000000000000000000000000000000000000000000000000000000ff000000000000000000000000000000000000000000000000000000000000000000000000000000000000000000000000000000000000000000000000000000c0000000000000000000000000000000000000000000000000000000000000012000000000000000000000000000000000000000000000000000000000000000020000000000000000000000001154d04d07aee26ff2c200bd373eb76a7e5694d6000000000000000000000000acde1f22eeab249d3ca6ba8805c8fee9f52a16e7000000000000000000000000000000000000000000000000000000000000000000000000000000000000000000000000000000000000000000000000000075c60000000000000000000000000000000000000000000000000000000000000002000000000000000000000000000000000000000000000000000000000000006000000000000000000000000000000000000000000000000000000000000001600000000000000000000000000000000000000000000000000000000000000020000000000000000000000000000000000000000000000000000000000000000f000000000000000000000000000000000000000000000000000000000000000200000000000000000000000000000000000000000000000000000000000000ff000000000000000000000000000000000000000000000000000000000000000000000000000000000000000000000000000000000000000000000000000000c0000000000000000000000000000000000000000000000000000000000000012000000000000000000000000000000000000000000000000000000000000000020000000000000000000000001154d04d07aee26ff2c200bd373eb76a7e5694d6000000000000000000000000acde1f22eeab249d3ca6ba8805c8fee9f52a16e70000000000000000000000000000000000000000000000000000000000000000",
        "nonce": "0x14b",
        "chainId": "0x2019"
      },
      "additionalContracts": [],
      "isFixedGasLimit": false
    },
    {
      "hash": "0x315ac68d2f499f511e792ee4256bd6ef6089beb6c086af944602429e9a281e65",
      "transactionType": "CALL",
      "contractName": null,
      "contractAddress": "0xf8af5114ad19422e059797ca2515febd8bc06bd1",
      "function": "setPeer(uint32,bytes32)",
      "arguments": [
        "30150",
        "0x000000000000000000000000f8af5114ad19422e059797ca2515febd8bc06bd1"
      ],
      "transaction": {
        "from": "0x0ece75f3c36f7df2136dac7633165dbff53de3cd",
        "to": "0xf8af5114ad19422e059797ca2515febd8bc06bd1",
        "gas": "0x104a6",
        "value": "0x0",
        "input": "0x3400288b00000000000000000000000000000000000000000000000000000000000075c6000000000000000000000000f8af5114ad19422e059797ca2515febd8bc06bd1",
        "nonce": "0x14c",
        "chainId": "0x2019"
      },
      "additionalContracts": [],
      "isFixedGasLimit": false
    },
    {
      "hash": "0x02d684eccf97aacd0bd2384db91cb63a21cc89ed7ed81021212f8d0c22194915",
      "transactionType": "CALL",
      "contractName": null,
      "contractAddress": "0xf8af5114ad19422e059797ca2515febd8bc06bd1",
      "function": "setPeer(uint32,bytes32)",
      "arguments": [
        "30184",
        "0x000000000000000000000000374427909212b29fcc3ffe8e7920a190a3031cb8"
      ],
      "transaction": {
        "from": "0x0ece75f3c36f7df2136dac7633165dbff53de3cd",
        "to": "0xf8af5114ad19422e059797ca2515febd8bc06bd1",
        "gas": "0x104a6",
        "value": "0x0",
        "input": "0x3400288b00000000000000000000000000000000000000000000000000000000000075e8000000000000000000000000374427909212b29fcc3ffe8e7920a190a3031cb8",
        "nonce": "0x14d",
        "chainId": "0x2019"
      },
      "additionalContracts": [],
      "isFixedGasLimit": false
    },
    {
      "hash": "0x576fb89c7a26e1ffcd4f491b0da79166151cceddf788113d8fcf50e7e705be99",
      "transactionType": "CALL",
      "contractName": null,
      "contractAddress": "0xf8af5114ad19422e059797ca2515febd8bc06bd1",
      "function": "setEnforcedOptions((uint32,uint16,bytes)[])",
      "arguments": [
        "[(30150, 1, 0x00030100110100000000000000000000000000013880), (30184, 1, 0x000301001101000000000000000000000000000186a0)]"
      ],
      "transaction": {
        "from": "0x0ece75f3c36f7df2136dac7633165dbff53de3cd",
        "to": "0xf8af5114ad19422e059797ca2515febd8bc06bd1",
        "gas": "0x1bd63",
        "value": "0x0",
        "input": "0xb98bd07000000000000000000000000000000000000000000000000000000000000000200000000000000000000000000000000000000000000000000000000000000002000000000000000000000000000000000000000000000000000000000000004000000000000000000000000000000000000000000000000000000000000000e000000000000000000000000000000000000000000000000000000000000075c6000000000000000000000000000000000000000000000000000000000000000100000000000000000000000000000000000000000000000000000000000000600000000000000000000000000000000000000000000000000000000000000016000301001101000000000000000000000000000138800000000000000000000000000000000000000000000000000000000000000000000000000000000075e8000000000000000000000000000000000000000000000000000000000000000100000000000000000000000000000000000000000000000000000000000000600000000000000000000000000000000000000000000000000000000000000016000301001101000000000000000000000000000186a000000000000000000000",
        "nonce": "0x14e",
        "chainId": "0x2019"
      },
      "additionalContracts": [],
      "isFixedGasLimit": false
    },
    {
      "hash": "0x3d268a321272a3fd1861798323f4ec5862787ff7441a3f9f2e2ad688a715cca4",
      "transactionType": "CALL",
      "contractName": null,
      "contractAddress": "0xf8af5114ad19422e059797ca2515febd8bc06bd1",
      "function": "setOFTaddress(address)",
      "arguments": [
        "0xaf9842ADacB4b2fA619D45fE11579Fae5FAf1698"
      ],
      "transaction": {
        "from": "0x0ece75f3c36f7df2136dac7633165dbff53de3cd",
        "to": "0xf8af5114ad19422e059797ca2515febd8bc06bd1",
        "gas": "0xfa15",
        "value": "0x0",
        "input": "0xea89900e000000000000000000000000af9842adacb4b2fa619d45fe11579fae5faf1698",
        "nonce": "0x14f",
        "chainId": "0x2019"
      },
      "additionalContracts": [],
      "isFixedGasLimit": false
    }
  ],
  "receipts": [
    {
      "status": "0x1",
      "cumulativeGasUsed": "0x3aaa2",
      "logs": [
        {
          "address": "0x1a44076050125825900e736c501f859c50fe728c",
          "topics": [
            "0x4cff966ebee29a156dcb34cf72c1d06231fb1777f6bdf6e8089819232f002b1c"
          ],
          "data": "0x000000000000000000000000f8af5114ad19422e059797ca2515febd8bc06bd100000000000000000000000000000000000000000000000000000000000075e80000000000000000000000009714ccf1dedef14bab5013625db92746c1358cb4",
          "blockHash": "0x81ed3e5af4ebef884b9108431c0a5876d9a58d774dd7db722ac298cb0ad3604a",
          "blockNumber": "0xbb1f7f2",
          "transactionHash": "0x36539da8cf2259df21402fed6535a27b3a9aedb19ed42aec7f1e649340d4bb09",
          "transactionIndex": "0x4",
          "logIndex": "0x4",
          "removed": false
        }
      ],
      "logsBloom": "0x00000000000000000000000000000000000200000000000000000000001000000000000000000000000000000000000000000000000000000000000001000000000000000000000000000000000000000000000000000000000000000000000000000000000000000000000000000000000000000010000000000000000000000000000000000000000000000000000000000000000000000000000000000000000000000000000000000000000000000000000000000000000000000000000000000000000000000000000000000000000000000000000000000000000000000040000000000000000000000000000000000000010000000000000000000000",
      "type": "0x2",
      "transactionHash": "0x36539da8cf2259df21402fed6535a27b3a9aedb19ed42aec7f1e649340d4bb09",
      "transactionIndex": "0x4",
      "blockHash": "0x81ed3e5af4ebef884b9108431c0a5876d9a58d774dd7db722ac298cb0ad3604a",
      "blockNumber": "0xbb1f7f2",
      "gasUsed": "0xe18e",
      "effectiveGasPrice": "0x66720b300",
      "from": "0x0ece75f3c36f7df2136dac7633165dbff53de3cd",
      "to": "0x1a44076050125825900e736c501f859c50fe728c",
      "contractAddress": null
    },
    {
      "status": "0x1",
      "cumulativeGasUsed": "0x48c30",
      "logs": [
        {
          "address": "0x1a44076050125825900e736c501f859c50fe728c",
          "topics": [
            "0x4cff966ebee29a156dcb34cf72c1d06231fb1777f6bdf6e8089819232f002b1c"
          ],
          "data": "0x000000000000000000000000f8af5114ad19422e059797ca2515febd8bc06bd100000000000000000000000000000000000000000000000000000000000075c60000000000000000000000009714ccf1dedef14bab5013625db92746c1358cb4",
          "blockHash": "0x81ed3e5af4ebef884b9108431c0a5876d9a58d774dd7db722ac298cb0ad3604a",
          "blockNumber": "0xbb1f7f2",
          "transactionHash": "0x67280f1173f8d529c76f4356ec8e66aa5c36b635f690674bbe670c118e7ac010",
          "transactionIndex": "0x5",
          "logIndex": "0x5",
          "removed": false
        }
      ],
      "logsBloom": "0x00000000000000000000000000000000000200000000000000000000001000000000000000000000000000000000000000000000000000000000000001000000000000000000000000000000000000000000000000000000000000000000000000000000000000000000000000000000000000000010000000000000000000000000000000000000000000000000000000000000000000000000000000000000000000000000000000000000000000000000000000000000000000000000000000000000000000000000000000000000000000000000000000000000000000000040000000000000000000000000000000000000010000000000000000000000",
      "type": "0x2",
      "transactionHash": "0x67280f1173f8d529c76f4356ec8e66aa5c36b635f690674bbe670c118e7ac010",
      "transactionIndex": "0x5",
      "blockHash": "0x81ed3e5af4ebef884b9108431c0a5876d9a58d774dd7db722ac298cb0ad3604a",
      "blockNumber": "0xbb1f7f2",
      "gasUsed": "0xe18e",
      "effectiveGasPrice": "0x66720b300",
      "from": "0x0ece75f3c36f7df2136dac7633165dbff53de3cd",
      "to": "0x1a44076050125825900e736c501f859c50fe728c",
      "contractAddress": null
    },
    {
      "status": "0x1",
      "cumulativeGasUsed": "0x587d1",
      "logs": [
        {
          "address": "0x1a44076050125825900e736c501f859c50fe728c",
          "topics": [
            "0xcd6f92f5ac6185a5acfa02c92090746cec64d777269cbcd0ed031e396657a1c2"
          ],
          "data": "0x000000000000000000000000f8af5114ad19422e059797ca2515febd8bc06bd100000000000000000000000000000000000000000000000000000000000075c6000000000000000000000000937aba873827bf883ced83ca557697427eaa46ee",
          "blockHash": "0x81ed3e5af4ebef884b9108431c0a5876d9a58d774dd7db722ac298cb0ad3604a",
          "blockNumber": "0xbb1f7f2",
          "transactionHash": "0x905324469310d16c6adf7c23efb668d83514e6cac39780ff2bacc78866460757",
          "transactionIndex": "0x6",
          "logIndex": "0x6",
          "removed": false
        },
        {
          "address": "0x1a44076050125825900e736c501f859c50fe728c",
          "topics": [
            "0x4e0a5bbfa0c11a64effb1ada324b5437a17272e1aed9320398715ef71bb20928"
          ],
          "data": "0x000000000000000000000000f8af5114ad19422e059797ca2515febd8bc06bd100000000000000000000000000000000000000000000000000000000000075c600000000000000000000000000000000000000000000000000000000000000000000000000000000000000000000000000000000000000000000000000000000",
          "blockHash": "0x81ed3e5af4ebef884b9108431c0a5876d9a58d774dd7db722ac298cb0ad3604a",
          "blockNumber": "0xbb1f7f2",
          "transactionHash": "0x905324469310d16c6adf7c23efb668d83514e6cac39780ff2bacc78866460757",
          "transactionIndex": "0x6",
          "logIndex": "0x7",
          "removed": false
        }
      ],
      "logsBloom": "0x00000000000000000000020800000000000000000000000000000000001000020400000000000000000000000000000000000000000000000000000000000000000000000000000000000000000000000000000000800000000000000000000000000000000000000000000000000000000000000010000000000000000000100000000000000000000000000000000000000000000000000000000000000000000000000000000000000000000000000000000000000000000000000000000000000000000000000000000000000000000000000000000000000000000000000000000000000000000000000000000000000000010000000000000000000000",
      "type": "0x2",
      "transactionHash": "0x905324469310d16c6adf7c23efb668d83514e6cac39780ff2bacc78866460757",
      "transactionIndex": "0x6",
      "blockHash": "0x81ed3e5af4ebef884b9108431c0a5876d9a58d774dd7db722ac298cb0ad3604a",
      "blockNumber": "0xbb1f7f2",
      "gasUsed": "0xfba1",
      "effectiveGasPrice": "0x66720b300",
      "from": "0x0ece75f3c36f7df2136dac7633165dbff53de3cd",
      "to": "0x1a44076050125825900e736c501f859c50fe728c",
      "contractAddress": null
    },
    {
      "status": "0x1",
      "cumulativeGasUsed": "0xa259d",
      "logs": [
        {
          "address": "0x9714ccf1dedef14bab5013625db92746c1358cb4",
          "topics": [
            "0x779cb2dd9d2bb1be1737d05435d744facbfb84a2a4912e21379d39beddcdc805"
          ],
          "data": "0x000000000000000000000000f8af5114ad19422e059797ca2515febd8bc06bd100000000000000000000000000000000000000000000000000000000000075e80000000000000000000000000000000000000000000000000000000000002710000000000000000000000000e149187a987f129fd3d397ed04a60b0b89d1669f",
          "blockHash": "0x81ed3e5af4ebef884b9108431c0a5876d9a58d774dd7db722ac298cb0ad3604a",
          "blockNumber": "0xbb1f7f2",
          "transactionHash": "0xd149cff0b2eb358e4abb47761ac6d81c26bd39557ed679a975c71fb9b96670a6",
          "transactionIndex": "0x7",
          "logIndex": "0x8",
          "removed": false
        },
        {
          "address": "0x9714ccf1dedef14bab5013625db92746c1358cb4",
          "topics": [
            "0x82118522aa536ac0e96cc5c689407ae42b89d592aa133890a01f1509842f5081"
          ],
          "data": "0x000000000000000000000000f8af5114ad19422e059797ca2515febd8bc06bd100000000000000000000000000000000000000000000000000000000000075e80000000000000000000000000000000000000000000000000000000000000060000000000000000000000000000000000000000000000000000000000000000f000000000000000000000000000000000000000000000000000000000000000200000000000000000000000000000000000000000000000000000000000000ff000000000000000000000000000000000000000000000000000000000000000000000000000000000000000000000000000000000000000000000000000000c0000000000000000000000000000000000000000000000000000000000000012000000000000000000000000000000000000000000000000000000000000000020000000000000000000000001154d04d07aee26ff2c200bd373eb76a7e5694d6000000000000000000000000acde1f22eeab249d3ca6ba8805c8fee9f52a16e70000000000000000000000000000000000000000000000000000000000000000",
          "blockHash": "0x81ed3e5af4ebef884b9108431c0a5876d9a58d774dd7db722ac298cb0ad3604a",
          "blockNumber": "0xbb1f7f2",
          "transactionHash": "0xd149cff0b2eb358e4abb47761ac6d81c26bd39557ed679a975c71fb9b96670a6",
          "transactionIndex": "0x7",
          "logIndex": "0x9",
          "removed": false
        },
        {
          "address": "0x9714ccf1dedef14bab5013625db92746c1358cb4",
          "topics": [
            "0x779cb2dd9d2bb1be1737d05435d744facbfb84a2a4912e21379d39beddcdc805"
          ],
          "data": "0x000000000000000000000000f8af5114ad19422e059797ca2515febd8bc06bd100000000000000000000000000000000000000000000000000000000000075c60000000000000000000000000000000000000000000000000000000000002710000000000000000000000000e149187a987f129fd3d397ed04a60b0b89d1669f",
          "blockHash": "0x81ed3e5af4ebef884b9108431c0a5876d9a58d774dd7db722ac298cb0ad3604a",
          "blockNumber": "0xbb1f7f2",
          "transactionHash": "0xd149cff0b2eb358e4abb47761ac6d81c26bd39557ed679a975c71fb9b96670a6",
          "transactionIndex": "0x7",
          "logIndex": "0xa",
          "removed": false
        },
        {
          "address": "0x9714ccf1dedef14bab5013625db92746c1358cb4",
          "topics": [
            "0x82118522aa536ac0e96cc5c689407ae42b89d592aa133890a01f1509842f5081"
          ],
          "data": "0x000000000000000000000000f8af5114ad19422e059797ca2515febd8bc06bd100000000000000000000000000000000000000000000000000000000000075c60000000000000000000000000000000000000000000000000000000000000060000000000000000000000000000000000000000000000000000000000000000f000000000000000000000000000000000000000000000000000000000000000200000000000000000000000000000000000000000000000000000000000000ff000000000000000000000000000000000000000000000000000000000000000000000000000000000000000000000000000000000000000000000000000000c0000000000000000000000000000000000000000000000000000000000000012000000000000000000000000000000000000000000000000000000000000000020000000000000000000000001154d04d07aee26ff2c200bd373eb76a7e5694d6000000000000000000000000acde1f22eeab249d3ca6ba8805c8fee9f52a16e70000000000000000000000000000000000000000000000000000000000000000",
          "blockHash": "0x81ed3e5af4ebef884b9108431c0a5876d9a58d774dd7db722ac298cb0ad3604a",
          "blockNumber": "0xbb1f7f2",
          "transactionHash": "0xd149cff0b2eb358e4abb47761ac6d81c26bd39557ed679a975c71fb9b96670a6",
          "transactionIndex": "0x7",
          "logIndex": "0xb",
          "removed": false
        }
      ],
      "logsBloom": "0x00000000000000000000000000000000000000000000000000000000000000000000000000000000000000000000000000000000000000000000000000000000000000000000000000000040000000020000000000000000002000000000000000000000000000000000000000000000000000000000000000000000000000040000000000000000000000000000000000000000000000000000000000000000000000000000000000000002000000000000000000000000000000000000000200000004000000000000000000000000000000000000000000000000000000000008000000000000000000000000000000000000000000000000000000000010",
      "type": "0x2",
      "transactionHash": "0xd149cff0b2eb358e4abb47761ac6d81c26bd39557ed679a975c71fb9b96670a6",
      "transactionIndex": "0x7",
      "blockHash": "0x81ed3e5af4ebef884b9108431c0a5876d9a58d774dd7db722ac298cb0ad3604a",
      "blockNumber": "0xbb1f7f2",
      "gasUsed": "0x49dcc",
      "effectiveGasPrice": "0x66720b300",
      "from": "0x0ece75f3c36f7df2136dac7633165dbff53de3cd",
      "to": "0x1a44076050125825900e736c501f859c50fe728c",
      "contractAddress": null
    },
    {
      "status": "0x1",
      "cumulativeGasUsed": "0xde94f",
      "logs": [
        {
          "address": "0x937aba873827bf883ced83ca557697427eaa46ee",
          "topics": [
            "0x82118522aa536ac0e96cc5c689407ae42b89d592aa133890a01f1509842f5081"
          ],
          "data": "0x000000000000000000000000f8af5114ad19422e059797ca2515febd8bc06bd100000000000000000000000000000000000000000000000000000000000075e80000000000000000000000000000000000000000000000000000000000000060000000000000000000000000000000000000000000000000000000000000000f000000000000000000000000000000000000000000000000000000000000000200000000000000000000000000000000000000000000000000000000000000ff000000000000000000000000000000000000000000000000000000000000000000000000000000000000000000000000000000000000000000000000000000c0000000000000000000000000000000000000000000000000000000000000012000000000000000000000000000000000000000000000000000000000000000020000000000000000000000001154d04d07aee26ff2c200bd373eb76a7e5694d6000000000000000000000000acde1f22eeab249d3ca6ba8805c8fee9f52a16e70000000000000000000000000000000000000000000000000000000000000000",
          "blockHash": "0x81ed3e5af4ebef884b9108431c0a5876d9a58d774dd7db722ac298cb0ad3604a",
          "blockNumber": "0xbb1f7f2",
          "transactionHash": "0x2052131c665f20c8dfeafb801495be41aea16dd349396453ce86549fd41dee15",
          "transactionIndex": "0x8",
          "logIndex": "0xc",
          "removed": false
        },
        {
          "address": "0x937aba873827bf883ced83ca557697427eaa46ee",
          "topics": [
            "0x82118522aa536ac0e96cc5c689407ae42b89d592aa133890a01f1509842f5081"
          ],
          "data": "0x000000000000000000000000f8af5114ad19422e059797ca2515febd8bc06bd100000000000000000000000000000000000000000000000000000000000075c60000000000000000000000000000000000000000000000000000000000000060000000000000000000000000000000000000000000000000000000000000000f000000000000000000000000000000000000000000000000000000000000000200000000000000000000000000000000000000000000000000000000000000ff000000000000000000000000000000000000000000000000000000000000000000000000000000000000000000000000000000000000000000000000000000c0000000000000000000000000000000000000000000000000000000000000012000000000000000000000000000000000000000000000000000000000000000020000000000000000000000001154d04d07aee26ff2c200bd373eb76a7e5694d6000000000000000000000000acde1f22eeab249d3ca6ba8805c8fee9f52a16e70000000000000000000000000000000000000000000000000000000000000000",
          "blockHash": "0x81ed3e5af4ebef884b9108431c0a5876d9a58d774dd7db722ac298cb0ad3604a",
          "blockNumber": "0xbb1f7f2",
          "transactionHash": "0x2052131c665f20c8dfeafb801495be41aea16dd349396453ce86549fd41dee15",
          "transactionIndex": "0x8",
          "logIndex": "0xd",
          "removed": false
        }
      ],
      "logsBloom": "0x00000000000000000000000000000000000000000000000000000000000000000100000000000000000000000000000000000000000000800000000000000000000000000000000000000000000000000000000000000000002000000000000000000000000000000000000000000000000000000000000000000000000000000000000000000000000000000000000000000000000000000000000000000000000000000000000000000002000000000000000000000000000000000000000008000000000000000000000000000000000000000000000000000000000000000000000000000000000000000000000000000000000000000000000000000010",
      "type": "0x2",
      "transactionHash": "0x2052131c665f20c8dfeafb801495be41aea16dd349396453ce86549fd41dee15",
      "transactionIndex": "0x8",
      "blockHash": "0x81ed3e5af4ebef884b9108431c0a5876d9a58d774dd7db722ac298cb0ad3604a",
      "blockNumber": "0xbb1f7f2",
      "gasUsed": "0x3c3b2",
      "effectiveGasPrice": "0x66720b300",
      "from": "0x0ece75f3c36f7df2136dac7633165dbff53de3cd",
      "to": "0x1a44076050125825900e736c501f859c50fe728c",
      "contractAddress": null
    },
    {
      "status": "0x1",
      "cumulativeGasUsed": "0xea604",
      "logs": [
        {
          "address": "0xf8af5114ad19422e059797ca2515febd8bc06bd1",
          "topics": [
            "0x238399d427b947898edb290f5ff0f9109849b1c3ba196a42e35f00c50a54b98b"
          ],
          "data": "0x00000000000000000000000000000000000000000000000000000000000075c6000000000000000000000000f8af5114ad19422e059797ca2515febd8bc06bd1",
          "blockHash": "0x81ed3e5af4ebef884b9108431c0a5876d9a58d774dd7db722ac298cb0ad3604a",
          "blockNumber": "0xbb1f7f2",
          "transactionHash": "0x315ac68d2f499f511e792ee4256bd6ef6089beb6c086af944602429e9a281e65",
          "transactionIndex": "0x9",
          "logIndex": "0xe",
          "removed": false
        }
      ],
      "logsBloom": "0x00000000000000000000000000000000000000000000000000000000000000000000000000000000000000000000000000000000000000000800000000000000000000000000000000000000000000040000000000000000000000000000000000000000000000000000000000000000000000000000000000000000000000000000000000000000000000000000000000000000000000000000000000000000000000000000000000000000000000000000000000000000000002000000000000000000000000000000000000000000000000000000000000040000000000000020010000000000000000000000000000000000000000000000000000000000",
      "type": "0x2",
      "transactionHash": "0x315ac68d2f499f511e792ee4256bd6ef6089beb6c086af944602429e9a281e65",
      "transactionIndex": "0x9",
      "blockHash": "0x81ed3e5af4ebef884b9108431c0a5876d9a58d774dd7db722ac298cb0ad3604a",
      "blockNumber": "0xbb1f7f2",
      "gasUsed": "0xbcb5",
      "effectiveGasPrice": "0x66720b300",
      "from": "0x0ece75f3c36f7df2136dac7633165dbff53de3cd",
      "to": "0xf8af5114ad19422e059797ca2515febd8bc06bd1",
      "contractAddress": null
    },
    {
      "status": "0x1",
      "cumulativeGasUsed": "0x104f57",
      "logs": [
        {
          "address": "0xf8af5114ad19422e059797ca2515febd8bc06bd1",
          "topics": [
            "0x238399d427b947898edb290f5ff0f9109849b1c3ba196a42e35f00c50a54b98b"
          ],
          "data": "0x00000000000000000000000000000000000000000000000000000000000075e8000000000000000000000000374427909212b29fcc3ffe8e7920a190a3031cb8",
          "blockHash": "0x81ed3e5af4ebef884b9108431c0a5876d9a58d774dd7db722ac298cb0ad3604a",
          "blockNumber": "0xbb1f7f2",
          "transactionHash": "0x02d684eccf97aacd0bd2384db91cb63a21cc89ed7ed81021212f8d0c22194915",
          "transactionIndex": "0xb",
          "logIndex": "0x10",
          "removed": false
        }
      ],
      "logsBloom": "0x00000000000000000000000000000000000000000000000000000000000000000000000000000000000000000000000000000000000000000800000000000000000000000000000000000000000000040000000000000000000000000000000000000000000000000000000000000000000000000000000000000000000000000000000000000000000000000000000000000000000000000000000000000000000000000000000000000000000000000000000000000000000002000000000000000000000000000000000000000000000000000000000000040000000000000020010000000000000000000000000000000000000000000000000000000000",
      "type": "0x2",
      "transactionHash": "0x02d684eccf97aacd0bd2384db91cb63a21cc89ed7ed81021212f8d0c22194915",
      "transactionIndex": "0xb",
      "blockHash": "0x81ed3e5af4ebef884b9108431c0a5876d9a58d774dd7db722ac298cb0ad3604a",
      "blockNumber": "0xbb1f7f2",
      "gasUsed": "0xbcb5",
      "effectiveGasPrice": "0x66720b300",
      "from": "0x0ece75f3c36f7df2136dac7633165dbff53de3cd",
      "to": "0xf8af5114ad19422e059797ca2515febd8bc06bd1",
      "contractAddress": null
    },
    {
      "status": "0x1",
      "cumulativeGasUsed": "0x14274",
      "logs": [
        {
          "address": "0xf8af5114ad19422e059797ca2515febd8bc06bd1",
          "topics": [
            "0xbe4864a8e820971c0247f5992e2da559595f7bf076a21cb5928d443d2a13b674"
          ],
          "data": "0x00000000000000000000000000000000000000000000000000000000000000200000000000000000000000000000000000000000000000000000000000000002000000000000000000000000000000000000000000000000000000000000004000000000000000000000000000000000000000000000000000000000000000e000000000000000000000000000000000000000000000000000000000000075c6000000000000000000000000000000000000000000000000000000000000000100000000000000000000000000000000000000000000000000000000000000600000000000000000000000000000000000000000000000000000000000000016000301001101000000000000000000000000000138800000000000000000000000000000000000000000000000000000000000000000000000000000000075e8000000000000000000000000000000000000000000000000000000000000000100000000000000000000000000000000000000000000000000000000000000600000000000000000000000000000000000000000000000000000000000000016000301001101000000000000000000000000000186a000000000000000000000",
          "blockHash": "0xc41e0ce2e4e5d74a92b72a0f1a20bd362b7c06e8db1edc42f26940ba38673736",
          "blockNumber": "0xbb1f7f3",
          "transactionHash": "0x576fb89c7a26e1ffcd4f491b0da79166151cceddf788113d8fcf50e7e705be99",
          "transactionIndex": "0x0",
          "logIndex": "0x0",
          "removed": false
        }
      ],
      "logsBloom": "0x00000000000000000000000000000000000000000000000000000000000000000000000000000000000000000000000000000000000000000000400000000000000000000000000000000000000000040000000000000000000000000000000000000000000000000000000000000000000000000000000000000000000000000000000000000000000000000000000000000000000000000000000000080000000000000000000000000000000000000000000000000000000000000000000000000000000000000000000002000000000000000000000000000000000000000020010000000000000000000000000000000000000000000000000000000000",
      "type": "0x2",
      "transactionHash": "0x576fb89c7a26e1ffcd4f491b0da79166151cceddf788113d8fcf50e7e705be99",
      "transactionIndex": "0x0",
      "blockHash": "0xc41e0ce2e4e5d74a92b72a0f1a20bd362b7c06e8db1edc42f26940ba38673736",
      "blockNumber": "0xbb1f7f3",
      "gasUsed": "0x14274",
      "effectiveGasPrice": "0x66720b300",
      "from": "0x0ece75f3c36f7df2136dac7633165dbff53de3cd",
      "to": "0xf8af5114ad19422e059797ca2515febd8bc06bd1",
      "contractAddress": null
    },
    {
      "status": "0x1",
      "cumulativeGasUsed": "0x2a445",
      "logs": [],
      "logsBloom": "0x00000000000000000000000000000000000000000000000000000000000000000000000000000000000000000000000000000000000000000000000000000000000000000000000000000000000000000000000000000000000000000000000000000000000000000000000000000000000000000000000000000000000000000000000000000000000000000000000000000000000000000000000000000000000000000000000000000000000000000000000000000000000000000000000000000000000000000000000000000000000000000000000000000000000000000000000000000000000000000000000000000000000000000000000000000000",
      "type": "0x2",
      "transactionHash": "0x3d268a321272a3fd1861798323f4ec5862787ff7441a3f9f2e2ad688a715cca4",
      "transactionIndex": "0x2",
      "blockHash": "0xc41e0ce2e4e5d74a92b72a0f1a20bd362b7c06e8db1edc42f26940ba38673736",
      "blockNumber": "0xbb1f7f3",
      "gasUsed": "0xb50f",
      "effectiveGasPrice": "0x66720b300",
      "from": "0x0ece75f3c36f7df2136dac7633165dbff53de3cd",
      "to": "0xf8af5114ad19422e059797ca2515febd8bc06bd1",
      "contractAddress": null
    }
  ],
  "libraries": [],
  "pending": [],
  "returns": {},
  "timestamp": 1758281847650,
  "chain": 8217,
  "commit": "6c82bda"
}