{
  "transactions": [
    {
      "hash": "0xa0df5f8828e094b7acbeb975f36c44e8494912220c35fb1a8c04d8e140f666f4",
      "transactionType": "CALL",
      "contractName": null,
      "contractAddress": "0x684a2aaf3d98bc8ed2c07988e8da9023026ad511",
      "function": "mint(address,uint256)",
      "arguments": [
        "0x5e6671ef689B2B2D4391a766B0486E5054136546",
        "100000000000000000000000000000"
      ],
      "transaction": {
        "from": "0x0ece75f3c36f7df2136dac7633165dbff53de3cd",
        "to": "0x684a2aaf3d98bc8ed2c07988e8da9023026ad511",
        "gas": "0x117dd",
        "value": "0x0",
        "input": "0x40c10f190000000000000000000000005e6671ef689b2b2d4391a766b0486e50541365460000000000000000000000000000000000000001431e0fae6d7217caa0000000",
        "nonce": "0xe2",
        "chainId": "0x2019"
      },
      "additionalContracts": [],
      "isFixedGasLimit": false
    }
  ],
  "receipts": [
    {
      "status": "0x1",
      "cumulativeGasUsed": "0xca9f",
      "logs": [
        {
          "address": "0x684a2aaf3d98bc8ed2c07988e8da9023026ad511",
          "topics": [
            "0xddf252ad1be2c89b69c2b068fc378daa952ba7f163c4a11628f55a4df523b3ef",
            "0x0000000000000000000000000000000000000000000000000000000000000000",
            "0x0000000000000000000000005e6671ef689b2b2d4391a766b0486e5054136546"
          ],
          "data": "0x0000000000000000000000000000000000000001431e0fae6d7217caa0000000",
          "blockHash": "0xe934b26b449b0f44e0798d8f26704e129b9844448e607c4aedd7a048125f3a46",
          "blockNumber": "0xbafb50f",
          "transactionHash": "0xa0df5f8828e094b7acbeb975f36c44e8494912220c35fb1a8c04d8e140f666f4",
          "transactionIndex": "0x0",
          "logIndex": "0x0",
          "removed": false
        }
      ],
      "logsBloom": "0x00000000000000000000020000000000080000000000000000020000000000000000000000000000000000000000000400000000000000000000000000000000000000000000000000000008000000000000000000000000000000000000000000000000020000000000000000000800000000000000000000000010000000000020010000000000000000000000000000000000000000000000000000000000000000000000000000000000000000000000000000000000000000000000000000000002000000000000000000000000000000000000000000000000000020000000000000000000000000000000000000000000000000000000000000000000",
      "type": "0x2",
      "transactionHash": "0xa0df5f8828e094b7acbeb975f36c44e8494912220c35fb1a8c04d8e140f666f4",
      "transactionIndex": "0x0",
      "blockHash": "0xe934b26b449b0f44e0798d8f26704e129b9844448e607c4aedd7a048125f3a46",
      "blockNumber": "0xbafb50f",
      "gasUsed": "0xca9f",
      "effectiveGasPrice": "0x66720b300",
      "from": "0x0ece75f3c36f7df2136dac7633165dbff53de3cd",
      "to": "0x684a2aaf3d98bc8ed2c07988e8da9023026ad511",
      "contractAddress": null
    }
  ],
  "libraries": [],
  "pending": [],
  "returns": {},
  "timestamp": 1758131643481,
  "chain": 8217,
  "commit": "2e7722d"
}