{
  "transactions": [
    {
      "hash": "0xe386c9a303f8e0ed41406fc114d2c92f5a601c9ec53ffe6f2b3429e15de4a75e",
      "transactionType": "CALL",
      "contractName": null,
      "contractAddress": "0xceb5c8903060197e46ab5ea5087b9f99cbc8da49",
      "function": "mint(address,uint256)",
      "arguments": [
        "0x6D9DAE901fbA6d51A37C57b1619DfF67A6e39eB3",
        "100000000000"
      ],
      "transaction": {
        "from": "0x0ece75f3c36f7df2136dac7633165dbff53de3cd",
        "to": "0xceb5c8903060197e46ab5ea5087b9f99cbc8da49",
        "gas": "0x1899c",
        "value": "0x0",
        "input": "0x40c10f190000000000000000000000006d9dae901fba6d51a37c57b1619dff67a6e39eb3000000000000000000000000000000000000000000000000000000174876e800",
        "nonce": "0x50",
        "chainId": "0x2019"
      },
      "additionalContracts": [],
      "isFixedGasLimit": false
    }
  ],
  "receipts": [
    {
      "status": "0x1",
      "cumulativeGasUsed": "0x36830",
      "logs": [
        {
          "address": "0xceb5c8903060197e46ab5ea5087b9f99cbc8da49",
          "topics": [
            "0xddf252ad1be2c89b69c2b068fc378daa952ba7f163c4a11628f55a4df523b3ef",
            "0x0000000000000000000000000000000000000000000000000000000000000000",
            "0x0000000000000000000000006d9dae901fba6d51a37c57b1619dff67a6e39eb3"
          ],
          "data": "0x000000000000000000000000000000000000000000000000000000174876e800",
          "blockHash": "0x5b8c26c87b90e896af9f7f4de1bb22ff789882163081b2d3bef62596c5edf075",
          "blockNumber": "0xbaba17f",
          "transactionHash": "0xe386c9a303f8e0ed41406fc114d2c92f5a601c9ec53ffe6f2b3429e15de4a75e",
          "transactionIndex": "0x3",
          "logIndex": "0x3",
          "removed": false
        }
      ],
      "logsBloom": "0x00000000000000000000000000000000000000000000000000000000000000000000000000000000000000000000000000000000000000000000000000000000000000000000000000000008000000000000000000000000000000000000000000000800020000000000000000000800000000000000000000000010000000000000000000000800000000000000000020000000000000000000000000000010000000000000000000000000000000000000000000000000000000020000000000000002000000000000000000000000000000000000000000000000000020000000000000000000000000000000000000000000004000000000000000000000",
      "type": "0x2",
      "transactionHash": "0xe386c9a303f8e0ed41406fc114d2c92f5a601c9ec53ffe6f2b3429e15de4a75e",
      "transactionIndex": "0x3",
      "blockHash": "0x5b8c26c87b90e896af9f7f4de1bb22ff789882163081b2d3bef62596c5edf075",
      "blockNumber": "0xbaba17f",
      "gasUsed": "0x10d23",
      "effectiveGasPrice": "0x66720b300",
      "from": "0x0ece75f3c36f7df2136dac7633165dbff53de3cd",
      "to": "0xceb5c8903060197e46ab5ea5087b9f99cbc8da49",
      "contractAddress": null
    }
  ],
  "libraries": [],
  "pending": [],
  "returns": {},
  "timestamp": 1757861917365,
  "chain": 8217,
  "commit": "512915d"
}