{
  "transactions": [
    {
      "hash": "0x94e4f3fedd7b0654efe42395382fc6abdd968fcc42a2d8010e993c227948d855",
      "transactionType": "CALL",
      "contractName": null,
      "contractAddress": "0xceb5c8903060197e46ab5ea5087b9f99cbc8da49",
      "function": "mint(address,uint256)",
      "arguments": [
        "0x0EcE75f3C36f7Df2136Dac7633165DBff53dE3CD",
        "100000000000000000"
      ],
      "transaction": {
        "from": "0x0ece75f3c36f7df2136dac7633165dbff53de3cd",
        "to": "0xceb5c8903060197e46ab5ea5087b9f99cbc8da49",
        "gas": "0xc65d",
        "value": "0x0",
        "input": "0x40c10f190000000000000000000000000ece75f3c36f7df2136dac7633165dbff53de3cd000000000000000000000000000000000000000000000000016345785d8a0000",
        "nonce": "0x77",
        "chainId": "0x2019"
      },
      "additionalContracts": [],
      "isFixedGasLimit": false
    }
  ],
  "receipts": [
    {
      "status": "0x1",
      "cumulativeGasUsed": "0x142064",
      "logs": [
        {
          "address": "0xceb5c8903060197e46ab5ea5087b9f99cbc8da49",
          "topics": [
            "0xddf252ad1be2c89b69c2b068fc378daa952ba7f163c4a11628f55a4df523b3ef",
            "0x0000000000000000000000000000000000000000000000000000000000000000",
            "0x0000000000000000000000000ece75f3c36f7df2136dac7633165dbff53de3cd"
          ],
          "data": "0x000000000000000000000000000000000000000000000000016345785d8a0000",
          "blockHash": "0xdd6631b7499cdc4fcfe100091c82f99d2e5bd9fcf370e3be02e7bf7ed14524f3",
          "blockNumber": "0xbacfd4c",
          "transactionHash": "0x94e4f3fedd7b0654efe42395382fc6abdd968fcc42a2d8010e993c227948d855",
          "transactionIndex": "0x2",
          "logIndex": "0x3",
          "removed": false
        }
      ],
      "logsBloom": "0x00000000000000000000000000000000000000000000000000000000000000000000000000000000000000000000000000000000000000000000000000000000000000000000000000000008000000000000000000000000000000000000000000000000020000000000000000000800000000000000200000000010000000000000000000000800000000000000000000000000000000000000000000000010000000000000000000000800000000000000000000000000000000000000000000000002000000000000000000000000000000000000000000000000000020000000000000200000000000000000000000000000004000000000000000000000",
      "type": "0x2",
      "transactionHash": "0x94e4f3fedd7b0654efe42395382fc6abdd968fcc42a2d8010e993c227948d855",
      "transactionIndex": "0x2",
      "blockHash": "0xdd6631b7499cdc4fcfe100091c82f99d2e5bd9fcf370e3be02e7bf7ed14524f3",
      "blockNumber": "0xbacfd4c",
      "gasUsed": "0x87a3",
      "effectiveGasPrice": "0x66720b300",
      "from": "0x0ece75f3c36f7df2136dac7633165dbff53de3cd",
      "to": "0xceb5c8903060197e46ab5ea5087b9f99cbc8da49",
      "contractAddress": null
    }
  ],
  "libraries": [],
  "pending": [],
  "returns": {},
  "timestamp": 1757951707481,
  "chain": 8217,
  "commit": "dc758c0"
}