{
  "transactions": [
    {
      "hash": "0xb7b4368e7a2b7b62cca03148037acd8fabbbce8d426b806dcdf564b83f2e4286",
      "transactionType": "CALL",
      "contractName": null,
      "contractAddress": "0xceb5c8903060197e46ab5ea5087b9f99cbc8da49",
      "function": "mint(address,uint256)",
      "arguments": [
        "0xaf9842ADacB4b2fA619D45fE11579Fae5FAf1698",
        "100000000000"
      ],
      "transaction": {
        "from": "0x0ece75f3c36f7df2136dac7633165dbff53de3cd",
        "to": "0xceb5c8903060197e46ab5ea5087b9f99cbc8da49",
        "gas": "0x1177a",
        "value": "0x0",
        "input": "0x40c10f19000000000000000000000000af9842adacb4b2fa619d45fe11579fae5faf1698000000000000000000000000000000000000000000000000000000174876e800",
        "nonce": "0x160",
        "chainId": "0x2019"
      },
      "additionalContracts": [],
      "isFixedGasLimit": false
    }
  ],
  "receipts": [
    {
      "status": "0x1",
      "cumulativeGasUsed": "0x104940",
      "logs": [
        {
          "address": "0xceb5c8903060197e46ab5ea5087b9f99cbc8da49",
          "topics": [
            "0xddf252ad1be2c89b69c2b068fc378daa952ba7f163c4a11628f55a4df523b3ef",
            "0x0000000000000000000000000000000000000000000000000000000000000000",
            "0x000000000000000000000000af9842adacb4b2fa619d45fe11579fae5faf1698"
          ],
          "data": "0x000000000000000000000000000000000000000000000000000000174876e800",
          "blockHash": "0x3f4c89555457a42cd627ab45665320d40110ecfcde202e510503530d287464cd",
          "blockNumber": "0xbb20339",
          "transactionHash": "0xb7b4368e7a2b7b62cca03148037acd8fabbbce8d426b806dcdf564b83f2e4286",
          "transactionIndex": "0x6",
          "logIndex": "0x5",
          "removed": false
        }
      ],
      "logsBloom": "0x00000000000000000000000000000000000000000000000000000000000000000000000000000000000000000000000010000000000000000000000000000000000000008000000000000008000000000000000000000000000000000000000000000000020000000000000000000800000000000000000000000010000000000000000000000800000000000000000000000000000000000000000000000010000000000000000000000000000000000000000000000000000000000000000000000002000000000000000000000000000000000000000000000000000020000000000000800000000000000000000000000000004000000000000000000000",
      "type": "0x2",
      "transactionHash": "0xb7b4368e7a2b7b62cca03148037acd8fabbbce8d426b806dcdf564b83f2e4286",
      "transactionIndex": "0x6",
      "blockHash": "0x3f4c89555457a42cd627ab45665320d40110ecfcde202e510503530d287464cd",
      "blockNumber": "0xbb20339",
      "gasUsed": "0xca57",
      "effectiveGasPrice": "0x66720b300",
      "from": "0x0ece75f3c36f7df2136dac7633165dbff53de3cd",
      "to": "0xceb5c8903060197e46ab5ea5087b9f99cbc8da49",
      "contractAddress": null
    }
  ],
  "libraries": [],
  "pending": [],
  "returns": {},
  "timestamp": 1758284789876,
  "chain": 8217,
  "commit": "6c82bda"
}