{
  "transactions": [
    {
      "hash": "0xfa97cf334c0757d9e07e641a619b543921b20fa4456f2494fe93b9e4a536bfba",
      "transactionType": "CALL",
      "contractName": null,
      "contractAddress": "0xceb5c8903060197e46ab5ea5087b9f99cbc8da49",
      "function": "mint(address,uint256)",
      "arguments": [
        "0x5e6671ef689B2B2D4391a766B0486E5054136546",
        "100000000000"
      ],
      "transaction": {
        "from": "0x0ece75f3c36f7df2136dac7633165dbff53de3cd",
        "to": "0xceb5c8903060197e46ab5ea5087b9f99cbc8da49",
        "gas": "0xc63a",
        "value": "0x0",
        "input": "0x40c10f190000000000000000000000005e6671ef689b2b2d4391a766b0486e5054136546000000000000000000000000000000000000000000000000000000174876e800",
        "nonce": "0xe3",
        "chainId": "0x2019"
      },
      "additionalContracts": [],
      "isFixedGasLimit": false
    }
  ],
  "receipts": [
    {
      "status": "0x1",
      "cumulativeGasUsed": "0x878b",
      "logs": [
        {
          "address": "0xceb5c8903060197e46ab5ea5087b9f99cbc8da49",
          "topics": [
            "0xddf252ad1be2c89b69c2b068fc378daa952ba7f163c4a11628f55a4df523b3ef",
            "0x0000000000000000000000000000000000000000000000000000000000000000",
            "0x0000000000000000000000005e6671ef689b2b2d4391a766b0486e5054136546"
          ],
          "data": "0x000000000000000000000000000000000000000000000000000000174876e800",
          "blockHash": "0x7132524cd52713c11c320b84e5e03171214474720a199ca1168012fc62036713",
          "blockNumber": "0xbafb58f",
          "transactionHash": "0xfa97cf334c0757d9e07e641a619b543921b20fa4456f2494fe93b9e4a536bfba",
          "transactionIndex": "0x0",
          "logIndex": "0x0",
          "removed": false
        }
      ],
      "logsBloom": "0x00000000000000000000020000000000000000000000000000020000000000000000000000000000000000000000000000000000000000000000000000000000000000000000000000000008000000000000000000000000000000000000000000000000020000000000000000000800000000000000000000000010000000000020000000000800000000000000000000000000000000000000000000000010000000000000000000000000000000000000000000000000000000000000000000000002000000000000000000000000000000000000000000000000000020000000000000000000000000000000000000000000004000000000000000000000",
      "type": "0x2",
      "transactionHash": "0xfa97cf334c0757d9e07e641a619b543921b20fa4456f2494fe93b9e4a536bfba",
      "transactionIndex": "0x0",
      "blockHash": "0x7132524cd52713c11c320b84e5e03171214474720a199ca1168012fc62036713",
      "blockNumber": "0xbafb58f",
      "gasUsed": "0x878b",
      "effectiveGasPrice": "0x66720b300",
      "from": "0x0ece75f3c36f7df2136dac7633165dbff53de3cd",
      "to": "0xceb5c8903060197e46ab5ea5087b9f99cbc8da49",
      "contractAddress": null
    }
  ],
  "libraries": [],
  "pending": [],
  "returns": {},
  "timestamp": 1758131770139,
  "chain": 8217,
  "commit": "2e7722d"
}