{
  "transactions": [
    {
      "hash": "0xebb855c4fb01f9fc18b0b8deaaad202047c588616a058bf9daec0adb5b218ec0",
      "transactionType": "CALL",
      "contractName": null,
      "contractAddress": "0x684a2aaf3d98bc8ed2c07988e8da9023026ad511",
      "function": "mint(address,uint256)",
      "arguments": [
        "0x0EcE75f3C36f7Df2136Dac7633165DBff53dE3CD",
        "100000000000000000000000000000"
      ],
      "transaction": {
        "from": "0x0ece75f3c36f7df2136dac7633165dbff53de3cd",
        "to": "0x684a2aaf3d98bc8ed2c07988e8da9023026ad511",
        "gas": "0xc6a4",
        "value": "0x0",
        "input": "0x40c10f190000000000000000000000000ece75f3c36f7df2136dac7633165dbff53de3cd0000000000000000000000000000000000000001431e0fae6d7217caa0000000",
        "nonce": "0x97",
        "chainId": "0x2019"
      },
      "additionalContracts": [],
      "isFixedGasLimit": false
    }
  ],
  "receipts": [
    {
      "status": "0x1",
      "cumulativeGasUsed": "0x2672e3",
      "logs": [
        {
          "address": "0x684a2aaf3d98bc8ed2c07988e8da9023026ad511",
          "topics": [
            "0xddf252ad1be2c89b69c2b068fc378daa952ba7f163c4a11628f55a4df523b3ef",
            "0x0000000000000000000000000000000000000000000000000000000000000000",
            "0x0000000000000000000000000ece75f3c36f7df2136dac7633165dbff53de3cd"
          ],
          "data": "0x0000000000000000000000000000000000000001431e0fae6d7217caa0000000",
          "blockHash": "0x6fb94efcfcc1499a6078b1f14f4a32ea08ae27ff70ea0c02677a7ac477c57e48",
          "blockNumber": "0xbad25d0",
          "transactionHash": "0xebb855c4fb01f9fc18b0b8deaaad202047c588616a058bf9daec0adb5b218ec0",
          "transactionIndex": "0x2",
          "logIndex": "0x1e",
          "removed": false
        }
      ],
      "logsBloom": "0x00000000000000000000000000000000080000000000000000000000000000000000000000000000000000000000000400000000000000000000000000000000000000000000000000000008000000000000000000000000000000000000000000000000020000000000000000000800000000000000200000000010000000000000010000000000000000000000000000000000000000000000000000000000000000000000000000000800000000000000000000000000000000000000000000000002000000000000000000000000000000000000000000000000000020000000000000200000000000000000000000000000000000000000000000000000",
      "type": "0x2",
      "transactionHash": "0xebb855c4fb01f9fc18b0b8deaaad202047c588616a058bf9daec0adb5b218ec0",
      "transactionIndex": "0x2",
      "blockHash": "0x6fb94efcfcc1499a6078b1f14f4a32ea08ae27ff70ea0c02677a7ac477c57e48",
      "blockNumber": "0xbad25d0",
      "gasUsed": "0x87d3",
      "effectiveGasPrice": "0x66720b300",
      "from": "0x0ece75f3c36f7df2136dac7633165dbff53de3cd",
      "to": "0x684a2aaf3d98bc8ed2c07988e8da9023026ad511",
      "contractAddress": null
    }
  ],
  "libraries": [],
  "pending": [],
  "returns": {},
  "timestamp": 1757962170665,
  "chain": 8217,
  "commit": "62bb711"
}