{
  "transactions": [
    {
      "hash": "0xa702190d8509c76d8676344a871fa981d83eafa5868eb35373646d353cba3f90",
      "transactionType": "CALL",
      "contractName": null,
      "contractAddress": "0x684a2aaf3d98bc8ed2c07988e8da9023026ad511",
      "function": "mint(address,uint256)",
      "arguments": [
        "0x0EcE75f3C36f7Df2136Dac7633165DBff53dE3CD",
        "100000000000000000000000000000000000000000"
      ],
      "transaction": {
        "from": "0x0ece75f3c36f7df2136dac7633165dbff53de3cd",
        "to": "0x684a2aaf3d98bc8ed2c07988e8da9023026ad511",
        "gas": "0xbbcc",
        "value": "0x0",
        "input": "0x40c10f190000000000000000000000000ece75f3c36f7df2136dac7633165dbff53de3cd00000000000000000000000000000125dfa371a19e6f7cb54395ca0000000000",
        "nonce": "0xa7",
        "chainId": "0x2019"
      },
      "additionalContracts": [],
      "isFixedGasLimit": false
    }
  ],
  "receipts": [
    {
      "status": "0x1",
      "cumulativeGasUsed": "0xce4092",
      "logs": [
        {
          "address": "0x684a2aaf3d98bc8ed2c07988e8da9023026ad511",
          "topics": [
            "0xddf252ad1be2c89b69c2b068fc378daa952ba7f163c4a11628f55a4df523b3ef",
            "0x0000000000000000000000000000000000000000000000000000000000000000",
            "0x0000000000000000000000000ece75f3c36f7df2136dac7633165dbff53de3cd"
          ],
          "data": "0x00000000000000000000000000000125dfa371a19e6f7cb54395ca0000000000",
          "blockHash": "0xa2a0fc74bf148c45a9449f47da4eb9ebe5164b686e5d565d1ec22ef0b7a0d58b",
          "blockNumber": "0xbae0ac9",
          "transactionHash": "0xa702190d8509c76d8676344a871fa981d83eafa5868eb35373646d353cba3f90",
          "transactionIndex": "0x1b",
          "logIndex": "0xbb",
          "removed": false
        }
      ],
      "logsBloom": "0x00000000000000000000000000000000080000000000000000000000000000000000000000000000000000000000000400000000000000000000000000000000000000000000000000000008000000000000000000000000000000000000000000000000020000000000000000000800000000000000200000000010000000000000010000000000000000000000000000000000000000000000000000000000000000000000000000000800000000000000000000000000000000000000000000000002000000000000000000000000000000000000000000000000000020000000000000200000000000000000000000000000000000000000000000000000",
      "type": "0x2",
      "transactionHash": "0xa702190d8509c76d8676344a871fa981d83eafa5868eb35373646d353cba3f90",
      "transactionIndex": "0x1b",
      "blockHash": "0xa2a0fc74bf148c45a9449f47da4eb9ebe5164b686e5d565d1ec22ef0b7a0d58b",
      "blockNumber": "0xbae0ac9",
      "gasUsed": "0x87f7",
      "effectiveGasPrice": "0x66720b300",
      "from": "0x0ece75f3c36f7df2136dac7633165dbff53de3cd",
      "to": "0x684a2aaf3d98bc8ed2c07988e8da9023026ad511",
      "contractAddress": null
    }
  ],
  "libraries": [],
  "pending": [],
  "returns": {},
  "timestamp": 1758021440002,
  "chain": 8217,
  "commit": "62bb711"
}