{
  "transactions": [
    {
      "hash": "0xc050421b12d9d05afe502bd37d532838377a3c82749774632389ec90ca172a4c",
      "transactionType": "CALL",
      "contractName": null,
      "contractAddress": "0xceb5c8903060197e46ab5ea5087b9f99cbc8da49",
      "function": "mint(address,uint256)",
      "arguments": [
        "0x0EcE75f3C36f7Df2136Dac7633165DBff53dE3CD",
        "100000000000"
      ],
      "transaction": {
        "from": "0x0ece75f3c36f7df2136dac7633165dbff53de3cd",
        "to": "0xceb5c8903060197e46ab5ea5087b9f99cbc8da49",
        "gas": "0x1177a",
        "value": "0x0",
        "input": "0x40c10f190000000000000000000000000ece75f3c36f7df2136dac7633165dbff53de3cd000000000000000000000000000000000000000000000000000000174876e800",
        "nonce": "0x6e",
        "chainId": "0x2019"
      },
      "additionalContracts": [],
      "isFixedGasLimit": false
    }
  ],
  "receipts": [
    {
      "status": "0x1",
      "cumulativeGasUsed": "0x3ecb16",
      "logs": [
        {
          "address": "0xceb5c8903060197e46ab5ea5087b9f99cbc8da49",
          "topics": [
            "0xddf252ad1be2c89b69c2b068fc378daa952ba7f163c4a11628f55a4df523b3ef",
            "0x0000000000000000000000000000000000000000000000000000000000000000",
            "0x0000000000000000000000000ece75f3c36f7df2136dac7633165dbff53de3cd"
          ],
          "data": "0x000000000000000000000000000000000000000000000000000000174876e800",
          "blockHash": "0x8ba3cd869473cbac5d0f611158fdf2ac5fc8050a063526d986a40210fb4f7b0d",
          "blockNumber": "0xbabc2bb",
          "transactionHash": "0xc050421b12d9d05afe502bd37d532838377a3c82749774632389ec90ca172a4c",
          "transactionIndex": "0x5",
          "logIndex": "0x32",
          "removed": false
        }
      ],
      "logsBloom": "0x00000000000000000000000000000000000000000000000000000000000000000000000000000000000000000000000000000000000000000000000000000000000000000000000000000008000000000000000000000000000000000000000000000000020000000000000000000800000000000000200000000010000000000000000000000800000000000000000000000000000000000000000000000010000000000000000000000800000000000000000000000000000000000000000000000002000000000000000000000000000000000000000000000000000020000000000000200000000000000000000000000000004000000000000000000000",
      "type": "0x2",
      "transactionHash": "0xc050421b12d9d05afe502bd37d532838377a3c82749774632389ec90ca172a4c",
      "transactionIndex": "0x5",
      "blockHash": "0x8ba3cd869473cbac5d0f611158fdf2ac5fc8050a063526d986a40210fb4f7b0d",
      "blockNumber": "0xbabc2bb",
      "gasUsed": "0xca57",
      "effectiveGasPrice": "0x66720b300",
      "from": "0x0ece75f3c36f7df2136dac7633165dbff53de3cd",
      "to": "0xceb5c8903060197e46ab5ea5087b9f99cbc8da49",
      "contractAddress": null
    }
  ],
  "libraries": [],
  "pending": [],
  "returns": {},
  "timestamp": 1757870479099,
  "chain": 8217,
  "commit": "dc758c0"
}