{
  "transactions": [
    {
      "hash": "0x41965e4d009bbf858a2752e46686a3de179989f1ff4ba69c1013438d036e2e69",
      "transactionType": "CALL",
      "contractName": null,
      "contractAddress": "0x684a2aaf3d98bc8ed2c07988e8da9023026ad511",
      "function": "mint(address,uint256)",
      "arguments": [
        "0x0EcE75f3C36f7Df2136Dac7633165DBff53dE3CD",
        "100000000000000000000000"
      ],
      "transaction": {
        "from": "0x0ece75f3c36f7df2136dac7633165dbff53de3cd",
        "to": "0x684a2aaf3d98bc8ed2c07988e8da9023026ad511",
        "gas": "0x117bd",
        "value": "0x0",
        "input": "0x40c10f190000000000000000000000000ece75f3c36f7df2136dac7633165dbff53de3cd00000000000000000000000000000000000000000000152d02c7e14af6800000",
        "nonce": "0x6f",
        "chainId": "0x2019"
      },
      "additionalContracts": [],
      "isFixedGasLimit": false
    }
  ],
  "receipts": [
    {
      "status": "0x1",
      "cumulativeGasUsed": "0xca87",
      "logs": [
        {
          "address": "0x684a2aaf3d98bc8ed2c07988e8da9023026ad511",
          "topics": [
            "0xddf252ad1be2c89b69c2b068fc378daa952ba7f163c4a11628f55a4df523b3ef",
            "0x0000000000000000000000000000000000000000000000000000000000000000",
            "0x0000000000000000000000000ece75f3c36f7df2136dac7633165dbff53de3cd"
          ],
          "data": "0x00000000000000000000000000000000000000000000152d02c7e14af6800000",
          "blockHash": "0xd72ecef12a34cf1511c77d84d75f6fc36609ee8ff464b38ba8ff1c553deb6873",
          "blockNumber": "0xbabc2ce",
          "transactionHash": "0x41965e4d009bbf858a2752e46686a3de179989f1ff4ba69c1013438d036e2e69",
          "transactionIndex": "0x0",
          "logIndex": "0x0",
          "removed": false
        }
      ],
      "logsBloom": "0x00000000000000000000000000000000080000000000000000000000000000000000000000000000000000000000000400000000000000000000000000000000000000000000000000000008000000000000000000000000000000000000000000000000020000000000000000000800000000000000200000000010000000000000010000000000000000000000000000000000000000000000000000000000000000000000000000000800000000000000000000000000000000000000000000000002000000000000000000000000000000000000000000000000000020000000000000200000000000000000000000000000000000000000000000000000",
      "type": "0x2",
      "transactionHash": "0x41965e4d009bbf858a2752e46686a3de179989f1ff4ba69c1013438d036e2e69",
      "transactionIndex": "0x0",
      "blockHash": "0xd72ecef12a34cf1511c77d84d75f6fc36609ee8ff464b38ba8ff1c553deb6873",
      "blockNumber": "0xbabc2ce",
      "gasUsed": "0xca87",
      "effectiveGasPrice": "0x66720b300",
      "from": "0x0ece75f3c36f7df2136dac7633165dbff53de3cd",
      "to": "0x684a2aaf3d98bc8ed2c07988e8da9023026ad511",
      "contractAddress": null
    }
  ],
  "libraries": [],
  "pending": [],
  "returns": {},
  "timestamp": 1757870498072,
  "chain": 8217,
  "commit": "dc758c0"
}