{
  "transactions": [
    {
      "hash": "0x4dc0b44ada185bf97c184864951475c0a51da11dcfc040c36d956110a01507eb",
      "transactionType": "CALL",
      "contractName": null,
      "contractAddress": "0x19aac5f612f524b754ca7e7c41cbfa2e981a4432",
      "function": "approve(address,uint256)",
      "arguments": [
        "0x15858A57854BBf0DF60A737811d50e1Ee785f9bc",
        "1000"
      ],
      "transaction": {
        "from": "0x0ece75f3c36f7df2136dac7633165dbff53de3cd",
        "to": "0x19aac5f612f524b754ca7e7c41cbfa2e981a4432",
        "gas": "0x10738",
        "value": "0x0",
        "input": "0x095ea7b300000000000000000000000015858a57854bbf0df60a737811d50e1ee785f9bc00000000000000000000000000000000000000000000000000000000000003e8",
        "nonce": "0x30",
        "chainId": "0x2019"
      },
      "additionalContracts": [],
      "isFixedGasLimit": false
    },
    {
      "hash": "0x146c2645d366817aa2be467cc058651680dc91f14d61c376ccc50943dfdbea4a",
      "transactionType": "CALL",
      "contractName": null,
      "contractAddress": "0x15858a57854bbf0df60a737811d50e1ee785f9bc",
      "function": "send((uint32,bytes32,uint256,uint256,bytes,bytes,bytes),(uint256,uint256),address)",
      "arguments": [
        "(30184, 0x0000000000000000000000000ece75f3c36f7df2136dac7633165dbff53de3cd, 1000, 1000, 0x0003010011010000000000000000000000000000fde8, 0x, 0x)",
        "(368393038340259933, 0)",
        "0x1804c8AB1F12E6bbf3894d4083f33e07309d1f38"
      ],
      "transaction": {
        "from": "0x0ece75f3c36f7df2136dac7633165dbff53de3cd",
        "to": "0x15858a57854bbf0df60a737811d50e1ee785f9bc",
        "gas": "0x65b38",
        "value": "0x51ccb843bff805d",
        "input": "0xc7c7f5b30000000000000000000000000000000000000000000000000000000000000080000000000000000000000000000000000000000000000000051ccb843bff805d00000000000000000000000000000000000000000000000000000000000000000000000000000000000000001804c8ab1f12e6bbf3894d4083f33e07309d1f3800000000000000000000000000000000000000000000000000000000000075e80000000000000000000000000ece75f3c36f7df2136dac7633165dbff53de3cd00000000000000000000000000000000000000000000000000000000000003e800000000000000000000000000000000000000000000000000000000000003e800000000000000000000000000000000000000000000000000000000000000e00000000000000000000000000000000000000000000000000000000000000120000000000000000000000000000000000000000000000000000000000000014000000000000000000000000000000000000000000000000000000000000000160003010011010000000000000000000000000000fde80000000000000000000000000000000000000000000000000000000000000000000000000000000000000000000000000000000000000000000000000000000000000000000000000000",
        "nonce": "0x31",
        "chainId": "0x2019"
      },
      "additionalContracts": [],
      "isFixedGasLimit": false
    }
  ],
  "receipts": [
    {
      "status": "0x1",
      "cumulativeGasUsed": "0x1d987",
      "logs": [
        {
          "address": "0x19aac5f612f524b754ca7e7c41cbfa2e981a4432",
          "topics": [
            "0x8c5be1e5ebec7d5bd14f71427d1e84f3dd0314c0f7b2291e5b200ac8c7c3b925",
            "0x0000000000000000000000000ece75f3c36f7df2136dac7633165dbff53de3cd",
            "0x00000000000000000000000015858a57854bbf0df60a737811d50e1ee785f9bc"
          ],
          "data": "0x00000000000000000000000000000000000000000000000000000000000003e8",
          "blockHash": "0x34f84bfb0134b7dce934799be7f620ca87c45cbbcb0cba9ca41a55c3e783fcbb",
          "blockNumber": "0xbaa7f8e",
          "transactionHash": "0x4dc0b44ada185bf97c184864951475c0a51da11dcfc040c36d956110a01507eb",
          "transactionIndex": "0x2",
          "logIndex": "0x2",
          "removed": false
        }
      ],
      "logsBloom": "0x00000000000000000000000000000000000000000000000000000000000000000000000000000000000000000000000000000000000000000000000000200000000000000000000000000000000000010000000000000000000000000000000000000000000000000000000000000000000000000000200000000000000000000000000000000000000000000000000000000000000000000000000000000000020000000000000000000800000008000000000000000000000000000000000000000004000000000000000000000000000000000000000000100000000000000010000000200000000000000000000000000000000100000000000000002000",
      "type": "0x2",
      "transactionHash": "0x4dc0b44ada185bf97c184864951475c0a51da11dcfc040c36d956110a01507eb",
      "transactionIndex": "0x2",
      "blockHash": "0x34f84bfb0134b7dce934799be7f620ca87c45cbbcb0cba9ca41a55c3e783fcbb",
      "blockNumber": "0xbaa7f8e",
      "gasUsed": "0xb3fb",
      "effectiveGasPrice": "0x66720b300",
      "from": "0x0ece75f3c36f7df2136dac7633165dbff53de3cd",
      "to": "0x19aac5f612f524b754ca7e7c41cbfa2e981a4432",
      "contractAddress": null
    },
    {
      "status": "0x1",
      "cumulativeGasUsed": "0x6739b",
      "logs": [
        {
          "address": "0x19aac5f612f524b754ca7e7c41cbfa2e981a4432",
          "topics": [
            "0xddf252ad1be2c89b69c2b068fc378daa952ba7f163c4a11628f55a4df523b3ef",
            "0x0000000000000000000000000ece75f3c36f7df2136dac7633165dbff53de3cd",
            "0x00000000000000000000000015858a57854bbf0df60a737811d50e1ee785f9bc"
          ],
          "data": "0x00000000000000000000000000000000000000000000000000000000000003e8",
          "blockHash": "0x34f84bfb0134b7dce934799be7f620ca87c45cbbcb0cba9ca41a55c3e783fcbb",
          "blockNumber": "0xbaa7f8e",
          "transactionHash": "0x146c2645d366817aa2be467cc058651680dc91f14d61c376ccc50943dfdbea4a",
          "transactionIndex": "0x3",
          "logIndex": "0x3",
          "removed": false
        },
        {
          "address": "0x9714ccf1dedef14bab5013625db92746c1358cb4",
          "topics": [
            "0x61ed099e74a97a1d7f8bb0952a88ca8b7b8ebd00c126ea04671f92a81213318a"
          ],
          "data": "0x000000000000000000000000e149187a987f129fd3d397ed04a60b0b89d1669f00000000000000000000000000000000000000000000000004d18a0a8344e697",
          "blockHash": "0x34f84bfb0134b7dce934799be7f620ca87c45cbbcb0cba9ca41a55c3e783fcbb",
          "blockNumber": "0xbaa7f8e",
          "transactionHash": "0x146c2645d366817aa2be467cc058651680dc91f14d61c376ccc50943dfdbea4a",
          "transactionIndex": "0x3",
          "logIndex": "0x4",
          "removed": false
        },
        {
          "address": "0x9714ccf1dedef14bab5013625db92746c1358cb4",
          "topics": [
            "0x07ea52d82345d6e838192107d8fd7123d9c2ec8e916cd0aad13fd2b60db24644"
          ],
          "data": "0x000000000000000000000000000000000000000000000000000000000000006000000000000000000000000000000000000000000000000000000000000000c000000000000000000000000000000000000000000000000000000000000000e000000000000000000000000000000000000000000000000000000000000000020000000000000000000000001154d04d07aee26ff2c200bd373eb76a7e5694d6000000000000000000000000acde1f22eeab249d3ca6ba8805c8fee9f52a16e70000000000000000000000000000000000000000000000000000000000000000000000000000000000000000000000000000000000000000000000000000000200000000000000000000000000000000000000000000000000262f387ec7e6c40000000000000000000000000000000000000000000000000025124139f2b302",
          "blockHash": "0x34f84bfb0134b7dce934799be7f620ca87c45cbbcb0cba9ca41a55c3e783fcbb",
          "blockNumber": "0xbaa7f8e",
          "transactionHash": "0x146c2645d366817aa2be467cc058651680dc91f14d61c376ccc50943dfdbea4a",
          "transactionIndex": "0x3",
          "logIndex": "0x5",
          "removed": false
        },
        {
          "address": "0x1a44076050125825900e736c501f859c50fe728c",
          "topics": [
            "0x1ab700d4ced0c005b164c0f789fd09fcbb0156d4c2041b8a3bfbcd961cd1567f"
          ],
          "data": "0x000000000000000000000000000000000000000000000000000000000000006000000000000000000000000000000000000000000000000000000000000001200000000000000000000000009714ccf1dedef14bab5013625db92746c1358cb40000000000000000000000000000000000000000000000000000000000000099010000000000000001000075c600000000000000000000000015858a57854bbf0df60a737811d50e1ee785f9bc000075e8000000000000000000000000b9b3a1baa8cf4c5cd6b4d132ed7b0cbe05646f6feaf3e429224c6671126809088310891f632b3038728847d678ade8d66bb739d60000000000000000000000000ece75f3c36f7df2136dac7633165dbff53de3cd00000000000003e800000000000000000000000000000000000000000000000000000000000000000000000000002a000301001101000000000000000000000000000186a0010011010000000000000000000000000000fde800000000000000000000000000000000000000000000",
          "blockHash": "0x34f84bfb0134b7dce934799be7f620ca87c45cbbcb0cba9ca41a55c3e783fcbb",
          "blockNumber": "0xbaa7f8e",
          "transactionHash": "0x146c2645d366817aa2be467cc058651680dc91f14d61c376ccc50943dfdbea4a",
          "transactionIndex": "0x3",
          "logIndex": "0x6",
          "removed": false
        },
        {
          "address": "0x15858a57854bbf0df60a737811d50e1ee785f9bc",
          "topics": [
            "0x85496b760a4b7f8d66384b9df21b381f5d1b1e79f229a47aaf4c232edc2fe59a",
            "0xeaf3e429224c6671126809088310891f632b3038728847d678ade8d66bb739d6",
            "0x0000000000000000000000000ece75f3c36f7df2136dac7633165dbff53de3cd"
          ],
          "data": "0x00000000000000000000000000000000000000000000000000000000000075e800000000000000000000000000000000000000000000000000000000000003e800000000000000000000000000000000000000000000000000000000000003e8",
          "blockHash": "0x34f84bfb0134b7dce934799be7f620ca87c45cbbcb0cba9ca41a55c3e783fcbb",
          "blockNumber": "0xbaa7f8e",
          "transactionHash": "0x146c2645d366817aa2be467cc058651680dc91f14d61c376ccc50943dfdbea4a",
          "transactionIndex": "0x3",
          "logIndex": "0x7",
          "removed": false
        }
      ],
      "logsBloom": "0x00000000000000000000000000000000000000000000000000000000001000000000000000000001000000000000000000000000000000000000000000000000000002000000000000000008000040030000000000000000000000000000000000000000000000008000000000000000000000000010200000000010000000040000000000000000000000080000000000000000000000000000000000000000000000008000000000100800000008000000000000400000000440000000000000000007000000000000000080000000000000000100000000100000000002000000040000200000000000000000002000000000018100000200000000002000",
      "type": "0x2",
      "transactionHash": "0x146c2645d366817aa2be467cc058651680dc91f14d61c376ccc50943dfdbea4a",
      "transactionIndex": "0x3",
      "blockHash": "0x34f84bfb0134b7dce934799be7f620ca87c45cbbcb0cba9ca41a55c3e783fcbb",
      "blockNumber": "0xbaa7f8e",
      "gasUsed": "0x49a14",
      "effectiveGasPrice": "0x66720b300",
      "from": "0x0ece75f3c36f7df2136dac7633165dbff53de3cd",
      "to": "0x15858a57854bbf0df60a737811d50e1ee785f9bc",
      "contractAddress": null
    }
  ],
  "libraries": [],
  "pending": [],
  "returns": {},
  "timestamp": 1757787041152,
  "chain": 8217,
  "commit": "e54a7ff"
}