{
  "transactions": [
    {
      "hash": "0x6004c658ce044f58887b3a3dadbc9e0cab54505057a0afccf44307cf92578419",
      "transactionType": "CALL",
      "contractName": null,
      "contractAddress": "0x6d68a52bc77f2eac3582a7072ead94c19b9f480c",
      "function": "setPeer(uint32,bytes32)",
      "arguments": [
        "30184",
        "0x000000000000000000000000ad063b1915bf95fb32f79138c0b668f232676333"
      ],
      "transaction": {
        "from": "0x0ece75f3c36f7df2136dac7633165dbff53de3cd",
        "to": "0x6d68a52bc77f2eac3582a7072ead94c19b9f480c",
        "gas": "0xa807",
        "value": "0x0",
        "input": "0x3400288b00000000000000000000000000000000000000000000000000000000000075e8000000000000000000000000ad063b1915bf95fb32f79138c0b668f232676333",
        "nonce": "0x150",
        "chainId": "0x2019"
      },
      "additionalContracts": [],
      "isFixedGasLimit": false
    },
    {
      "hash": "0x116a3e9ff6ffd576c7afa0fa0b638c3c550b491f89ce11f6abdc8dd58d9b1260",
      "transactionType": "CALL",
      "contractName": null,
      "contractAddress": "0x6d68a52bc77f2eac3582a7072ead94c19b9f480c",
      "function": "setPeer(uint32,bytes32)",
      "arguments": [
        "30150",
        "0x0000000000000000000000006d68a52bc77f2eac3582a7072ead94c19b9f480c"
      ],
      "transaction": {
        "from": "0x0ece75f3c36f7df2136dac7633165dbff53de3cd",
        "to": "0x6d68a52bc77f2eac3582a7072ead94c19b9f480c",
        "gas": "0x98ec",
        "value": "0x0",
        "input": "0x3400288b00000000000000000000000000000000000000000000000000000000000075c60000000000000000000000006d68a52bc77f2eac3582a7072ead94c19b9f480c",
        "nonce": "0x151",
        "chainId": "0x2019"
      },
      "additionalContracts": [],
      "isFixedGasLimit": false
    },
    {
      "hash": "0x5eb2629f03c6d28f40a91f07b1ebfea7324ab2c9ba073381a212bd7634502a8f",
      "transactionType": "CALL",
      "contractName": null,
      "contractAddress": "0x920cd2f6e139b6c40053bcd5f67923d1d7dd3140",
      "function": "setPeer(uint32,bytes32)",
      "arguments": [
        "30184",
        "0x000000000000000000000000ad063b1915bf95fb32f79138c0b668f232676333"
      ],
      "transaction": {
        "from": "0x0ece75f3c36f7df2136dac7633165dbff53de3cd",
        "to": "0x920cd2f6e139b6c40053bcd5f67923d1d7dd3140",
        "gas": "0xa807",
        "value": "0x0",
        "input": "0x3400288b00000000000000000000000000000000000000000000000000000000000075e8000000000000000000000000ad063b1915bf95fb32f79138c0b668f232676333",
        "nonce": "0x152",
        "chainId": "0x2019"
      },
      "additionalContracts": [],
      "isFixedGasLimit": false
    },
    {
      "hash": "0xda87cdb2d940dde05d70658149c9203f986dd04756a7d936e493bf5904c790b4",
      "transactionType": "CALL",
      "contractName": null,
      "contractAddress": "0x920cd2f6e139b6c40053bcd5f67923d1d7dd3140",
      "function": "setPeer(uint32,bytes32)",
      "arguments": [
        "30150",
        "0x000000000000000000000000920cd2f6e139b6c40053bcd5f67923d1d7dd3140"
      ],
      "transaction": {
        "from": "0x0ece75f3c36f7df2136dac7633165dbff53de3cd",
        "to": "0x920cd2f6e139b6c40053bcd5f67923d1d7dd3140",
        "gas": "0xa1d9",
        "value": "0x0",
        "input": "0x3400288b00000000000000000000000000000000000000000000000000000000000075c6000000000000000000000000920cd2f6e139b6c40053bcd5f67923d1d7dd3140",
        "nonce": "0x153",
        "chainId": "0x2019"
      },
      "additionalContracts": [],
      "isFixedGasLimit": false
    },
    {
      "hash": "0x676d3f9ea786939d2189de8bf3ac8395533a0f24fc1a7e42f4b4b1cd70985395",
      "transactionType": "CALL",
      "contractName": null,
      "contractAddress": "0x5ddbbc68527214e0aca3b4175860080cbdaa12ff",
      "function": "setPeer(uint32,bytes32)",
      "arguments": [
        "30184",
        "0x000000000000000000000000b83e44f1d59bd8743ae45816acd5622fa1a5624d"
      ],
      "transaction": {
        "from": "0x0ece75f3c36f7df2136dac7633165dbff53de3cd",
        "to": "0x5ddbbc68527214e0aca3b4175860080cbdaa12ff",
        "gas": "0xa807",
        "value": "0x0",
        "input": "0x3400288b00000000000000000000000000000000000000000000000000000000000075e8000000000000000000000000b83e44f1d59bd8743ae45816acd5622fa1a5624d",
        "nonce": "0x154",
        "chainId": "0x2019"
      },
      "additionalContracts": [],
      "isFixedGasLimit": false
    },
    {
      "hash": "0x254061ffcf9a342a0d38b2f11e8cc38501341c2f87b1f516916ee0b532af788c",
      "transactionType": "CALL",
      "contractName": null,
      "contractAddress": "0x5ddbbc68527214e0aca3b4175860080cbdaa12ff",
      "function": "setPeer(uint32,bytes32)",
      "arguments": [
        "30150",
        "0x0000000000000000000000005ddbbc68527214e0aca3b4175860080cbdaa12ff"
      ],
      "transaction": {
        "from": "0x0ece75f3c36f7df2136dac7633165dbff53de3cd",
        "to": "0x5ddbbc68527214e0aca3b4175860080cbdaa12ff",
        "gas": "0x98ec",
        "value": "0x0",
        "input": "0x3400288b00000000000000000000000000000000000000000000000000000000000075c60000000000000000000000005ddbbc68527214e0aca3b4175860080cbdaa12ff",
        "nonce": "0x155",
        "chainId": "0x2019"
      },
      "additionalContracts": [],
      "isFixedGasLimit": false
    },
    {
      "hash": "0xfa275ac92537434c535b6efb410883efe4fa9bf1f9978e4fbfb9274f9021c99c",
      "transactionType": "CALL",
      "contractName": null,
      "contractAddress": "0xfe5138a42dc1fc335455b505e036784a33f7f102",
      "function": "setPeer(uint32,bytes32)",
      "arguments": [
        "30184",
        "0x0000000000000000000000001effdcf81a95398920e024bb3b9ff60ce14590e7"
      ],
      "transaction": {
        "from": "0x0ece75f3c36f7df2136dac7633165dbff53de3cd",
        "to": "0xfe5138a42dc1fc335455b505e036784a33f7f102",
        "gas": "0xb24b",
        "value": "0x0",
        "input": "0x3400288b00000000000000000000000000000000000000000000000000000000000075e80000000000000000000000001effdcf81a95398920e024bb3b9ff60ce14590e7",
        "nonce": "0x156",
        "chainId": "0x2019"
      },
      "additionalContracts": [],
      "isFixedGasLimit": false
    },
    {
      "hash": "0xe322f39430d51ce5e6b32de7373669420c947b469ac899a0d5d1053f45006e9d",
      "transactionType": "CALL",
      "contractName": null,
      "contractAddress": "0xfe5138a42dc1fc335455b505e036784a33f7f102",
      "function": "setPeer(uint32,bytes32)",
      "arguments": [
        "30150",
        "0x000000000000000000000000fe5138a42dc1fc335455b505e036784a33f7f102"
      ],
      "transaction": {
        "from": "0x0ece75f3c36f7df2136dac7633165dbff53de3cd",
        "to": "0xfe5138a42dc1fc335455b505e036784a33f7f102",
        "gas": "0xa24c",
        "value": "0x0",
        "input": "0x3400288b00000000000000000000000000000000000000000000000000000000000075c6000000000000000000000000fe5138a42dc1fc335455b505e036784a33f7f102",
        "nonce": "0x157",
        "chainId": "0x2019"
      },
      "additionalContracts": [],
      "isFixedGasLimit": false
    },
    {
      "hash": "0x25f4b0dd8a20fc4353485dbabda91993337b40dc176fdf21e0340629099cc6be",
      "transactionType": "CALL",
      "contractName": null,
      "contractAddress": "0xb0e96105543cba4b3d82911e7336f19bd03b0360",
      "function": "setPeer(uint32,bytes32)",
      "arguments": [
        "30184",
        "0x0000000000000000000000006c71b7bbde382f12165d5f7749b5fd37965b1e8a"
      ],
      "transaction": {
        "from": "0x0ece75f3c36f7df2136dac7633165dbff53de3cd",
        "to": "0xb0e96105543cba4b3d82911e7336f19bd03b0360",
        "gas": "0xb24b",
        "value": "0x0",
        "input": "0x3400288b00000000000000000000000000000000000000000000000000000000000075e80000000000000000000000006c71b7bbde382f12165d5f7749b5fd37965b1e8a",
        "nonce": "0x158",
        "chainId": "0x2019"
      },
      "additionalContracts": [],
      "isFixedGasLimit": false
    },
    {
      "hash": "0xc02dc603abf95df7659401fe6975dc68cf7b0ffa91c2dd78eccd2f2e80db4202",
      "transactionType": "CALL",
      "contractName": null,
      "contractAddress": "0xb0e96105543cba4b3d82911e7336f19bd03b0360",
      "function": "setPeer(uint32,bytes32)",
      "arguments": [
        "30150",
        "0x000000000000000000000000b0e96105543cba4b3d82911e7336f19bd03b0360"
      ],
      "transaction": {
        "from": "0x0ece75f3c36f7df2136dac7633165dbff53de3cd",
        "to": "0xb0e96105543cba4b3d82911e7336f19bd03b0360",
        "gas": "0xa24c",
        "value": "0x0",
        "input": "0x3400288b00000000000000000000000000000000000000000000000000000000000075c6000000000000000000000000b0e96105543cba4b3d82911e7336f19bd03b0360",
        "nonce": "0x159",
        "chainId": "0x2019"
      },
      "additionalContracts": [],
      "isFixedGasLimit": false
    }
  ],
  "receipts": [
    {
      "status": "0x1",
      "cumulativeGasUsed": "0x22816",
      "logs": [
        {
          "address": "0x6d68a52bc77f2eac3582a7072ead94c19b9f480c",
          "topics": [
            "0x238399d427b947898edb290f5ff0f9109849b1c3ba196a42e35f00c50a54b98b"
          ],
          "data": "0x00000000000000000000000000000000000000000000000000000000000075e8000000000000000000000000ad063b1915bf95fb32f79138c0b668f232676333",
          "blockHash": "0x217c82c5698bad81699c8eb24b803c4650907da8525c14c4537fb8746b4c5938",
          "blockNumber": "0xbb1fb96",
          "transactionHash": "0x6004c658ce044f58887b3a3dadbc9e0cab54505057a0afccf44307cf92578419",
          "transactionIndex": "0x2",
          "logIndex": "0x2",
          "removed": false
        }
      ],
      "logsBloom": "0x00000000000000000000000000000000000000000000000800000000000000000000000000000000000000000000000000000000000000000800000000000000000000000000000000000000000000000000000000000000000000000000000000000000000000000000000000000000000000000000000000000000000000000000000000000000000000000000000000000000000000000000000000000000000000000000000000000000000000000000000000000000000002000000000000000000000000000000000000000000000000080000000000040000000000000000000000000000000000000000000000000000000000000002000000000000",
      "type": "0x2",
      "transactionHash": "0x6004c658ce044f58887b3a3dadbc9e0cab54505057a0afccf44307cf92578419",
      "transactionIndex": "0x2",
      "blockHash": "0x217c82c5698bad81699c8eb24b803c4650907da8525c14c4537fb8746b4c5938",
      "blockNumber": "0xbb1fb96",
      "gasUsed": "0x79a7",
      "effectiveGasPrice": "0x66720b300",
      "from": "0x0ece75f3c36f7df2136dac7633165dbff53de3cd",
      "to": "0x6d68a52bc77f2eac3582a7072ead94c19b9f480c",
      "contractAddress": null
    },
    {
      "status": "0x1",
      "cumulativeGasUsed": "0x296cd",
      "logs": [
        {
          "address": "0x6d68a52bc77f2eac3582a7072ead94c19b9f480c",
          "topics": [
            "0x238399d427b947898edb290f5ff0f9109849b1c3ba196a42e35f00c50a54b98b"
          ],
          "data": "0x00000000000000000000000000000000000000000000000000000000000075c60000000000000000000000006d68a52bc77f2eac3582a7072ead94c19b9f480c",
          "blockHash": "0x217c82c5698bad81699c8eb24b803c4650907da8525c14c4537fb8746b4c5938",
          "blockNumber": "0xbb1fb96",
          "transactionHash": "0x116a3e9ff6ffd576c7afa0fa0b638c3c550b491f89ce11f6abdc8dd58d9b1260",
          "transactionIndex": "0x3",
          "logIndex": "0x3",
          "removed": false
        }
      ],
      "logsBloom": "0x00000000000000000000000000000000000000000000000800000000000000000000000000000000000000000000000000000000000000000800000000000000000000000000000000000000000000000000000000000000000000000000000000000000000000000000000000000000000000000000000000000000000000000000000000000000000000000000000000000000000000000000000000000000000000000000000000000000000000000000000000000000000002000000000000000000000000000000000000000000000000080000000000040000000000000000000000000000000000000000000000000000000000000002000000000000",
      "type": "0x2",
      "transactionHash": "0x116a3e9ff6ffd576c7afa0fa0b638c3c550b491f89ce11f6abdc8dd58d9b1260",
      "transactionIndex": "0x3",
      "blockHash": "0x217c82c5698bad81699c8eb24b803c4650907da8525c14c4537fb8746b4c5938",
      "blockNumber": "0xbb1fb96",
      "gasUsed": "0x6eb7",
      "effectiveGasPrice": "0x66720b300",
      "from": "0x0ece75f3c36f7df2136dac7633165dbff53de3cd",
      "to": "0x6d68a52bc77f2eac3582a7072ead94c19b9f480c",
      "contractAddress": null
    },
    {
      "status": "0x1",
      "cumulativeGasUsed": "0x31074",
      "logs": [
        {
          "address": "0x920cd2f6e139b6c40053bcd5f67923d1d7dd3140",
          "topics": [
            "0x238399d427b947898edb290f5ff0f9109849b1c3ba196a42e35f00c50a54b98b"
          ],
          "data": "0x00000000000000000000000000000000000000000000000000000000000075e8000000000000000000000000ad063b1915bf95fb32f79138c0b668f232676333",
          "blockHash": "0x217c82c5698bad81699c8eb24b803c4650907da8525c14c4537fb8746b4c5938",
          "blockNumber": "0xbb1fb96",
          "transactionHash": "0x5eb2629f03c6d28f40a91f07b1ebfea7324ab2c9ba073381a212bd7634502a8f",
          "transactionIndex": "0x4",
          "logIndex": "0x4",
          "removed": false
        }
      ],
      "logsBloom": "0x00000000000000000000000000000000000000000000000000000000000000000000000000000000000000000000000000000000000000000800000000000000000000000000000000000800000000000000000000000000000000000000000000000000000000000000000000000000000000000000000000000000000000000000000000000000000000000000000000000000000000000000000000000000000000000000000000000000000000000000000000000000000002000000000000000000000000000000000000000000008000000000000000040000000000000000000000000000000000000000000000100000000000000000000000000000",
      "type": "0x2",
      "transactionHash": "0x5eb2629f03c6d28f40a91f07b1ebfea7324ab2c9ba073381a212bd7634502a8f",
      "transactionIndex": "0x4",
      "blockHash": "0x217c82c5698bad81699c8eb24b803c4650907da8525c14c4537fb8746b4c5938",
      "blockNumber": "0xbb1fb96",
      "gasUsed": "0x79a7",
      "effectiveGasPrice": "0x66720b300",
      "from": "0x0ece75f3c36f7df2136dac7633165dbff53de3cd",
      "to": "0x920cd2f6e139b6c40053bcd5f67923d1d7dd3140",
      "contractAddress": null
    },
    {
      "status": "0x1",
      "cumulativeGasUsed": "0x37f1f",
      "logs": [
        {
          "address": "0x920cd2f6e139b6c40053bcd5f67923d1d7dd3140",
          "topics": [
            "0x238399d427b947898edb290f5ff0f9109849b1c3ba196a42e35f00c50a54b98b"
          ],
          "data": "0x00000000000000000000000000000000000000000000000000000000000075c6000000000000000000000000920cd2f6e139b6c40053bcd5f67923d1d7dd3140",
          "blockHash": "0x217c82c5698bad81699c8eb24b803c4650907da8525c14c4537fb8746b4c5938",
          "blockNumber": "0xbb1fb96",
          "transactionHash": "0xda87cdb2d940dde05d70658149c9203f986dd04756a7d936e493bf5904c790b4",
          "transactionIndex": "0x5",
          "logIndex": "0x5",
          "removed": false
        }
      ],
      "logsBloom": "0x00000000000000000000000000000000000000000000000000000000000000000000000000000000000000000000000000000000000000000800000000000000000000000000000000000800000000000000000000000000000000000000000000000000000000000000000000000000000000000000000000000000000000000000000000000000000000000000000000000000000000000000000000000000000000000000000000000000000000000000000000000000000002000000000000000000000000000000000000000000008000000000000000040000000000000000000000000000000000000000000000100000000000000000000000000000",
      "type": "0x2",
      "transactionHash": "0xda87cdb2d940dde05d70658149c9203f986dd04756a7d936e493bf5904c790b4",
      "transactionIndex": "0x5",
      "blockHash": "0x217c82c5698bad81699c8eb24b803c4650907da8525c14c4537fb8746b4c5938",
      "blockNumber": "0xbb1fb96",
      "gasUsed": "0x6eab",
      "effectiveGasPrice": "0x66720b300",
      "from": "0x0ece75f3c36f7df2136dac7633165dbff53de3cd",
      "to": "0x920cd2f6e139b6c40053bcd5f67923d1d7dd3140",
      "contractAddress": null
    },
    {
      "status": "0x1",
      "cumulativeGasUsed": "0x3f8c6",
      "logs": [
        {
          "address": "0x5ddbbc68527214e0aca3b4175860080cbdaa12ff",
          "topics": [
            "0x238399d427b947898edb290f5ff0f9109849b1c3ba196a42e35f00c50a54b98b"
          ],
          "data": "0x00000000000000000000000000000000000000000000000000000000000075e8000000000000000000000000b83e44f1d59bd8743ae45816acd5622fa1a5624d",
          "blockHash": "0x217c82c5698bad81699c8eb24b803c4650907da8525c14c4537fb8746b4c5938",
          "blockNumber": "0xbb1fb96",
          "transactionHash": "0x676d3f9ea786939d2189de8bf3ac8395533a0f24fc1a7e42f4b4b1cd70985395",
          "transactionIndex": "0x6",
          "logIndex": "0x6",
          "removed": false
        }
      ],
      "logsBloom": "0x00000000000000000000000000000000000000000000000000000000000000000000000000000000000000000000000000000000000000000800000000000000000000000000000000000000000000000000000000000000000000000000000000000000000000000000000400000000000000000000000000000000000000000000000000000000000000000000020000000000000000000000000000000000000000000000000000000000000000000000000000000000000002000000000000000000000000000000000000000000000000000000000000040000000000000000000000000000000000000000000000000020000000000000000000000000",
      "type": "0x2",
      "transactionHash": "0x676d3f9ea786939d2189de8bf3ac8395533a0f24fc1a7e42f4b4b1cd70985395",
      "transactionIndex": "0x6",
      "blockHash": "0x217c82c5698bad81699c8eb24b803c4650907da8525c14c4537fb8746b4c5938",
      "blockNumber": "0xbb1fb96",
      "gasUsed": "0x79a7",
      "effectiveGasPrice": "0x66720b300",
      "from": "0x0ece75f3c36f7df2136dac7633165dbff53de3cd",
      "to": "0x5ddbbc68527214e0aca3b4175860080cbdaa12ff",
      "contractAddress": null
    },
    {
      "status": "0x1",
      "cumulativeGasUsed": "0x4677d",
      "logs": [
        {
          "address": "0x5ddbbc68527214e0aca3b4175860080cbdaa12ff",
          "topics": [
            "0x238399d427b947898edb290f5ff0f9109849b1c3ba196a42e35f00c50a54b98b"
          ],
          "data": "0x00000000000000000000000000000000000000000000000000000000000075c60000000000000000000000005ddbbc68527214e0aca3b4175860080cbdaa12ff",
          "blockHash": "0x217c82c5698bad81699c8eb24b803c4650907da8525c14c4537fb8746b4c5938",
          "blockNumber": "0xbb1fb96",
          "transactionHash": "0x254061ffcf9a342a0d38b2f11e8cc38501341c2f87b1f516916ee0b532af788c",
          "transactionIndex": "0x7",
          "logIndex": "0x7",
          "removed": false
        }
      ],
      "logsBloom": "0x00000000000000000000000000000000000000000000000000000000000000000000000000000000000000000000000000000000000000000800000000000000000000000000000000000000000000000000000000000000000000000000000000000000000000000000000400000000000000000000000000000000000000000000000000000000000000000000020000000000000000000000000000000000000000000000000000000000000000000000000000000000000002000000000000000000000000000000000000000000000000000000000000040000000000000000000000000000000000000000000000000020000000000000000000000000",
      "type": "0x2",
      "transactionHash": "0x254061ffcf9a342a0d38b2f11e8cc38501341c2f87b1f516916ee0b532af788c",
      "transactionIndex": "0x7",
      "blockHash": "0x217c82c5698bad81699c8eb24b803c4650907da8525c14c4537fb8746b4c5938",
      "blockNumber": "0xbb1fb96",
      "gasUsed": "0x6eb7",
      "effectiveGasPrice": "0x66720b300",
      "from": "0x0ece75f3c36f7df2136dac7633165dbff53de3cd",
      "to": "0x5ddbbc68527214e0aca3b4175860080cbdaa12ff",
      "contractAddress": null
    },
    {
      "status": "0x1",
      "cumulativeGasUsed": "0x4e166",
      "logs": [
        {
          "address": "0xfe5138a42dc1fc335455b505e036784a33f7f102",
          "topics": [
            "0x238399d427b947898edb290f5ff0f9109849b1c3ba196a42e35f00c50a54b98b"
          ],
          "data": "0x00000000000000000000000000000000000000000000000000000000000075e80000000000000000000000001effdcf81a95398920e024bb3b9ff60ce14590e7",
          "blockHash": "0x217c82c5698bad81699c8eb24b803c4650907da8525c14c4537fb8746b4c5938",
          "blockNumber": "0xbb1fb96",
          "transactionHash": "0xfa275ac92537434c535b6efb410883efe4fa9bf1f9978e4fbfb9274f9021c99c",
          "transactionIndex": "0x8",
          "logIndex": "0x8",
          "removed": false
        }
      ],
      "logsBloom": "0x00000000000000000000000000000000000000000000000000000000000000000000000000000000008000000000000000000000000000000800000000000000000000000000000000000000000000000000000000000000000000000400000000000000000000000000000000000000000000000000000000000000000000000000000000000000000000000000000000000000000000000000000000000000000000000000000000000000000000020000000000000000000002000000000000000000000000000000000000000000000000000000000000040000000000000000000000000000000000000000000000000000000000000000000000000000",
      "type": "0x2",
      "transactionHash": "0xfa275ac92537434c535b6efb410883efe4fa9bf1f9978e4fbfb9274f9021c99c",
      "transactionIndex": "0x8",
      "blockHash": "0x217c82c5698bad81699c8eb24b803c4650907da8525c14c4537fb8746b4c5938",
      "blockNumber": "0xbb1fb96",
      "gasUsed": "0x79e9",
      "effectiveGasPrice": "0x66720b300",
      "from": "0x0ece75f3c36f7df2136dac7633165dbff53de3cd",
      "to": "0xfe5138a42dc1fc335455b505e036784a33f7f102",
      "contractAddress": null
    },
    {
      "status": "0x1",
      "cumulativeGasUsed": "0x5505f",
      "logs": [
        {
          "address": "0xfe5138a42dc1fc335455b505e036784a33f7f102",
          "topics": [
            "0x238399d427b947898edb290f5ff0f9109849b1c3ba196a42e35f00c50a54b98b"
          ],
          "data": "0x00000000000000000000000000000000000000000000000000000000000075c6000000000000000000000000fe5138a42dc1fc335455b505e036784a33f7f102",
          "blockHash": "0x217c82c5698bad81699c8eb24b803c4650907da8525c14c4537fb8746b4c5938",
          "blockNumber": "0xbb1fb96",
          "transactionHash": "0xe322f39430d51ce5e6b32de7373669420c947b469ac899a0d5d1053f45006e9d",
          "transactionIndex": "0x9",
          "logIndex": "0x9",
          "removed": false
        }
      ],
      "logsBloom": "0x00000000000000000000000000000000000000000000000000000000000000000000000000000000008000000000000000000000000000000800000000000000000000000000000000000000000000000000000000000000000000000400000000000000000000000000000000000000000000000000000000000000000000000000000000000000000000000000000000000000000000000000000000000000000000000000000000000000000000020000000000000000000002000000000000000000000000000000000000000000000000000000000000040000000000000000000000000000000000000000000000000000000000000000000000000000",
      "type": "0x2",
      "transactionHash": "0xe322f39430d51ce5e6b32de7373669420c947b469ac899a0d5d1053f45006e9d",
      "transactionIndex": "0x9",
      "blockHash": "0x217c82c5698bad81699c8eb24b803c4650907da8525c14c4537fb8746b4c5938",
      "blockNumber": "0xbb1fb96",
      "gasUsed": "0x6ef9",
      "effectiveGasPrice": "0x66720b300",
      "from": "0x0ece75f3c36f7df2136dac7633165dbff53de3cd",
      "to": "0xfe5138a42dc1fc335455b505e036784a33f7f102",
      "contractAddress": null
    },
    {
      "status": "0x1",
      "cumulativeGasUsed": "0x5ca48",
      "logs": [
        {
          "address": "0xb0e96105543cba4b3d82911e7336f19bd03b0360",
          "topics": [
            "0x238399d427b947898edb290f5ff0f9109849b1c3ba196a42e35f00c50a54b98b"
          ],
          "data": "0x00000000000000000000000000000000000000000000000000000000000075e80000000000000000000000006c71b7bbde382f12165d5f7749b5fd37965b1e8a",
          "blockHash": "0x217c82c5698bad81699c8eb24b803c4650907da8525c14c4537fb8746b4c5938",
          "blockNumber": "0xbb1fb96",
          "transactionHash": "0x25f4b0dd8a20fc4353485dbabda91993337b40dc176fdf21e0340629099cc6be",
          "transactionIndex": "0xa",
          "logIndex": "0xa",
          "removed": false
        }
      ],
      "logsBloom": "0x00000000000000000000000000000000000000000000000000000000000000000000000000000000000000000000000000000000000000000800000000000000000000000000000100000000000000000000000000000000000000000000000000000000000000000000000000000000000000000000000000000000000000000000000000000000000000000010000000000000000000000000000000000000000000000000000200000000000000000000000000000000000002000000000000000000000000000000000000000000000000000000000000040000000000000000000000000000000000000000000000000000000000000000000000000000",
      "type": "0x2",
      "transactionHash": "0x25f4b0dd8a20fc4353485dbabda91993337b40dc176fdf21e0340629099cc6be",
      "transactionIndex": "0xa",
      "blockHash": "0x217c82c5698bad81699c8eb24b803c4650907da8525c14c4537fb8746b4c5938",
      "blockNumber": "0xbb1fb96",
      "gasUsed": "0x79e9",
      "effectiveGasPrice": "0x66720b300",
      "from": "0x0ece75f3c36f7df2136dac7633165dbff53de3cd",
      "to": "0xb0e96105543cba4b3d82911e7336f19bd03b0360",
      "contractAddress": null
    },
    {
      "status": "0x1",
      "cumulativeGasUsed": "0x63941",
      "logs": [
        {
          "address": "0xb0e96105543cba4b3d82911e7336f19bd03b0360",
          "topics": [
            "0x238399d427b947898edb290f5ff0f9109849b1c3ba196a42e35f00c50a54b98b"
          ],
          "data": "0x00000000000000000000000000000000000000000000000000000000000075c6000000000000000000000000b0e96105543cba4b3d82911e7336f19bd03b0360",
          "blockHash": "0x217c82c5698bad81699c8eb24b803c4650907da8525c14c4537fb8746b4c5938",
          "blockNumber": "0xbb1fb96",
          "transactionHash": "0xc02dc603abf95df7659401fe6975dc68cf7b0ffa91c2dd78eccd2f2e80db4202",
          "transactionIndex": "0xb",
          "logIndex": "0xb",
          "removed": false
        }
      ],
      "logsBloom": "0x00000000000000000000000000000000000000000000000000000000000000000000000000000000000000000000000000000000000000000800000000000000000000000000000100000000000000000000000000000000000000000000000000000000000000000000000000000000000000000000000000000000000000000000000000000000000000000010000000000000000000000000000000000000000000000000000200000000000000000000000000000000000002000000000000000000000000000000000000000000000000000000000000040000000000000000000000000000000000000000000000000000000000000000000000000000",
      "type": "0x2",
      "transactionHash": "0xc02dc603abf95df7659401fe6975dc68cf7b0ffa91c2dd78eccd2f2e80db4202",
      "transactionIndex": "0xb",
      "blockHash": "0x217c82c5698bad81699c8eb24b803c4650907da8525c14c4537fb8746b4c5938",
      "blockNumber": "0xbb1fb96",
      "gasUsed": "0x6ef9",
      "effectiveGasPrice": "0x66720b300",
      "from": "0x0ece75f3c36f7df2136dac7633165dbff53de3cd",
      "to": "0xb0e96105543cba4b3d82911e7336f19bd03b0360",
      "contractAddress": null
    }
  ],
  "libraries": [],
  "pending": [],
  "returns": {},
  "timestamp": 1758282805233,
  "chain": 8217,
  "commit": "6c82bda"
}