{
  "transactions": [
    {
      "hash": "0x9e852fa8def7fdb7fe868c0f71eb50ccfb0553e2301afecd1e32bdccdd249a33",
      "transactionType": "CALL",
      "contractName": null,
      "contractAddress": "0x6d68a52bc77f2eac3582a7072ead94c19b9f480c",
      "function": "setPeer(uint32,bytes32)",
      "arguments": [
        "30184",
        "0x000000000000000000000000ad063b1915bf95fb32f79138c0b668f232676333"
      ],
      "transaction": {
        "from": "0x0ece75f3c36f7df2136dac7633165dbff53de3cd",
        "to": "0x6d68a52bc77f2eac3582a7072ead94c19b9f480c",
        "gas": "0x98ec",
        "value": "0x0",
        "input": "0x3400288b00000000000000000000000000000000000000000000000000000000000075e8000000000000000000000000ad063b1915bf95fb32f79138c0b668f232676333",
        "nonce": "0x161",
        "chainId": "0x2019"
      },
      "additionalContracts": [],
      "isFixedGasLimit": false
    },
    {
      "hash": "0xe893cb24f1c5572e97f3567d4a4b38d6903c3c711ffffcb1199d810e3df709ea",
      "transactionType": "CALL",
      "contractName": null,
      "contractAddress": "0x6d68a52bc77f2eac3582a7072ead94c19b9f480c",
      "function": "setPeer(uint32,bytes32)",
      "arguments": [
        "30150",
        "0x0000000000000000000000006d68a52bc77f2eac3582a7072ead94c19b9f480c"
      ],
      "transaction": {
        "from": "0x0ece75f3c36f7df2136dac7633165dbff53de3cd",
        "to": "0x6d68a52bc77f2eac3582a7072ead94c19b9f480c",
        "gas": "0x98ec",
        "value": "0x0",
        "input": "0x3400288b00000000000000000000000000000000000000000000000000000000000075c60000000000000000000000006d68a52bc77f2eac3582a7072ead94c19b9f480c",
        "nonce": "0x162",
        "chainId": "0x2019"
      },
      "additionalContracts": [],
      "isFixedGasLimit": false
    },
    {
      "hash": "0xec3112cc1ff7bee57c33f9d70696b9debbfe2261d87320ba65155097c7abc836",
      "transactionType": "CALL",
      "contractName": null,
      "contractAddress": "0x920cd2f6e139b6c40053bcd5f67923d1d7dd3140",
      "function": "setPeer(uint32,bytes32)",
      "arguments": [
        "30184",
        "0x000000000000000000000000ad063b1915bf95fb32f79138c0b668f232676333"
      ],
      "transaction": {
        "from": "0x0ece75f3c36f7df2136dac7633165dbff53de3cd",
        "to": "0x920cd2f6e139b6c40053bcd5f67923d1d7dd3140",
        "gas": "0x98ec",
        "value": "0x0",
        "input": "0x3400288b00000000000000000000000000000000000000000000000000000000000075e8000000000000000000000000ad063b1915bf95fb32f79138c0b668f232676333",
        "nonce": "0x163",
        "chainId": "0x2019"
      },
      "additionalContracts": [],
      "isFixedGasLimit": false
    },
    {
      "hash": "0xff95b2f4101ac672bc7c7ec7b09d28236ad5b39083dce09fbfc6f91e6926d8ed",
      "transactionType": "CALL",
      "contractName": null,
      "contractAddress": "0x920cd2f6e139b6c40053bcd5f67923d1d7dd3140",
      "function": "setPeer(uint32,bytes32)",
      "arguments": [
        "30150",
        "0x000000000000000000000000920cd2f6e139b6c40053bcd5f67923d1d7dd3140"
      ],
      "transaction": {
        "from": "0x0ece75f3c36f7df2136dac7633165dbff53de3cd",
        "to": "0x920cd2f6e139b6c40053bcd5f67923d1d7dd3140",
        "gas": "0xa1d9",
        "value": "0x0",
        "input": "0x3400288b00000000000000000000000000000000000000000000000000000000000075c6000000000000000000000000920cd2f6e139b6c40053bcd5f67923d1d7dd3140",
        "nonce": "0x164",
        "chainId": "0x2019"
      },
      "additionalContracts": [],
      "isFixedGasLimit": false
    },
    {
      "hash": "0xd07277bdd2838ab1ba178580621d19620a6d10a7a03e4895e694d6536916e260",
      "transactionType": "CALL",
      "contractName": null,
      "contractAddress": "0x5ddbbc68527214e0aca3b4175860080cbdaa12ff",
      "function": "setPeer(uint32,bytes32)",
      "arguments": [
        "30184",
        "0x000000000000000000000000b83e44f1d59bd8743ae45816acd5622fa1a5624d"
      ],
      "transaction": {
        "from": "0x0ece75f3c36f7df2136dac7633165dbff53de3cd",
        "to": "0x5ddbbc68527214e0aca3b4175860080cbdaa12ff",
        "gas": "0x98ec",
        "value": "0x0",
        "input": "0x3400288b00000000000000000000000000000000000000000000000000000000000075e8000000000000000000000000b83e44f1d59bd8743ae45816acd5622fa1a5624d",
        "nonce": "0x165",
        "chainId": "0x2019"
      },
      "additionalContracts": [],
      "isFixedGasLimit": false
    },
    {
      "hash": "0xcf5b1d1e42ebb8c2d71494716dac5f7cd8c1de29b821e487dc6f50b2572cb891",
      "transactionType": "CALL",
      "contractName": null,
      "contractAddress": "0x5ddbbc68527214e0aca3b4175860080cbdaa12ff",
      "function": "setPeer(uint32,bytes32)",
      "arguments": [
        "30150",
        "0x0000000000000000000000005ddbbc68527214e0aca3b4175860080cbdaa12ff"
      ],
      "transaction": {
        "from": "0x0ece75f3c36f7df2136dac7633165dbff53de3cd",
        "to": "0x5ddbbc68527214e0aca3b4175860080cbdaa12ff",
        "gas": "0x98ec",
        "value": "0x0",
        "input": "0x3400288b00000000000000000000000000000000000000000000000000000000000075c60000000000000000000000005ddbbc68527214e0aca3b4175860080cbdaa12ff",
        "nonce": "0x166",
        "chainId": "0x2019"
      },
      "additionalContracts": [],
      "isFixedGasLimit": false
    },
    {
      "hash": "0x43c57f5316c9942d9b88c71718a4f3e72e0d464ea397ece820b0698f55f2cdd4",
      "transactionType": "CALL",
      "contractName": null,
      "contractAddress": "0xfe5138a42dc1fc335455b505e036784a33f7f102",
      "function": "setPeer(uint32,bytes32)",
      "arguments": [
        "30184",
        "0x0000000000000000000000001effdcf81a95398920e024bb3b9ff60ce14590e7"
      ],
      "transaction": {
        "from": "0x0ece75f3c36f7df2136dac7633165dbff53de3cd",
        "to": "0xfe5138a42dc1fc335455b505e036784a33f7f102",
        "gas": "0xa24c",
        "value": "0x0",
        "input": "0x3400288b00000000000000000000000000000000000000000000000000000000000075e80000000000000000000000001effdcf81a95398920e024bb3b9ff60ce14590e7",
        "nonce": "0x167",
        "chainId": "0x2019"
      },
      "additionalContracts": [],
      "isFixedGasLimit": false
    },
    {
      "hash": "0xdb6ac363dbb09c6a9cadaed9e0d31c41fc20bf177a6772b1df4be5e0ca848b70",
      "transactionType": "CALL",
      "contractName": null,
      "contractAddress": "0xfe5138a42dc1fc335455b505e036784a33f7f102",
      "function": "setPeer(uint32,bytes32)",
      "arguments": [
        "30150",
        "0x000000000000000000000000fe5138a42dc1fc335455b505e036784a33f7f102"
      ],
      "transaction": {
        "from": "0x0ece75f3c36f7df2136dac7633165dbff53de3cd",
        "to": "0xfe5138a42dc1fc335455b505e036784a33f7f102",
        "gas": "0xa24c",
        "value": "0x0",
        "input": "0x3400288b00000000000000000000000000000000000000000000000000000000000075c6000000000000000000000000fe5138a42dc1fc335455b505e036784a33f7f102",
        "nonce": "0x168",
        "chainId": "0x2019"
      },
      "additionalContracts": [],
      "isFixedGasLimit": false
    },
    {
      "hash": "0x0b21a5c6bcd324006f51b37c2043d27a742b19c48e2e068b9b425dcaa96319d1",
      "transactionType": "CALL",
      "contractName": null,
      "contractAddress": "0xaf9842adacb4b2fa619d45fe11579fae5faf1698",
      "function": "setPeer(uint32,bytes32)",
      "arguments": [
        "30184",
        "0x000000000000000000000000560bd1836c348c4a10eed7008e68ae58228dd117"
      ],
      "transaction": {
        "from": "0x0ece75f3c36f7df2136dac7633165dbff53de3cd",
        "to": "0xaf9842adacb4b2fa619d45fe11579fae5faf1698",
        "gas": "0x1043a",
        "value": "0x0",
        "input": "0x3400288b00000000000000000000000000000000000000000000000000000000000075e8000000000000000000000000560bd1836c348c4a10eed7008e68ae58228dd117",
        "nonce": "0x169",
        "chainId": "0x2019"
      },
      "additionalContracts": [],
      "isFixedGasLimit": false
    },
    {
      "hash": "0x81a229a28b66fbbdb54be7a8d97e6d5983a631718132efb214a4404291b19c34",
      "transactionType": "CALL",
      "contractName": null,
      "contractAddress": "0xaf9842adacb4b2fa619d45fe11579fae5faf1698",
      "function": "setPeer(uint32,bytes32)",
      "arguments": [
        "30150",
        "0x000000000000000000000000af9842adacb4b2fa619d45fe11579fae5faf1698"
      ],
      "transaction": {
        "from": "0x0ece75f3c36f7df2136dac7633165dbff53de3cd",
        "to": "0xaf9842adacb4b2fa619d45fe11579fae5faf1698",
        "gas": "0x1139a",
        "value": "0x0",
        "input": "0x3400288b00000000000000000000000000000000000000000000000000000000000075c6000000000000000000000000af9842adacb4b2fa619d45fe11579fae5faf1698",
        "nonce": "0x16a",
        "chainId": "0x2019"
      },
      "additionalContracts": [],
      "isFixedGasLimit": false
    }
  ],
  "receipts": [
    {
      "status": "0x1",
      "cumulativeGasUsed": "0x6eb7",
      "logs": [
        {
          "address": "0x6d68a52bc77f2eac3582a7072ead94c19b9f480c",
          "topics": [
            "0x238399d427b947898edb290f5ff0f9109849b1c3ba196a42e35f00c50a54b98b"
          ],
          "data": "0x00000000000000000000000000000000000000000000000000000000000075e8000000000000000000000000ad063b1915bf95fb32f79138c0b668f232676333",
          "blockHash": "0x8894b9c1ed0db151c2a9c122b4937e36862cea840b48681563ac1d620f644116",
          "blockNumber": "0xbb204af",
          "transactionHash": "0x9e852fa8def7fdb7fe868c0f71eb50ccfb0553e2301afecd1e32bdccdd249a33",
          "transactionIndex": "0x0",
          "logIndex": "0x0",
          "removed": false
        }
      ],
      "logsBloom": "0x00000000000000000000000000000000000000000000000800000000000000000000000000000000000000000000000000000000000000000800000000000000000000000000000000000000000000000000000000000000000000000000000000000000000000000000000000000000000000000000000000000000000000000000000000000000000000000000000000000000000000000000000000000000000000000000000000000000000000000000000000000000000002000000000000000000000000000000000000000000000000080000000000040000000000000000000000000000000000000000000000000000000000000002000000000000",
      "type": "0x2",
      "transactionHash": "0x9e852fa8def7fdb7fe868c0f71eb50ccfb0553e2301afecd1e32bdccdd249a33",
      "transactionIndex": "0x0",
      "blockHash": "0x8894b9c1ed0db151c2a9c122b4937e36862cea840b48681563ac1d620f644116",
      "blockNumber": "0xbb204af",
      "gasUsed": "0x6eb7",
      "effectiveGasPrice": "0x66720b300",
      "from": "0x0ece75f3c36f7df2136dac7633165dbff53de3cd",
      "to": "0x6d68a52bc77f2eac3582a7072ead94c19b9f480c",
      "contractAddress": null
    },
    {
      "status": "0x1",
      "cumulativeGasUsed": "0xdd6e",
      "logs": [
        {
          "address": "0x6d68a52bc77f2eac3582a7072ead94c19b9f480c",
          "topics": [
            "0x238399d427b947898edb290f5ff0f9109849b1c3ba196a42e35f00c50a54b98b"
          ],
          "data": "0x00000000000000000000000000000000000000000000000000000000000075c60000000000000000000000006d68a52bc77f2eac3582a7072ead94c19b9f480c",
          "blockHash": "0x8894b9c1ed0db151c2a9c122b4937e36862cea840b48681563ac1d620f644116",
          "blockNumber": "0xbb204af",
          "transactionHash": "0xe893cb24f1c5572e97f3567d4a4b38d6903c3c711ffffcb1199d810e3df709ea",
          "transactionIndex": "0x1",
          "logIndex": "0x1",
          "removed": false
        }
      ],
      "logsBloom": "0x00000000000000000000000000000000000000000000000800000000000000000000000000000000000000000000000000000000000000000800000000000000000000000000000000000000000000000000000000000000000000000000000000000000000000000000000000000000000000000000000000000000000000000000000000000000000000000000000000000000000000000000000000000000000000000000000000000000000000000000000000000000000002000000000000000000000000000000000000000000000000080000000000040000000000000000000000000000000000000000000000000000000000000002000000000000",
      "type": "0x2",
      "transactionHash": "0xe893cb24f1c5572e97f3567d4a4b38d6903c3c711ffffcb1199d810e3df709ea",
      "transactionIndex": "0x1",
      "blockHash": "0x8894b9c1ed0db151c2a9c122b4937e36862cea840b48681563ac1d620f644116",
      "blockNumber": "0xbb204af",
      "gasUsed": "0x6eb7",
      "effectiveGasPrice": "0x66720b300",
      "from": "0x0ece75f3c36f7df2136dac7633165dbff53de3cd",
      "to": "0x6d68a52bc77f2eac3582a7072ead94c19b9f480c",
      "contractAddress": null
    },
    {
      "status": "0x1",
      "cumulativeGasUsed": "0x14c25",
      "logs": [
        {
          "address": "0x920cd2f6e139b6c40053bcd5f67923d1d7dd3140",
          "topics": [
            "0x238399d427b947898edb290f5ff0f9109849b1c3ba196a42e35f00c50a54b98b"
          ],
          "data": "0x00000000000000000000000000000000000000000000000000000000000075e8000000000000000000000000ad063b1915bf95fb32f79138c0b668f232676333",
          "blockHash": "0x8894b9c1ed0db151c2a9c122b4937e36862cea840b48681563ac1d620f644116",
          "blockNumber": "0xbb204af",
          "transactionHash": "0xec3112cc1ff7bee57c33f9d70696b9debbfe2261d87320ba65155097c7abc836",
          "transactionIndex": "0x2",
          "logIndex": "0x2",
          "removed": false
        }
      ],
      "logsBloom": "0x00000000000000000000000000000000000000000000000000000000000000000000000000000000000000000000000000000000000000000800000000000000000000000000000000000800000000000000000000000000000000000000000000000000000000000000000000000000000000000000000000000000000000000000000000000000000000000000000000000000000000000000000000000000000000000000000000000000000000000000000000000000000002000000000000000000000000000000000000000000008000000000000000040000000000000000000000000000000000000000000000100000000000000000000000000000",
      "type": "0x2",
      "transactionHash": "0xec3112cc1ff7bee57c33f9d70696b9debbfe2261d87320ba65155097c7abc836",
      "transactionIndex": "0x2",
      "blockHash": "0x8894b9c1ed0db151c2a9c122b4937e36862cea840b48681563ac1d620f644116",
      "blockNumber": "0xbb204af",
      "gasUsed": "0x6eb7",
      "effectiveGasPrice": "0x66720b300",
      "from": "0x0ece75f3c36f7df2136dac7633165dbff53de3cd",
      "to": "0x920cd2f6e139b6c40053bcd5f67923d1d7dd3140",
      "contractAddress": null
    },
    {
      "status": "0x1",
      "cumulativeGasUsed": "0x1bad0",
      "logs": [
        {
          "address": "0x920cd2f6e139b6c40053bcd5f67923d1d7dd3140",
          "topics": [
            "0x238399d427b947898edb290f5ff0f9109849b1c3ba196a42e35f00c50a54b98b"
          ],
          "data": "0x00000000000000000000000000000000000000000000000000000000000075c6000000000000000000000000920cd2f6e139b6c40053bcd5f67923d1d7dd3140",
          "blockHash": "0x8894b9c1ed0db151c2a9c122b4937e36862cea840b48681563ac1d620f644116",
          "blockNumber": "0xbb204af",
          "transactionHash": "0xff95b2f4101ac672bc7c7ec7b09d28236ad5b39083dce09fbfc6f91e6926d8ed",
          "transactionIndex": "0x3",
          "logIndex": "0x3",
          "removed": false
        }
      ],
      "logsBloom": "0x00000000000000000000000000000000000000000000000000000000000000000000000000000000000000000000000000000000000000000800000000000000000000000000000000000800000000000000000000000000000000000000000000000000000000000000000000000000000000000000000000000000000000000000000000000000000000000000000000000000000000000000000000000000000000000000000000000000000000000000000000000000000002000000000000000000000000000000000000000000008000000000000000040000000000000000000000000000000000000000000000100000000000000000000000000000",
      "type": "0x2",
      "transactionHash": "0xff95b2f4101ac672bc7c7ec7b09d28236ad5b39083dce09fbfc6f91e6926d8ed",
      "transactionIndex": "0x3",
      "blockHash": "0x8894b9c1ed0db151c2a9c122b4937e36862cea840b48681563ac1d620f644116",
      "blockNumber": "0xbb204af",
      "gasUsed": "0x6eab",
      "effectiveGasPrice": "0x66720b300",
      "from": "0x0ece75f3c36f7df2136dac7633165dbff53de3cd",
      "to": "0x920cd2f6e139b6c40053bcd5f67923d1d7dd3140",
      "contractAddress": null
    },
    {
      "status": "0x1",
      "cumulativeGasUsed": "0x22987",
      "logs": [
        {
          "address": "0x5ddbbc68527214e0aca3b4175860080cbdaa12ff",
          "topics": [
            "0x238399d427b947898edb290f5ff0f9109849b1c3ba196a42e35f00c50a54b98b"
          ],
          "data": "0x00000000000000000000000000000000000000000000000000000000000075e8000000000000000000000000b83e44f1d59bd8743ae45816acd5622fa1a5624d",
          "blockHash": "0x8894b9c1ed0db151c2a9c122b4937e36862cea840b48681563ac1d620f644116",
          "blockNumber": "0xbb204af",
          "transactionHash": "0xd07277bdd2838ab1ba178580621d19620a6d10a7a03e4895e694d6536916e260",
          "transactionIndex": "0x4",
          "logIndex": "0x4",
          "removed": false
        }
      ],
      "logsBloom": "0x00000000000000000000000000000000000000000000000000000000000000000000000000000000000000000000000000000000000000000800000000000000000000000000000000000000000000000000000000000000000000000000000000000000000000000000000400000000000000000000000000000000000000000000000000000000000000000000020000000000000000000000000000000000000000000000000000000000000000000000000000000000000002000000000000000000000000000000000000000000000000000000000000040000000000000000000000000000000000000000000000000020000000000000000000000000",
      "type": "0x2",
      "transactionHash": "0xd07277bdd2838ab1ba178580621d19620a6d10a7a03e4895e694d6536916e260",
      "transactionIndex": "0x4",
      "blockHash": "0x8894b9c1ed0db151c2a9c122b4937e36862cea840b48681563ac1d620f644116",
      "blockNumber": "0xbb204af",
      "gasUsed": "0x6eb7",
      "effectiveGasPrice": "0x66720b300",
      "from": "0x0ece75f3c36f7df2136dac7633165dbff53de3cd",
      "to": "0x5ddbbc68527214e0aca3b4175860080cbdaa12ff",
      "contractAddress": null
    },
    {
      "status": "0x1",
      "cumulativeGasUsed": "0x344b8",
      "logs": [
        {
          "address": "0x5ddbbc68527214e0aca3b4175860080cbdaa12ff",
          "topics": [
            "0x238399d427b947898edb290f5ff0f9109849b1c3ba196a42e35f00c50a54b98b"
          ],
          "data": "0x00000000000000000000000000000000000000000000000000000000000075c60000000000000000000000005ddbbc68527214e0aca3b4175860080cbdaa12ff",
          "blockHash": "0x8894b9c1ed0db151c2a9c122b4937e36862cea840b48681563ac1d620f644116",
          "blockNumber": "0xbb204af",
          "transactionHash": "0xcf5b1d1e42ebb8c2d71494716dac5f7cd8c1de29b821e487dc6f50b2572cb891",
          "transactionIndex": "0x6",
          "logIndex": "0x6",
          "removed": false
        }
      ],
      "logsBloom": "0x00000000000000000000000000000000000000000000000000000000000000000000000000000000000000000000000000000000000000000800000000000000000000000000000000000000000000000000000000000000000000000000000000000000000000000000000400000000000000000000000000000000000000000000000000000000000000000000020000000000000000000000000000000000000000000000000000000000000000000000000000000000000002000000000000000000000000000000000000000000000000000000000000040000000000000000000000000000000000000000000000000020000000000000000000000000",
      "type": "0x2",
      "transactionHash": "0xcf5b1d1e42ebb8c2d71494716dac5f7cd8c1de29b821e487dc6f50b2572cb891",
      "transactionIndex": "0x6",
      "blockHash": "0x8894b9c1ed0db151c2a9c122b4937e36862cea840b48681563ac1d620f644116",
      "blockNumber": "0xbb204af",
      "gasUsed": "0x6eb7",
      "effectiveGasPrice": "0x66720b300",
      "from": "0x0ece75f3c36f7df2136dac7633165dbff53de3cd",
      "to": "0x5ddbbc68527214e0aca3b4175860080cbdaa12ff",
      "contractAddress": null
    },
    {
      "status": "0x1",
      "cumulativeGasUsed": "0x3b3b1",
      "logs": [
        {
          "address": "0xfe5138a42dc1fc335455b505e036784a33f7f102",
          "topics": [
            "0x238399d427b947898edb290f5ff0f9109849b1c3ba196a42e35f00c50a54b98b"
          ],
          "data": "0x00000000000000000000000000000000000000000000000000000000000075e80000000000000000000000001effdcf81a95398920e024bb3b9ff60ce14590e7",
          "blockHash": "0x8894b9c1ed0db151c2a9c122b4937e36862cea840b48681563ac1d620f644116",
          "blockNumber": "0xbb204af",
          "transactionHash": "0x43c57f5316c9942d9b88c71718a4f3e72e0d464ea397ece820b0698f55f2cdd4",
          "transactionIndex": "0x7",
          "logIndex": "0x7",
          "removed": false
        }
      ],
      "logsBloom": "0x00000000000000000000000000000000000000000000000000000000000000000000000000000000008000000000000000000000000000000800000000000000000000000000000000000000000000000000000000000000000000000400000000000000000000000000000000000000000000000000000000000000000000000000000000000000000000000000000000000000000000000000000000000000000000000000000000000000000000020000000000000000000002000000000000000000000000000000000000000000000000000000000000040000000000000000000000000000000000000000000000000000000000000000000000000000",
      "type": "0x2",
      "transactionHash": "0x43c57f5316c9942d9b88c71718a4f3e72e0d464ea397ece820b0698f55f2cdd4",
      "transactionIndex": "0x7",
      "blockHash": "0x8894b9c1ed0db151c2a9c122b4937e36862cea840b48681563ac1d620f644116",
      "blockNumber": "0xbb204af",
      "gasUsed": "0x6ef9",
      "effectiveGasPrice": "0x66720b300",
      "from": "0x0ece75f3c36f7df2136dac7633165dbff53de3cd",
      "to": "0xfe5138a42dc1fc335455b505e036784a33f7f102",
      "contractAddress": null
    },
    {
      "status": "0x1",
      "cumulativeGasUsed": "0x422aa",
      "logs": [
        {
          "address": "0xfe5138a42dc1fc335455b505e036784a33f7f102",
          "topics": [
            "0x238399d427b947898edb290f5ff0f9109849b1c3ba196a42e35f00c50a54b98b"
          ],
          "data": "0x00000000000000000000000000000000000000000000000000000000000075c6000000000000000000000000fe5138a42dc1fc335455b505e036784a33f7f102",
          "blockHash": "0x8894b9c1ed0db151c2a9c122b4937e36862cea840b48681563ac1d620f644116",
          "blockNumber": "0xbb204af",
          "transactionHash": "0xdb6ac363dbb09c6a9cadaed9e0d31c41fc20bf177a6772b1df4be5e0ca848b70",
          "transactionIndex": "0x8",
          "logIndex": "0x8",
          "removed": false
        }
      ],
      "logsBloom": "0x00000000000000000000000000000000000000000000000000000000000000000000000000000000008000000000000000000000000000000800000000000000000000000000000000000000000000000000000000000000000000000400000000000000000000000000000000000000000000000000000000000000000000000000000000000000000000000000000000000000000000000000000000000000000000000000000000000000000000020000000000000000000002000000000000000000000000000000000000000000000000000000000000040000000000000000000000000000000000000000000000000000000000000000000000000000",
      "type": "0x2",
      "transactionHash": "0xdb6ac363dbb09c6a9cadaed9e0d31c41fc20bf177a6772b1df4be5e0ca848b70",
      "transactionIndex": "0x8",
      "blockHash": "0x8894b9c1ed0db151c2a9c122b4937e36862cea840b48681563ac1d620f644116",
      "blockNumber": "0xbb204af",
      "gasUsed": "0x6ef9",
      "effectiveGasPrice": "0x66720b300",
      "from": "0x0ece75f3c36f7df2136dac7633165dbff53de3cd",
      "to": "0xfe5138a42dc1fc335455b505e036784a33f7f102",
      "contractAddress": null
    },
    {
      "status": "0x1",
      "cumulativeGasUsed": "0x4df11",
      "logs": [
        {
          "address": "0xaf9842adacb4b2fa619d45fe11579fae5faf1698",
          "topics": [
            "0x238399d427b947898edb290f5ff0f9109849b1c3ba196a42e35f00c50a54b98b"
          ],
          "data": "0x00000000000000000000000000000000000000000000000000000000000075e8000000000000000000000000560bd1836c348c4a10eed7008e68ae58228dd117",
          "blockHash": "0x8894b9c1ed0db151c2a9c122b4937e36862cea840b48681563ac1d620f644116",
          "blockNumber": "0xbb204af",
          "transactionHash": "0x0b21a5c6bcd324006f51b37c2043d27a742b19c48e2e068b9b425dcaa96319d1",
          "transactionIndex": "0x9",
          "logIndex": "0x9",
          "removed": false
        }
      ],
      "logsBloom": "0x00000000000000000000000000000000000000000000000000000000000000000000000000000000000000000000000000000000000000000800000000000000001000000000000000000000000000000000000000000000000000000000000000000000000000000000000000000000000000000000000000000000000000000000000000000000000000000000000000000000000000000000000000000000000000000000000000000000000000000000000000000000000002000000000000000000000000000000000080000000000000000000000000040000000000000000000000000000000000000000000000000000000000000002000000000000",
      "type": "0x2",
      "transactionHash": "0x0b21a5c6bcd324006f51b37c2043d27a742b19c48e2e068b9b425dcaa96319d1",
      "transactionIndex": "0x9",
      "blockHash": "0x8894b9c1ed0db151c2a9c122b4937e36862cea840b48681563ac1d620f644116",
      "blockNumber": "0xbb204af",
      "gasUsed": "0xbc67",
      "effectiveGasPrice": "0x66720b300",
      "from": "0x0ece75f3c36f7df2136dac7633165dbff53de3cd",
      "to": "0xaf9842adacb4b2fa619d45fe11579fae5faf1698",
      "contractAddress": null
    },
    {
      "status": "0x1",
      "cumulativeGasUsed": "0x59b84",
      "logs": [
        {
          "address": "0xaf9842adacb4b2fa619d45fe11579fae5faf1698",
          "topics": [
            "0x238399d427b947898edb290f5ff0f9109849b1c3ba196a42e35f00c50a54b98b"
          ],
          "data": "0x00000000000000000000000000000000000000000000000000000000000075c6000000000000000000000000af9842adacb4b2fa619d45fe11579fae5faf1698",
          "blockHash": "0x8894b9c1ed0db151c2a9c122b4937e36862cea840b48681563ac1d620f644116",
          "blockNumber": "0xbb204af",
          "transactionHash": "0x81a229a28b66fbbdb54be7a8d97e6d5983a631718132efb214a4404291b19c34",
          "transactionIndex": "0xa",
          "logIndex": "0xa",
          "removed": false
        }
      ],
      "logsBloom": "0x00000000000000000000000000000000000000000000000000000000000000000000000000000000000000000000000000000000000000000800000000000000001000000000000000000000000000000000000000000000000000000000000000000000000000000000000000000000000000000000000000000000000000000000000000000000000000000000000000000000000000000000000000000000000000000000000000000000000000000000000000000000000002000000000000000000000000000000000080000000000000000000000000040000000000000000000000000000000000000000000000000000000000000002000000000000",
      "type": "0x2",
      "transactionHash": "0x81a229a28b66fbbdb54be7a8d97e6d5983a631718132efb214a4404291b19c34",
      "transactionIndex": "0xa",
      "blockHash": "0x8894b9c1ed0db151c2a9c122b4937e36862cea840b48681563ac1d620f644116",
      "blockNumber": "0xbb204af",
      "gasUsed": "0xbc73",
      "effectiveGasPrice": "0x66720b300",
      "from": "0x0ece75f3c36f7df2136dac7633165dbff53de3cd",
      "to": "0xaf9842adacb4b2fa619d45fe11579fae5faf1698",
      "contractAddress": null
    }
  ],
  "libraries": [],
  "pending": [],
  "returns": {},
  "timestamp": 1758285167311,
  "chain": 8217,
  "commit": "6c82bda"
}