{
  "transactions": [
    {
      "hash": "0x574dc476e93eec71d7f95417f7de08ee8da72b9321c9ca2d118799eee383b576",
      "transactionType": "CALL",
      "contractName": null,
      "contractAddress": "0x6d68a52bc77f2eac3582a7072ead94c19b9f480c",
      "function": "setPeer(uint32,bytes32)",
      "arguments": [
        "30184",
        "0x0000000000000000000000003a1353926e2c1ada7acc93a6fbe73c1ec6b1e931"
      ],
      "transaction": {
        "from": "0x0ece75f3c36f7df2136dac7633165dbff53de3cd",
        "to": "0x6d68a52bc77f2eac3582a7072ead94c19b9f480c",
        "gas": "0x1139a",
        "value": "0x0",
        "input": "0x3400288b00000000000000000000000000000000000000000000000000000000000075e80000000000000000000000003a1353926e2c1ada7acc93a6fbe73c1ec6b1e931",
        "nonce": "0x115",
        "chainId": "0x2019"
      },
      "additionalContracts": [],
      "isFixedGasLimit": false
    },
    {
      "hash": "0x44eb4279c823eb2557f3cae11b415c6a58be2fd80f81c3439280e40c27488377",
      "transactionType": "CALL",
      "contractName": null,
      "contractAddress": "0x6d68a52bc77f2eac3582a7072ead94c19b9f480c",
      "function": "setPeer(uint32,bytes32)",
      "arguments": [
        "30150",
        "0x0000000000000000000000006d68a52bc77f2eac3582a7072ead94c19b9f480c"
      ],
      "transaction": {
        "from": "0x0ece75f3c36f7df2136dac7633165dbff53de3cd",
        "to": "0x6d68a52bc77f2eac3582a7072ead94c19b9f480c",
        "gas": "0x1139a",
        "value": "0x0",
        "input": "0x3400288b00000000000000000000000000000000000000000000000000000000000075c60000000000000000000000006d68a52bc77f2eac3582a7072ead94c19b9f480c",
        "nonce": "0x116",
        "chainId": "0x2019"
      },
      "additionalContracts": [],
      "isFixedGasLimit": false
    },
    {
      "hash": "0x56401655ca836b9db63d6633839539298fb24ac7727b21e62ee14e93c5cbbee3",
      "transactionType": "CALL",
      "contractName": null,
      "contractAddress": "0x920cd2f6e139b6c40053bcd5f67923d1d7dd3140",
      "function": "setPeer(uint32,bytes32)",
      "arguments": [
        "30184",
        "0x0000000000000000000000003a1353926e2c1ada7acc93a6fbe73c1ec6b1e931"
      ],
      "transaction": {
        "from": "0x0ece75f3c36f7df2136dac7633165dbff53de3cd",
        "to": "0x920cd2f6e139b6c40053bcd5f67923d1d7dd3140",
        "gas": "0x1139a",
        "value": "0x0",
        "input": "0x3400288b00000000000000000000000000000000000000000000000000000000000075e80000000000000000000000003a1353926e2c1ada7acc93a6fbe73c1ec6b1e931",
        "nonce": "0x117",
        "chainId": "0x2019"
      },
      "additionalContracts": [],
      "isFixedGasLimit": false
    },
    {
      "hash": "0xdb4f079ead58bc427e6f90b16213c2f0aff407bed7947a5f4e1b9c9409a8addb",
      "transactionType": "CALL",
      "contractName": null,
      "contractAddress": "0x920cd2f6e139b6c40053bcd5f67923d1d7dd3140",
      "function": "setPeer(uint32,bytes32)",
      "arguments": [
        "30150",
        "0x000000000000000000000000920cd2f6e139b6c40053bcd5f67923d1d7dd3140"
      ],
      "transaction": {
        "from": "0x0ece75f3c36f7df2136dac7633165dbff53de3cd",
        "to": "0x920cd2f6e139b6c40053bcd5f67923d1d7dd3140",
        "gas": "0x1043a",
        "value": "0x0",
        "input": "0x3400288b00000000000000000000000000000000000000000000000000000000000075c6000000000000000000000000920cd2f6e139b6c40053bcd5f67923d1d7dd3140",
        "nonce": "0x118",
        "chainId": "0x2019"
      },
      "additionalContracts": [],
      "isFixedGasLimit": false
    },
    {
      "hash": "0xbe080aa3df41791f2eadbb10087b784f25d29db0127c47e2e5b1c367e5b14017",
      "transactionType": "CALL",
      "contractName": null,
      "contractAddress": "0x5ddbbc68527214e0aca3b4175860080cbdaa12ff",
      "function": "setPeer(uint32,bytes32)",
      "arguments": [
        "30184",
        "0x000000000000000000000000dc4ce404c1caa4b618847d93941d6cca09744e1e"
      ],
      "transaction": {
        "from": "0x0ece75f3c36f7df2136dac7633165dbff53de3cd",
        "to": "0x5ddbbc68527214e0aca3b4175860080cbdaa12ff",
        "gas": "0x1139a",
        "value": "0x0",
        "input": "0x3400288b00000000000000000000000000000000000000000000000000000000000075e8000000000000000000000000dc4ce404c1caa4b618847d93941d6cca09744e1e",
        "nonce": "0x119",
        "chainId": "0x2019"
      },
      "additionalContracts": [],
      "isFixedGasLimit": false
    },
    {
      "hash": "0x753082a773d3dc3a090434dafc3a832478d818795cef5f99cda997ab4193ea38",
      "transactionType": "CALL",
      "contractName": null,
      "contractAddress": "0x5ddbbc68527214e0aca3b4175860080cbdaa12ff",
      "function": "setPeer(uint32,bytes32)",
      "arguments": [
        "30150",
        "0x0000000000000000000000005ddbbc68527214e0aca3b4175860080cbdaa12ff"
      ],
      "transaction": {
        "from": "0x0ece75f3c36f7df2136dac7633165dbff53de3cd",
        "to": "0x5ddbbc68527214e0aca3b4175860080cbdaa12ff",
        "gas": "0x1139a",
        "value": "0x0",
        "input": "0x3400288b00000000000000000000000000000000000000000000000000000000000075c60000000000000000000000005ddbbc68527214e0aca3b4175860080cbdaa12ff",
        "nonce": "0x11a",
        "chainId": "0x2019"
      },
      "additionalContracts": [],
      "isFixedGasLimit": false
    },
    {
      "hash": "0xe74aa0404ff72d91d7b3dc881ae9c6b261e8f4c03b34a2e70bb313f23b4bef65",
      "transactionType": "CALL",
      "contractName": null,
      "contractAddress": "0xfe5138a42dc1fc335455b505e036784a33f7f102",
      "function": "setPeer(uint32,bytes32)",
      "arguments": [
        "30184",
        "0x000000000000000000000000249a1d049ce9c68c818eb5afc53359f547c176a4"
      ],
      "transaction": {
        "from": "0x0ece75f3c36f7df2136dac7633165dbff53de3cd",
        "to": "0xfe5138a42dc1fc335455b505e036784a33f7f102",
        "gas": "0x104a6",
        "value": "0x0",
        "input": "0x3400288b00000000000000000000000000000000000000000000000000000000000075e8000000000000000000000000249a1d049ce9c68c818eb5afc53359f547c176a4",
        "nonce": "0x11b",
        "chainId": "0x2019"
      },
      "additionalContracts": [],
      "isFixedGasLimit": false
    },
    {
      "hash": "0x6f975218c03c26f8173eac20eaae5394d60c454cc1a89eea6eb2e0c43b936b04",
      "transactionType": "CALL",
      "contractName": null,
      "contractAddress": "0xfe5138a42dc1fc335455b505e036784a33f7f102",
      "function": "setPeer(uint32,bytes32)",
      "arguments": [
        "30150",
        "0x000000000000000000000000fe5138a42dc1fc335455b505e036784a33f7f102"
      ],
      "transaction": {
        "from": "0x0ece75f3c36f7df2136dac7633165dbff53de3cd",
        "to": "0xfe5138a42dc1fc335455b505e036784a33f7f102",
        "gas": "0x104a6",
        "value": "0x0",
        "input": "0x3400288b00000000000000000000000000000000000000000000000000000000000075c6000000000000000000000000fe5138a42dc1fc335455b505e036784a33f7f102",
        "nonce": "0x11c",
        "chainId": "0x2019"
      },
      "additionalContracts": [],
      "isFixedGasLimit": false
    },
    {
      "hash": "0xa00ca25db69ea8e2b71361650e839b1ba265713bd43b7274761735c9c2a8a4cf",
      "transactionType": "CALL",
      "contractName": null,
      "contractAddress": "0xb0e96105543cba4b3d82911e7336f19bd03b0360",
      "function": "setPeer(uint32,bytes32)",
      "arguments": [
        "30184",
        "0x0000000000000000000000002773280bbaea3c70afec358c1ba426d42d56fc7a"
      ],
      "transaction": {
        "from": "0x0ece75f3c36f7df2136dac7633165dbff53de3cd",
        "to": "0xb0e96105543cba4b3d82911e7336f19bd03b0360",
        "gas": "0x104a6",
        "value": "0x0",
        "input": "0x3400288b00000000000000000000000000000000000000000000000000000000000075e80000000000000000000000002773280bbaea3c70afec358c1ba426d42d56fc7a",
        "nonce": "0x11d",
        "chainId": "0x2019"
      },
      "additionalContracts": [],
      "isFixedGasLimit": false
    },
    {
      "hash": "0xa65aabf6040b6c374b4fe164a382773d17c4a40740f7a46da1bfadf1960b8930",
      "transactionType": "CALL",
      "contractName": null,
      "contractAddress": "0xb0e96105543cba4b3d82911e7336f19bd03b0360",
      "function": "setPeer(uint32,bytes32)",
      "arguments": [
        "30150",
        "0x000000000000000000000000b0e96105543cba4b3d82911e7336f19bd03b0360"
      ],
      "transaction": {
        "from": "0x0ece75f3c36f7df2136dac7633165dbff53de3cd",
        "to": "0xb0e96105543cba4b3d82911e7336f19bd03b0360",
        "gas": "0x104a6",
        "value": "0x0",
        "input": "0x3400288b00000000000000000000000000000000000000000000000000000000000075c6000000000000000000000000b0e96105543cba4b3d82911e7336f19bd03b0360",
        "nonce": "0x11e",
        "chainId": "0x2019"
      },
      "additionalContracts": [],
      "isFixedGasLimit": false
    }
  ],
  "receipts": [
    {
      "status": "0x1",
      "cumulativeGasUsed": "0x10e7b",
      "logs": [
        {
          "address": "0x6d68a52bc77f2eac3582a7072ead94c19b9f480c",
          "topics": [
            "0x238399d427b947898edb290f5ff0f9109849b1c3ba196a42e35f00c50a54b98b"
          ],
          "data": "0x00000000000000000000000000000000000000000000000000000000000075e80000000000000000000000003a1353926e2c1ada7acc93a6fbe73c1ec6b1e931",
          "blockHash": "0xd3e18bd4740d772ab08f49873c68f8dfbe46281633dd8303c82dba3a5a2f8bcb",
          "blockNumber": "0xbb07c85",
          "transactionHash": "0x574dc476e93eec71d7f95417f7de08ee8da72b9321c9ca2d118799eee383b576",
          "transactionIndex": "0x1",
          "logIndex": "0x0",
          "removed": false
        }
      ],
      "logsBloom": "0x00000000000000000000000000000000000000000000000800000000000000000000000000000000000000000000000000000000000000000800000000000000000000000000000000000000000000000000000000000000000000000000000000000000000000000000000000000000000000000000000000000000000000000000000000000000000000000000000000000000000000000000000000000000000000000000000000000000000000000000000000000000000002000000000000000000000000000000000000000000000000080000000000040000000000000000000000000000000000000000000000000000000000000002000000000000",
      "type": "0x2",
      "transactionHash": "0x574dc476e93eec71d7f95417f7de08ee8da72b9321c9ca2d118799eee383b576",
      "transactionIndex": "0x1",
      "blockHash": "0xd3e18bd4740d772ab08f49873c68f8dfbe46281633dd8303c82dba3a5a2f8bcb",
      "blockNumber": "0xbb07c85",
      "gasUsed": "0xbc73",
      "effectiveGasPrice": "0x66720b300",
      "from": "0x0ece75f3c36f7df2136dac7633165dbff53de3cd",
      "to": "0x6d68a52bc77f2eac3582a7072ead94c19b9f480c",
      "contractAddress": null
    },
    {
      "status": "0x1",
      "cumulativeGasUsed": "0x1caee",
      "logs": [
        {
          "address": "0x6d68a52bc77f2eac3582a7072ead94c19b9f480c",
          "topics": [
            "0x238399d427b947898edb290f5ff0f9109849b1c3ba196a42e35f00c50a54b98b"
          ],
          "data": "0x00000000000000000000000000000000000000000000000000000000000075c60000000000000000000000006d68a52bc77f2eac3582a7072ead94c19b9f480c",
          "blockHash": "0xd3e18bd4740d772ab08f49873c68f8dfbe46281633dd8303c82dba3a5a2f8bcb",
          "blockNumber": "0xbb07c85",
          "transactionHash": "0x44eb4279c823eb2557f3cae11b415c6a58be2fd80f81c3439280e40c27488377",
          "transactionIndex": "0x2",
          "logIndex": "0x1",
          "removed": false
        }
      ],
      "logsBloom": "0x00000000000000000000000000000000000000000000000800000000000000000000000000000000000000000000000000000000000000000800000000000000000000000000000000000000000000000000000000000000000000000000000000000000000000000000000000000000000000000000000000000000000000000000000000000000000000000000000000000000000000000000000000000000000000000000000000000000000000000000000000000000000002000000000000000000000000000000000000000000000000080000000000040000000000000000000000000000000000000000000000000000000000000002000000000000",
      "type": "0x2",
      "transactionHash": "0x44eb4279c823eb2557f3cae11b415c6a58be2fd80f81c3439280e40c27488377",
      "transactionIndex": "0x2",
      "blockHash": "0xd3e18bd4740d772ab08f49873c68f8dfbe46281633dd8303c82dba3a5a2f8bcb",
      "blockNumber": "0xbb07c85",
      "gasUsed": "0xbc73",
      "effectiveGasPrice": "0x66720b300",
      "from": "0x0ece75f3c36f7df2136dac7633165dbff53de3cd",
      "to": "0x6d68a52bc77f2eac3582a7072ead94c19b9f480c",
      "contractAddress": null
    },
    {
      "status": "0x1",
      "cumulativeGasUsed": "0x28761",
      "logs": [
        {
          "address": "0x920cd2f6e139b6c40053bcd5f67923d1d7dd3140",
          "topics": [
            "0x238399d427b947898edb290f5ff0f9109849b1c3ba196a42e35f00c50a54b98b"
          ],
          "data": "0x00000000000000000000000000000000000000000000000000000000000075e80000000000000000000000003a1353926e2c1ada7acc93a6fbe73c1ec6b1e931",
          "blockHash": "0xd3e18bd4740d772ab08f49873c68f8dfbe46281633dd8303c82dba3a5a2f8bcb",
          "blockNumber": "0xbb07c85",
          "transactionHash": "0x56401655ca836b9db63d6633839539298fb24ac7727b21e62ee14e93c5cbbee3",
          "transactionIndex": "0x3",
          "logIndex": "0x2",
          "removed": false
        }
      ],
      "logsBloom": "0x00000000000000000000000000000000000000000000000000000000000000000000000000000000000000000000000000000000000000000800000000000000000000000000000000000800000000000000000000000000000000000000000000000000000000000000000000000000000000000000000000000000000000000000000000000000000000000000000000000000000000000000000000000000000000000000000000000000000000000000000000000000000002000000000000000000000000000000000000000000008000000000000000040000000000000000000000000000000000000000000000100000000000000000000000000000",
      "type": "0x2",
      "transactionHash": "0x56401655ca836b9db63d6633839539298fb24ac7727b21e62ee14e93c5cbbee3",
      "transactionIndex": "0x3",
      "blockHash": "0xd3e18bd4740d772ab08f49873c68f8dfbe46281633dd8303c82dba3a5a2f8bcb",
      "blockNumber": "0xbb07c85",
      "gasUsed": "0xbc73",
      "effectiveGasPrice": "0x66720b300",
      "from": "0x0ece75f3c36f7df2136dac7633165dbff53de3cd",
      "to": "0x920cd2f6e139b6c40053bcd5f67923d1d7dd3140",
      "contractAddress": null
    },
    {
      "status": "0x1",
      "cumulativeGasUsed": "0x343c8",
      "logs": [
        {
          "address": "0x920cd2f6e139b6c40053bcd5f67923d1d7dd3140",
          "topics": [
            "0x238399d427b947898edb290f5ff0f9109849b1c3ba196a42e35f00c50a54b98b"
          ],
          "data": "0x00000000000000000000000000000000000000000000000000000000000075c6000000000000000000000000920cd2f6e139b6c40053bcd5f67923d1d7dd3140",
          "blockHash": "0xd3e18bd4740d772ab08f49873c68f8dfbe46281633dd8303c82dba3a5a2f8bcb",
          "blockNumber": "0xbb07c85",
          "transactionHash": "0xdb4f079ead58bc427e6f90b16213c2f0aff407bed7947a5f4e1b9c9409a8addb",
          "transactionIndex": "0x4",
          "logIndex": "0x3",
          "removed": false
        }
      ],
      "logsBloom": "0x00000000000000000000000000000000000000000000000000000000000000000000000000000000000000000000000000000000000000000800000000000000000000000000000000000800000000000000000000000000000000000000000000000000000000000000000000000000000000000000000000000000000000000000000000000000000000000000000000000000000000000000000000000000000000000000000000000000000000000000000000000000000002000000000000000000000000000000000000000000008000000000000000040000000000000000000000000000000000000000000000100000000000000000000000000000",
      "type": "0x2",
      "transactionHash": "0xdb4f079ead58bc427e6f90b16213c2f0aff407bed7947a5f4e1b9c9409a8addb",
      "transactionIndex": "0x4",
      "blockHash": "0xd3e18bd4740d772ab08f49873c68f8dfbe46281633dd8303c82dba3a5a2f8bcb",
      "blockNumber": "0xbb07c85",
      "gasUsed": "0xbc67",
      "effectiveGasPrice": "0x66720b300",
      "from": "0x0ece75f3c36f7df2136dac7633165dbff53de3cd",
      "to": "0x920cd2f6e139b6c40053bcd5f67923d1d7dd3140",
      "contractAddress": null
    },
    {
      "status": "0x1",
      "cumulativeGasUsed": "0x4003b",
      "logs": [
        {
          "address": "0x5ddbbc68527214e0aca3b4175860080cbdaa12ff",
          "topics": [
            "0x238399d427b947898edb290f5ff0f9109849b1c3ba196a42e35f00c50a54b98b"
          ],
          "data": "0x00000000000000000000000000000000000000000000000000000000000075e8000000000000000000000000dc4ce404c1caa4b618847d93941d6cca09744e1e",
          "blockHash": "0xd3e18bd4740d772ab08f49873c68f8dfbe46281633dd8303c82dba3a5a2f8bcb",
          "blockNumber": "0xbb07c85",
          "transactionHash": "0xbe080aa3df41791f2eadbb10087b784f25d29db0127c47e2e5b1c367e5b14017",
          "transactionIndex": "0x5",
          "logIndex": "0x4",
          "removed": false
        }
      ],
      "logsBloom": "0x00000000000000000000000000000000000000000000000000000000000000000000000000000000000000000000000000000000000000000800000000000000000000000000000000000000000000000000000000000000000000000000000000000000000000000000000400000000000000000000000000000000000000000000000000000000000000000000020000000000000000000000000000000000000000000000000000000000000000000000000000000000000002000000000000000000000000000000000000000000000000000000000000040000000000000000000000000000000000000000000000000020000000000000000000000000",
      "type": "0x2",
      "transactionHash": "0xbe080aa3df41791f2eadbb10087b784f25d29db0127c47e2e5b1c367e5b14017",
      "transactionIndex": "0x5",
      "blockHash": "0xd3e18bd4740d772ab08f49873c68f8dfbe46281633dd8303c82dba3a5a2f8bcb",
      "blockNumber": "0xbb07c85",
      "gasUsed": "0xbc73",
      "effectiveGasPrice": "0x66720b300",
      "from": "0x0ece75f3c36f7df2136dac7633165dbff53de3cd",
      "to": "0x5ddbbc68527214e0aca3b4175860080cbdaa12ff",
      "contractAddress": null
    },
    {
      "status": "0x1",
      "cumulativeGasUsed": "0x4bcae",
      "logs": [
        {
          "address": "0x5ddbbc68527214e0aca3b4175860080cbdaa12ff",
          "topics": [
            "0x238399d427b947898edb290f5ff0f9109849b1c3ba196a42e35f00c50a54b98b"
          ],
          "data": "0x00000000000000000000000000000000000000000000000000000000000075c60000000000000000000000005ddbbc68527214e0aca3b4175860080cbdaa12ff",
          "blockHash": "0xd3e18bd4740d772ab08f49873c68f8dfbe46281633dd8303c82dba3a5a2f8bcb",
          "blockNumber": "0xbb07c85",
          "transactionHash": "0x753082a773d3dc3a090434dafc3a832478d818795cef5f99cda997ab4193ea38",
          "transactionIndex": "0x6",
          "logIndex": "0x5",
          "removed": false
        }
      ],
      "logsBloom": "0x00000000000000000000000000000000000000000000000000000000000000000000000000000000000000000000000000000000000000000800000000000000000000000000000000000000000000000000000000000000000000000000000000000000000000000000000400000000000000000000000000000000000000000000000000000000000000000000020000000000000000000000000000000000000000000000000000000000000000000000000000000000000002000000000000000000000000000000000000000000000000000000000000040000000000000000000000000000000000000000000000000020000000000000000000000000",
      "type": "0x2",
      "transactionHash": "0x753082a773d3dc3a090434dafc3a832478d818795cef5f99cda997ab4193ea38",
      "transactionIndex": "0x6",
      "blockHash": "0xd3e18bd4740d772ab08f49873c68f8dfbe46281633dd8303c82dba3a5a2f8bcb",
      "blockNumber": "0xbb07c85",
      "gasUsed": "0xbc73",
      "effectiveGasPrice": "0x66720b300",
      "from": "0x0ece75f3c36f7df2136dac7633165dbff53de3cd",
      "to": "0x5ddbbc68527214e0aca3b4175860080cbdaa12ff",
      "contractAddress": null
    },
    {
      "status": "0x1",
      "cumulativeGasUsed": "0x57963",
      "logs": [
        {
          "address": "0xfe5138a42dc1fc335455b505e036784a33f7f102",
          "topics": [
            "0x238399d427b947898edb290f5ff0f9109849b1c3ba196a42e35f00c50a54b98b"
          ],
          "data": "0x00000000000000000000000000000000000000000000000000000000000075e8000000000000000000000000249a1d049ce9c68c818eb5afc53359f547c176a4",
          "blockHash": "0xd3e18bd4740d772ab08f49873c68f8dfbe46281633dd8303c82dba3a5a2f8bcb",
          "blockNumber": "0xbb07c85",
          "transactionHash": "0xe74aa0404ff72d91d7b3dc881ae9c6b261e8f4c03b34a2e70bb313f23b4bef65",
          "transactionIndex": "0x7",
          "logIndex": "0x6",
          "removed": false
        }
      ],
      "logsBloom": "0x00000000000000000000000000000000000000000000000000000000000000000000000000000000008000000000000000000000000000000800000000000000000000000000000000000000000000000000000000000000000000000400000000000000000000000000000000000000000000000000000000000000000000000000000000000000000000000000000000000000000000000000000000000000000000000000000000000000000000020000000000000000000002000000000000000000000000000000000000000000000000000000000000040000000000000000000000000000000000000000000000000000000000000000000000000000",
      "type": "0x2",
      "transactionHash": "0xe74aa0404ff72d91d7b3dc881ae9c6b261e8f4c03b34a2e70bb313f23b4bef65",
      "transactionIndex": "0x7",
      "blockHash": "0xd3e18bd4740d772ab08f49873c68f8dfbe46281633dd8303c82dba3a5a2f8bcb",
      "blockNumber": "0xbb07c85",
      "gasUsed": "0xbcb5",
      "effectiveGasPrice": "0x66720b300",
      "from": "0x0ece75f3c36f7df2136dac7633165dbff53de3cd",
      "to": "0xfe5138a42dc1fc335455b505e036784a33f7f102",
      "contractAddress": null
    },
    {
      "status": "0x1",
      "cumulativeGasUsed": "0x63618",
      "logs": [
        {
          "address": "0xfe5138a42dc1fc335455b505e036784a33f7f102",
          "topics": [
            "0x238399d427b947898edb290f5ff0f9109849b1c3ba196a42e35f00c50a54b98b"
          ],
          "data": "0x00000000000000000000000000000000000000000000000000000000000075c6000000000000000000000000fe5138a42dc1fc335455b505e036784a33f7f102",
          "blockHash": "0xd3e18bd4740d772ab08f49873c68f8dfbe46281633dd8303c82dba3a5a2f8bcb",
          "blockNumber": "0xbb07c85",
          "transactionHash": "0x6f975218c03c26f8173eac20eaae5394d60c454cc1a89eea6eb2e0c43b936b04",
          "transactionIndex": "0x8",
          "logIndex": "0x7",
          "removed": false
        }
      ],
      "logsBloom": "0x00000000000000000000000000000000000000000000000000000000000000000000000000000000008000000000000000000000000000000800000000000000000000000000000000000000000000000000000000000000000000000400000000000000000000000000000000000000000000000000000000000000000000000000000000000000000000000000000000000000000000000000000000000000000000000000000000000000000000020000000000000000000002000000000000000000000000000000000000000000000000000000000000040000000000000000000000000000000000000000000000000000000000000000000000000000",
      "type": "0x2",
      "transactionHash": "0x6f975218c03c26f8173eac20eaae5394d60c454cc1a89eea6eb2e0c43b936b04",
      "transactionIndex": "0x8",
      "blockHash": "0xd3e18bd4740d772ab08f49873c68f8dfbe46281633dd8303c82dba3a5a2f8bcb",
      "blockNumber": "0xbb07c85",
      "gasUsed": "0xbcb5",
      "effectiveGasPrice": "0x66720b300",
      "from": "0x0ece75f3c36f7df2136dac7633165dbff53de3cd",
      "to": "0xfe5138a42dc1fc335455b505e036784a33f7f102",
      "contractAddress": null
    },
    {
      "status": "0x1",
      "cumulativeGasUsed": "0x6f2cd",
      "logs": [
        {
          "address": "0xb0e96105543cba4b3d82911e7336f19bd03b0360",
          "topics": [
            "0x238399d427b947898edb290f5ff0f9109849b1c3ba196a42e35f00c50a54b98b"
          ],
          "data": "0x00000000000000000000000000000000000000000000000000000000000075e80000000000000000000000002773280bbaea3c70afec358c1ba426d42d56fc7a",
          "blockHash": "0xd3e18bd4740d772ab08f49873c68f8dfbe46281633dd8303c82dba3a5a2f8bcb",
          "blockNumber": "0xbb07c85",
          "transactionHash": "0xa00ca25db69ea8e2b71361650e839b1ba265713bd43b7274761735c9c2a8a4cf",
          "transactionIndex": "0x9",
          "logIndex": "0x8",
          "removed": false
        }
      ],
      "logsBloom": "0x00000000000000000000000000000000000000000000000000000000000000000000000000000000000000000000000000000000000000000800000000000000000000000000000100000000000000000000000000000000000000000000000000000000000000000000000000000000000000000000000000000000000000000000000000000000000000000010000000000000000000000000000000000000000000000000000200000000000000000000000000000000000002000000000000000000000000000000000000000000000000000000000000040000000000000000000000000000000000000000000000000000000000000000000000000000",
      "type": "0x2",
      "transactionHash": "0xa00ca25db69ea8e2b71361650e839b1ba265713bd43b7274761735c9c2a8a4cf",
      "transactionIndex": "0x9",
      "blockHash": "0xd3e18bd4740d772ab08f49873c68f8dfbe46281633dd8303c82dba3a5a2f8bcb",
      "blockNumber": "0xbb07c85",
      "gasUsed": "0xbcb5",
      "effectiveGasPrice": "0x66720b300",
      "from": "0x0ece75f3c36f7df2136dac7633165dbff53de3cd",
      "to": "0xb0e96105543cba4b3d82911e7336f19bd03b0360",
      "contractAddress": null
    },
    {
      "status": "0x1",
      "cumulativeGasUsed": "0x7af82",
      "logs": [
        {
          "address": "0xb0e96105543cba4b3d82911e7336f19bd03b0360",
          "topics": [
            "0x238399d427b947898edb290f5ff0f9109849b1c3ba196a42e35f00c50a54b98b"
          ],
          "data": "0x00000000000000000000000000000000000000000000000000000000000075c6000000000000000000000000b0e96105543cba4b3d82911e7336f19bd03b0360",
          "blockHash": "0xd3e18bd4740d772ab08f49873c68f8dfbe46281633dd8303c82dba3a5a2f8bcb",
          "blockNumber": "0xbb07c85",
          "transactionHash": "0xa65aabf6040b6c374b4fe164a382773d17c4a40740f7a46da1bfadf1960b8930",
          "transactionIndex": "0xa",
          "logIndex": "0x9",
          "removed": false
        }
      ],
      "logsBloom": "0x00000000000000000000000000000000000000000000000000000000000000000000000000000000000000000000000000000000000000000800000000000000000000000000000100000000000000000000000000000000000000000000000000000000000000000000000000000000000000000000000000000000000000000000000000000000000000000010000000000000000000000000000000000000000000000000000200000000000000000000000000000000000002000000000000000000000000000000000000000000000000000000000000040000000000000000000000000000000000000000000000000000000000000000000000000000",
      "type": "0x2",
      "transactionHash": "0xa65aabf6040b6c374b4fe164a382773d17c4a40740f7a46da1bfadf1960b8930",
      "transactionIndex": "0xa",
      "blockHash": "0xd3e18bd4740d772ab08f49873c68f8dfbe46281633dd8303c82dba3a5a2f8bcb",
      "blockNumber": "0xbb07c85",
      "gasUsed": "0xbcb5",
      "effectiveGasPrice": "0x66720b300",
      "from": "0x0ece75f3c36f7df2136dac7633165dbff53de3cd",
      "to": "0xb0e96105543cba4b3d82911e7336f19bd03b0360",
      "contractAddress": null
    }
  ],
  "libraries": [],
  "pending": [],
  "returns": {},
  "timestamp": 1758183319468,
  "chain": 8217,
  "commit": "6c82bda"
}