{
  "transactions": [
    {
      "hash": "0x959711a0eb5897247f4213c68a1349d2f88b63ef2bb1b0e5dd4169eb0a8c5998",
      "transactionType": "CALL",
      "contractName": null,
      "contractAddress": "0xdf05e9abf64da281b3cbd8ac3581022ec4841fb2",
      "function": "setPeer(uint32,bytes32)",
      "arguments": [
        "30184",
        "0x0000000000000000000000005e6aad48fb0a23e9540a5eaffb87846e8ef04c42"
      ],
      "transaction": {
        "from": "0x0ece75f3c36f7df2136dac7633165dbff53de3cd",
        "to": "0xdf05e9abf64da281b3cbd8ac3581022ec4841fb2",
        "gas": "0x104a6",
        "value": "0x0",
        "input": "0x3400288b00000000000000000000000000000000000000000000000000000000000075e80000000000000000000000005e6aad48fb0a23e9540a5eaffb87846e8ef04c42",
        "nonce": "0x1e",
        "chainId": "0x2019"
      },
      "additionalContracts": [],
      "isFixedGasLimit": false
    },
    {
      "hash": "0x966278b8fee892e2c55eb4167366bea7c8acc0e225a7f61d0542cb1b83219e3d",
      "transactionType": "CALL",
      "contractName": null,
      "contractAddress": "0xdf05e9abf64da281b3cbd8ac3581022ec4841fb2",
      "function": "setPeer(uint32,bytes32)",
      "arguments": [
        "30150",
        "0x000000000000000000000000df05e9abf64da281b3cbd8ac3581022ec4841fb2"
      ],
      "transaction": {
        "from": "0x0ece75f3c36f7df2136dac7633165dbff53de3cd",
        "to": "0xdf05e9abf64da281b3cbd8ac3581022ec4841fb2",
        "gas": "0x104a6",
        "value": "0x0",
        "input": "0x3400288b00000000000000000000000000000000000000000000000000000000000075c6000000000000000000000000df05e9abf64da281b3cbd8ac3581022ec4841fb2",
        "nonce": "0x1f",
        "chainId": "0x2019"
      },
      "additionalContracts": [],
      "isFixedGasLimit": false
    }
  ],
  "receipts": [
    {
      "status": "0x1",
      "cumulativeGasUsed": "0xbcb5",
      "logs": [
        {
          "address": "0xdf05e9abf64da281b3cbd8ac3581022ec4841fb2",
          "topics": [
            "0x238399d427b947898edb290f5ff0f9109849b1c3ba196a42e35f00c50a54b98b"
          ],
          "data": "0x00000000000000000000000000000000000000000000000000000000000075e80000000000000000000000005e6aad48fb0a23e9540a5eaffb87846e8ef04c42",
          "blockHash": "0x0424fa918ae67e9c35a1c9e63bed4e93660cc8992749e5e386f1d0cdbebde264",
          "blockNumber": "0xbaa7985",
          "transactionHash": "0x959711a0eb5897247f4213c68a1349d2f88b63ef2bb1b0e5dd4169eb0a8c5998",
          "transactionIndex": "0x0",
          "logIndex": "0x0",
          "removed": false
        }
      ],
      "logsBloom": "0x00000000000000000000000000000000000000000000000000000000000000000000000000000000000000000000000000000000000000000800000000000000000000000000000000000000000000000000000000000000000000000000000000000000000000000000000000000000000000000000000400000000000000000000000000000000000000000040000000000000000000000000000000000000000000000000000000000000000000000000000000000000000002000008000000000000000000000000000000000000000000000000000000040000000000000000000000000000000000000000000000000000000000000000000000000000",
      "type": "0x2",
      "transactionHash": "0x959711a0eb5897247f4213c68a1349d2f88b63ef2bb1b0e5dd4169eb0a8c5998",
      "transactionIndex": "0x0",
      "blockHash": "0x0424fa918ae67e9c35a1c9e63bed4e93660cc8992749e5e386f1d0cdbebde264",
      "blockNumber": "0xbaa7985",
      "gasUsed": "0xbcb5",
      "effectiveGasPrice": "0x66720b300",
      "from": "0x0ece75f3c36f7df2136dac7633165dbff53de3cd",
      "to": "0xdf05e9abf64da281b3cbd8ac3581022ec4841fb2",
      "contractAddress": null
    },
    {
      "status": "0x1",
      "cumulativeGasUsed": "0x1796a",
      "logs": [
        {
          "address": "0xdf05e9abf64da281b3cbd8ac3581022ec4841fb2",
          "topics": [
            "0x238399d427b947898edb290f5ff0f9109849b1c3ba196a42e35f00c50a54b98b"
          ],
          "data": "0x00000000000000000000000000000000000000000000000000000000000075c6000000000000000000000000df05e9abf64da281b3cbd8ac3581022ec4841fb2",
          "blockHash": "0x0424fa918ae67e9c35a1c9e63bed4e93660cc8992749e5e386f1d0cdbebde264",
          "blockNumber": "0xbaa7985",
          "transactionHash": "0x966278b8fee892e2c55eb4167366bea7c8acc0e225a7f61d0542cb1b83219e3d",
          "transactionIndex": "0x1",
          "logIndex": "0x1",
          "removed": false
        }
      ],
      "logsBloom": "0x00000000000000000000000000000000000000000000000000000000000000000000000000000000000000000000000000000000000000000800000000000000000000000000000000000000000000000000000000000000000000000000000000000000000000000000000000000000000000000000000400000000000000000000000000000000000000000040000000000000000000000000000000000000000000000000000000000000000000000000000000000000000002000008000000000000000000000000000000000000000000000000000000040000000000000000000000000000000000000000000000000000000000000000000000000000",
      "type": "0x2",
      "transactionHash": "0x966278b8fee892e2c55eb4167366bea7c8acc0e225a7f61d0542cb1b83219e3d",
      "transactionIndex": "0x1",
      "blockHash": "0x0424fa918ae67e9c35a1c9e63bed4e93660cc8992749e5e386f1d0cdbebde264",
      "blockNumber": "0xbaa7985",
      "gasUsed": "0xbcb5",
      "effectiveGasPrice": "0x66720b300",
      "from": "0x0ece75f3c36f7df2136dac7633165dbff53de3cd",
      "to": "0xdf05e9abf64da281b3cbd8ac3581022ec4841fb2",
      "contractAddress": null
    }
  ],
  "libraries": [],
  "pending": [],
  "returns": {},
  "timestamp": 1757785490466,
  "chain": 8217,
  "commit": "e54a7ff"
}