{
  "transactions": [
    {
      "hash": "0xe7de87ede6ddbf6eb28e7c71e866796b30fd265424a5d65a2e382ebedb2956d5",
      "transactionType": "CALL",
      "contractName": null,
      "contractAddress": "0xdf05e9abf64da281b3cbd8ac3581022ec4841fb2",
      "function": "setPeer(uint32,bytes32)",
      "arguments": [
        "30184",
        "0x0000000000000000000000005e6aad48fb0a23e9540a5eaffb87846e8ef04c42"
      ],
      "transaction": {
        "from": "0x0ece75f3c36f7df2136dac7633165dbff53de3cd",
        "to": "0xdf05e9abf64da281b3cbd8ac3581022ec4841fb2",
        "gas": "0xa24c",
        "value": "0x0",
        "input": "0x3400288b00000000000000000000000000000000000000000000000000000000000075e80000000000000000000000005e6aad48fb0a23e9540a5eaffb87846e8ef04c42",
        "nonce": "0x20",
        "chainId": "0x2019"
      },
      "additionalContracts": [],
      "isFixedGasLimit": false
    },
    {
      "hash": "0x2c52c0efb943d3fe13e6ed0666f0531086c3e4d87553a6a1cbdc0e76c1150825",
      "transactionType": "CALL",
      "contractName": null,
      "contractAddress": "0xdf05e9abf64da281b3cbd8ac3581022ec4841fb2",
      "function": "setPeer(uint32,bytes32)",
      "arguments": [
        "30150",
        "0x000000000000000000000000df05e9abf64da281b3cbd8ac3581022ec4841fb2"
      ],
      "transaction": {
        "from": "0x0ece75f3c36f7df2136dac7633165dbff53de3cd",
        "to": "0xdf05e9abf64da281b3cbd8ac3581022ec4841fb2",
        "gas": "0xa24c",
        "value": "0x0",
        "input": "0x3400288b00000000000000000000000000000000000000000000000000000000000075c6000000000000000000000000df05e9abf64da281b3cbd8ac3581022ec4841fb2",
        "nonce": "0x21",
        "chainId": "0x2019"
      },
      "additionalContracts": [],
      "isFixedGasLimit": false
    },
    {
      "hash": "0xc83c1b4949b8699213c8d97d3bff666dcfbbc9859cf42081a20ac6ed35381c9a",
      "transactionType": "CALL",
      "contractName": null,
      "contractAddress": "0x04c37dc1b538e00b31e6bc883e16d97cd7937a10",
      "function": "setPeer(uint32,bytes32)",
      "arguments": [
        "30184",
        "0x0000000000000000000000005e6aad48fb0a23e9540a5eaffb87846e8ef04c42"
      ],
      "transaction": {
        "from": "0x0ece75f3c36f7df2136dac7633165dbff53de3cd",
        "to": "0x04c37dc1b538e00b31e6bc883e16d97cd7937a10",
        "gas": "0x104a6",
        "value": "0x0",
        "input": "0x3400288b00000000000000000000000000000000000000000000000000000000000075e80000000000000000000000005e6aad48fb0a23e9540a5eaffb87846e8ef04c42",
        "nonce": "0x22",
        "chainId": "0x2019"
      },
      "additionalContracts": [],
      "isFixedGasLimit": false
    },
    {
      "hash": "0x945fddf7d718da9859e9496794ddfb2474a0bdb41ee5f23411d123fbd20451ec",
      "transactionType": "CALL",
      "contractName": null,
      "contractAddress": "0x04c37dc1b538e00b31e6bc883e16d97cd7937a10",
      "function": "setPeer(uint32,bytes32)",
      "arguments": [
        "30150",
        "0x00000000000000000000000004c37dc1b538e00b31e6bc883e16d97cd7937a10"
      ],
      "transaction": {
        "from": "0x0ece75f3c36f7df2136dac7633165dbff53de3cd",
        "to": "0x04c37dc1b538e00b31e6bc883e16d97cd7937a10",
        "gas": "0x104a6",
        "value": "0x0",
        "input": "0x3400288b00000000000000000000000000000000000000000000000000000000000075c600000000000000000000000004c37dc1b538e00b31e6bc883e16d97cd7937a10",
        "nonce": "0x23",
        "chainId": "0x2019"
      },
      "additionalContracts": [],
      "isFixedGasLimit": false
    },
    {
      "hash": "0x316c3f312bf9b5ec23f37ebb4a9420b217d654da64bae3d7c633c4f38e731ea8",
      "transactionType": "CALL",
      "contractName": null,
      "contractAddress": "0x15858a57854bbf0df60a737811d50e1ee785f9bc",
      "function": "setPeer(uint32,bytes32)",
      "arguments": [
        "30184",
        "0x000000000000000000000000b9b3a1baa8cf4c5cd6b4d132ed7b0cbe05646f6f"
      ],
      "transaction": {
        "from": "0x0ece75f3c36f7df2136dac7633165dbff53de3cd",
        "to": "0x15858a57854bbf0df60a737811d50e1ee785f9bc",
        "gas": "0x104a6",
        "value": "0x0",
        "input": "0x3400288b00000000000000000000000000000000000000000000000000000000000075e8000000000000000000000000b9b3a1baa8cf4c5cd6b4d132ed7b0cbe05646f6f",
        "nonce": "0x24",
        "chainId": "0x2019"
      },
      "additionalContracts": [],
      "isFixedGasLimit": false
    },
    {
      "hash": "0xa08b7c9f987b29694024bfc108ad581db625694141cccb5cde2824576fef1fd6",
      "transactionType": "CALL",
      "contractName": null,
      "contractAddress": "0x15858a57854bbf0df60a737811d50e1ee785f9bc",
      "function": "setPeer(uint32,bytes32)",
      "arguments": [
        "30150",
        "0x00000000000000000000000015858a57854bbf0df60a737811d50e1ee785f9bc"
      ],
      "transaction": {
        "from": "0x0ece75f3c36f7df2136dac7633165dbff53de3cd",
        "to": "0x15858a57854bbf0df60a737811d50e1ee785f9bc",
        "gas": "0x104a6",
        "value": "0x0",
        "input": "0x3400288b00000000000000000000000000000000000000000000000000000000000075c600000000000000000000000015858a57854bbf0df60a737811d50e1ee785f9bc",
        "nonce": "0x25",
        "chainId": "0x2019"
      },
      "additionalContracts": [],
      "isFixedGasLimit": false
    },
    {
      "hash": "0x6434b24ceaf991d9e34aea5ccc8dcaa1176df7903bb3ff7e3c991072d1bca250",
      "transactionType": "CALL",
      "contractName": null,
      "contractAddress": "0x4ba8d8083e7f3652ccb084c32652e68566e9ef23",
      "function": "setPeer(uint32,bytes32)",
      "arguments": [
        "30184",
        "0x000000000000000000000000b0fca55167f94d0f515877c411e0deb904321761"
      ],
      "transaction": {
        "from": "0x0ece75f3c36f7df2136dac7633165dbff53de3cd",
        "to": "0x4ba8d8083e7f3652ccb084c32652e68566e9ef23",
        "gas": "0x104a6",
        "value": "0x0",
        "input": "0x3400288b00000000000000000000000000000000000000000000000000000000000075e8000000000000000000000000b0fca55167f94d0f515877c411e0deb904321761",
        "nonce": "0x26",
        "chainId": "0x2019"
      },
      "additionalContracts": [],
      "isFixedGasLimit": false
    },
    {
      "hash": "0xb9880714f70854371862f881562d9572aadb1ccf83558e5076e4448a27949b98",
      "transactionType": "CALL",
      "contractName": null,
      "contractAddress": "0x4ba8d8083e7f3652ccb084c32652e68566e9ef23",
      "function": "setPeer(uint32,bytes32)",
      "arguments": [
        "30150",
        "0x0000000000000000000000004ba8d8083e7f3652ccb084c32652e68566e9ef23"
      ],
      "transaction": {
        "from": "0x0ece75f3c36f7df2136dac7633165dbff53de3cd",
        "to": "0x4ba8d8083e7f3652ccb084c32652e68566e9ef23",
        "gas": "0x104a6",
        "value": "0x0",
        "input": "0x3400288b00000000000000000000000000000000000000000000000000000000000075c60000000000000000000000004ba8d8083e7f3652ccb084c32652e68566e9ef23",
        "nonce": "0x27",
        "chainId": "0x2019"
      },
      "additionalContracts": [],
      "isFixedGasLimit": false
    },
    {
      "hash": "0xc2503f154e149817e76c8c55e86ca90c63ff68bfb8848c27928a06181e6aa8df",
      "transactionType": "CALL",
      "contractName": null,
      "contractAddress": "0x007f735fd070ded4b0b58d430c392ff0190ec20f",
      "function": "setPeer(uint32,bytes32)",
      "arguments": [
        "30184",
        "0x0000000000000000000000006a58615739b0fc710e6a380e893e672968e30b5f"
      ],
      "transaction": {
        "from": "0x0ece75f3c36f7df2136dac7633165dbff53de3cd",
        "to": "0x007f735fd070ded4b0b58d430c392ff0190ec20f",
        "gas": "0x104a6",
        "value": "0x0",
        "input": "0x3400288b00000000000000000000000000000000000000000000000000000000000075e80000000000000000000000006a58615739b0fc710e6a380e893e672968e30b5f",
        "nonce": "0x28",
        "chainId": "0x2019"
      },
      "additionalContracts": [],
      "isFixedGasLimit": false
    },
    {
      "hash": "0x134f8e73e7933325a82b5f9ba5f93b06151217feae79ed15c8351a7799015a08",
      "transactionType": "CALL",
      "contractName": null,
      "contractAddress": "0x007f735fd070ded4b0b58d430c392ff0190ec20f",
      "function": "setPeer(uint32,bytes32)",
      "arguments": [
        "30150",
        "0x000000000000000000000000007f735fd070ded4b0b58d430c392ff0190ec20f"
      ],
      "transaction": {
        "from": "0x0ece75f3c36f7df2136dac7633165dbff53de3cd",
        "to": "0x007f735fd070ded4b0b58d430c392ff0190ec20f",
        "gas": "0x113ea",
        "value": "0x0",
        "input": "0x3400288b00000000000000000000000000000000000000000000000000000000000075c6000000000000000000000000007f735fd070ded4b0b58d430c392ff0190ec20f",
        "nonce": "0x29",
        "chainId": "0x2019"
      },
      "additionalContracts": [],
      "isFixedGasLimit": false
    }
  ],
  "receipts": [
    {
      "status": "0x1",
      "cumulativeGasUsed": "0xc5368",
      "logs": [
        {
          "address": "0xdf05e9abf64da281b3cbd8ac3581022ec4841fb2",
          "topics": [
            "0x238399d427b947898edb290f5ff0f9109849b1c3ba196a42e35f00c50a54b98b"
          ],
          "data": "0x00000000000000000000000000000000000000000000000000000000000075e80000000000000000000000005e6aad48fb0a23e9540a5eaffb87846e8ef04c42",
          "blockHash": "0x3abf710277847b2ed66d5dbcb4d2d57ae51ed8be5ab893227555afff9dc033b2",
          "blockNumber": "0xbaa7a1c",
          "transactionHash": "0xe7de87ede6ddbf6eb28e7c71e866796b30fd265424a5d65a2e382ebedb2956d5",
          "transactionIndex": "0xb",
          "logIndex": "0x1e",
          "removed": false
        }
      ],
      "logsBloom": "0x00000000000000000000000000000000000000000000000000000000000000000000000000000000000000000000000000000000000000000800000000000000000000000000000000000000000000000000000000000000000000000000000000000000000000000000000000000000000000000000000400000000000000000000000000000000000000000040000000000000000000000000000000000000000000000000000000000000000000000000000000000000000002000008000000000000000000000000000000000000000000000000000000040000000000000000000000000000000000000000000000000000000000000000000000000000",
      "type": "0x2",
      "transactionHash": "0xe7de87ede6ddbf6eb28e7c71e866796b30fd265424a5d65a2e382ebedb2956d5",
      "transactionIndex": "0xb",
      "blockHash": "0x3abf710277847b2ed66d5dbcb4d2d57ae51ed8be5ab893227555afff9dc033b2",
      "blockNumber": "0xbaa7a1c",
      "gasUsed": "0x6ef9",
      "effectiveGasPrice": "0x66720b300",
      "from": "0x0ece75f3c36f7df2136dac7633165dbff53de3cd",
      "to": "0xdf05e9abf64da281b3cbd8ac3581022ec4841fb2",
      "contractAddress": null
    },
    {
      "status": "0x1",
      "cumulativeGasUsed": "0xcc261",
      "logs": [
        {
          "address": "0xdf05e9abf64da281b3cbd8ac3581022ec4841fb2",
          "topics": [
            "0x238399d427b947898edb290f5ff0f9109849b1c3ba196a42e35f00c50a54b98b"
          ],
          "data": "0x00000000000000000000000000000000000000000000000000000000000075c6000000000000000000000000df05e9abf64da281b3cbd8ac3581022ec4841fb2",
          "blockHash": "0x3abf710277847b2ed66d5dbcb4d2d57ae51ed8be5ab893227555afff9dc033b2",
          "blockNumber": "0xbaa7a1c",
          "transactionHash": "0x2c52c0efb943d3fe13e6ed0666f0531086c3e4d87553a6a1cbdc0e76c1150825",
          "transactionIndex": "0xc",
          "logIndex": "0x1f",
          "removed": false
        }
      ],
      "logsBloom": "0x00000000000000000000000000000000000000000000000000000000000000000000000000000000000000000000000000000000000000000800000000000000000000000000000000000000000000000000000000000000000000000000000000000000000000000000000000000000000000000000000400000000000000000000000000000000000000000040000000000000000000000000000000000000000000000000000000000000000000000000000000000000000002000008000000000000000000000000000000000000000000000000000000040000000000000000000000000000000000000000000000000000000000000000000000000000",
      "type": "0x2",
      "transactionHash": "0x2c52c0efb943d3fe13e6ed0666f0531086c3e4d87553a6a1cbdc0e76c1150825",
      "transactionIndex": "0xc",
      "blockHash": "0x3abf710277847b2ed66d5dbcb4d2d57ae51ed8be5ab893227555afff9dc033b2",
      "blockNumber": "0xbaa7a1c",
      "gasUsed": "0x6ef9",
      "effectiveGasPrice": "0x66720b300",
      "from": "0x0ece75f3c36f7df2136dac7633165dbff53de3cd",
      "to": "0xdf05e9abf64da281b3cbd8ac3581022ec4841fb2",
      "contractAddress": null
    },
    {
      "status": "0x1",
      "cumulativeGasUsed": "0xd7f16",
      "logs": [
        {
          "address": "0x04c37dc1b538e00b31e6bc883e16d97cd7937a10",
          "topics": [
            "0x238399d427b947898edb290f5ff0f9109849b1c3ba196a42e35f00c50a54b98b"
          ],
          "data": "0x00000000000000000000000000000000000000000000000000000000000075e80000000000000000000000005e6aad48fb0a23e9540a5eaffb87846e8ef04c42",
          "blockHash": "0x3abf710277847b2ed66d5dbcb4d2d57ae51ed8be5ab893227555afff9dc033b2",
          "blockNumber": "0xbaa7a1c",
          "transactionHash": "0xc83c1b4949b8699213c8d97d3bff666dcfbbc9859cf42081a20ac6ed35381c9a",
          "transactionIndex": "0xd",
          "logIndex": "0x20",
          "removed": false
        }
      ],
      "logsBloom": "0x00000000000000000000000000000000000000000000000000000000000000000000000000000000000000000000000000000000000000200800000000000000200000000000000000000000000000000000000000000000000000000000000000000000000000000000000000000000000000000000000000000000000000000000000000000000000000000000000000000000000000000000000000000000000000000000000000000000010000000000000000000000000002000000000000000000000000000000000000000000000000000000000000040000000000000000000000000000000000000000000000000000000000000000000000000000",
      "type": "0x2",
      "transactionHash": "0xc83c1b4949b8699213c8d97d3bff666dcfbbc9859cf42081a20ac6ed35381c9a",
      "transactionIndex": "0xd",
      "blockHash": "0x3abf710277847b2ed66d5dbcb4d2d57ae51ed8be5ab893227555afff9dc033b2",
      "blockNumber": "0xbaa7a1c",
      "gasUsed": "0xbcb5",
      "effectiveGasPrice": "0x66720b300",
      "from": "0x0ece75f3c36f7df2136dac7633165dbff53de3cd",
      "to": "0x04c37dc1b538e00b31e6bc883e16d97cd7937a10",
      "contractAddress": null
    },
    {
      "status": "0x1",
      "cumulativeGasUsed": "0xe3bcb",
      "logs": [
        {
          "address": "0x04c37dc1b538e00b31e6bc883e16d97cd7937a10",
          "topics": [
            "0x238399d427b947898edb290f5ff0f9109849b1c3ba196a42e35f00c50a54b98b"
          ],
          "data": "0x00000000000000000000000000000000000000000000000000000000000075c600000000000000000000000004c37dc1b538e00b31e6bc883e16d97cd7937a10",
          "blockHash": "0x3abf710277847b2ed66d5dbcb4d2d57ae51ed8be5ab893227555afff9dc033b2",
          "blockNumber": "0xbaa7a1c",
          "transactionHash": "0x945fddf7d718da9859e9496794ddfb2474a0bdb41ee5f23411d123fbd20451ec",
          "transactionIndex": "0xe",
          "logIndex": "0x21",
          "removed": false
        }
      ],
      "logsBloom": "0x00000000000000000000000000000000000000000000000000000000000000000000000000000000000000000000000000000000000000200800000000000000200000000000000000000000000000000000000000000000000000000000000000000000000000000000000000000000000000000000000000000000000000000000000000000000000000000000000000000000000000000000000000000000000000000000000000000000010000000000000000000000000002000000000000000000000000000000000000000000000000000000000000040000000000000000000000000000000000000000000000000000000000000000000000000000",
      "type": "0x2",
      "transactionHash": "0x945fddf7d718da9859e9496794ddfb2474a0bdb41ee5f23411d123fbd20451ec",
      "transactionIndex": "0xe",
      "blockHash": "0x3abf710277847b2ed66d5dbcb4d2d57ae51ed8be5ab893227555afff9dc033b2",
      "blockNumber": "0xbaa7a1c",
      "gasUsed": "0xbcb5",
      "effectiveGasPrice": "0x66720b300",
      "from": "0x0ece75f3c36f7df2136dac7633165dbff53de3cd",
      "to": "0x04c37dc1b538e00b31e6bc883e16d97cd7937a10",
      "contractAddress": null
    },
    {
      "status": "0x1",
      "cumulativeGasUsed": "0xef880",
      "logs": [
        {
          "address": "0x15858a57854bbf0df60a737811d50e1ee785f9bc",
          "topics": [
            "0x238399d427b947898edb290f5ff0f9109849b1c3ba196a42e35f00c50a54b98b"
          ],
          "data": "0x00000000000000000000000000000000000000000000000000000000000075e8000000000000000000000000b9b3a1baa8cf4c5cd6b4d132ed7b0cbe05646f6f",
          "blockHash": "0x3abf710277847b2ed66d5dbcb4d2d57ae51ed8be5ab893227555afff9dc033b2",
          "blockNumber": "0xbaa7a1c",
          "transactionHash": "0x316c3f312bf9b5ec23f37ebb4a9420b217d654da64bae3d7c633c4f38e731ea8",
          "transactionIndex": "0xf",
          "logIndex": "0x22",
          "removed": false
        }
      ],
      "logsBloom": "0x00000000000000000000000000000000000000000000000000000000000000000000000000000000000000000000000000000000000000000800000000000000000000000000000000000000000040000000000000000000000000000000000000000000000000000000000000000000000000000000000000000000000000000000000000000000000000000000000000000000000000000000000000000000000000000000000000000000000000000000000000000000000002000000000000000000000000000000000000000000000000000000000000040000000002000000000000000000000000000000000000000000000000000200000000000000",
      "type": "0x2",
      "transactionHash": "0x316c3f312bf9b5ec23f37ebb4a9420b217d654da64bae3d7c633c4f38e731ea8",
      "transactionIndex": "0xf",
      "blockHash": "0x3abf710277847b2ed66d5dbcb4d2d57ae51ed8be5ab893227555afff9dc033b2",
      "blockNumber": "0xbaa7a1c",
      "gasUsed": "0xbcb5",
      "effectiveGasPrice": "0x66720b300",
      "from": "0x0ece75f3c36f7df2136dac7633165dbff53de3cd",
      "to": "0x15858a57854bbf0df60a737811d50e1ee785f9bc",
      "contractAddress": null
    },
    {
      "status": "0x1",
      "cumulativeGasUsed": "0x119c7",
      "logs": [
        {
          "address": "0x15858a57854bbf0df60a737811d50e1ee785f9bc",
          "topics": [
            "0x238399d427b947898edb290f5ff0f9109849b1c3ba196a42e35f00c50a54b98b"
          ],
          "data": "0x00000000000000000000000000000000000000000000000000000000000075c600000000000000000000000015858a57854bbf0df60a737811d50e1ee785f9bc",
          "blockHash": "0xfb15bc80004f103653321b0c55102f68ffb8f7b07274c9807d7354bacd2ca176",
          "blockNumber": "0xbaa7a1d",
          "transactionHash": "0xa08b7c9f987b29694024bfc108ad581db625694141cccb5cde2824576fef1fd6",
          "transactionIndex": "0x1",
          "logIndex": "0x1",
          "removed": false
        }
      ],
      "logsBloom": "0x00000000000000000000000000000000000000000000000000000000000000000000000000000000000000000000000000000000000000000800000000000000000000000000000000000000000040000000000000000000000000000000000000000000000000000000000000000000000000000000000000000000000000000000000000000000000000000000000000000000000000000000000000000000000000000000000000000000000000000000000000000000000002000000000000000000000000000000000000000000000000000000000000040000000002000000000000000000000000000000000000000000000000000200000000000000",
      "type": "0x2",
      "transactionHash": "0xa08b7c9f987b29694024bfc108ad581db625694141cccb5cde2824576fef1fd6",
      "transactionIndex": "0x1",
      "blockHash": "0xfb15bc80004f103653321b0c55102f68ffb8f7b07274c9807d7354bacd2ca176",
      "blockNumber": "0xbaa7a1d",
      "gasUsed": "0xbcb5",
      "effectiveGasPrice": "0x66720b300",
      "from": "0x0ece75f3c36f7df2136dac7633165dbff53de3cd",
      "to": "0x15858a57854bbf0df60a737811d50e1ee785f9bc",
      "contractAddress": null
    },
    {
      "status": "0x1",
      "cumulativeGasUsed": "0x1d67c",
      "logs": [
        {
          "address": "0x4ba8d8083e7f3652ccb084c32652e68566e9ef23",
          "topics": [
            "0x238399d427b947898edb290f5ff0f9109849b1c3ba196a42e35f00c50a54b98b"
          ],
          "data": "0x00000000000000000000000000000000000000000000000000000000000075e8000000000000000000000000b0fca55167f94d0f515877c411e0deb904321761",
          "blockHash": "0xfb15bc80004f103653321b0c55102f68ffb8f7b07274c9807d7354bacd2ca176",
          "blockNumber": "0xbaa7a1d",
          "transactionHash": "0x6434b24ceaf991d9e34aea5ccc8dcaa1176df7903bb3ff7e3c991072d1bca250",
          "transactionIndex": "0x2",
          "logIndex": "0x2",
          "removed": false
        }
      ],
      "logsBloom": "0x00000000000000000000000000000000000000000000000000000000000000000000000000000000000000000000000000000000000000000800000000000000000000000000000000000000000000000000000000000000000000000000000000000000000000000000000000000000000000000000000000000000004000008000000000000000000000000000000000000000000000000000000000000000000000000000000000000000000000000000000000000000000102000000000000000000000000000000000000000000000000000000000000040000000000000000000000000000000000000000000000000000000000000000000000000000",
      "type": "0x2",
      "transactionHash": "0x6434b24ceaf991d9e34aea5ccc8dcaa1176df7903bb3ff7e3c991072d1bca250",
      "transactionIndex": "0x2",
      "blockHash": "0xfb15bc80004f103653321b0c55102f68ffb8f7b07274c9807d7354bacd2ca176",
      "blockNumber": "0xbaa7a1d",
      "gasUsed": "0xbcb5",
      "effectiveGasPrice": "0x66720b300",
      "from": "0x0ece75f3c36f7df2136dac7633165dbff53de3cd",
      "to": "0x4ba8d8083e7f3652ccb084c32652e68566e9ef23",
      "contractAddress": null
    },
    {
      "status": "0x1",
      "cumulativeGasUsed": "0x29331",
      "logs": [
        {
          "address": "0x4ba8d8083e7f3652ccb084c32652e68566e9ef23",
          "topics": [
            "0x238399d427b947898edb290f5ff0f9109849b1c3ba196a42e35f00c50a54b98b"
          ],
          "data": "0x00000000000000000000000000000000000000000000000000000000000075c60000000000000000000000004ba8d8083e7f3652ccb084c32652e68566e9ef23",
          "blockHash": "0xfb15bc80004f103653321b0c55102f68ffb8f7b07274c9807d7354bacd2ca176",
          "blockNumber": "0xbaa7a1d",
          "transactionHash": "0xb9880714f70854371862f881562d9572aadb1ccf83558e5076e4448a27949b98",
          "transactionIndex": "0x3",
          "logIndex": "0x3",
          "removed": false
        }
      ],
      "logsBloom": "0x00000000000000000000000000000000000000000000000000000000000000000000000000000000000000000000000000000000000000000800000000000000000000000000000000000000000000000000000000000000000000000000000000000000000000000000000000000000000000000000000000000000004000008000000000000000000000000000000000000000000000000000000000000000000000000000000000000000000000000000000000000000000102000000000000000000000000000000000000000000000000000000000000040000000000000000000000000000000000000000000000000000000000000000000000000000",
      "type": "0x2",
      "transactionHash": "0xb9880714f70854371862f881562d9572aadb1ccf83558e5076e4448a27949b98",
      "transactionIndex": "0x3",
      "blockHash": "0xfb15bc80004f103653321b0c55102f68ffb8f7b07274c9807d7354bacd2ca176",
      "blockNumber": "0xbaa7a1d",
      "gasUsed": "0xbcb5",
      "effectiveGasPrice": "0x66720b300",
      "from": "0x0ece75f3c36f7df2136dac7633165dbff53de3cd",
      "to": "0x4ba8d8083e7f3652ccb084c32652e68566e9ef23",
      "contractAddress": null
    },
    {
      "status": "0x1",
      "cumulativeGasUsed": "0x34fe6",
      "logs": [
        {
          "address": "0x007f735fd070ded4b0b58d430c392ff0190ec20f",
          "topics": [
            "0x238399d427b947898edb290f5ff0f9109849b1c3ba196a42e35f00c50a54b98b"
          ],
          "data": "0x00000000000000000000000000000000000000000000000000000000000075e80000000000000000000000006a58615739b0fc710e6a380e893e672968e30b5f",
          "blockHash": "0xfb15bc80004f103653321b0c55102f68ffb8f7b07274c9807d7354bacd2ca176",
          "blockNumber": "0xbaa7a1d",
          "transactionHash": "0xc2503f154e149817e76c8c55e86ca90c63ff68bfb8848c27928a06181e6aa8df",
          "transactionIndex": "0x4",
          "logIndex": "0x4",
          "removed": false
        }
      ],
      "logsBloom": "0x00000000000000000000000000000000000400000000000000000000000000000000000000000000000000000000000000000000000000000800000000000000000000000000000000000000000000000000000000000000000000000000000000000000001000000000000000000000000000000000000000000000000000000000000000000000000000000000000000000000000000000000000000000040000000000000000000000000000000000000000000000000000002000000000000000000000000000000000000000000000000000000000000040000000000000000000000000000000000000000000000000000000000000000000000000000",
      "type": "0x2",
      "transactionHash": "0xc2503f154e149817e76c8c55e86ca90c63ff68bfb8848c27928a06181e6aa8df",
      "transactionIndex": "0x4",
      "blockHash": "0xfb15bc80004f103653321b0c55102f68ffb8f7b07274c9807d7354bacd2ca176",
      "blockNumber": "0xbaa7a1d",
      "gasUsed": "0xbcb5",
      "effectiveGasPrice": "0x66720b300",
      "from": "0x0ece75f3c36f7df2136dac7633165dbff53de3cd",
      "to": "0x007f735fd070ded4b0b58d430c392ff0190ec20f",
      "contractAddress": null
    },
    {
      "status": "0x1",
      "cumulativeGasUsed": "0x40c8f",
      "logs": [
        {
          "address": "0x007f735fd070ded4b0b58d430c392ff0190ec20f",
          "topics": [
            "0x238399d427b947898edb290f5ff0f9109849b1c3ba196a42e35f00c50a54b98b"
          ],
          "data": "0x00000000000000000000000000000000000000000000000000000000000075c6000000000000000000000000007f735fd070ded4b0b58d430c392ff0190ec20f",
          "blockHash": "0xfb15bc80004f103653321b0c55102f68ffb8f7b07274c9807d7354bacd2ca176",
          "blockNumber": "0xbaa7a1d",
          "transactionHash": "0x134f8e73e7933325a82b5f9ba5f93b06151217feae79ed15c8351a7799015a08",
          "transactionIndex": "0x5",
          "logIndex": "0x5",
          "removed": false
        }
      ],
      "logsBloom": "0x00000000000000000000000000000000000400000000000000000000000000000000000000000000000000000000000000000000000000000800000000000000000000000000000000000000000000000000000000000000000000000000000000000000001000000000000000000000000000000000000000000000000000000000000000000000000000000000000000000000000000000000000000000040000000000000000000000000000000000000000000000000000002000000000000000000000000000000000000000000000000000000000000040000000000000000000000000000000000000000000000000000000000000000000000000000",
      "type": "0x2",
      "transactionHash": "0x134f8e73e7933325a82b5f9ba5f93b06151217feae79ed15c8351a7799015a08",
      "transactionIndex": "0x5",
      "blockHash": "0xfb15bc80004f103653321b0c55102f68ffb8f7b07274c9807d7354bacd2ca176",
      "blockNumber": "0xbaa7a1d",
      "gasUsed": "0xbca9",
      "effectiveGasPrice": "0x66720b300",
      "from": "0x0ece75f3c36f7df2136dac7633165dbff53de3cd",
      "to": "0x007f735fd070ded4b0b58d430c392ff0190ec20f",
      "contractAddress": null
    }
  ],
  "libraries": [],
  "pending": [],
  "returns": {},
  "timestamp": 1757785642245,
  "chain": 8217,
  "commit": "e54a7ff"
}