{
  "transactions": [
    {
      "hash": "0x5cac2e393504399ab24dfb742739c1cdacd770564c0a335192a351346c0ee574",
      "transactionType": "CALL",
      "contractName": null,
      "contractAddress": "0xceb5c8903060197e46ab5ea5087b9f99cbc8da49",
      "function": "approve(address,uint256)",
      "arguments": [
        "0x5e6671ef689B2B2D4391a766B0486E5054136546",
        "1000000"
      ],
      "transaction": {
        "from": "0x0ece75f3c36f7df2136dac7633165dbff53de3cd",
        "to": "0xceb5c8903060197e46ab5ea5087b9f99cbc8da49",
        "gas": "0xfd00",
        "value": "0x0",
        "input": "0x095ea7b30000000000000000000000005e6671ef689b2b2d4391a766b0486e505413654600000000000000000000000000000000000000000000000000000000000f4240",
        "nonce": "0x80",
        "chainId": "0x2019"
      },
      "additionalContracts": [],
      "isFixedGasLimit": false
    },
    {
      "hash": "0x4d4b1a6135aefd3298faaaa0fae40377c91c8461e0ede0c144a1b8d6643c4115",
      "transactionType": "CALL",
      "contractName": null,
      "contractAddress": "0xceb5c8903060197e46ab5ea5087b9f99cbc8da49",
      "function": "approve(address,uint256)",
      "arguments": [
        "0x7c9cF703903680ae5EB6ec2Bb2BEbb1ec751918A",
        "1000000"
      ],
      "transaction": {
        "from": "0x0ece75f3c36f7df2136dac7633165dbff53de3cd",
        "to": "0xceb5c8903060197e46ab5ea5087b9f99cbc8da49",
        "gas": "0x91a2",
        "value": "0x0",
        "input": "0x095ea7b30000000000000000000000007c9cf703903680ae5eb6ec2bb2bebb1ec751918a00000000000000000000000000000000000000000000000000000000000f4240",
        "nonce": "0x81",
        "chainId": "0x2019"
      },
      "additionalContracts": [],
      "isFixedGasLimit": false
    },
    {
      "hash": "0xb6fb8e4f5a21050c294eace9549869b5cb27a298f31a5e1fa897917983f97a93",
      "transactionType": "CALL",
      "contractName": null,
      "contractAddress": "0x5e6671ef689b2b2d4391a766b0486e5054136546",
      "function": "send((uint32,bytes32,uint256,uint256,bytes,bytes,bytes),(uint256,uint256),address)",
      "arguments": [
        "(30184, 0x0000000000000000000000000ece75f3c36f7df2136dac7633165dbff53de3cd, 1000000, 1000000, 0x0003010011010000000000000000000000000000fde8, 0x, 0x)",
        "(463459070287415267, 0)",
        "0x1804c8AB1F12E6bbf3894d4083f33e07309d1f38"
      ],
      "transaction": {
        "from": "0x0ece75f3c36f7df2136dac7633165dbff53de3cd",
        "to": "0x5e6671ef689b2b2d4391a766b0486e5054136546",
        "gas": "0x61cc8",
        "value": "0x66e8991a46a07e3",
        "input": "0xc7c7f5b30000000000000000000000000000000000000000000000000000000000000080000000000000000000000000000000000000000000000000066e8991a46a07e300000000000000000000000000000000000000000000000000000000000000000000000000000000000000001804c8ab1f12e6bbf3894d4083f33e07309d1f3800000000000000000000000000000000000000000000000000000000000075e80000000000000000000000000ece75f3c36f7df2136dac7633165dbff53de3cd00000000000000000000000000000000000000000000000000000000000f424000000000000000000000000000000000000000000000000000000000000f424000000000000000000000000000000000000000000000000000000000000000e00000000000000000000000000000000000000000000000000000000000000120000000000000000000000000000000000000000000000000000000000000014000000000000000000000000000000000000000000000000000000000000000160003010011010000000000000000000000000000fde80000000000000000000000000000000000000000000000000000000000000000000000000000000000000000000000000000000000000000000000000000000000000000000000000000",
        "nonce": "0x82",
        "chainId": "0x2019"
      },
      "additionalContracts": [],
      "isFixedGasLimit": false
    }
  ],
  "receipts": [
    {
      "status": "0x1",
      "cumulativeGasUsed": "0x79f76",
      "logs": [
        {
          "address": "0xceb5c8903060197e46ab5ea5087b9f99cbc8da49",
          "topics": [
            "0x8c5be1e5ebec7d5bd14f71427d1e84f3dd0314c0f7b2291e5b200ac8c7c3b925",
            "0x0000000000000000000000000ece75f3c36f7df2136dac7633165dbff53de3cd",
            "0x0000000000000000000000005e6671ef689b2b2d4391a766b0486e5054136546"
          ],
          "data": "0x00000000000000000000000000000000000000000000000000000000000f4240",
          "blockHash": "0xf5544e4ef19af28d9710d0c58fa513187e0ec83016dc335e74ed0598eb37163a",
          "blockNumber": "0xbad0bf5",
          "transactionHash": "0x5cac2e393504399ab24dfb742739c1cdacd770564c0a335192a351346c0ee574",
          "transactionIndex": "0x13",
          "logIndex": "0x13",
          "removed": false
        }
      ],
      "logsBloom": "0x00000000000000000000020000000000000000000000000000020000000000000000000000000000000000000000000000000000000000000000000000200000000000000000000000000000000000000000000000000000000000000000000000000000000000000000000000000000000000000000200000000000000000000020000000000800000000000000000000000000000000000000000000000010020000000000000000000800000000000000000000000000000000000000000000000000000000000000000000000000000000000000000000000000000000000010000000200000000000000000000000000000004000000000000000000000",
      "type": "0x2",
      "transactionHash": "0x5cac2e393504399ab24dfb742739c1cdacd770564c0a335192a351346c0ee574",
      "transactionIndex": "0x13",
      "blockHash": "0xf5544e4ef19af28d9710d0c58fa513187e0ec83016dc335e74ed0598eb37163a",
      "blockNumber": "0xbad0bf5",
      "gasUsed": "0xb72c",
      "effectiveGasPrice": "0x66720b300",
      "from": "0x0ece75f3c36f7df2136dac7633165dbff53de3cd",
      "to": "0xceb5c8903060197e46ab5ea5087b9f99cbc8da49",
      "contractAddress": null
    },
    {
      "status": "0x1",
      "cumulativeGasUsed": "0x808e6",
      "logs": [
        {
          "address": "0xceb5c8903060197e46ab5ea5087b9f99cbc8da49",
          "topics": [
            "0x8c5be1e5ebec7d5bd14f71427d1e84f3dd0314c0f7b2291e5b200ac8c7c3b925",
            "0x0000000000000000000000000ece75f3c36f7df2136dac7633165dbff53de3cd",
            "0x0000000000000000000000007c9cf703903680ae5eb6ec2bb2bebb1ec751918a"
          ],
          "data": "0x00000000000000000000000000000000000000000000000000000000000f4240",
          "blockHash": "0xf5544e4ef19af28d9710d0c58fa513187e0ec83016dc335e74ed0598eb37163a",
          "blockNumber": "0xbad0bf5",
          "transactionHash": "0x4d4b1a6135aefd3298faaaa0fae40377c91c8461e0ede0c144a1b8d6643c4115",
          "transactionIndex": "0x14",
          "logIndex": "0x14",
          "removed": false
        }
      ],
      "logsBloom": "0x00000000000000000000000000000000000000000000000000000000000000000000000000000000000000000000000000000000000000000000000000200000000000000000000000000000000000000000000000000000000400000000000000000000000000000000000000000000000000000000200000004000000000000000000000000800000000000000000000000200000000000000000000000010020000000000000000000800000000000000000000000000000000000000000000000000000000000000000000000000000000000000000000000000000000000010000000200000000000000000000000000000004000000000000000000000",
      "type": "0x2",
      "transactionHash": "0x4d4b1a6135aefd3298faaaa0fae40377c91c8461e0ede0c144a1b8d6643c4115",
      "transactionIndex": "0x14",
      "blockHash": "0xf5544e4ef19af28d9710d0c58fa513187e0ec83016dc335e74ed0598eb37163a",
      "blockNumber": "0xbad0bf5",
      "gasUsed": "0x6970",
      "effectiveGasPrice": "0x66720b300",
      "from": "0x0ece75f3c36f7df2136dac7633165dbff53de3cd",
      "to": "0xceb5c8903060197e46ab5ea5087b9f99cbc8da49",
      "contractAddress": null
    },
    {
      "status": "0x1",
      "cumulativeGasUsed": "0xc75c6",
      "logs": [
        {
          "address": "0xceb5c8903060197e46ab5ea5087b9f99cbc8da49",
          "topics": [
            "0xddf252ad1be2c89b69c2b068fc378daa952ba7f163c4a11628f55a4df523b3ef",
            "0x0000000000000000000000000ece75f3c36f7df2136dac7633165dbff53de3cd",
            "0x0000000000000000000000005e6671ef689b2b2d4391a766b0486e5054136546"
          ],
          "data": "0x00000000000000000000000000000000000000000000000000000000000f4240",
          "blockHash": "0xf5544e4ef19af28d9710d0c58fa513187e0ec83016dc335e74ed0598eb37163a",
          "blockNumber": "0xbad0bf5",
          "transactionHash": "0xb6fb8e4f5a21050c294eace9549869b5cb27a298f31a5e1fa897917983f97a93",
          "transactionIndex": "0x15",
          "logIndex": "0x15",
          "removed": false
        },
        {
          "address": "0x9714ccf1dedef14bab5013625db92746c1358cb4",
          "topics": [
            "0x61ed099e74a97a1d7f8bb0952a88ca8b7b8ebd00c126ea04671f92a81213318a"
          ],
          "data": "0x000000000000000000000000e149187a987f129fd3d397ed04a60b0b89d1669f000000000000000000000000000000000000000000000000057fd1e0389d3bca",
          "blockHash": "0xf5544e4ef19af28d9710d0c58fa513187e0ec83016dc335e74ed0598eb37163a",
          "blockNumber": "0xbad0bf5",
          "transactionHash": "0xb6fb8e4f5a21050c294eace9549869b5cb27a298f31a5e1fa897917983f97a93",
          "transactionIndex": "0x15",
          "logIndex": "0x16",
          "removed": false
        },
        {
          "address": "0x9714ccf1dedef14bab5013625db92746c1358cb4",
          "topics": [
            "0x07ea52d82345d6e838192107d8fd7123d9c2ec8e916cd0aad13fd2b60db24644"
          ],
          "data": "0x000000000000000000000000000000000000000000000000000000000000006000000000000000000000000000000000000000000000000000000000000000c000000000000000000000000000000000000000000000000000000000000000e000000000000000000000000000000000000000000000000000000000000000020000000000000000000000001154d04d07aee26ff2c200bd373eb76a7e5694d6000000000000000000000000acde1f22eeab249d3ca6ba8805c8fee9f52a16e70000000000000000000000000000000000000000000000000000000000000000000000000000000000000000000000000000000000000000000000000000000200000000000000000000000000000000000000000000000000791fd076229b27000000000000000000000000000000000000000000000000007597e0f5aa30f2",
          "blockHash": "0xf5544e4ef19af28d9710d0c58fa513187e0ec83016dc335e74ed0598eb37163a",
          "blockNumber": "0xbad0bf5",
          "transactionHash": "0xb6fb8e4f5a21050c294eace9549869b5cb27a298f31a5e1fa897917983f97a93",
          "transactionIndex": "0x15",
          "logIndex": "0x17",
          "removed": false
        },
        {
          "address": "0x1a44076050125825900e736c501f859c50fe728c",
          "topics": [
            "0x1ab700d4ced0c005b164c0f789fd09fcbb0156d4c2041b8a3bfbcd961cd1567f"
          ],
          "data": "0x000000000000000000000000000000000000000000000000000000000000006000000000000000000000000000000000000000000000000000000000000001200000000000000000000000009714ccf1dedef14bab5013625db92746c1358cb40000000000000000000000000000000000000000000000000000000000000099010000000000000001000075c60000000000000000000000005e6671ef689b2b2d4391a766b0486e5054136546000075e8000000000000000000000000560bd1836c348c4a10eed7008e68ae58228dd117ad5b579df4e6d8731e73d17539affa2b13e3ff0f02265a112e552e5dbad236740000000000000000000000000ece75f3c36f7df2136dac7633165dbff53de3cd00000000000f424000000000000000000000000000000000000000000000000000000000000000000000000000002a00030100110100000000000000000000000000013880010011010000000000000000000000000000fde800000000000000000000000000000000000000000000",
          "blockHash": "0xf5544e4ef19af28d9710d0c58fa513187e0ec83016dc335e74ed0598eb37163a",
          "blockNumber": "0xbad0bf5",
          "transactionHash": "0xb6fb8e4f5a21050c294eace9549869b5cb27a298f31a5e1fa897917983f97a93",
          "transactionIndex": "0x15",
          "logIndex": "0x18",
          "removed": false
        },
        {
          "address": "0x5e6671ef689b2b2d4391a766b0486e5054136546",
          "topics": [
            "0x85496b760a4b7f8d66384b9df21b381f5d1b1e79f229a47aaf4c232edc2fe59a",
            "0xad5b579df4e6d8731e73d17539affa2b13e3ff0f02265a112e552e5dbad23674",
            "0x0000000000000000000000000ece75f3c36f7df2136dac7633165dbff53de3cd"
          ],
          "data": "0x00000000000000000000000000000000000000000000000000000000000075e800000000000000000000000000000000000000000000000000000000000f424000000000000000000000000000000000000000000000000000000000000f4240",
          "blockHash": "0xf5544e4ef19af28d9710d0c58fa513187e0ec83016dc335e74ed0598eb37163a",
          "blockNumber": "0xbad0bf5",
          "transactionHash": "0xb6fb8e4f5a21050c294eace9549869b5cb27a298f31a5e1fa897917983f97a93",
          "transactionIndex": "0x15",
          "logIndex": "0x19",
          "removed": false
        }
      ],
      "logsBloom": "0x0008000000000000000002000000000000000000000000000002000000100000000000000000000000000000000000000000000000000000000000000000000000000200000000000000000800000002000000000000000000000000000000000000000000000000800000000000000000000000001020000000001000000004002000000000080000000008000000100000000000000000002000000000021000000000800000000012080000000000000000000040000000044000000000000000000600000000000000008000000000000000000000000000000000000000000004000020000000000000100000200000000001c000000000000000000000",
      "type": "0x2",
      "transactionHash": "0xb6fb8e4f5a21050c294eace9549869b5cb27a298f31a5e1fa897917983f97a93",
      "transactionIndex": "0x15",
      "blockHash": "0xf5544e4ef19af28d9710d0c58fa513187e0ec83016dc335e74ed0598eb37163a",
      "blockNumber": "0xbad0bf5",
      "gasUsed": "0x46ce0",
      "effectiveGasPrice": "0x66720b300",
      "from": "0x0ece75f3c36f7df2136dac7633165dbff53de3cd",
      "to": "0x5e6671ef689b2b2d4391a766b0486e5054136546",
      "contractAddress": null
    }
  ],
  "libraries": [],
  "pending": [],
  "returns": {},
  "timestamp": 1757955494299,
  "chain": 8217,
  "commit": "dc758c0"
}