{
  "transactions": [
    {
      "hash": "0x183aff9edf85cbc4d1f262cae966f5d4b88c63d6d61156058f81cfa1c5a9941d",
      "transactionType": "CALL",
      "contractName": null,
      "contractAddress": "0xceb5c8903060197e46ab5ea5087b9f99cbc8da49",
      "function": "approve(address,uint256)",
      "arguments": [
        "0x5e6671ef689B2B2D4391a766B0486E5054136546",
        "1000000"
      ],
      "transaction": {
        "from": "0x0ece75f3c36f7df2136dac7633165dbff53de3cd",
        "to": "0xceb5c8903060197e46ab5ea5087b9f99cbc8da49",
        "gas": "0xfd00",
        "value": "0x0",
        "input": "0x095ea7b30000000000000000000000005e6671ef689b2b2d4391a766b0486e505413654600000000000000000000000000000000000000000000000000000000000f4240",
        "nonce": "0x79",
        "chainId": "0x2019"
      },
      "additionalContracts": [],
      "isFixedGasLimit": false
    },
    {
      "hash": "0x2781f1d59ba44cefba2326bf18f07ba22b271d052f3ea1d36113652c8bf1db29",
      "transactionType": "CALL",
      "contractName": null,
      "contractAddress": "0xceb5c8903060197e46ab5ea5087b9f99cbc8da49",
      "function": "approve(address,uint256)",
      "arguments": [
        "0x7c9cF703903680ae5EB6ec2Bb2BEbb1ec751918A",
        "1000000"
      ],
      "transaction": {
        "from": "0x0ece75f3c36f7df2136dac7633165dbff53de3cd",
        "to": "0xceb5c8903060197e46ab5ea5087b9f99cbc8da49",
        "gas": "0xfd00",
        "value": "0x0",
        "input": "0x095ea7b30000000000000000000000007c9cf703903680ae5eb6ec2bb2bebb1ec751918a00000000000000000000000000000000000000000000000000000000000f4240",
        "nonce": "0x7a",
        "chainId": "0x2019"
      },
      "additionalContracts": [],
      "isFixedGasLimit": false
    },
    {
      "hash": "0x68b9d93551b98ec7b2018bf6fb436b5d6a3db0dbe5da4c6b5af484b453888434",
      "transactionType": "CALL",
      "contractName": null,
      "contractAddress": "0x5e6671ef689b2b2d4391a766b0486e5054136546",
      "function": "send((uint32,bytes32,uint256,uint256,bytes,bytes,bytes),(uint256,uint256),address)",
      "arguments": [
        "(30184, 0x0000000000000000000000000ece75f3c36f7df2136dac7633165dbff53de3cd, 1000000, 1000000, 0x0003010011010000000000000000000000000000fde8, 0x, 0x)",
        "(466925582580600416, 0)",
        "0x1804c8AB1F12E6bbf3894d4083f33e07309d1f38"
      ],
      "transaction": {
        "from": "0x0ece75f3c36f7df2136dac7633165dbff53de3cd",
        "to": "0x5e6671ef689b2b2d4391a766b0486e5054136546",
        "gas": "0x5c084",
        "value": "0x67ada57ee424e60",
        "input": "0xc7c7f5b30000000000000000000000000000000000000000000000000000000000000080000000000000000000000000000000000000000000000000067ada57ee424e6000000000000000000000000000000000000000000000000000000000000000000000000000000000000000001804c8ab1f12e6bbf3894d4083f33e07309d1f3800000000000000000000000000000000000000000000000000000000000075e80000000000000000000000000ece75f3c36f7df2136dac7633165dbff53de3cd00000000000000000000000000000000000000000000000000000000000f424000000000000000000000000000000000000000000000000000000000000f424000000000000000000000000000000000000000000000000000000000000000e00000000000000000000000000000000000000000000000000000000000000120000000000000000000000000000000000000000000000000000000000000014000000000000000000000000000000000000000000000000000000000000000160003010011010000000000000000000000000000fde80000000000000000000000000000000000000000000000000000000000000000000000000000000000000000000000000000000000000000000000000000000000000000000000000000",
        "nonce": "0x7b",
        "chainId": "0x2019"
      },
      "additionalContracts": [],
      "isFixedGasLimit": false
    }
  ],
  "receipts": [
    {
      "status": "0x1",
      "cumulativeGasUsed": "0x3f6f74",
      "logs": [
        {
          "address": "0xceb5c8903060197e46ab5ea5087b9f99cbc8da49",
          "topics": [
            "0x8c5be1e5ebec7d5bd14f71427d1e84f3dd0314c0f7b2291e5b200ac8c7c3b925",
            "0x0000000000000000000000000ece75f3c36f7df2136dac7633165dbff53de3cd",
            "0x0000000000000000000000005e6671ef689b2b2d4391a766b0486e5054136546"
          ],
          "data": "0x00000000000000000000000000000000000000000000000000000000000f4240",
          "blockHash": "0x64189b5ca5873c1583ff1d4bd5e4ea25871c7c623a0101d76d3ac0a071a43688",
          "blockNumber": "0xbad05b5",
          "transactionHash": "0x183aff9edf85cbc4d1f262cae966f5d4b88c63d6d61156058f81cfa1c5a9941d",
          "transactionIndex": "0x6",
          "logIndex": "0x36",
          "removed": false
        }
      ],
      "logsBloom": "0x00000000000000000000020000000000000000000000000000020000000000000000000000000000000000000000000000000000000000000000000000200000000000000000000000000000000000000000000000000000000000000000000000000000000000000000000000000000000000000000200000000000000000000020000000000800000000000000000000000000000000000000000000000010020000000000000000000800000000000000000000000000000000000000000000000000000000000000000000000000000000000000000000000000000000000010000000200000000000000000000000000000004000000000000000000000",
      "type": "0x2",
      "transactionHash": "0x183aff9edf85cbc4d1f262cae966f5d4b88c63d6d61156058f81cfa1c5a9941d",
      "transactionIndex": "0x6",
      "blockHash": "0x64189b5ca5873c1583ff1d4bd5e4ea25871c7c623a0101d76d3ac0a071a43688",
      "blockNumber": "0xbad05b5",
      "gasUsed": "0xb72c",
      "effectiveGasPrice": "0x66720b300",
      "from": "0x0ece75f3c36f7df2136dac7633165dbff53de3cd",
      "to": "0xceb5c8903060197e46ab5ea5087b9f99cbc8da49",
      "contractAddress": null
    },
    {
      "status": "0x1",
      "cumulativeGasUsed": "0x4026a0",
      "logs": [
        {
          "address": "0xceb5c8903060197e46ab5ea5087b9f99cbc8da49",
          "topics": [
            "0x8c5be1e5ebec7d5bd14f71427d1e84f3dd0314c0f7b2291e5b200ac8c7c3b925",
            "0x0000000000000000000000000ece75f3c36f7df2136dac7633165dbff53de3cd",
            "0x0000000000000000000000007c9cf703903680ae5eb6ec2bb2bebb1ec751918a"
          ],
          "data": "0x00000000000000000000000000000000000000000000000000000000000f4240",
          "blockHash": "0x64189b5ca5873c1583ff1d4bd5e4ea25871c7c623a0101d76d3ac0a071a43688",
          "blockNumber": "0xbad05b5",
          "transactionHash": "0x2781f1d59ba44cefba2326bf18f07ba22b271d052f3ea1d36113652c8bf1db29",
          "transactionIndex": "0x7",
          "logIndex": "0x37",
          "removed": false
        }
      ],
      "logsBloom": "0x00000000000000000000000000000000000000000000000000000000000000000000000000000000000000000000000000000000000000000000000000200000000000000000000000000000000000000000000000000000000400000000000000000000000000000000000000000000000000000000200000004000000000000000000000000800000000000000000000000200000000000000000000000010020000000000000000000800000000000000000000000000000000000000000000000000000000000000000000000000000000000000000000000000000000000010000000200000000000000000000000000000004000000000000000000000",
      "type": "0x2",
      "transactionHash": "0x2781f1d59ba44cefba2326bf18f07ba22b271d052f3ea1d36113652c8bf1db29",
      "transactionIndex": "0x7",
      "blockHash": "0x64189b5ca5873c1583ff1d4bd5e4ea25871c7c623a0101d76d3ac0a071a43688",
      "blockNumber": "0xbad05b5",
      "gasUsed": "0xb72c",
      "effectiveGasPrice": "0x66720b300",
      "from": "0x0ece75f3c36f7df2136dac7633165dbff53de3cd",
      "to": "0xceb5c8903060197e46ab5ea5087b9f99cbc8da49",
      "contractAddress": null
    },
    {
      "status": "0x1",
      "cumulativeGasUsed": "0x4450b4",
      "logs": [
        {
          "address": "0xceb5c8903060197e46ab5ea5087b9f99cbc8da49",
          "topics": [
            "0xddf252ad1be2c89b69c2b068fc378daa952ba7f163c4a11628f55a4df523b3ef",
            "0x0000000000000000000000000ece75f3c36f7df2136dac7633165dbff53de3cd",
            "0x0000000000000000000000005e6671ef689b2b2d4391a766b0486e5054136546"
          ],
          "data": "0x00000000000000000000000000000000000000000000000000000000000f4240",
          "blockHash": "0x64189b5ca5873c1583ff1d4bd5e4ea25871c7c623a0101d76d3ac0a071a43688",
          "blockNumber": "0xbad05b5",
          "transactionHash": "0x68b9d93551b98ec7b2018bf6fb436b5d6a3db0dbe5da4c6b5af484b453888434",
          "transactionIndex": "0x8",
          "logIndex": "0x38",
          "removed": false
        },
        {
          "address": "0x9714ccf1dedef14bab5013625db92746c1358cb4",
          "topics": [
            "0x61ed099e74a97a1d7f8bb0952a88ca8b7b8ebd00c126ea04671f92a81213318a"
          ],
          "data": "0x000000000000000000000000e149187a987f129fd3d397ed04a60b0b89d1669f00000000000000000000000000000000000000000000000005864cd01e322a85",
          "blockHash": "0x64189b5ca5873c1583ff1d4bd5e4ea25871c7c623a0101d76d3ac0a071a43688",
          "blockNumber": "0xbad05b5",
          "transactionHash": "0x68b9d93551b98ec7b2018bf6fb436b5d6a3db0dbe5da4c6b5af484b453888434",
          "transactionIndex": "0x8",
          "logIndex": "0x39",
          "removed": false
        },
        {
          "address": "0x9714ccf1dedef14bab5013625db92746c1358cb4",
          "topics": [
            "0x07ea52d82345d6e838192107d8fd7123d9c2ec8e916cd0aad13fd2b60db24644"
          ],
          "data": "0x000000000000000000000000000000000000000000000000000000000000006000000000000000000000000000000000000000000000000000000000000000c000000000000000000000000000000000000000000000000000000000000000e000000000000000000000000000000000000000000000000000000000000000020000000000000000000000001154d04d07aee26ff2c200bd373eb76a7e5694d6000000000000000000000000acde1f22eeab249d3ca6ba8805c8fee9f52a16e700000000000000000000000000000000000000000000000000000000000000000000000000000000000000000000000000000000000000000000000000000002000000000000000000000000000000000000000000000000007c15c7f6ba964d000000000000000000000000000000000000000000000000007877bfd9558d8e",
          "blockHash": "0x64189b5ca5873c1583ff1d4bd5e4ea25871c7c623a0101d76d3ac0a071a43688",
          "blockNumber": "0xbad05b5",
          "transactionHash": "0x68b9d93551b98ec7b2018bf6fb436b5d6a3db0dbe5da4c6b5af484b453888434",
          "transactionIndex": "0x8",
          "logIndex": "0x3a",
          "removed": false
        },
        {
          "address": "0x1a44076050125825900e736c501f859c50fe728c",
          "topics": [
            "0x1ab700d4ced0c005b164c0f789fd09fcbb0156d4c2041b8a3bfbcd961cd1567f"
          ],
          "data": "0x000000000000000000000000000000000000000000000000000000000000006000000000000000000000000000000000000000000000000000000000000001200000000000000000000000009714ccf1dedef14bab5013625db92746c1358cb40000000000000000000000000000000000000000000000000000000000000099010000000000000004000075c60000000000000000000000005e6671ef689b2b2d4391a766b0486e5054136546000075e80000000000000000000000005e6aad48fb0a23e9540a5eaffb87846e8ef04c424241d11c2fc08bda75c560a31dce8767d2f2114b6645929e1a9b8aab58b4bc9e0000000000000000000000000ece75f3c36f7df2136dac7633165dbff53de3cd00000000000f424000000000000000000000000000000000000000000000000000000000000000000000000000002a00030100110100000000000000000000000000013880010011010000000000000000000000000000fde800000000000000000000000000000000000000000000",
          "blockHash": "0x64189b5ca5873c1583ff1d4bd5e4ea25871c7c623a0101d76d3ac0a071a43688",
          "blockNumber": "0xbad05b5",
          "transactionHash": "0x68b9d93551b98ec7b2018bf6fb436b5d6a3db0dbe5da4c6b5af484b453888434",
          "transactionIndex": "0x8",
          "logIndex": "0x3b",
          "removed": false
        },
        {
          "address": "0x5e6671ef689b2b2d4391a766b0486e5054136546",
          "topics": [
            "0x85496b760a4b7f8d66384b9df21b381f5d1b1e79f229a47aaf4c232edc2fe59a",
            "0x4241d11c2fc08bda75c560a31dce8767d2f2114b6645929e1a9b8aab58b4bc9e",
            "0x0000000000000000000000000ece75f3c36f7df2136dac7633165dbff53de3cd"
          ],
          "data": "0x00000000000000000000000000000000000000000000000000000000000075e800000000000000000000000000000000000000000000000000000000000f424000000000000000000000000000000000000000000000000000000000000f4240",
          "blockHash": "0x64189b5ca5873c1583ff1d4bd5e4ea25871c7c623a0101d76d3ac0a071a43688",
          "blockNumber": "0xbad05b5",
          "transactionHash": "0x68b9d93551b98ec7b2018bf6fb436b5d6a3db0dbe5da4c6b5af484b453888434",
          "transactionIndex": "0x8",
          "logIndex": "0x3c",
          "removed": false
        }
      ],
      "logsBloom": "0x0008000000010000000002000000000000000000000000000002000000100000000000000000000000000000000000000000000000000000000000000000000000000200000000000000000800000002000000000000000000000000000000000000000000000000800000000000000000000000001020000000001000000004002000000000080000000008000000100000000000000000000000000000001000000000800000000012080000000000000000100040000000044000000000000000000600000000000000008000000000000000000000000000000000000000000004000020000000000000000020200000000001c000000000000000000000",
      "type": "0x2",
      "transactionHash": "0x68b9d93551b98ec7b2018bf6fb436b5d6a3db0dbe5da4c6b5af484b453888434",
      "transactionIndex": "0x8",
      "blockHash": "0x64189b5ca5873c1583ff1d4bd5e4ea25871c7c623a0101d76d3ac0a071a43688",
      "blockNumber": "0xbad05b5",
      "gasUsed": "0x42a14",
      "effectiveGasPrice": "0x66720b300",
      "from": "0x0ece75f3c36f7df2136dac7633165dbff53de3cd",
      "to": "0x5e6671ef689b2b2d4391a766b0486e5054136546",
      "contractAddress": null
    }
  ],
  "libraries": [],
  "pending": [],
  "returns": {},
  "timestamp": 1757953880277,
  "chain": 8217,
  "commit": "dc758c0"
}