{
  "transactions": [
    {
      "hash": "0xcbeb899949ac7e41000070557d43e1548a765d75f61dc12a0f152c09ce5418ad",
      "transactionType": "CALL",
      "contractName": null,
      "contractAddress": "0xceb5c8903060197e46ab5ea5087b9f99cbc8da49",
      "function": "approve(address,uint256)",
      "arguments": [
        "0x5e6671ef689B2B2D4391a766B0486E5054136546",
        "1000000"
      ],
      "transaction": {
        "from": "0x0ece75f3c36f7df2136dac7633165dbff53de3cd",
        "to": "0xceb5c8903060197e46ab5ea5087b9f99cbc8da49",
        "gas": "0xfd00",
        "value": "0x0",
        "input": "0x095ea7b30000000000000000000000005e6671ef689b2b2d4391a766b0486e505413654600000000000000000000000000000000000000000000000000000000000f4240",
        "nonce": "0x85",
        "chainId": "0x2019"
      },
      "additionalContracts": [],
      "isFixedGasLimit": false
    },
    {
      "hash": "0x0fadc878575ea992064fd57a742b6974e6150e1a6bc5b897445f7179f57ea364",
      "transactionType": "CALL",
      "contractName": null,
      "contractAddress": "0xceb5c8903060197e46ab5ea5087b9f99cbc8da49",
      "function": "approve(address,uint256)",
      "arguments": [
        "0x7c9cF703903680ae5EB6ec2Bb2BEbb1ec751918A",
        "1000000"
      ],
      "transaction": {
        "from": "0x0ece75f3c36f7df2136dac7633165dbff53de3cd",
        "to": "0xceb5c8903060197e46ab5ea5087b9f99cbc8da49",
        "gas": "0x91a2",
        "value": "0x0",
        "input": "0x095ea7b30000000000000000000000007c9cf703903680ae5eb6ec2bb2bebb1ec751918a00000000000000000000000000000000000000000000000000000000000f4240",
        "nonce": "0x86",
        "chainId": "0x2019"
      },
      "additionalContracts": [],
      "isFixedGasLimit": false
    },
    {
      "hash": "0xbfcfc13880aef15dd99fa5a250bb77393ca5fb76fec017a1dbfe7fa814a8c391",
      "transactionType": "CALL",
      "contractName": null,
      "contractAddress": "0x5e6671ef689b2b2d4391a766b0486e5054136546",
      "function": "send((uint32,bytes32,uint256,uint256,bytes,bytes,bytes),(uint256,uint256),address)",
      "arguments": [
        "(30184, 0x0000000000000000000000000ece75f3c36f7df2136dac7633165dbff53de3cd, 1000000, 1000000, 0x0003010011010000000000000000000000000000fde8, 0x, 0x)",
        "(412369388109217967, 0)",
        "0x1804c8AB1F12E6bbf3894d4083f33e07309d1f38"
      ],
      "transaction": {
        "from": "0x0ece75f3c36f7df2136dac7633165dbff53de3cd",
        "to": "0x5e6671ef689b2b2d4391a766b0486e5054136546",
        "gas": "0x5c084",
        "value": "0x5b907c60e7ec0af",
        "input": "0xc7c7f5b3000000000000000000000000000000000000000000000000000000000000008000000000000000000000000000000000000000000000000005b907c60e7ec0af00000000000000000000000000000000000000000000000000000000000000000000000000000000000000001804c8ab1f12e6bbf3894d4083f33e07309d1f3800000000000000000000000000000000000000000000000000000000000075e80000000000000000000000000ece75f3c36f7df2136dac7633165dbff53de3cd00000000000000000000000000000000000000000000000000000000000f424000000000000000000000000000000000000000000000000000000000000f424000000000000000000000000000000000000000000000000000000000000000e00000000000000000000000000000000000000000000000000000000000000120000000000000000000000000000000000000000000000000000000000000014000000000000000000000000000000000000000000000000000000000000000160003010011010000000000000000000000000000fde80000000000000000000000000000000000000000000000000000000000000000000000000000000000000000000000000000000000000000000000000000000000000000000000000000",
        "nonce": "0x87",
        "chainId": "0x2019"
      },
      "additionalContracts": [],
      "isFixedGasLimit": false
    }
  ],
  "receipts": [
    {
      "status": "0x1",
      "cumulativeGasUsed": "0x27a31b",
      "logs": [
        {
          "address": "0xceb5c8903060197e46ab5ea5087b9f99cbc8da49",
          "topics": [
            "0x8c5be1e5ebec7d5bd14f71427d1e84f3dd0314c0f7b2291e5b200ac8c7c3b925",
            "0x0000000000000000000000000ece75f3c36f7df2136dac7633165dbff53de3cd",
            "0x0000000000000000000000005e6671ef689b2b2d4391a766b0486e5054136546"
          ],
          "data": "0x00000000000000000000000000000000000000000000000000000000000f4240",
          "blockHash": "0x883129c3f28a9632411a6201ad63fed24aa00a27db49ad2f8421f839ad4a49b8",
          "blockNumber": "0xbad0ff0",
          "transactionHash": "0xcbeb899949ac7e41000070557d43e1548a765d75f61dc12a0f152c09ce5418ad",
          "transactionIndex": "0x3",
          "logIndex": "0x1f",
          "removed": false
        }
      ],
      "logsBloom": "0x00000000000000000000020000000000000000000000000000020000000000000000000000000000000000000000000000000000000000000000000000200000000000000000000000000000000000000000000000000000000000000000000000000000000000000000000000000000000000000000200000000000000000000020000000000800000000000000000000000000000000000000000000000010020000000000000000000800000000000000000000000000000000000000000000000000000000000000000000000000000000000000000000000000000000000010000000200000000000000000000000000000004000000000000000000000",
      "type": "0x2",
      "transactionHash": "0xcbeb899949ac7e41000070557d43e1548a765d75f61dc12a0f152c09ce5418ad",
      "transactionIndex": "0x3",
      "blockHash": "0x883129c3f28a9632411a6201ad63fed24aa00a27db49ad2f8421f839ad4a49b8",
      "blockNumber": "0xbad0ff0",
      "gasUsed": "0xb72c",
      "effectiveGasPrice": "0x66720b300",
      "from": "0x0ece75f3c36f7df2136dac7633165dbff53de3cd",
      "to": "0xceb5c8903060197e46ab5ea5087b9f99cbc8da49",
      "contractAddress": null
    },
    {
      "status": "0x1",
      "cumulativeGasUsed": "0x280c8b",
      "logs": [
        {
          "address": "0xceb5c8903060197e46ab5ea5087b9f99cbc8da49",
          "topics": [
            "0x8c5be1e5ebec7d5bd14f71427d1e84f3dd0314c0f7b2291e5b200ac8c7c3b925",
            "0x0000000000000000000000000ece75f3c36f7df2136dac7633165dbff53de3cd",
            "0x0000000000000000000000007c9cf703903680ae5eb6ec2bb2bebb1ec751918a"
          ],
          "data": "0x00000000000000000000000000000000000000000000000000000000000f4240",
          "blockHash": "0x883129c3f28a9632411a6201ad63fed24aa00a27db49ad2f8421f839ad4a49b8",
          "blockNumber": "0xbad0ff0",
          "transactionHash": "0x0fadc878575ea992064fd57a742b6974e6150e1a6bc5b897445f7179f57ea364",
          "transactionIndex": "0x4",
          "logIndex": "0x20",
          "removed": false
        }
      ],
      "logsBloom": "0x00000000000000000000000000000000000000000000000000000000000000000000000000000000000000000000000000000000000000000000000000200000000000000000000000000000000000000000000000000000000400000000000000000000000000000000000000000000000000000000200000004000000000000000000000000800000000000000000000000200000000000000000000000010020000000000000000000800000000000000000000000000000000000000000000000000000000000000000000000000000000000000000000000000000000000010000000200000000000000000000000000000004000000000000000000000",
      "type": "0x2",
      "transactionHash": "0x0fadc878575ea992064fd57a742b6974e6150e1a6bc5b897445f7179f57ea364",
      "transactionIndex": "0x4",
      "blockHash": "0x883129c3f28a9632411a6201ad63fed24aa00a27db49ad2f8421f839ad4a49b8",
      "blockNumber": "0xbad0ff0",
      "gasUsed": "0x6970",
      "effectiveGasPrice": "0x66720b300",
      "from": "0x0ece75f3c36f7df2136dac7633165dbff53de3cd",
      "to": "0xceb5c8903060197e46ab5ea5087b9f99cbc8da49",
      "contractAddress": null
    },
    {
      "status": "0x1",
      "cumulativeGasUsed": "0x2c369f",
      "logs": [
        {
          "address": "0xceb5c8903060197e46ab5ea5087b9f99cbc8da49",
          "topics": [
            "0xddf252ad1be2c89b69c2b068fc378daa952ba7f163c4a11628f55a4df523b3ef",
            "0x0000000000000000000000000ece75f3c36f7df2136dac7633165dbff53de3cd",
            "0x0000000000000000000000005e6671ef689b2b2d4391a766b0486e5054136546"
          ],
          "data": "0x00000000000000000000000000000000000000000000000000000000000f4240",
          "blockHash": "0x883129c3f28a9632411a6201ad63fed24aa00a27db49ad2f8421f839ad4a49b8",
          "blockNumber": "0xbad0ff0",
          "transactionHash": "0xbfcfc13880aef15dd99fa5a250bb77393ca5fb76fec017a1dbfe7fa814a8c391",
          "transactionIndex": "0x5",
          "logIndex": "0x21",
          "removed": false
        },
        {
          "address": "0x9714ccf1dedef14bab5013625db92746c1358cb4",
          "topics": [
            "0x61ed099e74a97a1d7f8bb0952a88ca8b7b8ebd00c126ea04671f92a81213318a"
          ],
          "data": "0x000000000000000000000000e149187a987f129fd3d397ed04a60b0b89d1669f0000000000000000000000000000000000000000000000000520505a8e28cbbd",
          "blockHash": "0x883129c3f28a9632411a6201ad63fed24aa00a27db49ad2f8421f839ad4a49b8",
          "blockNumber": "0xbad0ff0",
          "transactionHash": "0xbfcfc13880aef15dd99fa5a250bb77393ca5fb76fec017a1dbfe7fa814a8c391",
          "transactionIndex": "0x5",
          "logIndex": "0x22",
          "removed": false
        },
        {
          "address": "0x9714ccf1dedef14bab5013625db92746c1358cb4",
          "topics": [
            "0x07ea52d82345d6e838192107d8fd7123d9c2ec8e916cd0aad13fd2b60db24644"
          ],
          "data": "0x000000000000000000000000000000000000000000000000000000000000006000000000000000000000000000000000000000000000000000000000000000c000000000000000000000000000000000000000000000000000000000000000e000000000000000000000000000000000000000000000000000000000000000020000000000000000000000001154d04d07aee26ff2c200bd373eb76a7e5694d6000000000000000000000000acde1f22eeab249d3ca6ba8805c8fee9f52a16e700000000000000000000000000000000000000000000000000000000000000000000000000000000000000000000000000000000000000000000000000000002000000000000000000000000000000000000000000000000004d7cd9bcdb6895000000000000000000000000000000000000000000000000004b3a91c37a8c5d",
          "blockHash": "0x883129c3f28a9632411a6201ad63fed24aa00a27db49ad2f8421f839ad4a49b8",
          "blockNumber": "0xbad0ff0",
          "transactionHash": "0xbfcfc13880aef15dd99fa5a250bb77393ca5fb76fec017a1dbfe7fa814a8c391",
          "transactionIndex": "0x5",
          "logIndex": "0x23",
          "removed": false
        },
        {
          "address": "0x1a44076050125825900e736c501f859c50fe728c",
          "topics": [
            "0x1ab700d4ced0c005b164c0f789fd09fcbb0156d4c2041b8a3bfbcd961cd1567f"
          ],
          "data": "0x000000000000000000000000000000000000000000000000000000000000006000000000000000000000000000000000000000000000000000000000000001200000000000000000000000009714ccf1dedef14bab5013625db92746c1358cb40000000000000000000000000000000000000000000000000000000000000099010000000000000002000075c60000000000000000000000005e6671ef689b2b2d4391a766b0486e5054136546000075e8000000000000000000000000560bd1836c348c4a10eed7008e68ae58228dd117198ee80eee3edc7ce9c4f52e73f115e1008b8af39a3347ec8193d20e2153a67a0000000000000000000000000ece75f3c36f7df2136dac7633165dbff53de3cd00000000000f424000000000000000000000000000000000000000000000000000000000000000000000000000002a00030100110100000000000000000000000000013880010011010000000000000000000000000000fde800000000000000000000000000000000000000000000",
          "blockHash": "0x883129c3f28a9632411a6201ad63fed24aa00a27db49ad2f8421f839ad4a49b8",
          "blockNumber": "0xbad0ff0",
          "transactionHash": "0xbfcfc13880aef15dd99fa5a250bb77393ca5fb76fec017a1dbfe7fa814a8c391",
          "transactionIndex": "0x5",
          "logIndex": "0x24",
          "removed": false
        },
        {
          "address": "0x5e6671ef689b2b2d4391a766b0486e5054136546",
          "topics": [
            "0x85496b760a4b7f8d66384b9df21b381f5d1b1e79f229a47aaf4c232edc2fe59a",
            "0x198ee80eee3edc7ce9c4f52e73f115e1008b8af39a3347ec8193d20e2153a67a",
            "0x0000000000000000000000000ece75f3c36f7df2136dac7633165dbff53de3cd"
          ],
          "data": "0x00000000000000000000000000000000000000000000000000000000000075e800000000000000000000000000000000000000000000000000000000000f424000000000000000000000000000000000000000000000000000000000000f4240",
          "blockHash": "0x883129c3f28a9632411a6201ad63fed24aa00a27db49ad2f8421f839ad4a49b8",
          "blockNumber": "0xbad0ff0",
          "transactionHash": "0xbfcfc13880aef15dd99fa5a250bb77393ca5fb76fec017a1dbfe7fa814a8c391",
          "transactionIndex": "0x5",
          "logIndex": "0x25",
          "removed": false
        }
      ],
      "logsBloom": "0x0008000000000000000002000000000000000000000000000002000000100000000000000000000000000000000000000000000000000000000000000000000000000200040000000000000800000002000000000000000000000000000000000000000000000000800000000000000000000000001020000000001000000004002000000000080000000008000000100000000000000000000000000000001000000000800000000012080000000000000000000040000000044000000000000000000600000000000000008000000000000000000000000000000000000000000004000020020000000000000000200000000001c000100000000000000000",
      "type": "0x2",
      "transactionHash": "0xbfcfc13880aef15dd99fa5a250bb77393ca5fb76fec017a1dbfe7fa814a8c391",
      "transactionIndex": "0x5",
      "blockHash": "0x883129c3f28a9632411a6201ad63fed24aa00a27db49ad2f8421f839ad4a49b8",
      "blockNumber": "0xbad0ff0",
      "gasUsed": "0x42a14",
      "effectiveGasPrice": "0x66720b300",
      "from": "0x0ece75f3c36f7df2136dac7633165dbff53de3cd",
      "to": "0x5e6671ef689b2b2d4391a766b0486e5054136546",
      "contractAddress": null
    }
  ],
  "libraries": [],
  "pending": [],
  "returns": {},
  "timestamp": 1757956517893,
  "chain": 8217,
  "commit": "62bb711"
}