{
  "transactions": [
    {
      "hash": "0xab08bbbd900230b585bd9badd46cffa584de682581be12d2d0ca41a6f59b1c96",
      "transactionType": "CALL",
      "contractName": null,
      "contractAddress": "0x1a44076050125825900e736c501f859c50fe728c",
      "function": "setSendLibrary(address,uint32,address)",
      "arguments": [
        "0xAd063B1915Bf95fB32f79138c0B668F232676333",
        "30150",
        "0xB5320B0B3a13cC860893E2Bd79FCd7e13484Dda2"
      ],
      "transaction": {
        "from": "0x0ece75f3c36f7df2136dac7633165dbff53de3cd",
        "to": "0x1a44076050125825900e736c501f859c50fe728c",
        "gas": "0x1378b",
        "value": "0x0",
        "input": "0x9535ff30000000000000000000000000ad063b1915bf95fb32f79138c0b668f23267633300000000000000000000000000000000000000000000000000000000000075c6000000000000000000000000b5320b0b3a13cc860893e2bd79fcd7e13484dda2",
        "nonce": "0xeb",
        "chainId": "0x2105"
      },
      "additionalContracts": [],
      "isFixedGasLimit": false
    },
    {
      "hash": "0xf8a98f10816c7146a613469a59d05e6bf518e6d1f0e763a8a502bd0341923d2e",
      "transactionType": "CALL",
      "contractName": null,
      "contractAddress": "0x1a44076050125825900e736c501f859c50fe728c",
      "function": "setSendLibrary(address,uint32,address)",
      "arguments": [
        "0xB83E44F1D59Bd8743AE45816ACd5622fA1a5624D",
        "30150",
        "0xB5320B0B3a13cC860893E2Bd79FCd7e13484Dda2"
      ],
      "transaction": {
        "from": "0x0ece75f3c36f7df2136dac7633165dbff53de3cd",
        "to": "0x1a44076050125825900e736c501f859c50fe728c",
        "gas": "0x1378b",
        "value": "0x0",
        "input": "0x9535ff30000000000000000000000000b83e44f1d59bd8743ae45816acd5622fa1a5624d00000000000000000000000000000000000000000000000000000000000075c6000000000000000000000000b5320b0b3a13cc860893e2bd79fcd7e13484dda2",
        "nonce": "0xec",
        "chainId": "0x2105"
      },
      "additionalContracts": [],
      "isFixedGasLimit": false
    },
    {
      "hash": "0x85f7f88e17e1d461d94117448724effe531052093ca98842c36cdd2a4e789470",
      "transactionType": "CALL",
      "contractName": null,
      "contractAddress": "0x1a44076050125825900e736c501f859c50fe728c",
      "function": "setSendLibrary(address,uint32,address)",
      "arguments": [
        "0x1EffDCF81A95398920e024BB3b9ff60CE14590e7",
        "30150",
        "0xB5320B0B3a13cC860893E2Bd79FCd7e13484Dda2"
      ],
      "transaction": {
        "from": "0x0ece75f3c36f7df2136dac7633165dbff53de3cd",
        "to": "0x1a44076050125825900e736c501f859c50fe728c",
        "gas": "0x1378b",
        "value": "0x0",
        "input": "0x9535ff300000000000000000000000001effdcf81a95398920e024bb3b9ff60ce14590e700000000000000000000000000000000000000000000000000000000000075c6000000000000000000000000b5320b0b3a13cc860893e2bd79fcd7e13484dda2",
        "nonce": "0xed",
        "chainId": "0x2105"
      },
      "additionalContracts": [],
      "isFixedGasLimit": false
    },
    {
      "hash": "0x15d604c01dd31d3cb9dfd17940cf3ca3528cc131f35daa18ba7d860c89894110",
      "transactionType": "CALL",
      "contractName": null,
      "contractAddress": "0x1a44076050125825900e736c501f859c50fe728c",
      "function": "setSendLibrary(address,uint32,address)",
      "arguments": [
        "0x6C71b7bbDE382f12165D5f7749B5fD37965B1E8a",
        "30150",
        "0xB5320B0B3a13cC860893E2Bd79FCd7e13484Dda2"
      ],
      "transaction": {
        "from": "0x0ece75f3c36f7df2136dac7633165dbff53de3cd",
        "to": "0x1a44076050125825900e736c501f859c50fe728c",
        "gas": "0x1378b",
        "value": "0x0",
        "input": "0x9535ff300000000000000000000000006c71b7bbde382f12165d5f7749b5fd37965b1e8a00000000000000000000000000000000000000000000000000000000000075c6000000000000000000000000b5320b0b3a13cc860893e2bd79fcd7e13484dda2",
        "nonce": "0xee",
        "chainId": "0x2105"
      },
      "additionalContracts": [],
      "isFixedGasLimit": false
    },
    {
      "hash": "0x84aa5376474243103c5ff17f2a34cd191aa0b52f779ef20364f3ffd368fb8dd4",
      "transactionType": "CALL",
      "contractName": null,
      "contractAddress": "0x1a44076050125825900e736c501f859c50fe728c",
      "function": "setReceiveLibrary(address,uint32,address,uint256)",
      "arguments": [
        "0xAd063B1915Bf95fB32f79138c0B668F232676333",
        "30184",
        "0xc70AB6f32772f59fBfc23889Caf4Ba3376C84bAf",
        "0"
      ],
      "transaction": {
        "from": "0x0ece75f3c36f7df2136dac7633165dbff53de3cd",
        "to": "0x1a44076050125825900e736c501f859c50fe728c",
        "gas": "0x17001",
        "value": "0x0",
        "input": "0x6a14d715000000000000000000000000ad063b1915bf95fb32f79138c0b668f23267633300000000000000000000000000000000000000000000000000000000000075e8000000000000000000000000c70ab6f32772f59fbfc23889caf4ba3376c84baf0000000000000000000000000000000000000000000000000000000000000000",
        "nonce": "0xef",
        "chainId": "0x2105"
      },
      "additionalContracts": [],
      "isFixedGasLimit": false
    },
    {
      "hash": "0x7715c71b9df9b3f230c0b2ca9bfdf1bdd17604d4144bc4ca4362629a7bf0138d",
      "transactionType": "CALL",
      "contractName": null,
      "contractAddress": "0x1a44076050125825900e736c501f859c50fe728c",
      "function": "setReceiveLibrary(address,uint32,address,uint256)",
      "arguments": [
        "0xB83E44F1D59Bd8743AE45816ACd5622fA1a5624D",
        "30184",
        "0xc70AB6f32772f59fBfc23889Caf4Ba3376C84bAf",
        "0"
      ],
      "transaction": {
        "from": "0x0ece75f3c36f7df2136dac7633165dbff53de3cd",
        "to": "0x1a44076050125825900e736c501f859c50fe728c",
        "gas": "0x17001",
        "value": "0x0",
        "input": "0x6a14d715000000000000000000000000b83e44f1d59bd8743ae45816acd5622fa1a5624d00000000000000000000000000000000000000000000000000000000000075e8000000000000000000000000c70ab6f32772f59fbfc23889caf4ba3376c84baf0000000000000000000000000000000000000000000000000000000000000000",
        "nonce": "0xf0",
        "chainId": "0x2105"
      },
      "additionalContracts": [],
      "isFixedGasLimit": false
    },
    {
      "hash": "0x8264b81c40f1b0c237bb75d78534b26bb0f87c7860d8f1e235bb6077bd7f6cdd",
      "transactionType": "CALL",
      "contractName": null,
      "contractAddress": "0x1a44076050125825900e736c501f859c50fe728c",
      "function": "setReceiveLibrary(address,uint32,address,uint256)",
      "arguments": [
        "0x1EffDCF81A95398920e024BB3b9ff60CE14590e7",
        "30184",
        "0xc70AB6f32772f59fBfc23889Caf4Ba3376C84bAf",
        "0"
      ],
      "transaction": {
        "from": "0x0ece75f3c36f7df2136dac7633165dbff53de3cd",
        "to": "0x1a44076050125825900e736c501f859c50fe728c",
        "gas": "0x17001",
        "value": "0x0",
        "input": "0x6a14d7150000000000000000000000001effdcf81a95398920e024bb3b9ff60ce14590e700000000000000000000000000000000000000000000000000000000000075e8000000000000000000000000c70ab6f32772f59fbfc23889caf4ba3376c84baf0000000000000000000000000000000000000000000000000000000000000000",
        "nonce": "0xf1",
        "chainId": "0x2105"
      },
      "additionalContracts": [],
      "isFixedGasLimit": false
    },
    {
      "hash": "0x3290f546b1f2d7aeb395d8f5e2d6ab5d6d5629dd5f3f110433d513a70de3599c",
      "transactionType": "CALL",
      "contractName": null,
      "contractAddress": "0x1a44076050125825900e736c501f859c50fe728c",
      "function": "setReceiveLibrary(address,uint32,address,uint256)",
      "arguments": [
        "0x6C71b7bbDE382f12165D5f7749B5fD37965B1E8a",
        "30184",
        "0xc70AB6f32772f59fBfc23889Caf4Ba3376C84bAf",
        "0"
      ],
      "transaction": {
        "from": "0x0ece75f3c36f7df2136dac7633165dbff53de3cd",
        "to": "0x1a44076050125825900e736c501f859c50fe728c",
        "gas": "0x17001",
        "value": "0x0",
        "input": "0x6a14d7150000000000000000000000006c71b7bbde382f12165d5f7749b5fd37965b1e8a00000000000000000000000000000000000000000000000000000000000075e8000000000000000000000000c70ab6f32772f59fbfc23889caf4ba3376c84baf0000000000000000000000000000000000000000000000000000000000000000",
        "nonce": "0xf2",
        "chainId": "0x2105"
      },
      "additionalContracts": [],
      "isFixedGasLimit": false
    }
  ],
  "receipts": [
    {
      "status": "0x1",
      "cumulativeGasUsed": "0x652f2e",
      "logs": [
        {
          "address": "0x1a44076050125825900e736c501f859c50fe728c",
          "topics": [
            "0x4cff966ebee29a156dcb34cf72c1d06231fb1777f6bdf6e8089819232f002b1c"
          ],
          "data": "0x000000000000000000000000ad063b1915bf95fb32f79138c0b668f23267633300000000000000000000000000000000000000000000000000000000000075c6000000000000000000000000b5320b0b3a13cc860893e2bd79fcd7e13484dda2",
          "blockHash": "0xd314c354671f9aa54e295700de38e4a21d6352a994dd2f68b530f0d153b435c4",
          "blockNumber": "0x220f3b5",
          "blockTimestamp": "0x68cc444d",
          "transactionHash": "0xab08bbbd900230b585bd9badd46cffa584de682581be12d2d0ca41a6f59b1c96",
          "transactionIndex": "0x2f",
          "logIndex": "0x48",
          "removed": false
        }
      ],
      "logsBloom": "0x00000000000000000000000000000000000200000000000000000000001000000000000000000000000000000000000000000000000000000000000001000000000000000000000000000000000000000000000000000000000000000000000000000000000000000000000000000000000000000010000000000000000000000000000000000000000000000000000000000000000000000000000000000000000000000000000000000000000000000000000000000000000000000000000000000000000000000000000000000000000000000000000000000000000000000040000000000000000000000000000000000000010000000000000000000000",
      "type": "0x2",
      "transactionHash": "0xab08bbbd900230b585bd9badd46cffa584de682581be12d2d0ca41a6f59b1c96",
      "transactionIndex": "0x2f",
      "blockHash": "0xd314c354671f9aa54e295700de38e4a21d6352a994dd2f68b530f0d153b435c4",
      "blockNumber": "0x220f3b5",
      "gasUsed": "0xe18e",
      "effectiveGasPrice": "0x5aa2dc",
      "from": "0x0ece75f3c36f7df2136dac7633165dbff53de3cd",
      "to": "0x1a44076050125825900e736c501f859c50fe728c",
      "contractAddress": null,
      "l1BaseFeeScalar": "0x8dd",
      "l1BlobBaseFee": "0x1",
      "l1BlobBaseFeeScalar": "0x101c12",
      "l1Fee": "0x263d970dd",
      "l1GasPrice": "0x9e879002",
      "l1GasUsed": "0x6a4"
    },
    {
      "status": "0x1",
      "cumulativeGasUsed": "0x6610bc",
      "logs": [
        {
          "address": "0x1a44076050125825900e736c501f859c50fe728c",
          "topics": [
            "0x4cff966ebee29a156dcb34cf72c1d06231fb1777f6bdf6e8089819232f002b1c"
          ],
          "data": "0x000000000000000000000000b83e44f1d59bd8743ae45816acd5622fa1a5624d00000000000000000000000000000000000000000000000000000000000075c6000000000000000000000000b5320b0b3a13cc860893e2bd79fcd7e13484dda2",
          "blockHash": "0xd314c354671f9aa54e295700de38e4a21d6352a994dd2f68b530f0d153b435c4",
          "blockNumber": "0x220f3b5",
          "blockTimestamp": "0x68cc444d",
          "transactionHash": "0xf8a98f10816c7146a613469a59d05e6bf518e6d1f0e763a8a502bd0341923d2e",
          "transactionIndex": "0x30",
          "logIndex": "0x49",
          "removed": false
        }
      ],
      "logsBloom": "0x00000000000000000000000000000000000200000000000000000000001000000000000000000000000000000000000000000000000000000000000001000000000000000000000000000000000000000000000000000000000000000000000000000000000000000000000000000000000000000010000000000000000000000000000000000000000000000000000000000000000000000000000000000000000000000000000000000000000000000000000000000000000000000000000000000000000000000000000000000000000000000000000000000000000000000040000000000000000000000000000000000000010000000000000000000000",
      "type": "0x2",
      "transactionHash": "0xf8a98f10816c7146a613469a59d05e6bf518e6d1f0e763a8a502bd0341923d2e",
      "transactionIndex": "0x30",
      "blockHash": "0xd314c354671f9aa54e295700de38e4a21d6352a994dd2f68b530f0d153b435c4",
      "blockNumber": "0x220f3b5",
      "gasUsed": "0xe18e",
      "effectiveGasPrice": "0x5aa2dc",
      "from": "0x0ece75f3c36f7df2136dac7633165dbff53de3cd",
      "to": "0x1a44076050125825900e736c501f859c50fe728c",
      "contractAddress": null,
      "l1BaseFeeScalar": "0x8dd",
      "l1BlobBaseFee": "0x1",
      "l1BlobBaseFeeScalar": "0x101c12",
      "l1Fee": "0x263d970dd",
      "l1GasPrice": "0x9e879002",
      "l1GasUsed": "0x6a4"
    },
    {
      "status": "0x1",
      "cumulativeGasUsed": "0x66f24a",
      "logs": [
        {
          "address": "0x1a44076050125825900e736c501f859c50fe728c",
          "topics": [
            "0x4cff966ebee29a156dcb34cf72c1d06231fb1777f6bdf6e8089819232f002b1c"
          ],
          "data": "0x0000000000000000000000001effdcf81a95398920e024bb3b9ff60ce14590e700000000000000000000000000000000000000000000000000000000000075c6000000000000000000000000b5320b0b3a13cc860893e2bd79fcd7e13484dda2",
          "blockHash": "0xd314c354671f9aa54e295700de38e4a21d6352a994dd2f68b530f0d153b435c4",
          "blockNumber": "0x220f3b5",
          "blockTimestamp": "0x68cc444d",
          "transactionHash": "0x85f7f88e17e1d461d94117448724effe531052093ca98842c36cdd2a4e789470",
          "transactionIndex": "0x31",
          "logIndex": "0x4a",
          "removed": false
        }
      ],
      "logsBloom": "0x00000000000000000000000000000000000200000000000000000000001000000000000000000000000000000000000000000000000000000000000001000000000000000000000000000000000000000000000000000000000000000000000000000000000000000000000000000000000000000010000000000000000000000000000000000000000000000000000000000000000000000000000000000000000000000000000000000000000000000000000000000000000000000000000000000000000000000000000000000000000000000000000000000000000000000040000000000000000000000000000000000000010000000000000000000000",
      "type": "0x2",
      "transactionHash": "0x85f7f88e17e1d461d94117448724effe531052093ca98842c36cdd2a4e789470",
      "transactionIndex": "0x31",
      "blockHash": "0xd314c354671f9aa54e295700de38e4a21d6352a994dd2f68b530f0d153b435c4",
      "blockNumber": "0x220f3b5",
      "gasUsed": "0xe18e",
      "effectiveGasPrice": "0x5aa2dc",
      "from": "0x0ece75f3c36f7df2136dac7633165dbff53de3cd",
      "to": "0x1a44076050125825900e736c501f859c50fe728c",
      "contractAddress": null,
      "l1BaseFeeScalar": "0x8dd",
      "l1BlobBaseFee": "0x1",
      "l1BlobBaseFeeScalar": "0x101c12",
      "l1Fee": "0x263d970dd",
      "l1GasPrice": "0x9e879002",
      "l1GasUsed": "0x6a4"
    },
    {
      "status": "0x1",
      "cumulativeGasUsed": "0x67d3d8",
      "logs": [
        {
          "address": "0x1a44076050125825900e736c501f859c50fe728c",
          "topics": [
            "0x4cff966ebee29a156dcb34cf72c1d06231fb1777f6bdf6e8089819232f002b1c"
          ],
          "data": "0x0000000000000000000000006c71b7bbde382f12165d5f7749b5fd37965b1e8a00000000000000000000000000000000000000000000000000000000000075c6000000000000000000000000b5320b0b3a13cc860893e2bd79fcd7e13484dda2",
          "blockHash": "0xd314c354671f9aa54e295700de38e4a21d6352a994dd2f68b530f0d153b435c4",
          "blockNumber": "0x220f3b5",
          "blockTimestamp": "0x68cc444d",
          "transactionHash": "0x15d604c01dd31d3cb9dfd17940cf3ca3528cc131f35daa18ba7d860c89894110",
          "transactionIndex": "0x32",
          "logIndex": "0x4b",
          "removed": false
        }
      ],
      "logsBloom": "0x00000000000000000000000000000000000200000000000000000000001000000000000000000000000000000000000000000000000000000000000001000000000000000000000000000000000000000000000000000000000000000000000000000000000000000000000000000000000000000010000000000000000000000000000000000000000000000000000000000000000000000000000000000000000000000000000000000000000000000000000000000000000000000000000000000000000000000000000000000000000000000000000000000000000000000040000000000000000000000000000000000000010000000000000000000000",
      "type": "0x2",
      "transactionHash": "0x15d604c01dd31d3cb9dfd17940cf3ca3528cc131f35daa18ba7d860c89894110",
      "transactionIndex": "0x32",
      "blockHash": "0xd314c354671f9aa54e295700de38e4a21d6352a994dd2f68b530f0d153b435c4",
      "blockNumber": "0x220f3b5",
      "gasUsed": "0xe18e",
      "effectiveGasPrice": "0x5aa2dc",
      "from": "0x0ece75f3c36f7df2136dac7633165dbff53de3cd",
      "to": "0x1a44076050125825900e736c501f859c50fe728c",
      "contractAddress": null,
      "l1BaseFeeScalar": "0x8dd",
      "l1BlobBaseFee": "0x1",
      "l1BlobBaseFeeScalar": "0x101c12",
      "l1Fee": "0x263d970dd",
      "l1GasPrice": "0x9e879002",
      "l1GasUsed": "0x6a4"
    },
    {
      "status": "0x1",
      "cumulativeGasUsed": "0x68cf79",
      "logs": [
        {
          "address": "0x1a44076050125825900e736c501f859c50fe728c",
          "topics": [
            "0xcd6f92f5ac6185a5acfa02c92090746cec64d777269cbcd0ed031e396657a1c2"
          ],
          "data": "0x000000000000000000000000ad063b1915bf95fb32f79138c0b668f23267633300000000000000000000000000000000000000000000000000000000000075e8000000000000000000000000c70ab6f32772f59fbfc23889caf4ba3376c84baf",
          "blockHash": "0xd314c354671f9aa54e295700de38e4a21d6352a994dd2f68b530f0d153b435c4",
          "blockNumber": "0x220f3b5",
          "blockTimestamp": "0x68cc444d",
          "transactionHash": "0x84aa5376474243103c5ff17f2a34cd191aa0b52f779ef20364f3ffd368fb8dd4",
          "transactionIndex": "0x33",
          "logIndex": "0x4c",
          "removed": false
        },
        {
          "address": "0x1a44076050125825900e736c501f859c50fe728c",
          "topics": [
            "0x4e0a5bbfa0c11a64effb1ada324b5437a17272e1aed9320398715ef71bb20928"
          ],
          "data": "0x000000000000000000000000ad063b1915bf95fb32f79138c0b668f23267633300000000000000000000000000000000000000000000000000000000000075e800000000000000000000000000000000000000000000000000000000000000000000000000000000000000000000000000000000000000000000000000000000",
          "blockHash": "0xd314c354671f9aa54e295700de38e4a21d6352a994dd2f68b530f0d153b435c4",
          "blockNumber": "0x220f3b5",
          "blockTimestamp": "0x68cc444d",
          "transactionHash": "0x84aa5376474243103c5ff17f2a34cd191aa0b52f779ef20364f3ffd368fb8dd4",
          "transactionIndex": "0x33",
          "logIndex": "0x4d",
          "removed": false
        }
      ],
      "logsBloom": "0x00000000000000000000020800000000000000000000000000000000001000020400000000000000000000000000000000000000000000000000000000000000000000000000000000000000000000000000000000800000000000000000000000000000000000000000000000000000000000000010000000000000000000100000000000000000000000000000000000000000000000000000000000000000000000000000000000000000000000000000000000000000000000000000000000000000000000000000000000000000000000000000000000000000000000000000000000000000000000000000000000000000010000000000000000000000",
      "type": "0x2",
      "transactionHash": "0x84aa5376474243103c5ff17f2a34cd191aa0b52f779ef20364f3ffd368fb8dd4",
      "transactionIndex": "0x33",
      "blockHash": "0xd314c354671f9aa54e295700de38e4a21d6352a994dd2f68b530f0d153b435c4",
      "blockNumber": "0x220f3b5",
      "gasUsed": "0xfba1",
      "effectiveGasPrice": "0x5aa2dc",
      "from": "0x0ece75f3c36f7df2136dac7633165dbff53de3cd",
      "to": "0x1a44076050125825900e736c501f859c50fe728c",
      "contractAddress": null,
      "l1BaseFeeScalar": "0x8dd",
      "l1BlobBaseFee": "0x1",
      "l1BlobBaseFeeScalar": "0x101c12",
      "l1Fee": "0x2858c9dd0",
      "l1GasPrice": "0x9e879002",
      "l1GasUsed": "0x702"
    },
    {
      "status": "0x1",
      "cumulativeGasUsed": "0x69cb1a",
      "logs": [
        {
          "address": "0x1a44076050125825900e736c501f859c50fe728c",
          "topics": [
            "0xcd6f92f5ac6185a5acfa02c92090746cec64d777269cbcd0ed031e396657a1c2"
          ],
          "data": "0x000000000000000000000000b83e44f1d59bd8743ae45816acd5622fa1a5624d00000000000000000000000000000000000000000000000000000000000075e8000000000000000000000000c70ab6f32772f59fbfc23889caf4ba3376c84baf",
          "blockHash": "0xd314c354671f9aa54e295700de38e4a21d6352a994dd2f68b530f0d153b435c4",
          "blockNumber": "0x220f3b5",
          "blockTimestamp": "0x68cc444d",
          "transactionHash": "0x7715c71b9df9b3f230c0b2ca9bfdf1bdd17604d4144bc4ca4362629a7bf0138d",
          "transactionIndex": "0x34",
          "logIndex": "0x4e",
          "removed": false
        },
        {
          "address": "0x1a44076050125825900e736c501f859c50fe728c",
          "topics": [
            "0x4e0a5bbfa0c11a64effb1ada324b5437a17272e1aed9320398715ef71bb20928"
          ],
          "data": "0x000000000000000000000000b83e44f1d59bd8743ae45816acd5622fa1a5624d00000000000000000000000000000000000000000000000000000000000075e800000000000000000000000000000000000000000000000000000000000000000000000000000000000000000000000000000000000000000000000000000000",
          "blockHash": "0xd314c354671f9aa54e295700de38e4a21d6352a994dd2f68b530f0d153b435c4",
          "blockNumber": "0x220f3b5",
          "blockTimestamp": "0x68cc444d",
          "transactionHash": "0x7715c71b9df9b3f230c0b2ca9bfdf1bdd17604d4144bc4ca4362629a7bf0138d",
          "transactionIndex": "0x34",
          "logIndex": "0x4f",
          "removed": false
        }
      ],
      "logsBloom": "0x00000000000000000000020800000000000000000000000000000000001000020400000000000000000000000000000000000000000000000000000000000000000000000000000000000000000000000000000000800000000000000000000000000000000000000000000000000000000000000010000000000000000000100000000000000000000000000000000000000000000000000000000000000000000000000000000000000000000000000000000000000000000000000000000000000000000000000000000000000000000000000000000000000000000000000000000000000000000000000000000000000000010000000000000000000000",
      "type": "0x2",
      "transactionHash": "0x7715c71b9df9b3f230c0b2ca9bfdf1bdd17604d4144bc4ca4362629a7bf0138d",
      "transactionIndex": "0x34",
      "blockHash": "0xd314c354671f9aa54e295700de38e4a21d6352a994dd2f68b530f0d153b435c4",
      "blockNumber": "0x220f3b5",
      "gasUsed": "0xfba1",
      "effectiveGasPrice": "0x5aa2dc",
      "from": "0x0ece75f3c36f7df2136dac7633165dbff53de3cd",
      "to": "0x1a44076050125825900e736c501f859c50fe728c",
      "contractAddress": null,
      "l1BaseFeeScalar": "0x8dd",
      "l1BlobBaseFee": "0x1",
      "l1BlobBaseFeeScalar": "0x101c12",
      "l1Fee": "0x2858c9dd0",
      "l1GasPrice": "0x9e879002",
      "l1GasUsed": "0x702"
    },
    {
      "status": "0x1",
      "cumulativeGasUsed": "0x6ac6bb",
      "logs": [
        {
          "address": "0x1a44076050125825900e736c501f859c50fe728c",
          "topics": [
            "0xcd6f92f5ac6185a5acfa02c92090746cec64d777269cbcd0ed031e396657a1c2"
          ],
          "data": "0x0000000000000000000000001effdcf81a95398920e024bb3b9ff60ce14590e700000000000000000000000000000000000000000000000000000000000075e8000000000000000000000000c70ab6f32772f59fbfc23889caf4ba3376c84baf",
          "blockHash": "0xd314c354671f9aa54e295700de38e4a21d6352a994dd2f68b530f0d153b435c4",
          "blockNumber": "0x220f3b5",
          "blockTimestamp": "0x68cc444d",
          "transactionHash": "0x8264b81c40f1b0c237bb75d78534b26bb0f87c7860d8f1e235bb6077bd7f6cdd",
          "transactionIndex": "0x35",
          "logIndex": "0x50",
          "removed": false
        },
        {
          "address": "0x1a44076050125825900e736c501f859c50fe728c",
          "topics": [
            "0x4e0a5bbfa0c11a64effb1ada324b5437a17272e1aed9320398715ef71bb20928"
          ],
          "data": "0x0000000000000000000000001effdcf81a95398920e024bb3b9ff60ce14590e700000000000000000000000000000000000000000000000000000000000075e800000000000000000000000000000000000000000000000000000000000000000000000000000000000000000000000000000000000000000000000000000000",
          "blockHash": "0xd314c354671f9aa54e295700de38e4a21d6352a994dd2f68b530f0d153b435c4",
          "blockNumber": "0x220f3b5",
          "blockTimestamp": "0x68cc444d",
          "transactionHash": "0x8264b81c40f1b0c237bb75d78534b26bb0f87c7860d8f1e235bb6077bd7f6cdd",
          "transactionIndex": "0x35",
          "logIndex": "0x51",
          "removed": false
        }
      ],
      "logsBloom": "0x00000000000000000000020800000000000000000000000000000000001000020400000000000000000000000000000000000000000000000000000000000000000000000000000000000000000000000000000000800000000000000000000000000000000000000000000000000000000000000010000000000000000000100000000000000000000000000000000000000000000000000000000000000000000000000000000000000000000000000000000000000000000000000000000000000000000000000000000000000000000000000000000000000000000000000000000000000000000000000000000000000000010000000000000000000000",
      "type": "0x2",
      "transactionHash": "0x8264b81c40f1b0c237bb75d78534b26bb0f87c7860d8f1e235bb6077bd7f6cdd",
      "transactionIndex": "0x35",
      "blockHash": "0xd314c354671f9aa54e295700de38e4a21d6352a994dd2f68b530f0d153b435c4",
      "blockNumber": "0x220f3b5",
      "gasUsed": "0xfba1",
      "effectiveGasPrice": "0x5aa2dc",
      "from": "0x0ece75f3c36f7df2136dac7633165dbff53de3cd",
      "to": "0x1a44076050125825900e736c501f859c50fe728c",
      "contractAddress": null,
      "l1BaseFeeScalar": "0x8dd",
      "l1BlobBaseFee": "0x1",
      "l1BlobBaseFeeScalar": "0x101c12",
      "l1Fee": "0x2858c9dd0",
      "l1GasPrice": "0x9e879002",
      "l1GasUsed": "0x702"
    },
    {
      "status": "0x1",
      "cumulativeGasUsed": "0x1564070",
      "logs": [
        {
          "address": "0x1a44076050125825900e736c501f859c50fe728c",
          "topics": [
            "0xcd6f92f5ac6185a5acfa02c92090746cec64d777269cbcd0ed031e396657a1c2"
          ],
          "data": "0x0000000000000000000000006c71b7bbde382f12165d5f7749b5fd37965b1e8a00000000000000000000000000000000000000000000000000000000000075e8000000000000000000000000c70ab6f32772f59fbfc23889caf4ba3376c84baf",
          "blockHash": "0xe4420e5a06fe9d0872d28d1961964af1aefb688da7870b8137aba3216c4a6759",
          "blockNumber": "0x220f3b5",
          "blockTimestamp": "0x68cc444d",
          "transactionHash": "0x3290f546b1f2d7aeb395d8f5e2d6ab5d6d5629dd5f3f110433d513a70de3599c",
          "transactionIndex": "0x73",
          "logIndex": "0x15d",
          "removed": false
        },
        {
          "address": "0x1a44076050125825900e736c501f859c50fe728c",
          "topics": [
            "0x4e0a5bbfa0c11a64effb1ada324b5437a17272e1aed9320398715ef71bb20928"
          ],
          "data": "0x0000000000000000000000006c71b7bbde382f12165d5f7749b5fd37965b1e8a00000000000000000000000000000000000000000000000000000000000075e800000000000000000000000000000000000000000000000000000000000000000000000000000000000000000000000000000000000000000000000000000000",
          "blockHash": "0xe4420e5a06fe9d0872d28d1961964af1aefb688da7870b8137aba3216c4a6759",
          "blockNumber": "0x220f3b5",
          "blockTimestamp": "0x68cc444d",
          "transactionHash": "0x3290f546b1f2d7aeb395d8f5e2d6ab5d6d5629dd5f3f110433d513a70de3599c",
          "transactionIndex": "0x73",
          "logIndex": "0x15e",
          "removed": false
        }
      ],
      "logsBloom": "0x00000000000000000000020800000000000000000000000000000000001000020400000000000000000000000000000000000000000000000000000000000000000000000000000000000000000000000000000000800000000000000000000000000000000000000000000000000000000000000010000000000000000000100000000000000000000000000000000000000000000000000000000000000000000000000000000000000000000000000000000000000000000000000000000000000000000000000000000000000000000000000000000000000000000000000000000000000000000000000000000000000000010000000000000000000000",
      "type": "0x2",
      "transactionHash": "0x3290f546b1f2d7aeb395d8f5e2d6ab5d6d5629dd5f3f110433d513a70de3599c",
      "transactionIndex": "0x73",
      "blockHash": "0xe4420e5a06fe9d0872d28d1961964af1aefb688da7870b8137aba3216c4a6759",
      "blockNumber": "0x220f3b5",
      "gasUsed": "0xfba1",
      "effectiveGasPrice": "0x5aa2dc",
      "from": "0x0ece75f3c36f7df2136dac7633165dbff53de3cd",
      "to": "0x1a44076050125825900e736c501f859c50fe728c",
      "contractAddress": null,
      "l1BaseFeeScalar": "0x8dd",
      "l1BlobBaseFee": "0x1",
      "l1BlobBaseFeeScalar": "0x101c12",
      "l1Fee": "0x2858c9dd0",
      "l1GasPrice": "0x9e879002",
      "l1GasUsed": "0x702"
    }
  ],
  "libraries": [],
  "pending": [],
  "returns": {},
  "timestamp": 1758217292112,
  "chain": 8453,
  "commit": "6c82bda"
}