{
  "transactions": [
    {
      "hash": "0xb7fb3e9abc8d86db17af5c41b33e7f80c01185c9131b485e021081ea4f793194",
      "transactionType": "CALL",
      "contractName": null,
      "contractAddress": "0x1a44076050125825900e736c501f859c50fe728c",
      "function": "setSendLibrary(address,uint32,address)",
      "arguments": [
        "0x5E6AAd48fB0a23E9540A5EAFfb87846E8ef04C42",
        "30150",
        "0xB5320B0B3a13cC860893E2Bd79FCd7e13484Dda2"
      ],
      "transaction": {
        "from": "0x0ece75f3c36f7df2136dac7633165dbff53de3cd",
        "to": "0x1a44076050125825900e736c501f859c50fe728c",
        "gas": "0x1378b",
        "value": "0x0",
        "input": "0x9535ff300000000000000000000000005e6aad48fb0a23e9540a5eaffb87846e8ef04c4200000000000000000000000000000000000000000000000000000000000075c6000000000000000000000000b5320b0b3a13cc860893e2bd79fcd7e13484dda2",
        "nonce": "0x41",
        "chainId": "0x2105"
      },
      "additionalContracts": [],
      "isFixedGasLimit": false
    },
    {
      "hash": "0xe53e0908a6141128f2c900e2c77e424c0fe58dc632e76498c45c1265a4b69d3f",
      "transactionType": "CALL",
      "contractName": null,
      "contractAddress": "0x1a44076050125825900e736c501f859c50fe728c",
      "function": "setSendLibrary(address,uint32,address)",
      "arguments": [
        "0xB9B3A1baA8CF4C5Cd6b4d132eD7B0cBe05646f6f",
        "30150",
        "0xB5320B0B3a13cC860893E2Bd79FCd7e13484Dda2"
      ],
      "transaction": {
        "from": "0x0ece75f3c36f7df2136dac7633165dbff53de3cd",
        "to": "0x1a44076050125825900e736c501f859c50fe728c",
        "gas": "0x1378b",
        "value": "0x0",
        "input": "0x9535ff30000000000000000000000000b9b3a1baa8cf4c5cd6b4d132ed7b0cbe05646f6f00000000000000000000000000000000000000000000000000000000000075c6000000000000000000000000b5320b0b3a13cc860893e2bd79fcd7e13484dda2",
        "nonce": "0x42",
        "chainId": "0x2105"
      },
      "additionalContracts": [],
      "isFixedGasLimit": false
    },
    {
      "hash": "0x402e9d53283783506336264cb7dc917df0ce99fd626c305b022e497737f0219d",
      "transactionType": "CALL",
      "contractName": null,
      "contractAddress": "0x1a44076050125825900e736c501f859c50fe728c",
      "function": "setSendLibrary(address,uint32,address)",
      "arguments": [
        "0xb0FCA55167f94D0f515877C411E0deb904321761",
        "30150",
        "0xB5320B0B3a13cC860893E2Bd79FCd7e13484Dda2"
      ],
      "transaction": {
        "from": "0x0ece75f3c36f7df2136dac7633165dbff53de3cd",
        "to": "0x1a44076050125825900e736c501f859c50fe728c",
        "gas": "0x1378b",
        "value": "0x0",
        "input": "0x9535ff30000000000000000000000000b0fca55167f94d0f515877c411e0deb90432176100000000000000000000000000000000000000000000000000000000000075c6000000000000000000000000b5320b0b3a13cc860893e2bd79fcd7e13484dda2",
        "nonce": "0x43",
        "chainId": "0x2105"
      },
      "additionalContracts": [],
      "isFixedGasLimit": false
    },
    {
      "hash": "0x10c46b2af0f30223812a35cde378eb426f2909385079c137fc67f4e4b0454e8a",
      "transactionType": "CALL",
      "contractName": null,
      "contractAddress": "0x1a44076050125825900e736c501f859c50fe728c",
      "function": "setSendLibrary(address,uint32,address)",
      "arguments": [
        "0x6A58615739b0FC710E6A380E893E672968E30B5F",
        "30150",
        "0xB5320B0B3a13cC860893E2Bd79FCd7e13484Dda2"
      ],
      "transaction": {
        "from": "0x0ece75f3c36f7df2136dac7633165dbff53de3cd",
        "to": "0x1a44076050125825900e736c501f859c50fe728c",
        "gas": "0x1378b",
        "value": "0x0",
        "input": "0x9535ff300000000000000000000000006a58615739b0fc710e6a380e893e672968e30b5f00000000000000000000000000000000000000000000000000000000000075c6000000000000000000000000b5320b0b3a13cc860893e2bd79fcd7e13484dda2",
        "nonce": "0x44",
        "chainId": "0x2105"
      },
      "additionalContracts": [],
      "isFixedGasLimit": false
    },
    {
      "hash": "0x1e58f7253a6aa93afb30a892cc17c87c38d8748187bc523ca4d0cb55411957f8",
      "transactionType": "CALL",
      "contractName": null,
      "contractAddress": "0x1a44076050125825900e736c501f859c50fe728c",
      "function": "setReceiveLibrary(address,uint32,address,uint256)",
      "arguments": [
        "0x5E6AAd48fB0a23E9540A5EAFfb87846E8ef04C42",
        "30184",
        "0xc70AB6f32772f59fBfc23889Caf4Ba3376C84bAf",
        "0"
      ],
      "transaction": {
        "from": "0x0ece75f3c36f7df2136dac7633165dbff53de3cd",
        "to": "0x1a44076050125825900e736c501f859c50fe728c",
        "gas": "0x17001",
        "value": "0x0",
        "input": "0x6a14d7150000000000000000000000005e6aad48fb0a23e9540a5eaffb87846e8ef04c4200000000000000000000000000000000000000000000000000000000000075e8000000000000000000000000c70ab6f32772f59fbfc23889caf4ba3376c84baf0000000000000000000000000000000000000000000000000000000000000000",
        "nonce": "0x45",
        "chainId": "0x2105"
      },
      "additionalContracts": [],
      "isFixedGasLimit": false
    },
    {
      "hash": "0x2b301be419beb8cdcff477f2ff36019d85525a831eb91e47ef7d1b35dc11d4d5",
      "transactionType": "CALL",
      "contractName": null,
      "contractAddress": "0x1a44076050125825900e736c501f859c50fe728c",
      "function": "setReceiveLibrary(address,uint32,address,uint256)",
      "arguments": [
        "0xB9B3A1baA8CF4C5Cd6b4d132eD7B0cBe05646f6f",
        "30184",
        "0xc70AB6f32772f59fBfc23889Caf4Ba3376C84bAf",
        "0"
      ],
      "transaction": {
        "from": "0x0ece75f3c36f7df2136dac7633165dbff53de3cd",
        "to": "0x1a44076050125825900e736c501f859c50fe728c",
        "gas": "0x17001",
        "value": "0x0",
        "input": "0x6a14d715000000000000000000000000b9b3a1baa8cf4c5cd6b4d132ed7b0cbe05646f6f00000000000000000000000000000000000000000000000000000000000075e8000000000000000000000000c70ab6f32772f59fbfc23889caf4ba3376c84baf0000000000000000000000000000000000000000000000000000000000000000",
        "nonce": "0x46",
        "chainId": "0x2105"
      },
      "additionalContracts": [],
      "isFixedGasLimit": false
    },
    {
      "hash": "0xc9656ba65808d5c1a0b549d4bf93090d623b48c5ba016a809c09c2a59fd610c1",
      "transactionType": "CALL",
      "contractName": null,
      "contractAddress": "0x1a44076050125825900e736c501f859c50fe728c",
      "function": "setReceiveLibrary(address,uint32,address,uint256)",
      "arguments": [
        "0xb0FCA55167f94D0f515877C411E0deb904321761",
        "30184",
        "0xc70AB6f32772f59fBfc23889Caf4Ba3376C84bAf",
        "0"
      ],
      "transaction": {
        "from": "0x0ece75f3c36f7df2136dac7633165dbff53de3cd",
        "to": "0x1a44076050125825900e736c501f859c50fe728c",
        "gas": "0x17001",
        "value": "0x0",
        "input": "0x6a14d715000000000000000000000000b0fca55167f94d0f515877c411e0deb90432176100000000000000000000000000000000000000000000000000000000000075e8000000000000000000000000c70ab6f32772f59fbfc23889caf4ba3376c84baf0000000000000000000000000000000000000000000000000000000000000000",
        "nonce": "0x47",
        "chainId": "0x2105"
      },
      "additionalContracts": [],
      "isFixedGasLimit": false
    },
    {
      "hash": "0xc14d1931d930e8ced7b91a59f55a86400f53d0e67088fee560172433168e3ffa",
      "transactionType": "CALL",
      "contractName": null,
      "contractAddress": "0x1a44076050125825900e736c501f859c50fe728c",
      "function": "setReceiveLibrary(address,uint32,address,uint256)",
      "arguments": [
        "0x6A58615739b0FC710E6A380E893E672968E30B5F",
        "30184",
        "0xc70AB6f32772f59fBfc23889Caf4Ba3376C84bAf",
        "0"
      ],
      "transaction": {
        "from": "0x0ece75f3c36f7df2136dac7633165dbff53de3cd",
        "to": "0x1a44076050125825900e736c501f859c50fe728c",
        "gas": "0x17001",
        "value": "0x0",
        "input": "0x6a14d7150000000000000000000000006a58615739b0fc710e6a380e893e672968e30b5f00000000000000000000000000000000000000000000000000000000000075e8000000000000000000000000c70ab6f32772f59fbfc23889caf4ba3376c84baf0000000000000000000000000000000000000000000000000000000000000000",
        "nonce": "0x48",
        "chainId": "0x2105"
      },
      "additionalContracts": [],
      "isFixedGasLimit": false
    }
  ],
  "receipts": [
    {
      "status": "0x1",
      "cumulativeGasUsed": "0x1046d89",
      "logs": [
        {
          "address": "0x1a44076050125825900e736c501f859c50fe728c",
          "topics": [
            "0x4cff966ebee29a156dcb34cf72c1d06231fb1777f6bdf6e8089819232f002b1c"
          ],
          "data": "0x0000000000000000000000005e6aad48fb0a23e9540a5eaffb87846e8ef04c4200000000000000000000000000000000000000000000000000000000000075c6000000000000000000000000b5320b0b3a13cc860893e2bd79fcd7e13484dda2",
          "blockHash": "0x263f8349b9ca96202339956358d19fb9d64ad81f304542f4e34e896bb6aa12d9",
          "blockNumber": "0x21da386",
          "blockTimestamp": "0x68c5a3ef",
          "transactionHash": "0xb7fb3e9abc8d86db17af5c41b33e7f80c01185c9131b485e021081ea4f793194",
          "transactionIndex": "0x62",
          "logIndex": "0x10a",
          "removed": false
        }
      ],
      "logsBloom": "0x00000000000000000000000000000000000200000000000000000000001000000000000000000000000000000000000000000000000000000000000001000000000000000000000000000000000000000000000000000000000000000000000000000000000000000000000000000000000000000010000000000000000000000000000000000000000000000000000000000000000000000000000000000000000000000000000000000000000000000000000000000000000000000000000000000000000000000000000000000000000000000000000000000000000000000040000000000000000000000000000000000000010000000000000000000000",
      "type": "0x2",
      "transactionHash": "0xb7fb3e9abc8d86db17af5c41b33e7f80c01185c9131b485e021081ea4f793194",
      "transactionIndex": "0x62",
      "blockHash": "0x263f8349b9ca96202339956358d19fb9d64ad81f304542f4e34e896bb6aa12d9",
      "blockNumber": "0x21da386",
      "gasUsed": "0xe18e",
      "effectiveGasPrice": "0x682f8b",
      "from": "0x0ece75f3c36f7df2136dac7633165dbff53de3cd",
      "to": "0x1a44076050125825900e736c501f859c50fe728c",
      "contractAddress": null,
      "l1BaseFeeScalar": "0x8dd",
      "l1BlobBaseFee": "0x1",
      "l1BlobBaseFeeScalar": "0x101c12",
      "l1Fee": "0x43da0a1f",
      "l1GasPrice": "0x11b8407d",
      "l1GasUsed": "0x697"
    },
    {
      "status": "0x1",
      "cumulativeGasUsed": "0x1054f17",
      "logs": [
        {
          "address": "0x1a44076050125825900e736c501f859c50fe728c",
          "topics": [
            "0x4cff966ebee29a156dcb34cf72c1d06231fb1777f6bdf6e8089819232f002b1c"
          ],
          "data": "0x000000000000000000000000b9b3a1baa8cf4c5cd6b4d132ed7b0cbe05646f6f00000000000000000000000000000000000000000000000000000000000075c6000000000000000000000000b5320b0b3a13cc860893e2bd79fcd7e13484dda2",
          "blockHash": "0x263f8349b9ca96202339956358d19fb9d64ad81f304542f4e34e896bb6aa12d9",
          "blockNumber": "0x21da386",
          "blockTimestamp": "0x68c5a3ef",
          "transactionHash": "0xe53e0908a6141128f2c900e2c77e424c0fe58dc632e76498c45c1265a4b69d3f",
          "transactionIndex": "0x63",
          "logIndex": "0x10b",
          "removed": false
        }
      ],
      "logsBloom": "0x00000000000000000000000000000000000200000000000000000000001000000000000000000000000000000000000000000000000000000000000001000000000000000000000000000000000000000000000000000000000000000000000000000000000000000000000000000000000000000010000000000000000000000000000000000000000000000000000000000000000000000000000000000000000000000000000000000000000000000000000000000000000000000000000000000000000000000000000000000000000000000000000000000000000000000040000000000000000000000000000000000000010000000000000000000000",
      "type": "0x2",
      "transactionHash": "0xe53e0908a6141128f2c900e2c77e424c0fe58dc632e76498c45c1265a4b69d3f",
      "transactionIndex": "0x63",
      "blockHash": "0x263f8349b9ca96202339956358d19fb9d64ad81f304542f4e34e896bb6aa12d9",
      "blockNumber": "0x21da386",
      "gasUsed": "0xe18e",
      "effectiveGasPrice": "0x682f8b",
      "from": "0x0ece75f3c36f7df2136dac7633165dbff53de3cd",
      "to": "0x1a44076050125825900e736c501f859c50fe728c",
      "contractAddress": null,
      "l1BaseFeeScalar": "0x8dd",
      "l1BlobBaseFee": "0x1",
      "l1BlobBaseFeeScalar": "0x101c12",
      "l1Fee": "0x43da0a1f",
      "l1GasPrice": "0x11b8407d",
      "l1GasUsed": "0x697"
    },
    {
      "status": "0x1",
      "cumulativeGasUsed": "0x10630a5",
      "logs": [
        {
          "address": "0x1a44076050125825900e736c501f859c50fe728c",
          "topics": [
            "0x4cff966ebee29a156dcb34cf72c1d06231fb1777f6bdf6e8089819232f002b1c"
          ],
          "data": "0x000000000000000000000000b0fca55167f94d0f515877c411e0deb90432176100000000000000000000000000000000000000000000000000000000000075c6000000000000000000000000b5320b0b3a13cc860893e2bd79fcd7e13484dda2",
          "blockHash": "0x263f8349b9ca96202339956358d19fb9d64ad81f304542f4e34e896bb6aa12d9",
          "blockNumber": "0x21da386",
          "blockTimestamp": "0x68c5a3ef",
          "transactionHash": "0x402e9d53283783506336264cb7dc917df0ce99fd626c305b022e497737f0219d",
          "transactionIndex": "0x64",
          "logIndex": "0x10c",
          "removed": false
        }
      ],
      "logsBloom": "0x00000000000000000000000000000000000200000000000000000000001000000000000000000000000000000000000000000000000000000000000001000000000000000000000000000000000000000000000000000000000000000000000000000000000000000000000000000000000000000010000000000000000000000000000000000000000000000000000000000000000000000000000000000000000000000000000000000000000000000000000000000000000000000000000000000000000000000000000000000000000000000000000000000000000000000040000000000000000000000000000000000000010000000000000000000000",
      "type": "0x2",
      "transactionHash": "0x402e9d53283783506336264cb7dc917df0ce99fd626c305b022e497737f0219d",
      "transactionIndex": "0x64",
      "blockHash": "0x263f8349b9ca96202339956358d19fb9d64ad81f304542f4e34e896bb6aa12d9",
      "blockNumber": "0x21da386",
      "gasUsed": "0xe18e",
      "effectiveGasPrice": "0x682f8b",
      "from": "0x0ece75f3c36f7df2136dac7633165dbff53de3cd",
      "to": "0x1a44076050125825900e736c501f859c50fe728c",
      "contractAddress": null,
      "l1BaseFeeScalar": "0x8dd",
      "l1BlobBaseFee": "0x1",
      "l1BlobBaseFeeScalar": "0x101c12",
      "l1Fee": "0x43da0a1f",
      "l1GasPrice": "0x11b8407d",
      "l1GasUsed": "0x697"
    },
    {
      "status": "0x1",
      "cumulativeGasUsed": "0x1071233",
      "logs": [
        {
          "address": "0x1a44076050125825900e736c501f859c50fe728c",
          "topics": [
            "0x4cff966ebee29a156dcb34cf72c1d06231fb1777f6bdf6e8089819232f002b1c"
          ],
          "data": "0x0000000000000000000000006a58615739b0fc710e6a380e893e672968e30b5f00000000000000000000000000000000000000000000000000000000000075c6000000000000000000000000b5320b0b3a13cc860893e2bd79fcd7e13484dda2",
          "blockHash": "0x263f8349b9ca96202339956358d19fb9d64ad81f304542f4e34e896bb6aa12d9",
          "blockNumber": "0x21da386",
          "blockTimestamp": "0x68c5a3ef",
          "transactionHash": "0x10c46b2af0f30223812a35cde378eb426f2909385079c137fc67f4e4b0454e8a",
          "transactionIndex": "0x65",
          "logIndex": "0x10d",
          "removed": false
        }
      ],
      "logsBloom": "0x00000000000000000000000000000000000200000000000000000000001000000000000000000000000000000000000000000000000000000000000001000000000000000000000000000000000000000000000000000000000000000000000000000000000000000000000000000000000000000010000000000000000000000000000000000000000000000000000000000000000000000000000000000000000000000000000000000000000000000000000000000000000000000000000000000000000000000000000000000000000000000000000000000000000000000040000000000000000000000000000000000000010000000000000000000000",
      "type": "0x2",
      "transactionHash": "0x10c46b2af0f30223812a35cde378eb426f2909385079c137fc67f4e4b0454e8a",
      "transactionIndex": "0x65",
      "blockHash": "0x263f8349b9ca96202339956358d19fb9d64ad81f304542f4e34e896bb6aa12d9",
      "blockNumber": "0x21da386",
      "gasUsed": "0xe18e",
      "effectiveGasPrice": "0x682f8b",
      "from": "0x0ece75f3c36f7df2136dac7633165dbff53de3cd",
      "to": "0x1a44076050125825900e736c501f859c50fe728c",
      "contractAddress": null,
      "l1BaseFeeScalar": "0x8dd",
      "l1BlobBaseFee": "0x1",
      "l1BlobBaseFeeScalar": "0x101c12",
      "l1Fee": "0x43da0a1f",
      "l1GasPrice": "0x11b8407d",
      "l1GasUsed": "0x697"
    },
    {
      "status": "0x1",
      "cumulativeGasUsed": "0x1080dd4",
      "logs": [
        {
          "address": "0x1a44076050125825900e736c501f859c50fe728c",
          "topics": [
            "0xcd6f92f5ac6185a5acfa02c92090746cec64d777269cbcd0ed031e396657a1c2"
          ],
          "data": "0x0000000000000000000000005e6aad48fb0a23e9540a5eaffb87846e8ef04c4200000000000000000000000000000000000000000000000000000000000075e8000000000000000000000000c70ab6f32772f59fbfc23889caf4ba3376c84baf",
          "blockHash": "0x263f8349b9ca96202339956358d19fb9d64ad81f304542f4e34e896bb6aa12d9",
          "blockNumber": "0x21da386",
          "blockTimestamp": "0x68c5a3ef",
          "transactionHash": "0x1e58f7253a6aa93afb30a892cc17c87c38d8748187bc523ca4d0cb55411957f8",
          "transactionIndex": "0x66",
          "logIndex": "0x10e",
          "removed": false
        },
        {
          "address": "0x1a44076050125825900e736c501f859c50fe728c",
          "topics": [
            "0x4e0a5bbfa0c11a64effb1ada324b5437a17272e1aed9320398715ef71bb20928"
          ],
          "data": "0x0000000000000000000000005e6aad48fb0a23e9540a5eaffb87846e8ef04c4200000000000000000000000000000000000000000000000000000000000075e800000000000000000000000000000000000000000000000000000000000000000000000000000000000000000000000000000000000000000000000000000000",
          "blockHash": "0x263f8349b9ca96202339956358d19fb9d64ad81f304542f4e34e896bb6aa12d9",
          "blockNumber": "0x21da386",
          "blockTimestamp": "0x68c5a3ef",
          "transactionHash": "0x1e58f7253a6aa93afb30a892cc17c87c38d8748187bc523ca4d0cb55411957f8",
          "transactionIndex": "0x66",
          "logIndex": "0x10f",
          "removed": false
        }
      ],
      "logsBloom": "0x00000000000000000000020800000000000000000000000000000000001000020400000000000000000000000000000000000000000000000000000000000000000000000000000000000000000000000000000000800000000000000000000000000000000000000000000000000000000000000010000000000000000000100000000000000000000000000000000000000000000000000000000000000000000000000000000000000000000000000000000000000000000000000000000000000000000000000000000000000000000000000000000000000000000000000000000000000000000000000000000000000000010000000000000000000000",
      "type": "0x2",
      "transactionHash": "0x1e58f7253a6aa93afb30a892cc17c87c38d8748187bc523ca4d0cb55411957f8",
      "transactionIndex": "0x66",
      "blockHash": "0x263f8349b9ca96202339956358d19fb9d64ad81f304542f4e34e896bb6aa12d9",
      "blockNumber": "0x21da386",
      "gasUsed": "0xfba1",
      "effectiveGasPrice": "0x682f8b",
      "from": "0x0ece75f3c36f7df2136dac7633165dbff53de3cd",
      "to": "0x1a44076050125825900e736c501f859c50fe728c",
      "contractAddress": null,
      "l1BaseFeeScalar": "0x8dd",
      "l1BlobBaseFee": "0x1",
      "l1BlobBaseFeeScalar": "0x101c12",
      "l1Fee": "0x479e58ea",
      "l1GasPrice": "0x11b8407d",
      "l1GasUsed": "0x6f5"
    },
    {
      "status": "0x1",
      "cumulativeGasUsed": "0x1090975",
      "logs": [
        {
          "address": "0x1a44076050125825900e736c501f859c50fe728c",
          "topics": [
            "0xcd6f92f5ac6185a5acfa02c92090746cec64d777269cbcd0ed031e396657a1c2"
          ],
          "data": "0x000000000000000000000000b9b3a1baa8cf4c5cd6b4d132ed7b0cbe05646f6f00000000000000000000000000000000000000000000000000000000000075e8000000000000000000000000c70ab6f32772f59fbfc23889caf4ba3376c84baf",
          "blockHash": "0x263f8349b9ca96202339956358d19fb9d64ad81f304542f4e34e896bb6aa12d9",
          "blockNumber": "0x21da386",
          "blockTimestamp": "0x68c5a3ef",
          "transactionHash": "0x2b301be419beb8cdcff477f2ff36019d85525a831eb91e47ef7d1b35dc11d4d5",
          "transactionIndex": "0x67",
          "logIndex": "0x110",
          "removed": false
        },
        {
          "address": "0x1a44076050125825900e736c501f859c50fe728c",
          "topics": [
            "0x4e0a5bbfa0c11a64effb1ada324b5437a17272e1aed9320398715ef71bb20928"
          ],
          "data": "0x000000000000000000000000b9b3a1baa8cf4c5cd6b4d132ed7b0cbe05646f6f00000000000000000000000000000000000000000000000000000000000075e800000000000000000000000000000000000000000000000000000000000000000000000000000000000000000000000000000000000000000000000000000000",
          "blockHash": "0x263f8349b9ca96202339956358d19fb9d64ad81f304542f4e34e896bb6aa12d9",
          "blockNumber": "0x21da386",
          "blockTimestamp": "0x68c5a3ef",
          "transactionHash": "0x2b301be419beb8cdcff477f2ff36019d85525a831eb91e47ef7d1b35dc11d4d5",
          "transactionIndex": "0x67",
          "logIndex": "0x111",
          "removed": false
        }
      ],
      "logsBloom": "0x00000000000000000000020800000000000000000000000000000000001000020400000000000000000000000000000000000000000000000000000000000000000000000000000000000000000000000000000000800000000000000000000000000000000000000000000000000000000000000010000000000000000000100000000000000000000000000000000000000000000000000000000000000000000000000000000000000000000000000000000000000000000000000000000000000000000000000000000000000000000000000000000000000000000000000000000000000000000000000000000000000000010000000000000000000000",
      "type": "0x2",
      "transactionHash": "0x2b301be419beb8cdcff477f2ff36019d85525a831eb91e47ef7d1b35dc11d4d5",
      "transactionIndex": "0x67",
      "blockHash": "0x263f8349b9ca96202339956358d19fb9d64ad81f304542f4e34e896bb6aa12d9",
      "blockNumber": "0x21da386",
      "gasUsed": "0xfba1",
      "effectiveGasPrice": "0x682f8b",
      "from": "0x0ece75f3c36f7df2136dac7633165dbff53de3cd",
      "to": "0x1a44076050125825900e736c501f859c50fe728c",
      "contractAddress": null,
      "l1BaseFeeScalar": "0x8dd",
      "l1BlobBaseFee": "0x1",
      "l1BlobBaseFeeScalar": "0x101c12",
      "l1Fee": "0x479e58ea",
      "l1GasPrice": "0x11b8407d",
      "l1GasUsed": "0x6f5"
    },
    {
      "status": "0x1",
      "cumulativeGasUsed": "0x10a0516",
      "logs": [
        {
          "address": "0x1a44076050125825900e736c501f859c50fe728c",
          "topics": [
            "0xcd6f92f5ac6185a5acfa02c92090746cec64d777269cbcd0ed031e396657a1c2"
          ],
          "data": "0x000000000000000000000000b0fca55167f94d0f515877c411e0deb90432176100000000000000000000000000000000000000000000000000000000000075e8000000000000000000000000c70ab6f32772f59fbfc23889caf4ba3376c84baf",
          "blockHash": "0x263f8349b9ca96202339956358d19fb9d64ad81f304542f4e34e896bb6aa12d9",
          "blockNumber": "0x21da386",
          "blockTimestamp": "0x68c5a3ef",
          "transactionHash": "0xc9656ba65808d5c1a0b549d4bf93090d623b48c5ba016a809c09c2a59fd610c1",
          "transactionIndex": "0x68",
          "logIndex": "0x112",
          "removed": false
        },
        {
          "address": "0x1a44076050125825900e736c501f859c50fe728c",
          "topics": [
            "0x4e0a5bbfa0c11a64effb1ada324b5437a17272e1aed9320398715ef71bb20928"
          ],
          "data": "0x000000000000000000000000b0fca55167f94d0f515877c411e0deb90432176100000000000000000000000000000000000000000000000000000000000075e800000000000000000000000000000000000000000000000000000000000000000000000000000000000000000000000000000000000000000000000000000000",
          "blockHash": "0x263f8349b9ca96202339956358d19fb9d64ad81f304542f4e34e896bb6aa12d9",
          "blockNumber": "0x21da386",
          "blockTimestamp": "0x68c5a3ef",
          "transactionHash": "0xc9656ba65808d5c1a0b549d4bf93090d623b48c5ba016a809c09c2a59fd610c1",
          "transactionIndex": "0x68",
          "logIndex": "0x113",
          "removed": false
        }
      ],
      "logsBloom": "0x00000000000000000000020800000000000000000000000000000000001000020400000000000000000000000000000000000000000000000000000000000000000000000000000000000000000000000000000000800000000000000000000000000000000000000000000000000000000000000010000000000000000000100000000000000000000000000000000000000000000000000000000000000000000000000000000000000000000000000000000000000000000000000000000000000000000000000000000000000000000000000000000000000000000000000000000000000000000000000000000000000000010000000000000000000000",
      "type": "0x2",
      "transactionHash": "0xc9656ba65808d5c1a0b549d4bf93090d623b48c5ba016a809c09c2a59fd610c1",
      "transactionIndex": "0x68",
      "blockHash": "0x263f8349b9ca96202339956358d19fb9d64ad81f304542f4e34e896bb6aa12d9",
      "blockNumber": "0x21da386",
      "gasUsed": "0xfba1",
      "effectiveGasPrice": "0x682f8b",
      "from": "0x0ece75f3c36f7df2136dac7633165dbff53de3cd",
      "to": "0x1a44076050125825900e736c501f859c50fe728c",
      "contractAddress": null,
      "l1BaseFeeScalar": "0x8dd",
      "l1BlobBaseFee": "0x1",
      "l1BlobBaseFeeScalar": "0x101c12",
      "l1Fee": "0x479e58ea",
      "l1GasPrice": "0x11b8407d",
      "l1GasUsed": "0x6f5"
    },
    {
      "status": "0x1",
      "cumulativeGasUsed": "0x1d50092",
      "logs": [
        {
          "address": "0x1a44076050125825900e736c501f859c50fe728c",
          "topics": [
            "0xcd6f92f5ac6185a5acfa02c92090746cec64d777269cbcd0ed031e396657a1c2"
          ],
          "data": "0x0000000000000000000000006a58615739b0fc710e6a380e893e672968e30b5f00000000000000000000000000000000000000000000000000000000000075e8000000000000000000000000c70ab6f32772f59fbfc23889caf4ba3376c84baf",
          "blockHash": "0x7efbe46387ac1821ef0d8884f62827e34b68bfce91a7cf45a07dc6b7e115fa73",
          "blockNumber": "0x21da386",
          "blockTimestamp": "0x68c5a3ef",
          "transactionHash": "0xc14d1931d930e8ced7b91a59f55a86400f53d0e67088fee560172433168e3ffa",
          "transactionIndex": "0xce",
          "logIndex": "0x1e6",
          "removed": false
        },
        {
          "address": "0x1a44076050125825900e736c501f859c50fe728c",
          "topics": [
            "0x4e0a5bbfa0c11a64effb1ada324b5437a17272e1aed9320398715ef71bb20928"
          ],
          "data": "0x0000000000000000000000006a58615739b0fc710e6a380e893e672968e30b5f00000000000000000000000000000000000000000000000000000000000075e800000000000000000000000000000000000000000000000000000000000000000000000000000000000000000000000000000000000000000000000000000000",
          "blockHash": "0x7efbe46387ac1821ef0d8884f62827e34b68bfce91a7cf45a07dc6b7e115fa73",
          "blockNumber": "0x21da386",
          "blockTimestamp": "0x68c5a3ef",
          "transactionHash": "0xc14d1931d930e8ced7b91a59f55a86400f53d0e67088fee560172433168e3ffa",
          "transactionIndex": "0xce",
          "logIndex": "0x1e7",
          "removed": false
        }
      ],
      "logsBloom": "0x00000000000000000000020800000000000000000000000000000000001000020400000000000000000000000000000000000000000000000000000000000000000000000000000000000000000000000000000000800000000000000000000000000000000000000000000000000000000000000010000000000000000000100000000000000000000000000000000000000000000000000000000000000000000000000000000000000000000000000000000000000000000000000000000000000000000000000000000000000000000000000000000000000000000000000000000000000000000000000000000000000000010000000000000000000000",
      "type": "0x2",
      "transactionHash": "0xc14d1931d930e8ced7b91a59f55a86400f53d0e67088fee560172433168e3ffa",
      "transactionIndex": "0xce",
      "blockHash": "0x7efbe46387ac1821ef0d8884f62827e34b68bfce91a7cf45a07dc6b7e115fa73",
      "blockNumber": "0x21da386",
      "gasUsed": "0xfba1",
      "effectiveGasPrice": "0x682f8b",
      "from": "0x0ece75f3c36f7df2136dac7633165dbff53de3cd",
      "to": "0x1a44076050125825900e736c501f859c50fe728c",
      "contractAddress": null,
      "l1BaseFeeScalar": "0x8dd",
      "l1BlobBaseFee": "0x1",
      "l1BlobBaseFeeScalar": "0x101c12",
      "l1Fee": "0x479e58ea",
      "l1GasPrice": "0x11b8407d",
      "l1GasUsed": "0x6f5"
    }
  ],
  "libraries": [],
  "pending": [],
  "returns": {},
  "timestamp": 1757783022374,
  "chain": 8453,
  "commit": "e54a7ff"
}