{
  "transactions": [
    {
      "hash": "0xe6c11f2484d95bf43e5e5a5889a936ed1cdeb4bef381b227307493fcbeb19c84",
      "transactionType": "CALL",
      "contractName": null,
      "contractAddress": "0x1a44076050125825900e736c501f859c50fe728c",
      "function": "setSendLibrary(address,uint32,address)",
      "arguments": [
        "0x3A1353926e2c1aDA7acc93A6fBE73C1EC6B1e931",
        "30150",
        "0xB5320B0B3a13cC860893E2Bd79FCd7e13484Dda2"
      ],
      "transaction": {
        "from": "0x0ece75f3c36f7df2136dac7633165dbff53de3cd",
        "to": "0x1a44076050125825900e736c501f859c50fe728c",
        "gas": "0x1378b",
        "value": "0x0",
        "input": "0x9535ff300000000000000000000000003a1353926e2c1ada7acc93a6fbe73c1ec6b1e93100000000000000000000000000000000000000000000000000000000000075c6000000000000000000000000b5320b0b3a13cc860893e2bd79fcd7e13484dda2",
        "nonce": "0xba",
        "chainId": "0x2105"
      },
      "additionalContracts": [],
      "isFixedGasLimit": false
    },
    {
      "hash": "0x1b9e02166e5eb047e8c1718b46a7203809fb06fa218ee83a0d05a78e998e5d0a",
      "transactionType": "CALL",
      "contractName": null,
      "contractAddress": "0x1a44076050125825900e736c501f859c50fe728c",
      "function": "setSendLibrary(address,uint32,address)",
      "arguments": [
        "0xdC4Ce404c1cAA4b618847d93941d6ccA09744e1e",
        "30150",
        "0xB5320B0B3a13cC860893E2Bd79FCd7e13484Dda2"
      ],
      "transaction": {
        "from": "0x0ece75f3c36f7df2136dac7633165dbff53de3cd",
        "to": "0x1a44076050125825900e736c501f859c50fe728c",
        "gas": "0x1378b",
        "value": "0x0",
        "input": "0x9535ff30000000000000000000000000dc4ce404c1caa4b618847d93941d6cca09744e1e00000000000000000000000000000000000000000000000000000000000075c6000000000000000000000000b5320b0b3a13cc860893e2bd79fcd7e13484dda2",
        "nonce": "0xbb",
        "chainId": "0x2105"
      },
      "additionalContracts": [],
      "isFixedGasLimit": false
    },
    {
      "hash": "0x64a3e070abfc3e643e420a6a3d83eb0c64632a87bdc75e8e2f87b6b064fb6e09",
      "transactionType": "CALL",
      "contractName": null,
      "contractAddress": "0x1a44076050125825900e736c501f859c50fe728c",
      "function": "setSendLibrary(address,uint32,address)",
      "arguments": [
        "0x249A1d049ce9C68c818eB5Afc53359F547C176A4",
        "30150",
        "0xB5320B0B3a13cC860893E2Bd79FCd7e13484Dda2"
      ],
      "transaction": {
        "from": "0x0ece75f3c36f7df2136dac7633165dbff53de3cd",
        "to": "0x1a44076050125825900e736c501f859c50fe728c",
        "gas": "0x1378b",
        "value": "0x0",
        "input": "0x9535ff30000000000000000000000000249a1d049ce9c68c818eb5afc53359f547c176a400000000000000000000000000000000000000000000000000000000000075c6000000000000000000000000b5320b0b3a13cc860893e2bd79fcd7e13484dda2",
        "nonce": "0xbc",
        "chainId": "0x2105"
      },
      "additionalContracts": [],
      "isFixedGasLimit": false
    },
    {
      "hash": "0xa6d9d95daa52c9d515e4db1d00a58f225839e3ad30159359c7a8f87ecd94bff6",
      "transactionType": "CALL",
      "contractName": null,
      "contractAddress": "0x1a44076050125825900e736c501f859c50fe728c",
      "function": "setSendLibrary(address,uint32,address)",
      "arguments": [
        "0x2773280bbaEA3C70AFec358C1bA426d42d56Fc7a",
        "30150",
        "0xB5320B0B3a13cC860893E2Bd79FCd7e13484Dda2"
      ],
      "transaction": {
        "from": "0x0ece75f3c36f7df2136dac7633165dbff53de3cd",
        "to": "0x1a44076050125825900e736c501f859c50fe728c",
        "gas": "0x1378b",
        "value": "0x0",
        "input": "0x9535ff300000000000000000000000002773280bbaea3c70afec358c1ba426d42d56fc7a00000000000000000000000000000000000000000000000000000000000075c6000000000000000000000000b5320b0b3a13cc860893e2bd79fcd7e13484dda2",
        "nonce": "0xbd",
        "chainId": "0x2105"
      },
      "additionalContracts": [],
      "isFixedGasLimit": false
    },
    {
      "hash": "0x2ad0a22c14bc76e5a456336f3719f0b30f153e330d1b6cc4dc9738e419491bf1",
      "transactionType": "CALL",
      "contractName": null,
      "contractAddress": "0x1a44076050125825900e736c501f859c50fe728c",
      "function": "setReceiveLibrary(address,uint32,address,uint256)",
      "arguments": [
        "0x3A1353926e2c1aDA7acc93A6fBE73C1EC6B1e931",
        "30184",
        "0xc70AB6f32772f59fBfc23889Caf4Ba3376C84bAf",
        "0"
      ],
      "transaction": {
        "from": "0x0ece75f3c36f7df2136dac7633165dbff53de3cd",
        "to": "0x1a44076050125825900e736c501f859c50fe728c",
        "gas": "0x17001",
        "value": "0x0",
        "input": "0x6a14d7150000000000000000000000003a1353926e2c1ada7acc93a6fbe73c1ec6b1e93100000000000000000000000000000000000000000000000000000000000075e8000000000000000000000000c70ab6f32772f59fbfc23889caf4ba3376c84baf0000000000000000000000000000000000000000000000000000000000000000",
        "nonce": "0xbe",
        "chainId": "0x2105"
      },
      "additionalContracts": [],
      "isFixedGasLimit": false
    },
    {
      "hash": "0xa1d815a60c8d1c1a5249ed25c7c0caa45cb911bd47e5e7631d8587d2d9e9dd23",
      "transactionType": "CALL",
      "contractName": null,
      "contractAddress": "0x1a44076050125825900e736c501f859c50fe728c",
      "function": "setReceiveLibrary(address,uint32,address,uint256)",
      "arguments": [
        "0xdC4Ce404c1cAA4b618847d93941d6ccA09744e1e",
        "30184",
        "0xc70AB6f32772f59fBfc23889Caf4Ba3376C84bAf",
        "0"
      ],
      "transaction": {
        "from": "0x0ece75f3c36f7df2136dac7633165dbff53de3cd",
        "to": "0x1a44076050125825900e736c501f859c50fe728c",
        "gas": "0x17001",
        "value": "0x0",
        "input": "0x6a14d715000000000000000000000000dc4ce404c1caa4b618847d93941d6cca09744e1e00000000000000000000000000000000000000000000000000000000000075e8000000000000000000000000c70ab6f32772f59fbfc23889caf4ba3376c84baf0000000000000000000000000000000000000000000000000000000000000000",
        "nonce": "0xbf",
        "chainId": "0x2105"
      },
      "additionalContracts": [],
      "isFixedGasLimit": false
    },
    {
      "hash": "0xe733b53d2c541722c7232ce445974e28dbf884e4c1e60ace5f48862714039ea2",
      "transactionType": "CALL",
      "contractName": null,
      "contractAddress": "0x1a44076050125825900e736c501f859c50fe728c",
      "function": "setReceiveLibrary(address,uint32,address,uint256)",
      "arguments": [
        "0x249A1d049ce9C68c818eB5Afc53359F547C176A4",
        "30184",
        "0xc70AB6f32772f59fBfc23889Caf4Ba3376C84bAf",
        "0"
      ],
      "transaction": {
        "from": "0x0ece75f3c36f7df2136dac7633165dbff53de3cd",
        "to": "0x1a44076050125825900e736c501f859c50fe728c",
        "gas": "0x17001",
        "value": "0x0",
        "input": "0x6a14d715000000000000000000000000249a1d049ce9c68c818eb5afc53359f547c176a400000000000000000000000000000000000000000000000000000000000075e8000000000000000000000000c70ab6f32772f59fbfc23889caf4ba3376c84baf0000000000000000000000000000000000000000000000000000000000000000",
        "nonce": "0xc0",
        "chainId": "0x2105"
      },
      "additionalContracts": [],
      "isFixedGasLimit": false
    },
    {
      "hash": "0xa0c9eb97e160d0c39d7ff254ebc84ff127d2c257b56cee99aabcd93e697a3f72",
      "transactionType": "CALL",
      "contractName": null,
      "contractAddress": "0x1a44076050125825900e736c501f859c50fe728c",
      "function": "setReceiveLibrary(address,uint32,address,uint256)",
      "arguments": [
        "0x2773280bbaEA3C70AFec358C1bA426d42d56Fc7a",
        "30184",
        "0xc70AB6f32772f59fBfc23889Caf4Ba3376C84bAf",
        "0"
      ],
      "transaction": {
        "from": "0x0ece75f3c36f7df2136dac7633165dbff53de3cd",
        "to": "0x1a44076050125825900e736c501f859c50fe728c",
        "gas": "0x17001",
        "value": "0x0",
        "input": "0x6a14d7150000000000000000000000002773280bbaea3c70afec358c1ba426d42d56fc7a00000000000000000000000000000000000000000000000000000000000075e8000000000000000000000000c70ab6f32772f59fbfc23889caf4ba3376c84baf0000000000000000000000000000000000000000000000000000000000000000",
        "nonce": "0xc1",
        "chainId": "0x2105"
      },
      "additionalContracts": [],
      "isFixedGasLimit": false
    }
  ],
  "receipts": [
    {
      "status": "0x1",
      "cumulativeGasUsed": "0xb89481",
      "logs": [
        {
          "address": "0x1a44076050125825900e736c501f859c50fe728c",
          "topics": [
            "0x4cff966ebee29a156dcb34cf72c1d06231fb1777f6bdf6e8089819232f002b1c"
          ],
          "data": "0x0000000000000000000000003a1353926e2c1ada7acc93a6fbe73c1ec6b1e93100000000000000000000000000000000000000000000000000000000000075c6000000000000000000000000b5320b0b3a13cc860893e2bd79fcd7e13484dda2",
          "blockHash": "0x241cb7215e2b24b7e21a1083eb7705eecfaa421745881b3bcba2cf5c6a585772",
          "blockNumber": "0x220afbc",
          "blockTimestamp": "0x68cbbc5b",
          "transactionHash": "0xe6c11f2484d95bf43e5e5a5889a936ed1cdeb4bef381b227307493fcbeb19c84",
          "transactionIndex": "0x42",
          "logIndex": "0x1db",
          "removed": false
        }
      ],
      "logsBloom": "0x00000000000000000000000000000000000200000000000000000000001000000000000000000000000000000000000000000000000000000000000001000000000000000000000000000000000000000000000000000000000000000000000000000000000000000000000000000000000000000010000000000000000000000000000000000000000000000000000000000000000000000000000000000000000000000000000000000000000000000000000000000000000000000000000000000000000000000000000000000000000000000000000000000000000000000040000000000000000000000000000000000000010000000000000000000000",
      "type": "0x2",
      "transactionHash": "0xe6c11f2484d95bf43e5e5a5889a936ed1cdeb4bef381b227307493fcbeb19c84",
      "transactionIndex": "0x42",
      "blockHash": "0x241cb7215e2b24b7e21a1083eb7705eecfaa421745881b3bcba2cf5c6a585772",
      "blockNumber": "0x220afbc",
      "gasUsed": "0xe18e",
      "effectiveGasPrice": "0x2ee823",
      "from": "0x0ece75f3c36f7df2136dac7633165dbff53de3cd",
      "to": "0x1a44076050125825900e736c501f859c50fe728c",
      "contractAddress": null,
      "l1BaseFeeScalar": "0x8dd",
      "l1BlobBaseFee": "0x1",
      "l1BlobBaseFeeScalar": "0x101c12",
      "l1Fee": "0x4aae43a3",
      "l1GasPrice": "0x135985a8",
      "l1GasUsed": "0x6a4"
    },
    {
      "status": "0x1",
      "cumulativeGasUsed": "0xb9760f",
      "logs": [
        {
          "address": "0x1a44076050125825900e736c501f859c50fe728c",
          "topics": [
            "0x4cff966ebee29a156dcb34cf72c1d06231fb1777f6bdf6e8089819232f002b1c"
          ],
          "data": "0x000000000000000000000000dc4ce404c1caa4b618847d93941d6cca09744e1e00000000000000000000000000000000000000000000000000000000000075c6000000000000000000000000b5320b0b3a13cc860893e2bd79fcd7e13484dda2",
          "blockHash": "0x241cb7215e2b24b7e21a1083eb7705eecfaa421745881b3bcba2cf5c6a585772",
          "blockNumber": "0x220afbc",
          "blockTimestamp": "0x68cbbc5b",
          "transactionHash": "0x1b9e02166e5eb047e8c1718b46a7203809fb06fa218ee83a0d05a78e998e5d0a",
          "transactionIndex": "0x43",
          "logIndex": "0x1dc",
          "removed": false
        }
      ],
      "logsBloom": "0x00000000000000000000000000000000000200000000000000000000001000000000000000000000000000000000000000000000000000000000000001000000000000000000000000000000000000000000000000000000000000000000000000000000000000000000000000000000000000000010000000000000000000000000000000000000000000000000000000000000000000000000000000000000000000000000000000000000000000000000000000000000000000000000000000000000000000000000000000000000000000000000000000000000000000000040000000000000000000000000000000000000010000000000000000000000",
      "type": "0x2",
      "transactionHash": "0x1b9e02166e5eb047e8c1718b46a7203809fb06fa218ee83a0d05a78e998e5d0a",
      "transactionIndex": "0x43",
      "blockHash": "0x241cb7215e2b24b7e21a1083eb7705eecfaa421745881b3bcba2cf5c6a585772",
      "blockNumber": "0x220afbc",
      "gasUsed": "0xe18e",
      "effectiveGasPrice": "0x2ee823",
      "from": "0x0ece75f3c36f7df2136dac7633165dbff53de3cd",
      "to": "0x1a44076050125825900e736c501f859c50fe728c",
      "contractAddress": null,
      "l1BaseFeeScalar": "0x8dd",
      "l1BlobBaseFee": "0x1",
      "l1BlobBaseFeeScalar": "0x101c12",
      "l1Fee": "0x4aae43a3",
      "l1GasPrice": "0x135985a8",
      "l1GasUsed": "0x6a4"
    },
    {
      "status": "0x1",
      "cumulativeGasUsed": "0xba579d",
      "logs": [
        {
          "address": "0x1a44076050125825900e736c501f859c50fe728c",
          "topics": [
            "0x4cff966ebee29a156dcb34cf72c1d06231fb1777f6bdf6e8089819232f002b1c"
          ],
          "data": "0x000000000000000000000000249a1d049ce9c68c818eb5afc53359f547c176a400000000000000000000000000000000000000000000000000000000000075c6000000000000000000000000b5320b0b3a13cc860893e2bd79fcd7e13484dda2",
          "blockHash": "0x241cb7215e2b24b7e21a1083eb7705eecfaa421745881b3bcba2cf5c6a585772",
          "blockNumber": "0x220afbc",
          "blockTimestamp": "0x68cbbc5b",
          "transactionHash": "0x64a3e070abfc3e643e420a6a3d83eb0c64632a87bdc75e8e2f87b6b064fb6e09",
          "transactionIndex": "0x44",
          "logIndex": "0x1dd",
          "removed": false
        }
      ],
      "logsBloom": "0x00000000000000000000000000000000000200000000000000000000001000000000000000000000000000000000000000000000000000000000000001000000000000000000000000000000000000000000000000000000000000000000000000000000000000000000000000000000000000000010000000000000000000000000000000000000000000000000000000000000000000000000000000000000000000000000000000000000000000000000000000000000000000000000000000000000000000000000000000000000000000000000000000000000000000000040000000000000000000000000000000000000010000000000000000000000",
      "type": "0x2",
      "transactionHash": "0x64a3e070abfc3e643e420a6a3d83eb0c64632a87bdc75e8e2f87b6b064fb6e09",
      "transactionIndex": "0x44",
      "blockHash": "0x241cb7215e2b24b7e21a1083eb7705eecfaa421745881b3bcba2cf5c6a585772",
      "blockNumber": "0x220afbc",
      "gasUsed": "0xe18e",
      "effectiveGasPrice": "0x2ee823",
      "from": "0x0ece75f3c36f7df2136dac7633165dbff53de3cd",
      "to": "0x1a44076050125825900e736c501f859c50fe728c",
      "contractAddress": null,
      "l1BaseFeeScalar": "0x8dd",
      "l1BlobBaseFee": "0x1",
      "l1BlobBaseFeeScalar": "0x101c12",
      "l1Fee": "0x4aae43a3",
      "l1GasPrice": "0x135985a8",
      "l1GasUsed": "0x6a4"
    },
    {
      "status": "0x1",
      "cumulativeGasUsed": "0xbb392b",
      "logs": [
        {
          "address": "0x1a44076050125825900e736c501f859c50fe728c",
          "topics": [
            "0x4cff966ebee29a156dcb34cf72c1d06231fb1777f6bdf6e8089819232f002b1c"
          ],
          "data": "0x0000000000000000000000002773280bbaea3c70afec358c1ba426d42d56fc7a00000000000000000000000000000000000000000000000000000000000075c6000000000000000000000000b5320b0b3a13cc860893e2bd79fcd7e13484dda2",
          "blockHash": "0x241cb7215e2b24b7e21a1083eb7705eecfaa421745881b3bcba2cf5c6a585772",
          "blockNumber": "0x220afbc",
          "blockTimestamp": "0x68cbbc5b",
          "transactionHash": "0xa6d9d95daa52c9d515e4db1d00a58f225839e3ad30159359c7a8f87ecd94bff6",
          "transactionIndex": "0x45",
          "logIndex": "0x1de",
          "removed": false
        }
      ],
      "logsBloom": "0x00000000000000000000000000000000000200000000000000000000001000000000000000000000000000000000000000000000000000000000000001000000000000000000000000000000000000000000000000000000000000000000000000000000000000000000000000000000000000000010000000000000000000000000000000000000000000000000000000000000000000000000000000000000000000000000000000000000000000000000000000000000000000000000000000000000000000000000000000000000000000000000000000000000000000000040000000000000000000000000000000000000010000000000000000000000",
      "type": "0x2",
      "transactionHash": "0xa6d9d95daa52c9d515e4db1d00a58f225839e3ad30159359c7a8f87ecd94bff6",
      "transactionIndex": "0x45",
      "blockHash": "0x241cb7215e2b24b7e21a1083eb7705eecfaa421745881b3bcba2cf5c6a585772",
      "blockNumber": "0x220afbc",
      "gasUsed": "0xe18e",
      "effectiveGasPrice": "0x2ee823",
      "from": "0x0ece75f3c36f7df2136dac7633165dbff53de3cd",
      "to": "0x1a44076050125825900e736c501f859c50fe728c",
      "contractAddress": null,
      "l1BaseFeeScalar": "0x8dd",
      "l1BlobBaseFee": "0x1",
      "l1BlobBaseFeeScalar": "0x101c12",
      "l1Fee": "0x4aae43a3",
      "l1GasPrice": "0x135985a8",
      "l1GasUsed": "0x6a4"
    },
    {
      "status": "0x1",
      "cumulativeGasUsed": "0xbc34cc",
      "logs": [
        {
          "address": "0x1a44076050125825900e736c501f859c50fe728c",
          "topics": [
            "0xcd6f92f5ac6185a5acfa02c92090746cec64d777269cbcd0ed031e396657a1c2"
          ],
          "data": "0x0000000000000000000000003a1353926e2c1ada7acc93a6fbe73c1ec6b1e93100000000000000000000000000000000000000000000000000000000000075e8000000000000000000000000c70ab6f32772f59fbfc23889caf4ba3376c84baf",
          "blockHash": "0x241cb7215e2b24b7e21a1083eb7705eecfaa421745881b3bcba2cf5c6a585772",
          "blockNumber": "0x220afbc",
          "blockTimestamp": "0x68cbbc5b",
          "transactionHash": "0x2ad0a22c14bc76e5a456336f3719f0b30f153e330d1b6cc4dc9738e419491bf1",
          "transactionIndex": "0x46",
          "logIndex": "0x1df",
          "removed": false
        },
        {
          "address": "0x1a44076050125825900e736c501f859c50fe728c",
          "topics": [
            "0x4e0a5bbfa0c11a64effb1ada324b5437a17272e1aed9320398715ef71bb20928"
          ],
          "data": "0x0000000000000000000000003a1353926e2c1ada7acc93a6fbe73c1ec6b1e93100000000000000000000000000000000000000000000000000000000000075e800000000000000000000000000000000000000000000000000000000000000000000000000000000000000000000000000000000000000000000000000000000",
          "blockHash": "0x241cb7215e2b24b7e21a1083eb7705eecfaa421745881b3bcba2cf5c6a585772",
          "blockNumber": "0x220afbc",
          "blockTimestamp": "0x68cbbc5b",
          "transactionHash": "0x2ad0a22c14bc76e5a456336f3719f0b30f153e330d1b6cc4dc9738e419491bf1",
          "transactionIndex": "0x46",
          "logIndex": "0x1e0",
          "removed": false
        }
      ],
      "logsBloom": "0x00000000000000000000020800000000000000000000000000000000001000020400000000000000000000000000000000000000000000000000000000000000000000000000000000000000000000000000000000800000000000000000000000000000000000000000000000000000000000000010000000000000000000100000000000000000000000000000000000000000000000000000000000000000000000000000000000000000000000000000000000000000000000000000000000000000000000000000000000000000000000000000000000000000000000000000000000000000000000000000000000000000010000000000000000000000",
      "type": "0x2",
      "transactionHash": "0x2ad0a22c14bc76e5a456336f3719f0b30f153e330d1b6cc4dc9738e419491bf1",
      "transactionIndex": "0x46",
      "blockHash": "0x241cb7215e2b24b7e21a1083eb7705eecfaa421745881b3bcba2cf5c6a585772",
      "blockNumber": "0x220afbc",
      "gasUsed": "0xfba1",
      "effectiveGasPrice": "0x2ee823",
      "from": "0x0ece75f3c36f7df2136dac7633165dbff53de3cd",
      "to": "0x1a44076050125825900e736c501f859c50fe728c",
      "contractAddress": null,
      "l1BaseFeeScalar": "0x8dd",
      "l1BlobBaseFee": "0x1",
      "l1BlobBaseFeeScalar": "0x101c12",
      "l1Fee": "0x4ecb4644",
      "l1GasPrice": "0x135985a8",
      "l1GasUsed": "0x702"
    },
    {
      "status": "0x1",
      "cumulativeGasUsed": "0xbd306d",
      "logs": [
        {
          "address": "0x1a44076050125825900e736c501f859c50fe728c",
          "topics": [
            "0xcd6f92f5ac6185a5acfa02c92090746cec64d777269cbcd0ed031e396657a1c2"
          ],
          "data": "0x000000000000000000000000dc4ce404c1caa4b618847d93941d6cca09744e1e00000000000000000000000000000000000000000000000000000000000075e8000000000000000000000000c70ab6f32772f59fbfc23889caf4ba3376c84baf",
          "blockHash": "0x241cb7215e2b24b7e21a1083eb7705eecfaa421745881b3bcba2cf5c6a585772",
          "blockNumber": "0x220afbc",
          "blockTimestamp": "0x68cbbc5b",
          "transactionHash": "0xa1d815a60c8d1c1a5249ed25c7c0caa45cb911bd47e5e7631d8587d2d9e9dd23",
          "transactionIndex": "0x47",
          "logIndex": "0x1e1",
          "removed": false
        },
        {
          "address": "0x1a44076050125825900e736c501f859c50fe728c",
          "topics": [
            "0x4e0a5bbfa0c11a64effb1ada324b5437a17272e1aed9320398715ef71bb20928"
          ],
          "data": "0x000000000000000000000000dc4ce404c1caa4b618847d93941d6cca09744e1e00000000000000000000000000000000000000000000000000000000000075e800000000000000000000000000000000000000000000000000000000000000000000000000000000000000000000000000000000000000000000000000000000",
          "blockHash": "0x241cb7215e2b24b7e21a1083eb7705eecfaa421745881b3bcba2cf5c6a585772",
          "blockNumber": "0x220afbc",
          "blockTimestamp": "0x68cbbc5b",
          "transactionHash": "0xa1d815a60c8d1c1a5249ed25c7c0caa45cb911bd47e5e7631d8587d2d9e9dd23",
          "transactionIndex": "0x47",
          "logIndex": "0x1e2",
          "removed": false
        }
      ],
      "logsBloom": "0x00000000000000000000020800000000000000000000000000000000001000020400000000000000000000000000000000000000000000000000000000000000000000000000000000000000000000000000000000800000000000000000000000000000000000000000000000000000000000000010000000000000000000100000000000000000000000000000000000000000000000000000000000000000000000000000000000000000000000000000000000000000000000000000000000000000000000000000000000000000000000000000000000000000000000000000000000000000000000000000000000000000010000000000000000000000",
      "type": "0x2",
      "transactionHash": "0xa1d815a60c8d1c1a5249ed25c7c0caa45cb911bd47e5e7631d8587d2d9e9dd23",
      "transactionIndex": "0x47",
      "blockHash": "0x241cb7215e2b24b7e21a1083eb7705eecfaa421745881b3bcba2cf5c6a585772",
      "blockNumber": "0x220afbc",
      "gasUsed": "0xfba1",
      "effectiveGasPrice": "0x2ee823",
      "from": "0x0ece75f3c36f7df2136dac7633165dbff53de3cd",
      "to": "0x1a44076050125825900e736c501f859c50fe728c",
      "contractAddress": null,
      "l1BaseFeeScalar": "0x8dd",
      "l1BlobBaseFee": "0x1",
      "l1BlobBaseFeeScalar": "0x101c12",
      "l1Fee": "0x4ecb4644",
      "l1GasPrice": "0x135985a8",
      "l1GasUsed": "0x702"
    },
    {
      "status": "0x1",
      "cumulativeGasUsed": "0xbe2c0e",
      "logs": [
        {
          "address": "0x1a44076050125825900e736c501f859c50fe728c",
          "topics": [
            "0xcd6f92f5ac6185a5acfa02c92090746cec64d777269cbcd0ed031e396657a1c2"
          ],
          "data": "0x000000000000000000000000249a1d049ce9c68c818eb5afc53359f547c176a400000000000000000000000000000000000000000000000000000000000075e8000000000000000000000000c70ab6f32772f59fbfc23889caf4ba3376c84baf",
          "blockHash": "0x0009d025ea54950abe7f73d1a0d2aa7ff51ae7b547540a4e8c7f24b280d147be",
          "blockNumber": "0x220afbc",
          "blockTimestamp": "0x68cbbc5b",
          "transactionHash": "0xe733b53d2c541722c7232ce445974e28dbf884e4c1e60ace5f48862714039ea2",
          "transactionIndex": "0x48",
          "logIndex": "0x1e3",
          "removed": false
        },
        {
          "address": "0x1a44076050125825900e736c501f859c50fe728c",
          "topics": [
            "0x4e0a5bbfa0c11a64effb1ada324b5437a17272e1aed9320398715ef71bb20928"
          ],
          "data": "0x000000000000000000000000249a1d049ce9c68c818eb5afc53359f547c176a400000000000000000000000000000000000000000000000000000000000075e800000000000000000000000000000000000000000000000000000000000000000000000000000000000000000000000000000000000000000000000000000000",
          "blockHash": "0x0009d025ea54950abe7f73d1a0d2aa7ff51ae7b547540a4e8c7f24b280d147be",
          "blockNumber": "0x220afbc",
          "blockTimestamp": "0x68cbbc5b",
          "transactionHash": "0xe733b53d2c541722c7232ce445974e28dbf884e4c1e60ace5f48862714039ea2",
          "transactionIndex": "0x48",
          "logIndex": "0x1e4",
          "removed": false
        }
      ],
      "logsBloom": "0x00000000000000000000020800000000000000000000000000000000001000020400000000000000000000000000000000000000000000000000000000000000000000000000000000000000000000000000000000800000000000000000000000000000000000000000000000000000000000000010000000000000000000100000000000000000000000000000000000000000000000000000000000000000000000000000000000000000000000000000000000000000000000000000000000000000000000000000000000000000000000000000000000000000000000000000000000000000000000000000000000000000010000000000000000000000",
      "type": "0x2",
      "transactionHash": "0xe733b53d2c541722c7232ce445974e28dbf884e4c1e60ace5f48862714039ea2",
      "transactionIndex": "0x48",
      "blockHash": "0x0009d025ea54950abe7f73d1a0d2aa7ff51ae7b547540a4e8c7f24b280d147be",
      "blockNumber": "0x220afbc",
      "gasUsed": "0xfba1",
      "effectiveGasPrice": "0x2ee823",
      "from": "0x0ece75f3c36f7df2136dac7633165dbff53de3cd",
      "to": "0x1a44076050125825900e736c501f859c50fe728c",
      "contractAddress": null,
      "l1BaseFeeScalar": "0x8dd",
      "l1BlobBaseFee": "0x1",
      "l1BlobBaseFeeScalar": "0x101c12",
      "l1Fee": "0x4ecb4644",
      "l1GasPrice": "0x135985a8",
      "l1GasUsed": "0x702"
    },
    {
      "status": "0x1",
      "cumulativeGasUsed": "0xbf27af",
      "logs": [
        {
          "address": "0x1a44076050125825900e736c501f859c50fe728c",
          "topics": [
            "0xcd6f92f5ac6185a5acfa02c92090746cec64d777269cbcd0ed031e396657a1c2"
          ],
          "data": "0x0000000000000000000000002773280bbaea3c70afec358c1ba426d42d56fc7a00000000000000000000000000000000000000000000000000000000000075e8000000000000000000000000c70ab6f32772f59fbfc23889caf4ba3376c84baf",
          "blockHash": "0x241cb7215e2b24b7e21a1083eb7705eecfaa421745881b3bcba2cf5c6a585772",
          "blockNumber": "0x220afbc",
          "blockTimestamp": "0x68cbbc5b",
          "transactionHash": "0xa0c9eb97e160d0c39d7ff254ebc84ff127d2c257b56cee99aabcd93e697a3f72",
          "transactionIndex": "0x49",
          "logIndex": "0x1e5",
          "removed": false
        },
        {
          "address": "0x1a44076050125825900e736c501f859c50fe728c",
          "topics": [
            "0x4e0a5bbfa0c11a64effb1ada324b5437a17272e1aed9320398715ef71bb20928"
          ],
          "data": "0x0000000000000000000000002773280bbaea3c70afec358c1ba426d42d56fc7a00000000000000000000000000000000000000000000000000000000000075e800000000000000000000000000000000000000000000000000000000000000000000000000000000000000000000000000000000000000000000000000000000",
          "blockHash": "0x241cb7215e2b24b7e21a1083eb7705eecfaa421745881b3bcba2cf5c6a585772",
          "blockNumber": "0x220afbc",
          "blockTimestamp": "0x68cbbc5b",
          "transactionHash": "0xa0c9eb97e160d0c39d7ff254ebc84ff127d2c257b56cee99aabcd93e697a3f72",
          "transactionIndex": "0x49",
          "logIndex": "0x1e6",
          "removed": false
        }
      ],
      "logsBloom": "0x00000000000000000000020800000000000000000000000000000000001000020400000000000000000000000000000000000000000000000000000000000000000000000000000000000000000000000000000000800000000000000000000000000000000000000000000000000000000000000010000000000000000000100000000000000000000000000000000000000000000000000000000000000000000000000000000000000000000000000000000000000000000000000000000000000000000000000000000000000000000000000000000000000000000000000000000000000000000000000000000000000000010000000000000000000000",
      "type": "0x2",
      "transactionHash": "0xa0c9eb97e160d0c39d7ff254ebc84ff127d2c257b56cee99aabcd93e697a3f72",
      "transactionIndex": "0x49",
      "blockHash": "0x241cb7215e2b24b7e21a1083eb7705eecfaa421745881b3bcba2cf5c6a585772",
      "blockNumber": "0x220afbc",
      "gasUsed": "0xfba1",
      "effectiveGasPrice": "0x2ee823",
      "from": "0x0ece75f3c36f7df2136dac7633165dbff53de3cd",
      "to": "0x1a44076050125825900e736c501f859c50fe728c",
      "contractAddress": null,
      "l1BaseFeeScalar": "0x8dd",
      "l1BlobBaseFee": "0x1",
      "l1BlobBaseFeeScalar": "0x101c12",
      "l1Fee": "0x4ecb4644",
      "l1GasPrice": "0x135985a8",
      "l1GasUsed": "0x702"
    }
  ],
  "libraries": [],
  "pending": [],
  "returns": {},
  "timestamp": 1758182490478,
  "chain": 8453,
  "commit": "6c82bda"
}