{
  "transactions": [
    {
      "hash": "0x60b6476301ae1406faaecec84f73651067edba43ac2892f71c41cb3fb40ca586",
      "transactionType": "CALL",
      "contractName": null,
      "contractAddress": "0x1a44076050125825900e736c501f859c50fe728c",
      "function": "setSendLibrary(address,uint32,address)",
      "arguments": [
        "0x6D68A52Bc77F2eAc3582a7072eAd94C19B9f480c",
        "30184",
        "0x9714Ccf1dedeF14BaB5013625DB92746C1358cb4"
      ],
      "transaction": {
        "from": "0x0ece75f3c36f7df2136dac7633165dbff53de3cd",
        "to": "0x1a44076050125825900e736c501f859c50fe728c",
        "gas": "0x1378b",
        "value": "0x0",
        "input": "0x9535ff300000000000000000000000006d68a52bc77f2eac3582a7072ead94c19b9f480c00000000000000000000000000000000000000000000000000000000000075e80000000000000000000000009714ccf1dedef14bab5013625db92746c1358cb4",
        "nonce": "0x101",
        "chainId": "0x2019"
      },
      "additionalContracts": [],
      "isFixedGasLimit": false
    },
    {
      "hash": "0x1526c46e64e30e35714bbb8767d84806909d7ddcb475baaf92cac213d58b0436",
      "transactionType": "CALL",
      "contractName": null,
      "contractAddress": "0x1a44076050125825900e736c501f859c50fe728c",
      "function": "setSendLibrary(address,uint32,address)",
      "arguments": [
        "0x920Cd2F6e139b6C40053BCd5F67923d1d7Dd3140",
        "30184",
        "0x9714Ccf1dedeF14BaB5013625DB92746C1358cb4"
      ],
      "transaction": {
        "from": "0x0ece75f3c36f7df2136dac7633165dbff53de3cd",
        "to": "0x1a44076050125825900e736c501f859c50fe728c",
        "gas": "0x149cd",
        "value": "0x0",
        "input": "0x9535ff30000000000000000000000000920cd2f6e139b6c40053bcd5f67923d1d7dd314000000000000000000000000000000000000000000000000000000000000075e80000000000000000000000009714ccf1dedef14bab5013625db92746c1358cb4",
        "nonce": "0x102",
        "chainId": "0x2019"
      },
      "additionalContracts": [],
      "isFixedGasLimit": false
    },
    {
      "hash": "0xe012ca5506405a551c810f14669c57b06656f5f9d0a160415049666e45f8aa74",
      "transactionType": "CALL",
      "contractName": null,
      "contractAddress": "0x1a44076050125825900e736c501f859c50fe728c",
      "function": "setSendLibrary(address,uint32,address)",
      "arguments": [
        "0x5DDbbC68527214E0aCA3B4175860080cBDAA12ff",
        "30184",
        "0x9714Ccf1dedeF14BaB5013625DB92746C1358cb4"
      ],
      "transaction": {
        "from": "0x0ece75f3c36f7df2136dac7633165dbff53de3cd",
        "to": "0x1a44076050125825900e736c501f859c50fe728c",
        "gas": "0x1378b",
        "value": "0x0",
        "input": "0x9535ff300000000000000000000000005ddbbc68527214e0aca3b4175860080cbdaa12ff00000000000000000000000000000000000000000000000000000000000075e80000000000000000000000009714ccf1dedef14bab5013625db92746c1358cb4",
        "nonce": "0x103",
        "chainId": "0x2019"
      },
      "additionalContracts": [],
      "isFixedGasLimit": false
    },
    {
      "hash": "0x6c833f9783527779cc0a1a8af9f3aa3bdc8eb0d0f7cd80c63a03019c4f9088e9",
      "transactionType": "CALL",
      "contractName": null,
      "contractAddress": "0x1a44076050125825900e736c501f859c50fe728c",
      "function": "setSendLibrary(address,uint32,address)",
      "arguments": [
        "0xFe5138A42dc1fc335455b505E036784A33F7F102",
        "30184",
        "0x9714Ccf1dedeF14BaB5013625DB92746C1358cb4"
      ],
      "transaction": {
        "from": "0x0ece75f3c36f7df2136dac7633165dbff53de3cd",
        "to": "0x1a44076050125825900e736c501f859c50fe728c",
        "gas": "0x1378b",
        "value": "0x0",
        "input": "0x9535ff30000000000000000000000000fe5138a42dc1fc335455b505e036784a33f7f10200000000000000000000000000000000000000000000000000000000000075e80000000000000000000000009714ccf1dedef14bab5013625db92746c1358cb4",
        "nonce": "0x104",
        "chainId": "0x2019"
      },
      "additionalContracts": [],
      "isFixedGasLimit": false
    },
    {
      "hash": "0xfecd501f5d42e23067ecf3e64f601525a1098582a5aad7f0d646180199d3d7ac",
      "transactionType": "CALL",
      "contractName": null,
      "contractAddress": "0x1a44076050125825900e736c501f859c50fe728c",
      "function": "setSendLibrary(address,uint32,address)",
      "arguments": [
        "0xB0E96105543cBA4B3D82911E7336f19BD03b0360",
        "30184",
        "0x9714Ccf1dedeF14BaB5013625DB92746C1358cb4"
      ],
      "transaction": {
        "from": "0x0ece75f3c36f7df2136dac7633165dbff53de3cd",
        "to": "0x1a44076050125825900e736c501f859c50fe728c",
        "gas": "0x1378b",
        "value": "0x0",
        "input": "0x9535ff30000000000000000000000000b0e96105543cba4b3d82911e7336f19bd03b036000000000000000000000000000000000000000000000000000000000000075e80000000000000000000000009714ccf1dedef14bab5013625db92746c1358cb4",
        "nonce": "0x105",
        "chainId": "0x2019"
      },
      "additionalContracts": [],
      "isFixedGasLimit": false
    },
    {
      "hash": "0x4f3ade38dbeb0ca9911daac7c2fb8b75f75f92bae3ed3f7d810f30d6e747aa15",
      "transactionType": "CALL",
      "contractName": null,
      "contractAddress": "0x1a44076050125825900e736c501f859c50fe728c",
      "function": "setReceiveLibrary(address,uint32,address,uint256)",
      "arguments": [
        "0x6D68A52Bc77F2eAc3582a7072eAd94C19B9f480c",
        "30150",
        "0x937AbA873827BF883CeD83CA557697427eAA46Ee",
        "0"
      ],
      "transaction": {
        "from": "0x0ece75f3c36f7df2136dac7633165dbff53de3cd",
        "to": "0x1a44076050125825900e736c501f859c50fe728c",
        "gas": "0x17001",
        "value": "0x0",
        "input": "0x6a14d7150000000000000000000000006d68a52bc77f2eac3582a7072ead94c19b9f480c00000000000000000000000000000000000000000000000000000000000075c6000000000000000000000000937aba873827bf883ced83ca557697427eaa46ee0000000000000000000000000000000000000000000000000000000000000000",
        "nonce": "0x106",
        "chainId": "0x2019"
      },
      "additionalContracts": [],
      "isFixedGasLimit": false
    },
    {
      "hash": "0x6f0f855fc875a386b49f7f0f3ccdf0148457a9411f8bce575cf695db1240eb32",
      "transactionType": "CALL",
      "contractName": null,
      "contractAddress": "0x1a44076050125825900e736c501f859c50fe728c",
      "function": "setReceiveLibrary(address,uint32,address,uint256)",
      "arguments": [
        "0x920Cd2F6e139b6C40053BCd5F67923d1d7Dd3140",
        "30150",
        "0x937AbA873827BF883CeD83CA557697427eAA46Ee",
        "0"
      ],
      "transaction": {
        "from": "0x0ece75f3c36f7df2136dac7633165dbff53de3cd",
        "to": "0x1a44076050125825900e736c501f859c50fe728c",
        "gas": "0x15b7f",
        "value": "0x0",
        "input": "0x6a14d715000000000000000000000000920cd2f6e139b6c40053bcd5f67923d1d7dd314000000000000000000000000000000000000000000000000000000000000075c6000000000000000000000000937aba873827bf883ced83ca557697427eaa46ee0000000000000000000000000000000000000000000000000000000000000000",
        "nonce": "0x107",
        "chainId": "0x2019"
      },
      "additionalContracts": [],
      "isFixedGasLimit": false
    },
    {
      "hash": "0x807f97a142819d15b5f732ea4a575ae0cced908033ae07925b8e6244cf531a6f",
      "transactionType": "CALL",
      "contractName": null,
      "contractAddress": "0x1a44076050125825900e736c501f859c50fe728c",
      "function": "setReceiveLibrary(address,uint32,address,uint256)",
      "arguments": [
        "0x5DDbbC68527214E0aCA3B4175860080cBDAA12ff",
        "30150",
        "0x937AbA873827BF883CeD83CA557697427eAA46Ee",
        "0"
      ],
      "transaction": {
        "from": "0x0ece75f3c36f7df2136dac7633165dbff53de3cd",
        "to": "0x1a44076050125825900e736c501f859c50fe728c",
        "gas": "0x17001",
        "value": "0x0",
        "input": "0x6a14d7150000000000000000000000005ddbbc68527214e0aca3b4175860080cbdaa12ff00000000000000000000000000000000000000000000000000000000000075c6000000000000000000000000937aba873827bf883ced83ca557697427eaa46ee0000000000000000000000000000000000000000000000000000000000000000",
        "nonce": "0x108",
        "chainId": "0x2019"
      },
      "additionalContracts": [],
      "isFixedGasLimit": false
    },
    {
      "hash": "0xf1fa2140fd68dc832a3eb8bd14762c6d7f62978c15a44cd814eb964ddac6b4c8",
      "transactionType": "CALL",
      "contractName": null,
      "contractAddress": "0x1a44076050125825900e736c501f859c50fe728c",
      "function": "setReceiveLibrary(address,uint32,address,uint256)",
      "arguments": [
        "0xFe5138A42dc1fc335455b505E036784A33F7F102",
        "30150",
        "0x937AbA873827BF883CeD83CA557697427eAA46Ee",
        "0"
      ],
      "transaction": {
        "from": "0x0ece75f3c36f7df2136dac7633165dbff53de3cd",
        "to": "0x1a44076050125825900e736c501f859c50fe728c",
        "gas": "0x17001",
        "value": "0x0",
        "input": "0x6a14d715000000000000000000000000fe5138a42dc1fc335455b505e036784a33f7f10200000000000000000000000000000000000000000000000000000000000075c6000000000000000000000000937aba873827bf883ced83ca557697427eaa46ee0000000000000000000000000000000000000000000000000000000000000000",
        "nonce": "0x109",
        "chainId": "0x2019"
      },
      "additionalContracts": [],
      "isFixedGasLimit": false
    },
    {
      "hash": "0xd247563dc2dc325a404396f1abbd359b5171dc01bab49b39fe58c3612c843b7e",
      "transactionType": "CALL",
      "contractName": null,
      "contractAddress": "0x1a44076050125825900e736c501f859c50fe728c",
      "function": "setReceiveLibrary(address,uint32,address,uint256)",
      "arguments": [
        "0xB0E96105543cBA4B3D82911E7336f19BD03b0360",
        "30150",
        "0x937AbA873827BF883CeD83CA557697427eAA46Ee",
        "0"
      ],
      "transaction": {
        "from": "0x0ece75f3c36f7df2136dac7633165dbff53de3cd",
        "to": "0x1a44076050125825900e736c501f859c50fe728c",
        "gas": "0x17001",
        "value": "0x0",
        "input": "0x6a14d715000000000000000000000000b0e96105543cba4b3d82911e7336f19bd03b036000000000000000000000000000000000000000000000000000000000000075c6000000000000000000000000937aba873827bf883ced83ca557697427eaa46ee0000000000000000000000000000000000000000000000000000000000000000",
        "nonce": "0x10a",
        "chainId": "0x2019"
      },
      "additionalContracts": [],
      "isFixedGasLimit": false
    }
  ],
  "receipts": [
    {
      "status": "0x1",
      "cumulativeGasUsed": "0xbc8f87",
      "logs": [
        {
          "address": "0x1a44076050125825900e736c501f859c50fe728c",
          "topics": [
            "0x4cff966ebee29a156dcb34cf72c1d06231fb1777f6bdf6e8089819232f002b1c"
          ],
          "data": "0x0000000000000000000000006d68a52bc77f2eac3582a7072ead94c19b9f480c00000000000000000000000000000000000000000000000000000000000075e80000000000000000000000009714ccf1dedef14bab5013625db92746c1358cb4",
          "blockHash": "0xd870556a5b01753e034d9e02c6d73120c1dcf6d19923e50ccf14bb5d275eef54",
          "blockNumber": "0xbb07971",
          "transactionHash": "0x60b6476301ae1406faaecec84f73651067edba43ac2892f71c41cb3fb40ca586",
          "transactionIndex": "0x6",
          "logIndex": "0x97",
          "removed": false
        }
      ],
      "logsBloom": "0x00000000000000000000000000000000000200000000000000000000001000000000000000000000000000000000000000000000000000000000000001000000000000000000000000000000000000000000000000000000000000000000000000000000000000000000000000000000000000000010000000000000000000000000000000000000000000000000000000000000000000000000000000000000000000000000000000000000000000000000000000000000000000000000000000000000000000000000000000000000000000000000000000000000000000000040000000000000000000000000000000000000010000000000000000000000",
      "type": "0x2",
      "transactionHash": "0x60b6476301ae1406faaecec84f73651067edba43ac2892f71c41cb3fb40ca586",
      "transactionIndex": "0x6",
      "blockHash": "0xd870556a5b01753e034d9e02c6d73120c1dcf6d19923e50ccf14bb5d275eef54",
      "blockNumber": "0xbb07971",
      "gasUsed": "0xe18e",
      "effectiveGasPrice": "0x66720b300",
      "from": "0x0ece75f3c36f7df2136dac7633165dbff53de3cd",
      "to": "0x1a44076050125825900e736c501f859c50fe728c",
      "contractAddress": null
    },
    {
      "status": "0x1",
      "cumulativeGasUsed": "0xbd7109",
      "logs": [
        {
          "address": "0x1a44076050125825900e736c501f859c50fe728c",
          "topics": [
            "0x4cff966ebee29a156dcb34cf72c1d06231fb1777f6bdf6e8089819232f002b1c"
          ],
          "data": "0x000000000000000000000000920cd2f6e139b6c40053bcd5f67923d1d7dd314000000000000000000000000000000000000000000000000000000000000075e80000000000000000000000009714ccf1dedef14bab5013625db92746c1358cb4",
          "blockHash": "0xd870556a5b01753e034d9e02c6d73120c1dcf6d19923e50ccf14bb5d275eef54",
          "blockNumber": "0xbb07971",
          "transactionHash": "0x1526c46e64e30e35714bbb8767d84806909d7ddcb475baaf92cac213d58b0436",
          "transactionIndex": "0x7",
          "logIndex": "0x98",
          "removed": false
        }
      ],
      "logsBloom": "0x00000000000000000000000000000000000200000000000000000000001000000000000000000000000000000000000000000000000000000000000001000000000000000000000000000000000000000000000000000000000000000000000000000000000000000000000000000000000000000010000000000000000000000000000000000000000000000000000000000000000000000000000000000000000000000000000000000000000000000000000000000000000000000000000000000000000000000000000000000000000000000000000000000000000000000040000000000000000000000000000000000000010000000000000000000000",
      "type": "0x2",
      "transactionHash": "0x1526c46e64e30e35714bbb8767d84806909d7ddcb475baaf92cac213d58b0436",
      "transactionIndex": "0x7",
      "blockHash": "0xd870556a5b01753e034d9e02c6d73120c1dcf6d19923e50ccf14bb5d275eef54",
      "blockNumber": "0xbb07971",
      "gasUsed": "0xe182",
      "effectiveGasPrice": "0x66720b300",
      "from": "0x0ece75f3c36f7df2136dac7633165dbff53de3cd",
      "to": "0x1a44076050125825900e736c501f859c50fe728c",
      "contractAddress": null
    },
    {
      "status": "0x1",
      "cumulativeGasUsed": "0xbe5297",
      "logs": [
        {
          "address": "0x1a44076050125825900e736c501f859c50fe728c",
          "topics": [
            "0x4cff966ebee29a156dcb34cf72c1d06231fb1777f6bdf6e8089819232f002b1c"
          ],
          "data": "0x0000000000000000000000005ddbbc68527214e0aca3b4175860080cbdaa12ff00000000000000000000000000000000000000000000000000000000000075e80000000000000000000000009714ccf1dedef14bab5013625db92746c1358cb4",
          "blockHash": "0xd870556a5b01753e034d9e02c6d73120c1dcf6d19923e50ccf14bb5d275eef54",
          "blockNumber": "0xbb07971",
          "transactionHash": "0xe012ca5506405a551c810f14669c57b06656f5f9d0a160415049666e45f8aa74",
          "transactionIndex": "0x8",
          "logIndex": "0x99",
          "removed": false
        }
      ],
      "logsBloom": "0x00000000000000000000000000000000000200000000000000000000001000000000000000000000000000000000000000000000000000000000000001000000000000000000000000000000000000000000000000000000000000000000000000000000000000000000000000000000000000000010000000000000000000000000000000000000000000000000000000000000000000000000000000000000000000000000000000000000000000000000000000000000000000000000000000000000000000000000000000000000000000000000000000000000000000000040000000000000000000000000000000000000010000000000000000000000",
      "type": "0x2",
      "transactionHash": "0xe012ca5506405a551c810f14669c57b06656f5f9d0a160415049666e45f8aa74",
      "transactionIndex": "0x8",
      "blockHash": "0xd870556a5b01753e034d9e02c6d73120c1dcf6d19923e50ccf14bb5d275eef54",
      "blockNumber": "0xbb07971",
      "gasUsed": "0xe18e",
      "effectiveGasPrice": "0x66720b300",
      "from": "0x0ece75f3c36f7df2136dac7633165dbff53de3cd",
      "to": "0x1a44076050125825900e736c501f859c50fe728c",
      "contractAddress": null
    },
    {
      "status": "0x1",
      "cumulativeGasUsed": "0xbf3425",
      "logs": [
        {
          "address": "0x1a44076050125825900e736c501f859c50fe728c",
          "topics": [
            "0x4cff966ebee29a156dcb34cf72c1d06231fb1777f6bdf6e8089819232f002b1c"
          ],
          "data": "0x000000000000000000000000fe5138a42dc1fc335455b505e036784a33f7f10200000000000000000000000000000000000000000000000000000000000075e80000000000000000000000009714ccf1dedef14bab5013625db92746c1358cb4",
          "blockHash": "0xd870556a5b01753e034d9e02c6d73120c1dcf6d19923e50ccf14bb5d275eef54",
          "blockNumber": "0xbb07971",
          "transactionHash": "0x6c833f9783527779cc0a1a8af9f3aa3bdc8eb0d0f7cd80c63a03019c4f9088e9",
          "transactionIndex": "0x9",
          "logIndex": "0x9a",
          "removed": false
        }
      ],
      "logsBloom": "0x00000000000000000000000000000000000200000000000000000000001000000000000000000000000000000000000000000000000000000000000001000000000000000000000000000000000000000000000000000000000000000000000000000000000000000000000000000000000000000010000000000000000000000000000000000000000000000000000000000000000000000000000000000000000000000000000000000000000000000000000000000000000000000000000000000000000000000000000000000000000000000000000000000000000000000040000000000000000000000000000000000000010000000000000000000000",
      "type": "0x2",
      "transactionHash": "0x6c833f9783527779cc0a1a8af9f3aa3bdc8eb0d0f7cd80c63a03019c4f9088e9",
      "transactionIndex": "0x9",
      "blockHash": "0xd870556a5b01753e034d9e02c6d73120c1dcf6d19923e50ccf14bb5d275eef54",
      "blockNumber": "0xbb07971",
      "gasUsed": "0xe18e",
      "effectiveGasPrice": "0x66720b300",
      "from": "0x0ece75f3c36f7df2136dac7633165dbff53de3cd",
      "to": "0x1a44076050125825900e736c501f859c50fe728c",
      "contractAddress": null
    },
    {
      "status": "0x1",
      "cumulativeGasUsed": "0xc015b3",
      "logs": [
        {
          "address": "0x1a44076050125825900e736c501f859c50fe728c",
          "topics": [
            "0x4cff966ebee29a156dcb34cf72c1d06231fb1777f6bdf6e8089819232f002b1c"
          ],
          "data": "0x000000000000000000000000b0e96105543cba4b3d82911e7336f19bd03b036000000000000000000000000000000000000000000000000000000000000075e80000000000000000000000009714ccf1dedef14bab5013625db92746c1358cb4",
          "blockHash": "0xd870556a5b01753e034d9e02c6d73120c1dcf6d19923e50ccf14bb5d275eef54",
          "blockNumber": "0xbb07971",
          "transactionHash": "0xfecd501f5d42e23067ecf3e64f601525a1098582a5aad7f0d646180199d3d7ac",
          "transactionIndex": "0xa",
          "logIndex": "0x9b",
          "removed": false
        }
      ],
      "logsBloom": "0x00000000000000000000000000000000000200000000000000000000001000000000000000000000000000000000000000000000000000000000000001000000000000000000000000000000000000000000000000000000000000000000000000000000000000000000000000000000000000000010000000000000000000000000000000000000000000000000000000000000000000000000000000000000000000000000000000000000000000000000000000000000000000000000000000000000000000000000000000000000000000000000000000000000000000000040000000000000000000000000000000000000010000000000000000000000",
      "type": "0x2",
      "transactionHash": "0xfecd501f5d42e23067ecf3e64f601525a1098582a5aad7f0d646180199d3d7ac",
      "transactionIndex": "0xa",
      "blockHash": "0xd870556a5b01753e034d9e02c6d73120c1dcf6d19923e50ccf14bb5d275eef54",
      "blockNumber": "0xbb07971",
      "gasUsed": "0xe18e",
      "effectiveGasPrice": "0x66720b300",
      "from": "0x0ece75f3c36f7df2136dac7633165dbff53de3cd",
      "to": "0x1a44076050125825900e736c501f859c50fe728c",
      "contractAddress": null
    },
    {
      "status": "0x1",
      "cumulativeGasUsed": "0xc11154",
      "logs": [
        {
          "address": "0x1a44076050125825900e736c501f859c50fe728c",
          "topics": [
            "0xcd6f92f5ac6185a5acfa02c92090746cec64d777269cbcd0ed031e396657a1c2"
          ],
          "data": "0x0000000000000000000000006d68a52bc77f2eac3582a7072ead94c19b9f480c00000000000000000000000000000000000000000000000000000000000075c6000000000000000000000000937aba873827bf883ced83ca557697427eaa46ee",
          "blockHash": "0xd870556a5b01753e034d9e02c6d73120c1dcf6d19923e50ccf14bb5d275eef54",
          "blockNumber": "0xbb07971",
          "transactionHash": "0x4f3ade38dbeb0ca9911daac7c2fb8b75f75f92bae3ed3f7d810f30d6e747aa15",
          "transactionIndex": "0xb",
          "logIndex": "0x9c",
          "removed": false
        },
        {
          "address": "0x1a44076050125825900e736c501f859c50fe728c",
          "topics": [
            "0x4e0a5bbfa0c11a64effb1ada324b5437a17272e1aed9320398715ef71bb20928"
          ],
          "data": "0x0000000000000000000000006d68a52bc77f2eac3582a7072ead94c19b9f480c00000000000000000000000000000000000000000000000000000000000075c600000000000000000000000000000000000000000000000000000000000000000000000000000000000000000000000000000000000000000000000000000000",
          "blockHash": "0xd870556a5b01753e034d9e02c6d73120c1dcf6d19923e50ccf14bb5d275eef54",
          "blockNumber": "0xbb07971",
          "transactionHash": "0x4f3ade38dbeb0ca9911daac7c2fb8b75f75f92bae3ed3f7d810f30d6e747aa15",
          "transactionIndex": "0xb",
          "logIndex": "0x9d",
          "removed": false
        }
      ],
      "logsBloom": "0x00000000000000000000020800000000000000000000000000000000001000020400000000000000000000000000000000000000000000000000000000000000000000000000000000000000000000000000000000800000000000000000000000000000000000000000000000000000000000000010000000000000000000100000000000000000000000000000000000000000000000000000000000000000000000000000000000000000000000000000000000000000000000000000000000000000000000000000000000000000000000000000000000000000000000000000000000000000000000000000000000000000010000000000000000000000",
      "type": "0x2",
      "transactionHash": "0x4f3ade38dbeb0ca9911daac7c2fb8b75f75f92bae3ed3f7d810f30d6e747aa15",
      "transactionIndex": "0xb",
      "blockHash": "0xd870556a5b01753e034d9e02c6d73120c1dcf6d19923e50ccf14bb5d275eef54",
      "blockNumber": "0xbb07971",
      "gasUsed": "0xfba1",
      "effectiveGasPrice": "0x66720b300",
      "from": "0x0ece75f3c36f7df2136dac7633165dbff53de3cd",
      "to": "0x1a44076050125825900e736c501f859c50fe728c",
      "contractAddress": null
    },
    {
      "status": "0x1",
      "cumulativeGasUsed": "0xc20ce9",
      "logs": [
        {
          "address": "0x1a44076050125825900e736c501f859c50fe728c",
          "topics": [
            "0xcd6f92f5ac6185a5acfa02c92090746cec64d777269cbcd0ed031e396657a1c2"
          ],
          "data": "0x000000000000000000000000920cd2f6e139b6c40053bcd5f67923d1d7dd314000000000000000000000000000000000000000000000000000000000000075c6000000000000000000000000937aba873827bf883ced83ca557697427eaa46ee",
          "blockHash": "0xd870556a5b01753e034d9e02c6d73120c1dcf6d19923e50ccf14bb5d275eef54",
          "blockNumber": "0xbb07971",
          "transactionHash": "0x6f0f855fc875a386b49f7f0f3ccdf0148457a9411f8bce575cf695db1240eb32",
          "transactionIndex": "0xc",
          "logIndex": "0x9e",
          "removed": false
        },
        {
          "address": "0x1a44076050125825900e736c501f859c50fe728c",
          "topics": [
            "0x4e0a5bbfa0c11a64effb1ada324b5437a17272e1aed9320398715ef71bb20928"
          ],
          "data": "0x000000000000000000000000920cd2f6e139b6c40053bcd5f67923d1d7dd314000000000000000000000000000000000000000000000000000000000000075c600000000000000000000000000000000000000000000000000000000000000000000000000000000000000000000000000000000000000000000000000000000",
          "blockHash": "0xd870556a5b01753e034d9e02c6d73120c1dcf6d19923e50ccf14bb5d275eef54",
          "blockNumber": "0xbb07971",
          "transactionHash": "0x6f0f855fc875a386b49f7f0f3ccdf0148457a9411f8bce575cf695db1240eb32",
          "transactionIndex": "0xc",
          "logIndex": "0x9f",
          "removed": false
        }
      ],
      "logsBloom": "0x00000000000000000000020800000000000000000000000000000000001000020400000000000000000000000000000000000000000000000000000000000000000000000000000000000000000000000000000000800000000000000000000000000000000000000000000000000000000000000010000000000000000000100000000000000000000000000000000000000000000000000000000000000000000000000000000000000000000000000000000000000000000000000000000000000000000000000000000000000000000000000000000000000000000000000000000000000000000000000000000000000000010000000000000000000000",
      "type": "0x2",
      "transactionHash": "0x6f0f855fc875a386b49f7f0f3ccdf0148457a9411f8bce575cf695db1240eb32",
      "transactionIndex": "0xc",
      "blockHash": "0xd870556a5b01753e034d9e02c6d73120c1dcf6d19923e50ccf14bb5d275eef54",
      "blockNumber": "0xbb07971",
      "gasUsed": "0xfb95",
      "effectiveGasPrice": "0x66720b300",
      "from": "0x0ece75f3c36f7df2136dac7633165dbff53de3cd",
      "to": "0x1a44076050125825900e736c501f859c50fe728c",
      "contractAddress": null
    },
    {
      "status": "0x1",
      "cumulativeGasUsed": "0xc3088a",
      "logs": [
        {
          "address": "0x1a44076050125825900e736c501f859c50fe728c",
          "topics": [
            "0xcd6f92f5ac6185a5acfa02c92090746cec64d777269cbcd0ed031e396657a1c2"
          ],
          "data": "0x0000000000000000000000005ddbbc68527214e0aca3b4175860080cbdaa12ff00000000000000000000000000000000000000000000000000000000000075c6000000000000000000000000937aba873827bf883ced83ca557697427eaa46ee",
          "blockHash": "0xd870556a5b01753e034d9e02c6d73120c1dcf6d19923e50ccf14bb5d275eef54",
          "blockNumber": "0xbb07971",
          "transactionHash": "0x807f97a142819d15b5f732ea4a575ae0cced908033ae07925b8e6244cf531a6f",
          "transactionIndex": "0xd",
          "logIndex": "0xa0",
          "removed": false
        },
        {
          "address": "0x1a44076050125825900e736c501f859c50fe728c",
          "topics": [
            "0x4e0a5bbfa0c11a64effb1ada324b5437a17272e1aed9320398715ef71bb20928"
          ],
          "data": "0x0000000000000000000000005ddbbc68527214e0aca3b4175860080cbdaa12ff00000000000000000000000000000000000000000000000000000000000075c600000000000000000000000000000000000000000000000000000000000000000000000000000000000000000000000000000000000000000000000000000000",
          "blockHash": "0xd870556a5b01753e034d9e02c6d73120c1dcf6d19923e50ccf14bb5d275eef54",
          "blockNumber": "0xbb07971",
          "transactionHash": "0x807f97a142819d15b5f732ea4a575ae0cced908033ae07925b8e6244cf531a6f",
          "transactionIndex": "0xd",
          "logIndex": "0xa1",
          "removed": false
        }
      ],
      "logsBloom": "0x00000000000000000000020800000000000000000000000000000000001000020400000000000000000000000000000000000000000000000000000000000000000000000000000000000000000000000000000000800000000000000000000000000000000000000000000000000000000000000010000000000000000000100000000000000000000000000000000000000000000000000000000000000000000000000000000000000000000000000000000000000000000000000000000000000000000000000000000000000000000000000000000000000000000000000000000000000000000000000000000000000000010000000000000000000000",
      "type": "0x2",
      "transactionHash": "0x807f97a142819d15b5f732ea4a575ae0cced908033ae07925b8e6244cf531a6f",
      "transactionIndex": "0xd",
      "blockHash": "0xd870556a5b01753e034d9e02c6d73120c1dcf6d19923e50ccf14bb5d275eef54",
      "blockNumber": "0xbb07971",
      "gasUsed": "0xfba1",
      "effectiveGasPrice": "0x66720b300",
      "from": "0x0ece75f3c36f7df2136dac7633165dbff53de3cd",
      "to": "0x1a44076050125825900e736c501f859c50fe728c",
      "contractAddress": null
    },
    {
      "status": "0x1",
      "cumulativeGasUsed": "0xc4042b",
      "logs": [
        {
          "address": "0x1a44076050125825900e736c501f859c50fe728c",
          "topics": [
            "0xcd6f92f5ac6185a5acfa02c92090746cec64d777269cbcd0ed031e396657a1c2"
          ],
          "data": "0x000000000000000000000000fe5138a42dc1fc335455b505e036784a33f7f10200000000000000000000000000000000000000000000000000000000000075c6000000000000000000000000937aba873827bf883ced83ca557697427eaa46ee",
          "blockHash": "0xd870556a5b01753e034d9e02c6d73120c1dcf6d19923e50ccf14bb5d275eef54",
          "blockNumber": "0xbb07971",
          "transactionHash": "0xf1fa2140fd68dc832a3eb8bd14762c6d7f62978c15a44cd814eb964ddac6b4c8",
          "transactionIndex": "0xe",
          "logIndex": "0xa2",
          "removed": false
        },
        {
          "address": "0x1a44076050125825900e736c501f859c50fe728c",
          "topics": [
            "0x4e0a5bbfa0c11a64effb1ada324b5437a17272e1aed9320398715ef71bb20928"
          ],
          "data": "0x000000000000000000000000fe5138a42dc1fc335455b505e036784a33f7f10200000000000000000000000000000000000000000000000000000000000075c600000000000000000000000000000000000000000000000000000000000000000000000000000000000000000000000000000000000000000000000000000000",
          "blockHash": "0xd870556a5b01753e034d9e02c6d73120c1dcf6d19923e50ccf14bb5d275eef54",
          "blockNumber": "0xbb07971",
          "transactionHash": "0xf1fa2140fd68dc832a3eb8bd14762c6d7f62978c15a44cd814eb964ddac6b4c8",
          "transactionIndex": "0xe",
          "logIndex": "0xa3",
          "removed": false
        }
      ],
      "logsBloom": "0x00000000000000000000020800000000000000000000000000000000001000020400000000000000000000000000000000000000000000000000000000000000000000000000000000000000000000000000000000800000000000000000000000000000000000000000000000000000000000000010000000000000000000100000000000000000000000000000000000000000000000000000000000000000000000000000000000000000000000000000000000000000000000000000000000000000000000000000000000000000000000000000000000000000000000000000000000000000000000000000000000000000010000000000000000000000",
      "type": "0x2",
      "transactionHash": "0xf1fa2140fd68dc832a3eb8bd14762c6d7f62978c15a44cd814eb964ddac6b4c8",
      "transactionIndex": "0xe",
      "blockHash": "0xd870556a5b01753e034d9e02c6d73120c1dcf6d19923e50ccf14bb5d275eef54",
      "blockNumber": "0xbb07971",
      "gasUsed": "0xfba1",
      "effectiveGasPrice": "0x66720b300",
      "from": "0x0ece75f3c36f7df2136dac7633165dbff53de3cd",
      "to": "0x1a44076050125825900e736c501f859c50fe728c",
      "contractAddress": null
    },
    {
      "status": "0x1",
      "cumulativeGasUsed": "0xc4ffcc",
      "logs": [
        {
          "address": "0x1a44076050125825900e736c501f859c50fe728c",
          "topics": [
            "0xcd6f92f5ac6185a5acfa02c92090746cec64d777269cbcd0ed031e396657a1c2"
          ],
          "data": "0x000000000000000000000000b0e96105543cba4b3d82911e7336f19bd03b036000000000000000000000000000000000000000000000000000000000000075c6000000000000000000000000937aba873827bf883ced83ca557697427eaa46ee",
          "blockHash": "0xd870556a5b01753e034d9e02c6d73120c1dcf6d19923e50ccf14bb5d275eef54",
          "blockNumber": "0xbb07971",
          "transactionHash": "0xd247563dc2dc325a404396f1abbd359b5171dc01bab49b39fe58c3612c843b7e",
          "transactionIndex": "0xf",
          "logIndex": "0xa4",
          "removed": false
        },
        {
          "address": "0x1a44076050125825900e736c501f859c50fe728c",
          "topics": [
            "0x4e0a5bbfa0c11a64effb1ada324b5437a17272e1aed9320398715ef71bb20928"
          ],
          "data": "0x000000000000000000000000b0e96105543cba4b3d82911e7336f19bd03b036000000000000000000000000000000000000000000000000000000000000075c600000000000000000000000000000000000000000000000000000000000000000000000000000000000000000000000000000000000000000000000000000000",
          "blockHash": "0xd870556a5b01753e034d9e02c6d73120c1dcf6d19923e50ccf14bb5d275eef54",
          "blockNumber": "0xbb07971",
          "transactionHash": "0xd247563dc2dc325a404396f1abbd359b5171dc01bab49b39fe58c3612c843b7e",
          "transactionIndex": "0xf",
          "logIndex": "0xa5",
          "removed": false
        }
      ],
      "logsBloom": "0x00000000000000000000020800000000000000000000000000000000001000020400000000000000000000000000000000000000000000000000000000000000000000000000000000000000000000000000000000800000000000000000000000000000000000000000000000000000000000000010000000000000000000100000000000000000000000000000000000000000000000000000000000000000000000000000000000000000000000000000000000000000000000000000000000000000000000000000000000000000000000000000000000000000000000000000000000000000000000000000000000000000010000000000000000000000",
      "type": "0x2",
      "transactionHash": "0xd247563dc2dc325a404396f1abbd359b5171dc01bab49b39fe58c3612c843b7e",
      "transactionIndex": "0xf",
      "blockHash": "0xd870556a5b01753e034d9e02c6d73120c1dcf6d19923e50ccf14bb5d275eef54",
      "blockNumber": "0xbb07971",
      "gasUsed": "0xfba1",
      "effectiveGasPrice": "0x66720b300",
      "from": "0x0ece75f3c36f7df2136dac7633165dbff53de3cd",
      "to": "0x1a44076050125825900e736c501f859c50fe728c",
      "contractAddress": null
    }
  ],
  "libraries": [],
  "pending": [],
  "returns": {},
  "timestamp": 1758182520488,
  "chain": 8217,
  "commit": "6c82bda"
}