{
  "transactions": [
    {
      "hash": "0x92aac3b791b3f5b28510bc17c45042fe32719ade6b7e9effb7caf40e0d36cd5f",
      "transactionType": "CALL",
      "contractName": null,
      "contractAddress": "0x1a44076050125825900e736c501f859c50fe728c",
      "function": "setSendLibrary(address,uint32,address)",
      "arguments": [
        "0xdF05e9AbF64dA281B3cBd8aC3581022eC4841FB2",
        "30184",
        "0x9714Ccf1dedeF14BaB5013625DB92746C1358cb4"
      ],
      "transaction": {
        "from": "0x0ece75f3c36f7df2136dac7633165dbff53de3cd",
        "to": "0x1a44076050125825900e736c501f859c50fe728c",
        "gas": "0x1378b",
        "value": "0x0",
        "input": "0x9535ff30000000000000000000000000df05e9abf64da281b3cbd8ac3581022ec4841fb200000000000000000000000000000000000000000000000000000000000075e80000000000000000000000009714ccf1dedef14bab5013625db92746c1358cb4",
        "nonce": "0xa",
        "chainId": "0x2019"
      },
      "additionalContracts": [],
      "isFixedGasLimit": false
    },
    {
      "hash": "0x7debcd6f854f2d1078924574e0356cecdd68883000dc81f93f6a39f1688de566",
      "transactionType": "CALL",
      "contractName": null,
      "contractAddress": "0x1a44076050125825900e736c501f859c50fe728c",
      "function": "setSendLibrary(address,uint32,address)",
      "arguments": [
        "0x04C37dc1b538E00b31e6bc883E16d97cD7937a10",
        "30184",
        "0x9714Ccf1dedeF14BaB5013625DB92746C1358cb4"
      ],
      "transaction": {
        "from": "0x0ece75f3c36f7df2136dac7633165dbff53de3cd",
        "to": "0x1a44076050125825900e736c501f859c50fe728c",
        "gas": "0x1378b",
        "value": "0x0",
        "input": "0x9535ff3000000000000000000000000004c37dc1b538e00b31e6bc883e16d97cd7937a1000000000000000000000000000000000000000000000000000000000000075e80000000000000000000000009714ccf1dedef14bab5013625db92746c1358cb4",
        "nonce": "0xb",
        "chainId": "0x2019"
      },
      "additionalContracts": [],
      "isFixedGasLimit": false
    },
    {
      "hash": "0xe620a22ab7dc93e59056f63267d2e6682b604366d43bfdde840cb16dd999f79c",
      "transactionType": "CALL",
      "contractName": null,
      "contractAddress": "0x1a44076050125825900e736c501f859c50fe728c",
      "function": "setSendLibrary(address,uint32,address)",
      "arguments": [
        "0x15858A57854BBf0DF60A737811d50e1Ee785f9bc",
        "30184",
        "0x9714Ccf1dedeF14BaB5013625DB92746C1358cb4"
      ],
      "transaction": {
        "from": "0x0ece75f3c36f7df2136dac7633165dbff53de3cd",
        "to": "0x1a44076050125825900e736c501f859c50fe728c",
        "gas": "0x1378b",
        "value": "0x0",
        "input": "0x9535ff3000000000000000000000000015858a57854bbf0df60a737811d50e1ee785f9bc00000000000000000000000000000000000000000000000000000000000075e80000000000000000000000009714ccf1dedef14bab5013625db92746c1358cb4",
        "nonce": "0xc",
        "chainId": "0x2019"
      },
      "additionalContracts": [],
      "isFixedGasLimit": false
    },
    {
      "hash": "0xa7c84b6475f1f9736a3d3357239eae2067531f132fc76c9a70ee9b081703acf7",
      "transactionType": "CALL",
      "contractName": null,
      "contractAddress": "0x1a44076050125825900e736c501f859c50fe728c",
      "function": "setSendLibrary(address,uint32,address)",
      "arguments": [
        "0x4Ba8D8083e7F3652CCB084C32652e68566E9Ef23",
        "30184",
        "0x9714Ccf1dedeF14BaB5013625DB92746C1358cb4"
      ],
      "transaction": {
        "from": "0x0ece75f3c36f7df2136dac7633165dbff53de3cd",
        "to": "0x1a44076050125825900e736c501f859c50fe728c",
        "gas": "0x1378b",
        "value": "0x0",
        "input": "0x9535ff300000000000000000000000004ba8d8083e7f3652ccb084c32652e68566e9ef2300000000000000000000000000000000000000000000000000000000000075e80000000000000000000000009714ccf1dedef14bab5013625db92746c1358cb4",
        "nonce": "0xd",
        "chainId": "0x2019"
      },
      "additionalContracts": [],
      "isFixedGasLimit": false
    },
    {
      "hash": "0x527004c1a731e9c9f664a2dd68200cdbac6e689453b83ccb6ef328788f84eb08",
      "transactionType": "CALL",
      "contractName": null,
      "contractAddress": "0x1a44076050125825900e736c501f859c50fe728c",
      "function": "setSendLibrary(address,uint32,address)",
      "arguments": [
        "0x007F735Fd070DeD4B0B58D430c392Ff0190eC20F",
        "30184",
        "0x9714Ccf1dedeF14BaB5013625DB92746C1358cb4"
      ],
      "transaction": {
        "from": "0x0ece75f3c36f7df2136dac7633165dbff53de3cd",
        "to": "0x1a44076050125825900e736c501f859c50fe728c",
        "gas": "0x149cd",
        "value": "0x0",
        "input": "0x9535ff30000000000000000000000000007f735fd070ded4b0b58d430c392ff0190ec20f00000000000000000000000000000000000000000000000000000000000075e80000000000000000000000009714ccf1dedef14bab5013625db92746c1358cb4",
        "nonce": "0xe",
        "chainId": "0x2019"
      },
      "additionalContracts": [],
      "isFixedGasLimit": false
    },
    {
      "hash": "0x40aa0723d4012c3cc5f4739789871c9612942ca4fb1ac8985f9ff89669fc4acf",
      "transactionType": "CALL",
      "contractName": null,
      "contractAddress": "0x1a44076050125825900e736c501f859c50fe728c",
      "function": "setReceiveLibrary(address,uint32,address,uint256)",
      "arguments": [
        "0xdF05e9AbF64dA281B3cBd8aC3581022eC4841FB2",
        "30150",
        "0x937AbA873827BF883CeD83CA557697427eAA46Ee",
        "0"
      ],
      "transaction": {
        "from": "0x0ece75f3c36f7df2136dac7633165dbff53de3cd",
        "to": "0x1a44076050125825900e736c501f859c50fe728c",
        "gas": "0x17001",
        "value": "0x0",
        "input": "0x6a14d715000000000000000000000000df05e9abf64da281b3cbd8ac3581022ec4841fb200000000000000000000000000000000000000000000000000000000000075c6000000000000000000000000937aba873827bf883ced83ca557697427eaa46ee0000000000000000000000000000000000000000000000000000000000000000",
        "nonce": "0xf",
        "chainId": "0x2019"
      },
      "additionalContracts": [],
      "isFixedGasLimit": false
    },
    {
      "hash": "0x13f242c1666e39e90e1b12019e16aefb2e25afac4ee1e4bf14c271dfaa2cdbd5",
      "transactionType": "CALL",
      "contractName": null,
      "contractAddress": "0x1a44076050125825900e736c501f859c50fe728c",
      "function": "setReceiveLibrary(address,uint32,address,uint256)",
      "arguments": [
        "0x04C37dc1b538E00b31e6bc883E16d97cD7937a10",
        "30150",
        "0x937AbA873827BF883CeD83CA557697427eAA46Ee",
        "0"
      ],
      "transaction": {
        "from": "0x0ece75f3c36f7df2136dac7633165dbff53de3cd",
        "to": "0x1a44076050125825900e736c501f859c50fe728c",
        "gas": "0x17001",
        "value": "0x0",
        "input": "0x6a14d71500000000000000000000000004c37dc1b538e00b31e6bc883e16d97cd7937a1000000000000000000000000000000000000000000000000000000000000075c6000000000000000000000000937aba873827bf883ced83ca557697427eaa46ee0000000000000000000000000000000000000000000000000000000000000000",
        "nonce": "0x10",
        "chainId": "0x2019"
      },
      "additionalContracts": [],
      "isFixedGasLimit": false
    },
    {
      "hash": "0x91154304773fd62e8962c55a7d2c8070db64c3d20446c9a021b1873b7e45f36e",
      "transactionType": "CALL",
      "contractName": null,
      "contractAddress": "0x1a44076050125825900e736c501f859c50fe728c",
      "function": "setReceiveLibrary(address,uint32,address,uint256)",
      "arguments": [
        "0x15858A57854BBf0DF60A737811d50e1Ee785f9bc",
        "30150",
        "0x937AbA873827BF883CeD83CA557697427eAA46Ee",
        "0"
      ],
      "transaction": {
        "from": "0x0ece75f3c36f7df2136dac7633165dbff53de3cd",
        "to": "0x1a44076050125825900e736c501f859c50fe728c",
        "gas": "0x17001",
        "value": "0x0",
        "input": "0x6a14d71500000000000000000000000015858a57854bbf0df60a737811d50e1ee785f9bc00000000000000000000000000000000000000000000000000000000000075c6000000000000000000000000937aba873827bf883ced83ca557697427eaa46ee0000000000000000000000000000000000000000000000000000000000000000",
        "nonce": "0x11",
        "chainId": "0x2019"
      },
      "additionalContracts": [],
      "isFixedGasLimit": false
    },
    {
      "hash": "0xf75b93d622d9919ab5e53a96cb67063a26adfe02f340936c50e377125c14f864",
      "transactionType": "CALL",
      "contractName": null,
      "contractAddress": "0x1a44076050125825900e736c501f859c50fe728c",
      "function": "setReceiveLibrary(address,uint32,address,uint256)",
      "arguments": [
        "0x4Ba8D8083e7F3652CCB084C32652e68566E9Ef23",
        "30150",
        "0x937AbA873827BF883CeD83CA557697427eAA46Ee",
        "0"
      ],
      "transaction": {
        "from": "0x0ece75f3c36f7df2136dac7633165dbff53de3cd",
        "to": "0x1a44076050125825900e736c501f859c50fe728c",
        "gas": "0x17001",
        "value": "0x0",
        "input": "0x6a14d7150000000000000000000000004ba8d8083e7f3652ccb084c32652e68566e9ef2300000000000000000000000000000000000000000000000000000000000075c6000000000000000000000000937aba873827bf883ced83ca557697427eaa46ee0000000000000000000000000000000000000000000000000000000000000000",
        "nonce": "0x12",
        "chainId": "0x2019"
      },
      "additionalContracts": [],
      "isFixedGasLimit": false
    },
    {
      "hash": "0x270ffa37f1d6b766f348759aa1f01b176f7845a61265bcc6af4d1bbe9800f829",
      "transactionType": "CALL",
      "contractName": null,
      "contractAddress": "0x1a44076050125825900e736c501f859c50fe728c",
      "function": "setReceiveLibrary(address,uint32,address,uint256)",
      "arguments": [
        "0x007F735Fd070DeD4B0B58D430c392Ff0190eC20F",
        "30150",
        "0x937AbA873827BF883CeD83CA557697427eAA46Ee",
        "0"
      ],
      "transaction": {
        "from": "0x0ece75f3c36f7df2136dac7633165dbff53de3cd",
        "to": "0x1a44076050125825900e736c501f859c50fe728c",
        "gas": "0x15b7f",
        "value": "0x0",
        "input": "0x6a14d715000000000000000000000000007f735fd070ded4b0b58d430c392ff0190ec20f00000000000000000000000000000000000000000000000000000000000075c6000000000000000000000000937aba873827bf883ced83ca557697427eaa46ee0000000000000000000000000000000000000000000000000000000000000000",
        "nonce": "0x13",
        "chainId": "0x2019"
      },
      "additionalContracts": [],
      "isFixedGasLimit": false
    }
  ],
  "receipts": [
    {
      "status": "0x1",
      "cumulativeGasUsed": "0xe18e",
      "logs": [
        {
          "address": "0x1a44076050125825900e736c501f859c50fe728c",
          "topics": [
            "0x4cff966ebee29a156dcb34cf72c1d06231fb1777f6bdf6e8089819232f002b1c"
          ],
          "data": "0x000000000000000000000000df05e9abf64da281b3cbd8ac3581022ec4841fb200000000000000000000000000000000000000000000000000000000000075e80000000000000000000000009714ccf1dedef14bab5013625db92746c1358cb4",
          "blockHash": "0x96fa73367c83179fa8bb2d52af4b59954f99270f9f7142d63c301e9eb30e8225",
          "blockNumber": "0xbaa6eef",
          "transactionHash": "0x92aac3b791b3f5b28510bc17c45042fe32719ade6b7e9effb7caf40e0d36cd5f",
          "transactionIndex": "0x0",
          "logIndex": "0x0",
          "removed": false
        }
      ],
      "logsBloom": "0x00000000000000000000000000000000000200000000000000000000001000000000000000000000000000000000000000000000000000000000000001000000000000000000000000000000000000000000000000000000000000000000000000000000000000000000000000000000000000000010000000000000000000000000000000000000000000000000000000000000000000000000000000000000000000000000000000000000000000000000000000000000000000000000000000000000000000000000000000000000000000000000000000000000000000000040000000000000000000000000000000000000010000000000000000000000",
      "type": "0x2",
      "transactionHash": "0x92aac3b791b3f5b28510bc17c45042fe32719ade6b7e9effb7caf40e0d36cd5f",
      "transactionIndex": "0x0",
      "blockHash": "0x96fa73367c83179fa8bb2d52af4b59954f99270f9f7142d63c301e9eb30e8225",
      "blockNumber": "0xbaa6eef",
      "gasUsed": "0xe18e",
      "effectiveGasPrice": "0x66720b300",
      "from": "0x0ece75f3c36f7df2136dac7633165dbff53de3cd",
      "to": "0x1a44076050125825900e736c501f859c50fe728c",
      "contractAddress": null
    },
    {
      "status": "0x1",
      "cumulativeGasUsed": "0x1c31c",
      "logs": [
        {
          "address": "0x1a44076050125825900e736c501f859c50fe728c",
          "topics": [
            "0x4cff966ebee29a156dcb34cf72c1d06231fb1777f6bdf6e8089819232f002b1c"
          ],
          "data": "0x00000000000000000000000004c37dc1b538e00b31e6bc883e16d97cd7937a1000000000000000000000000000000000000000000000000000000000000075e80000000000000000000000009714ccf1dedef14bab5013625db92746c1358cb4",
          "blockHash": "0x96fa73367c83179fa8bb2d52af4b59954f99270f9f7142d63c301e9eb30e8225",
          "blockNumber": "0xbaa6eef",
          "transactionHash": "0x7debcd6f854f2d1078924574e0356cecdd68883000dc81f93f6a39f1688de566",
          "transactionIndex": "0x1",
          "logIndex": "0x1",
          "removed": false
        }
      ],
      "logsBloom": "0x00000000000000000000000000000000000200000000000000000000001000000000000000000000000000000000000000000000000000000000000001000000000000000000000000000000000000000000000000000000000000000000000000000000000000000000000000000000000000000010000000000000000000000000000000000000000000000000000000000000000000000000000000000000000000000000000000000000000000000000000000000000000000000000000000000000000000000000000000000000000000000000000000000000000000000040000000000000000000000000000000000000010000000000000000000000",
      "type": "0x2",
      "transactionHash": "0x7debcd6f854f2d1078924574e0356cecdd68883000dc81f93f6a39f1688de566",
      "transactionIndex": "0x1",
      "blockHash": "0x96fa73367c83179fa8bb2d52af4b59954f99270f9f7142d63c301e9eb30e8225",
      "blockNumber": "0xbaa6eef",
      "gasUsed": "0xe18e",
      "effectiveGasPrice": "0x66720b300",
      "from": "0x0ece75f3c36f7df2136dac7633165dbff53de3cd",
      "to": "0x1a44076050125825900e736c501f859c50fe728c",
      "contractAddress": null
    },
    {
      "status": "0x1",
      "cumulativeGasUsed": "0x2a4aa",
      "logs": [
        {
          "address": "0x1a44076050125825900e736c501f859c50fe728c",
          "topics": [
            "0x4cff966ebee29a156dcb34cf72c1d06231fb1777f6bdf6e8089819232f002b1c"
          ],
          "data": "0x00000000000000000000000015858a57854bbf0df60a737811d50e1ee785f9bc00000000000000000000000000000000000000000000000000000000000075e80000000000000000000000009714ccf1dedef14bab5013625db92746c1358cb4",
          "blockHash": "0x96fa73367c83179fa8bb2d52af4b59954f99270f9f7142d63c301e9eb30e8225",
          "blockNumber": "0xbaa6eef",
          "transactionHash": "0xe620a22ab7dc93e59056f63267d2e6682b604366d43bfdde840cb16dd999f79c",
          "transactionIndex": "0x2",
          "logIndex": "0x2",
          "removed": false
        }
      ],
      "logsBloom": "0x00000000000000000000000000000000000200000000000000000000001000000000000000000000000000000000000000000000000000000000000001000000000000000000000000000000000000000000000000000000000000000000000000000000000000000000000000000000000000000010000000000000000000000000000000000000000000000000000000000000000000000000000000000000000000000000000000000000000000000000000000000000000000000000000000000000000000000000000000000000000000000000000000000000000000000040000000000000000000000000000000000000010000000000000000000000",
      "type": "0x2",
      "transactionHash": "0xe620a22ab7dc93e59056f63267d2e6682b604366d43bfdde840cb16dd999f79c",
      "transactionIndex": "0x2",
      "blockHash": "0x96fa73367c83179fa8bb2d52af4b59954f99270f9f7142d63c301e9eb30e8225",
      "blockNumber": "0xbaa6eef",
      "gasUsed": "0xe18e",
      "effectiveGasPrice": "0x66720b300",
      "from": "0x0ece75f3c36f7df2136dac7633165dbff53de3cd",
      "to": "0x1a44076050125825900e736c501f859c50fe728c",
      "contractAddress": null
    },
    {
      "status": "0x1",
      "cumulativeGasUsed": "0x38638",
      "logs": [
        {
          "address": "0x1a44076050125825900e736c501f859c50fe728c",
          "topics": [
            "0x4cff966ebee29a156dcb34cf72c1d06231fb1777f6bdf6e8089819232f002b1c"
          ],
          "data": "0x0000000000000000000000004ba8d8083e7f3652ccb084c32652e68566e9ef2300000000000000000000000000000000000000000000000000000000000075e80000000000000000000000009714ccf1dedef14bab5013625db92746c1358cb4",
          "blockHash": "0x96fa73367c83179fa8bb2d52af4b59954f99270f9f7142d63c301e9eb30e8225",
          "blockNumber": "0xbaa6eef",
          "transactionHash": "0xa7c84b6475f1f9736a3d3357239eae2067531f132fc76c9a70ee9b081703acf7",
          "transactionIndex": "0x3",
          "logIndex": "0x3",
          "removed": false
        }
      ],
      "logsBloom": "0x00000000000000000000000000000000000200000000000000000000001000000000000000000000000000000000000000000000000000000000000001000000000000000000000000000000000000000000000000000000000000000000000000000000000000000000000000000000000000000010000000000000000000000000000000000000000000000000000000000000000000000000000000000000000000000000000000000000000000000000000000000000000000000000000000000000000000000000000000000000000000000000000000000000000000000040000000000000000000000000000000000000010000000000000000000000",
      "type": "0x2",
      "transactionHash": "0xa7c84b6475f1f9736a3d3357239eae2067531f132fc76c9a70ee9b081703acf7",
      "transactionIndex": "0x3",
      "blockHash": "0x96fa73367c83179fa8bb2d52af4b59954f99270f9f7142d63c301e9eb30e8225",
      "blockNumber": "0xbaa6eef",
      "gasUsed": "0xe18e",
      "effectiveGasPrice": "0x66720b300",
      "from": "0x0ece75f3c36f7df2136dac7633165dbff53de3cd",
      "to": "0x1a44076050125825900e736c501f859c50fe728c",
      "contractAddress": null
    },
    {
      "status": "0x1",
      "cumulativeGasUsed": "0x467ba",
      "logs": [
        {
          "address": "0x1a44076050125825900e736c501f859c50fe728c",
          "topics": [
            "0x4cff966ebee29a156dcb34cf72c1d06231fb1777f6bdf6e8089819232f002b1c"
          ],
          "data": "0x000000000000000000000000007f735fd070ded4b0b58d430c392ff0190ec20f00000000000000000000000000000000000000000000000000000000000075e80000000000000000000000009714ccf1dedef14bab5013625db92746c1358cb4",
          "blockHash": "0x96fa73367c83179fa8bb2d52af4b59954f99270f9f7142d63c301e9eb30e8225",
          "blockNumber": "0xbaa6eef",
          "transactionHash": "0x527004c1a731e9c9f664a2dd68200cdbac6e689453b83ccb6ef328788f84eb08",
          "transactionIndex": "0x4",
          "logIndex": "0x4",
          "removed": false
        }
      ],
      "logsBloom": "0x00000000000000000000000000000000000200000000000000000000001000000000000000000000000000000000000000000000000000000000000001000000000000000000000000000000000000000000000000000000000000000000000000000000000000000000000000000000000000000010000000000000000000000000000000000000000000000000000000000000000000000000000000000000000000000000000000000000000000000000000000000000000000000000000000000000000000000000000000000000000000000000000000000000000000000040000000000000000000000000000000000000010000000000000000000000",
      "type": "0x2",
      "transactionHash": "0x527004c1a731e9c9f664a2dd68200cdbac6e689453b83ccb6ef328788f84eb08",
      "transactionIndex": "0x4",
      "blockHash": "0x96fa73367c83179fa8bb2d52af4b59954f99270f9f7142d63c301e9eb30e8225",
      "blockNumber": "0xbaa6eef",
      "gasUsed": "0xe182",
      "effectiveGasPrice": "0x66720b300",
      "from": "0x0ece75f3c36f7df2136dac7633165dbff53de3cd",
      "to": "0x1a44076050125825900e736c501f859c50fe728c",
      "contractAddress": null
    },
    {
      "status": "0x1",
      "cumulativeGasUsed": "0x5635b",
      "logs": [
        {
          "address": "0x1a44076050125825900e736c501f859c50fe728c",
          "topics": [
            "0xcd6f92f5ac6185a5acfa02c92090746cec64d777269cbcd0ed031e396657a1c2"
          ],
          "data": "0x000000000000000000000000df05e9abf64da281b3cbd8ac3581022ec4841fb200000000000000000000000000000000000000000000000000000000000075c6000000000000000000000000937aba873827bf883ced83ca557697427eaa46ee",
          "blockHash": "0x96fa73367c83179fa8bb2d52af4b59954f99270f9f7142d63c301e9eb30e8225",
          "blockNumber": "0xbaa6eef",
          "transactionHash": "0x40aa0723d4012c3cc5f4739789871c9612942ca4fb1ac8985f9ff89669fc4acf",
          "transactionIndex": "0x5",
          "logIndex": "0x5",
          "removed": false
        },
        {
          "address": "0x1a44076050125825900e736c501f859c50fe728c",
          "topics": [
            "0x4e0a5bbfa0c11a64effb1ada324b5437a17272e1aed9320398715ef71bb20928"
          ],
          "data": "0x000000000000000000000000df05e9abf64da281b3cbd8ac3581022ec4841fb200000000000000000000000000000000000000000000000000000000000075c600000000000000000000000000000000000000000000000000000000000000000000000000000000000000000000000000000000000000000000000000000000",
          "blockHash": "0x96fa73367c83179fa8bb2d52af4b59954f99270f9f7142d63c301e9eb30e8225",
          "blockNumber": "0xbaa6eef",
          "transactionHash": "0x40aa0723d4012c3cc5f4739789871c9612942ca4fb1ac8985f9ff89669fc4acf",
          "transactionIndex": "0x5",
          "logIndex": "0x6",
          "removed": false
        }
      ],
      "logsBloom": "0x00000000000000000000020800000000000000000000000000000000001000020400000000000000000000000000000000000000000000000000000000000000000000000000000000000000000000000000000000800000000000000000000000000000000000000000000000000000000000000010000000000000000000100000000000000000000000000000000000000000000000000000000000000000000000000000000000000000000000000000000000000000000000000000000000000000000000000000000000000000000000000000000000000000000000000000000000000000000000000000000000000000010000000000000000000000",
      "type": "0x2",
      "transactionHash": "0x40aa0723d4012c3cc5f4739789871c9612942ca4fb1ac8985f9ff89669fc4acf",
      "transactionIndex": "0x5",
      "blockHash": "0x96fa73367c83179fa8bb2d52af4b59954f99270f9f7142d63c301e9eb30e8225",
      "blockNumber": "0xbaa6eef",
      "gasUsed": "0xfba1",
      "effectiveGasPrice": "0x66720b300",
      "from": "0x0ece75f3c36f7df2136dac7633165dbff53de3cd",
      "to": "0x1a44076050125825900e736c501f859c50fe728c",
      "contractAddress": null
    },
    {
      "status": "0x1",
      "cumulativeGasUsed": "0x65efc",
      "logs": [
        {
          "address": "0x1a44076050125825900e736c501f859c50fe728c",
          "topics": [
            "0xcd6f92f5ac6185a5acfa02c92090746cec64d777269cbcd0ed031e396657a1c2"
          ],
          "data": "0x00000000000000000000000004c37dc1b538e00b31e6bc883e16d97cd7937a1000000000000000000000000000000000000000000000000000000000000075c6000000000000000000000000937aba873827bf883ced83ca557697427eaa46ee",
          "blockHash": "0x96fa73367c83179fa8bb2d52af4b59954f99270f9f7142d63c301e9eb30e8225",
          "blockNumber": "0xbaa6eef",
          "transactionHash": "0x13f242c1666e39e90e1b12019e16aefb2e25afac4ee1e4bf14c271dfaa2cdbd5",
          "transactionIndex": "0x6",
          "logIndex": "0x7",
          "removed": false
        },
        {
          "address": "0x1a44076050125825900e736c501f859c50fe728c",
          "topics": [
            "0x4e0a5bbfa0c11a64effb1ada324b5437a17272e1aed9320398715ef71bb20928"
          ],
          "data": "0x00000000000000000000000004c37dc1b538e00b31e6bc883e16d97cd7937a1000000000000000000000000000000000000000000000000000000000000075c600000000000000000000000000000000000000000000000000000000000000000000000000000000000000000000000000000000000000000000000000000000",
          "blockHash": "0x96fa73367c83179fa8bb2d52af4b59954f99270f9f7142d63c301e9eb30e8225",
          "blockNumber": "0xbaa6eef",
          "transactionHash": "0x13f242c1666e39e90e1b12019e16aefb2e25afac4ee1e4bf14c271dfaa2cdbd5",
          "transactionIndex": "0x6",
          "logIndex": "0x8",
          "removed": false
        }
      ],
      "logsBloom": "0x00000000000000000000020800000000000000000000000000000000001000020400000000000000000000000000000000000000000000000000000000000000000000000000000000000000000000000000000000800000000000000000000000000000000000000000000000000000000000000010000000000000000000100000000000000000000000000000000000000000000000000000000000000000000000000000000000000000000000000000000000000000000000000000000000000000000000000000000000000000000000000000000000000000000000000000000000000000000000000000000000000000010000000000000000000000",
      "type": "0x2",
      "transactionHash": "0x13f242c1666e39e90e1b12019e16aefb2e25afac4ee1e4bf14c271dfaa2cdbd5",
      "transactionIndex": "0x6",
      "blockHash": "0x96fa73367c83179fa8bb2d52af4b59954f99270f9f7142d63c301e9eb30e8225",
      "blockNumber": "0xbaa6eef",
      "gasUsed": "0xfba1",
      "effectiveGasPrice": "0x66720b300",
      "from": "0x0ece75f3c36f7df2136dac7633165dbff53de3cd",
      "to": "0x1a44076050125825900e736c501f859c50fe728c",
      "contractAddress": null
    },
    {
      "status": "0x1",
      "cumulativeGasUsed": "0x7d28de",
      "logs": [
        {
          "address": "0x1a44076050125825900e736c501f859c50fe728c",
          "topics": [
            "0xcd6f92f5ac6185a5acfa02c92090746cec64d777269cbcd0ed031e396657a1c2"
          ],
          "data": "0x00000000000000000000000015858a57854bbf0df60a737811d50e1ee785f9bc00000000000000000000000000000000000000000000000000000000000075c6000000000000000000000000937aba873827bf883ced83ca557697427eaa46ee",
          "blockHash": "0x35a1ce74dfb8005c56b78595e6abd6d9cc21b3fb458dcbabfc097b827a3c1b26",
          "blockNumber": "0xbaa6ef0",
          "transactionHash": "0x91154304773fd62e8962c55a7d2c8070db64c3d20446c9a021b1873b7e45f36e",
          "transactionIndex": "0x2",
          "logIndex": "0x64",
          "removed": false
        },
        {
          "address": "0x1a44076050125825900e736c501f859c50fe728c",
          "topics": [
            "0x4e0a5bbfa0c11a64effb1ada324b5437a17272e1aed9320398715ef71bb20928"
          ],
          "data": "0x00000000000000000000000015858a57854bbf0df60a737811d50e1ee785f9bc00000000000000000000000000000000000000000000000000000000000075c600000000000000000000000000000000000000000000000000000000000000000000000000000000000000000000000000000000000000000000000000000000",
          "blockHash": "0x35a1ce74dfb8005c56b78595e6abd6d9cc21b3fb458dcbabfc097b827a3c1b26",
          "blockNumber": "0xbaa6ef0",
          "transactionHash": "0x91154304773fd62e8962c55a7d2c8070db64c3d20446c9a021b1873b7e45f36e",
          "transactionIndex": "0x2",
          "logIndex": "0x65",
          "removed": false
        }
      ],
      "logsBloom": "0x00000000000000000000020800000000000000000000000000000000001000020400000000000000000000000000000000000000000000000000000000000000000000000000000000000000000000000000000000800000000000000000000000000000000000000000000000000000000000000010000000000000000000100000000000000000000000000000000000000000000000000000000000000000000000000000000000000000000000000000000000000000000000000000000000000000000000000000000000000000000000000000000000000000000000000000000000000000000000000000000000000000010000000000000000000000",
      "type": "0x2",
      "transactionHash": "0x91154304773fd62e8962c55a7d2c8070db64c3d20446c9a021b1873b7e45f36e",
      "transactionIndex": "0x2",
      "blockHash": "0x35a1ce74dfb8005c56b78595e6abd6d9cc21b3fb458dcbabfc097b827a3c1b26",
      "blockNumber": "0xbaa6ef0",
      "gasUsed": "0xfba1",
      "effectiveGasPrice": "0x66720b300",
      "from": "0x0ece75f3c36f7df2136dac7633165dbff53de3cd",
      "to": "0x1a44076050125825900e736c501f859c50fe728c",
      "contractAddress": null
    },
    {
      "status": "0x1",
      "cumulativeGasUsed": "0x7e247f",
      "logs": [
        {
          "address": "0x1a44076050125825900e736c501f859c50fe728c",
          "topics": [
            "0xcd6f92f5ac6185a5acfa02c92090746cec64d777269cbcd0ed031e396657a1c2"
          ],
          "data": "0x0000000000000000000000004ba8d8083e7f3652ccb084c32652e68566e9ef2300000000000000000000000000000000000000000000000000000000000075c6000000000000000000000000937aba873827bf883ced83ca557697427eaa46ee",
          "blockHash": "0x35a1ce74dfb8005c56b78595e6abd6d9cc21b3fb458dcbabfc097b827a3c1b26",
          "blockNumber": "0xbaa6ef0",
          "transactionHash": "0xf75b93d622d9919ab5e53a96cb67063a26adfe02f340936c50e377125c14f864",
          "transactionIndex": "0x3",
          "logIndex": "0x66",
          "removed": false
        },
        {
          "address": "0x1a44076050125825900e736c501f859c50fe728c",
          "topics": [
            "0x4e0a5bbfa0c11a64effb1ada324b5437a17272e1aed9320398715ef71bb20928"
          ],
          "data": "0x0000000000000000000000004ba8d8083e7f3652ccb084c32652e68566e9ef2300000000000000000000000000000000000000000000000000000000000075c600000000000000000000000000000000000000000000000000000000000000000000000000000000000000000000000000000000000000000000000000000000",
          "blockHash": "0x35a1ce74dfb8005c56b78595e6abd6d9cc21b3fb458dcbabfc097b827a3c1b26",
          "blockNumber": "0xbaa6ef0",
          "transactionHash": "0xf75b93d622d9919ab5e53a96cb67063a26adfe02f340936c50e377125c14f864",
          "transactionIndex": "0x3",
          "logIndex": "0x67",
          "removed": false
        }
      ],
      "logsBloom": "0x00000000000000000000020800000000000000000000000000000000001000020400000000000000000000000000000000000000000000000000000000000000000000000000000000000000000000000000000000800000000000000000000000000000000000000000000000000000000000000010000000000000000000100000000000000000000000000000000000000000000000000000000000000000000000000000000000000000000000000000000000000000000000000000000000000000000000000000000000000000000000000000000000000000000000000000000000000000000000000000000000000000010000000000000000000000",
      "type": "0x2",
      "transactionHash": "0xf75b93d622d9919ab5e53a96cb67063a26adfe02f340936c50e377125c14f864",
      "transactionIndex": "0x3",
      "blockHash": "0x35a1ce74dfb8005c56b78595e6abd6d9cc21b3fb458dcbabfc097b827a3c1b26",
      "blockNumber": "0xbaa6ef0",
      "gasUsed": "0xfba1",
      "effectiveGasPrice": "0x66720b300",
      "from": "0x0ece75f3c36f7df2136dac7633165dbff53de3cd",
      "to": "0x1a44076050125825900e736c501f859c50fe728c",
      "contractAddress": null
    },
    {
      "status": "0x1",
      "cumulativeGasUsed": "0x7f2014",
      "logs": [
        {
          "address": "0x1a44076050125825900e736c501f859c50fe728c",
          "topics": [
            "0xcd6f92f5ac6185a5acfa02c92090746cec64d777269cbcd0ed031e396657a1c2"
          ],
          "data": "0x000000000000000000000000007f735fd070ded4b0b58d430c392ff0190ec20f00000000000000000000000000000000000000000000000000000000000075c6000000000000000000000000937aba873827bf883ced83ca557697427eaa46ee",
          "blockHash": "0x35a1ce74dfb8005c56b78595e6abd6d9cc21b3fb458dcbabfc097b827a3c1b26",
          "blockNumber": "0xbaa6ef0",
          "transactionHash": "0x270ffa37f1d6b766f348759aa1f01b176f7845a61265bcc6af4d1bbe9800f829",
          "transactionIndex": "0x4",
          "logIndex": "0x68",
          "removed": false
        },
        {
          "address": "0x1a44076050125825900e736c501f859c50fe728c",
          "topics": [
            "0x4e0a5bbfa0c11a64effb1ada324b5437a17272e1aed9320398715ef71bb20928"
          ],
          "data": "0x000000000000000000000000007f735fd070ded4b0b58d430c392ff0190ec20f00000000000000000000000000000000000000000000000000000000000075c600000000000000000000000000000000000000000000000000000000000000000000000000000000000000000000000000000000000000000000000000000000",
          "blockHash": "0x35a1ce74dfb8005c56b78595e6abd6d9cc21b3fb458dcbabfc097b827a3c1b26",
          "blockNumber": "0xbaa6ef0",
          "transactionHash": "0x270ffa37f1d6b766f348759aa1f01b176f7845a61265bcc6af4d1bbe9800f829",
          "transactionIndex": "0x4",
          "logIndex": "0x69",
          "removed": false
        }
      ],
      "logsBloom": "0x00000000000000000000020800000000000000000000000000000000001000020400000000000000000000000000000000000000000000000000000000000000000000000000000000000000000000000000000000800000000000000000000000000000000000000000000000000000000000000010000000000000000000100000000000000000000000000000000000000000000000000000000000000000000000000000000000000000000000000000000000000000000000000000000000000000000000000000000000000000000000000000000000000000000000000000000000000000000000000000000000000000010000000000000000000000",
      "type": "0x2",
      "transactionHash": "0x270ffa37f1d6b766f348759aa1f01b176f7845a61265bcc6af4d1bbe9800f829",
      "transactionIndex": "0x4",
      "blockHash": "0x35a1ce74dfb8005c56b78595e6abd6d9cc21b3fb458dcbabfc097b827a3c1b26",
      "blockNumber": "0xbaa6ef0",
      "gasUsed": "0xfb95",
      "effectiveGasPrice": "0x66720b300",
      "from": "0x0ece75f3c36f7df2136dac7633165dbff53de3cd",
      "to": "0x1a44076050125825900e736c501f859c50fe728c",
      "contractAddress": null
    }
  ],
  "libraries": [],
  "pending": [],
  "returns": {},
  "timestamp": 1757782758041,
  "chain": 8217,
  "commit": "e54a7ff"
}