{
  "transactions": [
    {
      "hash": "0x8e770184c2a697a4f3cdc4aaf9b29053b543b09247efd11c14b7dbe82fdc37f1",
      "transactionType": "CALL",
      "contractName": null,
      "contractAddress": "0x483f98e04c6aecb40563b443aa4e8c8d7662cc0f",
      "function": "withdrawLiquidity(uint256)",
      "arguments": [
        "1000000"
      ],
      "transaction": {
        "from": "0x0ece75f3c36f7df2136dac7633165dbff53de3cd",
        "to": "0x483f98e04c6aecb40563b443aa4e8c8d7662cc0f",
        "gas": "0x189f8",
        "value": "0x0",
        "input": "0x0a861f2a00000000000000000000000000000000000000000000000000000000000f4240",
        "nonce": "0x188",
        "chainId": "0x2019"
      },
      "additionalContracts": [],
      "isFixedGasLimit": false
    }
  ],
  "receipts": [
    {
      "status": "0x1",
      "cumulativeGasUsed": "0x10d62",
      "logs": [
        {
          "address": "0xd077a400968890eacc75cdc901f0356c943e4fdb",
          "topics": [
            "0xddf252ad1be2c89b69c2b068fc378daa952ba7f163c4a11628f55a4df523b3ef",
            "0x000000000000000000000000483f98e04c6aecb40563b443aa4e8c8d7662cc0f",
            "0x0000000000000000000000000ece75f3c36f7df2136dac7633165dbff53de3cd"
          ],
          "data": "0x00000000000000000000000000000000000000000000000000000000000f4240",
          "blockHash": "0x47bc2f88acc244056a973de4b233fd23e943aa2ba75b1198a1b7b930c81f4141",
          "blockNumber": "0xbb4d94e",
          "transactionHash": "0x8e770184c2a697a4f3cdc4aaf9b29053b543b09247efd11c14b7dbe82fdc37f1",
          "transactionIndex": "0x0",
          "logIndex": "0x0",
          "removed": false
        },
        {
          "address": "0x483f98e04c6aecb40563b443aa4e8c8d7662cc0f",
          "topics": [
            "0xac927268ea9ae2e55027e6ab727fc2db8e3ea48c56c658223a1074567e4298c0"
          ],
          "data": "0x0000000000000000000000000ece75f3c36f7df2136dac7633165dbff53de3cd00000000000000000000000000000000000000000000000000000000000f424000000000000000000000000000000000000000000000000000000000000f4240",
          "blockHash": "0x47bc2f88acc244056a973de4b233fd23e943aa2ba75b1198a1b7b930c81f4141",
          "blockNumber": "0xbb4d94e",
          "transactionHash": "0x8e770184c2a697a4f3cdc4aaf9b29053b543b09247efd11c14b7dbe82fdc37f1",
          "transactionIndex": "0x0",
          "logIndex": "0x1",
          "removed": false
        }
      ],
      "logsBloom": "0x20000000000000000000000000000000000000000000000000000000000000000000000200000000000000400000000000000000000000080000000000000000000000000000000000000009000000000000000008000000000000000000000000000000000000000000000000000000000000000000200000000010000000000000000000000000000000000000200000000000000000000004000000000000000000000000000000000800000000000000000000800000000000000000000000000002000000080000000000000000000000000000000000000000000000000000004000200000000000000000000000000000000000000000000000000000",
      "type": "0x2",
      "transactionHash": "0x8e770184c2a697a4f3cdc4aaf9b29053b543b09247efd11c14b7dbe82fdc37f1",
      "transactionIndex": "0x0",
      "blockHash": "0x47bc2f88acc244056a973de4b233fd23e943aa2ba75b1198a1b7b930c81f4141",
      "blockNumber": "0xbb4d94e",
      "gasUsed": "0x10d62",
      "effectiveGasPrice": "0x66720b300",
      "from": "0x0ece75f3c36f7df2136dac7633165dbff53de3cd",
      "to": "0x483f98e04c6aecb40563b443aa4e8c8d7662cc0f",
      "contractAddress": null
    }
  ],
  "libraries": [],
  "pending": [],
  "returns": {},
  "timestamp": 1758474235090,
  "chain": 8217,
  "commit": "1a263c0"
}