{
  "transactions": [
    {
      "hash": "0x10d1fe93f3535437a95ab27b581421d2c201541327065f5080523cac39ff0ed8",
      "transactionType": "CALL",
      "contractName": null,
      "contractAddress": "0xc3be8ab4ca0cefe3119a765b324bbdf54a16a65b",
      "function": "setOperator(address,bool)",
      "arguments": [
        "0x0EcE75f3C36f7Df2136Dac7633165DBff53dE3CD",
        "true"
      ],
      "transaction": {
        "from": "0x0ece75f3c36f7df2136dac7633165dbff53de3cd",
        "to": "0xc3be8ab4ca0cefe3119a765b324bbdf54a16a65b",
        "gas": "0x10b3d",
        "value": "0x0",
        "input": "0x558a72970000000000000000000000000ece75f3c36f7df2136dac7633165dbff53de3cd0000000000000000000000000000000000000000000000000000000000000001",
        "nonce": "0x95",
        "chainId": "0x2105"
      },
      "additionalContracts": [],
      "isFixedGasLimit": false
    },
    {
      "hash": "0x99dcbe0dfb3a38588c93bca2297a7e1762383245fb5078d0dce0c8aa921c8c31",
      "transactionType": "CALL",
      "contractName": null,
      "contractAddress": "0xc3be8ab4ca0cefe3119a765b324bbdf54a16a65b",
      "function": "mint(address,uint256)",
      "arguments": [
        "0x0EcE75f3C36f7Df2136Dac7633165DBff53dE3CD",
        "100000000000"
      ],
      "transaction": {
        "from": "0x0ece75f3c36f7df2136dac7633165dbff53de3cd",
        "to": "0xc3be8ab4ca0cefe3119a765b324bbdf54a16a65b",
        "gas": "0x18032",
        "value": "0x0",
        "input": "0x40c10f190000000000000000000000000ece75f3c36f7df2136dac7633165dbff53de3cd000000000000000000000000000000000000000000000000000000174876e800",
        "nonce": "0x96",
        "chainId": "0x2105"
      },
      "additionalContracts": [],
      "isFixedGasLimit": false
    }
  ],
  "receipts": [
    {
      "status": "0x1",
      "cumulativeGasUsed": "0x6ed83a",
      "logs": [],
      "logsBloom": "0x00000000000000000000000000000000000000000000000000000000000000000000000000000000000000000000000000000000000000000000000000000000000000000000000000000000000000000000000000000000000000000000000000000000000000000000000000000000000000000000000000000000000000000000000000000000000000000000000000000000000000000000000000000000000000000000000000000000000000000000000000000000000000000000000000000000000000000000000000000000000000000000000000000000000000000000000000000000000000000000000000000000000000000000000000000000",
      "type": "0x2",
      "transactionHash": "0x10d1fe93f3535437a95ab27b581421d2c201541327065f5080523cac39ff0ed8",
      "transactionIndex": "0x45",
      "blockHash": "0x5717d5fbada49e878a62eb0ebf240a3a4fb31f6d0ffb9ab5b5527ef99dbac225",
      "blockNumber": "0x22096fe",
      "gasUsed": "0xb6bb",
      "effectiveGasPrice": "0x54ea06",
      "from": "0x0ece75f3c36f7df2136dac7633165dbff53de3cd",
      "to": "0xc3be8ab4ca0cefe3119a765b324bbdf54a16a65b",
      "contractAddress": null,
      "l1BaseFeeScalar": "0x8dd",
      "l1BlobBaseFee": "0x1",
      "l1BlobBaseFeeScalar": "0x101c12",
      "l1Fee": "0x23604168",
      "l1GasPrice": "0x9be8f97",
      "l1GasUsed": "0x640"
    },
    {
      "status": "0x1",
      "cumulativeGasUsed": "0x6fee61",
      "logs": [
        {
          "address": "0xc3be8ab4ca0cefe3119a765b324bbdf54a16a65b",
          "topics": [
            "0xddf252ad1be2c89b69c2b068fc378daa952ba7f163c4a11628f55a4df523b3ef",
            "0x0000000000000000000000000000000000000000000000000000000000000000",
            "0x0000000000000000000000000ece75f3c36f7df2136dac7633165dbff53de3cd"
          ],
          "data": "0x000000000000000000000000000000000000000000000000000000174876e800",
          "blockHash": "0x5717d5fbada49e878a62eb0ebf240a3a4fb31f6d0ffb9ab5b5527ef99dbac225",
          "blockNumber": "0x22096fe",
          "blockTimestamp": "0x68cb8adf",
          "transactionHash": "0x99dcbe0dfb3a38588c93bca2297a7e1762383245fb5078d0dce0c8aa921c8c31",
          "transactionIndex": "0x46",
          "logIndex": "0x6e",
          "removed": false
        }
      ],
      "logsBloom": "0x00000000000000000000000000000000010000000000000000000000000000000000000000000000000000000000000000000000000000000000000000000000000000000000000000000008000000000000000000000000000000000000000000000000020000000000000000000800000000000000200000000010000000000000000000000000000000000000000000000000000000000000000000000000000000000000000000000800000000000000000000000000000000000000000800000002000000000000000000000000000000000000000000400000000020000000000000200000000000000000000000000000000000000000000000000000",
      "type": "0x2",
      "transactionHash": "0x99dcbe0dfb3a38588c93bca2297a7e1762383245fb5078d0dce0c8aa921c8c31",
      "transactionIndex": "0x46",
      "blockHash": "0x5717d5fbada49e878a62eb0ebf240a3a4fb31f6d0ffb9ab5b5527ef99dbac225",
      "blockNumber": "0x22096fe",
      "gasUsed": "0x11627",
      "effectiveGasPrice": "0x54ea06",
      "from": "0x0ece75f3c36f7df2136dac7633165dbff53de3cd",
      "to": "0xc3be8ab4ca0cefe3119a765b324bbdf54a16a65b",
      "contractAddress": null,
      "l1BaseFeeScalar": "0x8dd",
      "l1BlobBaseFee": "0x1",
      "l1BlobBaseFeeScalar": "0x101c12",
      "l1Fee": "0x23604168",
      "l1GasPrice": "0x9be8f97",
      "l1GasUsed": "0x640"
    }
  ],
  "libraries": [],
  "pending": [],
  "returns": {},
  "timestamp": 1758169821832,
  "chain": 8453,
  "commit": "6c82bda"
}