{
  "transactions": [
    {
      "hash": "0xfd2ee53f553bdb88d17f503e0fcceab86e71de49a76defd115af0508c0eb430b",
      "transactionType": "CALL",
      "contractName": null,
      "contractAddress": "0xa971cd2714fbcc9a942b09bc391a724df9338206",
      "function": "setOftAddress(address,address)",
      "arguments": [
        "0xd077A400968890Eacc75cdc901F0356c943e4fDb",
        "0xdF05e9AbF64dA281B3cBd8aC3581022eC4841FB2"
      ],
      "transaction": {
        "from": "0x0ece75f3c36f7df2136dac7633165dbff53de3cd",
        "to": "0xa971cd2714fbcc9a942b09bc391a724df9338206",
        "gas": "0x121f4",
        "value": "0x0",
        "input": "0xf09a0d6b000000000000000000000000d077a400968890eacc75cdc901f0356c943e4fdb000000000000000000000000df05e9abf64da281b3cbd8ac3581022ec4841fb2",
        "nonce": "0x44",
        "chainId": "0x2019"
      },
      "additionalContracts": [],
      "isFixedGasLimit": false
    },
    {
      "hash": "0x0dc8c38a7dc58fae820aedcfdbf83ad244aefddf9e23eb5f3eb96de7b17e7466",
      "transactionType": "CALL",
      "contractName": null,
      "contractAddress": "0xa971cd2714fbcc9a942b09bc391a724df9338206",
      "function": "setOftAddress(address,address)",
      "arguments": [
        "0xd077A400968890Eacc75cdc901F0356c943e4fDb",
        "0x04C37dc1b538E00b31e6bc883E16d97cD7937a10"
      ],
      "transaction": {
        "from": "0x0ece75f3c36f7df2136dac7633165dbff53de3cd",
        "to": "0xa971cd2714fbcc9a942b09bc391a724df9338206",
        "gas": "0xd153",
        "value": "0x0",
        "input": "0xf09a0d6b000000000000000000000000d077a400968890eacc75cdc901f0356c943e4fdb00000000000000000000000004c37dc1b538e00b31e6bc883e16d97cd7937a10",
        "nonce": "0x45",
        "chainId": "0x2019"
      },
      "additionalContracts": [],
      "isFixedGasLimit": false
    },
    {
      "hash": "0x42622c83a3f1e60e2f98d074b652ebe750a05635f6a5d25ff000322eac51e303",
      "transactionType": "CALL",
      "contractName": null,
      "contractAddress": "0xa971cd2714fbcc9a942b09bc391a724df9338206",
      "function": "setOftAddress(address,address)",
      "arguments": [
        "0x0000000000000000000000000000000000000001",
        "0x15858A57854BBf0DF60A737811d50e1Ee785f9bc"
      ],
      "transaction": {
        "from": "0x0ece75f3c36f7df2136dac7633165dbff53de3cd",
        "to": "0xa971cd2714fbcc9a942b09bc391a724df9338206",
        "gas": "0x120cb",
        "value": "0x0",
        "input": "0xf09a0d6b000000000000000000000000000000000000000000000000000000000000000100000000000000000000000015858a57854bbf0df60a737811d50e1ee785f9bc",
        "nonce": "0x46",
        "chainId": "0x2019"
      },
      "additionalContracts": [],
      "isFixedGasLimit": false
    },
    {
      "hash": "0xe911d93dfb28262c7033ddfd62c54661439394d11086ef4cccde8ac7ee55b54f",
      "transactionType": "CALL",
      "contractName": null,
      "contractAddress": "0xa971cd2714fbcc9a942b09bc391a724df9338206",
      "function": "setOftAddress(address,address)",
      "arguments": [
        "0x19Aac5f612f524B754CA7e7c41cbFa2E981A4432",
        "0x15858A57854BBf0DF60A737811d50e1Ee785f9bc"
      ],
      "transaction": {
        "from": "0x0ece75f3c36f7df2136dac7633165dbff53de3cd",
        "to": "0xa971cd2714fbcc9a942b09bc391a724df9338206",
        "gas": "0x13315",
        "value": "0x0",
        "input": "0xf09a0d6b00000000000000000000000019aac5f612f524b754ca7e7c41cbfa2e981a443200000000000000000000000015858a57854bbf0df60a737811d50e1ee785f9bc",
        "nonce": "0x47",
        "chainId": "0x2019"
      },
      "additionalContracts": [],
      "isFixedGasLimit": false
    },
    {
      "hash": "0x60ed533fce33feb612e20f1eb9954feade69265c6f9443ccc3b07d3348d7c2dd",
      "transactionType": "CALL",
      "contractName": null,
      "contractAddress": "0xa971cd2714fbcc9a942b09bc391a724df9338206",
      "function": "setOftAddress(address,address)",
      "arguments": [
        "0x98A8345bB9D3DDa9D808Ca1c9142a28F6b0430E1",
        "0x007F735Fd070DeD4B0B58D430c392Ff0190eC20F"
      ],
      "transaction": {
        "from": "0x0ece75f3c36f7df2136dac7633165dbff53de3cd",
        "to": "0xa971cd2714fbcc9a942b09bc391a724df9338206",
        "gas": "0x121f4",
        "value": "0x0",
        "input": "0xf09a0d6b00000000000000000000000098a8345bb9d3dda9d808ca1c9142a28f6b0430e1000000000000000000000000007f735fd070ded4b0b58d430c392ff0190ec20f",
        "nonce": "0x48",
        "chainId": "0x2019"
      },
      "additionalContracts": [],
      "isFixedGasLimit": false
    },
    {
      "hash": "0x3eff4b5492c6cffe4bea251f53cfed8690d5ee3363933367a844d47da75e8d8d",
      "transactionType": "CALL",
      "contractName": null,
      "contractAddress": "0xa971cd2714fbcc9a942b09bc391a724df9338206",
      "function": "setOftAddress(address,address)",
      "arguments": [
        "0x981846bE8d2d697f4dfeF6689a161A25FfbAb8F9",
        "0x4Ba8D8083e7F3652CCB084C32652e68566E9Ef23"
      ],
      "transaction": {
        "from": "0x0ece75f3c36f7df2136dac7633165dbff53de3cd",
        "to": "0xa971cd2714fbcc9a942b09bc391a724df9338206",
        "gas": "0x13315",
        "value": "0x0",
        "input": "0xf09a0d6b000000000000000000000000981846be8d2d697f4dfef6689a161a25ffbab8f90000000000000000000000004ba8d8083e7f3652ccb084c32652e68566e9ef23",
        "nonce": "0x49",
        "chainId": "0x2019"
      },
      "additionalContracts": [],
      "isFixedGasLimit": false
    }
  ],
  "receipts": [
    {
      "status": "0x1",
      "cumulativeGasUsed": "0x21093",
      "logs": [
        {
          "address": "0xa971cd2714fbcc9a942b09bc391a724df9338206",
          "topics": [
            "0x443eca89ae0d91090321746b66b1e5a800bf4f33b317a7dbc01dc310b55c3291",
            "0x000000000000000000000000d077a400968890eacc75cdc901f0356c943e4fdb",
            "0x000000000000000000000000df05e9abf64da281b3cbd8ac3581022ec4841fb2"
          ],
          "data": "0x",
          "blockHash": "0x33c970d592ddac733b144a51b96a6cd53cde85fd313744eaff948e862036eed1",
          "blockNumber": "0xbab6b88",
          "transactionHash": "0xfd2ee53f553bdb88d17f503e0fcceab86e71de49a76defd115af0508c0eb430b",
          "transactionIndex": "0x2",
          "logIndex": "0x1",
          "removed": false
        }
      ],
      "logsBloom": "0x00000000000000000000000000000000000000000000000000000080000000000000000000000000000000000000040000000000000000000000000000000000000000000000000000000000000001000000000000000000000800000000002000000000000000000000000000000000000000000000000000000000000000000000000000000000000000000000000000004000000000000000004000000000000000000000000000020000000000000000100000000000000000000000000000104000000000000000000000000000000000000008000000000000000000000000000000000000000000000000000000000000000000000000000000000000",
      "type": "0x2",
      "transactionHash": "0xfd2ee53f553bdb88d17f503e0fcceab86e71de49a76defd115af0508c0eb430b",
      "transactionIndex": "0x2",
      "blockHash": "0x33c970d592ddac733b144a51b96a6cd53cde85fd313744eaff948e862036eed1",
      "blockNumber": "0xbab6b88",
      "gasUsed": "0xd1ed",
      "effectiveGasPrice": "0x66720b300",
      "from": "0x0ece75f3c36f7df2136dac7633165dbff53de3cd",
      "to": "0xa971cd2714fbcc9a942b09bc391a724df9338206",
      "contractAddress": null
    },
    {
      "status": "0x1",
      "cumulativeGasUsed": "0x29fb4",
      "logs": [
        {
          "address": "0xa971cd2714fbcc9a942b09bc391a724df9338206",
          "topics": [
            "0x443eca89ae0d91090321746b66b1e5a800bf4f33b317a7dbc01dc310b55c3291",
            "0x000000000000000000000000d077a400968890eacc75cdc901f0356c943e4fdb",
            "0x00000000000000000000000004c37dc1b538e00b31e6bc883e16d97cd7937a10"
          ],
          "data": "0x",
          "blockHash": "0x33c970d592ddac733b144a51b96a6cd53cde85fd313744eaff948e862036eed1",
          "blockNumber": "0xbab6b88",
          "transactionHash": "0x0dc8c38a7dc58fae820aedcfdbf83ad244aefddf9e23eb5f3eb96de7b17e7466",
          "transactionIndex": "0x3",
          "logIndex": "0x2",
          "removed": false
        }
      ],
      "logsBloom": "0x00000000000000000000000000000000000000000000000000000000000000000000000000000000080000000000040000000000000000000000000000000000000000000000000000000000000001000000000000000000000800000000002000000000000000000000000000000000000000000000000000000000000000000000000000000000000000000000000000004000000000000000000000000010000000000000000000020000000000000000100000000000000000000000000000100000000000000000000000000000000000000008020000000000000000000000000000000000000000000000000000000000000000000000000000000000",
      "type": "0x2",
      "transactionHash": "0x0dc8c38a7dc58fae820aedcfdbf83ad244aefddf9e23eb5f3eb96de7b17e7466",
      "transactionIndex": "0x3",
      "blockHash": "0x33c970d592ddac733b144a51b96a6cd53cde85fd313744eaff948e862036eed1",
      "blockNumber": "0xbab6b88",
      "gasUsed": "0x8f21",
      "effectiveGasPrice": "0x66720b300",
      "from": "0x0ece75f3c36f7df2136dac7633165dbff53de3cd",
      "to": "0xa971cd2714fbcc9a942b09bc391a724df9338206",
      "contractAddress": null
    },
    {
      "status": "0x1",
      "cumulativeGasUsed": "0x370c9",
      "logs": [
        {
          "address": "0xa971cd2714fbcc9a942b09bc391a724df9338206",
          "topics": [
            "0x443eca89ae0d91090321746b66b1e5a800bf4f33b317a7dbc01dc310b55c3291",
            "0x0000000000000000000000000000000000000000000000000000000000000001",
            "0x00000000000000000000000015858a57854bbf0df60a737811d50e1ee785f9bc"
          ],
          "data": "0x",
          "blockHash": "0x33c970d592ddac733b144a51b96a6cd53cde85fd313744eaff948e862036eed1",
          "blockNumber": "0xbab6b88",
          "transactionHash": "0x42622c83a3f1e60e2f98d074b652ebe750a05635f6a5d25ff000322eac51e303",
          "transactionIndex": "0x4",
          "logIndex": "0x3",
          "removed": false
        }
      ],
      "logsBloom": "0x00000000000000000000000000000000000000000000000000000000000000000000000000000000000000000000040000000000000000000000000000040000000000000000000000000000000001000000000000040000000800000000000000000000000000000000000000000000000000000000000000000000000000000000000000000000000000000000000000004000000000000000000000000000000000000000000000020000000008000000100000000000000000000000000000000000000000000000000000000000000000000000000000100000000040000000000000000000000000000000000000000000000100000000000000000000",
      "type": "0x2",
      "transactionHash": "0x42622c83a3f1e60e2f98d074b652ebe750a05635f6a5d25ff000322eac51e303",
      "transactionIndex": "0x4",
      "blockHash": "0x33c970d592ddac733b144a51b96a6cd53cde85fd313744eaff948e862036eed1",
      "blockNumber": "0xbab6b88",
      "gasUsed": "0xd115",
      "effectiveGasPrice": "0x66720b300",
      "from": "0x0ece75f3c36f7df2136dac7633165dbff53de3cd",
      "to": "0xa971cd2714fbcc9a942b09bc391a724df9338206",
      "contractAddress": null
    },
    {
      "status": "0x1",
      "cumulativeGasUsed": "0x442c2",
      "logs": [
        {
          "address": "0xa971cd2714fbcc9a942b09bc391a724df9338206",
          "topics": [
            "0x443eca89ae0d91090321746b66b1e5a800bf4f33b317a7dbc01dc310b55c3291",
            "0x00000000000000000000000019aac5f612f524b754ca7e7c41cbfa2e981a4432",
            "0x00000000000000000000000015858a57854bbf0df60a737811d50e1ee785f9bc"
          ],
          "data": "0x",
          "blockHash": "0x33c970d592ddac733b144a51b96a6cd53cde85fd313744eaff948e862036eed1",
          "blockNumber": "0xbab6b88",
          "transactionHash": "0xe911d93dfb28262c7033ddfd62c54661439394d11086ef4cccde8ac7ee55b54f",
          "transactionIndex": "0x5",
          "logIndex": "0x4",
          "removed": false
        }
      ],
      "logsBloom": "0x0000000000000000000000000000000000000100000000000000000000000000000000000000000000000000000004000000000000000000000000000000000000000000000000000000004000000100000000000000000000080000000000000000000000000000000000000000000000000000000000000000000000000000000000000000000000000000000000000000400000000000000000000000000000000000000000000002000000000c000000100000000000000000000000000000000000000000000000000000000000000000000000000000100000000000000000000000000000000000000000000000000000000100000000000000000000",
      "type": "0x2",
      "transactionHash": "0xe911d93dfb28262c7033ddfd62c54661439394d11086ef4cccde8ac7ee55b54f",
      "transactionIndex": "0x5",
      "blockHash": "0x33c970d592ddac733b144a51b96a6cd53cde85fd313744eaff948e862036eed1",
      "blockNumber": "0xbab6b88",
      "gasUsed": "0xd1f9",
      "effectiveGasPrice": "0x66720b300",
      "from": "0x0ece75f3c36f7df2136dac7633165dbff53de3cd",
      "to": "0xa971cd2714fbcc9a942b09bc391a724df9338206",
      "contractAddress": null
    },
    {
      "status": "0x1",
      "cumulativeGasUsed": "0x514af",
      "logs": [
        {
          "address": "0xa971cd2714fbcc9a942b09bc391a724df9338206",
          "topics": [
            "0x443eca89ae0d91090321746b66b1e5a800bf4f33b317a7dbc01dc310b55c3291",
            "0x00000000000000000000000098a8345bb9d3dda9d808ca1c9142a28f6b0430e1",
            "0x000000000000000000000000007f735fd070ded4b0b58d430c392ff0190ec20f"
          ],
          "data": "0x",
          "blockHash": "0x33c970d592ddac733b144a51b96a6cd53cde85fd313744eaff948e862036eed1",
          "blockNumber": "0xbab6b88",
          "transactionHash": "0x60ed533fce33feb612e20f1eb9954feade69265c6f9443ccc3b07d3348d7c2dd",
          "transactionIndex": "0x6",
          "logIndex": "0x5",
          "removed": false
        }
      ],
      "logsBloom": "0x00000000000000000000000000000000000000000000000000000000000000000000000000000000000000000000044000000000000000000000000000010000000000000000000000000000000001200000000000000000000800000000001000000000000000000000000000000000000000000000000000000000000080000000000000000000000000000000000000004000000000000000000000000000000000000000000000020000000400000000100000000000000000000000000000000000000000000000000000000000000000000000000000000000000000000000000000000000000000000000000000000000000000000000000000000000",
      "type": "0x2",
      "transactionHash": "0x60ed533fce33feb612e20f1eb9954feade69265c6f9443ccc3b07d3348d7c2dd",
      "transactionIndex": "0x6",
      "blockHash": "0x33c970d592ddac733b144a51b96a6cd53cde85fd313744eaff948e862036eed1",
      "blockNumber": "0xbab6b88",
      "gasUsed": "0xd1ed",
      "effectiveGasPrice": "0x66720b300",
      "from": "0x0ece75f3c36f7df2136dac7633165dbff53de3cd",
      "to": "0xa971cd2714fbcc9a942b09bc391a724df9338206",
      "contractAddress": null
    },
    {
      "status": "0x1",
      "cumulativeGasUsed": "0xd1f9",
      "logs": [
        {
          "address": "0xa971cd2714fbcc9a942b09bc391a724df9338206",
          "topics": [
            "0x443eca89ae0d91090321746b66b1e5a800bf4f33b317a7dbc01dc310b55c3291",
            "0x000000000000000000000000981846be8d2d697f4dfef6689a161a25ffbab8f9",
            "0x0000000000000000000000004ba8d8083e7f3652ccb084c32652e68566e9ef23"
          ],
          "data": "0x",
          "blockHash": "0xf07eea1ae10910152c374b0f3333c9ec0ffbaaf3531748916ec209837a52ce13",
          "blockNumber": "0xbab6b89",
          "transactionHash": "0x3eff4b5492c6cffe4bea251f53cfed8690d5ee3363933367a844d47da75e8d8d",
          "transactionIndex": "0x0",
          "logIndex": "0x0",
          "removed": false
        }
      ],
      "logsBloom": "0x00000000000000000000000000000000000000000000000000000002000000000000000000000000000000000000040000000000000000000000000100000000000000000000000000000000000001000000000000000000000800000000000000000000000000000000000000000000000800000000000000000002000000000000000000000000000000000000000000004000000000000000000000000000800000000000000000020000000004000000100000000000000000000000000000000000000000000000000000000000000000000000000000000000000000000000000000000000000000000000000000000000000000000000000000000000",
      "type": "0x2",
      "transactionHash": "0x3eff4b5492c6cffe4bea251f53cfed8690d5ee3363933367a844d47da75e8d8d",
      "transactionIndex": "0x0",
      "blockHash": "0xf07eea1ae10910152c374b0f3333c9ec0ffbaaf3531748916ec209837a52ce13",
      "blockNumber": "0xbab6b89",
      "gasUsed": "0xd1f9",
      "effectiveGasPrice": "0x66720b300",
      "from": "0x0ece75f3c36f7df2136dac7633165dbff53de3cd",
      "to": "0xa971cd2714fbcc9a942b09bc391a724df9338206",
      "contractAddress": null
    }
  ],
  "libraries": [],
  "pending": [],
  "returns": {},
  "timestamp": 1757847986474,
  "chain": 8217,
  "commit": "512915d"
}