{
  "transactions": [
    {
      "hash": "0x7d99afa366a67cd5c1c55f475a43396b58fcf319c8ccbef859fa14fe165b180a",
      "transactionType": "CALL",
      "contractName": null,
      "contractAddress": "0xa971cd2714fbcc9a942b09bc391a724df9338206",
      "function": "setOftAddress(address,address)",
      "arguments": [
        "0xd077A400968890Eacc75cdc901F0356c943e4fDb",
        "0x6D68A52Bc77F2eAc3582a7072eAd94C19B9f480c"
      ],
      "transaction": {
        "from": "0x0ece75f3c36f7df2136dac7633165dbff53de3cd",
        "to": "0xa971cd2714fbcc9a942b09bc391a724df9338206",
        "gas": "0xd153",
        "value": "0x0",
        "input": "0xf09a0d6b000000000000000000000000d077a400968890eacc75cdc901f0356c943e4fdb0000000000000000000000006d68a52bc77f2eac3582a7072ead94c19b9f480c",
        "nonce": "0x124",
        "chainId": "0x2019"
      },
      "additionalContracts": [],
      "isFixedGasLimit": false
    },
    {
      "hash": "0x50e33c3e3df8979211b474bded3fdd93e0aa107aa186a7341a5b040a1f8efdbf",
      "transactionType": "CALL",
      "contractName": null,
      "contractAddress": "0xa971cd2714fbcc9a942b09bc391a724df9338206",
      "function": "setOftAddress(address,address)",
      "arguments": [
        "0x9025095263d1E548dc890A7589A4C78038aC40ab",
        "0x920Cd2F6e139b6C40053BCd5F67923d1d7Dd3140"
      ],
      "transaction": {
        "from": "0x0ece75f3c36f7df2136dac7633165dbff53de3cd",
        "to": "0xa971cd2714fbcc9a942b09bc391a724df9338206",
        "gas": "0x121f4",
        "value": "0x0",
        "input": "0xf09a0d6b0000000000000000000000009025095263d1e548dc890a7589a4c78038ac40ab000000000000000000000000920cd2f6e139b6c40053bcd5f67923d1d7dd3140",
        "nonce": "0x125",
        "chainId": "0x2019"
      },
      "additionalContracts": [],
      "isFixedGasLimit": false
    },
    {
      "hash": "0x47bd3e4d8ab00c2d7383ac8b6f0493dd47ed002ae9424218bd79f675d3d0c535",
      "transactionType": "CALL",
      "contractName": null,
      "contractAddress": "0xa971cd2714fbcc9a942b09bc391a724df9338206",
      "function": "setOftAddress(address,address)",
      "arguments": [
        "0x0000000000000000000000000000000000000001",
        "0x5DDbbC68527214E0aCA3B4175860080cBDAA12ff"
      ],
      "transaction": {
        "from": "0x0ece75f3c36f7df2136dac7633165dbff53de3cd",
        "to": "0xa971cd2714fbcc9a942b09bc391a724df9338206",
        "gas": "0xd017",
        "value": "0x0",
        "input": "0xf09a0d6b00000000000000000000000000000000000000000000000000000000000000010000000000000000000000005ddbbc68527214e0aca3b4175860080cbdaa12ff",
        "nonce": "0x126",
        "chainId": "0x2019"
      },
      "additionalContracts": [],
      "isFixedGasLimit": false
    },
    {
      "hash": "0xc7bd6bbe49c665a689b571743dc18b886e19af8f21994813c9a610df95a79724",
      "transactionType": "CALL",
      "contractName": null,
      "contractAddress": "0xa971cd2714fbcc9a942b09bc391a724df9338206",
      "function": "setOftAddress(address,address)",
      "arguments": [
        "0x19Aac5f612f524B754CA7e7c41cbFa2E981A4432",
        "0x5DDbbC68527214E0aCA3B4175860080cBDAA12ff"
      ],
      "transaction": {
        "from": "0x0ece75f3c36f7df2136dac7633165dbff53de3cd",
        "to": "0xa971cd2714fbcc9a942b09bc391a724df9338206",
        "gas": "0xc5c1",
        "value": "0x0",
        "input": "0xf09a0d6b00000000000000000000000019aac5f612f524b754ca7e7c41cbfa2e981a44320000000000000000000000005ddbbc68527214e0aca3b4175860080cbdaa12ff",
        "nonce": "0x127",
        "chainId": "0x2019"
      },
      "additionalContracts": [],
      "isFixedGasLimit": false
    },
    {
      "hash": "0x8a3c9ad66e7fbc3310af2202364e05b6521483621a65e1623d0f701e96bb16dc",
      "transactionType": "CALL",
      "contractName": null,
      "contractAddress": "0xa971cd2714fbcc9a942b09bc391a724df9338206",
      "function": "setOftAddress(address,address)",
      "arguments": [
        "0x98A8345bB9D3DDa9D808Ca1c9142a28F6b0430E1",
        "0xB0E96105543cBA4B3D82911E7336f19BD03b0360"
      ],
      "transaction": {
        "from": "0x0ece75f3c36f7df2136dac7633165dbff53de3cd",
        "to": "0xa971cd2714fbcc9a942b09bc391a724df9338206",
        "gas": "0xc5c1",
        "value": "0x0",
        "input": "0xf09a0d6b00000000000000000000000098a8345bb9d3dda9d808ca1c9142a28f6b0430e1000000000000000000000000b0e96105543cba4b3d82911e7336f19bd03b0360",
        "nonce": "0x128",
        "chainId": "0x2019"
      },
      "additionalContracts": [],
      "isFixedGasLimit": false
    },
    {
      "hash": "0xc18ac2ed4184cb7503b052c5b0066ccacddb56cb653196f1c5363da4f7bf2995",
      "transactionType": "CALL",
      "contractName": null,
      "contractAddress": "0xa971cd2714fbcc9a942b09bc391a724df9338206",
      "function": "setOftAddress(address,address)",
      "arguments": [
        "0x981846bE8d2d697f4dfeF6689a161A25FfbAb8F9",
        "0xFe5138A42dc1fc335455b505E036784A33F7F102"
      ],
      "transaction": {
        "from": "0x0ece75f3c36f7df2136dac7633165dbff53de3cd",
        "to": "0xa971cd2714fbcc9a942b09bc391a724df9338206",
        "gas": "0xc5c1",
        "value": "0x0",
        "input": "0xf09a0d6b000000000000000000000000981846be8d2d697f4dfef6689a161a25ffbab8f9000000000000000000000000fe5138a42dc1fc335455b505e036784a33f7f102",
        "nonce": "0x129",
        "chainId": "0x2019"
      },
      "additionalContracts": [],
      "isFixedGasLimit": false
    }
  ],
  "receipts": [
    {
      "status": "0x1",
      "cumulativeGasUsed": "0x1bec6",
      "logs": [
        {
          "address": "0xa971cd2714fbcc9a942b09bc391a724df9338206",
          "topics": [
            "0x443eca89ae0d91090321746b66b1e5a800bf4f33b317a7dbc01dc310b55c3291",
            "0x000000000000000000000000d077a400968890eacc75cdc901f0356c943e4fdb",
            "0x0000000000000000000000006d68a52bc77f2eac3582a7072ead94c19b9f480c"
          ],
          "data": "0x",
          "blockHash": "0x12c6c85f9d3a5a0c5ad7f65580d0748892185d6c9897932049ee3244257daaa9",
          "blockNumber": "0xbb07dab",
          "transactionHash": "0x7d99afa366a67cd5c1c55f475a43396b58fcf319c8ccbef859fa14fe165b180a",
          "transactionIndex": "0x2",
          "logIndex": "0x2",
          "removed": false
        }
      ],
      "logsBloom": "0x00000000000000000000000000000000000000000000000000000000000000000000000000000000000000000000040000000000000000000000000000000001000000000000000000000000000001000000000000000000200800000000002000000000000040000000000000000000000000000000000000000000000000000000000000000000000000000000000000004000000000000000000000000000000000000000000000020000000000000000100000000000000000000000000000100000000000000000000000000000000000000008000000000000000000000000000000000000000000000000000000000000000000000000000000000000",
      "type": "0x2",
      "transactionHash": "0x7d99afa366a67cd5c1c55f475a43396b58fcf319c8ccbef859fa14fe165b180a",
      "transactionIndex": "0x2",
      "blockHash": "0x12c6c85f9d3a5a0c5ad7f65580d0748892185d6c9897932049ee3244257daaa9",
      "blockNumber": "0xbb07dab",
      "gasUsed": "0x8f21",
      "effectiveGasPrice": "0x66720b300",
      "from": "0x0ece75f3c36f7df2136dac7633165dbff53de3cd",
      "to": "0xa971cd2714fbcc9a942b09bc391a724df9338206",
      "contractAddress": null
    },
    {
      "status": "0x1",
      "cumulativeGasUsed": "0x290b3",
      "logs": [
        {
          "address": "0xa971cd2714fbcc9a942b09bc391a724df9338206",
          "topics": [
            "0x443eca89ae0d91090321746b66b1e5a800bf4f33b317a7dbc01dc310b55c3291",
            "0x0000000000000000000000009025095263d1e548dc890a7589a4c78038ac40ab",
            "0x000000000000000000000000920cd2f6e139b6c40053bcd5f67923d1d7dd3140"
          ],
          "data": "0x",
          "blockHash": "0x12c6c85f9d3a5a0c5ad7f65580d0748892185d6c9897932049ee3244257daaa9",
          "blockNumber": "0xbb07dab",
          "transactionHash": "0x50e33c3e3df8979211b474bded3fdd93e0aa107aa186a7341a5b040a1f8efdbf",
          "transactionIndex": "0x3",
          "logIndex": "0x3",
          "removed": false
        }
      ],
      "logsBloom": "0x00000000000000000000000000000000000000000000000000000000000000000000000000000000000000000000040000000000000000000020000000000000000000000000000008000000000001000000000000000000000800000000000000000000000000000000000000000000000000000000000000000000000000000000000000000000000000000200000000004000000000000000000000000000000000000000000000020000000000000000100000000000000000000000000000000000000000000000000000000002000000010080000000000000000000000000000000000000000000000000000000000000000000000000000000000000",
      "type": "0x2",
      "transactionHash": "0x50e33c3e3df8979211b474bded3fdd93e0aa107aa186a7341a5b040a1f8efdbf",
      "transactionIndex": "0x3",
      "blockHash": "0x12c6c85f9d3a5a0c5ad7f65580d0748892185d6c9897932049ee3244257daaa9",
      "blockNumber": "0xbb07dab",
      "gasUsed": "0xd1ed",
      "effectiveGasPrice": "0x66720b300",
      "from": "0x0ece75f3c36f7df2136dac7633165dbff53de3cd",
      "to": "0xa971cd2714fbcc9a942b09bc391a724df9338206",
      "contractAddress": null
    },
    {
      "status": "0x1",
      "cumulativeGasUsed": "0x31efc",
      "logs": [
        {
          "address": "0xa971cd2714fbcc9a942b09bc391a724df9338206",
          "topics": [
            "0x443eca89ae0d91090321746b66b1e5a800bf4f33b317a7dbc01dc310b55c3291",
            "0x0000000000000000000000000000000000000000000000000000000000000001",
            "0x0000000000000000000000005ddbbc68527214e0aca3b4175860080cbdaa12ff"
          ],
          "data": "0x",
          "blockHash": "0x12c6c85f9d3a5a0c5ad7f65580d0748892185d6c9897932049ee3244257daaa9",
          "blockNumber": "0xbb07dab",
          "transactionHash": "0x47bd3e4d8ab00c2d7383ac8b6f0493dd47ed002ae9424218bd79f675d3d0c535",
          "transactionIndex": "0x4",
          "logIndex": "0x4",
          "removed": false
        }
      ],
      "logsBloom": "0x00000000000000000000000000000000000000000000000000000000000000000000000000000000000000000000040000000000000000000000000000040000000000000000000000000000000001000000000000040000000800000000000000000000000000000000000000000000000000000000000000000000000000000000000000000000004000000000000000004000000000000000000000000000000000000002000000020000000000000000100000000000000000000000000000000000000000000000000000000000000000000000000000020000000040000000000000000000000000000000000000000000000000000000000000000000",
      "type": "0x2",
      "transactionHash": "0x47bd3e4d8ab00c2d7383ac8b6f0493dd47ed002ae9424218bd79f675d3d0c535",
      "transactionIndex": "0x4",
      "blockHash": "0x12c6c85f9d3a5a0c5ad7f65580d0748892185d6c9897932049ee3244257daaa9",
      "blockNumber": "0xbb07dab",
      "gasUsed": "0x8e49",
      "effectiveGasPrice": "0x66720b300",
      "from": "0x0ece75f3c36f7df2136dac7633165dbff53de3cd",
      "to": "0xa971cd2714fbcc9a942b09bc391a724df9338206",
      "contractAddress": null
    },
    {
      "status": "0x1",
      "cumulativeGasUsed": "0x3ae29",
      "logs": [
        {
          "address": "0xa971cd2714fbcc9a942b09bc391a724df9338206",
          "topics": [
            "0x443eca89ae0d91090321746b66b1e5a800bf4f33b317a7dbc01dc310b55c3291",
            "0x00000000000000000000000019aac5f612f524b754ca7e7c41cbfa2e981a4432",
            "0x0000000000000000000000005ddbbc68527214e0aca3b4175860080cbdaa12ff"
          ],
          "data": "0x",
          "blockHash": "0x12c6c85f9d3a5a0c5ad7f65580d0748892185d6c9897932049ee3244257daaa9",
          "blockNumber": "0xbb07dab",
          "transactionHash": "0xc7bd6bbe49c665a689b571743dc18b886e19af8f21994813c9a610df95a79724",
          "transactionIndex": "0x5",
          "logIndex": "0x5",
          "removed": false
        }
      ],
      "logsBloom": "0x00000000000000000000000000000000000001000000000000000000000000000000000000000000000000000000040000000000000000000000000000000000000000000000000000000040000001000000000000000000000800000000000000000000000000000000000000000000000000000000000000000000000000000000000000000000004000000000000000004000000000000000000000000000000000000002000000020000000004000000100000000000000000000000000000000000000000000000000000000000000000000000000000020000000000000000000000000000000000000000000000000000000000000000000000000000",
      "type": "0x2",
      "transactionHash": "0xc7bd6bbe49c665a689b571743dc18b886e19af8f21994813c9a610df95a79724",
      "transactionIndex": "0x5",
      "blockHash": "0x12c6c85f9d3a5a0c5ad7f65580d0748892185d6c9897932049ee3244257daaa9",
      "blockNumber": "0xbb07dab",
      "gasUsed": "0x8f2d",
      "effectiveGasPrice": "0x66720b300",
      "from": "0x0ece75f3c36f7df2136dac7633165dbff53de3cd",
      "to": "0xa971cd2714fbcc9a942b09bc391a724df9338206",
      "contractAddress": null
    },
    {
      "status": "0x1",
      "cumulativeGasUsed": "0x43d56",
      "logs": [
        {
          "address": "0xa971cd2714fbcc9a942b09bc391a724df9338206",
          "topics": [
            "0x443eca89ae0d91090321746b66b1e5a800bf4f33b317a7dbc01dc310b55c3291",
            "0x00000000000000000000000098a8345bb9d3dda9d808ca1c9142a28f6b0430e1",
            "0x000000000000000000000000b0e96105543cba4b3d82911e7336f19bd03b0360"
          ],
          "data": "0x",
          "blockHash": "0x12c6c85f9d3a5a0c5ad7f65580d0748892185d6c9897932049ee3244257daaa9",
          "blockNumber": "0xbb07dab",
          "transactionHash": "0x8a3c9ad66e7fbc3310af2202364e05b6521483621a65e1623d0f701e96bb16dc",
          "transactionIndex": "0x6",
          "logIndex": "0x6",
          "removed": false
        }
      ],
      "logsBloom": "0x00000000000000000000000000000000000000000000000000000000000000000000000000000000000000000000040000000000000000000000000000010000000000000000000000000000000001200000000000000000000800000000000000000000000000000000000000000000000000000000000000000000000080000000000000000000000000000000000000004000000000000000000000000000000000000000000000020000000000000000100000000000000000000000000000000000000000800000000000000000000000200000000000000000000000000000004000000000000000000000000000000000000000000000000000000000",
      "type": "0x2",
      "transactionHash": "0x8a3c9ad66e7fbc3310af2202364e05b6521483621a65e1623d0f701e96bb16dc",
      "transactionIndex": "0x6",
      "blockHash": "0x12c6c85f9d3a5a0c5ad7f65580d0748892185d6c9897932049ee3244257daaa9",
      "blockNumber": "0xbb07dab",
      "gasUsed": "0x8f2d",
      "effectiveGasPrice": "0x66720b300",
      "from": "0x0ece75f3c36f7df2136dac7633165dbff53de3cd",
      "to": "0xa971cd2714fbcc9a942b09bc391a724df9338206",
      "contractAddress": null
    },
    {
      "status": "0x1",
      "cumulativeGasUsed": "0x4cc83",
      "logs": [
        {
          "address": "0xa971cd2714fbcc9a942b09bc391a724df9338206",
          "topics": [
            "0x443eca89ae0d91090321746b66b1e5a800bf4f33b317a7dbc01dc310b55c3291",
            "0x000000000000000000000000981846be8d2d697f4dfef6689a161a25ffbab8f9",
            "0x000000000000000000000000fe5138a42dc1fc335455b505e036784a33f7f102"
          ],
          "data": "0x",
          "blockHash": "0x12c6c85f9d3a5a0c5ad7f65580d0748892185d6c9897932049ee3244257daaa9",
          "blockNumber": "0xbb07dab",
          "transactionHash": "0xc18ac2ed4184cb7503b052c5b0066ccacddb56cb653196f1c5363da4f7bf2995",
          "transactionIndex": "0x7",
          "logIndex": "0x7",
          "removed": false
        }
      ],
      "logsBloom": "0x00000000000000000000000000000000000000000000000000000000000000000000080000000000000000000000040000000000000000000000000000000000000000000000000000000000000001000000000000000000000800000000000000000000000000000000000000000000000000000000000000000002000000000000000000000000000000000000000000004000000000000000000000000000800000000000000000020002000004000000100000000000000000100000000000000000000000000000000000000000000000000000000000000000000000000000000000000000000000000000000000000000000000000000000000000000",
      "type": "0x2",
      "transactionHash": "0xc18ac2ed4184cb7503b052c5b0066ccacddb56cb653196f1c5363da4f7bf2995",
      "transactionIndex": "0x7",
      "blockHash": "0x12c6c85f9d3a5a0c5ad7f65580d0748892185d6c9897932049ee3244257daaa9",
      "blockNumber": "0xbb07dab",
      "gasUsed": "0x8f2d",
      "effectiveGasPrice": "0x66720b300",
      "from": "0x0ece75f3c36f7df2136dac7633165dbff53de3cd",
      "to": "0xa971cd2714fbcc9a942b09bc391a724df9338206",
      "contractAddress": null
    }
  ],
  "libraries": [],
  "pending": [],
  "returns": {},
  "timestamp": 1758183616770,
  "chain": 8217,
  "commit": "6c82bda"
}