{
  "transactions": [
    {
      "hash": "0xa760d972021c7e5ecbde957ad36576c3476e890e65c48f47f0cae163c9e24934",
      "transactionType": "CREATE",
      "contractName": "ElevatedMinterBurner",
      "contractAddress": "0x7c9cf703903680ae5eb6ec2bb2bebb1ec751918a",
      "function": null,
      "arguments": [
        "0xCEb5c8903060197e46Ab5ea5087b9F99CBc8da49",
        "0x0EcE75f3C36f7Df2136Dac7633165DBff53dE3CD"
      ],
      "transaction": {
        "from": "0x0ece75f3c36f7df2136dac7633165dbff53de3cd",
        "gas": "0xc6819",
        "value": "0x0",
        "input": "0x60a060405234801561000f575f5ffd5b50604051610c5f380380610c5f8339818101604052810190610031919061020c565b805f73ffffffffffffffffffffffffffffffffffffffff168173ffffffffffffffffffffffffffffffffffffffff16036100a2575f6040517f1e4fbdf70000000000000000000000000000000000000000000000000000000081526004016100999190610259565b60405180910390fd5b6100b1816100ed60201b60201c565b508173ffffffffffffffffffffffffffffffffffffffff1660808173ffffffffffffffffffffffffffffffffffffffff16815250505050610272565b5f5f5f9054906101000a900473ffffffffffffffffffffffffffffffffffffffff169050815f5f6101000a81548173ffffffffffffffffffffffffffffffffffffffff021916908373ffffffffffffffffffffffffffffffffffffffff1602179055508173ffffffffffffffffffffffffffffffffffffffff168173ffffffffffffffffffffffffffffffffffffffff167f8be0079c531659141344cd1fd0a4f28419497f9722a3daafe3b4186f6b6457e060405160405180910390a35050565b5f5ffd5b5f73ffffffffffffffffffffffffffffffffffffffff82169050919050565b5f6101db826101b2565b9050919050565b6101eb816101d1565b81146101f5575f5ffd5b50565b5f81519050610206816101e2565b92915050565b5f5f60408385031215610222576102216101ae565b5b5f61022f858286016101f8565b9250506020610240858286016101f8565b9150509250929050565b610253816101d1565b82525050565b5f60208201905061026c5f83018461024a565b92915050565b6080516109c061029f5f395f81816101c0015281816102c50152818161031901526103b501526109c05ff3fe608060405234801561000f575f5ffd5b5060043610610086575f3560e01c806382bfefc81161005957806382bfefc8146101105780638da5cb5b1461012e5780639dc29fac1461014c578063f2fde38b1461017c57610086565b806313e7c9d81461008a57806340c10f19146100ba578063558a7297146100ea578063715018a614610106575b5f5ffd5b6100a4600480360381019061009f919061073e565b610198565b6040516100b19190610783565b60405180910390f35b6100d460048036038101906100cf91906107cf565b6101b5565b6040516100e19190610783565b60405180910390f35b61010460048036038101906100ff9190610837565b610250565b005b61010e6102b0565b005b6101186102c3565b6040516101259190610884565b60405180910390f35b6101366102e7565b6040516101439190610884565b60405180910390f35b610166600480360381019061016191906107cf565b61030e565b6040516101739190610783565b60405180910390f35b6101966004803603810190610191919061073e565b610445565b005b6001602052805f5260405f205f915054906101000a900460ff1681565b5f6101be6104c9565b7f000000000000000000000000000000000000000000000000000000000000000073ffffffffffffffffffffffffffffffffffffffff166340c10f1984846040518363ffffffff1660e01b81526004016102199291906108ac565b5f604051808303815f87803b158015610230575f5ffd5b505af1158015610242573d5f5f3e3d5ffd5b505050506001905092915050565b610258610591565b8060015f8473ffffffffffffffffffffffffffffffffffffffff1673ffffffffffffffffffffffffffffffffffffffff1681526020019081526020015f205f6101000a81548160ff0219169083151502179055505050565b6102b8610591565b6102c15f610618565b565b7f000000000000000000000000000000000000000000000000000000000000000081565b5f5f5f9054906101000a900473ffffffffffffffffffffffffffffffffffffffff16905090565b5f6103176104c9565b7f000000000000000000000000000000000000000000000000000000000000000073ffffffffffffffffffffffffffffffffffffffff1663095ea7b330846040518363ffffffff1660e01b81526004016103729291906108ac565b6020604051808303815f875af115801561038e573d5f5f3e3d5ffd5b505050506040513d601f19601f820116820180604052508101906103b291906108e7565b507f000000000000000000000000000000000000000000000000000000000000000073ffffffffffffffffffffffffffffffffffffffff16639dc29fac84846040518363ffffffff1660e01b815260040161040e9291906108ac565b5f604051808303815f87803b158015610425575f5ffd5b505af1158015610437573d5f5f3e3d5ffd5b505050506001905092915050565b61044d610591565b5f73ffffffffffffffffffffffffffffffffffffffff168173ffffffffffffffffffffffffffffffffffffffff16036104bd575f6040517f1e4fbdf70000000000000000000000000000000000000000000000000000000081526004016104b49190610884565b60405180910390fd5b6104c681610618565b50565b60015f3373ffffffffffffffffffffffffffffffffffffffff1673ffffffffffffffffffffffffffffffffffffffff1681526020019081526020015f205f9054906101000a900460ff168061055057506105216102e7565b73ffffffffffffffffffffffffffffffffffffffff163373ffffffffffffffffffffffffffffffffffffffff16145b61058f576040517f08c379a00000000000000000000000000000000000000000000000000000000081526004016105869061096c565b60405180910390fd5b565b6105996106d9565b73ffffffffffffffffffffffffffffffffffffffff166105b76102e7565b73ffffffffffffffffffffffffffffffffffffffff1614610616576105da6106d9565b6040517f118cdaa700000000000000000000000000000000000000000000000000000000815260040161060d9190610884565b60405180910390fd5b565b5f5f5f9054906101000a900473ffffffffffffffffffffffffffffffffffffffff169050815f5f6101000a81548173ffffffffffffffffffffffffffffffffffffffff021916908373ffffffffffffffffffffffffffffffffffffffff1602179055508173ffffffffffffffffffffffffffffffffffffffff168173ffffffffffffffffffffffffffffffffffffffff167f8be0079c531659141344cd1fd0a4f28419497f9722a3daafe3b4186f6b6457e060405160405180910390a35050565b5f33905090565b5f5ffd5b5f73ffffffffffffffffffffffffffffffffffffffff82169050919050565b5f61070d826106e4565b9050919050565b61071d81610703565b8114610727575f5ffd5b50565b5f8135905061073881610714565b92915050565b5f60208284031215610753576107526106e0565b5b5f6107608482850161072a565b91505092915050565b5f8115159050919050565b61077d81610769565b82525050565b5f6020820190506107965f830184610774565b92915050565b5f819050919050565b6107ae8161079c565b81146107b8575f5ffd5b50565b5f813590506107c9816107a5565b92915050565b5f5f604083850312156107e5576107e46106e0565b5b5f6107f28582860161072a565b9250506020610803858286016107bb565b9150509250929050565b61081681610769565b8114610820575f5ffd5b50565b5f813590506108318161080d565b92915050565b5f5f6040838503121561084d5761084c6106e0565b5b5f61085a8582860161072a565b925050602061086b85828601610823565b9150509250929050565b61087e81610703565b82525050565b5f6020820190506108975f830184610875565b92915050565b6108a68161079c565b82525050565b5f6040820190506108bf5f830185610875565b6108cc602083018461089d565b9392505050565b5f815190506108e18161080d565b92915050565b5f602082840312156108fc576108fb6106e0565b5b5f610909848285016108d3565b91505092915050565b5f82825260208201905092915050565b7f4e6f7420617574686f72697a65640000000000000000000000000000000000005f82015250565b5f610956600e83610912565b915061096182610922565b602082019050919050565b5f6020820190508181035f8301526109838161094a565b905091905056fea2646970667358221220743e92146a1c03b64e64c7d153162063aace42485f458ebfbe023e44a720f64964736f6c634300081c0033000000000000000000000000ceb5c8903060197e46ab5ea5087b9f99cbc8da490000000000000000000000000ece75f3c36f7df2136dac7633165dbff53de3cd",
        "nonce": "0x51",
        "chainId": "0x2019"
      },
      "additionalContracts": [],
      "isFixedGasLimit": false
    },
    {
      "hash": "0xba11457a19660383be6b18248edf48e52a15fa024f99e61e2dfc66f61ce862cd",
      "transactionType": "CREATE",
      "contractName": "OFTUSDTadapter",
      "contractAddress": "0x5e6671ef689b2b2d4391a766b0486e5054136546",
      "function": null,
      "arguments": [
        "0xCEb5c8903060197e46Ab5ea5087b9F99CBc8da49",
        "0x7c9cF703903680ae5EB6ec2Bb2BEbb1ec751918A",
        "0x1a44076050125825900e736c501f859c50fE728c",
        "0x0EcE75f3C36f7Df2136Dac7633165DBff53dE3CD"
      ],
      "transaction": {
        "from": "0x0ece75f3c36f7df2136dac7633165dbff53de3cd",
        "gas": "0x52c490",
        "value": "0x0",
        "input": "0x60e060405234801561000f575f5ffd5b50604051614fb8380380614fb883398181016040528101906100319190610498565b8382828273ffffffffffffffffffffffffffffffffffffffff1663313ce5676040518163ffffffff1660e01b8152600401602060405180830381865afa15801561007d573d5f5f3e3d5ffd5b505050506040513d601f19601f820116820180604052508101906100a19190610532565b8282818181818a5f73ffffffffffffffffffffffffffffffffffffffff168173ffffffffffffffffffffffffffffffffffffffff1603610118575f6040517f1e4fbdf700000000000000000000000000000000000000000000000000000000815260040161010f919061056c565b60405180910390fd5b6101278161037160201b60201c565b508173ffffffffffffffffffffffffffffffffffffffff1660808173ffffffffffffffffffffffffffffffffffffffff16815250505f73ffffffffffffffffffffffffffffffffffffffff168173ffffffffffffffffffffffffffffffffffffffff16036101c1576040517fb586360400000000000000000000000000000000000000000000000000000000815260040160405180910390fd5b60805173ffffffffffffffffffffffffffffffffffffffff1663ca5eb5e1826040518263ffffffff1660e01b81526004016101fc919061056c565b5f604051808303815f87803b158015610213575f5ffd5b505af1158015610225573d5f5f3e3d5ffd5b505050505050505061023b61043260201b60201c565b60ff168360ff16101561027a576040517f1e9714b000000000000000000000000000000000000000000000000000000000815260040160405180910390fd5b61028861043260201b60201c565b8361029391906105b2565b600a61029f919061071e565b60a081815250505050508273ffffffffffffffffffffffffffffffffffffffff1660c08173ffffffffffffffffffffffffffffffffffffffff168152505050505060016005819055508360065f6101000a81548173ffffffffffffffffffffffffffffffffffffffff021916908373ffffffffffffffffffffffffffffffffffffffff1602179055508260075f6101000a81548173ffffffffffffffffffffffffffffffffffffffff021916908373ffffffffffffffffffffffffffffffffffffffff16021790555050505050610768565b5f5f5f9054906101000a900473ffffffffffffffffffffffffffffffffffffffff169050815f5f6101000a81548173ffffffffffffffffffffffffffffffffffffffff021916908373ffffffffffffffffffffffffffffffffffffffff1602179055508173ffffffffffffffffffffffffffffffffffffffff168173ffffffffffffffffffffffffffffffffffffffff167f8be0079c531659141344cd1fd0a4f28419497f9722a3daafe3b4186f6b6457e060405160405180910390a35050565b5f6006905090565b5f5ffd5b5f73ffffffffffffffffffffffffffffffffffffffff82169050919050565b5f6104678261043e565b9050919050565b6104778161045d565b8114610481575f5ffd5b50565b5f815190506104928161046e565b92915050565b5f5f5f5f608085870312156104b0576104af61043a565b5b5f6104bd87828801610484565b94505060206104ce87828801610484565b93505060406104df87828801610484565b92505060606104f087828801610484565b91505092959194509250565b5f60ff82169050919050565b610511816104fc565b811461051b575f5ffd5b50565b5f8151905061052c81610508565b92915050565b5f602082840312156105475761054661043a565b5b5f6105548482850161051e565b91505092915050565b6105668161045d565b82525050565b5f60208201905061057f5f83018461055d565b92915050565b7f4e487b71000000000000000000000000000000000000000000000000000000005f52601160045260245ffd5b5f6105bc826104fc565b91506105c7836104fc565b9250828203905060ff8111156105e0576105df610585565b5b92915050565b5f8160011c9050919050565b5f5f8291508390505b600185111561063b5780860481111561061757610616610585565b5b60018516156106265780820291505b8081029050610634856105e6565b94506105fb565b94509492505050565b5f82610653576001905061070e565b81610660575f905061070e565b81600181146106765760028114610680576106af565b600191505061070e565b60ff84111561069257610691610585565b5b8360020a9150848211156106a9576106a8610585565b5b5061070e565b5060208310610133831016604e8410600b84101617156106e45782820a9050838111156106df576106de610585565b5b61070e565b6106f184848460016105f2565b9250905081840481111561070857610707610585565b5b81810290505b9392505050565b5f819050919050565b5f61072882610715565b9150610733836104fc565b92506107607fffffffffffffffffffffffffffffffffffffffffffffffffffffffffffffffff8484610644565b905092915050565b60805160a05160c0516147d96107df5f395f61140901525f8181610d7501528181611d6e01528181611d8f01528181611e33015261210d01525f81816109a701528181610c49015281816111fc015281816115cb015281816119450152818161234a0152818161259f015261269701526147d95ff3fe6080604052600436106101ed575f3560e01c806382413eac1161010c578063bc70b3541161009f578063d045a0dc1161006e578063d045a0dc146106ec578063d424388514610708578063f2fde38b14610730578063fc0c546a14610758578063ff7bd03d14610782576101ed565b8063bc70b3541461063b578063bd815db014610677578063c7c7f5b314610693578063ca5eb5e1146106c4576101ed565b80639f68b964116100db5780639f68b96414610583578063b731ea0a146105ad578063b98bd070146105d7578063bb0b6a53146105ff576101ed565b806382413eac146104c9578063857749b0146105055780638da5cb5b1461052f578063963efcaa14610559576101ed565b80633b6f743b116101845780635e280f11116101535780635e280f11146104255780636fc1b31e1461044f578063715018a6146104775780637d25a05e1461048d576101ed565b80633b6f743b1461034757806352ae2879146103835780635535d461146103ad5780635a0dfe4d146103e9576101ed565b8063156a0d0f116101c0578063156a0d0f1461029f57806317442b70146102ca5780631f5e1334146102f55780633400288b1461031f576101ed565b80630d35b415146101f1578063111ecdad1461022f57806313137d6514610259578063134d4f2514610275575b5f5ffd5b3480156101fc575f5ffd5b5061021760048036038101906102129190612840565b6107be565b60405161022693929190612a76565b60405180910390f35b34801561023a575f5ffd5b50610243610969565b6040516102509190612af1565b60405180910390f35b610273600480360381019061026e9190612be6565b61098e565b005b348015610280575f5ffd5b50610289610aae565b6040516102969190612cb9565b60405180910390f35b3480156102aa575f5ffd5b506102b3610ab3565b6040516102c1929190612d2e565b60405180910390f35b3480156102d5575f5ffd5b506102de610ae0565b6040516102ec929190612d55565b60405180910390f35b348015610300575f5ffd5b50610309610aee565b6040516103169190612cb9565b60405180910390f35b34801561032a575f5ffd5b5061034560048036038101906103409190612db5565b610af3565b005b348015610352575f5ffd5b5061036d60048036038101906103689190612e28565b610b09565b60405161037a9190612eaf565b60405180910390f35b34801561038e575f5ffd5b50610397610b71565b6040516103a49190612af1565b60405180910390f35b3480156103b8575f5ffd5b506103d360048036038101906103ce9190612ef2565b610b78565b6040516103e09190612f82565b60405180910390f35b3480156103f4575f5ffd5b5061040f600480360381019061040a9190612db5565b610c1e565b60405161041c9190612fb1565b60405180910390f35b348015610430575f5ffd5b50610439610c47565b6040516104469190613025565b60405180910390f35b34801561045a575f5ffd5b506104756004803603810190610470919061303e565b610c6b565b005b348015610482575f5ffd5b5061048b610ced565b005b348015610498575f5ffd5b506104b360048036038101906104ae9190612db5565b610d00565b6040516104c09190613069565b60405180910390f35b3480156104d4575f5ffd5b506104ef60048036038101906104ea9190613082565b610d0a565b6040516104fc9190612fb1565b60405180910390f35b348015610510575f5ffd5b50610519610d44565b604051610526919061310e565b60405180910390f35b34801561053a575f5ffd5b50610543610d4c565b6040516105509190612af1565b60405180910390f35b348015610564575f5ffd5b5061056d610d73565b60405161057a9190613136565b60405180910390f35b34801561058e575f5ffd5b50610597610d97565b6040516105a49190612fb1565b60405180910390f35b3480156105b8575f5ffd5b506105c1610d9f565b6040516105ce9190612af1565b60405180910390f35b3480156105e2575f5ffd5b506105fd60048036038101906105f891906131a4565b610dc4565b005b34801561060a575f5ffd5b50610625600480360381019061062091906131ef565b610de5565b6040516106329190613229565b60405180910390f35b348015610646575f5ffd5b50610661600480360381019061065c9190613242565b610dfa565b60405161066e9190612f82565b60405180910390f35b610691600480360381019061068c9190613308565b610ffc565b005b6106ad60048036038101906106a89190613371565b6111cb565b6040516106bb929190613468565b60405180910390f35b3480156106cf575f5ffd5b506106ea60048036038101906106e5919061303e565b6111f2565b005b61070660048036038101906107019190612be6565b611283565b005b348015610713575f5ffd5b5061072e6004803603810190610729919061303e565b611300565b005b34801561073b575f5ffd5b506107566004803603810190610751919061303e565b611382565b005b348015610763575f5ffd5b5061076c611406565b6040516107799190612af1565b60405180910390f35b34801561078d575f5ffd5b506107a860048036038101906107a3919061348f565b61142d565b6040516107b59190612fb1565b60405180910390f35b6107c661277d565b60606107d0612795565b5f5f90505f3073ffffffffffffffffffffffffffffffffffffffff1663fc0c546a6040518163ffffffff1660e01b8152600401602060405180830381865afa15801561081e573d5f5f3e3d5ffd5b505050506040513d601f19601f8201168201806040525081019061084291906134ce565b73ffffffffffffffffffffffffffffffffffffffff166318160ddd6040518163ffffffff1660e01b8152600401602060405180830381865afa15801561088a573d5f5f3e3d5ffd5b505050506040513d601f19601f820116820180604052508101906108ae9190613523565b905060405180604001604052808381526020018281525094505f67ffffffffffffffff8111156108e1576108e061354e565b5b60405190808252806020026020018201604052801561091a57816020015b6109076127ad565b8152602001906001900390816108ff5790505b5093505f5f610943886040013589606001358a5f01602081019061093e91906131ef565b61146a565b915091506040518060400160405280838152602001828152509450505050509193909250565b60045f9054906101000a900473ffffffffffffffffffffffffffffffffffffffff1681565b3373ffffffffffffffffffffffffffffffffffffffff167f000000000000000000000000000000000000000000000000000000000000000073ffffffffffffffffffffffffffffffffffffffff1614610a1e57336040517f91ac5e4f000000000000000000000000000000000000000000000000000000008152600401610a159190612af1565b60405180910390fd5b8660200135610a3d885f016020810190610a3891906131ef565b6114c9565b14610a9657865f016020810190610a5491906131ef565b87602001356040517fc26bebcc000000000000000000000000000000000000000000000000000000008152600401610a8d92919061358a565b60405180910390fd5b610aa58787878787878761153a565b50505050505050565b600281565b5f5f7f02e49c2c000000000000000000000000000000000000000000000000000000006001915091509091565b5f5f60016002915091509091565b600181565b610afb6116c4565b610b05828261174b565b5050565b610b116127c6565b5f610b3684604001358560600135865f016020810190610b3191906131ef565b61146a565b9150505f5f610b4586846117aa565b91509150610b66865f016020810190610b5e91906131ef565b83838861193b565b935050505092915050565b5f30905090565b6003602052815f5260405f20602052805f5260405f205f91509150508054610b9f906135de565b80601f0160208091040260200160405190810160405280929190818152602001828054610bcb906135de565b8015610c165780601f10610bed57610100808354040283529160200191610c16565b820191905f5260205f20905b815481529060010190602001808311610bf957829003601f168201915b505050505081565b5f8160015f8563ffffffff1663ffffffff1681526020019081526020015f205414905092915050565b7f000000000000000000000000000000000000000000000000000000000000000081565b610c736116c4565b8060045f6101000a81548173ffffffffffffffffffffffffffffffffffffffff021916908373ffffffffffffffffffffffffffffffffffffffff1602179055507ff0be4f1e87349231d80c36b33f9e8639658eeaf474014dee15a3e6a4d441419781604051610ce29190612af1565b60405180910390a150565b610cf56116c4565b610cfe5f611a1c565b565b5f5f905092915050565b5f3073ffffffffffffffffffffffffffffffffffffffff168273ffffffffffffffffffffffffffffffffffffffff16149050949350505050565b5f6006905090565b5f5f5f9054906101000a900473ffffffffffffffffffffffffffffffffffffffff16905090565b7f000000000000000000000000000000000000000000000000000000000000000081565b5f6001905090565b60025f9054906101000a900473ffffffffffffffffffffffffffffffffffffffff1681565b610dcc6116c4565b610de1828290610ddc919061383f565b611add565b5050565b6001602052805f5260405f205f915090505481565b60605f60035f8763ffffffff1663ffffffff1681526020019081526020015f205f8661ffff1661ffff1681526020019081526020015f208054610e3c906135de565b80601f0160208091040260200160405190810160405280929190818152602001828054610e68906135de565b8015610eb35780601f10610e8a57610100808354040283529160200191610eb3565b820191905f5260205f20905b815481529060010190602001808311610e9657829003601f168201915b505050505090505f815103610f0e5783838080601f0160208091040260200160405190810160405280939291908181526020018383808284375f81840152601f19601f82011690508083019250505050505050915050610ff4565b5f8484905003610f215780915050610ff4565b60028484905010610fb557610f7884848080601f0160208091040260200160405190810160405280939291908181526020018383808284375f81840152601f19601f82011690508083019250505050505050611bf5565b8084846002908092610f8c9392919061385b565b604051602001610f9e939291906138f3565b604051602081830303815290604052915050610ff4565b83836040517f9a6d49cd000000000000000000000000000000000000000000000000000000008152600401610feb929190613944565b60405180910390fd5b949350505050565b5f5f90505b8282905081101561111e57368383838181106110205761101f613966565b5b9050602002810190611032919061399f565b9050611057815f015f01602081019061104b91906131ef565b825f0160200135610c1e565b6110615750611111565b3073ffffffffffffffffffffffffffffffffffffffff1663d045a0dc8260c00135835f018460a001358580610100019061109b91906139c7565b8760e00160208101906110ae919061303e565b888061012001906110bf91906139c7565b6040518963ffffffff1660e01b81526004016110e19796959493929190613afc565b5f604051808303818588803b1580156110f8575f5ffd5b505af115801561110a573d5f5f3e3d5ffd5b5050505050505b8080600101915050611001565b503373ffffffffffffffffffffffffffffffffffffffff16638e9e70996040518163ffffffff1660e01b81526004015f60405180830381865afa158015611167573d5f5f3e3d5ffd5b505050506040513d5f823e3d601f19601f8201168201806040525081019061118f9190613bcd565b6040517f8351eea70000000000000000000000000000000000000000000000000000000081526004016111c29190612f82565b60405180910390fd5b6111d36127de565b6111db612795565b6111e6858585611c4e565b91509150935093915050565b6111fa6116c4565b7f000000000000000000000000000000000000000000000000000000000000000073ffffffffffffffffffffffffffffffffffffffff1663ca5eb5e1826040518263ffffffff1660e01b81526004016112539190612af1565b5f604051808303815f87803b15801561126a575f5ffd5b505af115801561127c573d5f5f3e3d5ffd5b5050505050565b3073ffffffffffffffffffffffffffffffffffffffff163373ffffffffffffffffffffffffffffffffffffffff16146112e8576040517f14d4a4e800000000000000000000000000000000000000000000000000000000815260040160405180910390fd5b6112f787878787878787611d53565b50505050505050565b6113086116c4565b8060025f6101000a81548173ffffffffffffffffffffffffffffffffffffffff021916908373ffffffffffffffffffffffffffffffffffffffff1602179055507fd48d879cef83a1c0bdda516f27b13ddb1b3f8bbac1c9e1511bb2a659c2427760816040516113779190612af1565b60405180910390a150565b61138a6116c4565b5f73ffffffffffffffffffffffffffffffffffffffff168173ffffffffffffffffffffffffffffffffffffffff16036113fa575f6040517f1e4fbdf70000000000000000000000000000000000000000000000000000000081526004016113f19190612af1565b60405180910390fd5b61140381611a1c565b50565b5f7f0000000000000000000000000000000000000000000000000000000000000000905090565b5f816020013560015f845f01602081019061144891906131ef565b63ffffffff1663ffffffff1681526020019081526020015f2054149050919050565b5f5f61147585611d6b565b9150819050838110156114c15780846040517f71c4efed0000000000000000000000000000000000000000000000000000000081526004016114b8929190613c14565b60405180910390fd5b935093915050565b5f5f60015f8463ffffffff1663ffffffff1681526020019081526020015f205490505f5f1b810361153157826040517ff6ff4fb70000000000000000000000000000000000000000000000000000000081526004016115289190613c3b565b60405180910390fd5b80915050919050565b5f61154d6115488787611dca565b611df4565b90505f61157d826115666115618a8a611dff565b611e30565b8b5f01602081019061157891906131ef565b611e6e565b9050611589878761205b565b15611657575f6115c78a60400160208101906115a59190613c54565b8b5f0160208101906115b791906131ef565b846115c28c8c61206e565b6120d0565b90507f000000000000000000000000000000000000000000000000000000000000000073ffffffffffffffffffffffffffffffffffffffff16637cb59012848b5f856040518563ffffffff1660e01b81526004016116289493929190613cb8565b5f604051808303815f87803b15801561163f575f5ffd5b505af1158015611651573d5f5f3e3d5ffd5b50505050505b8173ffffffffffffffffffffffffffffffffffffffff16887fefed6d3500546b29533b128a29e3a94d70788727f0507505ac12eaf2e578fd9c8b5f0160208101906116a291906131ef565b846040516116b1929190613d02565b60405180910390a3505050505050505050565b6116cc612102565b73ffffffffffffffffffffffffffffffffffffffff166116ea610d4c565b73ffffffffffffffffffffffffffffffffffffffff16146117495761170d612102565b6040517f118cdaa70000000000000000000000000000000000000000000000000000000081526004016117409190612af1565b60405180910390fd5b565b8060015f8463ffffffff1663ffffffff1681526020019081526020015f20819055507f238399d427b947898edb290f5ff0f9109849b1c3ba196a42e35f00c50a54b98b828260405161179e92919061358a565b60405180910390a15050565b6060805f61181685602001356117bf86612109565b878060a001906117cf91906139c7565b8080601f0160208091040260200160405190810160405280939291908181526020018383808284375f81840152601f19601f82011690508083019250505050505050612191565b80925081945050505f8161182b57600161182e565b60025b905061185b865f01602081019061184591906131ef565b8288806080019061185691906139c7565b610dfa565b92505f60045f9054906101000a900473ffffffffffffffffffffffffffffffffffffffff1690505f73ffffffffffffffffffffffffffffffffffffffff168173ffffffffffffffffffffffffffffffffffffffff1614611931578073ffffffffffffffffffffffffffffffffffffffff1663043a78eb86866040518363ffffffff1660e01b81526004016118f0929190613d29565b602060405180830381865afa15801561190b573d5f5f3e3d5ffd5b505050506040513d601f19601f8201168201806040525081019061192f9190613d72565b505b5050509250929050565b6119436127c6565b7f000000000000000000000000000000000000000000000000000000000000000073ffffffffffffffffffffffffffffffffffffffff1663ddc28c586040518060a001604052808863ffffffff16815260200161199f896114c9565b8152602001878152602001868152602001851515815250306040518363ffffffff1660e01b81526004016119d4929190613e6e565b6040805180830381865afa1580156119ee573d5f5f3e3d5ffd5b505050506040513d601f19601f82011682018060405250810190611a129190613ee9565b9050949350505050565b5f5f5f9054906101000a900473ffffffffffffffffffffffffffffffffffffffff169050815f5f6101000a81548173ffffffffffffffffffffffffffffffffffffffff021916908373ffffffffffffffffffffffffffffffffffffffff1602179055508173ffffffffffffffffffffffffffffffffffffffff168173ffffffffffffffffffffffffffffffffffffffff167f8be0079c531659141344cd1fd0a4f28419497f9722a3daafe3b4186f6b6457e060405160405180910390a35050565b5f5f90505b8151811015611bba57611b12828281518110611b0157611b00613966565b5b602002602001015160400151611bf5565b818181518110611b2557611b24613966565b5b60200260200101516040015160035f848481518110611b4757611b46613966565b5b60200260200101515f015163ffffffff1663ffffffff1681526020019081526020015f205f848481518110611b7f57611b7e613966565b5b60200260200101516020015161ffff1661ffff1681526020019081526020015f209081611bac91906140ab565b508080600101915050611ae2565b507fbe4864a8e820971c0247f5992e2da559595f7bf076a21cb5928d443d2a13b67481604051611bea9190614291565b60405180910390a150565b5f60028201519050600361ffff168161ffff1614611c4a57816040517f9a6d49cd000000000000000000000000000000000000000000000000000000008152600401611c419190612f82565b60405180910390fd5b5050565b611c566127de565b611c5e612795565b5f5f611c8533886040013589606001358a5f016020810190611c8091906131ef565b6121ff565b915091505f5f611c9589846117aa565b91509150611cc7895f016020810190611cae91906131ef565b83838b803603810190611cc19190614312565b8b612317565b955060405180604001604052808581526020018481525094503373ffffffffffffffffffffffffffffffffffffffff16865f01517f85496b760a4b7f8d66384b9df21b381f5d1b1e79f229a47aaf4c232edc2fe59a8b5f016020810190611d2e91906131ef565b8787604051611d3f9392919061433d565b60405180910390a350505050935093915050565b611d628787878787878761153a565b50505050505050565b5f7f00000000000000000000000000000000000000000000000000000000000000007f000000000000000000000000000000000000000000000000000000000000000083611db991906143cc565b611dc391906143fc565b9050919050565b5f82825f90602060ff1692611de19392919061385b565b90611dec9190614447565b905092915050565b5f815f1c9050919050565b5f8282602060ff1690602860ff1692611e1a9392919061385b565b90611e2591906144d0565b60c01c905092915050565b5f7f00000000000000000000000000000000000000000000000000000000000000008267ffffffffffffffff16611e6791906143fc565b9050919050565b5f5f73ffffffffffffffffffffffffffffffffffffffff168473ffffffffffffffffffffffffffffffffffffffff1603611ea85761dead93505b6120194603611fb357823073ffffffffffffffffffffffffffffffffffffffff166370a08231306040518263ffffffff1660e01b8152600401611eeb9190612af1565b602060405180830381865afa158015611f06573d5f5f3e3d5ffd5b505050506040513d601f19601f82011682018060405250810190611f2a9190613523565b1015611f62576040517ff4d678b800000000000000000000000000000000000000000000000000000000815260040160405180910390fd5b611fae848460065f9054906101000a900473ffffffffffffffffffffffffffffffffffffffff1673ffffffffffffffffffffffffffffffffffffffff1661242d9092919063ffffffff16565b612051565b60075f9054906101000a900473ffffffffffffffffffffffffffffffffffffffff1673ffffffffffffffffffffffffffffffffffffffff166340c10f1985856040518363ffffffff1660e01b815260040161200f92919061452e565b6020604051808303815f875af115801561202b573d5f5f3e3d5ffd5b505050506040513d601f19601f8201168201806040525081019061204f9190613d72565b505b8290509392505050565b5f602860ff168383905011905092915050565b60608282602860ff169080926120869392919061385b565b8080601f0160208091040260200160405190810160405280939291908181526020018383808284375f81840152601f19601f82011690508083019250505050505050905092915050565b6060848484846040516020016120e994939291906145dd565b6040516020818303038152906040529050949350505050565b5f33905090565b5f5f7f00000000000000000000000000000000000000000000000000000000000000008361213791906143cc565b905067ffffffffffffffff801681111561218857806040517fe2ce941300000000000000000000000000000000000000000000000000000000815260040161217f9190613136565b60405180910390fd5b80915050919050565b60605f5f8351119050806121c65784846040516020016121b2929190614646565b6040516020818303038152906040526121f5565b84846121d1336124ac565b856040516020016121e59493929190614671565b6040516020818303038152906040525b9150935093915050565b5f5f61220c85858561146a565b809250819350505061201946036122705761226b86308460065f9054906101000a900473ffffffffffffffffffffffffffffffffffffffff1673ffffffffffffffffffffffffffffffffffffffff166124cd909392919063ffffffff16565b61230e565b60075f9054906101000a900473ffffffffffffffffffffffffffffffffffffffff1673ffffffffffffffffffffffffffffffffffffffff16639dc29fac87846040518363ffffffff1660e01b81526004016122cc92919061452e565b6020604051808303815f875af11580156122e8573d5f5f3e3d5ffd5b505050506040513d601f19601f8201168201806040525081019061230c9190613d72565b505b94509492505050565b61231f6127de565b5f61232c845f015161254f565b90505f8460200151111561234857612347846020015161259c565b5b7f000000000000000000000000000000000000000000000000000000000000000073ffffffffffffffffffffffffffffffffffffffff16632637a450826040518060a001604052808b63ffffffff1681526020016123a58c6114c9565b81526020018a81526020018981526020015f8960200151111515815250866040518463ffffffff1660e01b81526004016123e0929190613e6e565b60806040518083038185885af11580156123fc573d5f5f3e3d5ffd5b50505050506040513d601f19601f820116820180604052508101906124219190614743565b91505095945050505050565b6124a7838473ffffffffffffffffffffffffffffffffffffffff1663a9059cbb858560405160240161246092919061452e565b604051602081830303815290604052915060e01b6020820180517bffffffffffffffffffffffffffffffffffffffffffffffffffffffff83818316178352505050506126e2565b505050565b5f8173ffffffffffffffffffffffffffffffffffffffff165f1b9050919050565b612549848573ffffffffffffffffffffffffffffffffffffffff166323b872dd8686866040516024016125029392919061476e565b604051602081830303815290604052915060e01b6020820180517bffffffffffffffffffffffffffffffffffffffffffffffffffffffff83818316178352505050506126e2565b50505050565b5f81341461259457346040517f9f70412000000000000000000000000000000000000000000000000000000000815260040161258b9190613136565b60405180910390fd5b819050919050565b5f7f000000000000000000000000000000000000000000000000000000000000000073ffffffffffffffffffffffffffffffffffffffff1663e4fe1d946040518163ffffffff1660e01b8152600401602060405180830381865afa158015612606573d5f5f3e3d5ffd5b505050506040513d601f19601f8201168201806040525081019061262a91906134ce565b90505f73ffffffffffffffffffffffffffffffffffffffff168173ffffffffffffffffffffffffffffffffffffffff1603612691576040517f5373352a00000000000000000000000000000000000000000000000000000000815260040160405180910390fd5b6126de337f0000000000000000000000000000000000000000000000000000000000000000848473ffffffffffffffffffffffffffffffffffffffff166124cd909392919063ffffffff16565b5050565b5f5f60205f8451602086015f885af180612701576040513d5f823e3d81fd5b3d92505f519150505f821461271a576001811415612735565b5f8473ffffffffffffffffffffffffffffffffffffffff163b145b1561277757836040517f5274afe700000000000000000000000000000000000000000000000000000000815260040161276e9190612af1565b60405180910390fd5b50505050565b60405180604001604052805f81526020015f81525090565b60405180604001604052805f81526020015f81525090565b60405180604001604052805f8152602001606081525090565b60405180604001604052805f81526020015f81525090565b60405180606001604052805f81526020015f67ffffffffffffffff1681526020016128076127c6565b81525090565b5f604051905090565b5f5ffd5b5f5ffd5b5f5ffd5b5f60e082840312156128375761283661281e565b5b81905092915050565b5f6020828403121561285557612854612816565b5b5f82013567ffffffffffffffff8111156128725761287161281a565b5b61287e84828501612822565b91505092915050565b5f819050919050565b61289981612887565b82525050565b604082015f8201516128b35f850182612890565b5060208201516128c66020850182612890565b50505050565b5f81519050919050565b5f82825260208201905092915050565b5f819050602082019050919050565b5f819050919050565b612907816128f5565b82525050565b5f81519050919050565b5f82825260208201905092915050565b8281835e5f83830152505050565b5f601f19601f8301169050919050565b5f61294f8261290d565b6129598185612917565b9350612969818560208601612927565b61297281612935565b840191505092915050565b5f604083015f8301516129925f8601826128fe565b50602083015184820360208601526129aa8282612945565b9150508091505092915050565b5f6129c2838361297d565b905092915050565b5f602082019050919050565b5f6129e0826128cc565b6129ea81856128d6565b9350836020820285016129fc856128e6565b805f5b85811015612a375784840389528151612a1885826129b7565b9450612a23836129ca565b925060208a019950506001810190506129ff565b50829750879550505050505092915050565b604082015f820151612a5d5f850182612890565b506020820151612a706020850182612890565b50505050565b5f60a082019050612a895f83018661289f565b8181036040830152612a9b81856129d6565b9050612aaa6060830184612a49565b949350505050565b5f73ffffffffffffffffffffffffffffffffffffffff82169050919050565b5f612adb82612ab2565b9050919050565b612aeb81612ad1565b82525050565b5f602082019050612b045f830184612ae2565b92915050565b5f60608284031215612b1f57612b1e61281e565b5b81905092915050565b5f819050919050565b612b3a81612b28565b8114612b44575f5ffd5b50565b5f81359050612b5581612b31565b92915050565b5f5ffd5b5f5ffd5b5f5ffd5b5f5f83601f840112612b7c57612b7b612b5b565b5b8235905067ffffffffffffffff811115612b9957612b98612b5f565b5b602083019150836001820283011115612bb557612bb4612b63565b5b9250929050565b612bc581612ad1565b8114612bcf575f5ffd5b50565b5f81359050612be081612bbc565b92915050565b5f5f5f5f5f5f5f60e0888a031215612c0157612c00612816565b5b5f612c0e8a828b01612b0a565b9750506060612c1f8a828b01612b47565b965050608088013567ffffffffffffffff811115612c4057612c3f61281a565b5b612c4c8a828b01612b67565b955095505060a0612c5f8a828b01612bd2565b93505060c088013567ffffffffffffffff811115612c8057612c7f61281a565b5b612c8c8a828b01612b67565b925092505092959891949750929550565b5f61ffff82169050919050565b612cb381612c9d565b82525050565b5f602082019050612ccc5f830184612caa565b92915050565b5f7fffffffff0000000000000000000000000000000000000000000000000000000082169050919050565b612d0681612cd2565b82525050565b5f67ffffffffffffffff82169050919050565b612d2881612d0c565b82525050565b5f604082019050612d415f830185612cfd565b612d4e6020830184612d1f565b9392505050565b5f604082019050612d685f830185612d1f565b612d756020830184612d1f565b9392505050565b5f63ffffffff82169050919050565b612d9481612d7c565b8114612d9e575f5ffd5b50565b5f81359050612daf81612d8b565b92915050565b5f5f60408385031215612dcb57612dca612816565b5b5f612dd885828601612da1565b9250506020612de985828601612b47565b9150509250929050565b5f8115159050919050565b612e0781612df3565b8114612e11575f5ffd5b50565b5f81359050612e2281612dfe565b92915050565b5f5f60408385031215612e3e57612e3d612816565b5b5f83013567ffffffffffffffff811115612e5b57612e5a61281a565b5b612e6785828601612822565b9250506020612e7885828601612e14565b9150509250929050565b604082015f820151612e965f850182612890565b506020820151612ea96020850182612890565b50505050565b5f604082019050612ec25f830184612e82565b92915050565b612ed181612c9d565b8114612edb575f5ffd5b50565b5f81359050612eec81612ec8565b92915050565b5f5f60408385031215612f0857612f07612816565b5b5f612f1585828601612da1565b9250506020612f2685828601612ede565b9150509250929050565b5f81519050919050565b5f82825260208201905092915050565b5f612f5482612f30565b612f5e8185612f3a565b9350612f6e818560208601612927565b612f7781612935565b840191505092915050565b5f6020820190508181035f830152612f9a8184612f4a565b905092915050565b612fab81612df3565b82525050565b5f602082019050612fc45f830184612fa2565b92915050565b5f819050919050565b5f612fed612fe8612fe384612ab2565b612fca565b612ab2565b9050919050565b5f612ffe82612fd3565b9050919050565b5f61300f82612ff4565b9050919050565b61301f81613005565b82525050565b5f6020820190506130385f830184613016565b92915050565b5f6020828403121561305357613052612816565b5b5f61306084828501612bd2565b91505092915050565b5f60208201905061307c5f830184612d1f565b92915050565b5f5f5f5f60a0858703121561309a57613099612816565b5b5f6130a787828801612b0a565b945050606085013567ffffffffffffffff8111156130c8576130c761281a565b5b6130d487828801612b67565b935093505060806130e787828801612bd2565b91505092959194509250565b5f60ff82169050919050565b613108816130f3565b82525050565b5f6020820190506131215f8301846130ff565b92915050565b61313081612887565b82525050565b5f6020820190506131495f830184613127565b92915050565b5f5f83601f84011261316457613163612b5b565b5b8235905067ffffffffffffffff81111561318157613180612b5f565b5b60208301915083602082028301111561319d5761319c612b63565b5b9250929050565b5f5f602083850312156131ba576131b9612816565b5b5f83013567ffffffffffffffff8111156131d7576131d661281a565b5b6131e38582860161314f565b92509250509250929050565b5f6020828403121561320457613203612816565b5b5f61321184828501612da1565b91505092915050565b61322381612b28565b82525050565b5f60208201905061323c5f83018461321a565b92915050565b5f5f5f5f6060858703121561325a57613259612816565b5b5f61326787828801612da1565b945050602061327887828801612ede565b935050604085013567ffffffffffffffff8111156132995761329861281a565b5b6132a587828801612b67565b925092505092959194509250565b5f5f83601f8401126132c8576132c7612b5b565b5b8235905067ffffffffffffffff8111156132e5576132e4612b5f565b5b60208301915083602082028301111561330157613300612b63565b5b9250929050565b5f5f6020838503121561331e5761331d612816565b5b5f83013567ffffffffffffffff81111561333b5761333a61281a565b5b613347858286016132b3565b92509250509250929050565b5f604082840312156133685761336761281e565b5b81905092915050565b5f5f5f6080848603121561338857613387612816565b5b5f84013567ffffffffffffffff8111156133a5576133a461281a565b5b6133b186828701612822565b93505060206133c286828701613353565b92505060606133d386828701612bd2565b9150509250925092565b6133e681612b28565b82525050565b6133f581612d0c565b82525050565b604082015f82015161340f5f850182612890565b5060208201516134226020850182612890565b50505050565b608082015f82015161343c5f8501826133dd565b50602082015161344f60208501826133ec565b50604082015161346260408501826133fb565b50505050565b5f60c08201905061347b5f830185613428565b6134886080830184612a49565b9392505050565b5f606082840312156134a4576134a3612816565b5b5f6134b184828501612b0a565b91505092915050565b5f815190506134c881612bbc565b92915050565b5f602082840312156134e3576134e2612816565b5b5f6134f0848285016134ba565b91505092915050565b61350281612887565b811461350c575f5ffd5b50565b5f8151905061351d816134f9565b92915050565b5f6020828403121561353857613537612816565b5b5f6135458482850161350f565b91505092915050565b7f4e487b71000000000000000000000000000000000000000000000000000000005f52604160045260245ffd5b61358481612d7c565b82525050565b5f60408201905061359d5f83018561357b565b6135aa602083018461321a565b9392505050565b7f4e487b71000000000000000000000000000000000000000000000000000000005f52602260045260245ffd5b5f60028204905060018216806135f557607f821691505b602082108103613608576136076135b1565b5b50919050565b61361782612935565b810181811067ffffffffffffffff821117156136365761363561354e565b5b80604052505050565b5f61364861280d565b9050613654828261360e565b919050565b5f67ffffffffffffffff8211156136735761367261354e565b5b602082029050602081019050919050565b5f5ffd5b5f5ffd5b5f5ffd5b5f67ffffffffffffffff8211156136aa576136a961354e565b5b6136b382612935565b9050602081019050919050565b828183375f83830152505050565b5f6136e06136db84613690565b61363f565b9050828152602081018484840111156136fc576136fb61368c565b5b6137078482856136c0565b509392505050565b5f82601f83011261372357613722612b5b565b5b81356137338482602086016136ce565b91505092915050565b5f6060828403121561375157613750613684565b5b61375b606061363f565b90505f61376a84828501612da1565b5f83015250602061377d84828501612ede565b602083015250604082013567ffffffffffffffff8111156137a1576137a0613688565b5b6137ad8482850161370f565b60408301525092915050565b5f6137cb6137c684613659565b61363f565b905080838252602082019050602084028301858111156137ee576137ed612b63565b5b835b8181101561383557803567ffffffffffffffff81111561381357613812612b5b565b5b808601613820898261373c565b855260208501945050506020810190506137f0565b5050509392505050565b5f61384b3684846137b9565b905092915050565b5f5ffd5b5f5ffd5b5f5f8585111561386e5761386d613853565b5b8386111561387f5761387e613857565b5b6001850283019150848603905094509492505050565b5f81905092915050565b5f6138a982612f30565b6138b38185613895565b93506138c3818560208601612927565b80840191505092915050565b5f6138da8385613895565b93506138e78385846136c0565b82840190509392505050565b5f6138fe828661389f565b915061390b8284866138cf565b9150819050949350505050565b5f6139238385612f3a565b93506139308385846136c0565b61393983612935565b840190509392505050565b5f6020820190508181035f83015261395d818486613918565b90509392505050565b7f4e487b71000000000000000000000000000000000000000000000000000000005f52603260045260245ffd5b5f5ffd5b5f5ffd5b5f5ffd5b5f82356001610140038336030381126139bb576139ba613993565b5b80830191505092915050565b5f5f833560016020038436030381126139e3576139e2613993565b5b80840192508235915067ffffffffffffffff821115613a0557613a04613997565b5b602083019250600182023603831315613a2157613a2061399b565b5b509250929050565b5f613a376020840184612da1565b905092915050565b613a4881612d7c565b82525050565b5f613a5c6020840184612b47565b905092915050565b613a6d81612d0c565b8114613a77575f5ffd5b50565b5f81359050613a8881613a64565b92915050565b5f613a9c6020840184613a7a565b905092915050565b60608201613ab45f830183613a29565b613ac05f850182613a3f565b50613ace6020830183613a4e565b613adb60208501826133dd565b50613ae96040830183613a8e565b613af660408501826133ec565b50505050565b5f60e082019050613b0f5f83018a613aa4565b613b1c606083018961321a565b8181036080830152613b2f818789613918565b9050613b3e60a0830186612ae2565b81810360c0830152613b51818486613918565b905098975050505050505050565b5f613b71613b6c84613690565b61363f565b905082815260208101848484011115613b8d57613b8c61368c565b5b613b98848285612927565b509392505050565b5f82601f830112613bb457613bb3612b5b565b5b8151613bc4848260208601613b5f565b91505092915050565b5f60208284031215613be257613be1612816565b5b5f82015167ffffffffffffffff811115613bff57613bfe61281a565b5b613c0b84828501613ba0565b91505092915050565b5f604082019050613c275f830185613127565b613c346020830184613127565b9392505050565b5f602082019050613c4e5f83018461357b565b92915050565b5f60208284031215613c6957613c68612816565b5b5f613c7684828501613a7a565b91505092915050565b5f819050919050565b5f613ca2613c9d613c9884613c7f565b612fca565b612c9d565b9050919050565b613cb281613c88565b82525050565b5f608082019050613ccb5f830187612ae2565b613cd8602083018661321a565b613ce56040830185613ca9565b8181036060830152613cf78184612f4a565b905095945050505050565b5f604082019050613d155f83018561357b565b613d226020830184613127565b9392505050565b5f6040820190508181035f830152613d418185612f4a565b90508181036020830152613d558184612f4a565b90509392505050565b5f81519050613d6c81612dfe565b92915050565b5f60208284031215613d8757613d86612816565b5b5f613d9484828501613d5e565b91505092915050565b5f82825260208201905092915050565b5f613db782612f30565b613dc18185613d9d565b9350613dd1818560208601612927565b613dda81612935565b840191505092915050565b613dee81612df3565b82525050565b5f60a083015f830151613e095f860182613a3f565b506020830151613e1c60208601826133dd565b5060408301518482036040860152613e348282613dad565b91505060608301518482036060860152613e4e8282613dad565b9150506080830151613e636080860182613de5565b508091505092915050565b5f6040820190508181035f830152613e868185613df4565b9050613e956020830184612ae2565b9392505050565b5f60408284031215613eb157613eb0613684565b5b613ebb604061363f565b90505f613eca8482850161350f565b5f830152506020613edd8482850161350f565b60208301525092915050565b5f60408284031215613efe57613efd612816565b5b5f613f0b84828501613e9c565b91505092915050565b5f819050815f5260205f209050919050565b5f6020601f8301049050919050565b5f82821b905092915050565b5f60088302613f707fffffffffffffffffffffffffffffffffffffffffffffffffffffffffffffffff82613f35565b613f7a8683613f35565b95508019841693508086168417925050509392505050565b5f613fac613fa7613fa284612887565b612fca565b612887565b9050919050565b5f819050919050565b613fc583613f92565b613fd9613fd182613fb3565b848454613f41565b825550505050565b5f5f905090565b613ff0613fe1565b613ffb818484613fbc565b505050565b5b8181101561401e576140135f82613fe8565b600181019050614001565b5050565b601f8211156140635761403481613f14565b61403d84613f26565b8101602085101561404c578190505b61406061405885613f26565b830182614000565b50505b505050565b5f82821c905092915050565b5f6140835f1984600802614068565b1980831691505092915050565b5f61409b8383614074565b9150826002028217905092915050565b6140b482612f30565b67ffffffffffffffff8111156140cd576140cc61354e565b5b6140d782546135de565b6140e2828285614022565b5f60209050601f831160018114614113575f8415614101578287015190505b61410b8582614090565b865550614172565b601f19841661412186613f14565b5f5b8281101561414857848901518255600182019150602085019450602081019050614123565b868310156141655784890151614161601f891682614074565b8355505b6001600288020188555050505b505050505050565b5f81519050919050565b5f82825260208201905092915050565b5f819050602082019050919050565b6141ac81612c9d565b82525050565b5f606083015f8301516141c75f860182613a3f565b5060208301516141da60208601826141a3565b50604083015184820360408601526141f28282613dad565b9150508091505092915050565b5f61420a83836141b2565b905092915050565b5f602082019050919050565b5f6142288261417a565b6142328185614184565b93508360208202850161424485614194565b805f5b8581101561427f578484038952815161426085826141ff565b945061426b83614212565b925060208a01995050600181019050614247565b50829750879550505050505092915050565b5f6020820190508181035f8301526142a9818461421e565b905092915050565b5f813590506142bf816134f9565b92915050565b5f604082840312156142da576142d9613684565b5b6142e4604061363f565b90505f6142f3848285016142b1565b5f830152506020614306848285016142b1565b60208301525092915050565b5f6040828403121561432757614326612816565b5b5f614334848285016142c5565b91505092915050565b5f6060820190506143505f83018661357b565b61435d6020830185613127565b61436a6040830184613127565b949350505050565b7f4e487b71000000000000000000000000000000000000000000000000000000005f52601260045260245ffd5b7f4e487b71000000000000000000000000000000000000000000000000000000005f52601160045260245ffd5b5f6143d682612887565b91506143e183612887565b9250826143f1576143f0614372565b5b828204905092915050565b5f61440682612887565b915061441183612887565b925082820261441f81612887565b915082820484148315176144365761443561439f565b5b5092915050565b5f82905092915050565b5f614452838361443d565b8261445d8135612b28565b9250602082101561449d576144987fffffffffffffffffffffffffffffffffffffffffffffffffffffffffffffffff83602003600802613f35565b831692505b505092915050565b5f7fffffffffffffffff00000000000000000000000000000000000000000000000082169050919050565b5f6144db838361443d565b826144e681356144a5565b92506008821015614526576145217fffffffffffffffff00000000000000000000000000000000000000000000000083600803600802613f35565b831692505b505092915050565b5f6040820190506145415f830185612ae2565b61454e6020830184613127565b9392505050565b5f8160c01b9050919050565b5f61456b82614555565b9050919050565b61458361457e82612d0c565b614561565b82525050565b5f8160e01b9050919050565b5f61459f82614589565b9050919050565b6145b76145b282612d7c565b614595565b82525050565b5f819050919050565b6145d76145d282612887565b6145bd565b82525050565b5f6145e88287614572565b6008820191506145f882866145a6565b60048201915061460882856145c6565b602082019150614618828461389f565b915081905095945050505050565b5f819050919050565b61464061463b82612b28565b614626565b82525050565b5f614651828561462f565b6020820191506146618284614572565b6008820191508190509392505050565b5f61467c828761462f565b60208201915061468c8286614572565b60088201915061469c828561462f565b6020820191506146ac828461389f565b915081905095945050505050565b5f815190506146c881612b31565b92915050565b5f815190506146dc81613a64565b92915050565b5f608082840312156146f7576146f6613684565b5b614701606061363f565b90505f614710848285016146ba565b5f830152506020614723848285016146ce565b602083015250604061473784828501613e9c565b60408301525092915050565b5f6080828403121561475857614757612816565b5b5f614765848285016146e2565b91505092915050565b5f6060820190506147815f830186612ae2565b61478e6020830185612ae2565b61479b6040830184613127565b94935050505056fea26469706673582212206badc52a8df6a0161762c95e9833f69160d9973f11ac60ca55a2b60ede7e68df64736f6c634300081c0033000000000000000000000000ceb5c8903060197e46ab5ea5087b9f99cbc8da490000000000000000000000007c9cf703903680ae5eb6ec2bb2bebb1ec751918a0000000000000000000000001a44076050125825900e736c501f859c50fe728c0000000000000000000000000ece75f3c36f7df2136dac7633165dbff53de3cd",
        "nonce": "0x52",
        "chainId": "0x2019"
      },
      "additionalContracts": [],
      "isFixedGasLimit": false
    },
    {
      "hash": "0x2f8a9275d70856f0f5a66ac5e704d47a3a111a0243cbbae09909e0f27ce8efb7",
      "transactionType": "CALL",
      "contractName": "ElevatedMinterBurner",
      "contractAddress": "0x7c9cf703903680ae5eb6ec2bb2bebb1ec751918a",
      "function": "setOperator(address,bool)",
      "arguments": [
        "0x5e6671ef689B2B2D4391a766B0486E5054136546",
        "true"
      ],
      "transaction": {
        "from": "0x0ece75f3c36f7df2136dac7633165dbff53de3cd",
        "to": "0x7c9cf703903680ae5eb6ec2bb2bebb1ec751918a",
        "gas": "0xfc45",
        "value": "0x0",
        "input": "0x558a72970000000000000000000000005e6671ef689b2b2d4391a766b0486e50541365460000000000000000000000000000000000000000000000000000000000000001",
        "nonce": "0x53",
        "chainId": "0x2019"
      },
      "additionalContracts": [],
      "isFixedGasLimit": false
    },
    {
      "hash": "0x796f47b7b1c4ad0bdc608d3ebc8993674ae0dda2e39670bd05e1cb881f7e1676",
      "transactionType": "CREATE",
      "contractName": "ElevatedMinterBurner",
      "contractAddress": "0xc160a1bcf0c79a6fc5b0f015bfaaa9a6cda35687",
      "function": null,
      "arguments": [
        "0x684a2aAF3d98bC8eD2c07988E8da9023026aD511",
        "0x0EcE75f3C36f7Df2136Dac7633165DBff53dE3CD"
      ],
      "transaction": {
        "from": "0x0ece75f3c36f7df2136dac7633165dbff53de3cd",
        "gas": "0xc6819",
        "value": "0x0",
        "input": "0x60a060405234801561000f575f5ffd5b50604051610c5f380380610c5f8339818101604052810190610031919061020c565b805f73ffffffffffffffffffffffffffffffffffffffff168173ffffffffffffffffffffffffffffffffffffffff16036100a2575f6040517f1e4fbdf70000000000000000000000000000000000000000000000000000000081526004016100999190610259565b60405180910390fd5b6100b1816100ed60201b60201c565b508173ffffffffffffffffffffffffffffffffffffffff1660808173ffffffffffffffffffffffffffffffffffffffff16815250505050610272565b5f5f5f9054906101000a900473ffffffffffffffffffffffffffffffffffffffff169050815f5f6101000a81548173ffffffffffffffffffffffffffffffffffffffff021916908373ffffffffffffffffffffffffffffffffffffffff1602179055508173ffffffffffffffffffffffffffffffffffffffff168173ffffffffffffffffffffffffffffffffffffffff167f8be0079c531659141344cd1fd0a4f28419497f9722a3daafe3b4186f6b6457e060405160405180910390a35050565b5f5ffd5b5f73ffffffffffffffffffffffffffffffffffffffff82169050919050565b5f6101db826101b2565b9050919050565b6101eb816101d1565b81146101f5575f5ffd5b50565b5f81519050610206816101e2565b92915050565b5f5f60408385031215610222576102216101ae565b5b5f61022f858286016101f8565b9250506020610240858286016101f8565b9150509250929050565b610253816101d1565b82525050565b5f60208201905061026c5f83018461024a565b92915050565b6080516109c061029f5f395f81816101c0015281816102c50152818161031901526103b501526109c05ff3fe608060405234801561000f575f5ffd5b5060043610610086575f3560e01c806382bfefc81161005957806382bfefc8146101105780638da5cb5b1461012e5780639dc29fac1461014c578063f2fde38b1461017c57610086565b806313e7c9d81461008a57806340c10f19146100ba578063558a7297146100ea578063715018a614610106575b5f5ffd5b6100a4600480360381019061009f919061073e565b610198565b6040516100b19190610783565b60405180910390f35b6100d460048036038101906100cf91906107cf565b6101b5565b6040516100e19190610783565b60405180910390f35b61010460048036038101906100ff9190610837565b610250565b005b61010e6102b0565b005b6101186102c3565b6040516101259190610884565b60405180910390f35b6101366102e7565b6040516101439190610884565b60405180910390f35b610166600480360381019061016191906107cf565b61030e565b6040516101739190610783565b60405180910390f35b6101966004803603810190610191919061073e565b610445565b005b6001602052805f5260405f205f915054906101000a900460ff1681565b5f6101be6104c9565b7f000000000000000000000000000000000000000000000000000000000000000073ffffffffffffffffffffffffffffffffffffffff166340c10f1984846040518363ffffffff1660e01b81526004016102199291906108ac565b5f604051808303815f87803b158015610230575f5ffd5b505af1158015610242573d5f5f3e3d5ffd5b505050506001905092915050565b610258610591565b8060015f8473ffffffffffffffffffffffffffffffffffffffff1673ffffffffffffffffffffffffffffffffffffffff1681526020019081526020015f205f6101000a81548160ff0219169083151502179055505050565b6102b8610591565b6102c15f610618565b565b7f000000000000000000000000000000000000000000000000000000000000000081565b5f5f5f9054906101000a900473ffffffffffffffffffffffffffffffffffffffff16905090565b5f6103176104c9565b7f000000000000000000000000000000000000000000000000000000000000000073ffffffffffffffffffffffffffffffffffffffff1663095ea7b330846040518363ffffffff1660e01b81526004016103729291906108ac565b6020604051808303815f875af115801561038e573d5f5f3e3d5ffd5b505050506040513d601f19601f820116820180604052508101906103b291906108e7565b507f000000000000000000000000000000000000000000000000000000000000000073ffffffffffffffffffffffffffffffffffffffff16639dc29fac84846040518363ffffffff1660e01b815260040161040e9291906108ac565b5f604051808303815f87803b158015610425575f5ffd5b505af1158015610437573d5f5f3e3d5ffd5b505050506001905092915050565b61044d610591565b5f73ffffffffffffffffffffffffffffffffffffffff168173ffffffffffffffffffffffffffffffffffffffff16036104bd575f6040517f1e4fbdf70000000000000000000000000000000000000000000000000000000081526004016104b49190610884565b60405180910390fd5b6104c681610618565b50565b60015f3373ffffffffffffffffffffffffffffffffffffffff1673ffffffffffffffffffffffffffffffffffffffff1681526020019081526020015f205f9054906101000a900460ff168061055057506105216102e7565b73ffffffffffffffffffffffffffffffffffffffff163373ffffffffffffffffffffffffffffffffffffffff16145b61058f576040517f08c379a00000000000000000000000000000000000000000000000000000000081526004016105869061096c565b60405180910390fd5b565b6105996106d9565b73ffffffffffffffffffffffffffffffffffffffff166105b76102e7565b73ffffffffffffffffffffffffffffffffffffffff1614610616576105da6106d9565b6040517f118cdaa700000000000000000000000000000000000000000000000000000000815260040161060d9190610884565b60405180910390fd5b565b5f5f5f9054906101000a900473ffffffffffffffffffffffffffffffffffffffff169050815f5f6101000a81548173ffffffffffffffffffffffffffffffffffffffff021916908373ffffffffffffffffffffffffffffffffffffffff1602179055508173ffffffffffffffffffffffffffffffffffffffff168173ffffffffffffffffffffffffffffffffffffffff167f8be0079c531659141344cd1fd0a4f28419497f9722a3daafe3b4186f6b6457e060405160405180910390a35050565b5f33905090565b5f5ffd5b5f73ffffffffffffffffffffffffffffffffffffffff82169050919050565b5f61070d826106e4565b9050919050565b61071d81610703565b8114610727575f5ffd5b50565b5f8135905061073881610714565b92915050565b5f60208284031215610753576107526106e0565b5b5f6107608482850161072a565b91505092915050565b5f8115159050919050565b61077d81610769565b82525050565b5f6020820190506107965f830184610774565b92915050565b5f819050919050565b6107ae8161079c565b81146107b8575f5ffd5b50565b5f813590506107c9816107a5565b92915050565b5f5f604083850312156107e5576107e46106e0565b5b5f6107f28582860161072a565b9250506020610803858286016107bb565b9150509250929050565b61081681610769565b8114610820575f5ffd5b50565b5f813590506108318161080d565b92915050565b5f5f6040838503121561084d5761084c6106e0565b5b5f61085a8582860161072a565b925050602061086b85828601610823565b9150509250929050565b61087e81610703565b82525050565b5f6020820190506108975f830184610875565b92915050565b6108a68161079c565b82525050565b5f6040820190506108bf5f830185610875565b6108cc602083018461089d565b9392505050565b5f815190506108e18161080d565b92915050565b5f602082840312156108fc576108fb6106e0565b5b5f610909848285016108d3565b91505092915050565b5f82825260208201905092915050565b7f4e6f7420617574686f72697a65640000000000000000000000000000000000005f82015250565b5f610956600e83610912565b915061096182610922565b602082019050919050565b5f6020820190508181035f8301526109838161094a565b905091905056fea2646970667358221220743e92146a1c03b64e64c7d153162063aace42485f458ebfbe023e44a720f64964736f6c634300081c0033000000000000000000000000684a2aaf3d98bc8ed2c07988e8da9023026ad5110000000000000000000000000ece75f3c36f7df2136dac7633165dbff53de3cd",
        "nonce": "0x54",
        "chainId": "0x2019"
      },
      "additionalContracts": [],
      "isFixedGasLimit": false
    },
    {
      "hash": "0xdb87e17ac68ba6d124c6cd969d6f200f74e43d568e66ade09acaad861039a21e",
      "transactionType": "CREATE",
      "contractName": "OFTKAIAadapter",
      "contractAddress": "0xcdec0d768e43090a9eec47d87d8165e9fa78b204",
      "function": null,
      "arguments": [
        "0x684a2aAF3d98bC8eD2c07988E8da9023026aD511",
        "0xc160A1bcF0c79A6fC5b0f015bfaAA9A6CDa35687",
        "0x1a44076050125825900e736c501f859c50fE728c",
        "0x0EcE75f3C36f7Df2136Dac7633165DBff53dE3CD"
      ],
      "transaction": {
        "from": "0x0ece75f3c36f7df2136dac7633165dbff53de3cd",
        "gas": "0x52036f",
        "value": "0x0",
        "input": "0x60e060405234801561000f575f5ffd5b50604051614f07380380614f0783398181016040528101906100319190610498565b8382828273ffffffffffffffffffffffffffffffffffffffff1663313ce5676040518163ffffffff1660e01b8152600401602060405180830381865afa15801561007d573d5f5f3e3d5ffd5b505050506040513d601f19601f820116820180604052508101906100a19190610532565b8282818181818a5f73ffffffffffffffffffffffffffffffffffffffff168173ffffffffffffffffffffffffffffffffffffffff1603610118575f6040517f1e4fbdf700000000000000000000000000000000000000000000000000000000815260040161010f919061056c565b60405180910390fd5b6101278161037160201b60201c565b508173ffffffffffffffffffffffffffffffffffffffff1660808173ffffffffffffffffffffffffffffffffffffffff16815250505f73ffffffffffffffffffffffffffffffffffffffff168173ffffffffffffffffffffffffffffffffffffffff16036101c1576040517fb586360400000000000000000000000000000000000000000000000000000000815260040160405180910390fd5b60805173ffffffffffffffffffffffffffffffffffffffff1663ca5eb5e1826040518263ffffffff1660e01b81526004016101fc919061056c565b5f604051808303815f87803b158015610213575f5ffd5b505af1158015610225573d5f5f3e3d5ffd5b505050505050505061023b61043260201b60201c565b60ff168360ff16101561027a576040517f1e9714b000000000000000000000000000000000000000000000000000000000815260040160405180910390fd5b61028861043260201b60201c565b8361029391906105b2565b600a61029f919061071e565b60a081815250505050508273ffffffffffffffffffffffffffffffffffffffff1660c08173ffffffffffffffffffffffffffffffffffffffff168152505050505060016005819055508360065f6101000a81548173ffffffffffffffffffffffffffffffffffffffff021916908373ffffffffffffffffffffffffffffffffffffffff1602179055508260075f6101000a81548173ffffffffffffffffffffffffffffffffffffffff021916908373ffffffffffffffffffffffffffffffffffffffff16021790555050505050610768565b5f5f5f9054906101000a900473ffffffffffffffffffffffffffffffffffffffff169050815f5f6101000a81548173ffffffffffffffffffffffffffffffffffffffff021916908373ffffffffffffffffffffffffffffffffffffffff1602179055508173ffffffffffffffffffffffffffffffffffffffff168173ffffffffffffffffffffffffffffffffffffffff167f8be0079c531659141344cd1fd0a4f28419497f9722a3daafe3b4186f6b6457e060405160405180910390a35050565b5f6012905090565b5f5ffd5b5f73ffffffffffffffffffffffffffffffffffffffff82169050919050565b5f6104678261043e565b9050919050565b6104778161045d565b8114610481575f5ffd5b50565b5f815190506104928161046e565b92915050565b5f5f5f5f608085870312156104b0576104af61043a565b5b5f6104bd87828801610484565b94505060206104ce87828801610484565b93505060406104df87828801610484565b92505060606104f087828801610484565b91505092959194509250565b5f60ff82169050919050565b610511816104fc565b811461051b575f5ffd5b50565b5f8151905061052c81610508565b92915050565b5f602082840312156105475761054661043a565b5b5f6105548482850161051e565b91505092915050565b6105668161045d565b82525050565b5f60208201905061057f5f83018461055d565b92915050565b7f4e487b71000000000000000000000000000000000000000000000000000000005f52601160045260245ffd5b5f6105bc826104fc565b91506105c7836104fc565b9250828203905060ff8111156105e0576105df610585565b5b92915050565b5f8160011c9050919050565b5f5f8291508390505b600185111561063b5780860481111561061757610616610585565b5b60018516156106265780820291505b8081029050610634856105e6565b94506105fb565b94509492505050565b5f82610653576001905061070e565b81610660575f905061070e565b81600181146106765760028114610680576106af565b600191505061070e565b60ff84111561069257610691610585565b5b8360020a9150848211156106a9576106a8610585565b5b5061070e565b5060208310610133831016604e8410600b84101617156106e45782820a9050838111156106df576106de610585565b5b61070e565b6106f184848460016105f2565b9250905081840481111561070857610707610585565b5b81810290505b9392505050565b5f819050919050565b5f61072882610715565b9150610733836104fc565b92506107607fffffffffffffffffffffffffffffffffffffffffffffffffffffffffffffffff8484610644565b905092915050565b60805160a05160c0516147286107df5f395f61140901525f8181610d7501528181611d6e01528181611d8f01528181611e33015261205c01525f81816109a701528181610c49015281816111fc015281816115cb0152818161194501528181612299015281816124ee01526125e601526147285ff3fe6080604052600436106101ed575f3560e01c806382413eac1161010c578063bc70b3541161009f578063d045a0dc1161006e578063d045a0dc146106ec578063d424388514610708578063f2fde38b14610730578063fc0c546a14610758578063ff7bd03d14610782576101ed565b8063bc70b3541461063b578063bd815db014610677578063c7c7f5b314610693578063ca5eb5e1146106c4576101ed565b80639f68b964116100db5780639f68b96414610583578063b731ea0a146105ad578063b98bd070146105d7578063bb0b6a53146105ff576101ed565b806382413eac146104c9578063857749b0146105055780638da5cb5b1461052f578063963efcaa14610559576101ed565b80633b6f743b116101845780635e280f11116101535780635e280f11146104255780636fc1b31e1461044f578063715018a6146104775780637d25a05e1461048d576101ed565b80633b6f743b1461034757806352ae2879146103835780635535d461146103ad5780635a0dfe4d146103e9576101ed565b8063156a0d0f116101c0578063156a0d0f1461029f57806317442b70146102ca5780631f5e1334146102f55780633400288b1461031f576101ed565b80630d35b415146101f1578063111ecdad1461022f57806313137d6514610259578063134d4f2514610275575b5f5ffd5b3480156101fc575f5ffd5b506102176004803603810190610212919061278f565b6107be565b604051610226939291906129c5565b60405180910390f35b34801561023a575f5ffd5b50610243610969565b6040516102509190612a40565b60405180910390f35b610273600480360381019061026e9190612b35565b61098e565b005b348015610280575f5ffd5b50610289610aae565b6040516102969190612c08565b60405180910390f35b3480156102aa575f5ffd5b506102b3610ab3565b6040516102c1929190612c7d565b60405180910390f35b3480156102d5575f5ffd5b506102de610ae0565b6040516102ec929190612ca4565b60405180910390f35b348015610300575f5ffd5b50610309610aee565b6040516103169190612c08565b60405180910390f35b34801561032a575f5ffd5b5061034560048036038101906103409190612d04565b610af3565b005b348015610352575f5ffd5b5061036d60048036038101906103689190612d77565b610b09565b60405161037a9190612dfe565b60405180910390f35b34801561038e575f5ffd5b50610397610b71565b6040516103a49190612a40565b60405180910390f35b3480156103b8575f5ffd5b506103d360048036038101906103ce9190612e41565b610b78565b6040516103e09190612ed1565b60405180910390f35b3480156103f4575f5ffd5b5061040f600480360381019061040a9190612d04565b610c1e565b60405161041c9190612f00565b60405180910390f35b348015610430575f5ffd5b50610439610c47565b6040516104469190612f74565b60405180910390f35b34801561045a575f5ffd5b5061047560048036038101906104709190612f8d565b610c6b565b005b348015610482575f5ffd5b5061048b610ced565b005b348015610498575f5ffd5b506104b360048036038101906104ae9190612d04565b610d00565b6040516104c09190612fb8565b60405180910390f35b3480156104d4575f5ffd5b506104ef60048036038101906104ea9190612fd1565b610d0a565b6040516104fc9190612f00565b60405180910390f35b348015610510575f5ffd5b50610519610d44565b604051610526919061305d565b60405180910390f35b34801561053a575f5ffd5b50610543610d4c565b6040516105509190612a40565b60405180910390f35b348015610564575f5ffd5b5061056d610d73565b60405161057a9190613085565b60405180910390f35b34801561058e575f5ffd5b50610597610d97565b6040516105a49190612f00565b60405180910390f35b3480156105b8575f5ffd5b506105c1610d9f565b6040516105ce9190612a40565b60405180910390f35b3480156105e2575f5ffd5b506105fd60048036038101906105f891906130f3565b610dc4565b005b34801561060a575f5ffd5b506106256004803603810190610620919061313e565b610de5565b6040516106329190613178565b60405180910390f35b348015610646575f5ffd5b50610661600480360381019061065c9190613191565b610dfa565b60405161066e9190612ed1565b60405180910390f35b610691600480360381019061068c9190613257565b610ffc565b005b6106ad60048036038101906106a891906132c0565b6111cb565b6040516106bb9291906133b7565b60405180910390f35b3480156106cf575f5ffd5b506106ea60048036038101906106e59190612f8d565b6111f2565b005b61070660048036038101906107019190612b35565b611283565b005b348015610713575f5ffd5b5061072e60048036038101906107299190612f8d565b611300565b005b34801561073b575f5ffd5b5061075660048036038101906107519190612f8d565b611382565b005b348015610763575f5ffd5b5061076c611406565b6040516107799190612a40565b60405180910390f35b34801561078d575f5ffd5b506107a860048036038101906107a391906133de565b61142d565b6040516107b59190612f00565b60405180910390f35b6107c66126cc565b60606107d06126e4565b5f5f90505f3073ffffffffffffffffffffffffffffffffffffffff1663fc0c546a6040518163ffffffff1660e01b8152600401602060405180830381865afa15801561081e573d5f5f3e3d5ffd5b505050506040513d601f19601f82011682018060405250810190610842919061341d565b73ffffffffffffffffffffffffffffffffffffffff166318160ddd6040518163ffffffff1660e01b8152600401602060405180830381865afa15801561088a573d5f5f3e3d5ffd5b505050506040513d601f19601f820116820180604052508101906108ae9190613472565b905060405180604001604052808381526020018281525094505f67ffffffffffffffff8111156108e1576108e061349d565b5b60405190808252806020026020018201604052801561091a57816020015b6109076126fc565b8152602001906001900390816108ff5790505b5093505f5f610943886040013589606001358a5f01602081019061093e919061313e565b61146a565b915091506040518060400160405280838152602001828152509450505050509193909250565b60045f9054906101000a900473ffffffffffffffffffffffffffffffffffffffff1681565b3373ffffffffffffffffffffffffffffffffffffffff167f000000000000000000000000000000000000000000000000000000000000000073ffffffffffffffffffffffffffffffffffffffff1614610a1e57336040517f91ac5e4f000000000000000000000000000000000000000000000000000000008152600401610a159190612a40565b60405180910390fd5b8660200135610a3d885f016020810190610a38919061313e565b6114c9565b14610a9657865f016020810190610a54919061313e565b87602001356040517fc26bebcc000000000000000000000000000000000000000000000000000000008152600401610a8d9291906134d9565b60405180910390fd5b610aa58787878787878761153a565b50505050505050565b600281565b5f5f7f02e49c2c000000000000000000000000000000000000000000000000000000006001915091509091565b5f5f60016002915091509091565b600181565b610afb6116c4565b610b05828261174b565b5050565b610b11612715565b5f610b3684604001358560600135865f016020810190610b31919061313e565b61146a565b9150505f5f610b4586846117aa565b91509150610b66865f016020810190610b5e919061313e565b83838861193b565b935050505092915050565b5f30905090565b6003602052815f5260405f20602052805f5260405f205f91509150508054610b9f9061352d565b80601f0160208091040260200160405190810160405280929190818152602001828054610bcb9061352d565b8015610c165780601f10610bed57610100808354040283529160200191610c16565b820191905f5260205f20905b815481529060010190602001808311610bf957829003601f168201915b505050505081565b5f8160015f8563ffffffff1663ffffffff1681526020019081526020015f205414905092915050565b7f000000000000000000000000000000000000000000000000000000000000000081565b610c736116c4565b8060045f6101000a81548173ffffffffffffffffffffffffffffffffffffffff021916908373ffffffffffffffffffffffffffffffffffffffff1602179055507ff0be4f1e87349231d80c36b33f9e8639658eeaf474014dee15a3e6a4d441419781604051610ce29190612a40565b60405180910390a150565b610cf56116c4565b610cfe5f611a1c565b565b5f5f905092915050565b5f3073ffffffffffffffffffffffffffffffffffffffff168273ffffffffffffffffffffffffffffffffffffffff16149050949350505050565b5f6012905090565b5f5f5f9054906101000a900473ffffffffffffffffffffffffffffffffffffffff16905090565b7f000000000000000000000000000000000000000000000000000000000000000081565b5f6001905090565b60025f9054906101000a900473ffffffffffffffffffffffffffffffffffffffff1681565b610dcc6116c4565b610de1828290610ddc919061378e565b611add565b5050565b6001602052805f5260405f205f915090505481565b60605f60035f8763ffffffff1663ffffffff1681526020019081526020015f205f8661ffff1661ffff1681526020019081526020015f208054610e3c9061352d565b80601f0160208091040260200160405190810160405280929190818152602001828054610e689061352d565b8015610eb35780601f10610e8a57610100808354040283529160200191610eb3565b820191905f5260205f20905b815481529060010190602001808311610e9657829003601f168201915b505050505090505f815103610f0e5783838080601f0160208091040260200160405190810160405280939291908181526020018383808284375f81840152601f19601f82011690508083019250505050505050915050610ff4565b5f8484905003610f215780915050610ff4565b60028484905010610fb557610f7884848080601f0160208091040260200160405190810160405280939291908181526020018383808284375f81840152601f19601f82011690508083019250505050505050611bf5565b8084846002908092610f8c939291906137aa565b604051602001610f9e93929190613842565b604051602081830303815290604052915050610ff4565b83836040517f9a6d49cd000000000000000000000000000000000000000000000000000000008152600401610feb929190613893565b60405180910390fd5b949350505050565b5f5f90505b8282905081101561111e57368383838181106110205761101f6138b5565b5b905060200281019061103291906138ee565b9050611057815f015f01602081019061104b919061313e565b825f0160200135610c1e565b6110615750611111565b3073ffffffffffffffffffffffffffffffffffffffff1663d045a0dc8260c00135835f018460a001358580610100019061109b9190613916565b8760e00160208101906110ae9190612f8d565b888061012001906110bf9190613916565b6040518963ffffffff1660e01b81526004016110e19796959493929190613a4b565b5f604051808303818588803b1580156110f8575f5ffd5b505af115801561110a573d5f5f3e3d5ffd5b5050505050505b8080600101915050611001565b503373ffffffffffffffffffffffffffffffffffffffff16638e9e70996040518163ffffffff1660e01b81526004015f60405180830381865afa158015611167573d5f5f3e3d5ffd5b505050506040513d5f823e3d601f19601f8201168201806040525081019061118f9190613b1c565b6040517f8351eea70000000000000000000000000000000000000000000000000000000081526004016111c29190612ed1565b60405180910390fd5b6111d361272d565b6111db6126e4565b6111e6858585611c4e565b91509150935093915050565b6111fa6116c4565b7f000000000000000000000000000000000000000000000000000000000000000073ffffffffffffffffffffffffffffffffffffffff1663ca5eb5e1826040518263ffffffff1660e01b81526004016112539190612a40565b5f604051808303815f87803b15801561126a575f5ffd5b505af115801561127c573d5f5f3e3d5ffd5b5050505050565b3073ffffffffffffffffffffffffffffffffffffffff163373ffffffffffffffffffffffffffffffffffffffff16146112e8576040517f14d4a4e800000000000000000000000000000000000000000000000000000000815260040160405180910390fd5b6112f787878787878787611d53565b50505050505050565b6113086116c4565b8060025f6101000a81548173ffffffffffffffffffffffffffffffffffffffff021916908373ffffffffffffffffffffffffffffffffffffffff1602179055507fd48d879cef83a1c0bdda516f27b13ddb1b3f8bbac1c9e1511bb2a659c2427760816040516113779190612a40565b60405180910390a150565b61138a6116c4565b5f73ffffffffffffffffffffffffffffffffffffffff168173ffffffffffffffffffffffffffffffffffffffff16036113fa575f6040517f1e4fbdf70000000000000000000000000000000000000000000000000000000081526004016113f19190612a40565b60405180910390fd5b61140381611a1c565b50565b5f7f0000000000000000000000000000000000000000000000000000000000000000905090565b5f816020013560015f845f016020810190611448919061313e565b63ffffffff1663ffffffff1681526020019081526020015f2054149050919050565b5f5f61147585611d6b565b9150819050838110156114c15780846040517f71c4efed0000000000000000000000000000000000000000000000000000000081526004016114b8929190613b63565b60405180910390fd5b935093915050565b5f5f60015f8463ffffffff1663ffffffff1681526020019081526020015f205490505f5f1b810361153157826040517ff6ff4fb70000000000000000000000000000000000000000000000000000000081526004016115289190613b8a565b60405180910390fd5b80915050919050565b5f61154d6115488787611dca565b611df4565b90505f61157d826115666115618a8a611dff565b611e30565b8b5f016020810190611578919061313e565b611e6e565b90506115898787611faa565b15611657575f6115c78a60400160208101906115a59190613ba3565b8b5f0160208101906115b7919061313e565b846115c28c8c611fbd565b61201f565b90507f000000000000000000000000000000000000000000000000000000000000000073ffffffffffffffffffffffffffffffffffffffff16637cb59012848b5f856040518563ffffffff1660e01b81526004016116289493929190613c07565b5f604051808303815f87803b15801561163f575f5ffd5b505af1158015611651573d5f5f3e3d5ffd5b50505050505b8173ffffffffffffffffffffffffffffffffffffffff16887fefed6d3500546b29533b128a29e3a94d70788727f0507505ac12eaf2e578fd9c8b5f0160208101906116a2919061313e565b846040516116b1929190613c51565b60405180910390a3505050505050505050565b6116cc612051565b73ffffffffffffffffffffffffffffffffffffffff166116ea610d4c565b73ffffffffffffffffffffffffffffffffffffffff16146117495761170d612051565b6040517f118cdaa70000000000000000000000000000000000000000000000000000000081526004016117409190612a40565b60405180910390fd5b565b8060015f8463ffffffff1663ffffffff1681526020019081526020015f20819055507f238399d427b947898edb290f5ff0f9109849b1c3ba196a42e35f00c50a54b98b828260405161179e9291906134d9565b60405180910390a15050565b6060805f61181685602001356117bf86612058565b878060a001906117cf9190613916565b8080601f0160208091040260200160405190810160405280939291908181526020018383808284375f81840152601f19601f820116905080830192505050505050506120e0565b80925081945050505f8161182b57600161182e565b60025b905061185b865f016020810190611845919061313e565b828880608001906118569190613916565b610dfa565b92505f60045f9054906101000a900473ffffffffffffffffffffffffffffffffffffffff1690505f73ffffffffffffffffffffffffffffffffffffffff168173ffffffffffffffffffffffffffffffffffffffff1614611931578073ffffffffffffffffffffffffffffffffffffffff1663043a78eb86866040518363ffffffff1660e01b81526004016118f0929190613c78565b602060405180830381865afa15801561190b573d5f5f3e3d5ffd5b505050506040513d601f19601f8201168201806040525081019061192f9190613cc1565b505b5050509250929050565b611943612715565b7f000000000000000000000000000000000000000000000000000000000000000073ffffffffffffffffffffffffffffffffffffffff1663ddc28c586040518060a001604052808863ffffffff16815260200161199f896114c9565b8152602001878152602001868152602001851515815250306040518363ffffffff1660e01b81526004016119d4929190613dbd565b6040805180830381865afa1580156119ee573d5f5f3e3d5ffd5b505050506040513d601f19601f82011682018060405250810190611a129190613e38565b9050949350505050565b5f5f5f9054906101000a900473ffffffffffffffffffffffffffffffffffffffff169050815f5f6101000a81548173ffffffffffffffffffffffffffffffffffffffff021916908373ffffffffffffffffffffffffffffffffffffffff1602179055508173ffffffffffffffffffffffffffffffffffffffff168173ffffffffffffffffffffffffffffffffffffffff167f8be0079c531659141344cd1fd0a4f28419497f9722a3daafe3b4186f6b6457e060405160405180910390a35050565b5f5f90505b8151811015611bba57611b12828281518110611b0157611b006138b5565b5b602002602001015160400151611bf5565b818181518110611b2557611b246138b5565b5b60200260200101516040015160035f848481518110611b4757611b466138b5565b5b60200260200101515f015163ffffffff1663ffffffff1681526020019081526020015f205f848481518110611b7f57611b7e6138b5565b5b60200260200101516020015161ffff1661ffff1681526020019081526020015f209081611bac9190613ffa565b508080600101915050611ae2565b507fbe4864a8e820971c0247f5992e2da559595f7bf076a21cb5928d443d2a13b67481604051611bea91906141e0565b60405180910390a150565b5f60028201519050600361ffff168161ffff1614611c4a57816040517f9a6d49cd000000000000000000000000000000000000000000000000000000008152600401611c419190612ed1565b60405180910390fd5b5050565b611c5661272d565b611c5e6126e4565b5f5f611c8533886040013589606001358a5f016020810190611c80919061313e565b61214e565b915091505f5f611c9589846117aa565b91509150611cc7895f016020810190611cae919061313e565b83838b803603810190611cc19190614261565b8b612266565b955060405180604001604052808581526020018481525094503373ffffffffffffffffffffffffffffffffffffffff16865f01517f85496b760a4b7f8d66384b9df21b381f5d1b1e79f229a47aaf4c232edc2fe59a8b5f016020810190611d2e919061313e565b8787604051611d3f9392919061428c565b60405180910390a350505050935093915050565b611d628787878787878761153a565b50505050505050565b5f7f00000000000000000000000000000000000000000000000000000000000000007f000000000000000000000000000000000000000000000000000000000000000083611db9919061431b565b611dc3919061434b565b9050919050565b5f82825f90602060ff1692611de1939291906137aa565b90611dec9190614396565b905092915050565b5f815f1c9050919050565b5f8282602060ff1690602860ff1692611e1a939291906137aa565b90611e25919061441f565b60c01c905092915050565b5f7f00000000000000000000000000000000000000000000000000000000000000008267ffffffffffffffff16611e67919061434b565b9050919050565b5f5f73ffffffffffffffffffffffffffffffffffffffff168473ffffffffffffffffffffffffffffffffffffffff1603611ea85761dead93505b6120194603611f0257611efd848460065f9054906101000a900473ffffffffffffffffffffffffffffffffffffffff1673ffffffffffffffffffffffffffffffffffffffff1661237c9092919063ffffffff16565b611fa0565b60075f9054906101000a900473ffffffffffffffffffffffffffffffffffffffff1673ffffffffffffffffffffffffffffffffffffffff166340c10f1985856040518363ffffffff1660e01b8152600401611f5e92919061447d565b6020604051808303815f875af1158015611f7a573d5f5f3e3d5ffd5b505050506040513d601f19601f82011682018060405250810190611f9e9190613cc1565b505b8290509392505050565b5f602860ff168383905011905092915050565b60608282602860ff16908092611fd5939291906137aa565b8080601f0160208091040260200160405190810160405280939291908181526020018383808284375f81840152601f19601f82011690508083019250505050505050905092915050565b606084848484604051602001612038949392919061452c565b6040516020818303038152906040529050949350505050565b5f33905090565b5f5f7f000000000000000000000000000000000000000000000000000000000000000083612086919061431b565b905067ffffffffffffffff80168111156120d757806040517fe2ce94130000000000000000000000000000000000000000000000000000000081526004016120ce9190613085565b60405180910390fd5b80915050919050565b60605f5f835111905080612115578484604051602001612101929190614595565b604051602081830303815290604052612144565b8484612120336123fb565b8560405160200161213494939291906145c0565b6040516020818303038152906040525b9150935093915050565b5f5f61215b85858561146a565b809250819350505061201946036121bf576121ba86308460065f9054906101000a900473ffffffffffffffffffffffffffffffffffffffff1673ffffffffffffffffffffffffffffffffffffffff1661241c909392919063ffffffff16565b61225d565b60075f9054906101000a900473ffffffffffffffffffffffffffffffffffffffff1673ffffffffffffffffffffffffffffffffffffffff16639dc29fac87846040518363ffffffff1660e01b815260040161221b92919061447d565b6020604051808303815f875af1158015612237573d5f5f3e3d5ffd5b505050506040513d601f19601f8201168201806040525081019061225b9190613cc1565b505b94509492505050565b61226e61272d565b5f61227b845f015161249e565b90505f846020015111156122975761229684602001516124eb565b5b7f000000000000000000000000000000000000000000000000000000000000000073ffffffffffffffffffffffffffffffffffffffff16632637a450826040518060a001604052808b63ffffffff1681526020016122f48c6114c9565b81526020018a81526020018981526020015f8960200151111515815250866040518463ffffffff1660e01b815260040161232f929190613dbd565b60806040518083038185885af115801561234b573d5f5f3e3d5ffd5b50505050506040513d601f19601f820116820180604052508101906123709190614692565b91505095945050505050565b6123f6838473ffffffffffffffffffffffffffffffffffffffff1663a9059cbb85856040516024016123af92919061447d565b604051602081830303815290604052915060e01b6020820180517bffffffffffffffffffffffffffffffffffffffffffffffffffffffff8381831617835250505050612631565b505050565b5f8173ffffffffffffffffffffffffffffffffffffffff165f1b9050919050565b612498848573ffffffffffffffffffffffffffffffffffffffff166323b872dd868686604051602401612451939291906146bd565b604051602081830303815290604052915060e01b6020820180517bffffffffffffffffffffffffffffffffffffffffffffffffffffffff8381831617835250505050612631565b50505050565b5f8134146124e357346040517f9f7041200000000000000000000000000000000000000000000000000000000081526004016124da9190613085565b60405180910390fd5b819050919050565b5f7f000000000000000000000000000000000000000000000000000000000000000073ffffffffffffffffffffffffffffffffffffffff1663e4fe1d946040518163ffffffff1660e01b8152600401602060405180830381865afa158015612555573d5f5f3e3d5ffd5b505050506040513d601f19601f82011682018060405250810190612579919061341d565b90505f73ffffffffffffffffffffffffffffffffffffffff168173ffffffffffffffffffffffffffffffffffffffff16036125e0576040517f5373352a00000000000000000000000000000000000000000000000000000000815260040160405180910390fd5b61262d337f0000000000000000000000000000000000000000000000000000000000000000848473ffffffffffffffffffffffffffffffffffffffff1661241c909392919063ffffffff16565b5050565b5f5f60205f8451602086015f885af180612650576040513d5f823e3d81fd5b3d92505f519150505f8214612669576001811415612684565b5f8473ffffffffffffffffffffffffffffffffffffffff163b145b156126c657836040517f5274afe70000000000000000000000000000000000000000000000000000000081526004016126bd9190612a40565b60405180910390fd5b50505050565b60405180604001604052805f81526020015f81525090565b60405180604001604052805f81526020015f81525090565b60405180604001604052805f8152602001606081525090565b60405180604001604052805f81526020015f81525090565b60405180606001604052805f81526020015f67ffffffffffffffff168152602001612756612715565b81525090565b5f604051905090565b5f5ffd5b5f5ffd5b5f5ffd5b5f60e082840312156127865761278561276d565b5b81905092915050565b5f602082840312156127a4576127a3612765565b5b5f82013567ffffffffffffffff8111156127c1576127c0612769565b5b6127cd84828501612771565b91505092915050565b5f819050919050565b6127e8816127d6565b82525050565b604082015f8201516128025f8501826127df565b50602082015161281560208501826127df565b50505050565b5f81519050919050565b5f82825260208201905092915050565b5f819050602082019050919050565b5f819050919050565b61285681612844565b82525050565b5f81519050919050565b5f82825260208201905092915050565b8281835e5f83830152505050565b5f601f19601f8301169050919050565b5f61289e8261285c565b6128a88185612866565b93506128b8818560208601612876565b6128c181612884565b840191505092915050565b5f604083015f8301516128e15f86018261284d565b50602083015184820360208601526128f98282612894565b9150508091505092915050565b5f61291183836128cc565b905092915050565b5f602082019050919050565b5f61292f8261281b565b6129398185612825565b93508360208202850161294b85612835565b805f5b8581101561298657848403895281516129678582612906565b945061297283612919565b925060208a0199505060018101905061294e565b50829750879550505050505092915050565b604082015f8201516129ac5f8501826127df565b5060208201516129bf60208501826127df565b50505050565b5f60a0820190506129d85f8301866127ee565b81810360408301526129ea8185612925565b90506129f96060830184612998565b949350505050565b5f73ffffffffffffffffffffffffffffffffffffffff82169050919050565b5f612a2a82612a01565b9050919050565b612a3a81612a20565b82525050565b5f602082019050612a535f830184612a31565b92915050565b5f60608284031215612a6e57612a6d61276d565b5b81905092915050565b5f819050919050565b612a8981612a77565b8114612a93575f5ffd5b50565b5f81359050612aa481612a80565b92915050565b5f5ffd5b5f5ffd5b5f5ffd5b5f5f83601f840112612acb57612aca612aaa565b5b8235905067ffffffffffffffff811115612ae857612ae7612aae565b5b602083019150836001820283011115612b0457612b03612ab2565b5b9250929050565b612b1481612a20565b8114612b1e575f5ffd5b50565b5f81359050612b2f81612b0b565b92915050565b5f5f5f5f5f5f5f60e0888a031215612b5057612b4f612765565b5b5f612b5d8a828b01612a59565b9750506060612b6e8a828b01612a96565b965050608088013567ffffffffffffffff811115612b8f57612b8e612769565b5b612b9b8a828b01612ab6565b955095505060a0612bae8a828b01612b21565b93505060c088013567ffffffffffffffff811115612bcf57612bce612769565b5b612bdb8a828b01612ab6565b925092505092959891949750929550565b5f61ffff82169050919050565b612c0281612bec565b82525050565b5f602082019050612c1b5f830184612bf9565b92915050565b5f7fffffffff0000000000000000000000000000000000000000000000000000000082169050919050565b612c5581612c21565b82525050565b5f67ffffffffffffffff82169050919050565b612c7781612c5b565b82525050565b5f604082019050612c905f830185612c4c565b612c9d6020830184612c6e565b9392505050565b5f604082019050612cb75f830185612c6e565b612cc46020830184612c6e565b9392505050565b5f63ffffffff82169050919050565b612ce381612ccb565b8114612ced575f5ffd5b50565b5f81359050612cfe81612cda565b92915050565b5f5f60408385031215612d1a57612d19612765565b5b5f612d2785828601612cf0565b9250506020612d3885828601612a96565b9150509250929050565b5f8115159050919050565b612d5681612d42565b8114612d60575f5ffd5b50565b5f81359050612d7181612d4d565b92915050565b5f5f60408385031215612d8d57612d8c612765565b5b5f83013567ffffffffffffffff811115612daa57612da9612769565b5b612db685828601612771565b9250506020612dc785828601612d63565b9150509250929050565b604082015f820151612de55f8501826127df565b506020820151612df860208501826127df565b50505050565b5f604082019050612e115f830184612dd1565b92915050565b612e2081612bec565b8114612e2a575f5ffd5b50565b5f81359050612e3b81612e17565b92915050565b5f5f60408385031215612e5757612e56612765565b5b5f612e6485828601612cf0565b9250506020612e7585828601612e2d565b9150509250929050565b5f81519050919050565b5f82825260208201905092915050565b5f612ea382612e7f565b612ead8185612e89565b9350612ebd818560208601612876565b612ec681612884565b840191505092915050565b5f6020820190508181035f830152612ee98184612e99565b905092915050565b612efa81612d42565b82525050565b5f602082019050612f135f830184612ef1565b92915050565b5f819050919050565b5f612f3c612f37612f3284612a01565b612f19565b612a01565b9050919050565b5f612f4d82612f22565b9050919050565b5f612f5e82612f43565b9050919050565b612f6e81612f54565b82525050565b5f602082019050612f875f830184612f65565b92915050565b5f60208284031215612fa257612fa1612765565b5b5f612faf84828501612b21565b91505092915050565b5f602082019050612fcb5f830184612c6e565b92915050565b5f5f5f5f60a08587031215612fe957612fe8612765565b5b5f612ff687828801612a59565b945050606085013567ffffffffffffffff81111561301757613016612769565b5b61302387828801612ab6565b9350935050608061303687828801612b21565b91505092959194509250565b5f60ff82169050919050565b61305781613042565b82525050565b5f6020820190506130705f83018461304e565b92915050565b61307f816127d6565b82525050565b5f6020820190506130985f830184613076565b92915050565b5f5f83601f8401126130b3576130b2612aaa565b5b8235905067ffffffffffffffff8111156130d0576130cf612aae565b5b6020830191508360208202830111156130ec576130eb612ab2565b5b9250929050565b5f5f6020838503121561310957613108612765565b5b5f83013567ffffffffffffffff81111561312657613125612769565b5b6131328582860161309e565b92509250509250929050565b5f6020828403121561315357613152612765565b5b5f61316084828501612cf0565b91505092915050565b61317281612a77565b82525050565b5f60208201905061318b5f830184613169565b92915050565b5f5f5f5f606085870312156131a9576131a8612765565b5b5f6131b687828801612cf0565b94505060206131c787828801612e2d565b935050604085013567ffffffffffffffff8111156131e8576131e7612769565b5b6131f487828801612ab6565b925092505092959194509250565b5f5f83601f84011261321757613216612aaa565b5b8235905067ffffffffffffffff81111561323457613233612aae565b5b6020830191508360208202830111156132505761324f612ab2565b5b9250929050565b5f5f6020838503121561326d5761326c612765565b5b5f83013567ffffffffffffffff81111561328a57613289612769565b5b61329685828601613202565b92509250509250929050565b5f604082840312156132b7576132b661276d565b5b81905092915050565b5f5f5f608084860312156132d7576132d6612765565b5b5f84013567ffffffffffffffff8111156132f4576132f3612769565b5b61330086828701612771565b9350506020613311868287016132a2565b925050606061332286828701612b21565b9150509250925092565b61333581612a77565b82525050565b61334481612c5b565b82525050565b604082015f82015161335e5f8501826127df565b50602082015161337160208501826127df565b50505050565b608082015f82015161338b5f85018261332c565b50602082015161339e602085018261333b565b5060408201516133b1604085018261334a565b50505050565b5f60c0820190506133ca5f830185613377565b6133d76080830184612998565b9392505050565b5f606082840312156133f3576133f2612765565b5b5f61340084828501612a59565b91505092915050565b5f8151905061341781612b0b565b92915050565b5f6020828403121561343257613431612765565b5b5f61343f84828501613409565b91505092915050565b613451816127d6565b811461345b575f5ffd5b50565b5f8151905061346c81613448565b92915050565b5f6020828403121561348757613486612765565b5b5f6134948482850161345e565b91505092915050565b7f4e487b71000000000000000000000000000000000000000000000000000000005f52604160045260245ffd5b6134d381612ccb565b82525050565b5f6040820190506134ec5f8301856134ca565b6134f96020830184613169565b9392505050565b7f4e487b71000000000000000000000000000000000000000000000000000000005f52602260045260245ffd5b5f600282049050600182168061354457607f821691505b60208210810361355757613556613500565b5b50919050565b61356682612884565b810181811067ffffffffffffffff821117156135855761358461349d565b5b80604052505050565b5f61359761275c565b90506135a3828261355d565b919050565b5f67ffffffffffffffff8211156135c2576135c161349d565b5b602082029050602081019050919050565b5f5ffd5b5f5ffd5b5f5ffd5b5f67ffffffffffffffff8211156135f9576135f861349d565b5b61360282612884565b9050602081019050919050565b828183375f83830152505050565b5f61362f61362a846135df565b61358e565b90508281526020810184848401111561364b5761364a6135db565b5b61365684828561360f565b509392505050565b5f82601f83011261367257613671612aaa565b5b813561368284826020860161361d565b91505092915050565b5f606082840312156136a05761369f6135d3565b5b6136aa606061358e565b90505f6136b984828501612cf0565b5f8301525060206136cc84828501612e2d565b602083015250604082013567ffffffffffffffff8111156136f0576136ef6135d7565b5b6136fc8482850161365e565b60408301525092915050565b5f61371a613715846135a8565b61358e565b9050808382526020820190506020840283018581111561373d5761373c612ab2565b5b835b8181101561378457803567ffffffffffffffff81111561376257613761612aaa565b5b80860161376f898261368b565b8552602085019450505060208101905061373f565b5050509392505050565b5f61379a368484613708565b905092915050565b5f5ffd5b5f5ffd5b5f5f858511156137bd576137bc6137a2565b5b838611156137ce576137cd6137a6565b5b6001850283019150848603905094509492505050565b5f81905092915050565b5f6137f882612e7f565b61380281856137e4565b9350613812818560208601612876565b80840191505092915050565b5f61382983856137e4565b935061383683858461360f565b82840190509392505050565b5f61384d82866137ee565b915061385a82848661381e565b9150819050949350505050565b5f6138728385612e89565b935061387f83858461360f565b61388883612884565b840190509392505050565b5f6020820190508181035f8301526138ac818486613867565b90509392505050565b7f4e487b71000000000000000000000000000000000000000000000000000000005f52603260045260245ffd5b5f5ffd5b5f5ffd5b5f5ffd5b5f823560016101400383360303811261390a576139096138e2565b5b80830191505092915050565b5f5f83356001602003843603038112613932576139316138e2565b5b80840192508235915067ffffffffffffffff821115613954576139536138e6565b5b6020830192506001820236038313156139705761396f6138ea565b5b509250929050565b5f6139866020840184612cf0565b905092915050565b61399781612ccb565b82525050565b5f6139ab6020840184612a96565b905092915050565b6139bc81612c5b565b81146139c6575f5ffd5b50565b5f813590506139d7816139b3565b92915050565b5f6139eb60208401846139c9565b905092915050565b60608201613a035f830183613978565b613a0f5f85018261398e565b50613a1d602083018361399d565b613a2a602085018261332c565b50613a3860408301836139dd565b613a45604085018261333b565b50505050565b5f60e082019050613a5e5f83018a6139f3565b613a6b6060830189613169565b8181036080830152613a7e818789613867565b9050613a8d60a0830186612a31565b81810360c0830152613aa0818486613867565b905098975050505050505050565b5f613ac0613abb846135df565b61358e565b905082815260208101848484011115613adc57613adb6135db565b5b613ae7848285612876565b509392505050565b5f82601f830112613b0357613b02612aaa565b5b8151613b13848260208601613aae565b91505092915050565b5f60208284031215613b3157613b30612765565b5b5f82015167ffffffffffffffff811115613b4e57613b4d612769565b5b613b5a84828501613aef565b91505092915050565b5f604082019050613b765f830185613076565b613b836020830184613076565b9392505050565b5f602082019050613b9d5f8301846134ca565b92915050565b5f60208284031215613bb857613bb7612765565b5b5f613bc5848285016139c9565b91505092915050565b5f819050919050565b5f613bf1613bec613be784613bce565b612f19565b612bec565b9050919050565b613c0181613bd7565b82525050565b5f608082019050613c1a5f830187612a31565b613c276020830186613169565b613c346040830185613bf8565b8181036060830152613c468184612e99565b905095945050505050565b5f604082019050613c645f8301856134ca565b613c716020830184613076565b9392505050565b5f6040820190508181035f830152613c908185612e99565b90508181036020830152613ca48184612e99565b90509392505050565b5f81519050613cbb81612d4d565b92915050565b5f60208284031215613cd657613cd5612765565b5b5f613ce384828501613cad565b91505092915050565b5f82825260208201905092915050565b5f613d0682612e7f565b613d108185613cec565b9350613d20818560208601612876565b613d2981612884565b840191505092915050565b613d3d81612d42565b82525050565b5f60a083015f830151613d585f86018261398e565b506020830151613d6b602086018261332c565b5060408301518482036040860152613d838282613cfc565b91505060608301518482036060860152613d9d8282613cfc565b9150506080830151613db26080860182613d34565b508091505092915050565b5f6040820190508181035f830152613dd58185613d43565b9050613de46020830184612a31565b9392505050565b5f60408284031215613e0057613dff6135d3565b5b613e0a604061358e565b90505f613e198482850161345e565b5f830152506020613e2c8482850161345e565b60208301525092915050565b5f60408284031215613e4d57613e4c612765565b5b5f613e5a84828501613deb565b91505092915050565b5f819050815f5260205f209050919050565b5f6020601f8301049050919050565b5f82821b905092915050565b5f60088302613ebf7fffffffffffffffffffffffffffffffffffffffffffffffffffffffffffffffff82613e84565b613ec98683613e84565b95508019841693508086168417925050509392505050565b5f613efb613ef6613ef1846127d6565b612f19565b6127d6565b9050919050565b5f819050919050565b613f1483613ee1565b613f28613f2082613f02565b848454613e90565b825550505050565b5f5f905090565b613f3f613f30565b613f4a818484613f0b565b505050565b5b81811015613f6d57613f625f82613f37565b600181019050613f50565b5050565b601f821115613fb257613f8381613e63565b613f8c84613e75565b81016020851015613f9b578190505b613faf613fa785613e75565b830182613f4f565b50505b505050565b5f82821c905092915050565b5f613fd25f1984600802613fb7565b1980831691505092915050565b5f613fea8383613fc3565b9150826002028217905092915050565b61400382612e7f565b67ffffffffffffffff81111561401c5761401b61349d565b5b614026825461352d565b614031828285613f71565b5f60209050601f831160018114614062575f8415614050578287015190505b61405a8582613fdf565b8655506140c1565b601f19841661407086613e63565b5f5b8281101561409757848901518255600182019150602085019450602081019050614072565b868310156140b457848901516140b0601f891682613fc3565b8355505b6001600288020188555050505b505050505050565b5f81519050919050565b5f82825260208201905092915050565b5f819050602082019050919050565b6140fb81612bec565b82525050565b5f606083015f8301516141165f86018261398e565b50602083015161412960208601826140f2565b50604083015184820360408601526141418282613cfc565b9150508091505092915050565b5f6141598383614101565b905092915050565b5f602082019050919050565b5f614177826140c9565b61418181856140d3565b935083602082028501614193856140e3565b805f5b858110156141ce57848403895281516141af858261414e565b94506141ba83614161565b925060208a01995050600181019050614196565b50829750879550505050505092915050565b5f6020820190508181035f8301526141f8818461416d565b905092915050565b5f8135905061420e81613448565b92915050565b5f60408284031215614229576142286135d3565b5b614233604061358e565b90505f61424284828501614200565b5f83015250602061425584828501614200565b60208301525092915050565b5f6040828403121561427657614275612765565b5b5f61428384828501614214565b91505092915050565b5f60608201905061429f5f8301866134ca565b6142ac6020830185613076565b6142b96040830184613076565b949350505050565b7f4e487b71000000000000000000000000000000000000000000000000000000005f52601260045260245ffd5b7f4e487b71000000000000000000000000000000000000000000000000000000005f52601160045260245ffd5b5f614325826127d6565b9150614330836127d6565b9250826143405761433f6142c1565b5b828204905092915050565b5f614355826127d6565b9150614360836127d6565b925082820261436e816127d6565b91508282048414831517614385576143846142ee565b5b5092915050565b5f82905092915050565b5f6143a1838361438c565b826143ac8135612a77565b925060208210156143ec576143e77fffffffffffffffffffffffffffffffffffffffffffffffffffffffffffffffff83602003600802613e84565b831692505b505092915050565b5f7fffffffffffffffff00000000000000000000000000000000000000000000000082169050919050565b5f61442a838361438c565b8261443581356143f4565b92506008821015614475576144707fffffffffffffffff00000000000000000000000000000000000000000000000083600803600802613e84565b831692505b505092915050565b5f6040820190506144905f830185612a31565b61449d6020830184613076565b9392505050565b5f8160c01b9050919050565b5f6144ba826144a4565b9050919050565b6144d26144cd82612c5b565b6144b0565b82525050565b5f8160e01b9050919050565b5f6144ee826144d8565b9050919050565b61450661450182612ccb565b6144e4565b82525050565b5f819050919050565b614526614521826127d6565b61450c565b82525050565b5f61453782876144c1565b60088201915061454782866144f5565b6004820191506145578285614515565b60208201915061456782846137ee565b915081905095945050505050565b5f819050919050565b61458f61458a82612a77565b614575565b82525050565b5f6145a0828561457e565b6020820191506145b082846144c1565b6008820191508190509392505050565b5f6145cb828761457e565b6020820191506145db82866144c1565b6008820191506145eb828561457e565b6020820191506145fb82846137ee565b915081905095945050505050565b5f8151905061461781612a80565b92915050565b5f8151905061462b816139b3565b92915050565b5f60808284031215614646576146456135d3565b5b614650606061358e565b90505f61465f84828501614609565b5f8301525060206146728482850161461d565b602083015250604061468684828501613deb565b60408301525092915050565b5f608082840312156146a7576146a6612765565b5b5f6146b484828501614631565b91505092915050565b5f6060820190506146d05f830186612a31565b6146dd6020830185612a31565b6146ea6040830184613076565b94935050505056fea264697066735822122030a84cf24996b570aa82c9227d9ef20e1358812a4478d38b9fce7e472ff7661864736f6c634300081c0033000000000000000000000000684a2aaf3d98bc8ed2c07988e8da9023026ad511000000000000000000000000c160a1bcf0c79a6fc5b0f015bfaaa9a6cda356870000000000000000000000001a44076050125825900e736c501f859c50fe728c0000000000000000000000000ece75f3c36f7df2136dac7633165dbff53de3cd",
        "nonce": "0x55",
        "chainId": "0x2019"
      },
      "additionalContracts": [],
      "isFixedGasLimit": false
    },
    {
      "hash": "0x27470d2f56c45def5252c7b1b4fda6ca1f49222cea56d2e2f71c0b45aaf3fc05",
      "transactionType": "CALL",
      "contractName": "ElevatedMinterBurner",
      "contractAddress": "0xc160a1bcf0c79a6fc5b0f015bfaaa9a6cda35687",
      "function": "setOperator(address,bool)",
      "arguments": [
        "0xcdEc0D768e43090a9eeC47d87d8165E9FA78B204",
        "true"
      ],
      "transaction": {
        "from": "0x0ece75f3c36f7df2136dac7633165dbff53de3cd",
        "to": "0xc160a1bcf0c79a6fc5b0f015bfaaa9a6cda35687",
        "gas": "0xfc45",
        "value": "0x0",
        "input": "0x558a7297000000000000000000000000cdec0d768e43090a9eec47d87d8165e9fa78b2040000000000000000000000000000000000000000000000000000000000000001",
        "nonce": "0x56",
        "chainId": "0x2019"
      },
      "additionalContracts": [],
      "isFixedGasLimit": false
    },
    {
      "hash": "0x7863c812c79332bea8a5899538cff8c471edbb9574463af94977638f65d29aca",
      "transactionType": "CALL",
      "contractName": null,
      "contractAddress": "0x1a44076050125825900e736c501f859c50fe728c",
      "function": "setSendLibrary(address,uint32,address)",
      "arguments": [
        "0x5e6671ef689B2B2D4391a766B0486E5054136546",
        "30184",
        "0x9714Ccf1dedeF14BaB5013625DB92746C1358cb4"
      ],
      "transaction": {
        "from": "0x0ece75f3c36f7df2136dac7633165dbff53de3cd",
        "to": "0x1a44076050125825900e736c501f859c50fe728c",
        "gas": "0x1378b",
        "value": "0x0",
        "input": "0x9535ff300000000000000000000000005e6671ef689b2b2d4391a766b0486e505413654600000000000000000000000000000000000000000000000000000000000075e80000000000000000000000009714ccf1dedef14bab5013625db92746c1358cb4",
        "nonce": "0x57",
        "chainId": "0x2019"
      },
      "additionalContracts": [],
      "isFixedGasLimit": false
    },
    {
      "hash": "0xca94b4d05b28f4398590793f910940e9da16418e727e9fe928f146d77301c444",
      "transactionType": "CALL",
      "contractName": null,
      "contractAddress": "0x1a44076050125825900e736c501f859c50fe728c",
      "function": "setSendLibrary(address,uint32,address)",
      "arguments": [
        "0xcdEc0D768e43090a9eeC47d87d8165E9FA78B204",
        "30184",
        "0x9714Ccf1dedeF14BaB5013625DB92746C1358cb4"
      ],
      "transaction": {
        "from": "0x0ece75f3c36f7df2136dac7633165dbff53de3cd",
        "to": "0x1a44076050125825900e736c501f859c50fe728c",
        "gas": "0x1378b",
        "value": "0x0",
        "input": "0x9535ff30000000000000000000000000cdec0d768e43090a9eec47d87d8165e9fa78b20400000000000000000000000000000000000000000000000000000000000075e80000000000000000000000009714ccf1dedef14bab5013625db92746c1358cb4",
        "nonce": "0x58",
        "chainId": "0x2019"
      },
      "additionalContracts": [],
      "isFixedGasLimit": false
    },
    {
      "hash": "0x0869de9f0ae2af8d21fb72ec95e148cf78f4628d96e80e19980b0fffaf4f639e",
      "transactionType": "CALL",
      "contractName": null,
      "contractAddress": "0x1a44076050125825900e736c501f859c50fe728c",
      "function": "setReceiveLibrary(address,uint32,address,uint256)",
      "arguments": [
        "0x5e6671ef689B2B2D4391a766B0486E5054136546",
        "30150",
        "0x937AbA873827BF883CeD83CA557697427eAA46Ee",
        "0"
      ],
      "transaction": {
        "from": "0x0ece75f3c36f7df2136dac7633165dbff53de3cd",
        "to": "0x1a44076050125825900e736c501f859c50fe728c",
        "gas": "0x17001",
        "value": "0x0",
        "input": "0x6a14d7150000000000000000000000005e6671ef689b2b2d4391a766b0486e505413654600000000000000000000000000000000000000000000000000000000000075c6000000000000000000000000937aba873827bf883ced83ca557697427eaa46ee0000000000000000000000000000000000000000000000000000000000000000",
        "nonce": "0x59",
        "chainId": "0x2019"
      },
      "additionalContracts": [],
      "isFixedGasLimit": false
    },
    {
      "hash": "0xcf86e3a11c9c186efdd7611723a5bfc3528d6edcd6af68ac379a9168d44d6d28",
      "transactionType": "CALL",
      "contractName": null,
      "contractAddress": "0x1a44076050125825900e736c501f859c50fe728c",
      "function": "setReceiveLibrary(address,uint32,address,uint256)",
      "arguments": [
        "0xcdEc0D768e43090a9eeC47d87d8165E9FA78B204",
        "30150",
        "0x937AbA873827BF883CeD83CA557697427eAA46Ee",
        "0"
      ],
      "transaction": {
        "from": "0x0ece75f3c36f7df2136dac7633165dbff53de3cd",
        "to": "0x1a44076050125825900e736c501f859c50fe728c",
        "gas": "0x17001",
        "value": "0x0",
        "input": "0x6a14d715000000000000000000000000cdec0d768e43090a9eec47d87d8165e9fa78b20400000000000000000000000000000000000000000000000000000000000075c6000000000000000000000000937aba873827bf883ced83ca557697427eaa46ee0000000000000000000000000000000000000000000000000000000000000000",
        "nonce": "0x5a",
        "chainId": "0x2019"
      },
      "additionalContracts": [],
      "isFixedGasLimit": false
    },
    {
      "hash": "0x108fef6f496a3807d9190a92a0912e4635110fd7575cfcdec7112d0fb264cfcd",
      "transactionType": "CALL",
      "contractName": null,
      "contractAddress": "0x1a44076050125825900e736c501f859c50fe728c",
      "function": "setConfig(address,address,(uint32,uint32,bytes)[])",
      "arguments": [
        "0x5e6671ef689B2B2D4391a766B0486E5054136546",
        "0x9714Ccf1dedeF14BaB5013625DB92746C1358cb4",
        "[(30184, 1, 0x0000000000000000000000000000000000000000000000000000000000002710000000000000000000000000e149187a987f129fd3d397ed04a60b0b89d1669f), (30184, 2, 0x0000000000000000000000000000000000000000000000000000000000000020000000000000000000000000000000000000000000000000000000000000000f000000000000000000000000000000000000000000000000000000000000000200000000000000000000000000000000000000000000000000000000000000ff000000000000000000000000000000000000000000000000000000000000000000000000000000000000000000000000000000000000000000000000000000c0000000000000000000000000000000000000000000000000000000000000012000000000000000000000000000000000000000000000000000000000000000020000000000000000000000001154d04d07aee26ff2c200bd373eb76a7e5694d6000000000000000000000000acde1f22eeab249d3ca6ba8805c8fee9f52a16e70000000000000000000000000000000000000000000000000000000000000000), (30150, 1, 0x0000000000000000000000000000000000000000000000000000000000002710000000000000000000000000e149187a987f129fd3d397ed04a60b0b89d1669f), (30150, 2, 0x0000000000000000000000000000000000000000000000000000000000000020000000000000000000000000000000000000000000000000000000000000000f000000000000000000000000000000000000000000000000000000000000000200000000000000000000000000000000000000000000000000000000000000ff000000000000000000000000000000000000000000000000000000000000000000000000000000000000000000000000000000000000000000000000000000c0000000000000000000000000000000000000000000000000000000000000012000000000000000000000000000000000000000000000000000000000000000020000000000000000000000001154d04d07aee26ff2c200bd373eb76a7e5694d6000000000000000000000000acde1f22eeab249d3ca6ba8805c8fee9f52a16e70000000000000000000000000000000000000000000000000000000000000000)]"
      ],
      "transaction": {
        "from": "0x0ece75f3c36f7df2136dac7633165dbff53de3cd",
        "to": "0x1a44076050125825900e736c501f859c50fe728c",
        "gas": "0x6605a",
        "value": "0x0",
        "input": "0x6dbd9f900000000000000000000000005e6671ef689b2b2d4391a766b0486e50541365460000000000000000000000009714ccf1dedef14bab5013625db92746c1358cb40000000000000000000000000000000000000000000000000000000000000060000000000000000000000000000000000000000000000000000000000000000400000000000000000000000000000000000000000000000000000000000000800000000000000000000000000000000000000000000000000000000000000140000000000000000000000000000000000000000000000000000000000000032000000000000000000000000000000000000000000000000000000000000003e000000000000000000000000000000000000000000000000000000000000075e80000000000000000000000000000000000000000000000000000000000000001000000000000000000000000000000000000000000000000000000000000006000000000000000000000000000000000000000000000000000000000000000400000000000000000000000000000000000000000000000000000000000002710000000000000000000000000e149187a987f129fd3d397ed04a60b0b89d1669f00000000000000000000000000000000000000000000000000000000000075e80000000000000000000000000000000000000000000000000000000000000002000000000000000000000000000000000000000000000000000000000000006000000000000000000000000000000000000000000000000000000000000001600000000000000000000000000000000000000000000000000000000000000020000000000000000000000000000000000000000000000000000000000000000f000000000000000000000000000000000000000000000000000000000000000200000000000000000000000000000000000000000000000000000000000000ff000000000000000000000000000000000000000000000000000000000000000000000000000000000000000000000000000000000000000000000000000000c0000000000000000000000000000000000000000000000000000000000000012000000000000000000000000000000000000000000000000000000000000000020000000000000000000000001154d04d07aee26ff2c200bd373eb76a7e5694d6000000000000000000000000acde1f22eeab249d3ca6ba8805c8fee9f52a16e7000000000000000000000000000000000000000000000000000000000000000000000000000000000000000000000000000000000000000000000000000075c60000000000000000000000000000000000000000000000000000000000000001000000000000000000000000000000000000000000000000000000000000006000000000000000000000000000000000000000000000000000000000000000400000000000000000000000000000000000000000000000000000000000002710000000000000000000000000e149187a987f129fd3d397ed04a60b0b89d1669f00000000000000000000000000000000000000000000000000000000000075c60000000000000000000000000000000000000000000000000000000000000002000000000000000000000000000000000000000000000000000000000000006000000000000000000000000000000000000000000000000000000000000001600000000000000000000000000000000000000000000000000000000000000020000000000000000000000000000000000000000000000000000000000000000f000000000000000000000000000000000000000000000000000000000000000200000000000000000000000000000000000000000000000000000000000000ff000000000000000000000000000000000000000000000000000000000000000000000000000000000000000000000000000000000000000000000000000000c0000000000000000000000000000000000000000000000000000000000000012000000000000000000000000000000000000000000000000000000000000000020000000000000000000000001154d04d07aee26ff2c200bd373eb76a7e5694d6000000000000000000000000acde1f22eeab249d3ca6ba8805c8fee9f52a16e70000000000000000000000000000000000000000000000000000000000000000",
        "nonce": "0x5b",
        "chainId": "0x2019"
      },
      "additionalContracts": [],
      "isFixedGasLimit": false
    },
    {
      "hash": "0x6bd93bc5cdee9367a27ebc2f4a55b7b1e8fe85f17d491e61cb15899ad1e27026",
      "transactionType": "CALL",
      "contractName": null,
      "contractAddress": "0x1a44076050125825900e736c501f859c50fe728c",
      "function": "setConfig(address,address,(uint32,uint32,bytes)[])",
      "arguments": [
        "0xcdEc0D768e43090a9eeC47d87d8165E9FA78B204",
        "0x9714Ccf1dedeF14BaB5013625DB92746C1358cb4",
        "[(30184, 1, 0x0000000000000000000000000000000000000000000000000000000000002710000000000000000000000000e149187a987f129fd3d397ed04a60b0b89d1669f), (30184, 2, 0x0000000000000000000000000000000000000000000000000000000000000020000000000000000000000000000000000000000000000000000000000000000f000000000000000000000000000000000000000000000000000000000000000200000000000000000000000000000000000000000000000000000000000000ff000000000000000000000000000000000000000000000000000000000000000000000000000000000000000000000000000000000000000000000000000000c0000000000000000000000000000000000000000000000000000000000000012000000000000000000000000000000000000000000000000000000000000000020000000000000000000000001154d04d07aee26ff2c200bd373eb76a7e5694d6000000000000000000000000acde1f22eeab249d3ca6ba8805c8fee9f52a16e70000000000000000000000000000000000000000000000000000000000000000), (30150, 1, 0x0000000000000000000000000000000000000000000000000000000000002710000000000000000000000000e149187a987f129fd3d397ed04a60b0b89d1669f), (30150, 2, 0x0000000000000000000000000000000000000000000000000000000000000020000000000000000000000000000000000000000000000000000000000000000f000000000000000000000000000000000000000000000000000000000000000200000000000000000000000000000000000000000000000000000000000000ff000000000000000000000000000000000000000000000000000000000000000000000000000000000000000000000000000000000000000000000000000000c0000000000000000000000000000000000000000000000000000000000000012000000000000000000000000000000000000000000000000000000000000000020000000000000000000000001154d04d07aee26ff2c200bd373eb76a7e5694d6000000000000000000000000acde1f22eeab249d3ca6ba8805c8fee9f52a16e70000000000000000000000000000000000000000000000000000000000000000)]"
      ],
      "transaction": {
        "from": "0x0ece75f3c36f7df2136dac7633165dbff53de3cd",
        "to": "0x1a44076050125825900e736c501f859c50fe728c",
        "gas": "0x6605a",
        "value": "0x0",
        "input": "0x6dbd9f90000000000000000000000000cdec0d768e43090a9eec47d87d8165e9fa78b2040000000000000000000000009714ccf1dedef14bab5013625db92746c1358cb40000000000000000000000000000000000000000000000000000000000000060000000000000000000000000000000000000000000000000000000000000000400000000000000000000000000000000000000000000000000000000000000800000000000000000000000000000000000000000000000000000000000000140000000000000000000000000000000000000000000000000000000000000032000000000000000000000000000000000000000000000000000000000000003e000000000000000000000000000000000000000000000000000000000000075e80000000000000000000000000000000000000000000000000000000000000001000000000000000000000000000000000000000000000000000000000000006000000000000000000000000000000000000000000000000000000000000000400000000000000000000000000000000000000000000000000000000000002710000000000000000000000000e149187a987f129fd3d397ed04a60b0b89d1669f00000000000000000000000000000000000000000000000000000000000075e80000000000000000000000000000000000000000000000000000000000000002000000000000000000000000000000000000000000000000000000000000006000000000000000000000000000000000000000000000000000000000000001600000000000000000000000000000000000000000000000000000000000000020000000000000000000000000000000000000000000000000000000000000000f000000000000000000000000000000000000000000000000000000000000000200000000000000000000000000000000000000000000000000000000000000ff000000000000000000000000000000000000000000000000000000000000000000000000000000000000000000000000000000000000000000000000000000c0000000000000000000000000000000000000000000000000000000000000012000000000000000000000000000000000000000000000000000000000000000020000000000000000000000001154d04d07aee26ff2c200bd373eb76a7e5694d6000000000000000000000000acde1f22eeab249d3ca6ba8805c8fee9f52a16e7000000000000000000000000000000000000000000000000000000000000000000000000000000000000000000000000000000000000000000000000000075c60000000000000000000000000000000000000000000000000000000000000001000000000000000000000000000000000000000000000000000000000000006000000000000000000000000000000000000000000000000000000000000000400000000000000000000000000000000000000000000000000000000000002710000000000000000000000000e149187a987f129fd3d397ed04a60b0b89d1669f00000000000000000000000000000000000000000000000000000000000075c60000000000000000000000000000000000000000000000000000000000000002000000000000000000000000000000000000000000000000000000000000006000000000000000000000000000000000000000000000000000000000000001600000000000000000000000000000000000000000000000000000000000000020000000000000000000000000000000000000000000000000000000000000000f000000000000000000000000000000000000000000000000000000000000000200000000000000000000000000000000000000000000000000000000000000ff000000000000000000000000000000000000000000000000000000000000000000000000000000000000000000000000000000000000000000000000000000c0000000000000000000000000000000000000000000000000000000000000012000000000000000000000000000000000000000000000000000000000000000020000000000000000000000001154d04d07aee26ff2c200bd373eb76a7e5694d6000000000000000000000000acde1f22eeab249d3ca6ba8805c8fee9f52a16e70000000000000000000000000000000000000000000000000000000000000000",
        "nonce": "0x5c",
        "chainId": "0x2019"
      },
      "additionalContracts": [],
      "isFixedGasLimit": false
    },
    {
      "hash": "0xddfeb1e51faf788bd49ba0240265e75c3d896a34dad7314705ce261e30c3d6c5",
      "transactionType": "CALL",
      "contractName": null,
      "contractAddress": "0x1a44076050125825900e736c501f859c50fe728c",
      "function": "setConfig(address,address,(uint32,uint32,bytes)[])",
      "arguments": [
        "0x5e6671ef689B2B2D4391a766B0486E5054136546",
        "0x937AbA873827BF883CeD83CA557697427eAA46Ee",
        "[(30184, 2, 0x0000000000000000000000000000000000000000000000000000000000000020000000000000000000000000000000000000000000000000000000000000000f000000000000000000000000000000000000000000000000000000000000000200000000000000000000000000000000000000000000000000000000000000ff000000000000000000000000000000000000000000000000000000000000000000000000000000000000000000000000000000000000000000000000000000c0000000000000000000000000000000000000000000000000000000000000012000000000000000000000000000000000000000000000000000000000000000020000000000000000000000001154d04d07aee26ff2c200bd373eb76a7e5694d6000000000000000000000000acde1f22eeab249d3ca6ba8805c8fee9f52a16e70000000000000000000000000000000000000000000000000000000000000000), (30150, 2, 0x0000000000000000000000000000000000000000000000000000000000000020000000000000000000000000000000000000000000000000000000000000000f000000000000000000000000000000000000000000000000000000000000000200000000000000000000000000000000000000000000000000000000000000ff000000000000000000000000000000000000000000000000000000000000000000000000000000000000000000000000000000000000000000000000000000c0000000000000000000000000000000000000000000000000000000000000012000000000000000000000000000000000000000000000000000000000000000020000000000000000000000001154d04d07aee26ff2c200bd373eb76a7e5694d6000000000000000000000000acde1f22eeab249d3ca6ba8805c8fee9f52a16e70000000000000000000000000000000000000000000000000000000000000000)]"
      ],
      "transaction": {
        "from": "0x0ece75f3c36f7df2136dac7633165dbff53de3cd",
        "to": "0x1a44076050125825900e736c501f859c50fe728c",
        "gas": "0x58167",
        "value": "0x0",
        "input": "0x6dbd9f900000000000000000000000005e6671ef689b2b2d4391a766b0486e5054136546000000000000000000000000937aba873827bf883ced83ca557697427eaa46ee000000000000000000000000000000000000000000000000000000000000006000000000000000000000000000000000000000000000000000000000000000020000000000000000000000000000000000000000000000000000000000000040000000000000000000000000000000000000000000000000000000000000022000000000000000000000000000000000000000000000000000000000000075e80000000000000000000000000000000000000000000000000000000000000002000000000000000000000000000000000000000000000000000000000000006000000000000000000000000000000000000000000000000000000000000001600000000000000000000000000000000000000000000000000000000000000020000000000000000000000000000000000000000000000000000000000000000f000000000000000000000000000000000000000000000000000000000000000200000000000000000000000000000000000000000000000000000000000000ff000000000000000000000000000000000000000000000000000000000000000000000000000000000000000000000000000000000000000000000000000000c0000000000000000000000000000000000000000000000000000000000000012000000000000000000000000000000000000000000000000000000000000000020000000000000000000000001154d04d07aee26ff2c200bd373eb76a7e5694d6000000000000000000000000acde1f22eeab249d3ca6ba8805c8fee9f52a16e7000000000000000000000000000000000000000000000000000000000000000000000000000000000000000000000000000000000000000000000000000075c60000000000000000000000000000000000000000000000000000000000000002000000000000000000000000000000000000000000000000000000000000006000000000000000000000000000000000000000000000000000000000000001600000000000000000000000000000000000000000000000000000000000000020000000000000000000000000000000000000000000000000000000000000000f000000000000000000000000000000000000000000000000000000000000000200000000000000000000000000000000000000000000000000000000000000ff000000000000000000000000000000000000000000000000000000000000000000000000000000000000000000000000000000000000000000000000000000c0000000000000000000000000000000000000000000000000000000000000012000000000000000000000000000000000000000000000000000000000000000020000000000000000000000001154d04d07aee26ff2c200bd373eb76a7e5694d6000000000000000000000000acde1f22eeab249d3ca6ba8805c8fee9f52a16e70000000000000000000000000000000000000000000000000000000000000000",
        "nonce": "0x5d",
        "chainId": "0x2019"
      },
      "additionalContracts": [],
      "isFixedGasLimit": false
    },
    {
      "hash": "0xe7586ea6d40f9b89c67c22159f486e77f7ecd0b98b762d9dff1d6ab181c3be0a",
      "transactionType": "CALL",
      "contractName": null,
      "contractAddress": "0x1a44076050125825900e736c501f859c50fe728c",
      "function": "setConfig(address,address,(uint32,uint32,bytes)[])",
      "arguments": [
        "0xcdEc0D768e43090a9eeC47d87d8165E9FA78B204",
        "0x937AbA873827BF883CeD83CA557697427eAA46Ee",
        "[(30184, 2, 0x0000000000000000000000000000000000000000000000000000000000000020000000000000000000000000000000000000000000000000000000000000000f000000000000000000000000000000000000000000000000000000000000000200000000000000000000000000000000000000000000000000000000000000ff000000000000000000000000000000000000000000000000000000000000000000000000000000000000000000000000000000000000000000000000000000c0000000000000000000000000000000000000000000000000000000000000012000000000000000000000000000000000000000000000000000000000000000020000000000000000000000001154d04d07aee26ff2c200bd373eb76a7e5694d6000000000000000000000000acde1f22eeab249d3ca6ba8805c8fee9f52a16e70000000000000000000000000000000000000000000000000000000000000000), (30150, 2, 0x0000000000000000000000000000000000000000000000000000000000000020000000000000000000000000000000000000000000000000000000000000000f000000000000000000000000000000000000000000000000000000000000000200000000000000000000000000000000000000000000000000000000000000ff000000000000000000000000000000000000000000000000000000000000000000000000000000000000000000000000000000000000000000000000000000c0000000000000000000000000000000000000000000000000000000000000012000000000000000000000000000000000000000000000000000000000000000020000000000000000000000001154d04d07aee26ff2c200bd373eb76a7e5694d6000000000000000000000000acde1f22eeab249d3ca6ba8805c8fee9f52a16e70000000000000000000000000000000000000000000000000000000000000000)]"
      ],
      "transaction": {
        "from": "0x0ece75f3c36f7df2136dac7633165dbff53de3cd",
        "to": "0x1a44076050125825900e736c501f859c50fe728c",
        "gas": "0x58167",
        "value": "0x0",
        "input": "0x6dbd9f90000000000000000000000000cdec0d768e43090a9eec47d87d8165e9fa78b204000000000000000000000000937aba873827bf883ced83ca557697427eaa46ee000000000000000000000000000000000000000000000000000000000000006000000000000000000000000000000000000000000000000000000000000000020000000000000000000000000000000000000000000000000000000000000040000000000000000000000000000000000000000000000000000000000000022000000000000000000000000000000000000000000000000000000000000075e80000000000000000000000000000000000000000000000000000000000000002000000000000000000000000000000000000000000000000000000000000006000000000000000000000000000000000000000000000000000000000000001600000000000000000000000000000000000000000000000000000000000000020000000000000000000000000000000000000000000000000000000000000000f000000000000000000000000000000000000000000000000000000000000000200000000000000000000000000000000000000000000000000000000000000ff000000000000000000000000000000000000000000000000000000000000000000000000000000000000000000000000000000000000000000000000000000c0000000000000000000000000000000000000000000000000000000000000012000000000000000000000000000000000000000000000000000000000000000020000000000000000000000001154d04d07aee26ff2c200bd373eb76a7e5694d6000000000000000000000000acde1f22eeab249d3ca6ba8805c8fee9f52a16e7000000000000000000000000000000000000000000000000000000000000000000000000000000000000000000000000000000000000000000000000000075c60000000000000000000000000000000000000000000000000000000000000002000000000000000000000000000000000000000000000000000000000000006000000000000000000000000000000000000000000000000000000000000001600000000000000000000000000000000000000000000000000000000000000020000000000000000000000000000000000000000000000000000000000000000f000000000000000000000000000000000000000000000000000000000000000200000000000000000000000000000000000000000000000000000000000000ff000000000000000000000000000000000000000000000000000000000000000000000000000000000000000000000000000000000000000000000000000000c0000000000000000000000000000000000000000000000000000000000000012000000000000000000000000000000000000000000000000000000000000000020000000000000000000000001154d04d07aee26ff2c200bd373eb76a7e5694d6000000000000000000000000acde1f22eeab249d3ca6ba8805c8fee9f52a16e70000000000000000000000000000000000000000000000000000000000000000",
        "nonce": "0x5e",
        "chainId": "0x2019"
      },
      "additionalContracts": [],
      "isFixedGasLimit": false
    },
    {
      "hash": "0xcbf18fd9fda30d883c851b7be1193914a739a7ddc8ec7b35079473ebc1a246ac",
      "transactionType": "CALL",
      "contractName": "OFTUSDTadapter",
      "contractAddress": "0x5e6671ef689b2b2d4391a766b0486e5054136546",
      "function": "setPeer(uint32,bytes32)",
      "arguments": [
        "30184",
        "0x0000000000000000000000005e6aad48fb0a23e9540a5eaffb87846e8ef04c42"
      ],
      "transaction": {
        "from": "0x0ece75f3c36f7df2136dac7633165dbff53de3cd",
        "to": "0x5e6671ef689b2b2d4391a766b0486e5054136546",
        "gas": "0x104a6",
        "value": "0x0",
        "input": "0x3400288b00000000000000000000000000000000000000000000000000000000000075e80000000000000000000000005e6aad48fb0a23e9540a5eaffb87846e8ef04c42",
        "nonce": "0x5f",
        "chainId": "0x2019"
      },
      "additionalContracts": [],
      "isFixedGasLimit": false
    },
    {
      "hash": "0x5451a9b163b1e86f93fd7f8a7792565b75c37aa944c1d1e8f3750e07dc1c7ae5",
      "transactionType": "CALL",
      "contractName": "OFTKAIAadapter",
      "contractAddress": "0xcdec0d768e43090a9eec47d87d8165e9fa78b204",
      "function": "setPeer(uint32,bytes32)",
      "arguments": [
        "30184",
        "0x000000000000000000000000b9b3a1baa8cf4c5cd6b4d132ed7b0cbe05646f6f"
      ],
      "transaction": {
        "from": "0x0ece75f3c36f7df2136dac7633165dbff53de3cd",
        "to": "0xcdec0d768e43090a9eec47d87d8165e9fa78b204",
        "gas": "0x104a6",
        "value": "0x0",
        "input": "0x3400288b00000000000000000000000000000000000000000000000000000000000075e8000000000000000000000000b9b3a1baa8cf4c5cd6b4d132ed7b0cbe05646f6f",
        "nonce": "0x60",
        "chainId": "0x2019"
      },
      "additionalContracts": [],
      "isFixedGasLimit": false
    },
    {
      "hash": "0xa0150eab5357429e6a8b49215c00800f9a49bbd03a7c9a45463c17b235807b87",
      "transactionType": "CALL",
      "contractName": "OFTUSDTadapter",
      "contractAddress": "0x5e6671ef689b2b2d4391a766b0486e5054136546",
      "function": "setEnforcedOptions((uint32,uint16,bytes)[])",
      "arguments": [
        "[(30184, 1, 0x00030100110100000000000000000000000000013880), (30150, 1, 0x000301001101000000000000000000000000000186a0)]"
      ],
      "transaction": {
        "from": "0x0ece75f3c36f7df2136dac7633165dbff53de3cd",
        "to": "0x5e6671ef689b2b2d4391a766b0486e5054136546",
        "gas": "0x1bd63",
        "value": "0x0",
        "input": "0xb98bd07000000000000000000000000000000000000000000000000000000000000000200000000000000000000000000000000000000000000000000000000000000002000000000000000000000000000000000000000000000000000000000000004000000000000000000000000000000000000000000000000000000000000000e000000000000000000000000000000000000000000000000000000000000075e8000000000000000000000000000000000000000000000000000000000000000100000000000000000000000000000000000000000000000000000000000000600000000000000000000000000000000000000000000000000000000000000016000301001101000000000000000000000000000138800000000000000000000000000000000000000000000000000000000000000000000000000000000075c6000000000000000000000000000000000000000000000000000000000000000100000000000000000000000000000000000000000000000000000000000000600000000000000000000000000000000000000000000000000000000000000016000301001101000000000000000000000000000186a000000000000000000000",
        "nonce": "0x61",
        "chainId": "0x2019"
      },
      "additionalContracts": [],
      "isFixedGasLimit": false
    },
    {
      "hash": "0xe103a5ddb527508af1844b39c43f969924d48e581e2e2e78cb3ae6c791d05d31",
      "transactionType": "CALL",
      "contractName": "OFTKAIAadapter",
      "contractAddress": "0xcdec0d768e43090a9eec47d87d8165e9fa78b204",
      "function": "setEnforcedOptions((uint32,uint16,bytes)[])",
      "arguments": [
        "[(30184, 1, 0x00030100110100000000000000000000000000013880), (30150, 1, 0x000301001101000000000000000000000000000186a0)]"
      ],
      "transaction": {
        "from": "0x0ece75f3c36f7df2136dac7633165dbff53de3cd",
        "to": "0xcdec0d768e43090a9eec47d87d8165e9fa78b204",
        "gas": "0x1bd63",
        "value": "0x0",
        "input": "0xb98bd07000000000000000000000000000000000000000000000000000000000000000200000000000000000000000000000000000000000000000000000000000000002000000000000000000000000000000000000000000000000000000000000004000000000000000000000000000000000000000000000000000000000000000e000000000000000000000000000000000000000000000000000000000000075e8000000000000000000000000000000000000000000000000000000000000000100000000000000000000000000000000000000000000000000000000000000600000000000000000000000000000000000000000000000000000000000000016000301001101000000000000000000000000000138800000000000000000000000000000000000000000000000000000000000000000000000000000000075c6000000000000000000000000000000000000000000000000000000000000000100000000000000000000000000000000000000000000000000000000000000600000000000000000000000000000000000000000000000000000000000000016000301001101000000000000000000000000000186a000000000000000000000",
        "nonce": "0x62",
        "chainId": "0x2019"
      },
      "additionalContracts": [],
      "isFixedGasLimit": false
    },
    {
      "hash": "0x5be154a7f485d39511effe0dbb53832bbb9d384aafd704dc3a534dc42de42f1e",
      "transactionType": "CALL",
      "contractName": null,
      "contractAddress": "0xa971cd2714fbcc9a942b09bc391a724df9338206",
      "function": "setOftAddress(address,address)",
      "arguments": [
        "0xCEb5c8903060197e46Ab5ea5087b9F99CBc8da49",
        "0x5e6671ef689B2B2D4391a766B0486E5054136546"
      ],
      "transaction": {
        "from": "0x0ece75f3c36f7df2136dac7633165dbff53de3cd",
        "to": "0xa971cd2714fbcc9a942b09bc391a724df9338206",
        "gas": "0x13315",
        "value": "0x0",
        "input": "0xf09a0d6b000000000000000000000000ceb5c8903060197e46ab5ea5087b9f99cbc8da490000000000000000000000005e6671ef689b2b2d4391a766b0486e5054136546",
        "nonce": "0x63",
        "chainId": "0x2019"
      },
      "additionalContracts": [],
      "isFixedGasLimit": false
    },
    {
      "hash": "0x7485a87d4f9de26fae7e82b4fe2240d09a8120c8945042a0846d3994c87fe553",
      "transactionType": "CALL",
      "contractName": null,
      "contractAddress": "0xa971cd2714fbcc9a942b09bc391a724df9338206",
      "function": "setOftAddress(address,address)",
      "arguments": [
        "0x684a2aAF3d98bC8eD2c07988E8da9023026aD511",
        "0xcdEc0D768e43090a9eeC47d87d8165E9FA78B204"
      ],
      "transaction": {
        "from": "0x0ece75f3c36f7df2136dac7633165dbff53de3cd",
        "to": "0xa971cd2714fbcc9a942b09bc391a724df9338206",
        "gas": "0x13315",
        "value": "0x0",
        "input": "0xf09a0d6b000000000000000000000000684a2aaf3d98bc8ed2c07988e8da9023026ad511000000000000000000000000cdec0d768e43090a9eec47d87d8165e9fa78b204",
        "nonce": "0x64",
        "chainId": "0x2019"
      },
      "additionalContracts": [],
      "isFixedGasLimit": false
    }
  ],
  "receipts": [
    {
      "status": "0x1",
      "cumulativeGasUsed": "0xe0007",
      "logs": [
        {
          "address": "0x7c9cf703903680ae5eb6ec2bb2bebb1ec751918a",
          "topics": [
            "0x8be0079c531659141344cd1fd0a4f28419497f9722a3daafe3b4186f6b6457e0",
            "0x0000000000000000000000000000000000000000000000000000000000000000",
            "0x0000000000000000000000000ece75f3c36f7df2136dac7633165dbff53de3cd"
          ],
          "data": "0x",
          "blockHash": "0xc8b46f604b4306fcbe72f58ed777e7e18000aba60e53d10f9ade5a02329bf498",
          "blockNumber": "0xbaba558",
          "transactionHash": "0xa760d972021c7e5ecbde957ad36576c3476e890e65c48f47f0cae163c9e24934",
          "transactionIndex": "0x5",
          "logIndex": "0x5",
          "removed": false
        }
      ],
      "logsBloom": "0x00004000000000000000000000000000000000000000000000800000000000000000000000000000000000000000000000000000000000000000000000000000000000000000000000000000100000000001000000000000000000000000000000000000020000000000000000000800000000000000200000000000000000400000000000000004000000000000000000000000000000000000000000000000000000000000000000000800000000000000000000000000000000000000000000000000000000000000000000000000000000000000000000000000000020000000000000200000000000000000000000000000000000000000000000000000",
      "type": "0x2",
      "transactionHash": "0xa760d972021c7e5ecbde957ad36576c3476e890e65c48f47f0cae163c9e24934",
      "transactionIndex": "0x5",
      "blockHash": "0xc8b46f604b4306fcbe72f58ed777e7e18000aba60e53d10f9ade5a02329bf498",
      "blockNumber": "0xbaba558",
      "gasUsed": "0x98b27",
      "effectiveGasPrice": "0x66720b300",
      "from": "0x0ece75f3c36f7df2136dac7633165dbff53de3cd",
      "to": null,
      "contractAddress": "0x7c9cf703903680ae5eb6ec2bb2bebb1ec751918a"
    },
    {
      "status": "0x1",
      "cumulativeGasUsed": "0x42ac13",
      "logs": [
        {
          "address": "0x5e6671ef689b2b2d4391a766b0486e5054136546",
          "topics": [
            "0x8be0079c531659141344cd1fd0a4f28419497f9722a3daafe3b4186f6b6457e0",
            "0x0000000000000000000000000000000000000000000000000000000000000000",
            "0x0000000000000000000000000ece75f3c36f7df2136dac7633165dbff53de3cd"
          ],
          "data": "0x",
          "blockHash": "0x20d0eb0519451f8d6c9fe6b695b98eca5123eda0578e652de25e1a76c8a4abfd",
          "blockNumber": "0xbaba559",
          "transactionHash": "0xba11457a19660383be6b18248edf48e52a15fa024f99e61e2dfc66f61ce862cd",
          "transactionIndex": "0x6",
          "logIndex": "0x2",
          "removed": false
        },
        {
          "address": "0x1a44076050125825900e736c501f859c50fe728c",
          "topics": [
            "0x6ee10e9ed4d6ce9742703a498707862f4b00f1396a87195eb93267b3d7983981"
          ],
          "data": "0x0000000000000000000000005e6671ef689b2b2d4391a766b0486e50541365460000000000000000000000000ece75f3c36f7df2136dac7633165dbff53de3cd",
          "blockHash": "0x20d0eb0519451f8d6c9fe6b695b98eca5123eda0578e652de25e1a76c8a4abfd",
          "blockNumber": "0xbaba559",
          "transactionHash": "0xba11457a19660383be6b18248edf48e52a15fa024f99e61e2dfc66f61ce862cd",
          "transactionIndex": "0x6",
          "logIndex": "0x3",
          "removed": false
        }
      ],
      "logsBloom": "0x00080000000000000000000000000000000000000000000000800000001000000000000000000000000000000000000000000002000000000000000000000000000000000000000000000000000000000001000000000000000000000000000000000000020000000000000000000800000000000010200000000000000000400000000000000000000000000000001000000000000000000000000000000000000000000000000000020800000000000000000000000000000000000000000400000000000000000000000000000000000000000000000000000000000020000000000000200000000000000000000000000000010000000000000000000000",
      "type": "0x2",
      "transactionHash": "0xba11457a19660383be6b18248edf48e52a15fa024f99e61e2dfc66f61ce862cd",
      "transactionIndex": "0x6",
      "blockHash": "0x20d0eb0519451f8d6c9fe6b695b98eca5123eda0578e652de25e1a76c8a4abfd",
      "blockNumber": "0xbaba559",
      "gasUsed": "0x3faae5",
      "effectiveGasPrice": "0x66720b300",
      "from": "0x0ece75f3c36f7df2136dac7633165dbff53de3cd",
      "to": null,
      "contractAddress": "0x5e6671ef689b2b2d4391a766b0486e5054136546"
    },
    {
      "status": "0x1",
      "cumulativeGasUsed": "0x4362b7",
      "logs": [],
      "logsBloom": "0x00000000000000000000000000000000000000000000000000000000000000000000000000000000000000000000000000000000000000000000000000000000000000000000000000000000000000000000000000000000000000000000000000000000000000000000000000000000000000000000000000000000000000000000000000000000000000000000000000000000000000000000000000000000000000000000000000000000000000000000000000000000000000000000000000000000000000000000000000000000000000000000000000000000000000000000000000000000000000000000000000000000000000000000000000000000",
      "type": "0x2",
      "transactionHash": "0x2f8a9275d70856f0f5a66ac5e704d47a3a111a0243cbbae09909e0f27ce8efb7",
      "transactionIndex": "0x7",
      "blockHash": "0x20d0eb0519451f8d6c9fe6b695b98eca5123eda0578e652de25e1a76c8a4abfd",
      "blockNumber": "0xbaba559",
      "gasUsed": "0xb6a4",
      "effectiveGasPrice": "0x66720b300",
      "from": "0x0ece75f3c36f7df2136dac7633165dbff53de3cd",
      "to": "0x7c9cf703903680ae5eb6ec2bb2bebb1ec751918a",
      "contractAddress": null
    },
    {
      "status": "0x1",
      "cumulativeGasUsed": "0x4cedde",
      "logs": [
        {
          "address": "0xc160a1bcf0c79a6fc5b0f015bfaaa9a6cda35687",
          "topics": [
            "0x8be0079c531659141344cd1fd0a4f28419497f9722a3daafe3b4186f6b6457e0",
            "0x0000000000000000000000000000000000000000000000000000000000000000",
            "0x0000000000000000000000000ece75f3c36f7df2136dac7633165dbff53de3cd"
          ],
          "data": "0x",
          "blockHash": "0x20d0eb0519451f8d6c9fe6b695b98eca5123eda0578e652de25e1a76c8a4abfd",
          "blockNumber": "0xbaba559",
          "transactionHash": "0x796f47b7b1c4ad0bdc608d3ebc8993674ae0dda2e39670bd05e1cb881f7e1676",
          "transactionIndex": "0x8",
          "logIndex": "0x4",
          "removed": false
        }
      ],
      "logsBloom": "0x00000000000000000000000000000000000000000000000000800000000000000000000000000000000000000000000000000000000000000000000020000000000000000000000000000000000000000001000000000000000000000000000000000000020000000000000000000800000000000000200000000000000000400000000000000000008000000000000000000000000000000000000000000000000000000000000000000800000000000000000000000000000000000000000000000000000000000000000000000000000000000000000000000000000020000000000000200000000000000000000000000000000000000000000000000001",
      "type": "0x2",
      "transactionHash": "0x796f47b7b1c4ad0bdc608d3ebc8993674ae0dda2e39670bd05e1cb881f7e1676",
      "transactionIndex": "0x8",
      "blockHash": "0x20d0eb0519451f8d6c9fe6b695b98eca5123eda0578e652de25e1a76c8a4abfd",
      "blockNumber": "0xbaba559",
      "gasUsed": "0x98b27",
      "effectiveGasPrice": "0x66720b300",
      "from": "0x0ece75f3c36f7df2136dac7633165dbff53de3cd",
      "to": null,
      "contractAddress": "0xc160a1bcf0c79a6fc5b0f015bfaaa9a6cda35687"
    },
    {
      "status": "0x1",
      "cumulativeGasUsed": "0x8c0434",
      "logs": [
        {
          "address": "0xcdec0d768e43090a9eec47d87d8165e9fa78b204",
          "topics": [
            "0x8be0079c531659141344cd1fd0a4f28419497f9722a3daafe3b4186f6b6457e0",
            "0x0000000000000000000000000000000000000000000000000000000000000000",
            "0x0000000000000000000000000ece75f3c36f7df2136dac7633165dbff53de3cd"
          ],
          "data": "0x",
          "blockHash": "0x20d0eb0519451f8d6c9fe6b695b98eca5123eda0578e652de25e1a76c8a4abfd",
          "blockNumber": "0xbaba559",
          "transactionHash": "0xdb87e17ac68ba6d124c6cd969d6f200f74e43d568e66ade09acaad861039a21e",
          "transactionIndex": "0x9",
          "logIndex": "0x5",
          "removed": false
        },
        {
          "address": "0x1a44076050125825900e736c501f859c50fe728c",
          "topics": [
            "0x6ee10e9ed4d6ce9742703a498707862f4b00f1396a87195eb93267b3d7983981"
          ],
          "data": "0x000000000000000000000000cdec0d768e43090a9eec47d87d8165e9fa78b2040000000000000000000000000ece75f3c36f7df2136dac7633165dbff53de3cd",
          "blockHash": "0x20d0eb0519451f8d6c9fe6b695b98eca5123eda0578e652de25e1a76c8a4abfd",
          "blockNumber": "0xbaba559",
          "transactionHash": "0xdb87e17ac68ba6d124c6cd969d6f200f74e43d568e66ade09acaad861039a21e",
          "transactionIndex": "0x9",
          "logIndex": "0x6",
          "removed": false
        }
      ],
      "logsBloom": "0x00000000000000000000000000000000000000000000000000800000001000000000000000000000000000000000000000000002000000000000000000000000000000000000000000000000000000000001000000000000000000000000000000000000020000000000000000000800000000000010200000000000000000400000000000000100000000000000000000000000000000000000000000000004000000000000000000000800000000000000000000000000000000000000000400000000000000000000000000000000000000000000000000000000000020000000000080200000000000000000000000000000010000000000000000000000",
      "type": "0x2",
      "transactionHash": "0xdb87e17ac68ba6d124c6cd969d6f200f74e43d568e66ade09acaad861039a21e",
      "transactionIndex": "0x9",
      "blockHash": "0x20d0eb0519451f8d6c9fe6b695b98eca5123eda0578e652de25e1a76c8a4abfd",
      "blockNumber": "0xbaba559",
      "gasUsed": "0x3f1656",
      "effectiveGasPrice": "0x66720b300",
      "from": "0x0ece75f3c36f7df2136dac7633165dbff53de3cd",
      "to": null,
      "contractAddress": "0xcdec0d768e43090a9eec47d87d8165e9fa78b204"
    },
    {
      "status": "0x1",
      "cumulativeGasUsed": "0x8cbad8",
      "logs": [],
      "logsBloom": "0x00000000000000000000000000000000000000000000000000000000000000000000000000000000000000000000000000000000000000000000000000000000000000000000000000000000000000000000000000000000000000000000000000000000000000000000000000000000000000000000000000000000000000000000000000000000000000000000000000000000000000000000000000000000000000000000000000000000000000000000000000000000000000000000000000000000000000000000000000000000000000000000000000000000000000000000000000000000000000000000000000000000000000000000000000000000",
      "type": "0x2",
      "transactionHash": "0x27470d2f56c45def5252c7b1b4fda6ca1f49222cea56d2e2f71c0b45aaf3fc05",
      "transactionIndex": "0xa",
      "blockHash": "0x20d0eb0519451f8d6c9fe6b695b98eca5123eda0578e652de25e1a76c8a4abfd",
      "blockNumber": "0xbaba559",
      "gasUsed": "0xb6a4",
      "effectiveGasPrice": "0x66720b300",
      "from": "0x0ece75f3c36f7df2136dac7633165dbff53de3cd",
      "to": "0xc160a1bcf0c79a6fc5b0f015bfaaa9a6cda35687",
      "contractAddress": null
    },
    {
      "status": "0x1",
      "cumulativeGasUsed": "0x8d9c66",
      "logs": [
        {
          "address": "0x1a44076050125825900e736c501f859c50fe728c",
          "topics": [
            "0x4cff966ebee29a156dcb34cf72c1d06231fb1777f6bdf6e8089819232f002b1c"
          ],
          "data": "0x0000000000000000000000005e6671ef689b2b2d4391a766b0486e505413654600000000000000000000000000000000000000000000000000000000000075e80000000000000000000000009714ccf1dedef14bab5013625db92746c1358cb4",
          "blockHash": "0x20d0eb0519451f8d6c9fe6b695b98eca5123eda0578e652de25e1a76c8a4abfd",
          "blockNumber": "0xbaba559",
          "transactionHash": "0x7863c812c79332bea8a5899538cff8c471edbb9574463af94977638f65d29aca",
          "transactionIndex": "0xb",
          "logIndex": "0x7",
          "removed": false
        }
      ],
      "logsBloom": "0x00000000000000000000000000000000000200000000000000000000001000000000000000000000000000000000000000000000000000000000000001000000000000000000000000000000000000000000000000000000000000000000000000000000000000000000000000000000000000000010000000000000000000000000000000000000000000000000000000000000000000000000000000000000000000000000000000000000000000000000000000000000000000000000000000000000000000000000000000000000000000000000000000000000000000000040000000000000000000000000000000000000010000000000000000000000",
      "type": "0x2",
      "transactionHash": "0x7863c812c79332bea8a5899538cff8c471edbb9574463af94977638f65d29aca",
      "transactionIndex": "0xb",
      "blockHash": "0x20d0eb0519451f8d6c9fe6b695b98eca5123eda0578e652de25e1a76c8a4abfd",
      "blockNumber": "0xbaba559",
      "gasUsed": "0xe18e",
      "effectiveGasPrice": "0x66720b300",
      "from": "0x0ece75f3c36f7df2136dac7633165dbff53de3cd",
      "to": "0x1a44076050125825900e736c501f859c50fe728c",
      "contractAddress": null
    },
    {
      "status": "0x1",
      "cumulativeGasUsed": "0x8e7df4",
      "logs": [
        {
          "address": "0x1a44076050125825900e736c501f859c50fe728c",
          "topics": [
            "0x4cff966ebee29a156dcb34cf72c1d06231fb1777f6bdf6e8089819232f002b1c"
          ],
          "data": "0x000000000000000000000000cdec0d768e43090a9eec47d87d8165e9fa78b20400000000000000000000000000000000000000000000000000000000000075e80000000000000000000000009714ccf1dedef14bab5013625db92746c1358cb4",
          "blockHash": "0x20d0eb0519451f8d6c9fe6b695b98eca5123eda0578e652de25e1a76c8a4abfd",
          "blockNumber": "0xbaba559",
          "transactionHash": "0xca94b4d05b28f4398590793f910940e9da16418e727e9fe928f146d77301c444",
          "transactionIndex": "0xc",
          "logIndex": "0x8",
          "removed": false
        }
      ],
      "logsBloom": "0x00000000000000000000000000000000000200000000000000000000001000000000000000000000000000000000000000000000000000000000000001000000000000000000000000000000000000000000000000000000000000000000000000000000000000000000000000000000000000000010000000000000000000000000000000000000000000000000000000000000000000000000000000000000000000000000000000000000000000000000000000000000000000000000000000000000000000000000000000000000000000000000000000000000000000000040000000000000000000000000000000000000010000000000000000000000",
      "type": "0x2",
      "transactionHash": "0xca94b4d05b28f4398590793f910940e9da16418e727e9fe928f146d77301c444",
      "transactionIndex": "0xc",
      "blockHash": "0x20d0eb0519451f8d6c9fe6b695b98eca5123eda0578e652de25e1a76c8a4abfd",
      "blockNumber": "0xbaba559",
      "gasUsed": "0xe18e",
      "effectiveGasPrice": "0x66720b300",
      "from": "0x0ece75f3c36f7df2136dac7633165dbff53de3cd",
      "to": "0x1a44076050125825900e736c501f859c50fe728c",
      "contractAddress": null
    },
    {
      "status": "0x1",
      "cumulativeGasUsed": "0x8f7995",
      "logs": [
        {
          "address": "0x1a44076050125825900e736c501f859c50fe728c",
          "topics": [
            "0xcd6f92f5ac6185a5acfa02c92090746cec64d777269cbcd0ed031e396657a1c2"
          ],
          "data": "0x0000000000000000000000005e6671ef689b2b2d4391a766b0486e505413654600000000000000000000000000000000000000000000000000000000000075c6000000000000000000000000937aba873827bf883ced83ca557697427eaa46ee",
          "blockHash": "0x20d0eb0519451f8d6c9fe6b695b98eca5123eda0578e652de25e1a76c8a4abfd",
          "blockNumber": "0xbaba559",
          "transactionHash": "0x0869de9f0ae2af8d21fb72ec95e148cf78f4628d96e80e19980b0fffaf4f639e",
          "transactionIndex": "0xd",
          "logIndex": "0x9",
          "removed": false
        },
        {
          "address": "0x1a44076050125825900e736c501f859c50fe728c",
          "topics": [
            "0x4e0a5bbfa0c11a64effb1ada324b5437a17272e1aed9320398715ef71bb20928"
          ],
          "data": "0x0000000000000000000000005e6671ef689b2b2d4391a766b0486e505413654600000000000000000000000000000000000000000000000000000000000075c600000000000000000000000000000000000000000000000000000000000000000000000000000000000000000000000000000000000000000000000000000000",
          "blockHash": "0x20d0eb0519451f8d6c9fe6b695b98eca5123eda0578e652de25e1a76c8a4abfd",
          "blockNumber": "0xbaba559",
          "transactionHash": "0x0869de9f0ae2af8d21fb72ec95e148cf78f4628d96e80e19980b0fffaf4f639e",
          "transactionIndex": "0xd",
          "logIndex": "0xa",
          "removed": false
        }
      ],
      "logsBloom": "0x00000000000000000000020800000000000000000000000000000000001000020400000000000000000000000000000000000000000000000000000000000000000000000000000000000000000000000000000000800000000000000000000000000000000000000000000000000000000000000010000000000000000000100000000000000000000000000000000000000000000000000000000000000000000000000000000000000000000000000000000000000000000000000000000000000000000000000000000000000000000000000000000000000000000000000000000000000000000000000000000000000000010000000000000000000000",
      "type": "0x2",
      "transactionHash": "0x0869de9f0ae2af8d21fb72ec95e148cf78f4628d96e80e19980b0fffaf4f639e",
      "transactionIndex": "0xd",
      "blockHash": "0x20d0eb0519451f8d6c9fe6b695b98eca5123eda0578e652de25e1a76c8a4abfd",
      "blockNumber": "0xbaba559",
      "gasUsed": "0xfba1",
      "effectiveGasPrice": "0x66720b300",
      "from": "0x0ece75f3c36f7df2136dac7633165dbff53de3cd",
      "to": "0x1a44076050125825900e736c501f859c50fe728c",
      "contractAddress": null
    },
    {
      "status": "0x1",
      "cumulativeGasUsed": "0x907536",
      "logs": [
        {
          "address": "0x1a44076050125825900e736c501f859c50fe728c",
          "topics": [
            "0xcd6f92f5ac6185a5acfa02c92090746cec64d777269cbcd0ed031e396657a1c2"
          ],
          "data": "0x000000000000000000000000cdec0d768e43090a9eec47d87d8165e9fa78b20400000000000000000000000000000000000000000000000000000000000075c6000000000000000000000000937aba873827bf883ced83ca557697427eaa46ee",
          "blockHash": "0x20d0eb0519451f8d6c9fe6b695b98eca5123eda0578e652de25e1a76c8a4abfd",
          "blockNumber": "0xbaba559",
          "transactionHash": "0xcf86e3a11c9c186efdd7611723a5bfc3528d6edcd6af68ac379a9168d44d6d28",
          "transactionIndex": "0xe",
          "logIndex": "0xb",
          "removed": false
        },
        {
          "address": "0x1a44076050125825900e736c501f859c50fe728c",
          "topics": [
            "0x4e0a5bbfa0c11a64effb1ada324b5437a17272e1aed9320398715ef71bb20928"
          ],
          "data": "0x000000000000000000000000cdec0d768e43090a9eec47d87d8165e9fa78b20400000000000000000000000000000000000000000000000000000000000075c600000000000000000000000000000000000000000000000000000000000000000000000000000000000000000000000000000000000000000000000000000000",
          "blockHash": "0x20d0eb0519451f8d6c9fe6b695b98eca5123eda0578e652de25e1a76c8a4abfd",
          "blockNumber": "0xbaba559",
          "transactionHash": "0xcf86e3a11c9c186efdd7611723a5bfc3528d6edcd6af68ac379a9168d44d6d28",
          "transactionIndex": "0xe",
          "logIndex": "0xc",
          "removed": false
        }
      ],
      "logsBloom": "0x00000000000000000000020800000000000000000000000000000000001000020400000000000000000000000000000000000000000000000000000000000000000000000000000000000000000000000000000000800000000000000000000000000000000000000000000000000000000000000010000000000000000000100000000000000000000000000000000000000000000000000000000000000000000000000000000000000000000000000000000000000000000000000000000000000000000000000000000000000000000000000000000000000000000000000000000000000000000000000000000000000000010000000000000000000000",
      "type": "0x2",
      "transactionHash": "0xcf86e3a11c9c186efdd7611723a5bfc3528d6edcd6af68ac379a9168d44d6d28",
      "transactionIndex": "0xe",
      "blockHash": "0x20d0eb0519451f8d6c9fe6b695b98eca5123eda0578e652de25e1a76c8a4abfd",
      "blockNumber": "0xbaba559",
      "gasUsed": "0xfba1",
      "effectiveGasPrice": "0x66720b300",
      "from": "0x0ece75f3c36f7df2136dac7633165dbff53de3cd",
      "to": "0x1a44076050125825900e736c501f859c50fe728c",
      "contractAddress": null
    },
    {
      "status": "0x1",
      "cumulativeGasUsed": "0x951302",
      "logs": [
        {
          "address": "0x9714ccf1dedef14bab5013625db92746c1358cb4",
          "topics": [
            "0x779cb2dd9d2bb1be1737d05435d744facbfb84a2a4912e21379d39beddcdc805"
          ],
          "data": "0x0000000000000000000000005e6671ef689b2b2d4391a766b0486e505413654600000000000000000000000000000000000000000000000000000000000075e80000000000000000000000000000000000000000000000000000000000002710000000000000000000000000e149187a987f129fd3d397ed04a60b0b89d1669f",
          "blockHash": "0x20d0eb0519451f8d6c9fe6b695b98eca5123eda0578e652de25e1a76c8a4abfd",
          "blockNumber": "0xbaba559",
          "transactionHash": "0x108fef6f496a3807d9190a92a0912e4635110fd7575cfcdec7112d0fb264cfcd",
          "transactionIndex": "0xf",
          "logIndex": "0xd",
          "removed": false
        },
        {
          "address": "0x9714ccf1dedef14bab5013625db92746c1358cb4",
          "topics": [
            "0x82118522aa536ac0e96cc5c689407ae42b89d592aa133890a01f1509842f5081"
          ],
          "data": "0x0000000000000000000000005e6671ef689b2b2d4391a766b0486e505413654600000000000000000000000000000000000000000000000000000000000075e80000000000000000000000000000000000000000000000000000000000000060000000000000000000000000000000000000000000000000000000000000000f000000000000000000000000000000000000000000000000000000000000000200000000000000000000000000000000000000000000000000000000000000ff000000000000000000000000000000000000000000000000000000000000000000000000000000000000000000000000000000000000000000000000000000c0000000000000000000000000000000000000000000000000000000000000012000000000000000000000000000000000000000000000000000000000000000020000000000000000000000001154d04d07aee26ff2c200bd373eb76a7e5694d6000000000000000000000000acde1f22eeab249d3ca6ba8805c8fee9f52a16e70000000000000000000000000000000000000000000000000000000000000000",
          "blockHash": "0x20d0eb0519451f8d6c9fe6b695b98eca5123eda0578e652de25e1a76c8a4abfd",
          "blockNumber": "0xbaba559",
          "transactionHash": "0x108fef6f496a3807d9190a92a0912e4635110fd7575cfcdec7112d0fb264cfcd",
          "transactionIndex": "0xf",
          "logIndex": "0xe",
          "removed": false
        },
        {
          "address": "0x9714ccf1dedef14bab5013625db92746c1358cb4",
          "topics": [
            "0x779cb2dd9d2bb1be1737d05435d744facbfb84a2a4912e21379d39beddcdc805"
          ],
          "data": "0x0000000000000000000000005e6671ef689b2b2d4391a766b0486e505413654600000000000000000000000000000000000000000000000000000000000075c60000000000000000000000000000000000000000000000000000000000002710000000000000000000000000e149187a987f129fd3d397ed04a60b0b89d1669f",
          "blockHash": "0x20d0eb0519451f8d6c9fe6b695b98eca5123eda0578e652de25e1a76c8a4abfd",
          "blockNumber": "0xbaba559",
          "transactionHash": "0x108fef6f496a3807d9190a92a0912e4635110fd7575cfcdec7112d0fb264cfcd",
          "transactionIndex": "0xf",
          "logIndex": "0xf",
          "removed": false
        },
        {
          "address": "0x9714ccf1dedef14bab5013625db92746c1358cb4",
          "topics": [
            "0x82118522aa536ac0e96cc5c689407ae42b89d592aa133890a01f1509842f5081"
          ],
          "data": "0x0000000000000000000000005e6671ef689b2b2d4391a766b0486e505413654600000000000000000000000000000000000000000000000000000000000075c60000000000000000000000000000000000000000000000000000000000000060000000000000000000000000000000000000000000000000000000000000000f000000000000000000000000000000000000000000000000000000000000000200000000000000000000000000000000000000000000000000000000000000ff000000000000000000000000000000000000000000000000000000000000000000000000000000000000000000000000000000000000000000000000000000c0000000000000000000000000000000000000000000000000000000000000012000000000000000000000000000000000000000000000000000000000000000020000000000000000000000001154d04d07aee26ff2c200bd373eb76a7e5694d6000000000000000000000000acde1f22eeab249d3ca6ba8805c8fee9f52a16e70000000000000000000000000000000000000000000000000000000000000000",
          "blockHash": "0x20d0eb0519451f8d6c9fe6b695b98eca5123eda0578e652de25e1a76c8a4abfd",
          "blockNumber": "0xbaba559",
          "transactionHash": "0x108fef6f496a3807d9190a92a0912e4635110fd7575cfcdec7112d0fb264cfcd",
          "transactionIndex": "0xf",
          "logIndex": "0x10",
          "removed": false
        }
      ],
      "logsBloom": "0x00000000000000000000000000000000000000000000000000000000000000000000000000000000000000000000000000000000000000000000000000000000000000000000000000000040000000020000000000000000002000000000000000000000000000000000000000000000000000000000000000000000000000040000000000000000000000000000000000000000000000000000000000000000000000000000000000000002000000000000000000000000000000000000000200000004000000000000000000000000000000000000000000000000000000000008000000000000000000000000000000000000000000000000000000000010",
      "type": "0x2",
      "transactionHash": "0x108fef6f496a3807d9190a92a0912e4635110fd7575cfcdec7112d0fb264cfcd",
      "transactionIndex": "0xf",
      "blockHash": "0x20d0eb0519451f8d6c9fe6b695b98eca5123eda0578e652de25e1a76c8a4abfd",
      "blockNumber": "0xbaba559",
      "gasUsed": "0x49dcc",
      "effectiveGasPrice": "0x66720b300",
      "from": "0x0ece75f3c36f7df2136dac7633165dbff53de3cd",
      "to": "0x1a44076050125825900e736c501f859c50fe728c",
      "contractAddress": null
    },
    {
      "status": "0x1",
      "cumulativeGasUsed": "0x99b0ce",
      "logs": [
        {
          "address": "0x9714ccf1dedef14bab5013625db92746c1358cb4",
          "topics": [
            "0x779cb2dd9d2bb1be1737d05435d744facbfb84a2a4912e21379d39beddcdc805"
          ],
          "data": "0x000000000000000000000000cdec0d768e43090a9eec47d87d8165e9fa78b20400000000000000000000000000000000000000000000000000000000000075e80000000000000000000000000000000000000000000000000000000000002710000000000000000000000000e149187a987f129fd3d397ed04a60b0b89d1669f",
          "blockHash": "0x20d0eb0519451f8d6c9fe6b695b98eca5123eda0578e652de25e1a76c8a4abfd",
          "blockNumber": "0xbaba559",
          "transactionHash": "0x6bd93bc5cdee9367a27ebc2f4a55b7b1e8fe85f17d491e61cb15899ad1e27026",
          "transactionIndex": "0x10",
          "logIndex": "0x11",
          "removed": false
        },
        {
          "address": "0x9714ccf1dedef14bab5013625db92746c1358cb4",
          "topics": [
            "0x82118522aa536ac0e96cc5c689407ae42b89d592aa133890a01f1509842f5081"
          ],
          "data": "0x000000000000000000000000cdec0d768e43090a9eec47d87d8165e9fa78b20400000000000000000000000000000000000000000000000000000000000075e80000000000000000000000000000000000000000000000000000000000000060000000000000000000000000000000000000000000000000000000000000000f000000000000000000000000000000000000000000000000000000000000000200000000000000000000000000000000000000000000000000000000000000ff000000000000000000000000000000000000000000000000000000000000000000000000000000000000000000000000000000000000000000000000000000c0000000000000000000000000000000000000000000000000000000000000012000000000000000000000000000000000000000000000000000000000000000020000000000000000000000001154d04d07aee26ff2c200bd373eb76a7e5694d6000000000000000000000000acde1f22eeab249d3ca6ba8805c8fee9f52a16e70000000000000000000000000000000000000000000000000000000000000000",
          "blockHash": "0x20d0eb0519451f8d6c9fe6b695b98eca5123eda0578e652de25e1a76c8a4abfd",
          "blockNumber": "0xbaba559",
          "transactionHash": "0x6bd93bc5cdee9367a27ebc2f4a55b7b1e8fe85f17d491e61cb15899ad1e27026",
          "transactionIndex": "0x10",
          "logIndex": "0x12",
          "removed": false
        },
        {
          "address": "0x9714ccf1dedef14bab5013625db92746c1358cb4",
          "topics": [
            "0x779cb2dd9d2bb1be1737d05435d744facbfb84a2a4912e21379d39beddcdc805"
          ],
          "data": "0x000000000000000000000000cdec0d768e43090a9eec47d87d8165e9fa78b20400000000000000000000000000000000000000000000000000000000000075c60000000000000000000000000000000000000000000000000000000000002710000000000000000000000000e149187a987f129fd3d397ed04a60b0b89d1669f",
          "blockHash": "0x20d0eb0519451f8d6c9fe6b695b98eca5123eda0578e652de25e1a76c8a4abfd",
          "blockNumber": "0xbaba559",
          "transactionHash": "0x6bd93bc5cdee9367a27ebc2f4a55b7b1e8fe85f17d491e61cb15899ad1e27026",
          "transactionIndex": "0x10",
          "logIndex": "0x13",
          "removed": false
        },
        {
          "address": "0x9714ccf1dedef14bab5013625db92746c1358cb4",
          "topics": [
            "0x82118522aa536ac0e96cc5c689407ae42b89d592aa133890a01f1509842f5081"
          ],
          "data": "0x000000000000000000000000cdec0d768e43090a9eec47d87d8165e9fa78b20400000000000000000000000000000000000000000000000000000000000075c60000000000000000000000000000000000000000000000000000000000000060000000000000000000000000000000000000000000000000000000000000000f000000000000000000000000000000000000000000000000000000000000000200000000000000000000000000000000000000000000000000000000000000ff000000000000000000000000000000000000000000000000000000000000000000000000000000000000000000000000000000000000000000000000000000c0000000000000000000000000000000000000000000000000000000000000012000000000000000000000000000000000000000000000000000000000000000020000000000000000000000001154d04d07aee26ff2c200bd373eb76a7e5694d6000000000000000000000000acde1f22eeab249d3ca6ba8805c8fee9f52a16e70000000000000000000000000000000000000000000000000000000000000000",
          "blockHash": "0x20d0eb0519451f8d6c9fe6b695b98eca5123eda0578e652de25e1a76c8a4abfd",
          "blockNumber": "0xbaba559",
          "transactionHash": "0x6bd93bc5cdee9367a27ebc2f4a55b7b1e8fe85f17d491e61cb15899ad1e27026",
          "transactionIndex": "0x10",
          "logIndex": "0x14",
          "removed": false
        }
      ],
      "logsBloom": "0x00000000000000000000000000000000000000000000000000000000000000000000000000000000000000000000000000000000000000000000000000000000000000000000000000000040000000020000000000000000002000000000000000000000000000000000000000000000000000000000000000000000000000040000000000000000000000000000000000000000000000000000000000000000000000000000000000000002000000000000000000000000000000000000000200000004000000000000000000000000000000000000000000000000000000000008000000000000000000000000000000000000000000000000000000000010",
      "type": "0x2",
      "transactionHash": "0x6bd93bc5cdee9367a27ebc2f4a55b7b1e8fe85f17d491e61cb15899ad1e27026",
      "transactionIndex": "0x10",
      "blockHash": "0x20d0eb0519451f8d6c9fe6b695b98eca5123eda0578e652de25e1a76c8a4abfd",
      "blockNumber": "0xbaba559",
      "gasUsed": "0x49dcc",
      "effectiveGasPrice": "0x66720b300",
      "from": "0x0ece75f3c36f7df2136dac7633165dbff53de3cd",
      "to": "0x1a44076050125825900e736c501f859c50fe728c",
      "contractAddress": null
    },
    {
      "status": "0x1",
      "cumulativeGasUsed": "0x9d7480",
      "logs": [
        {
          "address": "0x937aba873827bf883ced83ca557697427eaa46ee",
          "topics": [
            "0x82118522aa536ac0e96cc5c689407ae42b89d592aa133890a01f1509842f5081"
          ],
          "data": "0x0000000000000000000000005e6671ef689b2b2d4391a766b0486e505413654600000000000000000000000000000000000000000000000000000000000075e80000000000000000000000000000000000000000000000000000000000000060000000000000000000000000000000000000000000000000000000000000000f000000000000000000000000000000000000000000000000000000000000000200000000000000000000000000000000000000000000000000000000000000ff000000000000000000000000000000000000000000000000000000000000000000000000000000000000000000000000000000000000000000000000000000c0000000000000000000000000000000000000000000000000000000000000012000000000000000000000000000000000000000000000000000000000000000020000000000000000000000001154d04d07aee26ff2c200bd373eb76a7e5694d6000000000000000000000000acde1f22eeab249d3ca6ba8805c8fee9f52a16e70000000000000000000000000000000000000000000000000000000000000000",
          "blockHash": "0x20d0eb0519451f8d6c9fe6b695b98eca5123eda0578e652de25e1a76c8a4abfd",
          "blockNumber": "0xbaba559",
          "transactionHash": "0xddfeb1e51faf788bd49ba0240265e75c3d896a34dad7314705ce261e30c3d6c5",
          "transactionIndex": "0x11",
          "logIndex": "0x15",
          "removed": false
        },
        {
          "address": "0x937aba873827bf883ced83ca557697427eaa46ee",
          "topics": [
            "0x82118522aa536ac0e96cc5c689407ae42b89d592aa133890a01f1509842f5081"
          ],
          "data": "0x0000000000000000000000005e6671ef689b2b2d4391a766b0486e505413654600000000000000000000000000000000000000000000000000000000000075c60000000000000000000000000000000000000000000000000000000000000060000000000000000000000000000000000000000000000000000000000000000f000000000000000000000000000000000000000000000000000000000000000200000000000000000000000000000000000000000000000000000000000000ff000000000000000000000000000000000000000000000000000000000000000000000000000000000000000000000000000000000000000000000000000000c0000000000000000000000000000000000000000000000000000000000000012000000000000000000000000000000000000000000000000000000000000000020000000000000000000000001154d04d07aee26ff2c200bd373eb76a7e5694d6000000000000000000000000acde1f22eeab249d3ca6ba8805c8fee9f52a16e70000000000000000000000000000000000000000000000000000000000000000",
          "blockHash": "0x20d0eb0519451f8d6c9fe6b695b98eca5123eda0578e652de25e1a76c8a4abfd",
          "blockNumber": "0xbaba559",
          "transactionHash": "0xddfeb1e51faf788bd49ba0240265e75c3d896a34dad7314705ce261e30c3d6c5",
          "transactionIndex": "0x11",
          "logIndex": "0x16",
          "removed": false
        }
      ],
      "logsBloom": "0x00000000000000000000000000000000000000000000000000000000000000000100000000000000000000000000000000000000000000800000000000000000000000000000000000000000000000000000000000000000002000000000000000000000000000000000000000000000000000000000000000000000000000000000000000000000000000000000000000000000000000000000000000000000000000000000000000000002000000000000000000000000000000000000000008000000000000000000000000000000000000000000000000000000000000000000000000000000000000000000000000000000000000000000000000000010",
      "type": "0x2",
      "transactionHash": "0xddfeb1e51faf788bd49ba0240265e75c3d896a34dad7314705ce261e30c3d6c5",
      "transactionIndex": "0x11",
      "blockHash": "0x20d0eb0519451f8d6c9fe6b695b98eca5123eda0578e652de25e1a76c8a4abfd",
      "blockNumber": "0xbaba559",
      "gasUsed": "0x3c3b2",
      "effectiveGasPrice": "0x66720b300",
      "from": "0x0ece75f3c36f7df2136dac7633165dbff53de3cd",
      "to": "0x1a44076050125825900e736c501f859c50fe728c",
      "contractAddress": null
    },
    {
      "status": "0x1",
      "cumulativeGasUsed": "0xa13832",
      "logs": [
        {
          "address": "0x937aba873827bf883ced83ca557697427eaa46ee",
          "topics": [
            "0x82118522aa536ac0e96cc5c689407ae42b89d592aa133890a01f1509842f5081"
          ],
          "data": "0x000000000000000000000000cdec0d768e43090a9eec47d87d8165e9fa78b20400000000000000000000000000000000000000000000000000000000000075e80000000000000000000000000000000000000000000000000000000000000060000000000000000000000000000000000000000000000000000000000000000f000000000000000000000000000000000000000000000000000000000000000200000000000000000000000000000000000000000000000000000000000000ff000000000000000000000000000000000000000000000000000000000000000000000000000000000000000000000000000000000000000000000000000000c0000000000000000000000000000000000000000000000000000000000000012000000000000000000000000000000000000000000000000000000000000000020000000000000000000000001154d04d07aee26ff2c200bd373eb76a7e5694d6000000000000000000000000acde1f22eeab249d3ca6ba8805c8fee9f52a16e70000000000000000000000000000000000000000000000000000000000000000",
          "blockHash": "0x20d0eb0519451f8d6c9fe6b695b98eca5123eda0578e652de25e1a76c8a4abfd",
          "blockNumber": "0xbaba559",
          "transactionHash": "0xe7586ea6d40f9b89c67c22159f486e77f7ecd0b98b762d9dff1d6ab181c3be0a",
          "transactionIndex": "0x12",
          "logIndex": "0x17",
          "removed": false
        },
        {
          "address": "0x937aba873827bf883ced83ca557697427eaa46ee",
          "topics": [
            "0x82118522aa536ac0e96cc5c689407ae42b89d592aa133890a01f1509842f5081"
          ],
          "data": "0x000000000000000000000000cdec0d768e43090a9eec47d87d8165e9fa78b20400000000000000000000000000000000000000000000000000000000000075c60000000000000000000000000000000000000000000000000000000000000060000000000000000000000000000000000000000000000000000000000000000f000000000000000000000000000000000000000000000000000000000000000200000000000000000000000000000000000000000000000000000000000000ff000000000000000000000000000000000000000000000000000000000000000000000000000000000000000000000000000000000000000000000000000000c0000000000000000000000000000000000000000000000000000000000000012000000000000000000000000000000000000000000000000000000000000000020000000000000000000000001154d04d07aee26ff2c200bd373eb76a7e5694d6000000000000000000000000acde1f22eeab249d3ca6ba8805c8fee9f52a16e70000000000000000000000000000000000000000000000000000000000000000",
          "blockHash": "0x20d0eb0519451f8d6c9fe6b695b98eca5123eda0578e652de25e1a76c8a4abfd",
          "blockNumber": "0xbaba559",
          "transactionHash": "0xe7586ea6d40f9b89c67c22159f486e77f7ecd0b98b762d9dff1d6ab181c3be0a",
          "transactionIndex": "0x12",
          "logIndex": "0x18",
          "removed": false
        }
      ],
      "logsBloom": "0x00000000000000000000000000000000000000000000000000000000000000000100000000000000000000000000000000000000000000800000000000000000000000000000000000000000000000000000000000000000002000000000000000000000000000000000000000000000000000000000000000000000000000000000000000000000000000000000000000000000000000000000000000000000000000000000000000000002000000000000000000000000000000000000000008000000000000000000000000000000000000000000000000000000000000000000000000000000000000000000000000000000000000000000000000000010",
      "type": "0x2",
      "transactionHash": "0xe7586ea6d40f9b89c67c22159f486e77f7ecd0b98b762d9dff1d6ab181c3be0a",
      "transactionIndex": "0x12",
      "blockHash": "0x20d0eb0519451f8d6c9fe6b695b98eca5123eda0578e652de25e1a76c8a4abfd",
      "blockNumber": "0xbaba559",
      "gasUsed": "0x3c3b2",
      "effectiveGasPrice": "0x66720b300",
      "from": "0x0ece75f3c36f7df2136dac7633165dbff53de3cd",
      "to": "0x1a44076050125825900e736c501f859c50fe728c",
      "contractAddress": null
    },
    {
      "status": "0x1",
      "cumulativeGasUsed": "0xa1f4e7",
      "logs": [
        {
          "address": "0x5e6671ef689b2b2d4391a766b0486e5054136546",
          "topics": [
            "0x238399d427b947898edb290f5ff0f9109849b1c3ba196a42e35f00c50a54b98b"
          ],
          "data": "0x00000000000000000000000000000000000000000000000000000000000075e80000000000000000000000005e6aad48fb0a23e9540a5eaffb87846e8ef04c42",
          "blockHash": "0x20d0eb0519451f8d6c9fe6b695b98eca5123eda0578e652de25e1a76c8a4abfd",
          "blockNumber": "0xbaba559",
          "transactionHash": "0xcbf18fd9fda30d883c851b7be1193914a739a7ddc8ec7b35079473ebc1a246ac",
          "transactionIndex": "0x13",
          "logIndex": "0x19",
          "removed": false
        }
      ],
      "logsBloom": "0x00080000000000000000000000000000000000000000000000000000000000000000000000000000000000000000000000000000000000000800000000000000000000000000000000000000000000000000000000000000000000000000000000000000000000000000000000000000000000000000000000000000000000000000000000000000000000000000001000000000000000000000000000000000000000000000000000020000000000000000000000000000000002000000000000000000000000000000000000000000000000000000000000040000000000000000000000000000000000000000000000000000000000000000000000000000",
      "type": "0x2",
      "transactionHash": "0xcbf18fd9fda30d883c851b7be1193914a739a7ddc8ec7b35079473ebc1a246ac",
      "transactionIndex": "0x13",
      "blockHash": "0x20d0eb0519451f8d6c9fe6b695b98eca5123eda0578e652de25e1a76c8a4abfd",
      "blockNumber": "0xbaba559",
      "gasUsed": "0xbcb5",
      "effectiveGasPrice": "0x66720b300",
      "from": "0x0ece75f3c36f7df2136dac7633165dbff53de3cd",
      "to": "0x5e6671ef689b2b2d4391a766b0486e5054136546",
      "contractAddress": null
    },
    {
      "status": "0x1",
      "cumulativeGasUsed": "0xa2b19c",
      "logs": [
        {
          "address": "0xcdec0d768e43090a9eec47d87d8165e9fa78b204",
          "topics": [
            "0x238399d427b947898edb290f5ff0f9109849b1c3ba196a42e35f00c50a54b98b"
          ],
          "data": "0x00000000000000000000000000000000000000000000000000000000000075e8000000000000000000000000b9b3a1baa8cf4c5cd6b4d132ed7b0cbe05646f6f",
          "blockHash": "0x20d0eb0519451f8d6c9fe6b695b98eca5123eda0578e652de25e1a76c8a4abfd",
          "blockNumber": "0xbaba559",
          "transactionHash": "0x5451a9b163b1e86f93fd7f8a7792565b75c37aa944c1d1e8f3750e07dc1c7ae5",
          "transactionIndex": "0x14",
          "logIndex": "0x1a",
          "removed": false
        }
      ],
      "logsBloom": "0x00000000000000000000000000000000000000000000000000000000000000000000000000000000000000000000000000000000000000000800000000000000000000000000000000000000000000000000000000000000000000000000000000000000000000000000000000000000000000000000000000000000000000000000000000000100000000000000000000000000000000000000000000000004000000000000000000000000000000000000000000000000000002000000000000000000000000000000000000000000000000000000000000040000000000000000000080000000000000000000000000000000000000000000000000000000",
      "type": "0x2",
      "transactionHash": "0x5451a9b163b1e86f93fd7f8a7792565b75c37aa944c1d1e8f3750e07dc1c7ae5",
      "transactionIndex": "0x14",
      "blockHash": "0x20d0eb0519451f8d6c9fe6b695b98eca5123eda0578e652de25e1a76c8a4abfd",
      "blockNumber": "0xbaba559",
      "gasUsed": "0xbcb5",
      "effectiveGasPrice": "0x66720b300",
      "from": "0x0ece75f3c36f7df2136dac7633165dbff53de3cd",
      "to": "0xcdec0d768e43090a9eec47d87d8165e9fa78b204",
      "contractAddress": null
    },
    {
      "status": "0x1",
      "cumulativeGasUsed": "0xa3f410",
      "logs": [
        {
          "address": "0x5e6671ef689b2b2d4391a766b0486e5054136546",
          "topics": [
            "0xbe4864a8e820971c0247f5992e2da559595f7bf076a21cb5928d443d2a13b674"
          ],
          "data": "0x00000000000000000000000000000000000000000000000000000000000000200000000000000000000000000000000000000000000000000000000000000002000000000000000000000000000000000000000000000000000000000000004000000000000000000000000000000000000000000000000000000000000000e000000000000000000000000000000000000000000000000000000000000075e8000000000000000000000000000000000000000000000000000000000000000100000000000000000000000000000000000000000000000000000000000000600000000000000000000000000000000000000000000000000000000000000016000301001101000000000000000000000000000138800000000000000000000000000000000000000000000000000000000000000000000000000000000075c6000000000000000000000000000000000000000000000000000000000000000100000000000000000000000000000000000000000000000000000000000000600000000000000000000000000000000000000000000000000000000000000016000301001101000000000000000000000000000186a000000000000000000000",
          "blockHash": "0x20d0eb0519451f8d6c9fe6b695b98eca5123eda0578e652de25e1a76c8a4abfd",
          "blockNumber": "0xbaba559",
          "transactionHash": "0xa0150eab5357429e6a8b49215c00800f9a49bbd03a7c9a45463c17b235807b87",
          "transactionIndex": "0x15",
          "logIndex": "0x1b",
          "removed": false
        }
      ],
      "logsBloom": "0x00080000000000000000000000000000000000000000000000000000000000000000000000000000000000000000000000000000000000000000400000000000000000000000000000000000000000000000000000000000000000000000000000000000000000000000000000000000000000000000000000000000000000000000000000000000000000000000001000000000000000000000000000080000000000000000000000020000000000000000000000000000000000000000000000000000000000000000000002000000000000000000000000000000000000000000000000000000000000000000000000000000000000000000000000000000",
      "type": "0x2",
      "transactionHash": "0xa0150eab5357429e6a8b49215c00800f9a49bbd03a7c9a45463c17b235807b87",
      "transactionIndex": "0x15",
      "blockHash": "0x20d0eb0519451f8d6c9fe6b695b98eca5123eda0578e652de25e1a76c8a4abfd",
      "blockNumber": "0xbaba559",
      "gasUsed": "0x14274",
      "effectiveGasPrice": "0x66720b300",
      "from": "0x0ece75f3c36f7df2136dac7633165dbff53de3cd",
      "to": "0x5e6671ef689b2b2d4391a766b0486e5054136546",
      "contractAddress": null
    },
    {
      "status": "0x1",
      "cumulativeGasUsed": "0xa53684",
      "logs": [
        {
          "address": "0xcdec0d768e43090a9eec47d87d8165e9fa78b204",
          "topics": [
            "0xbe4864a8e820971c0247f5992e2da559595f7bf076a21cb5928d443d2a13b674"
          ],
          "data": "0x00000000000000000000000000000000000000000000000000000000000000200000000000000000000000000000000000000000000000000000000000000002000000000000000000000000000000000000000000000000000000000000004000000000000000000000000000000000000000000000000000000000000000e000000000000000000000000000000000000000000000000000000000000075e8000000000000000000000000000000000000000000000000000000000000000100000000000000000000000000000000000000000000000000000000000000600000000000000000000000000000000000000000000000000000000000000016000301001101000000000000000000000000000138800000000000000000000000000000000000000000000000000000000000000000000000000000000075c6000000000000000000000000000000000000000000000000000000000000000100000000000000000000000000000000000000000000000000000000000000600000000000000000000000000000000000000000000000000000000000000016000301001101000000000000000000000000000186a000000000000000000000",
          "blockHash": "0x20d0eb0519451f8d6c9fe6b695b98eca5123eda0578e652de25e1a76c8a4abfd",
          "blockNumber": "0xbaba559",
          "transactionHash": "0xe103a5ddb527508af1844b39c43f969924d48e581e2e2e78cb3ae6c791d05d31",
          "transactionIndex": "0x16",
          "logIndex": "0x1c",
          "removed": false
        }
      ],
      "logsBloom": "0x00000000000000000000000000000000000000000000000000000000000000000000000000000000000000000000000000000000000000000000400000000000000000000000000000000000000000000000000000000000000000000000000000000000000000000000000000000000000000000000000000000000000000000000000000000100000000000000000000000000000000000000000000080004000000000000000000000000000000000000000000000000000000000000000000000000000000000000000002000000000000000000000000000000000000000000000080000000000000000000000000000000000000000000000000000000",
      "type": "0x2",
      "transactionHash": "0xe103a5ddb527508af1844b39c43f969924d48e581e2e2e78cb3ae6c791d05d31",
      "transactionIndex": "0x16",
      "blockHash": "0x20d0eb0519451f8d6c9fe6b695b98eca5123eda0578e652de25e1a76c8a4abfd",
      "blockNumber": "0xbaba559",
      "gasUsed": "0x14274",
      "effectiveGasPrice": "0x66720b300",
      "from": "0x0ece75f3c36f7df2136dac7633165dbff53de3cd",
      "to": "0xcdec0d768e43090a9eec47d87d8165e9fa78b204",
      "contractAddress": null
    },
    {
      "status": "0x1",
      "cumulativeGasUsed": "0xa6b48b",
      "logs": [
        {
          "address": "0xa971cd2714fbcc9a942b09bc391a724df9338206",
          "topics": [
            "0x443eca89ae0d91090321746b66b1e5a800bf4f33b317a7dbc01dc310b55c3291",
            "0x000000000000000000000000ceb5c8903060197e46ab5ea5087b9f99cbc8da49",
            "0x0000000000000000000000005e6671ef689b2b2d4391a766b0486e5054136546"
          ],
          "data": "0x",
          "blockHash": "0x20d0eb0519451f8d6c9fe6b695b98eca5123eda0578e652de25e1a76c8a4abfd",
          "blockNumber": "0xbaba559",
          "transactionHash": "0x5be154a7f485d39511effe0dbb53832bbb9d384aafd704dc3a534dc42de42f1e",
          "transactionIndex": "0x18",
          "logIndex": "0x1e",
          "removed": false
        }
      ],
      "logsBloom": "0x00000000000000000000020000000000000000000000000000020000000000000000000000000000000000000000040000000100000000000000000000000000000000000000000000000000001001000000000000000000000800000000000000000000000000000000000000000000000000000000000000000000000000000020000000000000000000000000000000004000000000000000000000000000000000000000000000020000000000000000100000000000000000000000000000000000000000000000000000000000000000000000000001000000000000000000000000000000000000000000000000000000000000000000000000000000",
      "type": "0x2",
      "transactionHash": "0x5be154a7f485d39511effe0dbb53832bbb9d384aafd704dc3a534dc42de42f1e",
      "transactionIndex": "0x18",
      "blockHash": "0x20d0eb0519451f8d6c9fe6b695b98eca5123eda0578e652de25e1a76c8a4abfd",
      "blockNumber": "0xbaba559",
      "gasUsed": "0xd1f9",
      "effectiveGasPrice": "0x66720b300",
      "from": "0x0ece75f3c36f7df2136dac7633165dbff53de3cd",
      "to": "0xa971cd2714fbcc9a942b09bc391a724df9338206",
      "contractAddress": null
    },
    {
      "status": "0x1",
      "cumulativeGasUsed": "0xa78684",
      "logs": [
        {
          "address": "0xa971cd2714fbcc9a942b09bc391a724df9338206",
          "topics": [
            "0x443eca89ae0d91090321746b66b1e5a800bf4f33b317a7dbc01dc310b55c3291",
            "0x000000000000000000000000684a2aaf3d98bc8ed2c07988e8da9023026ad511",
            "0x000000000000000000000000cdec0d768e43090a9eec47d87d8165e9fa78b204"
          ],
          "data": "0x",
          "blockHash": "0x20d0eb0519451f8d6c9fe6b695b98eca5123eda0578e652de25e1a76c8a4abfd",
          "blockNumber": "0xbaba559",
          "transactionHash": "0x7485a87d4f9de26fae7e82b4fe2240d09a8120c8945042a0846d3994c87fe553",
          "transactionIndex": "0x19",
          "logIndex": "0x1f",
          "removed": false
        }
      ],
      "logsBloom": "0x00000000000000000000000000000000000000000000000000000000000000000000000000000000000000000000040000000000000000000000000000000000000000000000000000000000000001080000000800000000000800000000000000000000000000000000000000000000000000000000000000000000000000000000000000000000000000000000000000004400000000000000000000000000000000000000000000020000000800000204100000000000000000000000000000000000000000000000000000000000000000000000000000000000000000000000000000000000000000000000000000000000000000000000000000000000",
      "type": "0x2",
      "transactionHash": "0x7485a87d4f9de26fae7e82b4fe2240d09a8120c8945042a0846d3994c87fe553",
      "transactionIndex": "0x19",
      "blockHash": "0x20d0eb0519451f8d6c9fe6b695b98eca5123eda0578e652de25e1a76c8a4abfd",
      "blockNumber": "0xbaba559",
      "gasUsed": "0xd1f9",
      "effectiveGasPrice": "0x66720b300",
      "from": "0x0ece75f3c36f7df2136dac7633165dbff53de3cd",
      "to": "0xa971cd2714fbcc9a942b09bc391a724df9338206",
      "contractAddress": null
    }
  ],
  "libraries": [],
  "pending": [],
  "returns": {},
  "timestamp": 1757862911615,
  "chain": 8217,
  "commit": "512915d"
}