{
  "transactions": [
    {
      "hash": "0xa05f645b554e00c3c2ba0d662c3f993c767201a8ec202104603311942e04fba2",
      "transactionType": "CALL",
      "contractName": null,
      "contractAddress": "0x5e6671ef689b2b2d4391a766b0486e5054136546",
      "function": "setPeer(uint32,bytes32)",
      "arguments": [
        "30184",
        "0x000000000000000000000000560bd1836c348c4a10eed7008e68ae58228dd117"
      ],
      "transaction": {
        "from": "0x0ece75f3c36f7df2136dac7633165dbff53de3cd",
        "to": "0x5e6671ef689b2b2d4391a766b0486e5054136546",
        "gas": "0xa851",
        "value": "0x0",
        "input": "0x3400288b00000000000000000000000000000000000000000000000000000000000075e8000000000000000000000000560bd1836c348c4a10eed7008e68ae58228dd117",
        "nonce": "0x7e",
        "chainId": "0x2019"
      },
      "additionalContracts": [],
      "isFixedGasLimit": false
    },
    {
      "hash": "0xa3ee7369a3bcfe579b54d6b2eaf26764c85bd436e4c068a50ac07f2c9fd10467",
      "transactionType": "CALL",
      "contractName": null,
      "contractAddress": "0xcdec0d768e43090a9eec47d87d8165e9fa78b204",
      "function": "setPeer(uint32,bytes32)",
      "arguments": [
        "30184",
        "0x0000000000000000000000009eaa6ec9e0b55948309eb320166312cb0807b6de"
      ],
      "transaction": {
        "from": "0x0ece75f3c36f7df2136dac7633165dbff53de3cd",
        "to": "0xcdec0d768e43090a9eec47d87d8165e9fa78b204",
        "gas": "0xb24b",
        "value": "0x0",
        "input": "0x3400288b00000000000000000000000000000000000000000000000000000000000075e80000000000000000000000009eaa6ec9e0b55948309eb320166312cb0807b6de",
        "nonce": "0x7f",
        "chainId": "0x2019"
      },
      "additionalContracts": [],
      "isFixedGasLimit": false
    }
  ],
  "receipts": [
    {
      "status": "0x1",
      "cumulativeGasUsed": "0x3753a",
      "logs": [
        {
          "address": "0x5e6671ef689b2b2d4391a766b0486e5054136546",
          "topics": [
            "0x238399d427b947898edb290f5ff0f9109849b1c3ba196a42e35f00c50a54b98b"
          ],
          "data": "0x00000000000000000000000000000000000000000000000000000000000075e8000000000000000000000000560bd1836c348c4a10eed7008e68ae58228dd117",
          "blockHash": "0xf0125354aba0130d6a2314a1c20b59fc7161e7750d95783e5e06b1183091de03",
          "blockNumber": "0xbad0bab",
          "transactionHash": "0xa05f645b554e00c3c2ba0d662c3f993c767201a8ec202104603311942e04fba2",
          "transactionIndex": "0x1",
          "logIndex": "0x3",
          "removed": false
        }
      ],
      "logsBloom": "0x00080000000000000000000000000000000000000000000000000000000000000000000000000000000000000000000000000000000000000800000000000000000000000000000000000000000000000000000000000000000000000000000000000000000000000000000000000000000000000000000000000000000000000000000000000000000000000000001000000000000000000000000000000000000000000000000000020000000000000000000000000000000002000000000000000000000000000000000000000000000000000000000000040000000000000000000000000000000000000000000000000000000000000000000000000000",
      "type": "0x2",
      "transactionHash": "0xa05f645b554e00c3c2ba0d662c3f993c767201a8ec202104603311942e04fba2",
      "transactionIndex": "0x1",
      "blockHash": "0xf0125354aba0130d6a2314a1c20b59fc7161e7750d95783e5e06b1183091de03",
      "blockNumber": "0xbad0bab",
      "gasUsed": "0x79dd",
      "effectiveGasPrice": "0x66720b300",
      "from": "0x0ece75f3c36f7df2136dac7633165dbff53de3cd",
      "to": "0x5e6671ef689b2b2d4391a766b0486e5054136546",
      "contractAddress": null
    },
    {
      "status": "0x1",
      "cumulativeGasUsed": "0x3ef23",
      "logs": [
        {
          "address": "0xcdec0d768e43090a9eec47d87d8165e9fa78b204",
          "topics": [
            "0x238399d427b947898edb290f5ff0f9109849b1c3ba196a42e35f00c50a54b98b"
          ],
          "data": "0x00000000000000000000000000000000000000000000000000000000000075e80000000000000000000000009eaa6ec9e0b55948309eb320166312cb0807b6de",
          "blockHash": "0xf0125354aba0130d6a2314a1c20b59fc7161e7750d95783e5e06b1183091de03",
          "blockNumber": "0xbad0bab",
          "transactionHash": "0xa3ee7369a3bcfe579b54d6b2eaf26764c85bd436e4c068a50ac07f2c9fd10467",
          "transactionIndex": "0x2",
          "logIndex": "0x4",
          "removed": false
        }
      ],
      "logsBloom": "0x00000000000000000000000000000000000000000000000000000000000000000000000000000000000000000000000000000000000000000800000000000000000000000000000000000000000000000000000000000000000000000000000000000000000000000000000000000000000000000000000000000000000000000000000000000100000000000000000000000000000000000000000000000004000000000000000000000000000000000000000000000000000002000000000000000000000000000000000000000000000000000000000000040000000000000000000080000000000000000000000000000000000000000000000000000000",
      "type": "0x2",
      "transactionHash": "0xa3ee7369a3bcfe579b54d6b2eaf26764c85bd436e4c068a50ac07f2c9fd10467",
      "transactionIndex": "0x2",
      "blockHash": "0xf0125354aba0130d6a2314a1c20b59fc7161e7750d95783e5e06b1183091de03",
      "blockNumber": "0xbad0bab",
      "gasUsed": "0x79e9",
      "effectiveGasPrice": "0x66720b300",
      "from": "0x0ece75f3c36f7df2136dac7633165dbff53de3cd",
      "to": "0xcdec0d768e43090a9eec47d87d8165e9fa78b204",
      "contractAddress": null
    }
  ],
  "libraries": [],
  "pending": [],
  "returns": {},
  "timestamp": 1757955418516,
  "chain": 8217,
  "commit": "dc758c0"
}