{
  "transactions": [
    {
      "hash": "0xed4f5aaec0f0a5c1cd3d7be34b2c7fca99de4a8b94efcd56c6dde36118b741af",
      "transactionType": "CALL",
      "contractName": null,
      "contractAddress": "0xc3be8ab4ca0cefe3119a765b324bbdf54a16a65b",
      "function": "setOperator(address,bool)",
      "arguments": [
        "0x4815C7dd6cc0309465302c9F1BDFddB7312d2bF2",
        "true"
      ],
      "transaction": {
        "from": "0x0ece75f3c36f7df2136dac7633165dbff53de3cd",
        "to": "0xc3be8ab4ca0cefe3119a765b324bbdf54a16a65b",
        "gas": "0x10b3d",
        "value": "0x0",
        "input": "0x558a72970000000000000000000000004815c7dd6cc0309465302c9f1bdfddb7312d2bf20000000000000000000000000000000000000000000000000000000000000001",
        "nonce": "0x12c",
        "chainId": "0x2105"
      },
      "additionalContracts": [],
      "isFixedGasLimit": false
    },
    {
      "hash": "0x9803b94de35f603b8c3a55b3c2f9d01c40f225409894ecc30590de079f8f708e",
      "transactionType": "CALL",
      "contractName": null,
      "contractAddress": "0x3703a1da99a2bdf2d8ce57802aacb20fb546ff12",
      "function": "setOperator(address,bool)",
      "arguments": [
        "0xA5B25a041cfC241f2B808B3298e2Cb7ceB5DfCD2",
        "true"
      ],
      "transaction": {
        "from": "0x0ece75f3c36f7df2136dac7633165dbff53de3cd",
        "to": "0x3703a1da99a2bdf2d8ce57802aacb20fb546ff12",
        "gas": "0x10b3d",
        "value": "0x0",
        "input": "0x558a7297000000000000000000000000a5b25a041cfc241f2b808b3298e2cb7ceb5dfcd20000000000000000000000000000000000000000000000000000000000000001",
        "nonce": "0x12d",
        "chainId": "0x2105"
      },
      "additionalContracts": [],
      "isFixedGasLimit": false
    },
    {
      "hash": "0xbf8c8386be206fcd550a7388c1913cdb86315693ffb786d97855ef400463e4e0",
      "transactionType": "CALL",
      "contractName": null,
      "contractAddress": "0x394239573079a46e438ea6d118fd96d37a61f270",
      "function": "setOperator(address,bool)",
      "arguments": [
        "0xf15f575095a37A0325182C49a45Fe05f09Fc6b4D",
        "true"
      ],
      "transaction": {
        "from": "0x0ece75f3c36f7df2136dac7633165dbff53de3cd",
        "to": "0x394239573079a46e438ea6d118fd96d37a61f270",
        "gas": "0x10b3d",
        "value": "0x0",
        "input": "0x558a7297000000000000000000000000f15f575095a37a0325182c49a45fe05f09fc6b4d0000000000000000000000000000000000000000000000000000000000000001",
        "nonce": "0x12e",
        "chainId": "0x2105"
      },
      "additionalContracts": [],
      "isFixedGasLimit": false
    },
    {
      "hash": "0x01bcfcacd8a4cde4edc29636c2142a605629401c127a5bba601a200b8f63b113",
      "transactionType": "CALL",
      "contractName": null,
      "contractAddress": "0xec32cc0267002618c339274c18ad48d2bf2a9c7e",
      "function": "setOperator(address,bool)",
      "arguments": [
        "0x8FEd03c9d8ed1237b76BE271a49D11CCE5dFd81e",
        "true"
      ],
      "transaction": {
        "from": "0x0ece75f3c36f7df2136dac7633165dbff53de3cd",
        "to": "0xec32cc0267002618c339274c18ad48d2bf2a9c7e",
        "gas": "0x10b3d",
        "value": "0x0",
        "input": "0x558a72970000000000000000000000008fed03c9d8ed1237b76be271a49d11cce5dfd81e0000000000000000000000000000000000000000000000000000000000000001",
        "nonce": "0x12f",
        "chainId": "0x2105"
      },
      "additionalContracts": [],
      "isFixedGasLimit": false
    }
  ],
  "receipts": [
    {
      "status": "0x1",
      "cumulativeGasUsed": "0xc9e975",
      "logs": [],
      "logsBloom": "0x00000000000000000000000000000000000000000000000000000000000000000000000000000000000000000000000000000000000000000000000000000000000000000000000000000000000000000000000000000000000000000000000000000000000000000000000000000000000000000000000000000000000000000000000000000000000000000000000000000000000000000000000000000000000000000000000000000000000000000000000000000000000000000000000000000000000000000000000000000000000000000000000000000000000000000000000000000000000000000000000000000000000000000000000000000000",
      "type": "0x2",
      "transactionHash": "0xed4f5aaec0f0a5c1cd3d7be34b2c7fca99de4a8b94efcd56c6dde36118b741af",
      "transactionIndex": "0x30",
      "blockHash": "0x1d0df9c4c652e7f5b5a88d7f546d2385c3ba9c50ad9d49f55986432624c16932",
      "blockNumber": "0x220f9d5",
      "gasUsed": "0xb6bb",
      "effectiveGasPrice": "0x4e0904",
      "from": "0x0ece75f3c36f7df2136dac7633165dbff53de3cd",
      "to": "0xc3be8ab4ca0cefe3119a765b324bbdf54a16a65b",
      "contractAddress": null,
      "l1BaseFeeScalar": "0x8dd",
      "l1BlobBaseFee": "0x1",
      "l1BlobBaseFeeScalar": "0x101c12",
      "l1Fee": "0xef1131c4",
      "l1GasPrice": "0x41d9f9a0",
      "l1GasUsed": "0x640"
    },
    {
      "status": "0x1",
      "cumulativeGasUsed": "0xcaa030",
      "logs": [],
      "logsBloom": "0x00000000000000000000000000000000000000000000000000000000000000000000000000000000000000000000000000000000000000000000000000000000000000000000000000000000000000000000000000000000000000000000000000000000000000000000000000000000000000000000000000000000000000000000000000000000000000000000000000000000000000000000000000000000000000000000000000000000000000000000000000000000000000000000000000000000000000000000000000000000000000000000000000000000000000000000000000000000000000000000000000000000000000000000000000000000",
      "type": "0x2",
      "transactionHash": "0x9803b94de35f603b8c3a55b3c2f9d01c40f225409894ecc30590de079f8f708e",
      "transactionIndex": "0x31",
      "blockHash": "0x3edbafb8f5e364a2174cc8b36c1f71064e28be7cf510b5ef302dddaab3b247d1",
      "blockNumber": "0x220f9d5",
      "gasUsed": "0xb6bb",
      "effectiveGasPrice": "0x4e0904",
      "from": "0x0ece75f3c36f7df2136dac7633165dbff53de3cd",
      "to": "0x3703a1da99a2bdf2d8ce57802aacb20fb546ff12",
      "contractAddress": null,
      "l1BaseFeeScalar": "0x8dd",
      "l1BlobBaseFee": "0x1",
      "l1BlobBaseFeeScalar": "0x101c12",
      "l1Fee": "0xef1131c4",
      "l1GasPrice": "0x41d9f9a0",
      "l1GasUsed": "0x640"
    },
    {
      "status": "0x1",
      "cumulativeGasUsed": "0xcb56eb",
      "logs": [],
      "logsBloom": "0x00000000000000000000000000000000000000000000000000000000000000000000000000000000000000000000000000000000000000000000000000000000000000000000000000000000000000000000000000000000000000000000000000000000000000000000000000000000000000000000000000000000000000000000000000000000000000000000000000000000000000000000000000000000000000000000000000000000000000000000000000000000000000000000000000000000000000000000000000000000000000000000000000000000000000000000000000000000000000000000000000000000000000000000000000000000",
      "type": "0x2",
      "transactionHash": "0xbf8c8386be206fcd550a7388c1913cdb86315693ffb786d97855ef400463e4e0",
      "transactionIndex": "0x32",
      "blockHash": "0x1d0df9c4c652e7f5b5a88d7f546d2385c3ba9c50ad9d49f55986432624c16932",
      "blockNumber": "0x220f9d5",
      "gasUsed": "0xb6bb",
      "effectiveGasPrice": "0x4e0904",
      "from": "0x0ece75f3c36f7df2136dac7633165dbff53de3cd",
      "to": "0x394239573079a46e438ea6d118fd96d37a61f270",
      "contractAddress": null,
      "l1BaseFeeScalar": "0x8dd",
      "l1BlobBaseFee": "0x1",
      "l1BlobBaseFeeScalar": "0x101c12",
      "l1Fee": "0xef1131c4",
      "l1GasPrice": "0x41d9f9a0",
      "l1GasUsed": "0x640"
    },
    {
      "status": "0x1",
      "cumulativeGasUsed": "0xcc0da6",
      "logs": [],
      "logsBloom": "0x00000000000000000000000000000000000000000000000000000000000000000000000000000000000000000000000000000000000000000000000000000000000000000000000000000000000000000000000000000000000000000000000000000000000000000000000000000000000000000000000000000000000000000000000000000000000000000000000000000000000000000000000000000000000000000000000000000000000000000000000000000000000000000000000000000000000000000000000000000000000000000000000000000000000000000000000000000000000000000000000000000000000000000000000000000000",
      "type": "0x2",
      "transactionHash": "0x01bcfcacd8a4cde4edc29636c2142a605629401c127a5bba601a200b8f63b113",
      "transactionIndex": "0x33",
      "blockHash": "0x3edbafb8f5e364a2174cc8b36c1f71064e28be7cf510b5ef302dddaab3b247d1",
      "blockNumber": "0x220f9d5",
      "gasUsed": "0xb6bb",
      "effectiveGasPrice": "0x4e0904",
      "from": "0x0ece75f3c36f7df2136dac7633165dbff53de3cd",
      "to": "0xec32cc0267002618c339274c18ad48d2bf2a9c7e",
      "contractAddress": null,
      "l1BaseFeeScalar": "0x8dd",
      "l1BlobBaseFee": "0x1",
      "l1BlobBaseFeeScalar": "0x101c12",
      "l1Fee": "0xef1131c4",
      "l1GasPrice": "0x41d9f9a0",
      "l1GasUsed": "0x640"
    }
  ],
  "libraries": [],
  "pending": [],
  "returns": {},
  "timestamp": 1758220428100,
  "chain": 8453,
  "commit": "6c82bda"
}